{
  "contractName": "FundPool",
  "abi": [
    {
      "constant": true,
      "inputs": [],
      "name": "name",
      "outputs": [
        {
          "name": "",
          "type": "string"
        }
      ],
      "payable": false,
      "stateMutability": "view",
      "type": "function"
    },
    {
      "constant": true,
      "inputs": [],
      "name": "totalSupply",
      "outputs": [
        {
          "name": "",
          "type": "uint256"
        }
      ],
      "payable": false,
      "stateMutability": "view",
      "type": "function"
    },
    {
      "constant": true,
      "inputs": [
        {
          "name": "",
          "type": "address"
        }
      ],
      "name": "balances",
      "outputs": [
        {
          "name": "",
          "type": "uint256"
        }
      ],
      "payable": false,
      "stateMutability": "view",
      "type": "function"
    },
    {
      "constant": true,
      "inputs": [],
      "name": "sellReserve",
      "outputs": [
        {
          "name": "",
          "type": "uint256"
        }
      ],
      "payable": false,
      "stateMutability": "view",
      "type": "function"
    },
    {
      "constant": true,
      "inputs": [],
      "name": "crowdFundStartTime",
      "outputs": [
        {
          "name": "",
          "type": "uint256"
        }
      ],
      "payable": false,
      "stateMutability": "view",
      "type": "function"
    },
    {
      "constant": true,
      "inputs": [],
      "name": "crowdFundDays",
      "outputs": [
        {
          "name": "",
          "type": "uint256"
        }
      ],
      "payable": false,
      "stateMutability": "view",
      "type": "function"
    },
    {
      "constant": true,
      "inputs": [],
      "name": "slope",
      "outputs": [
        {
          "name": "",
          "type": "uint256"
        }
      ],
      "payable": false,
      "stateMutability": "view",
      "type": "function"
    },
    {
      "constant": true,
      "inputs": [],
      "name": "owner",
      "outputs": [
        {
          "name": "",
          "type": "address"
        }
      ],
      "payable": false,
      "stateMutability": "view",
      "type": "function"
    },
    {
      "constant": true,
      "inputs": [],
      "name": "beta",
      "outputs": [
        {
          "name": "",
          "type": "uint256"
        }
      ],
      "payable": false,
      "stateMutability": "view",
      "type": "function"
    },
    {
      "constant": true,
      "inputs": [],
      "name": "crowdFundMoney",
      "outputs": [
        {
          "name": "",
          "type": "uint256"
        }
      ],
      "payable": false,
      "stateMutability": "view",
      "type": "function"
    },
    {
      "constant": true,
      "inputs": [],
      "name": "crowdFunding",
      "outputs": [
        {
          "name": "",
          "type": "bool"
        }
      ],
      "payable": false,
      "stateMutability": "view",
      "type": "function"
    },
    {
      "constant": true,
      "inputs": [],
      "name": "alpha",
      "outputs": [
        {
          "name": "",
          "type": "uint256"
        }
      ],
      "payable": false,
      "stateMutability": "view",
      "type": "function"
    },
    {
      "constant": true,
      "inputs": [
        {
          "name": "",
          "type": "address"
        }
      ],
      "name": "crowdFundingEth",
      "outputs": [
        {
          "name": "",
          "type": "uint256"
        }
      ],
      "payable": false,
      "stateMutability": "view",
      "type": "function"
    },
    {
      "inputs": [
        {
          "name": "_name",
          "type": "string"
        },
        {
          "name": "d",
          "type": "uint256"
        },
        {
          "name": "m",
          "type": "uint256"
        },
        {
          "name": "s",
          "type": "uint256"
        },
        {
          "name": "a",
          "type": "uint256"
        },
        {
          "name": "b",
          "type": "uint256"
        }
      ],
      "payable": false,
      "stateMutability": "nonpayable",
      "type": "constructor"
    },
    {
      "anonymous": false,
      "inputs": [
        {
          "indexed": false,
          "name": "who",
          "type": "address"
        },
        {
          "indexed": false,
          "name": "ethAmount",
          "type": "uint256"
        },
        {
          "indexed": false,
          "name": "nfdAmount",
          "type": "uint256"
        }
      ],
      "name": "OnBuy",
      "type": "event"
    },
    {
      "anonymous": false,
      "inputs": [
        {
          "indexed": false,
          "name": "who",
          "type": "address"
        },
        {
          "indexed": false,
          "name": "ethAmount",
          "type": "uint256"
        },
        {
          "indexed": false,
          "name": "nfdAmount",
          "type": "uint256"
        }
      ],
      "name": "OnSell",
      "type": "event"
    },
    {
      "anonymous": false,
      "inputs": [
        {
          "indexed": false,
          "name": "who",
          "type": "address"
        },
        {
          "indexed": false,
          "name": "ethAmount",
          "type": "uint256"
        },
        {
          "indexed": false,
          "name": "nfdAmount",
          "type": "uint256"
        }
      ],
      "name": "OnRevenue",
      "type": "event"
    },
    {
      "anonymous": false,
      "inputs": [
        {
          "indexed": false,
          "name": "who",
          "type": "address"
        },
        {
          "indexed": false,
          "name": "ethAmount",
          "type": "uint256"
        }
      ],
      "name": "OnWindingUp",
      "type": "event"
    },
    {
      "constant": true,
      "inputs": [],
      "name": "getVoteContract",
      "outputs": [
        {
          "name": "",
          "type": "address"
        }
      ],
      "payable": false,
      "stateMutability": "view",
      "type": "function"
    },
    {
      "constant": false,
      "inputs": [
        {
          "name": "_slope",
          "type": "uint256"
        }
      ],
      "name": "setSlope",
      "outputs": [],
      "payable": false,
      "stateMutability": "nonpayable",
      "type": "function"
    },
    {
      "constant": false,
      "inputs": [
        {
          "name": "_alpha",
          "type": "uint256"
        }
      ],
      "name": "setAlpha",
      "outputs": [],
      "payable": false,
      "stateMutability": "nonpayable",
      "type": "function"
    },
    {
      "constant": false,
      "inputs": [
        {
          "name": "_beta",
          "type": "uint256"
        }
      ],
      "name": "setBeta",
      "outputs": [],
      "payable": false,
      "stateMutability": "nonpayable",
      "type": "function"
    },
    {
      "constant": false,
      "inputs": [],
      "name": "windingUp",
      "outputs": [],
      "payable": false,
      "stateMutability": "nonpayable",
      "type": "function"
    },
    {
      "constant": false,
      "inputs": [],
      "name": "buy",
      "outputs": [],
      "payable": true,
      "stateMutability": "payable",
      "type": "function"
    },
    {
      "constant": false,
      "inputs": [
        {
          "name": "amount",
          "type": "uint256"
        }
      ],
      "name": "sell",
      "outputs": [],
      "payable": false,
      "stateMutability": "nonpayable",
      "type": "function"
    },
    {
      "constant": false,
      "inputs": [],
      "name": "revenue",
      "outputs": [],
      "payable": true,
      "stateMutability": "payable",
      "type": "function"
    }
  ],
  "bytecode": "0x608060405264e8d4a510006000556102bc600155610320600255601e6003556127106004556001600660006101000a81548160ff02191690831515021790555060006009556000600c556000600d553480156200005b57600080fd5b5060405162004aee38038062004aee833981018060405260c08110156200008157600080fd5b8101908080516401000000008111156200009a57600080fd5b82810190506020810184811115620000b157600080fd5b8151856001820283011164010000000082111715620000cf57600080fd5b5050929190602001805190602001909291908051906020019092919080519060200190929190805190602001909291908051906020019092919050505033600b60006101000a81548173ffffffffffffffffffffffffffffffffffffffff021916908373ffffffffffffffffffffffffffffffffffffffff1602179055506000865111620001a0576040517f08c379a0000000000000000000000000000000000000000000000000000000008152600401808060200182810382526000815260200160200191505060405180910390fd5b60008511620001f2576040517f08c379a0000000000000000000000000000000000000000000000000000000008152600401808060200182810382526000815260200160200191505060405180910390fd5b6000841162000244576040517f08c379a0000000000000000000000000000000000000000000000000000000008152600401808060200182810382526000815260200160200191505060405180910390fd5b6000831162000296576040517f08c379a0000000000000000000000000000000000000000000000000000000008152600401808060200182810382526000815260200160200191505060405180910390fd5b60008211620002e8576040517f08c379a0000000000000000000000000000000000000000000000000000000008152600401808060200182810382526000815260200160200191505060405180910390fd5b600081116200033a576040517f08c379a0000000000000000000000000000000000000000000000000000000008152600401808060200182810382526000815260200160200191505060405180910390fd5b85600790805190602001906200035292919062000482565b50846003819055508360048190555042600581905550826000819055508160018190555080600281905550600b60009054906101000a900473ffffffffffffffffffffffffffffffffffffffff1630604051620003af9062000509565b808373ffffffffffffffffffffffffffffffffffffffff1673ffffffffffffffffffffffffffffffffffffffff1681526020018273ffffffffffffffffffffffffffffffffffffffff1673ffffffffffffffffffffffffffffffffffffffff16815260200192505050604051809103906000f08015801562000435573d6000803e3d6000fd5b50600e60006101000a81548173ffffffffffffffffffffffffffffffffffffffff021916908373ffffffffffffffffffffffffffffffffffffffff1602179055505050505050506200053f565b828054600181600116156101000203166002900490600052602060002090601f016020900481019282601f10620004c557805160ff1916838001178555620004f6565b82800160010185558215620004f6579182015b82811115620004f5578251825591602001919060010190620004d8565b5b50905062000505919062000517565b5090565b612ed78062001c1783390190565b6200053c91905b80821115620005385760008160009055506001016200051e565b5090565b90565b6116c8806200054f6000396000f3fe60806040526004361061012a5760003560e01c806383caf275116100ab578063b6acabc11161006f578063b6acabc114610489578063d3a0b810146104b8578063db1d0fd5146104f3578063e4849b321461051e578063f480fb6b14610559578063f8940000146105be5761012a565b806383caf275146103a75780638da5cb5b146103d25780639faa3c9114610429578063a6f2ae3a14610454578063b0e8fc751461045e5761012a565b80633d00e61b116100f25780633d00e61b146102e15780633e9491a21461030c578063569e3e02146103165780636172bed414610351578063685a85ed1461037c5761012a565b806306fdde031461012f5780630c17d42c146101bf57806318160ddd146101fa57806327e235e3146102255780633aee10881461028a575b600080fd5b34801561013b57600080fd5b506101446105d5565b6040518080602001828103825283818151815260200191508051906020019080838360005b83811015610184578082015181840152602081019050610169565b50505050905090810190601f1680156101b15780820380516001836020036101000a031916815260200191505b509250505060405180910390f35b3480156101cb57600080fd5b506101f8600480360360208110156101e257600080fd5b8101908080359060200190929190505050610673565b005b34801561020657600080fd5b5061020f610740565b6040518082815260200191505060405180910390f35b34801561023157600080fd5b506102746004803603602081101561024857600080fd5b81019080803573ffffffffffffffffffffffffffffffffffffffff169060200190929190505050610746565b6040518082815260200191505060405180910390f35b34801561029657600080fd5b5061029f61075e565b604051808273ffffffffffffffffffffffffffffffffffffffff1673ffffffffffffffffffffffffffffffffffffffff16815260200191505060405180910390f35b3480156102ed57600080fd5b506102f6610788565b6040518082815260200191505060405180910390f35b61031461078e565b005b34801561032257600080fd5b5061034f6004803603602081101561033957600080fd5b810190808035906020019092919050505061093c565b005b34801561035d57600080fd5b50610366610a09565b6040518082815260200191505060405180910390f35b34801561038857600080fd5b50610391610a0f565b6040518082815260200191505060405180910390f35b3480156103b357600080fd5b506103bc610a15565b6040518082815260200191505060405180910390f35b3480156103de57600080fd5b506103e7610a1b565b604051808273ffffffffffffffffffffffffffffffffffffffff1673ffffffffffffffffffffffffffffffffffffffff16815260200191505060405180910390f35b34801561043557600080fd5b5061043e610a41565b6040518082815260200191505060405180910390f35b61045c610a47565b005b34801561046a57600080fd5b50610473610f2a565b6040518082815260200191505060405180910390f35b34801561049557600080fd5b5061049e610f30565b604051808215151515815260200191505060405180910390f35b3480156104c457600080fd5b506104f1600480360360208110156104db57600080fd5b8101908080359060200190929190505050610f43565b005b3480156104ff57600080fd5b50610508611010565b6040518082815260200191505060405180910390f35b34801561052a57600080fd5b506105576004803603602081101561054157600080fd5b8101908080359060200190929190505050611016565b005b34801561056557600080fd5b506105a86004803603602081101561057c57600080fd5b81019080803573ffffffffffffffffffffffffffffffffffffffff169060200190929190505050611318565b6040518082815260200191505060405180910390f35b3480156105ca57600080fd5b506105d3611330565b005b60078054600181600116156101000203166002900480601f01602080910402602001604051908101604052809291908181526020018280546001816001161561010002031660029004801561066b5780601f106106405761010080835404028352916020019161066b565b820191906000526020600020905b81548152906001019060200180831161064e57829003601f168201915b505050505081565b3373ffffffffffffffffffffffffffffffffffffffff16600b60009054906101000a900473ffffffffffffffffffffffffffffffffffffffff1673ffffffffffffffffffffffffffffffffffffffff1614610736576040517f08c379a00000000000000000000000000000000000000000000000000000000081526004018080602001828103825260118152602001807f6c696d6974656420617574686f7269747900000000000000000000000000000081525060200191505060405180910390fd5b8060018190555050565b60095481565b600a6020528060005260406000206000915090505481565b6000600e60009054906101000a900473ffffffffffffffffffffffffffffffffffffffff16905090565b600c5481565b600034116107df576040517f08c379a0000000000000000000000000000000000000000000000000000000008152600401808060200182810382526000815260200160200191505060405180910390fd5b6000349050600060095461080c600954600954026000546103e886600202028161080557fe5b040161160b565b039050806009600082825401925050819055508160025402600c600082825401925050819055506000826002546103e80302905080600d60008282540192505081905550600e60009054906101000a900473ffffffffffffffffffffffffffffffffffffffff1673ffffffffffffffffffffffffffffffffffffffff166108fc6103e8838161089757fe5b049081150290604051600060405180830381858888f193505050501580156108c3573d6000803e3d6000fd5b507f587d8691a200e665a44579c740fc329381fab263cea1235d8104b66d4cd8235c333484604051808473ffffffffffffffffffffffffffffffffffffffff1673ffffffffffffffffffffffffffffffffffffffff168152602001838152602001828152602001935050505060405180910390a1505050565b3373ffffffffffffffffffffffffffffffffffffffff16600b60009054906101000a900473ffffffffffffffffffffffffffffffffffffffff1673ffffffffffffffffffffffffffffffffffffffff16146109ff576040517f08c379a00000000000000000000000000000000000000000000000000000000081526004018080602001828103825260118152602001807f6c696d6974656420617574686f7269747900000000000000000000000000000081525060200191505060405180910390fd5b8060008190555050565b60055481565b60035481565b60005481565b600b60009054906101000a900473ffffffffffffffffffffffffffffffffffffffff1681565b60025481565b60003411610a98576040517f08c379a0000000000000000000000000000000000000000000000000000000008152600401808060200182810382526000815260200160200191505060405180910390fd5b60003490506000600954610ac5600954600954026000546103e8866002020281610abe57fe5b040161160b565b03905080600a60003373ffffffffffffffffffffffffffffffffffffffff1673ffffffffffffffffffffffffffffffffffffffff16815260200190815260200160002060008282540192505081905550806009600082825401925050819055506000809050600080600c546103e8600c54600d54016001540281610b4557fe5b04031115610b6c57600c54600c54600d54016103e860015481610b6457fe5b040203610b6f565b60005b905060008111610b9d578360015402600c60008282540192505081905550836001546103e803029150610c17565b836103e88281610ba957fe5b0410610bcc576103e88402600c6000828254019250508190555060009150610c16565b80600c600082825401925050819055506001546103e88281610bea57fe5b04850302600c600082825401925050819055506001546103e8036103e88281610c0f57fe5b0485030291505b5b81600d600082825401925050819055506103e88281610c3257fe5b04915060001515600660009054906101000a900460ff1615151415610cbf57600e60009054906101000a900473ffffffffffffffffffffffffffffffffffffffff1673ffffffffffffffffffffffffffffffffffffffff166108fc839081150290604051600060405180830381858888f19350505050158015610cb9573d6000803e3d6000fd5b50610eb1565b6103e860045402600c54600d540110610de55762278d0060055442031115610d4f576040517f08c379a000000000000000000000000000000000000000000000000000000000815260040180806020018281038252601e8152602001807f4265796f6e64207468652063726f776466756e64696e6720706572696f64000081525060200191505060405180910390fd5b6000600660006101000a81548160ff021916908315150217905550600e60009054906101000a900473ffffffffffffffffffffffffffffffffffffffff1673ffffffffffffffffffffffffffffffffffffffff166108fc6103e8600d5481610db357fe5b049081150290604051600060405180830381858888f19350505050158015610ddf573d6000803e3d6000fd5b50610eb0565b34600860003373ffffffffffffffffffffffffffffffffffffffff1673ffffffffffffffffffffffffffffffffffffffff1681526020019081526020016000206000828254019250508190555062278d0060055442031115610eaf576040517f08c379a000000000000000000000000000000000000000000000000000000000815260040180806020018281038252601e8152602001807f4265796f6e64207468652063726f776466756e64696e6720706572696f64000081525060200191505060405180910390fd5b5b5b7fe1ec7176d5b997461b6dfac832d3dca02a6487756f5aa2bcb6d1eaeab56ce66c333485604051808473ffffffffffffffffffffffffffffffffffffffff1673ffffffffffffffffffffffffffffffffffffffff168152602001838152602001828152602001935050505060405180910390a150505050565b60045481565b600660009054906101000a900460ff1681565b3373ffffffffffffffffffffffffffffffffffffffff16600b60009054906101000a900473ffffffffffffffffffffffffffffffffffffffff1673ffffffffffffffffffffffffffffffffffffffff1614611006576040517f08c379a00000000000000000000000000000000000000000000000000000000081526004018080602001828103825260118152602001807f6c696d6974656420617574686f7269747900000000000000000000000000000081525060200191505060405180910390fd5b8060028190555050565b60015481565b60001515600660009054906101000a900460ff16151514611082576040517f08c379a000000000000000000000000000000000000000000000000000000000815260040180806020018281038252602381526020018061167a6023913960400191505060405180910390fd5b600081116110d3576040517f08c379a0000000000000000000000000000000000000000000000000000000008152600401808060200182810382526000815260200160200191505060405180910390fd5b80600a60003373ffffffffffffffffffffffffffffffffffffffff1673ffffffffffffffffffffffffffffffffffffffff168152602001908152602001600020541015611163576040517f08c379a0000000000000000000000000000000000000000000000000000000008152600401808060200182810382526000815260200160200191505060405180910390fd5b6000600954600954836009546002020384600c5402028161118057fe5b048161118857fe5b04905081600a60003373ffffffffffffffffffffffffffffffffffffffff1673ffffffffffffffffffffffffffffffffffffffff168152602001908152602001600020600082825403925050819055508160096000828254039250508190555080600c600082825403925050819055506000600c54101561124c576040517f08c379a0000000000000000000000000000000000000000000000000000000008152600401808060200182810382526000815260200160200191505060405180910390fd5b6103e8818161125757fe5b0490503373ffffffffffffffffffffffffffffffffffffffff166108fc829081150290604051600060405180830381858888f193505050501580156112a0573d6000803e3d6000fd5b507f26787c8671412319a484ce56f5606f739f3d415e9c4930cd0603b1c1badc2042338284604051808473ffffffffffffffffffffffffffffffffffffffff1673ffffffffffffffffffffffffffffffffffffffff168152602001838152602001828152602001935050505060405180910390a15050565b60086020528060005260406000206000915090505481565b62278d0060055442031161138f576040517f08c379a00000000000000000000000000000000000000000000000000000000081526004018080602001828103825260238152602001806116576023913960400191505060405180910390fd5b60011515600660009054906101000a900460ff16151514611418576040517f08c379a00000000000000000000000000000000000000000000000000000000081526004018080602001828103825260118152602001807f6e65656420636f72776466756e64696e6700000000000000000000000000000081525060200191505060405180910390fd5b6000600860003373ffffffffffffffffffffffffffffffffffffffff1673ffffffffffffffffffffffffffffffffffffffff16815260200190815260200160002054116114cd576040517f08c379a000000000000000000000000000000000000000000000000000000000815260040180806020018281038252600c8152602001807f6e6565642068617320657468000000000000000000000000000000000000000081525060200191505060405180910390fd5b6000600860003373ffffffffffffffffffffffffffffffffffffffff1673ffffffffffffffffffffffffffffffffffffffff1681526020019081526020016000205490503373ffffffffffffffffffffffffffffffffffffffff166108fc829081150290604051600060405180830381858888f19350505050158015611557573d6000803e3d6000fd5b506000600860003373ffffffffffffffffffffffffffffffffffffffff1673ffffffffffffffffffffffffffffffffffffffff168152602001908152602001600020819055507f7ea5f43cc9e27e9343d5a9d178f6780f166850ccc0795f2e8ad86580fd6aa2163382604051808373ffffffffffffffffffffffffffffffffffffffff1673ffffffffffffffffffffffffffffffffffffffff1681526020018281526020019250505060405180910390a150565b6000806002600184018161161b57fe5b04905060008390505b8082101561164c5781905060028283868161163b57fe5b04018161164457fe5b049150611624565b809250505091905056fe6e656564206265796f6e642074686520636f72776466756e64696e6720706572696f646e656564204265796f6e64207468652063726f776466756e64696e6720706572696f64a165627a7a723058200856a6ade08d29357534de03449f53b1000d2289e5a31abfd068694f0fbfd092002960806040526212750060005534801561001757600080fd5b50604051604080612ed78339810180604052604081101561003757600080fd5b81019080805190602001909291908051906020019092919050505081600160006101000a81548173ffffffffffffffffffffffffffffffffffffffff021916908373ffffffffffffffffffffffffffffffffffffffff16021790555080600260006101000a81548173ffffffffffffffffffffffffffffffffffffffff021916908373ffffffffffffffffffffffffffffffffffffffff1602179055505050612df2806100e56000396000f3fe60806040526004361061009c5760003560e01c8063943e821611610064578063943e821614610386578063c5e684d2146103ce578063cfab3acc14610569578063ee85348e146105a4578063ef990d2014610609578063ffb2c479146106345761009c565b80630a81e7021461009e5780631ab3c1d3146100d95780633262fd9a1461015b5780637a0a0078146101965780638c4680ec14610329575b005b3480156100aa57600080fd5b506100d7600480360360208110156100c157600080fd5b810190808035906020019092919050505061066f565b005b3480156100e557600080fd5b50610112600480360360208110156100fc57600080fd5b810190808035906020019092919050505061099a565b6040518087815260200186815260200185151515158152602001841515151581526020018315151515815260200182151515158152602001965050505050505060405180910390f35b34801561016757600080fd5b506101946004803603602081101561017e57600080fd5b8101908080359060200190929190505050610cd6565b005b3480156101a257600080fd5b50610327600480360360a08110156101b957600080fd5b81019080803590602001906401000000008111156101d657600080fd5b8201836020820111156101e857600080fd5b8035906020019184600183028401116401000000008311171561020a57600080fd5b91908080601f016020809104026020016040519081016040528093929190818152602001838380828437600081840152601f19601f820116905080830192505050505050509192919290803573ffffffffffffffffffffffffffffffffffffffff1690602001909291908035906020019092919080359060200190929190803590602001906401000000008111156102a157600080fd5b8201836020820111156102b357600080fd5b803590602001918460018302840111640100000000831117156102d557600080fd5b91908080601f016020809104026020016040519081016040528093929190818152602001838380828437600081840152601f19601f820116905080830192505050505050509192919290505050611183565b005b34801561033557600080fd5b506103626004803603602081101561034c57600080fd5b81019080803590602001909291905050506117fb565b60405180848152602001838152602001828152602001935050505060405180910390f35b34801561039257600080fd5b506103cc600480360360408110156103a957600080fd5b8101908080359060200190929190803560ff169060200190929190505050611b27565b005b3480156103da57600080fd5b50610407600480360360208110156103f157600080fd5b810190808035906020019092919050505061202f565b60405180806020018873ffffffffffffffffffffffffffffffffffffffff1673ffffffffffffffffffffffffffffffffffffffff1681526020018781526020018673ffffffffffffffffffffffffffffffffffffffff1673ffffffffffffffffffffffffffffffffffffffff1681526020018581526020018481526020018060200183810383528a818151815260200191508051906020019080838360005b838110156104c15780820151818401526020810190506104a6565b50505050905090810190601f1680156104ee5780820380516001836020036101000a031916815260200191505b50838103825284818151815260200191508051906020019080838360005b8381101561052757808201518184015260208101905061050c565b50505050905090810190601f1680156105545780820380516001836020036101000a031916815260200191505b50995050505050505050505060405180910390f35b34801561057557600080fd5b506105a26004803603602081101561058c57600080fd5b810190808035906020019092919050505061237b565b005b3480156105b057600080fd5b506105f3600480360360208110156105c757600080fd5b81019080803573ffffffffffffffffffffffffffffffffffffffff169060200190929190505050612726565b6040518082815260200191505060405180910390f35b34801561061557600080fd5b5061061e612847565b6040518082815260200191505060405180910390f35b34801561064057600080fd5b5061066d6004803603602081101561065757600080fd5b8101908080359060200190929190505050612854565b005b600061067a33612726565b116106ed576040517f08c379a000000000000000000000000000000000000000000000000000000000815260040180806020018281038252600f8152602001807f6e6565642068617320736861726573000000000000000000000000000000000081525060200191505060405180910390fd5b3373ffffffffffffffffffffffffffffffffffffffff16600160009054906101000a900473ffffffffffffffffffffffffffffffffffffffff1673ffffffffffffffffffffffffffffffffffffffff16146107b0576040517f08c379a00000000000000000000000000000000000000000000000000000000081526004018080602001828103825260168152602001807f73656e6465722073686f756c64206265206f776e65720000000000000000000081525060200191505060405180910390fd5b600380549050811061082a576040517f08c379a00000000000000000000000000000000000000000000000000000000081526004018080602001828103825260178152602001807f70726f706f73616c20646f6573206e6f7420657869737400000000000000000081525060200191505060405180910390fd5b60006003828154811061083957fe5b90600052602060002090600f02019050600015158160090160029054906101000a900460ff161515146108d4576040517f08c379a00000000000000000000000000000000000000000000000000000000081526004018080602001828103825260198152602001807f70726f706f73616c20686173206265656e2061626f727465640000000000000081525060200191505060405180910390fd5b600015158160090160039054906101000a900460ff16151514610942576040517f08c379a0000000000000000000000000000000000000000000000000000000008152600401808060200182810382526021815260200180612d846021913960400191505060405180910390fd5b60018160090160036101000a81548160ff0219169083151502179055507f3f004c855f0deef350ea73c1c577156652aafa03d4a99b5b31e0f29033199340826040518082815260200191505060405180910390a15050565b6000806000806000806109ab612bec565b600388815481106109b857fe5b90600052602060002090600f0201604051806101e001604052908160008201548152602001600182018054600181600116156101000203166002900480601f016020809104026020016040519081016040528092919081815260200182805460018160011615610100020316600290048015610a755780601f10610a4a57610100808354040283529160200191610a75565b820191906000526020600020905b815481529060010190602001808311610a5857829003601f168201915b505050505081526020016002820160009054906101000a900473ffffffffffffffffffffffffffffffffffffffff1673ffffffffffffffffffffffffffffffffffffffff1673ffffffffffffffffffffffffffffffffffffffff1681526020016003820154815260200160048201548152602001600582015481526020016006820160009054906101000a900473ffffffffffffffffffffffffffffffffffffffff1673ffffffffffffffffffffffffffffffffffffffff1673ffffffffffffffffffffffffffffffffffffffff16815260200160078201548152602001600882015481526020016009820160009054906101000a900460ff161515151581526020016009820160019054906101000a900460ff161515151581526020016009820160029054906101000a900460ff161515151581526020016009820160039054906101000a900460ff16151515158152602001600b82018054600181600116156101000203166002900480601f016020809104026020016040519081016040528092919081815260200182805460018160011615610100020316600290048015610c615780601f10610c3657610100808354040283529160200191610c61565b820191906000526020600020905b815481529060010190602001808311610c4457829003601f168201915b50505050508152602001600c82016040518060600160405290816000820154815260200160018201548152602001600282015481525050815250509050806060015181608001518261012001518361014001518461016001518561018001519650965096509650965096505091939550919395565b6003805490508110610d50576040517f08c379a00000000000000000000000000000000000000000000000000000000081526004018080602001828103825260178152602001807f70726f706f73616c20646f6573206e6f7420657869737400000000000000000081525060200191505060405180910390fd5b600060038281548110610d5f57fe5b90600052602060002090600f02019050600115158160090160019054906101000a900460ff16151514610dfa576040517f08c379a00000000000000000000000000000000000000000000000000000000081526004018080602001828103825260168152602001807f70726f706f73616c20646f6573206e6f7420706173730000000000000000000081525060200191505060405180910390fd5b8060060160009054906101000a900473ffffffffffffffffffffffffffffffffffffffff1673ffffffffffffffffffffffffffffffffffffffff163373ffffffffffffffffffffffffffffffffffffffff1614610ebf576040517f08c379a00000000000000000000000000000000000000000000000000000000081526004018080602001828103825260188152602001807f73656e646572206d75737420626520726563697069656e74000000000000000081525060200191505060405180910390fd5b610ec7612c9c565b81600c01604051806060016040529081600082015481526020016001820154815260200160028201548152505090506000816040015111610f70576040517f08c379a00000000000000000000000000000000000000000000000000000000081526004018080602001828103825260088152602001807f6e6f206d6f6e657900000000000000000000000000000000000000000000000081525060200191505060405180910390fd5b6000620151808260000151420381610f8457fe5b049050600062015180836000015184602001510381610f9f57fe5b0490506000808214610fc0578282856040015181610fb957fe5b0402610fc6565b83604001515b90503073ffffffffffffffffffffffffffffffffffffffff16318110611054576040517f08c379a00000000000000000000000000000000000000000000000000000000081526004018080602001828103825260108152602001807f6e6f7420656e6f756768206d6f6e65790000000000000000000000000000000081525060200191505060405180910390fd5b62015180830284600001510185600c01600001819055508085600c01600201600082825403925050819055506000846040015110156110de576040517f08c379a0000000000000000000000000000000000000000000000000000000008152600401808060200182810382526022815260200180612da56022913960400191505060405180910390fd5b3373ffffffffffffffffffffffffffffffffffffffff166108fc829081150290604051600060405180830381858888f19350505050158015611124573d6000803e3d6000fd5b507f1349a842787148ed05f4f2c10415b49589067c03461437c8f320aa81adc9d763868287600c0160020154426040518085815260200184815260200183815260200182815260200194505050505060405180910390a1505050505050565b600061118e33612726565b11611201576040517f08c379a000000000000000000000000000000000000000000000000000000000815260040180806020018281038252600f8152602001807f6e6565642068617320736861726573000000000000000000000000000000000081525060200191505060405180910390fd5b600073ffffffffffffffffffffffffffffffffffffffff168473ffffffffffffffffffffffffffffffffffffffff1614156112a4576040517f08c379a00000000000000000000000000000000000000000000000000000000081526004018080602001828103825260198152602001807f5f726563697069656e742063616e6e6f74206265206e756c6c0000000000000081525060200191505060405180910390fd5b6000831161131a576040517f08c379a00000000000000000000000000000000000000000000000000000000081526004018080602001828103825260168152602001807f76616c7565206e656564206d6f7265207468616e20300000000000000000000081525060200191505060405180910390fd5b6000821015611391576040517f08c379a000000000000000000000000000000000000000000000000000000000815260040180806020018281038252601f8152602001807f5f74696d65436f6e73756d696e672063616e74206c657373207468616e20300081525060200191505060405180910390fd5b611399612bec565b604051806101e0016040528060038054905081526020018781526020013373ffffffffffffffffffffffffffffffffffffffff16815260200160008152602001600081526020014281526020018673ffffffffffffffffffffffffffffffffffffffff16815260200185815260200184815260200160001515815260200160001515815260200160001515815260200160001515815260200183815260200160405180606001604052806000815260200160008152602001600081525081525090507f2502a88482d0c9326f614b5d37916990c3b58ad0abf3acd0ad73b36ce3f2f3818160000151826020015183604001518460a001518560c001518660e00151876101000151886101a0015160405180898152602001806020018873ffffffffffffffffffffffffffffffffffffffff1673ffffffffffffffffffffffffffffffffffffffff1681526020018781526020018673ffffffffffffffffffffffffffffffffffffffff1673ffffffffffffffffffffffffffffffffffffffff1681526020018581526020018481526020018060200183810383528a818151815260200191508051906020019080838360005b8381101561156657808201518184015260208101905061154b565b50505050905090810190601f1680156115935780820380516001836020036101000a031916815260200191505b50838103825284818151815260200191508051906020019080838360005b838110156115cc5780820151818401526020810190506115b1565b50505050905090810190601f1680156115f95780820380516001836020036101000a031916815260200191505b509a505050505050505050505060405180910390a16003819080600181540180825580915050906001820390600052602060002090600f020160009091929091909150600082015181600001556020820151816001019080519060200190611662929190612cbd565b5060408201518160020160006101000a81548173ffffffffffffffffffffffffffffffffffffffff021916908373ffffffffffffffffffffffffffffffffffffffff160217905550606082015181600301556080820151816004015560a0820151816005015560c08201518160060160006101000a81548173ffffffffffffffffffffffffffffffffffffffff021916908373ffffffffffffffffffffffffffffffffffffffff16021790555060e0820151816007015561010082015181600801556101208201518160090160006101000a81548160ff0219169083151502179055506101408201518160090160016101000a81548160ff0219169083151502179055506101608201518160090160026101000a81548160ff0219169083151502179055506101808201518160090160036101000a81548160ff0219169083151502179055506101a082015181600b0190805190602001906117c5929190612cbd565b506101c082015181600c016000820151816000015560208201518160010155604082015181600201555050505050505050505050565b6000806000611808612bec565b6003858154811061181557fe5b90600052602060002090600f0201604051806101e001604052908160008201548152602001600182018054600181600116156101000203166002900480601f0160208091040260200160405190810160405280929190818152602001828054600181600116156101000203166002900480156118d25780601f106118a7576101008083540402835291602001916118d2565b820191906000526020600020905b8154815290600101906020018083116118b557829003601f168201915b505050505081526020016002820160009054906101000a900473ffffffffffffffffffffffffffffffffffffffff1673ffffffffffffffffffffffffffffffffffffffff1673ffffffffffffffffffffffffffffffffffffffff1681526020016003820154815260200160048201548152602001600582015481526020016006820160009054906101000a900473ffffffffffffffffffffffffffffffffffffffff1673ffffffffffffffffffffffffffffffffffffffff1673ffffffffffffffffffffffffffffffffffffffff16815260200160078201548152602001600882015481526020016009820160009054906101000a900460ff161515151581526020016009820160019054906101000a900460ff161515151581526020016009820160029054906101000a900460ff161515151581526020016009820160039054906101000a900460ff16151515158152602001600b82018054600181600116156101000203166002900480601f016020809104026020016040519081016040528092919081815260200182805460018160011615610100020316600290048015611abe5780601f10611a9357610100808354040283529160200191611abe565b820191906000526020600020905b815481529060010190602001808311611aa157829003601f168201915b50505050508152602001600c82016040518060600160405290816000820154815260200160018201548152602001600282015481525050815250509050806101c00151600001519350806101c00151602001519250806101c00151604001519150509193909250565b6000611b3233612726565b11611ba5576040517f08c379a000000000000000000000000000000000000000000000000000000000815260040180806020018281038252600f8152602001807f6e6565642068617320736861726573000000000000000000000000000000000081525060200191505060405180910390fd5b6003805490508210611c1f576040517f08c379a00000000000000000000000000000000000000000000000000000000081526004018080602001828103825260178152602001807f70726f706f73616c20646f6573206e6f7420657869737400000000000000000081525060200191505060405180910390fd5b600060038381548110611c2e57fe5b90600052602060002090600f02019050600054816005015401421115611cbc576040517f08c379a00000000000000000000000000000000000000000000000000000000081526004018080602001828103825260088152602001807f74696d65206f757400000000000000000000000000000000000000000000000081525060200191505060405180910390fd5b60006002811115611cc957fe5b81600a0160003373ffffffffffffffffffffffffffffffffffffffff1673ffffffffffffffffffffffffffffffffffffffff16815260200190815260200160002060009054906101000a900460ff166002811115611d2357fe5b14611d96576040517f08c379a00000000000000000000000000000000000000000000000000000000081526004018080602001828103825260148152602001807f566f7465732068617665206265656e206361737400000000000000000000000081525060200191505060405180910390fd5b60018260ff161480611dab575060028260ff16145b611e1d576040517f08c379a000000000000000000000000000000000000000000000000000000000815260040180806020018281038252601f8152602001807f766f746520726573756c74206d757374206265206c657373207468616e20330081525060200191505060405180910390fd5b600015158160090160029054906101000a900460ff16151514611ea8576040517f08c379a00000000000000000000000000000000000000000000000000000000081526004018080602001828103825260198152602001807f70726f706f73616c20686173206265656e2061626f727465640000000000000081525060200191505060405180910390fd5b600015158160090160039054906101000a900460ff16151514611f16576040517f08c379a0000000000000000000000000000000000000000000000000000000008152600401808060200182810382526021815260200180612d846021913960400191505060405180910390fd5b60008260ff166002811115611f2757fe5b90508082600a0160003373ffffffffffffffffffffffffffffffffffffffff1673ffffffffffffffffffffffffffffffffffffffff16815260200190815260200160002060006101000a81548160ff02191690836002811115611f8657fe5b02179055506000611f9633612726565b905060016002811115611fa557fe5b826002811115611fb157fe5b1415611fcb57808360030154018360030181905550611fdb565b8083600401540183600401819055505b7f8ace90af9baf68b19b0864ae41c6d805cba9529d4c9718348e326695d9a0b6a8858583604051808481526020018360ff1660ff168152602001828152602001935050505060405180910390a15050505050565b606060008060008060006060612043612bec565b6003898154811061205057fe5b90600052602060002090600f0201604051806101e001604052908160008201548152602001600182018054600181600116156101000203166002900480601f01602080910402602001604051908101604052809291908181526020018280546001816001161561010002031660029004801561210d5780601f106120e25761010080835404028352916020019161210d565b820191906000526020600020905b8154815290600101906020018083116120f057829003601f168201915b505050505081526020016002820160009054906101000a900473ffffffffffffffffffffffffffffffffffffffff1673ffffffffffffffffffffffffffffffffffffffff1673ffffffffffffffffffffffffffffffffffffffff1681526020016003820154815260200160048201548152602001600582015481526020016006820160009054906101000a900473ffffffffffffffffffffffffffffffffffffffff1673ffffffffffffffffffffffffffffffffffffffff1673ffffffffffffffffffffffffffffffffffffffff16815260200160078201548152602001600882015481526020016009820160009054906101000a900460ff161515151581526020016009820160019054906101000a900460ff161515151581526020016009820160029054906101000a900460ff161515151581526020016009820160039054906101000a900460ff16151515158152602001600b82018054600181600116156101000203166002900480601f0160208091040260200160405190810160405280929190818152602001828054600181600116156101000203166002900480156122f95780601f106122ce576101008083540402835291602001916122f9565b820191906000526020600020905b8154815290600101906020018083116122dc57829003601f168201915b50505050508152602001600c82016040518060600160405290816000820154815260200160018201548152602001600282015481525050815250509050806020015181604001518260a001518360c001518460e00151856101000151866101a00151869650809050975097509750975097509750975050919395979092949650565b600061238633612726565b116123f9576040517f08c379a000000000000000000000000000000000000000000000000000000000815260040180806020018281038252600f8152602001807f6e6565642068617320736861726573000000000000000000000000000000000081525060200191505060405180910390fd5b6003805490508110612473576040517f08c379a00000000000000000000000000000000000000000000000000000000081526004018080602001828103825260178152602001807f70726f706f73616c20646f6573206e6f7420657869737400000000000000000081525060200191505060405180910390fd5b60006003828154811061248257fe5b90600052602060002090600f020190503373ffffffffffffffffffffffffffffffffffffffff168160020160009054906101000a900473ffffffffffffffffffffffffffffffffffffffff1673ffffffffffffffffffffffffffffffffffffffff1614612557576040517f08c379a00000000000000000000000000000000000000000000000000000000081526004018080602001828103825260198152602001807f73656e6465722073686f756c642062652070726f706f7365720000000000000081525060200191505060405180910390fd5b6000548160050154014211156125d5576040517f08c379a00000000000000000000000000000000000000000000000000000000081526004018080602001828103825260088152602001807f74696d65206f757400000000000000000000000000000000000000000000000081525060200191505060405180910390fd5b600015158160090160039054906101000a900460ff16151514612643576040517f08c379a0000000000000000000000000000000000000000000000000000000008152600401808060200182810382526021815260200180612d846021913960400191505060405180910390fd5b600015158160090160029054906101000a900460ff161515146126ce576040517f08c379a00000000000000000000000000000000000000000000000000000000081526004018080602001828103825260198152602001807f70726f706f73616c20686173206265656e2061626f727465640000000000000081525060200191505060405180910390fd5b60018160090160026101000a81548160ff0219169083151502179055507fb27268ee8d23b38250a0313137fa908b5485a05b62f98c5fe20efc5df37c4f68826040518082815260200191505060405180910390a15050565b600080829050600073ffffffffffffffffffffffffffffffffffffffff168173ffffffffffffffffffffffffffffffffffffffff161415612765573390505b600260009054906101000a900473ffffffffffffffffffffffffffffffffffffffff1673ffffffffffffffffffffffffffffffffffffffff166327e235e3826040518263ffffffff1660e01b8152600401808273ffffffffffffffffffffffffffffffffffffffff1673ffffffffffffffffffffffffffffffffffffffff16815260200191505060206040518083038186803b15801561280457600080fd5b505afa158015612818573d6000803e3d6000fd5b505050506040513d602081101561282e57600080fd5b8101908080519060200190929190505050915050919050565b6000600380549050905090565b60038054905081106128ce576040517f08c379a00000000000000000000000000000000000000000000000000000000081526004018080602001828103825260178152602001807f70726f706f73616c20646f6573206e6f7420657869737400000000000000000081525060200191505060405180910390fd5b6000600382815481106128dd57fe5b90600052602060002090600f02019050600054816005015401421161296a576040517f08c379a00000000000000000000000000000000000000000000000000000000081526004018080602001828103825260088152602001807f74696d65206f757400000000000000000000000000000000000000000000000081525060200191505060405180910390fd5b600015158160090160009054906101000a900460ff161515146129f5576040517f08c379a00000000000000000000000000000000000000000000000000000000081526004018080602001828103825260198152602001807f70726f706f73616c20686173206265656e2070726f636573730000000000000081525060200191505060405180910390fd5b600015158160090160029054906101000a900460ff16151514612a80576040517f08c379a00000000000000000000000000000000000000000000000000000000081526004018080602001828103825260198152602001807f70726f706f73616c20686173206265656e2061626f727465640000000000000081525060200191505060405180910390fd5b600015158160090160039054906101000a900460ff16151514612aee576040517f08c379a0000000000000000000000000000000000000000000000000000000008152600401808060200182810382526021815260200180612d846021913960400191505060405180910390fd5b60018160090160006101000a81548160ff021916908315150217905550806004015481600301541115612b945760018160090160016101000a81548160ff021916908315150217905550612b40612c9c565b60405180606001604052804281526020016201518084600801540242018152602001836007015481525090508082600c01600082015181600001556020820151816001015560408201518160020155905050505b7f9462edb475995eb7d62498463128dfe01ee36dc2fac0f62e74c2b11d5555da78828260090160019054906101000a900460ff1660405180838152602001821515151581526020019250505060405180910390a15050565b6040518061022001604052806000815260200160608152602001600073ffffffffffffffffffffffffffffffffffffffff168152602001600081526020016000815260200160008152602001600073ffffffffffffffffffffffffffffffffffffffff168152602001600081526020016000815260200160001515815260200160001515815260200160001515815260200160001515815260200160608152602001612c96612d3d565b81525090565b60405180606001604052806000815260200160008152602001600081525090565b828054600181600116156101000203166002900490600052602060002090601f016020900481019282601f10612cfe57805160ff1916838001178555612d2c565b82800160010185558215612d2c579182015b82811115612d2b578251825591602001919060010190612d10565b5b509050612d399190612d5e565b5090565b60405180606001604052806000815260200160008152602001600081525090565b612d8091905b80821115612d7c576000816000905550600101612d64565b5090565b9056fe70726f706f73616c20686173206265656e206f6e655469636b65745265667573657461702e746f74616c43616e4d6f6e65792063616e74206c657373207468616e2030a165627a7a7230582003e3c09ec4850b3093fc1167c9afff79647d31464909f3a67f9e2118b9e924070029",
  "source": "pragma solidity >=0.4.22 <0.6.0;\r\nimport \"./Vote.sol\";\r\ncontract FundPool{\r\n    uint public slope = 10**12;  //\r\n    uint public alpha = 700; //73\r\n    uint public beta = 800; //\r\n    uint public crowdFundDays = 30; // \r\n    uint public crowdFundMoney = 10000; //\r\n    uint public crowdFundStartTime;//\r\n    bool public crowdFunding = true; //\r\n    string public name; //\r\n    mapping (address=>uint) public crowdFundingEth; //eth\r\n\r\n    uint public totalSupply = 0; //fnd\r\n    mapping(address=>uint)  public balances;//fnd\r\n    address public owner; //\r\n    uint public sellReserve = 0;//\r\n\r\n    uint totalSendToVote = 0; //\r\n\r\n    Vote vote;\r\n    /* events */\r\n    event OnBuy(address who,uint256 ethAmount,uint256 nfdAmount); //\r\n    event OnSell(address who,uint256 ethAmount,uint256 nfdAmount); //\r\n    event OnRevenue(address who,uint256 ethAmount,uint256 nfdAmount);//\r\n    event OnWindingUp(address who,uint256 ethAmount); //\r\n\r\n    //\r\n    constructor(string memory _name,uint d,uint m,uint s,uint a,uint b) public {\r\n        owner = msg.sender;\r\n        require(bytes(_name).length > 0,\"\");\r\n        require(d>0,\"\");\r\n        require(m>0,\"\");\r\n        require(s>0,\"\");\r\n        require(a>0,\"\");\r\n        require(b>0,\"\");\r\n        name = _name;\r\n        crowdFundDays = d;\r\n        crowdFundMoney = m;\r\n        crowdFundStartTime = now;\r\n        slope = s;\r\n        alpha = a;\r\n        beta = b;\r\n        vote = new Vote(owner,this);\r\n    }\r\n\r\n    modifier isOwner() {\r\n        require(owner == msg.sender, \"limited authority\");\r\n        _;\r\n    }\r\n\r\n    //vote\r\n    function getVoteContract() public view returns(address){\r\n        return address(vote);\r\n    }\r\n\r\n    //\r\n    function setSlope(uint _slope) public  isOwner() {\r\n        slope = _slope;\r\n    }\r\n    function setAlpha(uint _alpha) public isOwner() {\r\n        alpha = _alpha;\r\n    }\r\n    function setBeta(uint _beta) public isOwner() {\r\n        beta = _beta;\r\n    }\r\n\r\n    //\r\n    function sqrt(uint x) private pure returns(uint) {\r\n        uint z = (x+1)/2;\r\n        uint y = x;\r\n        while(z < y)\r\n        {\r\n            y = z;\r\n            z = (x / z + z) / 2;\r\n        }\r\n        return y;\r\n    }\r\n\r\n    //\r\n    function windingUp() public {\r\n        require(now - crowdFundStartTime > 30 days,\"need beyond the corwdfunding period\");\r\n        require(crowdFunding == true,\"need corwdfunding\");\r\n        require(crowdFundingEth[msg.sender]>0,\"need has eth\");\r\n        uint256 value = crowdFundingEth[msg.sender];\r\n        msg.sender.transfer(value);\r\n        crowdFundingEth[msg.sender] = 0;\r\n        emit OnWindingUp(msg.sender,value);\r\n    }\r\n\r\n    //\r\n    function buy() public payable {\r\n        require(msg.value > 0,\"\");\r\n        uint invest = msg.value;\r\n        uint fndAmount = sqrt(2 * invest * 1000 / slope + totalSupply * totalSupply) - totalSupply;\r\n        balances[msg.sender] += fndAmount;\r\n        totalSupply += fndAmount;\r\n\r\n        uint256 sendToVote = 0;\r\n\r\n        //7\r\n        uint256 sendtoSellReserve = alpha * (totalSendToVote + sellReserve) / 1000 - sellReserve <= 0\r\n         ? 0 : (alpha / 1000) * (totalSendToVote + sellReserve) - sellReserve;\r\n\r\n        if(sendtoSellReserve<=0)//73\r\n        {\r\n            //\r\n            sellReserve += alpha * invest;\r\n            //\r\n            sendToVote = (1000 - alpha) * invest;\r\n        }\r\n        else if(sendtoSellReserve/1000 >= invest)//\r\n        {\r\n            sellReserve += invest * 1000;\r\n            sendToVote = 0;\r\n        }\r\n        else //73\r\n        {\r\n            sellReserve += sendtoSellReserve;\r\n\r\n            sellReserve += (invest-sendtoSellReserve / 1000) * alpha;\r\n            sendToVote = (invest - sendtoSellReserve / 1000) * (1000 - alpha);\r\n        }\r\n\r\n        totalSendToVote += sendToVote;\r\n        sendToVote /= 1000;\r\n\r\n        if(crowdFunding == false) //vote\r\n            address(vote).transfer(sendToVote);\r\n        else if(totalSendToVote+sellReserve>=crowdFundMoney * 1000)\r\n        {\r\n            require(now - crowdFundStartTime <= 30 days,\"Beyond the crowdfunding period\");\r\n            crowdFunding = false;\r\n            address(vote).transfer(totalSendToVote/1000);\r\n        }\r\n        else\r\n        {\r\n            crowdFundingEth[msg.sender] += msg.value;\r\n            require(now - crowdFundStartTime <= 30 days,\"Beyond the crowdfunding period\");\r\n        }\r\n\r\n        emit OnBuy(msg.sender,msg.value,fndAmount);\r\n    }\r\n\r\n    //\r\n    function sell(uint amount) public{\r\n        require(crowdFunding == false,\"need Beyond the crowdfunding period\");\r\n        require(amount > 0,\"\");\r\n        require (balances[msg.sender] >= amount,\"\");\r\n        uint withdraw = sellReserve*amount*(2*totalSupply - amount)/totalSupply/totalSupply;\r\n        balances[msg.sender] -= amount;\r\n        totalSupply -= amount;\r\n        sellReserve -= withdraw;\r\n        require(sellReserve>=0,\"\");\r\n        withdraw /= 1000;\r\n        msg.sender.transfer(withdraw);\r\n        emit OnSell(msg.sender,withdraw,amount);\r\n    }\r\n\r\n    //  fnd\r\n    function revenue() public payable{\r\n        require(msg.value > 0,\"\");\r\n        uint invest = msg.value;\r\n        uint fndAmount = sqrt(2 * invest * 1000 / slope + totalSupply * totalSupply) - totalSupply;\r\n        totalSupply += fndAmount;\r\n        //\r\n        sellReserve += beta * invest;\r\n        //\r\n        uint256 sendToVote = (1000 - beta) * invest;\r\n        totalSendToVote += sendToVote;\r\n        address(vote).transfer(sendToVote/1000);\r\n        emit OnRevenue(msg.sender,msg.value,fndAmount);\r\n    }\r\n}",
  "sourcePath": "D:\\_______work\\FD_Contract_ETH\\V1\\contracts\\FundPool.sol",
  "compiler": {
    "name": "solc",
    "version": "0.5.8+commit.23d335f2.Emscripten.clang"
  },
  "schemaVersion": "3.0.11",
  "updatedAt": "2019-07-18T07:48:47.143Z",
  "devdoc": {
    "methods": {}
  },
  "userdoc": {
    "methods": {}
  }
}