{
  "contractName": "Vote",
  "abi": [
    {
      "inputs": [
        {
          "name": "_owner",
          "type": "address"
        },
        {
          "name": "_fundPool",
          "type": "address"
        }
      ],
      "payable": false,
      "stateMutability": "nonpayable",
      "type": "constructor"
    },
    {
      "payable": true,
      "stateMutability": "payable",
      "type": "fallback"
    },
    {
      "anonymous": false,
      "inputs": [
        {
          "indexed": false,
          "name": "index",
          "type": "uint256"
        },
        {
          "indexed": false,
          "name": "proposalName",
          "type": "string"
        },
        {
          "indexed": false,
          "name": "proposer",
          "type": "address"
        },
        {
          "indexed": false,
          "name": "startTime",
          "type": "uint256"
        },
        {
          "indexed": false,
          "name": "recipient",
          "type": "address"
        },
        {
          "indexed": false,
          "name": "value",
          "type": "uint256"
        },
        {
          "indexed": false,
          "name": "timeConsuming",
          "type": "uint256"
        },
        {
          "indexed": false,
          "name": "detail",
          "type": "string"
        }
      ],
      "name": "OnApplyProposal",
      "type": "event"
    },
    {
      "anonymous": false,
      "inputs": [
        {
          "indexed": false,
          "name": "index",
          "type": "uint256"
        },
        {
          "indexed": false,
          "name": "voteResult",
          "type": "uint8"
        },
        {
          "indexed": false,
          "name": "shares",
          "type": "uint256"
        }
      ],
      "name": "OnVote",
      "type": "event"
    },
    {
      "anonymous": false,
      "inputs": [
        {
          "indexed": false,
          "name": "index",
          "type": "uint256"
        },
        {
          "indexed": false,
          "name": "pass",
          "type": "bool"
        }
      ],
      "name": "OnProcess",
      "type": "event"
    },
    {
      "anonymous": false,
      "inputs": [
        {
          "indexed": false,
          "name": "index",
          "type": "uint256"
        }
      ],
      "name": "OnAbort",
      "type": "event"
    },
    {
      "anonymous": false,
      "inputs": [
        {
          "indexed": false,
          "name": "index",
          "type": "uint256"
        }
      ],
      "name": "OnOneTicketRefuse",
      "type": "event"
    },
    {
      "anonymous": false,
      "inputs": [
        {
          "indexed": false,
          "name": "index",
          "type": "uint256"
        },
        {
          "indexed": false,
          "name": "getMoney",
          "type": "uint256"
        },
        {
          "indexed": false,
          "name": "totalMoney",
          "type": "uint256"
        },
        {
          "indexed": false,
          "name": "getTime",
          "type": "uint256"
        }
      ],
      "name": "OnGetMoney",
      "type": "event"
    },
    {
      "constant": true,
      "inputs": [],
      "name": "getLengthOfProposalQueue",
      "outputs": [
        {
          "name": "",
          "type": "uint256"
        }
      ],
      "payable": false,
      "stateMutability": "view",
      "type": "function"
    },
    {
      "constant": true,
      "inputs": [
        {
          "name": "proposalIndex",
          "type": "uint256"
        }
      ],
      "name": "getProposalInfoByIndex",
      "outputs": [
        {
          "name": "",
          "type": "string"
        },
        {
          "name": "",
          "type": "address"
        },
        {
          "name": "",
          "type": "uint256"
        },
        {
          "name": "",
          "type": "address"
        },
        {
          "name": "",
          "type": "uint256"
        },
        {
          "name": "",
          "type": "uint256"
        },
        {
          "name": "details",
          "type": "string"
        }
      ],
      "payable": false,
      "stateMutability": "view",
      "type": "function"
    },
    {
      "constant": true,
      "inputs": [
        {
          "name": "proposalIndex",
          "type": "uint256"
        }
      ],
      "name": "getProposalStateByIndex",
      "outputs": [
        {
          "name": "",
          "type": "uint256"
        },
        {
          "name": "",
          "type": "uint256"
        },
        {
          "name": "",
          "type": "bool"
        },
        {
          "name": "",
          "type": "bool"
        },
        {
          "name": "",
          "type": "bool"
        },
        {
          "name": "",
          "type": "bool"
        }
      ],
      "payable": false,
      "stateMutability": "view",
      "type": "function"
    },
    {
      "constant": true,
      "inputs": [
        {
          "name": "proposalIndex",
          "type": "uint256"
        }
      ],
      "name": "getTapByIndex",
      "outputs": [
        {
          "name": "startTime",
          "type": "uint256"
        },
        {
          "name": "endTime",
          "type": "uint256"
        },
        {
          "name": "money",
          "type": "uint256"
        }
      ],
      "payable": false,
      "stateMutability": "view",
      "type": "function"
    },
    {
      "constant": true,
      "inputs": [
        {
          "name": "_address",
          "type": "address"
        }
      ],
      "name": "getSharesOf",
      "outputs": [
        {
          "name": "",
          "type": "uint256"
        }
      ],
      "payable": false,
      "stateMutability": "view",
      "type": "function"
    },
    {
      "constant": false,
      "inputs": [
        {
          "name": "_name",
          "type": "string"
        },
        {
          "name": "_recipient",
          "type": "address"
        },
        {
          "name": "_value",
          "type": "uint256"
        },
        {
          "name": "_timeConsuming",
          "type": "uint256"
        },
        {
          "name": "_detail",
          "type": "string"
        }
      ],
      "name": "applyProposal",
      "outputs": [],
      "payable": false,
      "stateMutability": "nonpayable",
      "type": "function"
    },
    {
      "constant": false,
      "inputs": [
        {
          "name": "proposalIndex",
          "type": "uint256"
        }
      ],
      "name": "abortProposal",
      "outputs": [],
      "payable": false,
      "stateMutability": "nonpayable",
      "type": "function"
    },
    {
      "constant": false,
      "inputs": [
        {
          "name": "proposalIndex",
          "type": "uint256"
        }
      ],
      "name": "oneTicketRefuseProposal",
      "outputs": [],
      "payable": false,
      "stateMutability": "nonpayable",
      "type": "function"
    },
    {
      "constant": false,
      "inputs": [
        {
          "name": "proposalIndex",
          "type": "uint256"
        },
        {
          "name": "result",
          "type": "uint8"
        }
      ],
      "name": "vote",
      "outputs": [],
      "payable": false,
      "stateMutability": "nonpayable",
      "type": "function"
    },
    {
      "constant": false,
      "inputs": [
        {
          "name": "proposalIndex",
          "type": "uint256"
        }
      ],
      "name": "process",
      "outputs": [],
      "payable": false,
      "stateMutability": "nonpayable",
      "type": "function"
    },
    {
      "constant": false,
      "inputs": [
        {
          "name": "proposalIndex",
          "type": "uint256"
        }
      ],
      "name": "getMoney",
      "outputs": [],
      "payable": false,
      "stateMutability": "nonpayable",
      "type": "function"
    }
  ],
  "bytecode": "0x60806040526212750060005534801561001757600080fd5b50604051604080612ed78339810180604052604081101561003757600080fd5b81019080805190602001909291908051906020019092919050505081600160006101000a81548173ffffffffffffffffffffffffffffffffffffffff021916908373ffffffffffffffffffffffffffffffffffffffff16021790555080600260006101000a81548173ffffffffffffffffffffffffffffffffffffffff021916908373ffffffffffffffffffffffffffffffffffffffff1602179055505050612df2806100e56000396000f3fe60806040526004361061009c5760003560e01c8063943e821611610064578063943e821614610386578063c5e684d2146103ce578063cfab3acc14610569578063ee85348e146105a4578063ef990d2014610609578063ffb2c479146106345761009c565b80630a81e7021461009e5780631ab3c1d3146100d95780633262fd9a1461015b5780637a0a0078146101965780638c4680ec14610329575b005b3480156100aa57600080fd5b506100d7600480360360208110156100c157600080fd5b810190808035906020019092919050505061066f565b005b3480156100e557600080fd5b50610112600480360360208110156100fc57600080fd5b810190808035906020019092919050505061099a565b6040518087815260200186815260200185151515158152602001841515151581526020018315151515815260200182151515158152602001965050505050505060405180910390f35b34801561016757600080fd5b506101946004803603602081101561017e57600080fd5b8101908080359060200190929190505050610cd6565b005b3480156101a257600080fd5b50610327600480360360a08110156101b957600080fd5b81019080803590602001906401000000008111156101d657600080fd5b8201836020820111156101e857600080fd5b8035906020019184600183028401116401000000008311171561020a57600080fd5b91908080601f016020809104026020016040519081016040528093929190818152602001838380828437600081840152601f19601f820116905080830192505050505050509192919290803573ffffffffffffffffffffffffffffffffffffffff1690602001909291908035906020019092919080359060200190929190803590602001906401000000008111156102a157600080fd5b8201836020820111156102b357600080fd5b803590602001918460018302840111640100000000831117156102d557600080fd5b91908080601f016020809104026020016040519081016040528093929190818152602001838380828437600081840152601f19601f820116905080830192505050505050509192919290505050611183565b005b34801561033557600080fd5b506103626004803603602081101561034c57600080fd5b81019080803590602001909291905050506117fb565b60405180848152602001838152602001828152602001935050505060405180910390f35b34801561039257600080fd5b506103cc600480360360408110156103a957600080fd5b8101908080359060200190929190803560ff169060200190929190505050611b27565b005b3480156103da57600080fd5b50610407600480360360208110156103f157600080fd5b810190808035906020019092919050505061202f565b60405180806020018873ffffffffffffffffffffffffffffffffffffffff1673ffffffffffffffffffffffffffffffffffffffff1681526020018781526020018673ffffffffffffffffffffffffffffffffffffffff1673ffffffffffffffffffffffffffffffffffffffff1681526020018581526020018481526020018060200183810383528a818151815260200191508051906020019080838360005b838110156104c15780820151818401526020810190506104a6565b50505050905090810190601f1680156104ee5780820380516001836020036101000a031916815260200191505b50838103825284818151815260200191508051906020019080838360005b8381101561052757808201518184015260208101905061050c565b50505050905090810190601f1680156105545780820380516001836020036101000a031916815260200191505b50995050505050505050505060405180910390f35b34801561057557600080fd5b506105a26004803603602081101561058c57600080fd5b810190808035906020019092919050505061237b565b005b3480156105b057600080fd5b506105f3600480360360208110156105c757600080fd5b81019080803573ffffffffffffffffffffffffffffffffffffffff169060200190929190505050612726565b6040518082815260200191505060405180910390f35b34801561061557600080fd5b5061061e612847565b6040518082815260200191505060405180910390f35b34801561064057600080fd5b5061066d6004803603602081101561065757600080fd5b8101908080359060200190929190505050612854565b005b600061067a33612726565b116106ed576040517f08c379a000000000000000000000000000000000000000000000000000000000815260040180806020018281038252600f8152602001807f6e6565642068617320736861726573000000000000000000000000000000000081525060200191505060405180910390fd5b3373ffffffffffffffffffffffffffffffffffffffff16600160009054906101000a900473ffffffffffffffffffffffffffffffffffffffff1673ffffffffffffffffffffffffffffffffffffffff16146107b0576040517f08c379a00000000000000000000000000000000000000000000000000000000081526004018080602001828103825260168152602001807f73656e6465722073686f756c64206265206f776e65720000000000000000000081525060200191505060405180910390fd5b600380549050811061082a576040517f08c379a00000000000000000000000000000000000000000000000000000000081526004018080602001828103825260178152602001807f70726f706f73616c20646f6573206e6f7420657869737400000000000000000081525060200191505060405180910390fd5b60006003828154811061083957fe5b90600052602060002090600f02019050600015158160090160029054906101000a900460ff161515146108d4576040517f08c379a00000000000000000000000000000000000000000000000000000000081526004018080602001828103825260198152602001807f70726f706f73616c20686173206265656e2061626f727465640000000000000081525060200191505060405180910390fd5b600015158160090160039054906101000a900460ff16151514610942576040517f08c379a0000000000000000000000000000000000000000000000000000000008152600401808060200182810382526021815260200180612d846021913960400191505060405180910390fd5b60018160090160036101000a81548160ff0219169083151502179055507f3f004c855f0deef350ea73c1c577156652aafa03d4a99b5b31e0f29033199340826040518082815260200191505060405180910390a15050565b6000806000806000806109ab612bec565b600388815481106109b857fe5b90600052602060002090600f0201604051806101e001604052908160008201548152602001600182018054600181600116156101000203166002900480601f016020809104026020016040519081016040528092919081815260200182805460018160011615610100020316600290048015610a755780601f10610a4a57610100808354040283529160200191610a75565b820191906000526020600020905b815481529060010190602001808311610a5857829003601f168201915b505050505081526020016002820160009054906101000a900473ffffffffffffffffffffffffffffffffffffffff1673ffffffffffffffffffffffffffffffffffffffff1673ffffffffffffffffffffffffffffffffffffffff1681526020016003820154815260200160048201548152602001600582015481526020016006820160009054906101000a900473ffffffffffffffffffffffffffffffffffffffff1673ffffffffffffffffffffffffffffffffffffffff1673ffffffffffffffffffffffffffffffffffffffff16815260200160078201548152602001600882015481526020016009820160009054906101000a900460ff161515151581526020016009820160019054906101000a900460ff161515151581526020016009820160029054906101000a900460ff161515151581526020016009820160039054906101000a900460ff16151515158152602001600b82018054600181600116156101000203166002900480601f016020809104026020016040519081016040528092919081815260200182805460018160011615610100020316600290048015610c615780601f10610c3657610100808354040283529160200191610c61565b820191906000526020600020905b815481529060010190602001808311610c4457829003601f168201915b50505050508152602001600c82016040518060600160405290816000820154815260200160018201548152602001600282015481525050815250509050806060015181608001518261012001518361014001518461016001518561018001519650965096509650965096505091939550919395565b6003805490508110610d50576040517f08c379a00000000000000000000000000000000000000000000000000000000081526004018080602001828103825260178152602001807f70726f706f73616c20646f6573206e6f7420657869737400000000000000000081525060200191505060405180910390fd5b600060038281548110610d5f57fe5b90600052602060002090600f02019050600115158160090160019054906101000a900460ff16151514610dfa576040517f08c379a00000000000000000000000000000000000000000000000000000000081526004018080602001828103825260168152602001807f70726f706f73616c20646f6573206e6f7420706173730000000000000000000081525060200191505060405180910390fd5b8060060160009054906101000a900473ffffffffffffffffffffffffffffffffffffffff1673ffffffffffffffffffffffffffffffffffffffff163373ffffffffffffffffffffffffffffffffffffffff1614610ebf576040517f08c379a00000000000000000000000000000000000000000000000000000000081526004018080602001828103825260188152602001807f73656e646572206d75737420626520726563697069656e74000000000000000081525060200191505060405180910390fd5b610ec7612c9c565b81600c01604051806060016040529081600082015481526020016001820154815260200160028201548152505090506000816040015111610f70576040517f08c379a00000000000000000000000000000000000000000000000000000000081526004018080602001828103825260088152602001807f6e6f206d6f6e657900000000000000000000000000000000000000000000000081525060200191505060405180910390fd5b6000620151808260000151420381610f8457fe5b049050600062015180836000015184602001510381610f9f57fe5b0490506000808214610fc0578282856040015181610fb957fe5b0402610fc6565b83604001515b90503073ffffffffffffffffffffffffffffffffffffffff16318110611054576040517f08c379a00000000000000000000000000000000000000000000000000000000081526004018080602001828103825260108152602001807f6e6f7420656e6f756768206d6f6e65790000000000000000000000000000000081525060200191505060405180910390fd5b62015180830284600001510185600c01600001819055508085600c01600201600082825403925050819055506000846040015110156110de576040517f08c379a0000000000000000000000000000000000000000000000000000000008152600401808060200182810382526022815260200180612da56022913960400191505060405180910390fd5b3373ffffffffffffffffffffffffffffffffffffffff166108fc829081150290604051600060405180830381858888f19350505050158015611124573d6000803e3d6000fd5b507f1349a842787148ed05f4f2c10415b49589067c03461437c8f320aa81adc9d763868287600c0160020154426040518085815260200184815260200183815260200182815260200194505050505060405180910390a1505050505050565b600061118e33612726565b11611201576040517f08c379a000000000000000000000000000000000000000000000000000000000815260040180806020018281038252600f8152602001807f6e6565642068617320736861726573000000000000000000000000000000000081525060200191505060405180910390fd5b600073ffffffffffffffffffffffffffffffffffffffff168473ffffffffffffffffffffffffffffffffffffffff1614156112a4576040517f08c379a00000000000000000000000000000000000000000000000000000000081526004018080602001828103825260198152602001807f5f726563697069656e742063616e6e6f74206265206e756c6c0000000000000081525060200191505060405180910390fd5b6000831161131a576040517f08c379a00000000000000000000000000000000000000000000000000000000081526004018080602001828103825260168152602001807f76616c7565206e656564206d6f7265207468616e20300000000000000000000081525060200191505060405180910390fd5b6000821015611391576040517f08c379a000000000000000000000000000000000000000000000000000000000815260040180806020018281038252601f8152602001807f5f74696d65436f6e73756d696e672063616e74206c657373207468616e20300081525060200191505060405180910390fd5b611399612bec565b604051806101e0016040528060038054905081526020018781526020013373ffffffffffffffffffffffffffffffffffffffff16815260200160008152602001600081526020014281526020018673ffffffffffffffffffffffffffffffffffffffff16815260200185815260200184815260200160001515815260200160001515815260200160001515815260200160001515815260200183815260200160405180606001604052806000815260200160008152602001600081525081525090507f2502a88482d0c9326f614b5d37916990c3b58ad0abf3acd0ad73b36ce3f2f3818160000151826020015183604001518460a001518560c001518660e00151876101000151886101a0015160405180898152602001806020018873ffffffffffffffffffffffffffffffffffffffff1673ffffffffffffffffffffffffffffffffffffffff1681526020018781526020018673ffffffffffffffffffffffffffffffffffffffff1673ffffffffffffffffffffffffffffffffffffffff1681526020018581526020018481526020018060200183810383528a818151815260200191508051906020019080838360005b8381101561156657808201518184015260208101905061154b565b50505050905090810190601f1680156115935780820380516001836020036101000a031916815260200191505b50838103825284818151815260200191508051906020019080838360005b838110156115cc5780820151818401526020810190506115b1565b50505050905090810190601f1680156115f95780820380516001836020036101000a031916815260200191505b509a505050505050505050505060405180910390a16003819080600181540180825580915050906001820390600052602060002090600f020160009091929091909150600082015181600001556020820151816001019080519060200190611662929190612cbd565b5060408201518160020160006101000a81548173ffffffffffffffffffffffffffffffffffffffff021916908373ffffffffffffffffffffffffffffffffffffffff160217905550606082015181600301556080820151816004015560a0820151816005015560c08201518160060160006101000a81548173ffffffffffffffffffffffffffffffffffffffff021916908373ffffffffffffffffffffffffffffffffffffffff16021790555060e0820151816007015561010082015181600801556101208201518160090160006101000a81548160ff0219169083151502179055506101408201518160090160016101000a81548160ff0219169083151502179055506101608201518160090160026101000a81548160ff0219169083151502179055506101808201518160090160036101000a81548160ff0219169083151502179055506101a082015181600b0190805190602001906117c5929190612cbd565b506101c082015181600c016000820151816000015560208201518160010155604082015181600201555050505050505050505050565b6000806000611808612bec565b6003858154811061181557fe5b90600052602060002090600f0201604051806101e001604052908160008201548152602001600182018054600181600116156101000203166002900480601f0160208091040260200160405190810160405280929190818152602001828054600181600116156101000203166002900480156118d25780601f106118a7576101008083540402835291602001916118d2565b820191906000526020600020905b8154815290600101906020018083116118b557829003601f168201915b505050505081526020016002820160009054906101000a900473ffffffffffffffffffffffffffffffffffffffff1673ffffffffffffffffffffffffffffffffffffffff1673ffffffffffffffffffffffffffffffffffffffff1681526020016003820154815260200160048201548152602001600582015481526020016006820160009054906101000a900473ffffffffffffffffffffffffffffffffffffffff1673ffffffffffffffffffffffffffffffffffffffff1673ffffffffffffffffffffffffffffffffffffffff16815260200160078201548152602001600882015481526020016009820160009054906101000a900460ff161515151581526020016009820160019054906101000a900460ff161515151581526020016009820160029054906101000a900460ff161515151581526020016009820160039054906101000a900460ff16151515158152602001600b82018054600181600116156101000203166002900480601f016020809104026020016040519081016040528092919081815260200182805460018160011615610100020316600290048015611abe5780601f10611a9357610100808354040283529160200191611abe565b820191906000526020600020905b815481529060010190602001808311611aa157829003601f168201915b50505050508152602001600c82016040518060600160405290816000820154815260200160018201548152602001600282015481525050815250509050806101c00151600001519350806101c00151602001519250806101c00151604001519150509193909250565b6000611b3233612726565b11611ba5576040517f08c379a000000000000000000000000000000000000000000000000000000000815260040180806020018281038252600f8152602001807f6e6565642068617320736861726573000000000000000000000000000000000081525060200191505060405180910390fd5b6003805490508210611c1f576040517f08c379a00000000000000000000000000000000000000000000000000000000081526004018080602001828103825260178152602001807f70726f706f73616c20646f6573206e6f7420657869737400000000000000000081525060200191505060405180910390fd5b600060038381548110611c2e57fe5b90600052602060002090600f02019050600054816005015401421115611cbc576040517f08c379a00000000000000000000000000000000000000000000000000000000081526004018080602001828103825260088152602001807f74696d65206f757400000000000000000000000000000000000000000000000081525060200191505060405180910390fd5b60006002811115611cc957fe5b81600a0160003373ffffffffffffffffffffffffffffffffffffffff1673ffffffffffffffffffffffffffffffffffffffff16815260200190815260200160002060009054906101000a900460ff166002811115611d2357fe5b14611d96576040517f08c379a00000000000000000000000000000000000000000000000000000000081526004018080602001828103825260148152602001807f566f7465732068617665206265656e206361737400000000000000000000000081525060200191505060405180910390fd5b60018260ff161480611dab575060028260ff16145b611e1d576040517f08c379a000000000000000000000000000000000000000000000000000000000815260040180806020018281038252601f8152602001807f766f746520726573756c74206d757374206265206c657373207468616e20330081525060200191505060405180910390fd5b600015158160090160029054906101000a900460ff16151514611ea8576040517f08c379a00000000000000000000000000000000000000000000000000000000081526004018080602001828103825260198152602001807f70726f706f73616c20686173206265656e2061626f727465640000000000000081525060200191505060405180910390fd5b600015158160090160039054906101000a900460ff16151514611f16576040517f08c379a0000000000000000000000000000000000000000000000000000000008152600401808060200182810382526021815260200180612d846021913960400191505060405180910390fd5b60008260ff166002811115611f2757fe5b90508082600a0160003373ffffffffffffffffffffffffffffffffffffffff1673ffffffffffffffffffffffffffffffffffffffff16815260200190815260200160002060006101000a81548160ff02191690836002811115611f8657fe5b02179055506000611f9633612726565b905060016002811115611fa557fe5b826002811115611fb157fe5b1415611fcb57808360030154018360030181905550611fdb565b8083600401540183600401819055505b7f8ace90af9baf68b19b0864ae41c6d805cba9529d4c9718348e326695d9a0b6a8858583604051808481526020018360ff1660ff168152602001828152602001935050505060405180910390a15050505050565b606060008060008060006060612043612bec565b6003898154811061205057fe5b90600052602060002090600f0201604051806101e001604052908160008201548152602001600182018054600181600116156101000203166002900480601f01602080910402602001604051908101604052809291908181526020018280546001816001161561010002031660029004801561210d5780601f106120e25761010080835404028352916020019161210d565b820191906000526020600020905b8154815290600101906020018083116120f057829003601f168201915b505050505081526020016002820160009054906101000a900473ffffffffffffffffffffffffffffffffffffffff1673ffffffffffffffffffffffffffffffffffffffff1673ffffffffffffffffffffffffffffffffffffffff1681526020016003820154815260200160048201548152602001600582015481526020016006820160009054906101000a900473ffffffffffffffffffffffffffffffffffffffff1673ffffffffffffffffffffffffffffffffffffffff1673ffffffffffffffffffffffffffffffffffffffff16815260200160078201548152602001600882015481526020016009820160009054906101000a900460ff161515151581526020016009820160019054906101000a900460ff161515151581526020016009820160029054906101000a900460ff161515151581526020016009820160039054906101000a900460ff16151515158152602001600b82018054600181600116156101000203166002900480601f0160208091040260200160405190810160405280929190818152602001828054600181600116156101000203166002900480156122f95780601f106122ce576101008083540402835291602001916122f9565b820191906000526020600020905b8154815290600101906020018083116122dc57829003601f168201915b50505050508152602001600c82016040518060600160405290816000820154815260200160018201548152602001600282015481525050815250509050806020015181604001518260a001518360c001518460e00151856101000151866101a00151869650809050975097509750975097509750975050919395979092949650565b600061238633612726565b116123f9576040517f08c379a000000000000000000000000000000000000000000000000000000000815260040180806020018281038252600f8152602001807f6e6565642068617320736861726573000000000000000000000000000000000081525060200191505060405180910390fd5b6003805490508110612473576040517f08c379a00000000000000000000000000000000000000000000000000000000081526004018080602001828103825260178152602001807f70726f706f73616c20646f6573206e6f7420657869737400000000000000000081525060200191505060405180910390fd5b60006003828154811061248257fe5b90600052602060002090600f020190503373ffffffffffffffffffffffffffffffffffffffff168160020160009054906101000a900473ffffffffffffffffffffffffffffffffffffffff1673ffffffffffffffffffffffffffffffffffffffff1614612557576040517f08c379a00000000000000000000000000000000000000000000000000000000081526004018080602001828103825260198152602001807f73656e6465722073686f756c642062652070726f706f7365720000000000000081525060200191505060405180910390fd5b6000548160050154014211156125d5576040517f08c379a00000000000000000000000000000000000000000000000000000000081526004018080602001828103825260088152602001807f74696d65206f757400000000000000000000000000000000000000000000000081525060200191505060405180910390fd5b600015158160090160039054906101000a900460ff16151514612643576040517f08c379a0000000000000000000000000000000000000000000000000000000008152600401808060200182810382526021815260200180612d846021913960400191505060405180910390fd5b600015158160090160029054906101000a900460ff161515146126ce576040517f08c379a00000000000000000000000000000000000000000000000000000000081526004018080602001828103825260198152602001807f70726f706f73616c20686173206265656e2061626f727465640000000000000081525060200191505060405180910390fd5b60018160090160026101000a81548160ff0219169083151502179055507fb27268ee8d23b38250a0313137fa908b5485a05b62f98c5fe20efc5df37c4f68826040518082815260200191505060405180910390a15050565b600080829050600073ffffffffffffffffffffffffffffffffffffffff168173ffffffffffffffffffffffffffffffffffffffff161415612765573390505b600260009054906101000a900473ffffffffffffffffffffffffffffffffffffffff1673ffffffffffffffffffffffffffffffffffffffff166327e235e3826040518263ffffffff1660e01b8152600401808273ffffffffffffffffffffffffffffffffffffffff1673ffffffffffffffffffffffffffffffffffffffff16815260200191505060206040518083038186803b15801561280457600080fd5b505afa158015612818573d6000803e3d6000fd5b505050506040513d602081101561282e57600080fd5b8101908080519060200190929190505050915050919050565b6000600380549050905090565b60038054905081106128ce576040517f08c379a00000000000000000000000000000000000000000000000000000000081526004018080602001828103825260178152602001807f70726f706f73616c20646f6573206e6f7420657869737400000000000000000081525060200191505060405180910390fd5b6000600382815481106128dd57fe5b90600052602060002090600f02019050600054816005015401421161296a576040517f08c379a00000000000000000000000000000000000000000000000000000000081526004018080602001828103825260088152602001807f74696d65206f757400000000000000000000000000000000000000000000000081525060200191505060405180910390fd5b600015158160090160009054906101000a900460ff161515146129f5576040517f08c379a00000000000000000000000000000000000000000000000000000000081526004018080602001828103825260198152602001807f70726f706f73616c20686173206265656e2070726f636573730000000000000081525060200191505060405180910390fd5b600015158160090160029054906101000a900460ff16151514612a80576040517f08c379a00000000000000000000000000000000000000000000000000000000081526004018080602001828103825260198152602001807f70726f706f73616c20686173206265656e2061626f727465640000000000000081525060200191505060405180910390fd5b600015158160090160039054906101000a900460ff16151514612aee576040517f08c379a0000000000000000000000000000000000000000000000000000000008152600401808060200182810382526021815260200180612d846021913960400191505060405180910390fd5b60018160090160006101000a81548160ff021916908315150217905550806004015481600301541115612b945760018160090160016101000a81548160ff021916908315150217905550612b40612c9c565b60405180606001604052804281526020016201518084600801540242018152602001836007015481525090508082600c01600082015181600001556020820151816001015560408201518160020155905050505b7f9462edb475995eb7d62498463128dfe01ee36dc2fac0f62e74c2b11d5555da78828260090160019054906101000a900460ff1660405180838152602001821515151581526020019250505060405180910390a15050565b6040518061022001604052806000815260200160608152602001600073ffffffffffffffffffffffffffffffffffffffff168152602001600081526020016000815260200160008152602001600073ffffffffffffffffffffffffffffffffffffffff168152602001600081526020016000815260200160001515815260200160001515815260200160001515815260200160001515815260200160608152602001612c96612d3d565b81525090565b60405180606001604052806000815260200160008152602001600081525090565b828054600181600116156101000203166002900490600052602060002090601f016020900481019282601f10612cfe57805160ff1916838001178555612d2c565b82800160010185558215612d2c579182015b82811115612d2b578251825591602001919060010190612d10565b5b509050612d399190612d5e565b5090565b60405180606001604052806000815260200160008152602001600081525090565b612d8091905b80821115612d7c576000816000905550600101612d64565b5090565b9056fe70726f706f73616c20686173206265656e206f6e655469636b65745265667573657461702e746f74616c43616e4d6f6e65792063616e74206c657373207468616e2030a165627a7a7230582003e3c09ec4850b3093fc1167c9afff79647d31464909f3a67f9e2118b9e924070029",
  "source": "pragma solidity >=0.4.22 <0.6.0;\r\n\r\nimport \"./FundPool.sol\";\r\ncontract Vote{\r\n    //\r\n    struct Proposal{\r\n        uint256 index;//\r\n        string proposalName; //\r\n        address proposer; //\r\n        uint256 approveVotes; //\r\n        uint256 refuseVotes; //\r\n        uint256 startTime; //\r\n        address recipient; //gas\r\n        uint256 value; //\r\n        uint256 timeConsuming; // 30\r\n        bool process; //\r\n        bool pass; //\r\n        bool abort;//\r\n        bool oneTicketRefuse;//\r\n        mapping(address => enumVoteResult) voteDetails;\r\n        string detail; //\r\n        Tap tap;\r\n    }\r\n\r\n    struct Tap{\r\n        uint256 startTime;\r\n        uint256 endTime;\r\n        uint256 totalMoney;\r\n    }\r\n\r\n    uint votingPeriodLenght = 14 days;\r\n\r\n    //\r\n    enum enumVoteResult {waiver, approve, refuse}\r\n    address private owner;\r\n    FundPool fundPool;\r\n    Proposal[] proposalQueue;\r\n\r\n    /* events */\r\n    event OnApplyProposal(\r\n        uint256 index,\r\n        string proposalName,\r\n        address proposer,\r\n        uint256 startTime,\r\n        address recipient,\r\n        uint256 value,\r\n        uint256 timeConsuming,\r\n        string detail\r\n    );//,\r\n\r\n    event OnVote(uint256 index,uint8 voteResult,uint256 shares);//\r\n\r\n    event OnProcess(uint256 index,bool pass); //\r\n\r\n    event OnAbort(uint256 index); // \r\n\r\n    event OnOneTicketRefuse(uint256 index); //\r\n\r\n    event OnGetMoney(uint256 index,uint256 getMoney,uint256 totalMoney,uint256 getTime); //\r\n\r\n    modifier ownShares() {\r\n        require(getSharesOf(msg.sender)>0, \"need has shares\");\r\n        _;\r\n    }\r\n\r\n    constructor(address _owner,FundPool _fundPool) public{\r\n        owner = _owner;\r\n        fundPool = _fundPool;\r\n    }\r\n    //\r\n    function getLengthOfProposalQueue() public view returns(uint256){\r\n        return proposalQueue.length;\r\n    }\r\n\r\n    //index\r\n    function getProposalInfoByIndex(uint256 proposalIndex)\r\n    public\r\n    view\r\n    returns(string memory , address , uint256 ,address ,uint256 ,uint256 ,string memory details) {\r\n        Proposal memory proposal = proposalQueue[proposalIndex];\r\n        return(\r\n            proposal.proposalName,\r\n            proposal.proposer,\r\n            proposal.startTime,\r\n            proposal.recipient,\r\n            proposal.value,\r\n            proposal.timeConsuming,\r\n            proposal.detail\r\n        );\r\n    }\r\n    //index\r\n    function getProposalStateByIndex(uint256 proposalIndex) public view  returns(uint256,uint256,bool,bool,bool,bool) {\r\n        Proposal memory proposal = proposalQueue[proposalIndex];\r\n        return(proposal.approveVotes,proposal.refuseVotes,proposal.process,proposal.pass,proposal.abort,proposal.oneTicketRefuse);\r\n    }\r\n\r\n    //\r\n    function getTapByIndex(uint256 proposalIndex) public view  returns(uint256 startTime , uint256 endTime,uint256 money) {\r\n        Proposal memory proposal = proposalQueue[proposalIndex];\r\n        startTime = proposal.tap.startTime;\r\n        endTime = proposal.tap.endTime;\r\n        money = proposal.tap.totalMoney;\r\n    }\r\n\r\n    //\r\n    function getSharesOf(address _address)\r\n    public\r\n    view\r\n    returns(uint256){\r\n        address who = _address;\r\n        if(who == address(0))\r\n            who = msg.sender;\r\n        return fundPool.balances(who);\r\n    }\r\n\r\n    //\r\n    function applyProposal(string memory _name,address _recipient,uint256 _value,uint256 _timeConsuming,string memory _detail)\r\n    public\r\n    ownShares()\r\n    {\r\n        require(_recipient != address(0),\"_recipient cannot be null\");\r\n        require(_value>0,\"value need more than 0\");\r\n        require(_timeConsuming>=0,\"_timeConsuming cant less than 0\");\r\n\r\n        Proposal memory proposal = Proposal({\r\n            index : proposalQueue.length,\r\n            proposalName : _name,\r\n            proposer : msg.sender,\r\n            approveVotes : 0,\r\n            refuseVotes : 0,\r\n            startTime : now,\r\n            recipient : _recipient,\r\n            value : _value,\r\n            timeConsuming : _timeConsuming,\r\n            process : false,\r\n            pass : false,\r\n            abort : false,\r\n            oneTicketRefuse : false,\r\n            detail : _detail,\r\n            tap : Tap({startTime:0,endTime:0,totalMoney:0})\r\n        });\r\n        emit OnApplyProposal(\r\n            proposal.index,\r\n            proposal.proposalName,\r\n            proposal.proposer,\r\n            proposal.startTime,\r\n            proposal.recipient,\r\n            proposal.value,\r\n            proposal.timeConsuming,\r\n            proposal.detail\r\n        );\r\n        proposalQueue.push(proposal);\r\n    }\r\n\r\n    //\r\n    function abortProposal(uint256 proposalIndex) public ownShares(){\r\n        //\r\n        require(proposalIndex<proposalQueue.length,\"proposal does not exist\");\r\n        Proposal storage proposal = proposalQueue[proposalIndex];\r\n        //\r\n        require(proposal.proposer == msg.sender,\"sender should be proposer\");\r\n        //\r\n        require(now <= proposal.startTime + votingPeriodLenght,\"time out\");\r\n        //\r\n        require(proposal.oneTicketRefuse == false,\"proposal has been oneTicketRefuse\");\r\n        //\r\n        require(proposal.abort == false,\"proposal has been aborted\");\r\n\r\n        proposal.abort = true;\r\n        emit OnAbort(proposalIndex);\r\n    }\r\n\r\n    //\r\n    function oneTicketRefuseProposal(uint256 proposalIndex) public ownShares() {\r\n        //\r\n        require(owner == msg.sender,\"sender should be owner\");\r\n        //\r\n        require(proposalIndex<proposalQueue.length,\"proposal does not exist\");\r\n        Proposal storage proposal = proposalQueue[proposalIndex];\r\n        //\r\n        require(proposal.abort == false,\"proposal has been aborted\");\r\n        //\r\n        require(proposal.oneTicketRefuse == false,\"proposal has been oneTicketRefuse\");\r\n\r\n        proposal.oneTicketRefuse = true;\r\n        emit OnOneTicketRefuse(proposalIndex);\r\n    }\r\n\r\n    //\r\n    function vote(uint256 proposalIndex,uint8 result) public ownShares() {\r\n        //\r\n        require(proposalIndex<proposalQueue.length,\"proposal does not exist\");\r\n        Proposal storage proposal = proposalQueue[proposalIndex];\r\n        //\r\n        require(now <= proposal.startTime + votingPeriodLenght,\"time out\");\r\n        //\r\n        require(proposal.voteDetails[msg.sender] == enumVoteResult.waiver,\"Votes have been cast\");\r\n        //\r\n        require(result == 1 || result == 2,\"vote result must be less than 3\");\r\n        //\r\n        require(proposal.abort == false,\"proposal has been aborted\");\r\n        //\r\n        require(proposal.oneTicketRefuse == false,\"proposal has been oneTicketRefuse\");\r\n\r\n        //\r\n        enumVoteResult voteResult = enumVoteResult(result);\r\n        proposal.voteDetails[msg.sender] = voteResult;\r\n        //\r\n        uint256 shares = getSharesOf(msg.sender);\r\n        if(voteResult == enumVoteResult.approve){\r\n            proposal.approveVotes = proposal.approveVotes + shares;\r\n        }\r\n        else{\r\n            proposal.refuseVotes = proposal.refuseVotes + shares;\r\n        }\r\n        emit OnVote(proposalIndex,result,shares);\r\n    }\r\n\r\n    //\r\n    function process(uint256 proposalIndex) public {\r\n        //\r\n        require(proposalIndex<proposalQueue.length,\"proposal does not exist\");\r\n        Proposal storage proposal = proposalQueue[proposalIndex];\r\n        //\r\n        require(now > proposal.startTime + votingPeriodLenght,\"time out\");\r\n        //\r\n        require(proposal.process == false,\"proposal has been process\");\r\n        //\r\n        require(proposal.abort == false,\"proposal has been aborted\");\r\n        //\r\n        require(proposal.oneTicketRefuse == false,\"proposal has been oneTicketRefuse\");\r\n        proposal.process = true;\r\n\r\n        //\r\n        if(proposal.approveVotes>proposal.refuseVotes){\r\n            proposal.pass = true;\r\n            // \r\n            Tap memory tap = Tap({\r\n                startTime : now,\r\n                endTime : now + proposal.timeConsuming * 1 days,\r\n                totalMoney : proposal.value\r\n            });\r\n            proposal.tap = tap;\r\n        }\r\n        emit OnProcess(proposalIndex,proposal.pass);\r\n\r\n    }\r\n\r\n    //\r\n    function getMoney(uint256 proposalIndex) public {\r\n        //\r\n        require(proposalIndex<proposalQueue.length,\"proposal does not exist\");\r\n        Proposal storage proposal = proposalQueue[proposalIndex];\r\n        //\r\n        require(proposal.pass == true,\"proposal does not pass\");\r\n        //\r\n        require(msg.sender == proposal.recipient,\"sender must be recipient\");\r\n        Tap memory tap = proposal.tap;\r\n        require(tap.totalMoney > 0,\"no money\");\r\n        //\r\n        uint256 times = (now - tap.startTime) / 1 days;\r\n        uint256 allTimes = (tap.endTime - tap.startTime) / 1 days;\r\n        uint256 canGetMoney = allTimes == 0 ? tap.totalMoney : tap.totalMoney / allTimes * times;\r\n        require(canGetMoney < address(this).balance,\"not enough money\");\r\n        proposal.tap.startTime = tap.startTime + (times * 1 days);\r\n        proposal.tap.totalMoney -= canGetMoney;\r\n        require(tap.totalMoney >= 0,\"tap.totalCanMoney cant less than 0\");\r\n        msg.sender.transfer(canGetMoney);\r\n        emit OnGetMoney(proposalIndex,canGetMoney, proposal.tap.totalMoney,now);\r\n    }\r\n\r\n    function() external payable{\r\n    }\r\n}",
  "sourcePath": "D:\\_______work\\FD_Contract_ETH\\V1\\contracts\\Vote.sol",
  "compiler": {
    "name": "solc",
    "version": "0.5.8+commit.23d335f2.Emscripten.clang"
  },
  "schemaVersion": "3.0.11",
  "updatedAt": "2019-07-18T07:48:47.187Z",
  "devdoc": {
    "methods": {}
  },
  "userdoc": {
    "methods": {}
  }
}