{
  "contractName": "AppManager",
  "abi": [
    {
      "constant": false,
      "inputs": [
        {
          "name": "_addr",
          "type": "address"
        }
      ],
      "name": "removeWhiteList",
      "outputs": [],
      "payable": false,
      "stateMutability": "nonpayable",
      "type": "function"
    },
    {
      "constant": true,
      "inputs": [],
      "name": "dateTime",
      "outputs": [
        {
          "name": "",
          "type": "address"
        }
      ],
      "payable": false,
      "stateMutability": "view",
      "type": "function"
    },
    {
      "constant": true,
      "inputs": [],
      "name": "owner",
      "outputs": [
        {
          "name": "",
          "type": "address"
        }
      ],
      "payable": false,
      "stateMutability": "view",
      "type": "function"
    },
    {
      "constant": false,
      "inputs": [
        {
          "name": "_newOwner",
          "type": "address"
        }
      ],
      "name": "changeOwner",
      "outputs": [],
      "payable": false,
      "stateMutability": "nonpayable",
      "type": "function"
    },
    {
      "constant": false,
      "inputs": [
        {
          "name": "_addr",
          "type": "address"
        }
      ],
      "name": "addWhiteList",
      "outputs": [],
      "payable": false,
      "stateMutability": "nonpayable",
      "type": "function"
    },
    {
      "constant": true,
      "inputs": [],
      "name": "bool_isInit",
      "outputs": [
        {
          "name": "",
          "type": "bool"
        }
      ],
      "payable": false,
      "stateMutability": "view",
      "type": "function"
    },
    {
      "inputs": [],
      "payable": false,
      "stateMutability": "nonpayable",
      "type": "constructor"
    },
    {
      "constant": false,
      "inputs": [
        {
          "name": "_tradeFundPool",
          "type": "address"
        },
        {
          "name": "_governShareManager",
          "type": "address"
        },
        {
          "name": "_fdToken",
          "type": "address"
        },
        {
          "name": "_dateTime",
          "type": "address"
        }
      ],
      "name": "initialize",
      "outputs": [],
      "payable": false,
      "stateMutability": "nonpayable",
      "type": "function"
    },
    {
      "constant": true,
      "inputs": [],
      "name": "getGovernShareManager",
      "outputs": [
        {
          "name": "",
          "type": "address"
        }
      ],
      "payable": false,
      "stateMutability": "view",
      "type": "function"
    },
    {
      "constant": true,
      "inputs": [],
      "name": "getTradeFundPool",
      "outputs": [
        {
          "name": "",
          "type": "address"
        }
      ],
      "payable": false,
      "stateMutability": "view",
      "type": "function"
    },
    {
      "constant": true,
      "inputs": [],
      "name": "getFdToken",
      "outputs": [
        {
          "name": "",
          "type": "address"
        }
      ],
      "payable": false,
      "stateMutability": "view",
      "type": "function"
    },
    {
      "constant": true,
      "inputs": [],
      "name": "getDateTime",
      "outputs": [
        {
          "name": "",
          "type": "address"
        }
      ],
      "payable": false,
      "stateMutability": "view",
      "type": "function"
    },
    {
      "constant": false,
      "inputs": [
        {
          "name": "_grantor",
          "type": "address"
        },
        {
          "name": "_app",
          "type": "address"
        },
        {
          "name": "_vData",
          "type": "bytes32"
        }
      ],
      "name": "addPermission",
      "outputs": [],
      "payable": false,
      "stateMutability": "nonpayable",
      "type": "function"
    },
    {
      "constant": false,
      "inputs": [
        {
          "name": "_grantor",
          "type": "address"
        },
        {
          "name": "_app",
          "type": "address"
        },
        {
          "name": "_vData",
          "type": "bytes32"
        },
        {
          "name": "_paramsHash",
          "type": "bytes32"
        }
      ],
      "name": "addPermission",
      "outputs": [],
      "payable": false,
      "stateMutability": "nonpayable",
      "type": "function"
    },
    {
      "constant": false,
      "inputs": [
        {
          "name": "_newGrantor",
          "type": "address"
        },
        {
          "name": "_app",
          "type": "address"
        },
        {
          "name": "_vData",
          "type": "bytes32"
        },
        {
          "name": "_paramsHash",
          "type": "bytes32"
        }
      ],
      "name": "changePermission",
      "outputs": [],
      "payable": false,
      "stateMutability": "nonpayable",
      "type": "function"
    },
    {
      "constant": false,
      "inputs": [
        {
          "name": "_newGrantor",
          "type": "address"
        },
        {
          "name": "_app",
          "type": "address"
        },
        {
          "name": "_vData",
          "type": "bytes32"
        }
      ],
      "name": "changePermission",
      "outputs": [],
      "payable": false,
      "stateMutability": "nonpayable",
      "type": "function"
    },
    {
      "constant": false,
      "inputs": [
        {
          "name": "_grantor",
          "type": "address"
        },
        {
          "name": "_app",
          "type": "address"
        },
        {
          "name": "_vData",
          "type": "bytes32"
        }
      ],
      "name": "deletePermission",
      "outputs": [],
      "payable": false,
      "stateMutability": "nonpayable",
      "type": "function"
    },
    {
      "constant": true,
      "inputs": [
        {
          "name": "_grantor",
          "type": "address"
        },
        {
          "name": "_app",
          "type": "address"
        },
        {
          "name": "_vData",
          "type": "bytes32"
        },
        {
          "name": "_paramsHash",
          "type": "bytes32"
        }
      ],
      "name": "verifyPermission",
      "outputs": [
        {
          "name": "",
          "type": "bool"
        }
      ],
      "payable": false,
      "stateMutability": "view",
      "type": "function"
    }
  ],
  "bytecode": "0x608060405234801561001057600080fd5b50336000806101000a81548173ffffffffffffffffffffffffffffffffffffffff021916908373ffffffffffffffffffffffffffffffffffffffff16021790555060018060008060009054906101000a900473ffffffffffffffffffffffffffffffffffffffff1673ffffffffffffffffffffffffffffffffffffffff1673ffffffffffffffffffffffffffffffffffffffff16815260200190815260200160002060006101000a81548160ff0219169083151502179055506040516100d590610137565b604051809103906000f0801580156100f1573d6000803e3d6000fd5b50600260006101000a81548173ffffffffffffffffffffffffffffffffffffffff021916908373ffffffffffffffffffffffffffffffffffffffff160217905550610144565b6113bc80611db583390190565b611c62806101536000396000f3fe608060405234801561001057600080fd5b506004361061010a5760003560e01c80638da5cb5b116100a2578063bf7b00eb11610071578063bf7b00eb14610565578063e7cd4a04146105af578063eed329fa146105f3578063f376124f14610615578063f8c8765e146106835761010a565b80638da5cb5b14610415578063a6f9dae11461045f578063a945c836146104a3578063aa7547db1461051b5761010a565b80634c5f0749116100de5780634c5f07491461028357806357b7ac8f14610313578063783672e31461035d578063811be92f146103a75761010a565b806212b8761461010f57806306e4cd5a1461017d5780632042e5c2146101f557806348c8cd4114610239575b600080fd5b61017b6004803603606081101561012557600080fd5b81019080803573ffffffffffffffffffffffffffffffffffffffff169060200190929190803573ffffffffffffffffffffffffffffffffffffffff16906020019092919080359060200190929190505050610727565b005b6101f36004803603608081101561019357600080fd5b81019080803573ffffffffffffffffffffffffffffffffffffffff169060200190929190803573ffffffffffffffffffffffffffffffffffffffff16906020019092919080359060200190929190803590602001909291905050506108b9565b005b6102376004803603602081101561020b57600080fd5b81019080803573ffffffffffffffffffffffffffffffffffffffff169060200190929190505050610a54565b005b610241610b73565b604051808273ffffffffffffffffffffffffffffffffffffffff1673ffffffffffffffffffffffffffffffffffffffff16815260200191505060405180910390f35b6102f96004803603608081101561029957600080fd5b81019080803573ffffffffffffffffffffffffffffffffffffffff169060200190929190803573ffffffffffffffffffffffffffffffffffffffff1690602001909291908035906020019092919080359060200190929190505050610b99565b604051808215151515815260200191505060405180910390f35b61031b610cc3565b604051808273ffffffffffffffffffffffffffffffffffffffff1673ffffffffffffffffffffffffffffffffffffffff16815260200191505060405180910390f35b610365610db1565b604051808273ffffffffffffffffffffffffffffffffffffffff1673ffffffffffffffffffffffffffffffffffffffff16815260200191505060405180910390f35b610413600480360360608110156103bd57600080fd5b81019080803573ffffffffffffffffffffffffffffffffffffffff169060200190929190803573ffffffffffffffffffffffffffffffffffffffff16906020019092919080359060200190929190505050610e9f565b005b61041d6110c1565b604051808273ffffffffffffffffffffffffffffffffffffffff1673ffffffffffffffffffffffffffffffffffffffff16815260200191505060405180910390f35b6104a16004803603602081101561047557600080fd5b81019080803573ffffffffffffffffffffffffffffffffffffffff1690602001909291905050506110e6565b005b610519600480360360808110156104b957600080fd5b81019080803573ffffffffffffffffffffffffffffffffffffffff169060200190929190803573ffffffffffffffffffffffffffffffffffffffff169060200190929190803590602001909291908035906020019092919050505061128f565b005b6105236114ba565b604051808273ffffffffffffffffffffffffffffffffffffffff1673ffffffffffffffffffffffffffffffffffffffff16815260200191505060405180910390f35b61056d6115a8565b604051808273ffffffffffffffffffffffffffffffffffffffff1673ffffffffffffffffffffffffffffffffffffffff16815260200191505060405180910390f35b6105f1600480360360208110156105c557600080fd5b81019080803573ffffffffffffffffffffffffffffffffffffffff169060200190929190505050611696565b005b6105fb6117b4565b604051808215151515815260200191505060405180910390f35b6106816004803603606081101561062b57600080fd5b81019080803573ffffffffffffffffffffffffffffffffffffffff169060200190929190803573ffffffffffffffffffffffffffffffffffffffff169060200190929190803590602001909291905050506117c7565b005b6107256004803603608081101561069957600080fd5b81019080803573ffffffffffffffffffffffffffffffffffffffff169060200190929190803573ffffffffffffffffffffffffffffffffffffffff169060200190929190803573ffffffffffffffffffffffffffffffffffffffff169060200190929190803573ffffffffffffffffffffffffffffffffffffffff1690602001909291905050506119e9565b005b60011515600660149054906101000a900460ff1615151461078b576040517f08c379a0000000000000000000000000000000000000000000000000000000008152600401808060200182810382526000815260200160200191505060405180910390fd5b600260009054906101000a900473ffffffffffffffffffffffffffffffffffffffff1673ffffffffffffffffffffffffffffffffffffffff1663dcad324f338585856040518563ffffffff1660e01b8152600401808573ffffffffffffffffffffffffffffffffffffffff1673ffffffffffffffffffffffffffffffffffffffff1681526020018473ffffffffffffffffffffffffffffffffffffffff1673ffffffffffffffffffffffffffffffffffffffff1681526020018373ffffffffffffffffffffffffffffffffffffffff1673ffffffffffffffffffffffffffffffffffffffff168152602001828152602001945050505050600060405180830381600087803b15801561089c57600080fd5b505af11580156108b0573d6000803e3d6000fd5b50505050505050565b60011515600660149054906101000a900460ff1615151461091d576040517f08c379a0000000000000000000000000000000000000000000000000000000008152600401808060200182810382526000815260200160200191505060405180910390fd5b600260009054906101000a900473ffffffffffffffffffffffffffffffffffffffff1673ffffffffffffffffffffffffffffffffffffffff16635f473c3633868686866040518663ffffffff1660e01b8152600401808673ffffffffffffffffffffffffffffffffffffffff1673ffffffffffffffffffffffffffffffffffffffff1681526020018573ffffffffffffffffffffffffffffffffffffffff1673ffffffffffffffffffffffffffffffffffffffff1681526020018473ffffffffffffffffffffffffffffffffffffffff1673ffffffffffffffffffffffffffffffffffffffff16815260200183815260200182815260200195505050505050600060405180830381600087803b158015610a3657600080fd5b505af1158015610a4a573d6000803e3d6000fd5b5050505050505050565b336000809054906101000a900473ffffffffffffffffffffffffffffffffffffffff1673ffffffffffffffffffffffffffffffffffffffff168173ffffffffffffffffffffffffffffffffffffffff1614610b17576040517f08c379a00000000000000000000000000000000000000000000000000000000081526004018080602001828103825260118152602001807f5065726d697373696f6e2064656e69656400000000000000000000000000000081525060200191505060405180910390fd5b6000600160008473ffffffffffffffffffffffffffffffffffffffff1673ffffffffffffffffffffffffffffffffffffffff16815260200190815260200160002060006101000a81548160ff0219169083151502179055505050565b600660009054906101000a900473ffffffffffffffffffffffffffffffffffffffff1681565b6000600260009054906101000a900473ffffffffffffffffffffffffffffffffffffffff1673ffffffffffffffffffffffffffffffffffffffff16634c5f0749868686866040518563ffffffff1660e01b8152600401808573ffffffffffffffffffffffffffffffffffffffff1673ffffffffffffffffffffffffffffffffffffffff1681526020018473ffffffffffffffffffffffffffffffffffffffff1673ffffffffffffffffffffffffffffffffffffffff16815260200183815260200182815260200194505050505060206040518083038186803b158015610c7e57600080fd5b505afa158015610c92573d6000803e3d6000fd5b505050506040513d6020811015610ca857600080fd5b81019080805190602001909291905050509050949350505050565b60008073ffffffffffffffffffffffffffffffffffffffff16600560009054906101000a900473ffffffffffffffffffffffffffffffffffffffff1673ffffffffffffffffffffffffffffffffffffffff161415610d89576040517f08c379a000000000000000000000000000000000000000000000000000000000815260040180806020018281038252601b8152602001807f54686520616464726573732063616e6e6f7420626520656d707479000000000081525060200191505060405180910390fd5b600560009054906101000a900473ffffffffffffffffffffffffffffffffffffffff16905090565b60008073ffffffffffffffffffffffffffffffffffffffff16600360009054906101000a900473ffffffffffffffffffffffffffffffffffffffff1673ffffffffffffffffffffffffffffffffffffffff161415610e77576040517f08c379a000000000000000000000000000000000000000000000000000000000815260040180806020018281038252601b8152602001807f54686520616464726573732063616e6e6f7420626520656d707479000000000081525060200191505060405180910390fd5b600360009054906101000a900473ffffffffffffffffffffffffffffffffffffffff16905090565b60011515600660149054906101000a900460ff16151514610f03576040517f08c379a0000000000000000000000000000000000000000000000000000000008152600401808060200182810382526000815260200160200191505060405180910390fd5b336000809054906101000a900473ffffffffffffffffffffffffffffffffffffffff1673ffffffffffffffffffffffffffffffffffffffff168173ffffffffffffffffffffffffffffffffffffffff1614610fc6576040517f08c379a00000000000000000000000000000000000000000000000000000000081526004018080602001828103825260118152602001807f5065726d697373696f6e2064656e69656400000000000000000000000000000081525060200191505060405180910390fd5b600260009054906101000a900473ffffffffffffffffffffffffffffffffffffffff1673ffffffffffffffffffffffffffffffffffffffff1663811be92f8585856040518463ffffffff1660e01b8152600401808473ffffffffffffffffffffffffffffffffffffffff1673ffffffffffffffffffffffffffffffffffffffff1681526020018373ffffffffffffffffffffffffffffffffffffffff1673ffffffffffffffffffffffffffffffffffffffff1681526020018281526020019350505050600060405180830381600087803b1580156110a357600080fd5b505af11580156110b7573d6000803e3d6000fd5b5050505050505050565b6000809054906101000a900473ffffffffffffffffffffffffffffffffffffffff1681565b336000809054906101000a900473ffffffffffffffffffffffffffffffffffffffff1673ffffffffffffffffffffffffffffffffffffffff168173ffffffffffffffffffffffffffffffffffffffff16146111a9576040517f08c379a00000000000000000000000000000000000000000000000000000000081526004018080602001828103825260118152602001807f5065726d697373696f6e2064656e69656400000000000000000000000000000081525060200191505060405180910390fd5b8173ffffffffffffffffffffffffffffffffffffffff163373ffffffffffffffffffffffffffffffffffffffff16141561124b576040517f08c379a00000000000000000000000000000000000000000000000000000000081526004018080602001828103825260128152602001807f4e6565642061206e65772061646472657373000000000000000000000000000081525060200191505060405180910390fd5b816000806101000a81548173ffffffffffffffffffffffffffffffffffffffff021916908373ffffffffffffffffffffffffffffffffffffffff1602179055505050565b60011515600660149054906101000a900460ff161515146112f3576040517f08c379a0000000000000000000000000000000000000000000000000000000008152600401808060200182810382526000815260200160200191505060405180910390fd5b336000809054906101000a900473ffffffffffffffffffffffffffffffffffffffff1673ffffffffffffffffffffffffffffffffffffffff168173ffffffffffffffffffffffffffffffffffffffff16146113b6576040517f08c379a00000000000000000000000000000000000000000000000000000000081526004018080602001828103825260118152602001807f5065726d697373696f6e2064656e69656400000000000000000000000000000081525060200191505060405180910390fd5b600260009054906101000a900473ffffffffffffffffffffffffffffffffffffffff1673ffffffffffffffffffffffffffffffffffffffff1663a945c836868686866040518563ffffffff1660e01b8152600401808573ffffffffffffffffffffffffffffffffffffffff1673ffffffffffffffffffffffffffffffffffffffff1681526020018473ffffffffffffffffffffffffffffffffffffffff1673ffffffffffffffffffffffffffffffffffffffff168152602001838152602001828152602001945050505050600060405180830381600087803b15801561149b57600080fd5b505af11580156114af573d6000803e3d6000fd5b505050505050505050565b60008073ffffffffffffffffffffffffffffffffffffffff16600660009054906101000a900473ffffffffffffffffffffffffffffffffffffffff1673ffffffffffffffffffffffffffffffffffffffff161415611580576040517f08c379a000000000000000000000000000000000000000000000000000000000815260040180806020018281038252601b8152602001807f54686520616464726573732063616e6e6f7420626520656d707479000000000081525060200191505060405180910390fd5b600660009054906101000a900473ffffffffffffffffffffffffffffffffffffffff16905090565b60008073ffffffffffffffffffffffffffffffffffffffff16600460009054906101000a900473ffffffffffffffffffffffffffffffffffffffff1673ffffffffffffffffffffffffffffffffffffffff16141561166e576040517f08c379a000000000000000000000000000000000000000000000000000000000815260040180806020018281038252601b8152602001807f54686520616464726573732063616e6e6f7420626520656d707479000000000081525060200191505060405180910390fd5b600460009054906101000a900473ffffffffffffffffffffffffffffffffffffffff16905090565b336000809054906101000a900473ffffffffffffffffffffffffffffffffffffffff1673ffffffffffffffffffffffffffffffffffffffff168173ffffffffffffffffffffffffffffffffffffffff1614611759576040517f08c379a00000000000000000000000000000000000000000000000000000000081526004018080602001828103825260118152602001807f5065726d697373696f6e2064656e69656400000000000000000000000000000081525060200191505060405180910390fd5b60018060008473ffffffffffffffffffffffffffffffffffffffff1673ffffffffffffffffffffffffffffffffffffffff16815260200190815260200160002060006101000a81548160ff0219169083151502179055505050565b600660149054906101000a900460ff1681565b60011515600660149054906101000a900460ff1615151461182b576040517f08c379a0000000000000000000000000000000000000000000000000000000008152600401808060200182810382526000815260200160200191505060405180910390fd5b336000809054906101000a900473ffffffffffffffffffffffffffffffffffffffff1673ffffffffffffffffffffffffffffffffffffffff168173ffffffffffffffffffffffffffffffffffffffff16146118ee576040517f08c379a00000000000000000000000000000000000000000000000000000000081526004018080602001828103825260118152602001807f5065726d697373696f6e2064656e69656400000000000000000000000000000081525060200191505060405180910390fd5b600260009054906101000a900473ffffffffffffffffffffffffffffffffffffffff1673ffffffffffffffffffffffffffffffffffffffff1663f376124f8585856040518463ffffffff1660e01b8152600401808473ffffffffffffffffffffffffffffffffffffffff1673ffffffffffffffffffffffffffffffffffffffff1681526020018373ffffffffffffffffffffffffffffffffffffffff1673ffffffffffffffffffffffffffffffffffffffff1681526020018281526020019350505050600060405180830381600087803b1580156119cb57600080fd5b505af11580156119df573d6000803e3d6000fd5b5050505050505050565b336000809054906101000a900473ffffffffffffffffffffffffffffffffffffffff1673ffffffffffffffffffffffffffffffffffffffff168173ffffffffffffffffffffffffffffffffffffffff1614611aac576040517f08c379a00000000000000000000000000000000000000000000000000000000081526004018080602001828103825260118152602001807f5065726d697373696f6e2064656e69656400000000000000000000000000000081525060200191505060405180910390fd5b60001515600660149054906101000a900460ff16151514611b10576040517f08c379a0000000000000000000000000000000000000000000000000000000008152600401808060200182810382526000815260200160200191505060405180910390fd5b84600360006101000a81548173ffffffffffffffffffffffffffffffffffffffff021916908373ffffffffffffffffffffffffffffffffffffffff16021790555083600460006101000a81548173ffffffffffffffffffffffffffffffffffffffff021916908373ffffffffffffffffffffffffffffffffffffffff16021790555082600560006101000a81548173ffffffffffffffffffffffffffffffffffffffff021916908373ffffffffffffffffffffffffffffffffffffffff16021790555081600660006101000a81548173ffffffffffffffffffffffffffffffffffffffff021916908373ffffffffffffffffffffffffffffffffffffffff1602179055506001600660146101000a81548160ff021916908315150217905550505050505056fea165627a7a723058205e8b2ce71550d49ff627aeea4a32ab4e8fd6f25fa2f2b5fedf202d043661fe3300296080604052336000806101000a81548173ffffffffffffffffffffffffffffffffffffffff021916908373ffffffffffffffffffffffffffffffffffffffff16021790555060018060008060009054906101000a900473ffffffffffffffffffffffffffffffffffffffff1673ffffffffffffffffffffffffffffffffffffffff1673ffffffffffffffffffffffffffffffffffffffff16815260200190815260200160002060006101000a81548160ff0219169083151502179055506112f1806100cb6000396000f3fe608060405234801561001057600080fd5b50600436106100a95760003560e01c8063a6f9dae111610071578063a6f9dae1146102d2578063a945c83614610316578063c513f66e1461038e578063dcad324f146103ac578063e7cd4a041461043a578063f376124f1461047e576100a9565b80632042e5c2146100ae5780634c5f0749146100f25780635f473c3614610182578063811be92f1461021a5780638da5cb5b14610288575b600080fd5b6100f0600480360360208110156100c457600080fd5b81019080803573ffffffffffffffffffffffffffffffffffffffff1690602001909291905050506104ec565b005b6101686004803603608081101561010857600080fd5b81019080803573ffffffffffffffffffffffffffffffffffffffff169060200190929190803573ffffffffffffffffffffffffffffffffffffffff169060200190929190803590602001909291908035906020019092919050505061060b565b604051808215151515815260200191505060405180910390f35b610218600480360360a081101561019857600080fd5b81019080803573ffffffffffffffffffffffffffffffffffffffff169060200190929190803573ffffffffffffffffffffffffffffffffffffffff169060200190929190803573ffffffffffffffffffffffffffffffffffffffff1690602001909291908035906020019092919080359060200190929190505050610648565b005b6102866004803603606081101561023057600080fd5b81019080803573ffffffffffffffffffffffffffffffffffffffff169060200190929190803573ffffffffffffffffffffffffffffffffffffffff1690602001909291908035906020019092919050505061084e565b005b610290610993565b604051808273ffffffffffffffffffffffffffffffffffffffff1673ffffffffffffffffffffffffffffffffffffffff16815260200191505060405180910390f35b610314600480360360208110156102e857600080fd5b81019080803573ffffffffffffffffffffffffffffffffffffffff1690602001909291905050506109b8565b005b61038c6004803603608081101561032c57600080fd5b81019080803573ffffffffffffffffffffffffffffffffffffffff169060200190929190803573ffffffffffffffffffffffffffffffffffffffff1690602001909291908035906020019092919080359060200190929190505050610b61565b005b610396610cb3565b6040518082815260200191505060405180910390f35b610438600480360360808110156103c257600080fd5b81019080803573ffffffffffffffffffffffffffffffffffffffff169060200190929190803573ffffffffffffffffffffffffffffffffffffffff169060200190929190803573ffffffffffffffffffffffffffffffffffffffff16906020019092919080359060200190929190505050610cda565b005b61047c6004803603602081101561045057600080fd5b81019080803573ffffffffffffffffffffffffffffffffffffffff169060200190929190505050610f48565b005b6104ea6004803603606081101561049457600080fd5b81019080803573ffffffffffffffffffffffffffffffffffffffff169060200190929190803573ffffffffffffffffffffffffffffffffffffffff16906020019092919080359060200190929190505050611066565b005b336000809054906101000a900473ffffffffffffffffffffffffffffffffffffffff1673ffffffffffffffffffffffffffffffffffffffff168173ffffffffffffffffffffffffffffffffffffffff16146105af576040517f08c379a00000000000000000000000000000000000000000000000000000000081526004018080602001828103825260118152602001807f5065726d697373696f6e2064656e69656400000000000000000000000000000081525060200191505060405180910390fd5b6000600160008473ffffffffffffffffffffffffffffffffffffffff1673ffffffffffffffffffffffffffffffffffffffff16815260200190815260200160002060006101000a81548160ff0219169083151502179055505050565b6000816002600061061d8888886111fd565b815260200190815260200160002054141561063b5760019050610640565b600090505b949350505050565b336000809054906101000a900473ffffffffffffffffffffffffffffffffffffffff1673ffffffffffffffffffffffffffffffffffffffff168173ffffffffffffffffffffffffffffffffffffffff161461070b576040517f08c379a00000000000000000000000000000000000000000000000000000000081526004018080602001828103825260118152602001807f5065726d697373696f6e2064656e69656400000000000000000000000000000081525060200191505060405180910390fd5b816002600061071b8988886111fd565b8152602001908152602001600020541461079d576040517f08c379a00000000000000000000000000000000000000000000000000000000081526004018080602001828103825260098152602001807f466f7262696464656e000000000000000000000000000000000000000000000081525060200191505060405180910390fd5b81600260006107ad8888886111fd565b815260200190815260200160002081905550600260006107ce8887876111fd565b815260200190815260200160002060009055828473ffffffffffffffffffffffffffffffffffffffff168673ffffffffffffffffffffffffffffffffffffffff167febf775967d29592dadb57b5b4cc654abda3f3d20aca32412981a78759ec2a972856040518082815260200191505060405180910390a4505050505050565b336000809054906101000a900473ffffffffffffffffffffffffffffffffffffffff1673ffffffffffffffffffffffffffffffffffffffff168173ffffffffffffffffffffffffffffffffffffffff1614610911576040517f08c379a00000000000000000000000000000000000000000000000000000000081526004018080602001828103825260118152602001807f5065726d697373696f6e2064656e69656400000000000000000000000000000081525060200191505060405180910390fd5b600260006109208686866111fd565b815260200190815260200160002060009055818373ffffffffffffffffffffffffffffffffffffffff168573ffffffffffffffffffffffffffffffffffffffff167f12129ef89f3c3074a9edda83a18a1fd5661e9bcd1845b7821435dda71eb6c89a60405160405180910390a450505050565b6000809054906101000a900473ffffffffffffffffffffffffffffffffffffffff1681565b336000809054906101000a900473ffffffffffffffffffffffffffffffffffffffff1673ffffffffffffffffffffffffffffffffffffffff168173ffffffffffffffffffffffffffffffffffffffff1614610a7b576040517f08c379a00000000000000000000000000000000000000000000000000000000081526004018080602001828103825260118152602001807f5065726d697373696f6e2064656e69656400000000000000000000000000000081525060200191505060405180910390fd5b8173ffffffffffffffffffffffffffffffffffffffff163373ffffffffffffffffffffffffffffffffffffffff161415610b1d576040517f08c379a00000000000000000000000000000000000000000000000000000000081526004018080602001828103825260128152602001807f4e6565642061206e65772061646472657373000000000000000000000000000081525060200191505060405180910390fd5b816000806101000a81548173ffffffffffffffffffffffffffffffffffffffff021916908373ffffffffffffffffffffffffffffffffffffffff1602179055505050565b336000809054906101000a900473ffffffffffffffffffffffffffffffffffffffff1673ffffffffffffffffffffffffffffffffffffffff168173ffffffffffffffffffffffffffffffffffffffff1614610c24576040517f08c379a00000000000000000000000000000000000000000000000000000000081526004018080602001828103825260118152602001807f5065726d697373696f6e2064656e69656400000000000000000000000000000081525060200191505060405180910390fd5b8160026000610c348888886111fd565b815260200190815260200160002081905550828473ffffffffffffffffffffffffffffffffffffffff168673ffffffffffffffffffffffffffffffffffffffff167f3e505cc99beaaa46999c9ad9aab0192876c9d97ac60bd4bbeb5a825fafd7264a856040518082815260200191505060405180910390a45050505050565b7f290decd9548b62a8d60345a988386fc84ba6bc95484008f6362f93160ef3e56360001b81565b336000809054906101000a900473ffffffffffffffffffffffffffffffffffffffff1673ffffffffffffffffffffffffffffffffffffffff168173ffffffffffffffffffffffffffffffffffffffff1614610d9d576040517f08c379a00000000000000000000000000000000000000000000000000000000081526004018080602001828103825260118152602001807f5065726d697373696f6e2064656e69656400000000000000000000000000000081525060200191505060405180910390fd5b7f290decd9548b62a8d60345a988386fc84ba6bc95484008f6362f93160ef3e56360001b60026000610dd08887876111fd565b81526020019081526020016000205414610e52576040517f08c379a00000000000000000000000000000000000000000000000000000000081526004018080602001828103825260098152602001807f466f7262696464656e000000000000000000000000000000000000000000000081525060200191505060405180910390fd5b7f290decd9548b62a8d60345a988386fc84ba6bc95484008f6362f93160ef3e56360001b60026000610e858787876111fd565b81526020019081526020016000208190555060026000610ea68786866111fd565b815260200190815260200160002060009055818373ffffffffffffffffffffffffffffffffffffffff168573ffffffffffffffffffffffffffffffffffffffff167febf775967d29592dadb57b5b4cc654abda3f3d20aca32412981a78759ec2a9727f290decd9548b62a8d60345a988386fc84ba6bc95484008f6362f93160ef3e56360001b6040518082815260200191505060405180910390a45050505050565b336000809054906101000a900473ffffffffffffffffffffffffffffffffffffffff1673ffffffffffffffffffffffffffffffffffffffff168173ffffffffffffffffffffffffffffffffffffffff161461100b576040517f08c379a00000000000000000000000000000000000000000000000000000000081526004018080602001828103825260118152602001807f5065726d697373696f6e2064656e69656400000000000000000000000000000081525060200191505060405180910390fd5b60018060008473ffffffffffffffffffffffffffffffffffffffff1673ffffffffffffffffffffffffffffffffffffffff16815260200190815260200160002060006101000a81548160ff0219169083151502179055505050565b336000809054906101000a900473ffffffffffffffffffffffffffffffffffffffff1673ffffffffffffffffffffffffffffffffffffffff168173ffffffffffffffffffffffffffffffffffffffff1614611129576040517f08c379a00000000000000000000000000000000000000000000000000000000081526004018080602001828103825260118152602001807f5065726d697373696f6e2064656e69656400000000000000000000000000000081525060200191505060405180910390fd5b7f290decd9548b62a8d60345a988386fc84ba6bc95484008f6362f93160ef3e56360001b6002600061115c8787876111fd565b815260200190815260200160002081905550818373ffffffffffffffffffffffffffffffffffffffff168573ffffffffffffffffffffffffffffffffffffffff167f3e505cc99beaaa46999c9ad9aab0192876c9d97ac60bd4bbeb5a825fafd7264a7f290decd9548b62a8d60345a988386fc84ba6bc95484008f6362f93160ef3e56360001b6040518082815260200191505060405180910390a450505050565b600083838360405160200180807f5045524d495353494f4e00000000000000000000000000000000000000000000815250600a018473ffffffffffffffffffffffffffffffffffffffff1673ffffffffffffffffffffffffffffffffffffffff1660601b81526014018373ffffffffffffffffffffffffffffffffffffffff1673ffffffffffffffffffffffffffffffffffffffff1660601b81526014018281526020019350505050604051602081830303815290604052805190602001209050939250505056fea165627a7a7230582098bdfd835cc28a4715da13a6d0a7d601faf7436f3cb4dad087e0e4c5bbce648e0029",
  "source": "pragma solidity >=0.4.22 <0.6.0;\r\n\r\nimport \"../Permission/Permission.sol\";\r\nimport \"../Own/Own.sol\";\r\nimport \"../Interface/IGovernShareManager.sol\";\r\nimport \"../Interface/ITradeFundPool.sol\";\r\n\r\n\r\ncontract AppManager is Own{\r\n\r\n    IPermission private permission;\r\n\r\n    address payable private tradeFundPool;\r\n\r\n    address payable private governShareManager;\r\n\r\n    address payable private fdToken;\r\n\r\n    address public dateTime;\r\n\r\n    bool public bool_isInit;\r\n\r\n    constructor() public {\r\n        permission = new Permission();\r\n    }\r\n\r\n    modifier isInit() {\r\n        require(bool_isInit == true,\"\");\r\n        _;\r\n    }\r\n\r\n    function initialize(address payable _tradeFundPool,address payable _governShareManager,address payable _fdToken,address _dateTime)\r\n    external isOwner(msg.sender){\r\n        require(bool_isInit == false,\"\");\r\n        tradeFundPool = _tradeFundPool;\r\n        governShareManager = _governShareManager;\r\n        fdToken = _fdToken;\r\n        dateTime = _dateTime;\r\n        bool_isInit = true;\r\n    }\r\n\r\n    function getGovernShareManager() external view returns(address payable) {\r\n        require(governShareManager != address(0),\"The address cannot be empty\");\r\n        return governShareManager;\r\n    }\r\n\r\n    function getTradeFundPool() external view returns(address payable){\r\n        require(tradeFundPool != address(0),\"The address cannot be empty\");\r\n        return tradeFundPool;\r\n    }\r\n\r\n    function getFdToken() external view returns(address payable){\r\n        require(fdToken != address(0),\"The address cannot be empty\");\r\n        return fdToken;\r\n    }\r\n\r\n    function getDateTime() external view returns(address){\r\n        require(dateTime != address(0),\"The address cannot be empty\");\r\n        return dateTime;\r\n    }\r\n\r\n    function addPermission(address _grantor,address _app,bytes32 _vData) external isInit() isOwner(msg.sender){\r\n        permission.addPermission(_grantor,_app,_vData);\r\n    }\r\n\r\n    function changePermission(address _newGrantor,address _app,bytes32 _vData) external isInit(){\r\n        permission.changePermission(msg.sender,_newGrantor,_app,_vData);\r\n    }\r\n\r\n    function addPermission(address _grantor,address _app,bytes32 _vData,bytes32 _paramsHash)\r\n    external\r\n    isInit()\r\n    isOwner(msg.sender)\r\n    {\r\n        permission.addPermission(_grantor,_app,_vData,_paramsHash);\r\n    }\r\n\r\n    function changePermission(address _newGrantor,address _app,bytes32 _vData,bytes32 _paramsHash) external isInit(){\r\n        permission.changePermission(msg.sender,_newGrantor,_app,_vData,_paramsHash);\r\n    }\r\n\r\n    function deletePermission(address _grantor,address _app,bytes32 _vData) external isInit() isOwner(msg.sender){\r\n        permission.deletePermission(_grantor,_app,_vData);\r\n    }\r\n\r\n    function verifyPermission(address _grantor,address _app,bytes32 _vData,bytes32 _paramsHash) external view returns (bool){\r\n        return permission.verifyPermission(_grantor,_app,_vData,_paramsHash);\r\n    }\r\n}",
  "sourcePath": "D:\\_______work\\FD_Contract_ETH\\fd\\contracts\\apps\\AppManager.sol",
  "compiler": {
    "name": "solc",
    "version": "0.5.8+commit.23d335f2.Emscripten.clang"
  },
  "schemaVersion": "3.0.11",
  "updatedAt": "2019-10-18T03:20:32.826Z",
  "devdoc": {
    "methods": {}
  },
  "userdoc": {
    "methods": {}
  }
}