{
  "contractName": "ClearingFundPool",
  "abi": [
    {
      "constant": true,
      "inputs": [],
      "name": "clearingResult",
      "outputs": [
        {
          "name": "",
          "type": "uint8"
        }
      ],
      "payable": false,
      "stateMutability": "view",
      "type": "function"
    },
    {
      "constant": true,
      "inputs": [],
      "name": "assetAddress",
      "outputs": [
        {
          "name": "",
          "type": "address"
        }
      ],
      "payable": false,
      "stateMutability": "view",
      "type": "function"
    },
    {
      "constant": false,
      "inputs": [
        {
          "name": "_addr",
          "type": "address"
        }
      ],
      "name": "removeWhiteList",
      "outputs": [],
      "payable": false,
      "stateMutability": "nonpayable",
      "type": "function"
    },
    {
      "constant": true,
      "inputs": [],
      "name": "totalShares",
      "outputs": [
        {
          "name": "",
          "type": "uint256"
        }
      ],
      "payable": false,
      "stateMutability": "view",
      "type": "function"
    },
    {
      "constant": true,
      "inputs": [],
      "name": "owner",
      "outputs": [
        {
          "name": "",
          "type": "address"
        }
      ],
      "payable": false,
      "stateMutability": "view",
      "type": "function"
    },
    {
      "constant": false,
      "inputs": [
        {
          "name": "_newOwner",
          "type": "address"
        }
      ],
      "name": "changeOwner",
      "outputs": [],
      "payable": false,
      "stateMutability": "nonpayable",
      "type": "function"
    },
    {
      "constant": false,
      "inputs": [
        {
          "name": "_addr",
          "type": "address"
        }
      ],
      "name": "addWhiteList",
      "outputs": [],
      "payable": false,
      "stateMutability": "nonpayable",
      "type": "function"
    },
    {
      "constant": true,
      "inputs": [
        {
          "name": "",
          "type": "address"
        }
      ],
      "name": "map_clearingInfo",
      "outputs": [
        {
          "name": "sharesAmount",
          "type": "uint256"
        },
        {
          "name": "isGet",
          "type": "bool"
        }
      ],
      "payable": false,
      "stateMutability": "view",
      "type": "function"
    },
    {
      "inputs": [
        {
          "name": "_owner",
          "type": "address"
        },
        {
          "name": "_assetAddress",
          "type": "address"
        }
      ],
      "payable": false,
      "stateMutability": "nonpayable",
      "type": "constructor"
    },
    {
      "payable": true,
      "stateMutability": "payable",
      "type": "fallback"
    },
    {
      "constant": false,
      "inputs": [
        {
          "name": "account",
          "type": "address"
        },
        {
          "name": "amount",
          "type": "uint256"
        }
      ],
      "name": "register",
      "outputs": [
        {
          "name": "",
          "type": "bool"
        }
      ],
      "payable": false,
      "stateMutability": "nonpayable",
      "type": "function"
    },
    {
      "constant": false,
      "inputs": [
        {
          "name": "who",
          "type": "address"
        }
      ],
      "name": "clear",
      "outputs": [],
      "payable": false,
      "stateMutability": "nonpayable",
      "type": "function"
    }
  ],
  "bytecode": "0x60806040526000600360006101000a81548160ff0219169083600281111561002357fe5b021790555034801561003457600080fd5b506040516040806112e08339810180604052604081101561005457600080fd5b810190808051906020019092919080519060200190929190505050336000806101000a81548173ffffffffffffffffffffffffffffffffffffffff021916908373ffffffffffffffffffffffffffffffffffffffff16021790555060018060008060009054906101000a900473ffffffffffffffffffffffffffffffffffffffff1673ffffffffffffffffffffffffffffffffffffffff1673ffffffffffffffffffffffffffffffffffffffff16815260200190815260200160002060006101000a81548160ff02191690831515021790555081600660006101000a81548173ffffffffffffffffffffffffffffffffffffffff021916908373ffffffffffffffffffffffffffffffffffffffff16021790555080600560006101000a81548173ffffffffffffffffffffffffffffffffffffffff021916908373ffffffffffffffffffffffffffffffffffffffff1602179055505050611126806101ba6000396000f3fe6080604052600436106100905760003560e01c80636d705ebb116100595780636d705ebb146101ef5780638da5cb5b14610262578063a6f9dae1146102b9578063e7cd4a041461030a578063f79dc1281461035b57610090565b80628dca6a146100925780631ba46cfd146100cb5780632042e5c2146101225780633a98ef39146101735780633d0a40611461019e575b005b34801561009e57600080fd5b506100a76103cb565b604051808260028111156100b757fe5b60ff16815260200191505060405180910390f35b3480156100d757600080fd5b506100e06103de565b604051808273ffffffffffffffffffffffffffffffffffffffff1673ffffffffffffffffffffffffffffffffffffffff16815260200191505060405180910390f35b34801561012e57600080fd5b506101716004803603602081101561014557600080fd5b81019080803573ffffffffffffffffffffffffffffffffffffffff169060200190929190505050610404565b005b34801561017f57600080fd5b50610188610523565b6040518082815260200191505060405180910390f35b3480156101aa57600080fd5b506101ed600480360360208110156101c157600080fd5b81019080803573ffffffffffffffffffffffffffffffffffffffff169060200190929190505050610529565b005b3480156101fb57600080fd5b506102486004803603604081101561021257600080fd5b81019080803573ffffffffffffffffffffffffffffffffffffffff169060200190929190803590602001909291905050506109eb565b604051808215151515815260200191505060405180910390f35b34801561026e57600080fd5b50610277610b1b565b604051808273ffffffffffffffffffffffffffffffffffffffff1673ffffffffffffffffffffffffffffffffffffffff16815260200191505060405180910390f35b3480156102c557600080fd5b50610308600480360360208110156102dc57600080fd5b81019080803573ffffffffffffffffffffffffffffffffffffffff169060200190929190505050610b41565b005b34801561031657600080fd5b506103596004803603602081101561032d57600080fd5b81019080803573ffffffffffffffffffffffffffffffffffffffff169060200190929190505050610cea565b005b34801561036757600080fd5b506103aa6004803603602081101561037e57600080fd5b81019080803573ffffffffffffffffffffffffffffffffffffffff169060200190929190505050610e08565b60405180838152602001821515151581526020019250505060405180910390f35b600360009054906101000a900460ff1681565b600560009054906101000a900473ffffffffffffffffffffffffffffffffffffffff1681565b336000809054906101000a900473ffffffffffffffffffffffffffffffffffffffff1673ffffffffffffffffffffffffffffffffffffffff168173ffffffffffffffffffffffffffffffffffffffff16146104c7576040517f08c379a00000000000000000000000000000000000000000000000000000000081526004018080602001828103825260118152602001807f5065726d697373696f6e2064656e69656400000000000000000000000000000081525060200191505060405180910390fd5b6000600160008473ffffffffffffffffffffffffffffffffffffffff1673ffffffffffffffffffffffffffffffffffffffff16815260200190815260200160002060006101000a81548160ff0219169083151502179055505050565b60045481565b6001600281111561053657fe5b600360009054906101000a900460ff16600281111561055157fe5b146105c4576040517f08c379a00000000000000000000000000000000000000000000000000000000081526004018080602001828103825260178152602001807f636c656172696e67526573756c742069732077726f6e6700000000000000000081525060200191505060405180910390fd5b60001515600260008373ffffffffffffffffffffffffffffffffffffffff1673ffffffffffffffffffffffffffffffffffffffff16815260200190815260200160002060010160009054906101000a900460ff1615151461068d576040517f08c379a00000000000000000000000000000000000000000000000000000000081526004018080602001828103825260148152602001807f4e6f2072657065617420636f6c6c656374696f6e00000000000000000000000081525060200191505060405180910390fd5b60006107d16004546107c3600560009054906101000a900473ffffffffffffffffffffffffffffffffffffffff1673ffffffffffffffffffffffffffffffffffffffff166370a08231306040518263ffffffff1660e01b8152600401808273ffffffffffffffffffffffffffffffffffffffff1673ffffffffffffffffffffffffffffffffffffffff16815260200191505060206040518083038186803b15801561073757600080fd5b505afa15801561074b573d6000803e3d6000fd5b505050506040513d602081101561076157600080fd5b8101908080519060200190929190505050600260008773ffffffffffffffffffffffffffffffffffffffff1673ffffffffffffffffffffffffffffffffffffffff16815260200190815260200160002060000154610e3990919063ffffffff16565b610ebf90919063ffffffff16565b90506000600560009054906101000a900473ffffffffffffffffffffffffffffffffffffffff1673ffffffffffffffffffffffffffffffffffffffff1663a9059cbb84846040518363ffffffff1660e01b8152600401808373ffffffffffffffffffffffffffffffffffffffff1673ffffffffffffffffffffffffffffffffffffffff16815260200182815260200192505050602060405180830381600087803b15801561087e57600080fd5b505af1158015610892573d6000803e3d6000fd5b505050506040513d60208110156108a857600080fd5b810190808051906020019092919050505090508061092e576040517f08c379a00000000000000000000000000000000000000000000000000000000081526004018080602001828103825260058152602001807f6572726f7200000000000000000000000000000000000000000000000000000081525060200191505060405180910390fd5b6001600260008573ffffffffffffffffffffffffffffffffffffffff1673ffffffffffffffffffffffffffffffffffffffff16815260200190815260200160002060010160006101000a81548160ff0219169083151502179055506109e0600260008573ffffffffffffffffffffffffffffffffffffffff1673ffffffffffffffffffffffffffffffffffffffff16815260200190815260200160002060000154600454610f0990919063ffffffff16565b600481905550505050565b6000336000809054906101000a900473ffffffffffffffffffffffffffffffffffffffff1673ffffffffffffffffffffffffffffffffffffffff168173ffffffffffffffffffffffffffffffffffffffff1614610ab0576040517f08c379a00000000000000000000000000000000000000000000000000000000081526004018080602001828103825260118152602001807f5065726d697373696f6e2064656e69656400000000000000000000000000000081525060200191505060405180910390fd5b82600260008673ffffffffffffffffffffffffffffffffffffffff1673ffffffffffffffffffffffffffffffffffffffff1681526020019081526020016000206000016000828254019250508190555082600460008282540192505081905550600191505092915050565b600660009054906101000a900473ffffffffffffffffffffffffffffffffffffffff1681565b336000809054906101000a900473ffffffffffffffffffffffffffffffffffffffff1673ffffffffffffffffffffffffffffffffffffffff168173ffffffffffffffffffffffffffffffffffffffff1614610c04576040517f08c379a00000000000000000000000000000000000000000000000000000000081526004018080602001828103825260118152602001807f5065726d697373696f6e2064656e69656400000000000000000000000000000081525060200191505060405180910390fd5b8173ffffffffffffffffffffffffffffffffffffffff163373ffffffffffffffffffffffffffffffffffffffff161415610ca6576040517f08c379a00000000000000000000000000000000000000000000000000000000081526004018080602001828103825260128152602001807f4e6565642061206e65772061646472657373000000000000000000000000000081525060200191505060405180910390fd5b816000806101000a81548173ffffffffffffffffffffffffffffffffffffffff021916908373ffffffffffffffffffffffffffffffffffffffff1602179055505050565b336000809054906101000a900473ffffffffffffffffffffffffffffffffffffffff1673ffffffffffffffffffffffffffffffffffffffff168173ffffffffffffffffffffffffffffffffffffffff1614610dad576040517f08c379a00000000000000000000000000000000000000000000000000000000081526004018080602001828103825260118152602001807f5065726d697373696f6e2064656e69656400000000000000000000000000000081525060200191505060405180910390fd5b60018060008473ffffffffffffffffffffffffffffffffffffffff1673ffffffffffffffffffffffffffffffffffffffff16815260200190815260200160002060006101000a81548160ff0219169083151502179055505050565b60026020528060005260406000206000915090508060000154908060010160009054906101000a900460ff16905082565b600080831415610e4c5760009050610eb9565b6000828402905082848281610e5d57fe5b0414610eb4576040517f08c379a00000000000000000000000000000000000000000000000000000000081526004018080602001828103825260218152602001806110da6021913960400191505060405180910390fd5b809150505b92915050565b6000610f0183836040518060400160405280601a81526020017f536166654d6174683a206469766973696f6e206279207a65726f000000000000815250610f53565b905092915050565b6000610f4b83836040518060400160405280601e81526020017f536166654d6174683a207375627472616374696f6e206f766572666c6f770000815250611019565b905092915050565b60008083118290610fff576040517f08c379a00000000000000000000000000000000000000000000000000000000081526004018080602001828103825283818151815260200191508051906020019080838360005b83811015610fc4578082015181840152602081019050610fa9565b50505050905090810190601f168015610ff15780820380516001836020036101000a031916815260200191505b509250505060405180910390fd5b50600083858161100b57fe5b049050809150509392505050565b60008383111582906110c6576040517f08c379a00000000000000000000000000000000000000000000000000000000081526004018080602001828103825283818151815260200191508051906020019080838360005b8381101561108b578082015181840152602081019050611070565b50505050905090810190601f1680156110b85780820380516001836020036101000a031916815260200191505b509250505060405180910390fd5b506000838503905080915050939250505056fe536166654d6174683a206d756c7469706c69636174696f6e206f766572666c6f77a165627a7a72305820adf725f5b044215e09bb42164db1e49a6a923b322dae02c096672e77c12d773a0029",
  "source": "pragma solidity >=0.4.22 <0.6.0;\r\n\r\nimport \"../lib/SafeMath.sol\";\r\nimport \"../Own/Own.sol\";\r\nimport \"../Interface/IERC20.sol\";\r\n\r\ncontract ClearingFundPool is Own {\r\n    using SafeMath for uint256;\r\n\r\n    mapping(address=>clearingInfo) public map_clearingInfo;\r\n\r\n    enumVoteResult public clearingResult = enumVoteResult.waiver;\r\n\r\n    uint256 public totalShares;\r\n\r\n    address public assetAddress;\r\n\r\n    address public owner;\r\n\r\n    struct clearingInfo{\r\n        uint256 sharesAmount;\r\n        bool isGet;\r\n    }\r\n\r\n    /// @notice 投票的结果\r\n    enum enumVoteResult {\r\n        waiver,\r\n        approve,\r\n        refuse\r\n    }\r\n\r\n    constructor(address _owner,address _assetAddress) public{\r\n        owner = _owner;\r\n        assetAddress = _assetAddress;\r\n    }\r\n\r\n    function register(address account,uint256 amount) public isOwner(msg.sender) returns(bool){\r\n        map_clearingInfo[account].sharesAmount += amount;\r\n        totalShares += amount;\r\n        return true;\r\n    }\r\n\r\n    function clear(address payable who) public{\r\n        require(clearingResult == enumVoteResult.approve, \"clearingResult is wrong\");\r\n        require(map_clearingInfo[who].isGet == false, \"No repeat collection\");\r\n        uint256 value = (map_clearingInfo[who].sharesAmount).mul(IERC20(assetAddress).balanceOf(address(this))).div(totalShares);\r\n        bool r = IERC20(assetAddress).transfer(who,value);\r\n        require(r,\"error\");\r\n        map_clearingInfo[who].isGet = true;\r\n        totalShares = totalShares.sub(map_clearingInfo[who].sharesAmount);\r\n    }\r\n\r\n    function() external payable{\r\n    }\r\n}",
  "sourcePath": "D:\\_______work\\FD_Contract_ETH\\fd\\contracts\\clearing\\ClearingFundPool.sol",
  "compiler": {
    "name": "solc",
    "version": "0.5.8+commit.23d335f2.Emscripten.clang"
  },
  "schemaVersion": "3.0.11",
  "updatedAt": "2019-11-26T08:42:38.044Z",
  "devdoc": {
    "methods": {}
  },
  "userdoc": {
    "methods": {}
  }
}