{
  "contractName": "ClearingFundPool",
  "abi": [
    {
      "constant": true,
      "inputs": [],
      "name": "clearingResult",
      "outputs": [
        {
          "name": "",
          "type": "uint8"
        }
      ],
      "payable": false,
      "stateMutability": "view",
      "type": "function"
    },
    {
      "constant": false,
      "inputs": [
        {
          "name": "_addr",
          "type": "address"
        }
      ],
      "name": "removeWhiteList",
      "outputs": [],
      "payable": false,
      "stateMutability": "nonpayable",
      "type": "function"
    },
    {
      "constant": true,
      "inputs": [],
      "name": "owner",
      "outputs": [
        {
          "name": "",
          "type": "address"
        }
      ],
      "payable": false,
      "stateMutability": "view",
      "type": "function"
    },
    {
      "constant": true,
      "inputs": [],
      "name": "totalFdt",
      "outputs": [
        {
          "name": "",
          "type": "uint256"
        }
      ],
      "payable": false,
      "stateMutability": "view",
      "type": "function"
    },
    {
      "constant": false,
      "inputs": [
        {
          "name": "_newOwner",
          "type": "address"
        }
      ],
      "name": "changeOwner",
      "outputs": [],
      "payable": false,
      "stateMutability": "nonpayable",
      "type": "function"
    },
    {
      "constant": true,
      "inputs": [],
      "name": "address_erc20",
      "outputs": [
        {
          "name": "",
          "type": "address"
        }
      ],
      "payable": false,
      "stateMutability": "view",
      "type": "function"
    },
    {
      "constant": false,
      "inputs": [
        {
          "name": "_addr",
          "type": "address"
        }
      ],
      "name": "addWhiteList",
      "outputs": [],
      "payable": false,
      "stateMutability": "nonpayable",
      "type": "function"
    },
    {
      "constant": true,
      "inputs": [
        {
          "name": "",
          "type": "address"
        }
      ],
      "name": "map_clearingInfo",
      "outputs": [
        {
          "name": "fdtAmount",
          "type": "uint256"
        },
        {
          "name": "isGet",
          "type": "bool"
        }
      ],
      "payable": false,
      "stateMutability": "view",
      "type": "function"
    },
    {
      "inputs": [
        {
          "name": "_address_governShareManager",
          "type": "address"
        },
        {
          "name": "_address_erc20",
          "type": "address"
        }
      ],
      "payable": false,
      "stateMutability": "nonpayable",
      "type": "constructor"
    },
    {
      "payable": true,
      "stateMutability": "payable",
      "type": "fallback"
    },
    {
      "constant": false,
      "inputs": [
        {
          "name": "who",
          "type": "address"
        },
        {
          "name": "amount",
          "type": "uint256"
        }
      ],
      "name": "lock",
      "outputs": [
        {
          "name": "",
          "type": "bool"
        }
      ],
      "payable": false,
      "stateMutability": "nonpayable",
      "type": "function"
    },
    {
      "constant": false,
      "inputs": [
        {
          "name": "who",
          "type": "address"
        }
      ],
      "name": "free",
      "outputs": [],
      "payable": false,
      "stateMutability": "nonpayable",
      "type": "function"
    },
    {
      "constant": false,
      "inputs": [
        {
          "name": "who",
          "type": "address"
        }
      ],
      "name": "clear",
      "outputs": [],
      "payable": false,
      "stateMutability": "nonpayable",
      "type": "function"
    }
  ],
  "bytecode": "0x60806040526000600360006101000a81548160ff0219169083600281111561002357fe5b021790555034801561003457600080fd5b506040516040806118578339810180604052604081101561005457600080fd5b810190808051906020019092919080519060200190929190505050336000806101000a81548173ffffffffffffffffffffffffffffffffffffffff021916908373ffffffffffffffffffffffffffffffffffffffff16021790555060018060008060009054906101000a900473ffffffffffffffffffffffffffffffffffffffff1673ffffffffffffffffffffffffffffffffffffffff1673ffffffffffffffffffffffffffffffffffffffff16815260200190815260200160002060006101000a81548160ff021916908315150217905550816000806101000a81548173ffffffffffffffffffffffffffffffffffffffff021916908373ffffffffffffffffffffffffffffffffffffffff16021790555080600560006101000a81548173ffffffffffffffffffffffffffffffffffffffff021916908373ffffffffffffffffffffffffffffffffffffffff160217905550505061169e806101b96000396000f3fe60806040526004361061009b5760003560e01c80638e5bbaaa116100645780638e5bbaaa14610242578063a6f9dae11461026d578063c9b5bb17146102be578063d6b1598a1461030f578063e7cd4a0414610366578063f79dc128146103b75761009b565b80628dca6a1461009d5780632042e5c2146100d6578063282d3fdf146101275780633d0a40611461019a5780638da5cb5b146101eb575b005b3480156100a957600080fd5b506100b2610427565b604051808260028111156100c257fe5b60ff16815260200191505060405180910390f35b3480156100e257600080fd5b50610125600480360360208110156100f957600080fd5b81019080803573ffffffffffffffffffffffffffffffffffffffff16906020019092919050505061043a565b005b34801561013357600080fd5b506101806004803603604081101561014a57600080fd5b81019080803573ffffffffffffffffffffffffffffffffffffffff16906020019092919080359060200190929190505050610559565b604051808215151515815260200191505060405180910390f35b3480156101a657600080fd5b506101e9600480360360208110156101bd57600080fd5b81019080803573ffffffffffffffffffffffffffffffffffffffff169060200190929190505050610932565b005b3480156101f757600080fd5b50610200610c1d565b604051808273ffffffffffffffffffffffffffffffffffffffff1673ffffffffffffffffffffffffffffffffffffffff16815260200191505060405180910390f35b34801561024e57600080fd5b50610257610c42565b6040518082815260200191505060405180910390f35b34801561027957600080fd5b506102bc6004803603602081101561029057600080fd5b81019080803573ffffffffffffffffffffffffffffffffffffffff169060200190929190505050610c48565b005b3480156102ca57600080fd5b5061030d600480360360208110156102e157600080fd5b81019080803573ffffffffffffffffffffffffffffffffffffffff169060200190929190505050610df1565b005b34801561031b57600080fd5b506103246111b4565b604051808273ffffffffffffffffffffffffffffffffffffffff1673ffffffffffffffffffffffffffffffffffffffff16815260200191505060405180910390f35b34801561037257600080fd5b506103b56004803603602081101561038957600080fd5b81019080803573ffffffffffffffffffffffffffffffffffffffff1690602001909291905050506111da565b005b3480156103c357600080fd5b50610406600480360360208110156103da57600080fd5b81019080803573ffffffffffffffffffffffffffffffffffffffff1690602001909291905050506112f8565b60405180838152602001821515151581526020019250505060405180910390f35b600360009054906101000a900460ff1681565b336000809054906101000a900473ffffffffffffffffffffffffffffffffffffffff1673ffffffffffffffffffffffffffffffffffffffff168173ffffffffffffffffffffffffffffffffffffffff16146104fd576040517f08c379a00000000000000000000000000000000000000000000000000000000081526004018080602001828103825260118152602001807f5065726d697373696f6e2064656e69656400000000000000000000000000000081525060200191505060405180910390fd5b6000600160008473ffffffffffffffffffffffffffffffffffffffff1673ffffffffffffffffffffffffffffffffffffffff16815260200190815260200160002060006101000a81548160ff0219169083151502179055505050565b6000336000809054906101000a900473ffffffffffffffffffffffffffffffffffffffff1673ffffffffffffffffffffffffffffffffffffffff168173ffffffffffffffffffffffffffffffffffffffff161461061e576040517f08c379a00000000000000000000000000000000000000000000000000000000081526004018080602001828103825260118152602001807f5065726d697373696f6e2064656e69656400000000000000000000000000000081525060200191505060405180910390fd5b6000600281111561062b57fe5b600360009054906101000a900460ff16600281111561064657fe5b146106b9576040517f08c379a00000000000000000000000000000000000000000000000000000000081526004018080602001828103825260178152602001807f636c656172696e67526573756c742069732077726f6e6700000000000000000081525060200191505060405180910390fd5b6000600560009054906101000a900473ffffffffffffffffffffffffffffffffffffffff1673ffffffffffffffffffffffffffffffffffffffff166323b872dd6000809054906101000a900473ffffffffffffffffffffffffffffffffffffffff1630876040518463ffffffff1660e01b8152600401808473ffffffffffffffffffffffffffffffffffffffff1673ffffffffffffffffffffffffffffffffffffffff1681526020018373ffffffffffffffffffffffffffffffffffffffff1673ffffffffffffffffffffffffffffffffffffffff1681526020018281526020019350505050602060405180830381600087803b1580156107b957600080fd5b505af11580156107cd573d6000803e3d6000fd5b505050506040513d60208110156107e357600080fd5b810190808051906020019092919050505090506001151581151514610870576040517f08c379a00000000000000000000000000000000000000000000000000000000081526004018080602001828103825260058152602001807f6572726f7200000000000000000000000000000000000000000000000000000081525060200191505060405180910390fd5b6108c584600260008873ffffffffffffffffffffffffffffffffffffffff1673ffffffffffffffffffffffffffffffffffffffff1681526020019081526020016000206000015461132990919063ffffffff16565b600260008773ffffffffffffffffffffffffffffffffffffffff1673ffffffffffffffffffffffffffffffffffffffff168152602001908152602001600020600001819055506109208460045461132990919063ffffffff16565b60048190555060019250505092915050565b6001600281111561093f57fe5b600360009054906101000a900460ff16600281111561095a57fe5b146109cd576040517f08c379a00000000000000000000000000000000000000000000000000000000081526004018080602001828103825260178152602001807f636c656172696e67526573756c742069732077726f6e6700000000000000000081525060200191505060405180910390fd5b60001515600260008373ffffffffffffffffffffffffffffffffffffffff1673ffffffffffffffffffffffffffffffffffffffff16815260200190815260200160002060010160009054906101000a900460ff16151514610a96576040517f08c379a00000000000000000000000000000000000000000000000000000000081526004018080602001828103825260148152602001807f4e6f2072657065617420636f6c6c656374696f6e00000000000000000000000081525060200191505060405180910390fd5b6000610b18600454610b0a3073ffffffffffffffffffffffffffffffffffffffff1631600260008773ffffffffffffffffffffffffffffffffffffffff1673ffffffffffffffffffffffffffffffffffffffff168152602001908152602001600020600001546113b190919063ffffffff16565b61143790919063ffffffff16565b90508173ffffffffffffffffffffffffffffffffffffffff166108fc829081150290604051600060405180830381858888f19350505050158015610b60573d6000803e3d6000fd5b506001600260008473ffffffffffffffffffffffffffffffffffffffff1673ffffffffffffffffffffffffffffffffffffffff16815260200190815260200160002060010160006101000a81548160ff021916908315150217905550610c13600260008473ffffffffffffffffffffffffffffffffffffffff1673ffffffffffffffffffffffffffffffffffffffff1681526020019081526020016000206000015460045461148190919063ffffffff16565b6004819055505050565b6000809054906101000a900473ffffffffffffffffffffffffffffffffffffffff1681565b60045481565b336000809054906101000a900473ffffffffffffffffffffffffffffffffffffffff1673ffffffffffffffffffffffffffffffffffffffff168173ffffffffffffffffffffffffffffffffffffffff1614610d0b576040517f08c379a00000000000000000000000000000000000000000000000000000000081526004018080602001828103825260118152602001807f5065726d697373696f6e2064656e69656400000000000000000000000000000081525060200191505060405180910390fd5b8173ffffffffffffffffffffffffffffffffffffffff163373ffffffffffffffffffffffffffffffffffffffff161415610dad576040517f08c379a00000000000000000000000000000000000000000000000000000000081526004018080602001828103825260128152602001807f4e6565642061206e65772061646472657373000000000000000000000000000081525060200191505060405180910390fd5b816000806101000a81548173ffffffffffffffffffffffffffffffffffffffff021916908373ffffffffffffffffffffffffffffffffffffffff1602179055505050565b600280811115610dfd57fe5b600360009054906101000a900460ff166002811115610e1857fe5b14610e8b576040517f08c379a00000000000000000000000000000000000000000000000000000000081526004018080602001828103825260178152602001807f636c656172696e67526573756c742069732077726f6e6700000000000000000081525060200191505060405180910390fd5b60001515600260008373ffffffffffffffffffffffffffffffffffffffff1673ffffffffffffffffffffffffffffffffffffffff16815260200190815260200160002060010160009054906101000a900460ff16151514610f54576040517f08c379a00000000000000000000000000000000000000000000000000000000081526004018080602001828103825260148152602001807f4e6f2072657065617420636f6c6c656374696f6e00000000000000000000000081525060200191505060405180910390fd5b6000600560009054906101000a900473ffffffffffffffffffffffffffffffffffffffff1673ffffffffffffffffffffffffffffffffffffffff1663a9059cbb83600260008673ffffffffffffffffffffffffffffffffffffffff1673ffffffffffffffffffffffffffffffffffffffff168152602001908152602001600020600001546040518363ffffffff1660e01b8152600401808373ffffffffffffffffffffffffffffffffffffffff1673ffffffffffffffffffffffffffffffffffffffff16815260200182815260200192505050602060405180830381600087803b15801561104157600080fd5b505af1158015611055573d6000803e3d6000fd5b505050506040513d602081101561106b57600080fd5b8101908080519060200190929190505050905060011515811515146110f8576040517f08c379a00000000000000000000000000000000000000000000000000000000081526004018080602001828103825260058152602001807f6572726f7200000000000000000000000000000000000000000000000000000081525060200191505060405180910390fd5b6001600260008473ffffffffffffffffffffffffffffffffffffffff1673ffffffffffffffffffffffffffffffffffffffff16815260200190815260200160002060010160006101000a81548160ff0219169083151502179055506111aa600260008473ffffffffffffffffffffffffffffffffffffffff1673ffffffffffffffffffffffffffffffffffffffff1681526020019081526020016000206000015460045461148190919063ffffffff16565b6004819055505050565b600560009054906101000a900473ffffffffffffffffffffffffffffffffffffffff1681565b336000809054906101000a900473ffffffffffffffffffffffffffffffffffffffff1673ffffffffffffffffffffffffffffffffffffffff168173ffffffffffffffffffffffffffffffffffffffff161461129d576040517f08c379a00000000000000000000000000000000000000000000000000000000081526004018080602001828103825260118152602001807f5065726d697373696f6e2064656e69656400000000000000000000000000000081525060200191505060405180910390fd5b60018060008473ffffffffffffffffffffffffffffffffffffffff1673ffffffffffffffffffffffffffffffffffffffff16815260200190815260200160002060006101000a81548160ff0219169083151502179055505050565b60026020528060005260406000206000915090508060000154908060010160009054906101000a900460ff16905082565b6000808284019050838110156113a7576040517f08c379a000000000000000000000000000000000000000000000000000000000815260040180806020018281038252601b8152602001807f536166654d6174683a206164646974696f6e206f766572666c6f77000000000081525060200191505060405180910390fd5b8091505092915050565b6000808314156113c45760009050611431565b60008284029050828482816113d557fe5b041461142c576040517f08c379a00000000000000000000000000000000000000000000000000000000081526004018080602001828103825260218152602001806116526021913960400191505060405180910390fd5b809150505b92915050565b600061147983836040518060400160405280601a81526020017f536166654d6174683a206469766973696f6e206279207a65726f0000000000008152506114cb565b905092915050565b60006114c383836040518060400160405280601e81526020017f536166654d6174683a207375627472616374696f6e206f766572666c6f770000815250611591565b905092915050565b60008083118290611577576040517f08c379a00000000000000000000000000000000000000000000000000000000081526004018080602001828103825283818151815260200191508051906020019080838360005b8381101561153c578082015181840152602081019050611521565b50505050905090810190601f1680156115695780820380516001836020036101000a031916815260200191505b509250505060405180910390fd5b50600083858161158357fe5b049050809150509392505050565b600083831115829061163e576040517f08c379a00000000000000000000000000000000000000000000000000000000081526004018080602001828103825283818151815260200191508051906020019080838360005b838110156116035780820151818401526020810190506115e8565b50505050905090810190601f1680156116305780820380516001836020036101000a031916815260200191505b509250505060405180910390fd5b506000838503905080915050939250505056fe536166654d6174683a206d756c7469706c69636174696f6e206f766572666c6f77a165627a7a723058208ac1acd9f7556e3f639a7f16b63ffae14d0634a76525bf473fe19904051d43d60029",
  "source": "pragma solidity >=0.4.22 <0.6.0;\r\n\r\nimport \"../lib/SafeMath.sol\";\r\nimport \"../Own/Own.sol\";\r\nimport \"../Interface/IERC20.sol\";\r\n\r\ncontract ClearingFundPool is Own{\r\n    using SafeMath for uint256;\r\n\r\n    mapping(address=>clearingInfo) public map_clearingInfo;\r\n\r\n    enumVoteResult public clearingResult = enumVoteResult.waiver;\r\n\r\n    uint256 public totalFdt;\r\n\r\n    address public address_erc20;\r\n\r\n    struct clearingInfo{\r\n        uint256 fdtAmount;\r\n        bool isGet;\r\n    }\r\n\r\n    /// @notice 投票的结果\r\n    enum enumVoteResult {\r\n        waiver,\r\n        approve,\r\n        refuse\r\n    }\r\n\r\n    constructor(address payable _address_governShareManager,address _address_erc20) public{\r\n        owner = _address_governShareManager;\r\n        address_erc20 = _address_erc20;\r\n    }\r\n\r\n    function lock(address who,uint256 amount) public isOwner(msg.sender) returns(bool){\r\n        require(clearingResult == enumVoteResult.waiver, \"clearingResult is wrong\");\r\n        bool r = IERC20(address_erc20).transferFrom(owner,address(this),amount);\r\n        require(r==true, \"error\");\r\n        map_clearingInfo[who].fdtAmount = map_clearingInfo[who].fdtAmount.add(amount);\r\n        totalFdt = totalFdt.add(amount);\r\n        return true;\r\n    }\r\n\r\n    function free(address who) public{\r\n        require(clearingResult == enumVoteResult.refuse, \"clearingResult is wrong\");\r\n        require(map_clearingInfo[who].isGet == false, \"No repeat collection\");\r\n        bool r = IERC20(address_erc20).transfer(who,map_clearingInfo[who].fdtAmount);\r\n        require(r == true,\"error\");\r\n        map_clearingInfo[who].isGet = true;\r\n        totalFdt = totalFdt.sub(map_clearingInfo[who].fdtAmount);\r\n    }\r\n\r\n    function clear(address payable who) public{\r\n        require(clearingResult == enumVoteResult.approve, \"clearingResult is wrong\");\r\n        require(map_clearingInfo[who].isGet == false, \"No repeat collection\");\r\n        uint256 value = (map_clearingInfo[who].fdtAmount).mul(address(this).balance).div(totalFdt);\r\n        who.transfer(value);\r\n        map_clearingInfo[who].isGet = true;\r\n        totalFdt = totalFdt.sub(map_clearingInfo[who].fdtAmount);\r\n    }\r\n\r\n    \r\n    function() external payable{\r\n    }\r\n}",
  "sourcePath": "D:\\_______work\\FD_Contract_ETH\\fd\\contracts\\clearing\\ClearingFundPool.sol",
  "compiler": {
    "name": "solc",
    "version": "0.5.8+commit.23d335f2.Emscripten.clang"
  },
  "schemaVersion": "3.0.11",
  "updatedAt": "2019-09-04T09:56:02.938Z",
  "devdoc": {
    "methods": {}
  },
  "userdoc": {
    "methods": {}
  }
}