{
  "contractName": "Co",
  "abi": [
    {
      "constant": true,
      "inputs": [],
      "name": "getAppManagerAddress",
      "outputs": [
        {
          "name": "",
          "type": "address"
        }
      ],
      "payable": false,
      "stateMutability": "view",
      "type": "function"
    },
    {
      "constant": true,
      "inputs": [],
      "name": "slope",
      "outputs": [
        {
          "name": "",
          "type": "uint256"
        }
      ],
      "payable": false,
      "stateMutability": "view",
      "type": "function"
    },
    {
      "constant": true,
      "inputs": [],
      "name": "Co_ChangeAlpha",
      "outputs": [
        {
          "name": "",
          "type": "bytes32"
        }
      ],
      "payable": false,
      "stateMutability": "view",
      "type": "function"
    },
    {
      "constant": true,
      "inputs": [],
      "name": "FundPool_PreMint",
      "outputs": [
        {
          "name": "",
          "type": "bytes32"
        }
      ],
      "payable": false,
      "stateMutability": "view",
      "type": "function"
    },
    {
      "constant": true,
      "inputs": [],
      "name": "EMPTY_PARAM_HASH",
      "outputs": [
        {
          "name": "",
          "type": "bytes32"
        }
      ],
      "payable": false,
      "stateMutability": "view",
      "type": "function"
    },
    {
      "constant": true,
      "inputs": [],
      "name": "alpha",
      "outputs": [
        {
          "name": "",
          "type": "uint256"
        }
      ],
      "payable": false,
      "stateMutability": "view",
      "type": "function"
    },
    {
      "constant": true,
      "inputs": [],
      "name": "Co_ChangeSlop",
      "outputs": [
        {
          "name": "",
          "type": "bytes32"
        }
      ],
      "payable": false,
      "stateMutability": "view",
      "type": "function"
    },
    {
      "constant": true,
      "inputs": [],
      "name": "appManager",
      "outputs": [
        {
          "name": "",
          "type": "address"
        }
      ],
      "payable": false,
      "stateMutability": "view",
      "type": "function"
    },
    {
      "inputs": [
        {
          "name": "_appManager",
          "type": "address"
        },
        {
          "name": "_slope",
          "type": "uint256"
        },
        {
          "name": "_alpha",
          "type": "uint256"
        }
      ],
      "payable": false,
      "stateMutability": "nonpayable",
      "type": "constructor"
    },
    {
      "anonymous": false,
      "inputs": [
        {
          "indexed": false,
          "name": "_slope",
          "type": "uint256"
        }
      ],
      "name": "OnChangeSlope",
      "type": "event"
    },
    {
      "anonymous": false,
      "inputs": [
        {
          "indexed": false,
          "name": "_alpha",
          "type": "uint256"
        }
      ],
      "name": "OnChangeAlpha",
      "type": "event"
    },
    {
      "constant": false,
      "inputs": [
        {
          "name": "_slope",
          "type": "uint256"
        }
      ],
      "name": "changeSlop",
      "outputs": [
        {
          "name": "",
          "type": "bool"
        }
      ],
      "payable": false,
      "stateMutability": "nonpayable",
      "type": "function"
    },
    {
      "constant": false,
      "inputs": [
        {
          "name": "_alpha",
          "type": "uint256"
        }
      ],
      "name": "changeAlpha",
      "outputs": [
        {
          "name": "",
          "type": "bool"
        }
      ],
      "payable": false,
      "stateMutability": "nonpayable",
      "type": "function"
    },
    {
      "constant": true,
      "inputs": [
        {
          "name": "_totalValue",
          "type": "uint256"
        }
      ],
      "name": "getVauleToReserve",
      "outputs": [
        {
          "name": "",
          "type": "uint256"
        }
      ],
      "payable": false,
      "stateMutability": "view",
      "type": "function"
    },
    {
      "constant": true,
      "inputs": [
        {
          "name": "_crowdFundMoney",
          "type": "uint256"
        }
      ],
      "name": "getCrowdFundPrice",
      "outputs": [
        {
          "name": "",
          "type": "uint256"
        }
      ],
      "payable": false,
      "stateMutability": "view",
      "type": "function"
    },
    {
      "constant": true,
      "inputs": [
        {
          "name": "_value",
          "type": "uint256"
        },
        {
          "name": "_totalSupply",
          "type": "uint256"
        }
      ],
      "name": "getBuyAmount",
      "outputs": [
        {
          "name": "",
          "type": "uint256"
        }
      ],
      "payable": false,
      "stateMutability": "view",
      "type": "function"
    },
    {
      "constant": true,
      "inputs": [
        {
          "name": "_sellAmount",
          "type": "uint256"
        },
        {
          "name": "_sellReserve",
          "type": "uint256"
        },
        {
          "name": "_totalSupply",
          "type": "uint256"
        }
      ],
      "name": "getSellValue",
      "outputs": [
        {
          "name": "",
          "type": "uint256"
        }
      ],
      "payable": false,
      "stateMutability": "view",
      "type": "function"
    }
  ],
  "bytecode": "0x608060405234801561001057600080fd5b50604051606080610fd38339810180604052606081101561003057600080fd5b8101908080519060200190929190805190602001909291908051906020019092919050505082806000806101000a81548173ffffffffffffffffffffffffffffffffffffffff021916908373ffffffffffffffffffffffffffffffffffffffff160217905550508160018190555080600281905550505050610f1c806100b76000396000f3fe608060405234801561001057600080fd5b50600436106100ea5760003560e01c8063b6a581491161008c578063db1d0fd511610066578063db1d0fd51461030d578063dded3dea1461032b578063ebe86c1314610349578063f81cb5ae14610393576100ea565b8063b6a581491461028b578063b710ffc0146102d1578063c513f66e146102ef576100ea565b806356d68a2d116100c857806356d68a2d146101c157806383caf2751461020d5780638bcc95371461022b5780639bffc9441461026d576100ea565b806332386d9e146100ef578063344faef6146101315780634c33007714610177575b600080fd5b61011b6004803603602081101561010557600080fd5b81019080803590602001909291905050506103e9565b6040518082815260200191505060405180910390f35b61015d6004803603602081101561014757600080fd5b8101908080359060200190929190505050610476565b604051808215151515815260200191505060405180910390f35b61017f610687565b604051808273ffffffffffffffffffffffffffffffffffffffff1673ffffffffffffffffffffffffffffffffffffffff16815260200191505060405180910390f35b6101f7600480360360408110156101d757600080fd5b8101908080359060200190929190803590602001909291905050506106b0565b6040518082815260200191505060405180910390f35b610215610739565b6040518082815260200191505060405180910390f35b6102576004803603602081101561024157600080fd5b810190808035906020019092919050505061073f565b6040518082815260200191505060405180910390f35b610275610771565b6040518082815260200191505060405180910390f35b6102b7600480360360208110156102a157600080fd5b81019080803590602001909291905050506107aa565b604051808215151515815260200191505060405180910390f35b6102d96109bb565b6040518082815260200191505060405180910390f35b6102f76109f4565b6040518082815260200191505060405180910390f35b610315610a1b565b6040518082815260200191505060405180910390f35b610333610a21565b6040518082815260200191505060405180910390f35b610351610a5a565b604051808273ffffffffffffffffffffffffffffffffffffffff1673ffffffffffffffffffffffffffffffffffffffff16815260200191505060405180910390f35b6103d3600480360360608110156103a957600080fd5b81019080803590602001909291908035906020019092919080359060200190929190505050610a7f565b6040518082815260200191505060405180910390f35b60008061042860015461041a6103e861040c600288610afd90919063ffffffff16565b610afd90919063ffffffff16565b610b8390919063ffffffff16565b905061046e6103e8610460600154610452600261044487610bcd565b610b8390919063ffffffff16565b610afd90919063ffffffff16565b610b8390919063ffffffff16565b915050919050565b600060405180807f436f5f4368616e6765416c706861000000000000000000000000000000000000815250600e01905060405180910390206000809054906101000a900473ffffffffffffffffffffffffffffffffffffffff1673ffffffffffffffffffffffffffffffffffffffff16634c5f07493330847f290decd9548b62a8d60345a988386fc84ba6bc95484008f6362f93160ef3e56360001b6040518563ffffffff1660e01b8152600401808573ffffffffffffffffffffffffffffffffffffffff1673ffffffffffffffffffffffffffffffffffffffff1681526020018473ffffffffffffffffffffffffffffffffffffffff1673ffffffffffffffffffffffffffffffffffffffff16815260200183815260200182815260200194505050505060206040518083038186803b1580156105b357600080fd5b505afa1580156105c7573d6000803e3d6000fd5b505050506040513d60208110156105dd57600080fd5b8101908080519060200190929190505050610643576040517f08c379a0000000000000000000000000000000000000000000000000000000008152600401808060200182810382526024815260200180610ecd6024913960400191505060405180910390fd5b826002819055507fb29f7427378d95c038b9500642788c5178270200c421d56a2ea7bc661aa766dc836040518082815260200191505060405180910390a150919050565b60008060009054906101000a900473ffffffffffffffffffffffffffffffffffffffff16905090565b6000806107136106c98485610afd90919063ffffffff16565b6107056001546106f76103e86106e960028b610afd90919063ffffffff16565b610afd90919063ffffffff16565b610b8390919063ffffffff16565b610c5390919063ffffffff16565b90506107308361072283610bcd565b610cdb90919063ffffffff16565b91505092915050565b60015481565b600061076a6103e861075c84600254610afd90919063ffffffff16565b610b8390919063ffffffff16565b9050919050565b60405180807f436f5f4368616e6765416c706861000000000000000000000000000000000000815250600e019050604051809103902081565b600060405180807f436f5f4368616e6765536c6f7000000000000000000000000000000000000000815250600d01905060405180910390206000809054906101000a900473ffffffffffffffffffffffffffffffffffffffff1673ffffffffffffffffffffffffffffffffffffffff16634c5f07493330847f290decd9548b62a8d60345a988386fc84ba6bc95484008f6362f93160ef3e56360001b6040518563ffffffff1660e01b8152600401808573ffffffffffffffffffffffffffffffffffffffff1673ffffffffffffffffffffffffffffffffffffffff1681526020018473ffffffffffffffffffffffffffffffffffffffff1673ffffffffffffffffffffffffffffffffffffffff16815260200183815260200182815260200194505050505060206040518083038186803b1580156108e757600080fd5b505afa1580156108fb573d6000803e3d6000fd5b505050506040513d602081101561091157600080fd5b8101908080519060200190929190505050610977576040517f08c379a0000000000000000000000000000000000000000000000000000000008152600401808060200182810382526024815260200180610ecd6024913960400191505060405180910390fd5b826001819055507f78b8461277b70bb5459f5ec7f52367c197c98401da02d19fad54b60715a98e84836040518082815260200191505060405180910390a150919050565b60405180807f46756e64506f6f6c5f5072654d696e74000000000000000000000000000000008152506010019050604051809103902081565b7f290decd9548b62a8d60345a988386fc84ba6bc95484008f6362f93160ef3e56360001b81565b60025481565b60405180807f436f5f4368616e6765536c6f7000000000000000000000000000000000000000815250600d019050604051809103902081565b6000809054906101000a900473ffffffffffffffffffffffffffffffffffffffff1681565b600080610af083610ae285610ad4610ab38a610aa560028b610afd90919063ffffffff16565b610cdb90919063ffffffff16565b610ac68b8b610afd90919063ffffffff16565b610afd90919063ffffffff16565b610b8390919063ffffffff16565b610b8390919063ffffffff16565b9050809150509392505050565b600080831415610b105760009050610b7d565b6000828402905082848281610b2157fe5b0414610b78576040517f08c379a0000000000000000000000000000000000000000000000000000000008152600401808060200182810382526021815260200180610eac6021913960400191505060405180910390fd5b809150505b92915050565b6000610bc583836040518060400160405280601a81526020017f536166654d6174683a206469766973696f6e206279207a65726f000000000000815250610d25565b905092915050565b600080610bf76002610be9600186610c5390919063ffffffff16565b610b8390919063ffffffff16565b905060008390505b80821015610c4957819050610c426002610c3484610c268689610b8390919063ffffffff16565b610c5390919063ffffffff16565b610b8390919063ffffffff16565b9150610bff565b8092505050919050565b600080828401905083811015610cd1576040517f08c379a000000000000000000000000000000000000000000000000000000000815260040180806020018281038252601b8152602001807f536166654d6174683a206164646974696f6e206f766572666c6f77000000000081525060200191505060405180910390fd5b8091505092915050565b6000610d1d83836040518060400160405280601e81526020017f536166654d6174683a207375627472616374696f6e206f766572666c6f770000815250610deb565b905092915050565b60008083118290610dd1576040517f08c379a00000000000000000000000000000000000000000000000000000000081526004018080602001828103825283818151815260200191508051906020019080838360005b83811015610d96578082015181840152602081019050610d7b565b50505050905090810190601f168015610dc35780820380516001836020036101000a031916815260200191505b509250505060405180910390fd5b506000838581610ddd57fe5b049050809150509392505050565b6000838311158290610e98576040517f08c379a00000000000000000000000000000000000000000000000000000000081526004018080602001828103825283818151815260200191508051906020019080838360005b83811015610e5d578082015181840152602081019050610e42565b50505050905090810190601f168015610e8a5780820380516001836020036101000a031916815260200191505b509250505060405180910390fd5b506000838503905080915050939250505056fe536166654d6174683a206d756c7469706c69636174696f6e206f766572666c6f774e6f207065726d697373696f6e20746f20696e766f6b652074686520436f6e7472616374a165627a7a723058201e1beb957ce69f03db7a1bb23fa4c2b4c04262d380a3baf5cac87549bc8954b60029",
  "source": "pragma solidity >=0.4.22 <0.6.0;\r\n\r\nimport \"../apps/FutureDaoApp.sol\";\r\nimport \"../Interface/ICurve.sol\";\r\n\r\ncontract Co is ICurve ,FutureDaoApp{\r\n\r\n    uint256 public slope; //1000 * 10**9\r\n\r\n    uint256 public alpha; //300\r\n\r\n    bytes32 public constant Co_ChangeSlop = keccak256(\"Co_ChangeSlop\");\r\n    bytes32 public constant Co_ChangeAlpha = keccak256(\"Co_ChangeAlpha\");\r\n\r\n    event OnChangeSlope(uint256 _slope);\r\n    event OnChangeAlpha(uint256 _alpha);\r\n\r\n    constructor(AppManager _appManager,uint256 _slope,uint256 _alpha) FutureDaoApp(_appManager) public {\r\n        slope = _slope;\r\n        alpha = _alpha;\r\n    }\r\n\r\n    function changeSlop(uint256 _slope) public auth(Co_ChangeSlop) returns(bool){\r\n        slope = _slope;\r\n        emit OnChangeSlope(_slope);\r\n    }\r\n\r\n    function changeAlpha(uint256 _alpha) public auth(Co_ChangeAlpha) returns(bool){\r\n        alpha = _alpha;\r\n        emit OnChangeAlpha(_alpha);\r\n    }\r\n\r\n    function getVauleToReserve(uint256 _totalValue) external view returns(uint256){\r\n        return alpha.mul(_totalValue).div(1000);\r\n    }\r\n\r\n    function getCrowdFundPrice(uint256 _crowdFundMoney) external view returns(uint256){\r\n        uint256 _n = (_crowdFundMoney.mul(2).mul(1000)).div(slope);\r\n        return _sqrt(_n).div(2).mul(slope).div(1000);\r\n    }\r\n\r\n    function getBuyAmount(uint256 _value,uint256 _totalSupply) external view returns(uint256){\r\n        uint256 _n = (_value.mul(2).mul(1000).div(slope)).add(_totalSupply.mul(_totalSupply));\r\n        return _sqrt(_n).sub(_totalSupply);\r\n    }\r\n\r\n    function getSellValue(uint256 _sellAmount,uint256 _sellReserve,uint256 _totalSupply) external view returns(uint256){\r\n        uint256 _n = (_sellReserve.mul(_sellAmount)).mul((_totalSupply.mul(2).sub(_sellAmount))).div(_totalSupply).div(_totalSupply);\r\n        return _n;\r\n    }\r\n\r\n    ///////////////\r\n    // 内部函数\r\n    //////////////\r\n    function _sqrt(uint256 x) internal pure returns(uint256){\r\n        uint256 z = x.add(1).div(2);\r\n        uint256 y = x;\r\n        while(z < y){\r\n            y = z;\r\n            z = ((x.div(z)).add(z)).div(2);\r\n        }\r\n        return y;\r\n    }\r\n}",
  "sourcePath": "D:/_______work/FD_Contract_ETH/fd/contracts/Curve/Co.sol",
  "compiler": {
    "name": "solc",
    "version": "0.5.8+commit.23d335f2.Emscripten.clang"
  },
  "schemaVersion": "3.0.11",
  "updatedAt": "2019-10-18T03:20:32.834Z",
  "devdoc": {
    "methods": {}
  },
  "userdoc": {
    "methods": {}
  }
}