{
  "contractName": "Co",
  "abi": [
    {
      "constant": true,
      "inputs": [],
      "name": "slope",
      "outputs": [
        {
          "name": "",
          "type": "uint256"
        }
      ],
      "payable": false,
      "stateMutability": "view",
      "type": "function"
    },
    {
      "constant": true,
      "inputs": [],
      "name": "Co_ChangeAlpha",
      "outputs": [
        {
          "name": "",
          "type": "bytes32"
        }
      ],
      "payable": false,
      "stateMutability": "view",
      "type": "function"
    },
    {
      "constant": true,
      "inputs": [],
      "name": "Co_ChangeBeta",
      "outputs": [
        {
          "name": "",
          "type": "bytes32"
        }
      ],
      "payable": false,
      "stateMutability": "view",
      "type": "function"
    },
    {
      "constant": true,
      "inputs": [],
      "name": "EMPTY_PARAM_HASH",
      "outputs": [
        {
          "name": "",
          "type": "bytes32"
        }
      ],
      "payable": false,
      "stateMutability": "view",
      "type": "function"
    },
    {
      "constant": true,
      "inputs": [],
      "name": "alpha",
      "outputs": [
        {
          "name": "",
          "type": "uint256"
        }
      ],
      "payable": false,
      "stateMutability": "view",
      "type": "function"
    },
    {
      "constant": true,
      "inputs": [],
      "name": "Co_ChangeSlop",
      "outputs": [
        {
          "name": "",
          "type": "bytes32"
        }
      ],
      "payable": false,
      "stateMutability": "view",
      "type": "function"
    },
    {
      "constant": true,
      "inputs": [],
      "name": "appManager",
      "outputs": [
        {
          "name": "",
          "type": "address"
        }
      ],
      "payable": false,
      "stateMutability": "view",
      "type": "function"
    },
    {
      "inputs": [
        {
          "name": "_appManager",
          "type": "address"
        },
        {
          "name": "_slope",
          "type": "uint256"
        },
        {
          "name": "_alpha",
          "type": "uint256"
        }
      ],
      "payable": false,
      "stateMutability": "nonpayable",
      "type": "constructor"
    },
    {
      "constant": false,
      "inputs": [
        {
          "name": "_slope",
          "type": "uint256"
        }
      ],
      "name": "changeSlop",
      "outputs": [
        {
          "name": "",
          "type": "bool"
        }
      ],
      "payable": false,
      "stateMutability": "nonpayable",
      "type": "function"
    },
    {
      "constant": false,
      "inputs": [
        {
          "name": "_alpha",
          "type": "uint256"
        }
      ],
      "name": "changeAlpha",
      "outputs": [
        {
          "name": "",
          "type": "bool"
        }
      ],
      "payable": false,
      "stateMutability": "nonpayable",
      "type": "function"
    },
    {
      "constant": true,
      "inputs": [
        {
          "name": "_totalValue",
          "type": "uint256"
        }
      ],
      "name": "getVauleToReserve",
      "outputs": [
        {
          "name": "",
          "type": "uint256"
        }
      ],
      "payable": false,
      "stateMutability": "view",
      "type": "function"
    },
    {
      "constant": true,
      "inputs": [
        {
          "name": "_crowdFundMoney",
          "type": "uint256"
        }
      ],
      "name": "getCrowdFundPrice",
      "outputs": [
        {
          "name": "",
          "type": "uint256"
        }
      ],
      "payable": false,
      "stateMutability": "view",
      "type": "function"
    },
    {
      "constant": true,
      "inputs": [
        {
          "name": "_value",
          "type": "uint256"
        },
        {
          "name": "_totalSupply",
          "type": "uint256"
        }
      ],
      "name": "getBuyAmount",
      "outputs": [
        {
          "name": "",
          "type": "uint256"
        }
      ],
      "payable": false,
      "stateMutability": "view",
      "type": "function"
    },
    {
      "constant": true,
      "inputs": [
        {
          "name": "_sellAmount",
          "type": "uint256"
        },
        {
          "name": "_sellReserve",
          "type": "uint256"
        },
        {
          "name": "_totalSupply",
          "type": "uint256"
        }
      ],
      "name": "getSellValue",
      "outputs": [
        {
          "name": "",
          "type": "uint256"
        }
      ],
      "payable": false,
      "stateMutability": "view",
      "type": "function"
    }
  ],
  "bytecode": "0x608060405234801561001057600080fd5b50604051606080610ed58339810180604052606081101561003057600080fd5b81019080805190602001909291908051906020019092919080519060200190929190505050826000806101000a81548173ffffffffffffffffffffffffffffffffffffffff021916908373ffffffffffffffffffffffffffffffffffffffff1602179055508160018190555080600281905550505050610e20806100b56000396000f3fe608060405234801561001057600080fd5b50600436106100cf5760003560e01c8063ae9d0c681161008c578063db1d0fd511610066578063db1d0fd5146102a8578063dded3dea146102c6578063ebe86c13146102e4578063f81cb5ae1461032e576100cf565b8063ae9d0c6814610226578063b6a5814914610244578063c513f66e1461028a576100cf565b806332386d9e146100d4578063344faef61461011657806356d68a2d1461015c57806383caf275146101a85780638bcc9537146101c65780639bffc94414610208575b600080fd5b610100600480360360208110156100ea57600080fd5b8101908080359060200190929190505050610384565b6040518082815260200191505060405180910390f35b6101426004803603602081101561012c57600080fd5b8101908080359060200190929190505050610411565b604051808215151515815260200191505060405180910390f35b6101926004803603604081101561017257600080fd5b8101908080359060200190929190803590602001909291905050506105eb565b6040518082815260200191505060405180910390f35b6101b0610674565b6040518082815260200191505060405180910390f35b6101f2600480360360208110156101dc57600080fd5b810190808035906020019092919050505061067a565b6040518082815260200191505060405180910390f35b6102106106ac565b6040518082815260200191505060405180910390f35b61022e6106e5565b6040518082815260200191505060405180910390f35b6102706004803603602081101561025a57600080fd5b810190808035906020019092919050505061071e565b604051808215151515815260200191505060405180910390f35b6102926108f8565b6040518082815260200191505060405180910390f35b6102b061091f565b6040518082815260200191505060405180910390f35b6102ce610925565b6040518082815260200191505060405180910390f35b6102ec61095e565b604051808273ffffffffffffffffffffffffffffffffffffffff1673ffffffffffffffffffffffffffffffffffffffff16815260200191505060405180910390f35b61036e6004803603606081101561034457600080fd5b81019080803590602001909291908035906020019092919080359060200190929190505050610983565b6040518082815260200191505060405180910390f35b6000806103c36001546103b56103e86103a7600288610a0190919063ffffffff16565b610a0190919063ffffffff16565b610a8790919063ffffffff16565b90506104096103e86103fb6001546103ed60026103df87610ad1565b610a8790919063ffffffff16565b610a0190919063ffffffff16565b610a8790919063ffffffff16565b915050919050565b600060405180807f436f5f4368616e6765416c706861000000000000000000000000000000000000815250600e01905060405180910390206000809054906101000a900473ffffffffffffffffffffffffffffffffffffffff1673ffffffffffffffffffffffffffffffffffffffff16634c5f07493330847f290decd9548b62a8d60345a988386fc84ba6bc95484008f6362f93160ef3e56360001b6040518563ffffffff1660e01b8152600401808573ffffffffffffffffffffffffffffffffffffffff1673ffffffffffffffffffffffffffffffffffffffff1681526020018473ffffffffffffffffffffffffffffffffffffffff1673ffffffffffffffffffffffffffffffffffffffff16815260200183815260200182815260200194505050505060206040518083038186803b15801561054e57600080fd5b505afa158015610562573d6000803e3d6000fd5b505050506040513d602081101561057857600080fd5b81019080805190602001909291905050506105de576040517f08c379a0000000000000000000000000000000000000000000000000000000008152600401808060200182810382526024815260200180610dd16024913960400191505060405180910390fd5b8260028190555050919050565b60008061064e6106048485610a0190919063ffffffff16565b6106406001546106326103e861062460028b610a0190919063ffffffff16565b610a0190919063ffffffff16565b610a8790919063ffffffff16565b610b5790919063ffffffff16565b905061066b8361065d83610ad1565b610bdf90919063ffffffff16565b91505092915050565b60015481565b60006106a56103e861069784600254610a0190919063ffffffff16565b610a8790919063ffffffff16565b9050919050565b60405180807f436f5f4368616e6765416c706861000000000000000000000000000000000000815250600e019050604051809103902081565b60405180807f436f5f4368616e67654265746100000000000000000000000000000000000000815250600d019050604051809103902081565b600060405180807f436f5f4368616e6765536c6f7000000000000000000000000000000000000000815250600d01905060405180910390206000809054906101000a900473ffffffffffffffffffffffffffffffffffffffff1673ffffffffffffffffffffffffffffffffffffffff16634c5f07493330847f290decd9548b62a8d60345a988386fc84ba6bc95484008f6362f93160ef3e56360001b6040518563ffffffff1660e01b8152600401808573ffffffffffffffffffffffffffffffffffffffff1673ffffffffffffffffffffffffffffffffffffffff1681526020018473ffffffffffffffffffffffffffffffffffffffff1673ffffffffffffffffffffffffffffffffffffffff16815260200183815260200182815260200194505050505060206040518083038186803b15801561085b57600080fd5b505afa15801561086f573d6000803e3d6000fd5b505050506040513d602081101561088557600080fd5b81019080805190602001909291905050506108eb576040517f08c379a0000000000000000000000000000000000000000000000000000000008152600401808060200182810382526024815260200180610dd16024913960400191505060405180910390fd5b8260018190555050919050565b7f290decd9548b62a8d60345a988386fc84ba6bc95484008f6362f93160ef3e56360001b81565b60025481565b60405180807f436f5f4368616e6765536c6f7000000000000000000000000000000000000000815250600d019050604051809103902081565b6000809054906101000a900473ffffffffffffffffffffffffffffffffffffffff1681565b6000806109f4836109e6856109d86109b78a6109a960028b610a0190919063ffffffff16565b610bdf90919063ffffffff16565b6109ca8b8b610a0190919063ffffffff16565b610a0190919063ffffffff16565b610a8790919063ffffffff16565b610a8790919063ffffffff16565b9050809150509392505050565b600080831415610a145760009050610a81565b6000828402905082848281610a2557fe5b0414610a7c576040517f08c379a0000000000000000000000000000000000000000000000000000000008152600401808060200182810382526021815260200180610db06021913960400191505060405180910390fd5b809150505b92915050565b6000610ac983836040518060400160405280601a81526020017f536166654d6174683a206469766973696f6e206279207a65726f000000000000815250610c29565b905092915050565b600080610afb6002610aed600186610b5790919063ffffffff16565b610a8790919063ffffffff16565b905060008390505b80821015610b4d57819050610b466002610b3884610b2a8689610a8790919063ffffffff16565b610b5790919063ffffffff16565b610a8790919063ffffffff16565b9150610b03565b8092505050919050565b600080828401905083811015610bd5576040517f08c379a000000000000000000000000000000000000000000000000000000000815260040180806020018281038252601b8152602001807f536166654d6174683a206164646974696f6e206f766572666c6f77000000000081525060200191505060405180910390fd5b8091505092915050565b6000610c2183836040518060400160405280601e81526020017f536166654d6174683a207375627472616374696f6e206f766572666c6f770000815250610cef565b905092915050565b60008083118290610cd5576040517f08c379a00000000000000000000000000000000000000000000000000000000081526004018080602001828103825283818151815260200191508051906020019080838360005b83811015610c9a578082015181840152602081019050610c7f565b50505050905090810190601f168015610cc75780820380516001836020036101000a031916815260200191505b509250505060405180910390fd5b506000838581610ce157fe5b049050809150509392505050565b6000838311158290610d9c576040517f08c379a00000000000000000000000000000000000000000000000000000000081526004018080602001828103825283818151815260200191508051906020019080838360005b83811015610d61578082015181840152602081019050610d46565b50505050905090810190601f168015610d8e5780820380516001836020036101000a031916815260200191505b509250505060405180910390fd5b506000838503905080915050939250505056fe536166654d6174683a206d756c7469706c69636174696f6e206f766572666c6f774e6f207065726d697373696f6e20746f20696e766f6b652074686520636f6e7472616374a165627a7a723058206475ec0a36bc2c1e3a87fd8533cb0865f1b9e68a8d53bd1fff8b2f537bb117590029",
  "source": "pragma solidity >=0.4.22 <0.6.0;\r\n\r\nimport \"../apps/FutureDaoApp.sol\";\r\nimport \"../Interface/ICurve.sol\";\r\n\r\ncontract Co is FutureDaoApp , ICurve{\r\n\r\n    uint256 public slope; //1000\r\n\r\n    uint256 public alpha; //300\r\n\r\n    bytes32 public constant Co_ChangeSlop = keccak256(\"Co_ChangeSlop\");\r\n    bytes32 public constant Co_ChangeAlpha = keccak256(\"Co_ChangeAlpha\");\r\n    bytes32 public constant Co_ChangeBeta = keccak256(\"Co_ChangeBeta\");\r\n\r\n    constructor(AppManager _appManager,uint256 _slope,uint256 _alpha) public {\r\n        appManager = _appManager;\r\n        slope = _slope;\r\n        alpha = _alpha;\r\n    }\r\n\r\n    function changeSlop(uint256 _slope) public auth(Co_ChangeSlop) returns(bool){\r\n        slope = _slope;\r\n    }\r\n\r\n    function changeAlpha(uint256 _alpha) public auth(Co_ChangeAlpha) returns(bool){\r\n        alpha = _alpha;\r\n    }\r\n\r\n    function getVauleToReserve(uint256 _totalValue) external view returns(uint256){\r\n        return alpha.mul(_totalValue).div(1000);\r\n    }\r\n\r\n    function getCrowdFundPrice(uint256 _crowdFundMoney) external view returns(uint256){\r\n        uint256 _n = (_crowdFundMoney.mul(2).mul(1000)).div(slope);\r\n        return _sqrt(_n).div(2).mul(slope).div(1000);\r\n    }\r\n\r\n    function getBuyAmount(uint256 _value,uint256 _totalSupply) external view returns(uint256){\r\n        uint256 _n = (_value.mul(2).mul(1000).div(slope)).add(_totalSupply.mul(_totalSupply));\r\n        return _sqrt(_n).sub(_totalSupply);\r\n    }\r\n\r\n    function getSellValue(uint256 _sellAmount,uint256 _sellReserve,uint256 _totalSupply) external view returns(uint256){\r\n        uint256 _n = (_sellReserve.mul(_sellAmount)).mul((_totalSupply.mul(2).sub(_sellAmount))).div(_totalSupply).div(_totalSupply);\r\n        return _n;\r\n    }\r\n\r\n    ///////////////\r\n    // 内部函数\r\n    //////////////\r\n    function _sqrt(uint256 x) internal pure returns(uint256){\r\n        uint256 z = x.add(1).div(2);\r\n        uint256 y = x;\r\n        while(z < y){\r\n            y = z;\r\n            z = ((x.div(z)).add(z)).div(2);\r\n        }\r\n        return y;\r\n    }\r\n}",
  "sourcePath": "D:/_______work/FD_Contract_ETH/fd/contracts/Curve/Co.sol",
  "compiler": {
    "name": "solc",
    "version": "0.5.8+commit.23d335f2.Emscripten.clang"
  },
  "schemaVersion": "3.0.11",
  "updatedAt": "2019-08-27T10:27:32.968Z",
  "devdoc": {
    "methods": {}
  },
  "userdoc": {
    "methods": {}
  }
}