{
  "contractName": "Co",
  "abi": [
    {
      "constant": true,
      "inputs": [],
      "name": "getAppManagerAddress",
      "outputs": [
        {
          "name": "",
          "type": "address"
        }
      ],
      "payable": false,
      "stateMutability": "view",
      "type": "function"
    },
    {
      "constant": true,
      "inputs": [],
      "name": "slope",
      "outputs": [
        {
          "name": "",
          "type": "uint256"
        }
      ],
      "payable": false,
      "stateMutability": "view",
      "type": "function"
    },
    {
      "constant": true,
      "inputs": [],
      "name": "Co_ChangeAlpha",
      "outputs": [
        {
          "name": "",
          "type": "bytes32"
        }
      ],
      "payable": false,
      "stateMutability": "view",
      "type": "function"
    },
    {
      "constant": true,
      "inputs": [],
      "name": "Co_ChangeBeta",
      "outputs": [
        {
          "name": "",
          "type": "bytes32"
        }
      ],
      "payable": false,
      "stateMutability": "view",
      "type": "function"
    },
    {
      "constant": true,
      "inputs": [],
      "name": "FundPool_PreMint",
      "outputs": [
        {
          "name": "",
          "type": "bytes32"
        }
      ],
      "payable": false,
      "stateMutability": "view",
      "type": "function"
    },
    {
      "constant": true,
      "inputs": [],
      "name": "EMPTY_PARAM_HASH",
      "outputs": [
        {
          "name": "",
          "type": "bytes32"
        }
      ],
      "payable": false,
      "stateMutability": "view",
      "type": "function"
    },
    {
      "constant": true,
      "inputs": [],
      "name": "alpha",
      "outputs": [
        {
          "name": "",
          "type": "uint256"
        }
      ],
      "payable": false,
      "stateMutability": "view",
      "type": "function"
    },
    {
      "constant": true,
      "inputs": [],
      "name": "Co_ChangeSlop",
      "outputs": [
        {
          "name": "",
          "type": "bytes32"
        }
      ],
      "payable": false,
      "stateMutability": "view",
      "type": "function"
    },
    {
      "constant": true,
      "inputs": [],
      "name": "appManager",
      "outputs": [
        {
          "name": "",
          "type": "address"
        }
      ],
      "payable": false,
      "stateMutability": "view",
      "type": "function"
    },
    {
      "inputs": [
        {
          "name": "_appManager",
          "type": "address"
        },
        {
          "name": "_slope",
          "type": "uint256"
        },
        {
          "name": "_alpha",
          "type": "uint256"
        }
      ],
      "payable": false,
      "stateMutability": "nonpayable",
      "type": "constructor"
    },
    {
      "constant": false,
      "inputs": [
        {
          "name": "_slope",
          "type": "uint256"
        }
      ],
      "name": "changeSlop",
      "outputs": [
        {
          "name": "",
          "type": "bool"
        }
      ],
      "payable": false,
      "stateMutability": "nonpayable",
      "type": "function"
    },
    {
      "constant": false,
      "inputs": [
        {
          "name": "_alpha",
          "type": "uint256"
        }
      ],
      "name": "changeAlpha",
      "outputs": [
        {
          "name": "",
          "type": "bool"
        }
      ],
      "payable": false,
      "stateMutability": "nonpayable",
      "type": "function"
    },
    {
      "constant": true,
      "inputs": [
        {
          "name": "_totalValue",
          "type": "uint256"
        }
      ],
      "name": "getVauleToReserve",
      "outputs": [
        {
          "name": "",
          "type": "uint256"
        }
      ],
      "payable": false,
      "stateMutability": "view",
      "type": "function"
    },
    {
      "constant": true,
      "inputs": [
        {
          "name": "_crowdFundMoney",
          "type": "uint256"
        }
      ],
      "name": "getCrowdFundPrice",
      "outputs": [
        {
          "name": "",
          "type": "uint256"
        }
      ],
      "payable": false,
      "stateMutability": "view",
      "type": "function"
    },
    {
      "constant": true,
      "inputs": [
        {
          "name": "_value",
          "type": "uint256"
        },
        {
          "name": "_totalSupply",
          "type": "uint256"
        }
      ],
      "name": "getBuyAmount",
      "outputs": [
        {
          "name": "",
          "type": "uint256"
        }
      ],
      "payable": false,
      "stateMutability": "view",
      "type": "function"
    },
    {
      "constant": true,
      "inputs": [
        {
          "name": "_sellAmount",
          "type": "uint256"
        },
        {
          "name": "_sellReserve",
          "type": "uint256"
        },
        {
          "name": "_totalSupply",
          "type": "uint256"
        }
      ],
      "name": "getSellValue",
      "outputs": [
        {
          "name": "",
          "type": "uint256"
        }
      ],
      "payable": false,
      "stateMutability": "view",
      "type": "function"
    }
  ],
  "bytecode": "0x608060405234801561001057600080fd5b50604051606080610fc58339810180604052606081101561003057600080fd5b81019080805190602001909291908051906020019092919080519060200190929190505050826000806101000a81548173ffffffffffffffffffffffffffffffffffffffff021916908373ffffffffffffffffffffffffffffffffffffffff1602179055508160018190555080600281905550505050610f10806100b56000396000f3fe608060405234801561001057600080fd5b50600436106100f55760003560e01c8063ae9d0c6811610097578063db1d0fd511610066578063db1d0fd514610336578063dded3dea14610354578063ebe86c1314610372578063f81cb5ae146103bc576100f5565b8063ae9d0c6814610296578063b6a58149146102b4578063b710ffc0146102fa578063c513f66e14610318576100f5565b806356d68a2d116100d357806356d68a2d146101cc57806383caf275146102185780638bcc9537146102365780639bffc94414610278576100f5565b806332386d9e146100fa578063344faef61461013c5780634c33007714610182575b600080fd5b6101266004803603602081101561011057600080fd5b8101908080359060200190929190505050610412565b6040518082815260200191505060405180910390f35b6101686004803603602081101561015257600080fd5b810190808035906020019092919050505061049f565b604051808215151515815260200191505060405180910390f35b61018a610679565b604051808273ffffffffffffffffffffffffffffffffffffffff1673ffffffffffffffffffffffffffffffffffffffff16815260200191505060405180910390f35b610202600480360360408110156101e257600080fd5b8101908080359060200190929190803590602001909291905050506106a2565b6040518082815260200191505060405180910390f35b61022061072b565b6040518082815260200191505060405180910390f35b6102626004803603602081101561024c57600080fd5b8101908080359060200190929190505050610731565b6040518082815260200191505060405180910390f35b610280610763565b6040518082815260200191505060405180910390f35b61029e61079c565b6040518082815260200191505060405180910390f35b6102e0600480360360208110156102ca57600080fd5b81019080803590602001909291905050506107d5565b604051808215151515815260200191505060405180910390f35b6103026109af565b6040518082815260200191505060405180910390f35b6103206109e8565b6040518082815260200191505060405180910390f35b61033e610a0f565b6040518082815260200191505060405180910390f35b61035c610a15565b6040518082815260200191505060405180910390f35b61037a610a4e565b604051808273ffffffffffffffffffffffffffffffffffffffff1673ffffffffffffffffffffffffffffffffffffffff16815260200191505060405180910390f35b6103fc600480360360608110156103d257600080fd5b81019080803590602001909291908035906020019092919080359060200190929190505050610a73565b6040518082815260200191505060405180910390f35b6000806104516001546104436103e8610435600288610af190919063ffffffff16565b610af190919063ffffffff16565b610b7790919063ffffffff16565b90506104976103e861048960015461047b600261046d87610bc1565b610b7790919063ffffffff16565b610af190919063ffffffff16565b610b7790919063ffffffff16565b915050919050565b600060405180807f436f5f4368616e6765416c706861000000000000000000000000000000000000815250600e01905060405180910390206000809054906101000a900473ffffffffffffffffffffffffffffffffffffffff1673ffffffffffffffffffffffffffffffffffffffff16634c5f07493330847f290decd9548b62a8d60345a988386fc84ba6bc95484008f6362f93160ef3e56360001b6040518563ffffffff1660e01b8152600401808573ffffffffffffffffffffffffffffffffffffffff1673ffffffffffffffffffffffffffffffffffffffff1681526020018473ffffffffffffffffffffffffffffffffffffffff1673ffffffffffffffffffffffffffffffffffffffff16815260200183815260200182815260200194505050505060206040518083038186803b1580156105dc57600080fd5b505afa1580156105f0573d6000803e3d6000fd5b505050506040513d602081101561060657600080fd5b810190808051906020019092919050505061066c576040517f08c379a0000000000000000000000000000000000000000000000000000000008152600401808060200182810382526024815260200180610ec16024913960400191505060405180910390fd5b8260028190555050919050565b60008060009054906101000a900473ffffffffffffffffffffffffffffffffffffffff16905090565b6000806107056106bb8485610af190919063ffffffff16565b6106f76001546106e96103e86106db60028b610af190919063ffffffff16565b610af190919063ffffffff16565b610b7790919063ffffffff16565b610c4790919063ffffffff16565b90506107228361071483610bc1565b610ccf90919063ffffffff16565b91505092915050565b60015481565b600061075c6103e861074e84600254610af190919063ffffffff16565b610b7790919063ffffffff16565b9050919050565b60405180807f436f5f4368616e6765416c706861000000000000000000000000000000000000815250600e019050604051809103902081565b60405180807f436f5f4368616e67654265746100000000000000000000000000000000000000815250600d019050604051809103902081565b600060405180807f436f5f4368616e6765536c6f7000000000000000000000000000000000000000815250600d01905060405180910390206000809054906101000a900473ffffffffffffffffffffffffffffffffffffffff1673ffffffffffffffffffffffffffffffffffffffff16634c5f07493330847f290decd9548b62a8d60345a988386fc84ba6bc95484008f6362f93160ef3e56360001b6040518563ffffffff1660e01b8152600401808573ffffffffffffffffffffffffffffffffffffffff1673ffffffffffffffffffffffffffffffffffffffff1681526020018473ffffffffffffffffffffffffffffffffffffffff1673ffffffffffffffffffffffffffffffffffffffff16815260200183815260200182815260200194505050505060206040518083038186803b15801561091257600080fd5b505afa158015610926573d6000803e3d6000fd5b505050506040513d602081101561093c57600080fd5b81019080805190602001909291905050506109a2576040517f08c379a0000000000000000000000000000000000000000000000000000000008152600401808060200182810382526024815260200180610ec16024913960400191505060405180910390fd5b8260018190555050919050565b60405180807f46756e64506f6f6c5f5072654d696e74000000000000000000000000000000008152506010019050604051809103902081565b7f290decd9548b62a8d60345a988386fc84ba6bc95484008f6362f93160ef3e56360001b81565b60025481565b60405180807f436f5f4368616e6765536c6f7000000000000000000000000000000000000000815250600d019050604051809103902081565b6000809054906101000a900473ffffffffffffffffffffffffffffffffffffffff1681565b600080610ae483610ad685610ac8610aa78a610a9960028b610af190919063ffffffff16565b610ccf90919063ffffffff16565b610aba8b8b610af190919063ffffffff16565b610af190919063ffffffff16565b610b7790919063ffffffff16565b610b7790919063ffffffff16565b9050809150509392505050565b600080831415610b045760009050610b71565b6000828402905082848281610b1557fe5b0414610b6c576040517f08c379a0000000000000000000000000000000000000000000000000000000008152600401808060200182810382526021815260200180610ea06021913960400191505060405180910390fd5b809150505b92915050565b6000610bb983836040518060400160405280601a81526020017f536166654d6174683a206469766973696f6e206279207a65726f000000000000815250610d19565b905092915050565b600080610beb6002610bdd600186610c4790919063ffffffff16565b610b7790919063ffffffff16565b905060008390505b80821015610c3d57819050610c366002610c2884610c1a8689610b7790919063ffffffff16565b610c4790919063ffffffff16565b610b7790919063ffffffff16565b9150610bf3565b8092505050919050565b600080828401905083811015610cc5576040517f08c379a000000000000000000000000000000000000000000000000000000000815260040180806020018281038252601b8152602001807f536166654d6174683a206164646974696f6e206f766572666c6f77000000000081525060200191505060405180910390fd5b8091505092915050565b6000610d1183836040518060400160405280601e81526020017f536166654d6174683a207375627472616374696f6e206f766572666c6f770000815250610ddf565b905092915050565b60008083118290610dc5576040517f08c379a00000000000000000000000000000000000000000000000000000000081526004018080602001828103825283818151815260200191508051906020019080838360005b83811015610d8a578082015181840152602081019050610d6f565b50505050905090810190601f168015610db75780820380516001836020036101000a031916815260200191505b509250505060405180910390fd5b506000838581610dd157fe5b049050809150509392505050565b6000838311158290610e8c576040517f08c379a00000000000000000000000000000000000000000000000000000000081526004018080602001828103825283818151815260200191508051906020019080838360005b83811015610e51578082015181840152602081019050610e36565b50505050905090810190601f168015610e7e5780820380516001836020036101000a031916815260200191505b509250505060405180910390fd5b506000838503905080915050939250505056fe536166654d6174683a206d756c7469706c69636174696f6e206f766572666c6f774e6f207065726d697373696f6e20746f20696e766f6b652074686520436f6e7472616374a165627a7a72305820dbf12b6f82e5b5434444c01a929dd60870045c73130127160d5a3c4a92728e3f0029",
  "source": "pragma solidity >=0.4.22 <0.6.0;\r\n\r\nimport \"../apps/FutureDaoApp.sol\";\r\nimport \"../Interface/ICurve.sol\";\r\n\r\ncontract Co is FutureDaoApp , ICurve{\r\n\r\n    uint256 public slope; //1000 * 10**9\r\n\r\n    uint256 public alpha; //300\r\n\r\n    bytes32 public constant Co_ChangeSlop = keccak256(\"Co_ChangeSlop\");\r\n    bytes32 public constant Co_ChangeAlpha = keccak256(\"Co_ChangeAlpha\");\r\n    bytes32 public constant Co_ChangeBeta = keccak256(\"Co_ChangeBeta\");\r\n\r\n    constructor(AppManager _appManager,uint256 _slope,uint256 _alpha) public {\r\n        appManager = _appManager;\r\n        slope = _slope;\r\n        alpha = _alpha;\r\n    }\r\n\r\n    function changeSlop(uint256 _slope) public auth(Co_ChangeSlop) returns(bool){\r\n        slope = _slope;\r\n    }\r\n\r\n    function changeAlpha(uint256 _alpha) public auth(Co_ChangeAlpha) returns(bool){\r\n        alpha = _alpha;\r\n    }\r\n\r\n    function getVauleToReserve(uint256 _totalValue) external view returns(uint256){\r\n        return alpha.mul(_totalValue).div(1000);\r\n    }\r\n\r\n    function getCrowdFundPrice(uint256 _crowdFundMoney) external view returns(uint256){\r\n        uint256 _n = (_crowdFundMoney.mul(2).mul(1000)).div(slope);\r\n        return _sqrt(_n).div(2).mul(slope).div(1000);\r\n    }\r\n\r\n    function getBuyAmount(uint256 _value,uint256 _totalSupply) external view returns(uint256){\r\n        uint256 _n = (_value.mul(2).mul(1000).div(slope)).add(_totalSupply.mul(_totalSupply));\r\n        return _sqrt(_n).sub(_totalSupply);\r\n    }\r\n\r\n    function getSellValue(uint256 _sellAmount,uint256 _sellReserve,uint256 _totalSupply) external view returns(uint256){\r\n        uint256 _n = (_sellReserve.mul(_sellAmount)).mul((_totalSupply.mul(2).sub(_sellAmount))).div(_totalSupply).div(_totalSupply);\r\n        return _n;\r\n    }\r\n\r\n    ///////////////\r\n    // 内部函数\r\n    //////////////\r\n    function _sqrt(uint256 x) internal pure returns(uint256){\r\n        uint256 z = x.add(1).div(2);\r\n        uint256 y = x;\r\n        while(z < y){\r\n            y = z;\r\n            z = ((x.div(z)).add(z)).div(2);\r\n        }\r\n        return y;\r\n    }\r\n}",
  "sourcePath": "D:/_______work/FD_Contract_ETH/fd/contracts/Curve/Co.sol",
  "compiler": {
    "name": "solc",
    "version": "0.5.8+commit.23d335f2.Emscripten.clang"
  },
  "schemaVersion": "3.0.11",
  "updatedAt": "2019-09-04T09:54:15.832Z",
  "devdoc": {
    "methods": {}
  },
  "userdoc": {
    "methods": {}
  }
}