{
  "contractName": "FdToken",
  "abi": [
    {
      "constant": true,
      "inputs": [],
      "name": "name",
      "outputs": [
        {
          "name": "",
          "type": "string"
        }
      ],
      "payable": false,
      "stateMutability": "view",
      "type": "function"
    },
    {
      "constant": true,
      "inputs": [],
      "name": "decimals",
      "outputs": [
        {
          "name": "",
          "type": "uint8"
        }
      ],
      "payable": false,
      "stateMutability": "view",
      "type": "function"
    },
    {
      "constant": true,
      "inputs": [],
      "name": "FdToken_Mint",
      "outputs": [
        {
          "name": "",
          "type": "bytes32"
        }
      ],
      "payable": false,
      "stateMutability": "view",
      "type": "function"
    },
    {
      "constant": true,
      "inputs": [],
      "name": "symbol",
      "outputs": [
        {
          "name": "",
          "type": "string"
        }
      ],
      "payable": false,
      "stateMutability": "view",
      "type": "function"
    },
    {
      "constant": true,
      "inputs": [],
      "name": "EMPTY_PARAM_HASH",
      "outputs": [
        {
          "name": "",
          "type": "bytes32"
        }
      ],
      "payable": false,
      "stateMutability": "view",
      "type": "function"
    },
    {
      "constant": true,
      "inputs": [],
      "name": "appManager",
      "outputs": [
        {
          "name": "",
          "type": "address"
        }
      ],
      "payable": false,
      "stateMutability": "view",
      "type": "function"
    },
    {
      "constant": true,
      "inputs": [],
      "name": "FdToken_Burn",
      "outputs": [
        {
          "name": "",
          "type": "bytes32"
        }
      ],
      "payable": false,
      "stateMutability": "view",
      "type": "function"
    },
    {
      "inputs": [
        {
          "name": "_appManager",
          "type": "address"
        },
        {
          "name": "_name",
          "type": "string"
        },
        {
          "name": "_decimals",
          "type": "uint8"
        },
        {
          "name": "_symbol",
          "type": "string"
        }
      ],
      "payable": false,
      "stateMutability": "nonpayable",
      "type": "constructor"
    },
    {
      "anonymous": false,
      "inputs": [
        {
          "indexed": true,
          "name": "from",
          "type": "address"
        },
        {
          "indexed": true,
          "name": "to",
          "type": "address"
        },
        {
          "indexed": false,
          "name": "value",
          "type": "uint256"
        }
      ],
      "name": "Transfer",
      "type": "event"
    },
    {
      "anonymous": false,
      "inputs": [
        {
          "indexed": true,
          "name": "owner",
          "type": "address"
        },
        {
          "indexed": true,
          "name": "spender",
          "type": "address"
        },
        {
          "indexed": false,
          "name": "value",
          "type": "uint256"
        }
      ],
      "name": "Approval",
      "type": "event"
    },
    {
      "constant": true,
      "inputs": [],
      "name": "totalSupply",
      "outputs": [
        {
          "name": "",
          "type": "uint256"
        }
      ],
      "payable": false,
      "stateMutability": "view",
      "type": "function"
    },
    {
      "constant": true,
      "inputs": [
        {
          "name": "account",
          "type": "address"
        }
      ],
      "name": "balanceOf",
      "outputs": [
        {
          "name": "",
          "type": "uint256"
        }
      ],
      "payable": false,
      "stateMutability": "view",
      "type": "function"
    },
    {
      "constant": false,
      "inputs": [
        {
          "name": "account",
          "type": "address"
        },
        {
          "name": "amount",
          "type": "uint256"
        }
      ],
      "name": "mint",
      "outputs": [
        {
          "name": "",
          "type": "bool"
        }
      ],
      "payable": false,
      "stateMutability": "nonpayable",
      "type": "function"
    },
    {
      "constant": false,
      "inputs": [
        {
          "name": "account",
          "type": "address"
        },
        {
          "name": "amount",
          "type": "uint256"
        }
      ],
      "name": "burn",
      "outputs": [
        {
          "name": "",
          "type": "bool"
        }
      ],
      "payable": false,
      "stateMutability": "nonpayable",
      "type": "function"
    },
    {
      "constant": false,
      "inputs": [
        {
          "name": "recipient",
          "type": "address"
        },
        {
          "name": "amount",
          "type": "uint256"
        }
      ],
      "name": "transfer",
      "outputs": [
        {
          "name": "",
          "type": "bool"
        }
      ],
      "payable": false,
      "stateMutability": "nonpayable",
      "type": "function"
    },
    {
      "constant": true,
      "inputs": [
        {
          "name": "owner",
          "type": "address"
        },
        {
          "name": "spender",
          "type": "address"
        }
      ],
      "name": "allowance",
      "outputs": [
        {
          "name": "",
          "type": "uint256"
        }
      ],
      "payable": false,
      "stateMutability": "view",
      "type": "function"
    },
    {
      "constant": false,
      "inputs": [
        {
          "name": "spender",
          "type": "address"
        },
        {
          "name": "value",
          "type": "uint256"
        }
      ],
      "name": "approve",
      "outputs": [
        {
          "name": "",
          "type": "bool"
        }
      ],
      "payable": false,
      "stateMutability": "nonpayable",
      "type": "function"
    },
    {
      "constant": false,
      "inputs": [
        {
          "name": "sender",
          "type": "address"
        },
        {
          "name": "recipient",
          "type": "address"
        },
        {
          "name": "amount",
          "type": "uint256"
        }
      ],
      "name": "transferFrom",
      "outputs": [
        {
          "name": "",
          "type": "bool"
        }
      ],
      "payable": false,
      "stateMutability": "nonpayable",
      "type": "function"
    },
    {
      "constant": false,
      "inputs": [
        {
          "name": "spender",
          "type": "address"
        },
        {
          "name": "addedValue",
          "type": "uint256"
        }
      ],
      "name": "increaseAllowance",
      "outputs": [
        {
          "name": "",
          "type": "bool"
        }
      ],
      "payable": false,
      "stateMutability": "nonpayable",
      "type": "function"
    },
    {
      "constant": false,
      "inputs": [
        {
          "name": "spender",
          "type": "address"
        },
        {
          "name": "subtractedValue",
          "type": "uint256"
        }
      ],
      "name": "decreaseAllowance",
      "outputs": [
        {
          "name": "",
          "type": "bool"
        }
      ],
      "payable": false,
      "stateMutability": "nonpayable",
      "type": "function"
    }
  ],
  "bytecode": "0x60806040523480156200001157600080fd5b5060405162001d9538038062001d95833981018060405260808110156200003757600080fd5b810190808051906020019092919080516401000000008111156200005a57600080fd5b828101905060208101848111156200007157600080fd5b81518560018202830111640100000000821117156200008f57600080fd5b5050929190602001805190602001909291908051640100000000811115620000b657600080fd5b82810190506020810184811115620000cd57600080fd5b8151856001820283011164010000000082111715620000eb57600080fd5b5050929190505050836000806101000a81548173ffffffffffffffffffffffffffffffffffffffff021916908373ffffffffffffffffffffffffffffffffffffffff16021790555082600190805190602001906200014b9291906200018a565b5081600260006101000a81548160ff021916908360ff16021790555080600390805190602001906200017f9291906200018a565b505050505062000239565b828054600181600116156101000203166002900490600052602060002090601f016020900481019282601f10620001cd57805160ff1916838001178555620001fe565b82800160010185558215620001fe579182015b82811115620001fd578251825591602001919060010190620001e0565b5b5090506200020d919062000211565b5090565b6200023691905b808211156200023257600081600090555060010162000218565b5090565b90565b611b4c80620002496000396000f3fe608060405234801561001057600080fd5b506004361061010b5760003560e01c80637ec2cdc6116100a2578063a9059cbb11610071578063a9059cbb14610552578063c513f66e146105b8578063dd62ed3e146105d6578063ebe86c131461064e578063fbde3aff146106985761010b565b80637ec2cdc6146103e557806395d89b41146104035780639dc29fac14610486578063a457c2d7146104ec5761010b565b8063313ce567116100de578063313ce5671461029d57806339509351146102c157806340c10f191461032757806370a082311461038d5761010b565b806306fdde0314610110578063095ea7b31461019357806318160ddd146101f957806323b872dd14610217575b600080fd5b6101186106b6565b6040518080602001828103825283818151815260200191508051906020019080838360005b8381101561015857808201518184015260208101905061013d565b50505050905090810190601f1680156101855780820380516001836020036101000a031916815260200191505b509250505060405180910390f35b6101df600480360360408110156101a957600080fd5b81019080803573ffffffffffffffffffffffffffffffffffffffff16906020019092919080359060200190929190505050610754565b604051808215151515815260200191505060405180910390f35b610201610772565b6040518082815260200191505060405180910390f35b6102836004803603606081101561022d57600080fd5b81019080803573ffffffffffffffffffffffffffffffffffffffff169060200190929190803573ffffffffffffffffffffffffffffffffffffffff1690602001909291908035906020019092919050505061077c565b604051808215151515815260200191505060405180910390f35b6102a5610855565b604051808260ff1660ff16815260200191505060405180910390f35b61030d600480360360408110156102d757600080fd5b81019080803573ffffffffffffffffffffffffffffffffffffffff16906020019092919080359060200190929190505050610868565b604051808215151515815260200191505060405180910390f35b6103736004803603604081101561033d57600080fd5b81019080803573ffffffffffffffffffffffffffffffffffffffff1690602001909291908035906020019092919050505061091b565b604051808215151515815260200191505060405180910390f35b6103cf600480360360208110156103a357600080fd5b81019080803573ffffffffffffffffffffffffffffffffffffffff169060200190929190505050610afd565b6040518082815260200191505060405180910390f35b6103ed610b46565b6040518082815260200191505060405180910390f35b61040b610b7f565b6040518080602001828103825283818151815260200191508051906020019080838360005b8381101561044b578082015181840152602081019050610430565b50505050905090810190601f1680156104785780820380516001836020036101000a031916815260200191505b509250505060405180910390f35b6104d26004803603604081101561049c57600080fd5b81019080803573ffffffffffffffffffffffffffffffffffffffff16906020019092919080359060200190929190505050610c1d565b604051808215151515815260200191505060405180910390f35b6105386004803603604081101561050257600080fd5b81019080803573ffffffffffffffffffffffffffffffffffffffff16906020019092919080359060200190929190505050610dff565b604051808215151515815260200191505060405180910390f35b61059e6004803603604081101561056857600080fd5b81019080803573ffffffffffffffffffffffffffffffffffffffff16906020019092919080359060200190929190505050610ecc565b604051808215151515815260200191505060405180910390f35b6105c0610eea565b6040518082815260200191505060405180910390f35b610638600480360360408110156105ec57600080fd5b81019080803573ffffffffffffffffffffffffffffffffffffffff169060200190929190803573ffffffffffffffffffffffffffffffffffffffff169060200190929190505050610f11565b6040518082815260200191505060405180910390f35b610656610f98565b604051808273ffffffffffffffffffffffffffffffffffffffff1673ffffffffffffffffffffffffffffffffffffffff16815260200191505060405180910390f35b6106a0610fbd565b6040518082815260200191505060405180910390f35b60018054600181600116156101000203166002900480601f01602080910402602001604051908101604052809291908181526020018280546001816001161561010002031660029004801561074c5780601f106107215761010080835404028352916020019161074c565b820191906000526020600020905b81548152906001019060200180831161072f57829003601f168201915b505050505081565b6000610768610761610ff6565b8484610ffe565b6001905092915050565b6000600454905090565b60006107898484846111f5565b61084a84610795610ff6565b61084585604051806060016040528060288152602001611a4660289139600660008b73ffffffffffffffffffffffffffffffffffffffff1673ffffffffffffffffffffffffffffffffffffffff16815260200190815260200160002060006107fb610ff6565b73ffffffffffffffffffffffffffffffffffffffff1673ffffffffffffffffffffffffffffffffffffffff168152602001908152602001600020546114af9092919063ffffffff16565b610ffe565b600190509392505050565b600260009054906101000a900460ff1681565b6000610911610875610ff6565b8461090c8560066000610886610ff6565b73ffffffffffffffffffffffffffffffffffffffff1673ffffffffffffffffffffffffffffffffffffffff16815260200190815260200160002060008973ffffffffffffffffffffffffffffffffffffffff1673ffffffffffffffffffffffffffffffffffffffff1681526020019081526020016000205461156f90919063ffffffff16565b610ffe565b6001905092915050565b600060405180807f46756e64506f6f6c5f4d696e7400000000000000000000000000000000000000815250600d01905060405180910390206000809054906101000a900473ffffffffffffffffffffffffffffffffffffffff1673ffffffffffffffffffffffffffffffffffffffff16634c5f07493330847f290decd9548b62a8d60345a988386fc84ba6bc95484008f6362f93160ef3e56360001b6040518563ffffffff1660e01b8152600401808573ffffffffffffffffffffffffffffffffffffffff1673ffffffffffffffffffffffffffffffffffffffff1681526020018473ffffffffffffffffffffffffffffffffffffffff1673ffffffffffffffffffffffffffffffffffffffff16815260200183815260200182815260200194505050505060206040518083038186803b158015610a5857600080fd5b505afa158015610a6c573d6000803e3d6000fd5b505050506040513d6020811015610a8257600080fd5b8101908080519060200190929190505050610ae8576040517f08c379a0000000000000000000000000000000000000000000000000000000008152600401808060200182810382526024815260200180611ab46024913960400191505060405180910390fd5b610af284846115f7565b600191505092915050565b6000600560008373ffffffffffffffffffffffffffffffffffffffff1673ffffffffffffffffffffffffffffffffffffffff168152602001908152602001600020549050919050565b60405180807f46756e64506f6f6c5f4d696e7400000000000000000000000000000000000000815250600d019050604051809103902081565b60038054600181600116156101000203166002900480601f016020809104026020016040519081016040528092919081815260200182805460018160011615610100020316600290048015610c155780601f10610bea57610100808354040283529160200191610c15565b820191906000526020600020905b815481529060010190602001808311610bf857829003601f168201915b505050505081565b600060405180807f46756e64506f6f6c5f4275726e00000000000000000000000000000000000000815250600d01905060405180910390206000809054906101000a900473ffffffffffffffffffffffffffffffffffffffff1673ffffffffffffffffffffffffffffffffffffffff16634c5f07493330847f290decd9548b62a8d60345a988386fc84ba6bc95484008f6362f93160ef3e56360001b6040518563ffffffff1660e01b8152600401808573ffffffffffffffffffffffffffffffffffffffff1673ffffffffffffffffffffffffffffffffffffffff1681526020018473ffffffffffffffffffffffffffffffffffffffff1673ffffffffffffffffffffffffffffffffffffffff16815260200183815260200182815260200194505050505060206040518083038186803b158015610d5a57600080fd5b505afa158015610d6e573d6000803e3d6000fd5b505050506040513d6020811015610d8457600080fd5b8101908080519060200190929190505050610dea576040517f08c379a0000000000000000000000000000000000000000000000000000000008152600401808060200182810382526024815260200180611ab46024913960400191505060405180910390fd5b610df484846117b4565b600191505092915050565b6000610ec2610e0c610ff6565b84610ebd85604051806060016040528060258152602001611afc6025913960066000610e36610ff6565b73ffffffffffffffffffffffffffffffffffffffff1673ffffffffffffffffffffffffffffffffffffffff16815260200190815260200160002060008a73ffffffffffffffffffffffffffffffffffffffff1673ffffffffffffffffffffffffffffffffffffffff168152602001908152602001600020546114af9092919063ffffffff16565b610ffe565b6001905092915050565b6000610ee0610ed9610ff6565b84846111f5565b6001905092915050565b7f290decd9548b62a8d60345a988386fc84ba6bc95484008f6362f93160ef3e56360001b81565b6000600660008473ffffffffffffffffffffffffffffffffffffffff1673ffffffffffffffffffffffffffffffffffffffff16815260200190815260200160002060008373ffffffffffffffffffffffffffffffffffffffff1673ffffffffffffffffffffffffffffffffffffffff16815260200190815260200160002054905092915050565b6000809054906101000a900473ffffffffffffffffffffffffffffffffffffffff1681565b60405180807f46756e64506f6f6c5f4275726e00000000000000000000000000000000000000815250600d019050604051809103902081565b600033905090565b600073ffffffffffffffffffffffffffffffffffffffff168373ffffffffffffffffffffffffffffffffffffffff161415611084576040517f08c379a0000000000000000000000000000000000000000000000000000000008152600401808060200182810382526024815260200180611ad86024913960400191505060405180910390fd5b600073ffffffffffffffffffffffffffffffffffffffff168273ffffffffffffffffffffffffffffffffffffffff16141561110a576040517f08c379a00000000000000000000000000000000000000000000000000000000081526004018080602001828103825260228152602001806119fe6022913960400191505060405180910390fd5b80600660008573ffffffffffffffffffffffffffffffffffffffff1673ffffffffffffffffffffffffffffffffffffffff16815260200190815260200160002060008473ffffffffffffffffffffffffffffffffffffffff1673ffffffffffffffffffffffffffffffffffffffff168152602001908152602001600020819055508173ffffffffffffffffffffffffffffffffffffffff168373ffffffffffffffffffffffffffffffffffffffff167f8c5be1e5ebec7d5bd14f71427d1e84f3dd0314c0f7b2291e5b200ac8c7c3b925836040518082815260200191505060405180910390a3505050565b600073ffffffffffffffffffffffffffffffffffffffff168373ffffffffffffffffffffffffffffffffffffffff16141561127b576040517f08c379a0000000000000000000000000000000000000000000000000000000008152600401808060200182810382526025815260200180611a8f6025913960400191505060405180910390fd5b600073ffffffffffffffffffffffffffffffffffffffff168273ffffffffffffffffffffffffffffffffffffffff161415611301576040517f08c379a00000000000000000000000000000000000000000000000000000000081526004018080602001828103825260238152602001806119b96023913960400191505060405180910390fd5b61136d81604051806060016040528060268152602001611a2060269139600560008773ffffffffffffffffffffffffffffffffffffffff1673ffffffffffffffffffffffffffffffffffffffff168152602001908152602001600020546114af9092919063ffffffff16565b600560008573ffffffffffffffffffffffffffffffffffffffff1673ffffffffffffffffffffffffffffffffffffffff1681526020019081526020016000208190555061140281600560008573ffffffffffffffffffffffffffffffffffffffff1673ffffffffffffffffffffffffffffffffffffffff1681526020019081526020016000205461156f90919063ffffffff16565b600560008473ffffffffffffffffffffffffffffffffffffffff1673ffffffffffffffffffffffffffffffffffffffff168152602001908152602001600020819055508173ffffffffffffffffffffffffffffffffffffffff168373ffffffffffffffffffffffffffffffffffffffff167fddf252ad1be2c89b69c2b068fc378daa952ba7f163c4a11628f55a4df523b3ef836040518082815260200191505060405180910390a3505050565b600083831115829061155c576040517f08c379a00000000000000000000000000000000000000000000000000000000081526004018080602001828103825283818151815260200191508051906020019080838360005b83811015611521578082015181840152602081019050611506565b50505050905090810190601f16801561154e5780820380516001836020036101000a031916815260200191505b509250505060405180910390fd5b5060008385039050809150509392505050565b6000808284019050838110156115ed576040517f08c379a000000000000000000000000000000000000000000000000000000000815260040180806020018281038252601b8152602001807f536166654d6174683a206164646974696f6e206f766572666c6f77000000000081525060200191505060405180910390fd5b8091505092915050565b600073ffffffffffffffffffffffffffffffffffffffff168273ffffffffffffffffffffffffffffffffffffffff16141561169a576040517f08c379a000000000000000000000000000000000000000000000000000000000815260040180806020018281038252601f8152602001807f45524332303a206d696e7420746f20746865207a65726f20616464726573730081525060200191505060405180910390fd5b6116af8160045461156f90919063ffffffff16565b60048190555061170781600560008573ffffffffffffffffffffffffffffffffffffffff1673ffffffffffffffffffffffffffffffffffffffff1681526020019081526020016000205461156f90919063ffffffff16565b600560008473ffffffffffffffffffffffffffffffffffffffff1673ffffffffffffffffffffffffffffffffffffffff168152602001908152602001600020819055508173ffffffffffffffffffffffffffffffffffffffff16600073ffffffffffffffffffffffffffffffffffffffff167fddf252ad1be2c89b69c2b068fc378daa952ba7f163c4a11628f55a4df523b3ef836040518082815260200191505060405180910390a35050565b600073ffffffffffffffffffffffffffffffffffffffff168273ffffffffffffffffffffffffffffffffffffffff16141561183a576040517f08c379a0000000000000000000000000000000000000000000000000000000008152600401808060200182810382526021815260200180611a6e6021913960400191505060405180910390fd5b6118a6816040518060600160405280602281526020016119dc60229139600560008673ffffffffffffffffffffffffffffffffffffffff1673ffffffffffffffffffffffffffffffffffffffff168152602001908152602001600020546114af9092919063ffffffff16565b600560008473ffffffffffffffffffffffffffffffffffffffff1673ffffffffffffffffffffffffffffffffffffffff168152602001908152602001600020819055506118fe8160045461196e90919063ffffffff16565b600481905550600073ffffffffffffffffffffffffffffffffffffffff168273ffffffffffffffffffffffffffffffffffffffff167fddf252ad1be2c89b69c2b068fc378daa952ba7f163c4a11628f55a4df523b3ef836040518082815260200191505060405180910390a35050565b60006119b083836040518060400160405280601e81526020017f536166654d6174683a207375627472616374696f6e206f766572666c6f7700008152506114af565b90509291505056fe45524332303a207472616e7366657220746f20746865207a65726f206164647265737345524332303a206275726e20616d6f756e7420657863656564732062616c616e636545524332303a20617070726f766520746f20746865207a65726f206164647265737345524332303a207472616e7366657220616d6f756e7420657863656564732062616c616e636545524332303a207472616e7366657220616d6f756e74206578636565647320616c6c6f77616e636545524332303a206275726e2066726f6d20746865207a65726f206164647265737345524332303a207472616e736665722066726f6d20746865207a65726f20616464726573734e6f207065726d697373696f6e20746f20696e766f6b652074686520636f6e747261637445524332303a20617070726f76652066726f6d20746865207a65726f206164647265737345524332303a2064656372656173656420616c6c6f77616e63652062656c6f77207a65726fa165627a7a72305820ef0d8882ada0d52bc110f190f183c841aa25d1f5ca9577e05f6f3ef0a0580a8d0029",
  "source": "pragma solidity >=0.4.22 <0.6.0;\r\n\r\nimport \"../Interface/IERC20.sol\";\r\nimport \"../lib/SafeMath.sol\";\r\nimport \"../lib/Context.sol\";\r\nimport \"../apps/FutureDaoApp.sol\";\r\n\r\ncontract FdToken is IERC20 , Context , FutureDaoApp{\r\n    using SafeMath for uint256;\r\n\r\n    string public name;\r\n    uint8 public decimals;\r\n    string public symbol;\r\n\r\n    uint256 private _totalSupply;\r\n    mapping (address => uint256) private _balances;\r\n    mapping (address => mapping (address => uint256)) private _allowances;\r\n\r\n    //////////////\r\n    ///auth\r\n    //////////////\r\n    bytes32 public constant FdToken_Mint = keccak256(\"FundPool_Mint\");\r\n    bytes32 public constant FdToken_Burn = keccak256(\"FundPool_Burn\");\r\n\r\n    constructor(AppManager _appManager,string memory _name,uint8 _decimals,string memory _symbol) public {\r\n        appManager = _appManager;\r\n        name = _name;\r\n        decimals = _decimals;\r\n        symbol = _symbol;\r\n    }\r\n\r\n    ///////////////\r\n    //ERC20 Methods\r\n    ///////////////\r\n\r\n    /**\r\n     * @dev See {IERC20-totalSupply}.\r\n     */\r\n    function totalSupply() public view returns (uint256) {\r\n        return _totalSupply;\r\n    }\r\n\r\n    /**\r\n     * @dev See {IERC20-balanceOf}.\r\n     */\r\n    function balanceOf(address account) public view returns (uint256) {\r\n        return _balances[account];\r\n    }\r\n\r\n    function mint(address account,uint256 amount) public auth(FdToken_Mint) returns (bool){\r\n        _mint(account,amount);\r\n        return true;\r\n    }\r\n\r\n    function burn(address account,uint256 amount) public auth(FdToken_Burn) returns (bool){\r\n        _burn(account,amount);\r\n        return true;\r\n    }\r\n\r\n    /**\r\n     * @dev See {IERC20-transfer}.\r\n     *\r\n     * Requirements:\r\n     *\r\n     * - `recipient` cannot be the zero address.\r\n     * - the caller must have a balance of at least `amount`.\r\n     */\r\n    function transfer(address recipient, uint256 amount) public returns (bool) {\r\n        _transfer(_msgSender(), recipient, amount);\r\n        return true;\r\n    }\r\n\r\n    /**\r\n     * @dev See {IERC20-allowance}.\r\n     */\r\n    function allowance(address owner, address spender) public view returns (uint256) {\r\n        return _allowances[owner][spender];\r\n    }\r\n\r\n    /**\r\n     * @dev See {IERC20-approve}.\r\n     *\r\n     * Requirements:\r\n     *\r\n     * - `spender` cannot be the zero address.\r\n     */\r\n    function approve(address spender, uint256 value) public returns (bool) {\r\n        _approve(_msgSender(), spender, value);\r\n        return true;\r\n    }\r\n\r\n    /**\r\n     * @dev See {IERC20-transferFrom}.\r\n     *\r\n     * Emits an {Approval} event indicating the updated allowance. This is not\r\n     * required by the EIP. See the note at the beginning of {ERC20};\r\n     *\r\n     * Requirements:\r\n     * - `sender` and `recipient` cannot be the zero address.\r\n     * - `sender` must have a balance of at least `value`.\r\n     * - the caller must have allowance for `sender`'s tokens of at least\r\n     * `amount`.\r\n     */\r\n    function transferFrom(address sender, address recipient, uint256 amount) public returns (bool) {\r\n        _transfer(sender, recipient, amount);\r\n        _approve(sender, _msgSender(), _allowances[sender][_msgSender()].sub(amount, \"ERC20: transfer amount exceeds allowance\"));\r\n        return true;\r\n    }\r\n\r\n    /**\r\n     * @dev Atomically increases the allowance granted to `spender` by the caller.\r\n     *\r\n     * This is an alternative to {approve} that can be used as a mitigation for\r\n     * problems described in {IERC20-approve}.\r\n     *\r\n     * Emits an {Approval} event indicating the updated allowance.\r\n     *\r\n     * Requirements:\r\n     *\r\n     * - `spender` cannot be the zero address.\r\n     */\r\n    function increaseAllowance(address spender, uint256 addedValue) public returns (bool) {\r\n        _approve(_msgSender(), spender, _allowances[_msgSender()][spender].add(addedValue));\r\n        return true;\r\n    }\r\n\r\n    /**\r\n     * @dev Atomically decreases the allowance granted to `spender` by the caller.\r\n     *\r\n     * This is an alternative to {approve} that can be used as a mitigation for\r\n     * problems described in {IERC20-approve}.\r\n     *\r\n     * Emits an {Approval} event indicating the updated allowance.\r\n     *\r\n     * Requirements:\r\n     *\r\n     * - `spender` cannot be the zero address.\r\n     * - `spender` must have allowance for the caller of at least\r\n     * `subtractedValue`.\r\n     */\r\n    function decreaseAllowance(address spender, uint256 subtractedValue) public returns (bool) {\r\n        _approve(_msgSender(), spender, _allowances[_msgSender()][spender].sub(subtractedValue, \"ERC20: decreased allowance below zero\"));\r\n        return true;\r\n    }\r\n\r\n    /**\r\n     * @dev Moves tokens `amount` from `sender` to `recipient`.\r\n     *\r\n     * This is internal function is equivalent to {transfer}, and can be used to\r\n     * e.g. implement automatic token fees, slashing mechanisms, etc.\r\n     *\r\n     * Emits a {Transfer} event.\r\n     *\r\n     * Requirements:\r\n     *\r\n     * - `sender` cannot be the zero address.\r\n     * - `recipient` cannot be the zero address.\r\n     * - `sender` must have a balance of at least `amount`.\r\n     */\r\n    function _transfer(address sender, address recipient, uint256 amount) internal {\r\n        require(sender != address(0), \"ERC20: transfer from the zero address\");\r\n        require(recipient != address(0), \"ERC20: transfer to the zero address\");\r\n\r\n        _balances[sender] = _balances[sender].sub(amount, \"ERC20: transfer amount exceeds balance\");\r\n        _balances[recipient] = _balances[recipient].add(amount);\r\n        emit Transfer(sender, recipient, amount);\r\n    }\r\n\r\n    /** @dev Creates `amount` tokens and assigns them to `account`, increasing\r\n     * the total supply.\r\n     *\r\n     * Emits a {Transfer} event with `from` set to the zero address.\r\n     *\r\n     * Requirements\r\n     *\r\n     * - `to` cannot be the zero address.\r\n     */\r\n    function _mint(address account, uint256 amount) internal {\r\n        require(account != address(0), \"ERC20: mint to the zero address\");\r\n\r\n        _totalSupply = _totalSupply.add(amount);\r\n        _balances[account] = _balances[account].add(amount);\r\n        emit Transfer(address(0), account, amount);\r\n    }\r\n\r\n    /**\r\n     * @dev Destroys `amount` tokens from `account`, reducing the\r\n     * total supply.\r\n     *\r\n     * Emits a {Transfer} event with `to` set to the zero address.\r\n     *\r\n     * Requirements\r\n     *\r\n     * - `account` cannot be the zero address.\r\n     * - `account` must have at least `amount` tokens.\r\n     */\r\n    function _burn(address account, uint256 value) internal {\r\n        require(account != address(0), \"ERC20: burn from the zero address\");\r\n\r\n        _balances[account] = _balances[account].sub(value, \"ERC20: burn amount exceeds balance\");\r\n        _totalSupply = _totalSupply.sub(value);\r\n        emit Transfer(account, address(0), value);\r\n    }\r\n\r\n    /**\r\n     * @dev Sets `amount` as the allowance of `spender` over the `owner`s tokens.\r\n     *\r\n     * This is internal function is equivalent to `approve`, and can be used to\r\n     * e.g. set automatic allowances for certain subsystems, etc.\r\n     *\r\n     * Emits an {Approval} event.\r\n     *\r\n     * Requirements:\r\n     *\r\n     * - `owner` cannot be the zero address.\r\n     * - `spender` cannot be the zero address.\r\n     */\r\n    function _approve(address owner, address spender, uint256 value) internal {\r\n        require(owner != address(0), \"ERC20: approve from the zero address\");\r\n        require(spender != address(0), \"ERC20: approve to the zero address\");\r\n\r\n        _allowances[owner][spender] = value;\r\n        emit Approval(owner, spender, value);\r\n    }\r\n\r\n    /**\r\n     * @dev Destroys `amount` tokens from `account`.`amount` is then deducted\r\n     * from the caller's allowance.\r\n     *\r\n     * See {_burn} and {_approve}.\r\n     */\r\n    function _burnFrom(address account, uint256 amount) internal {\r\n        _burn(account, amount);\r\n        _approve(account, _msgSender(), _allowances[account][_msgSender()].sub(amount, \"ERC20: burn amount exceeds allowance\"));\r\n    }\r\n}",
  "sourcePath": "D:/_______work/FD_Contract_ETH/fd/contracts/Token/FdToken.sol",
  "compiler": {
    "name": "solc",
    "version": "0.5.8+commit.23d335f2.Emscripten.clang"
  },
  "schemaVersion": "3.0.11",
  "updatedAt": "2019-08-27T10:27:32.975Z",
  "devdoc": {
    "methods": {
      "allowance(address,address)": {
        "details": "See {IERC20-allowance}.\r"
      },
      "approve(address,uint256)": {
        "details": "See {IERC20-approve}.\r      * Requirements:\r      * - `spender` cannot be the zero address.\r"
      },
      "balanceOf(address)": {
        "details": "See {IERC20-balanceOf}.\r"
      },
      "decreaseAllowance(address,uint256)": {
        "details": "Atomically decreases the allowance granted to `spender` by the caller.\r      * This is an alternative to {approve} that can be used as a mitigation for\r problems described in {IERC20-approve}.\r      * Emits an {Approval} event indicating the updated allowance.\r      * Requirements:\r      * - `spender` cannot be the zero address.\r - `spender` must have allowance for the caller of at least\r `subtractedValue`.\r"
      },
      "increaseAllowance(address,uint256)": {
        "details": "Atomically increases the allowance granted to `spender` by the caller.\r      * This is an alternative to {approve} that can be used as a mitigation for\r problems described in {IERC20-approve}.\r      * Emits an {Approval} event indicating the updated allowance.\r      * Requirements:\r      * - `spender` cannot be the zero address.\r"
      },
      "totalSupply()": {
        "details": "See {IERC20-totalSupply}.\r"
      },
      "transfer(address,uint256)": {
        "details": "See {IERC20-transfer}.\r      * Requirements:\r      * - `recipient` cannot be the zero address.\r - the caller must have a balance of at least `amount`.\r"
      },
      "transferFrom(address,address,uint256)": {
        "details": "See {IERC20-transferFrom}.\r      * Emits an {Approval} event indicating the updated allowance. This is not\r required by the EIP. See the note at the beginning of {ERC20};\r      * Requirements:\r - `sender` and `recipient` cannot be the zero address.\r - `sender` must have a balance of at least `value`.\r - the caller must have allowance for `sender`'s tokens of at least\r `amount`.\r"
      }
    }
  },
  "userdoc": {
    "methods": {}
  }
}