{
  "contractName": "FundPool",
  "abi": [
    {
      "constant": true,
      "inputs": [],
      "name": "during_crowdfunding",
      "outputs": [
        {
          "name": "",
          "type": "bool"
        }
      ],
      "payable": false,
      "stateMutability": "view",
      "type": "function"
    },
    {
      "constant": true,
      "inputs": [],
      "name": "totalSupply",
      "outputs": [
        {
          "name": "",
          "type": "uint256"
        }
      ],
      "payable": false,
      "stateMutability": "view",
      "type": "function"
    },
    {
      "constant": true,
      "inputs": [
        {
          "name": "",
          "type": "uint256"
        },
        {
          "name": "",
          "type": "address"
        }
      ],
      "name": "lock_balances",
      "outputs": [
        {
          "name": "",
          "type": "uint256"
        }
      ],
      "payable": false,
      "stateMutability": "view",
      "type": "function"
    },
    {
      "constant": true,
      "inputs": [],
      "name": "started",
      "outputs": [
        {
          "name": "",
          "type": "bool"
        }
      ],
      "payable": false,
      "stateMutability": "view",
      "type": "function"
    },
    {
      "constant": true,
      "inputs": [],
      "name": "totalSendToVote",
      "outputs": [
        {
          "name": "",
          "type": "uint256"
        }
      ],
      "payable": false,
      "stateMutability": "view",
      "type": "function"
    },
    {
      "constant": true,
      "inputs": [
        {
          "name": "",
          "type": "address"
        }
      ],
      "name": "balances",
      "outputs": [
        {
          "name": "",
          "type": "uint256"
        }
      ],
      "payable": false,
      "stateMutability": "view",
      "type": "function"
    },
    {
      "constant": true,
      "inputs": [],
      "name": "sellReserve",
      "outputs": [
        {
          "name": "",
          "type": "uint256"
        }
      ],
      "payable": false,
      "stateMutability": "view",
      "type": "function"
    },
    {
      "constant": true,
      "inputs": [],
      "name": "crowdFundStartTime",
      "outputs": [
        {
          "name": "",
          "type": "uint256"
        }
      ],
      "payable": false,
      "stateMutability": "view",
      "type": "function"
    },
    {
      "constant": true,
      "inputs": [],
      "name": "vote",
      "outputs": [
        {
          "name": "",
          "type": "address"
        }
      ],
      "payable": false,
      "stateMutability": "view",
      "type": "function"
    },
    {
      "constant": true,
      "inputs": [],
      "name": "slope",
      "outputs": [
        {
          "name": "",
          "type": "uint256"
        }
      ],
      "payable": false,
      "stateMutability": "view",
      "type": "function"
    },
    {
      "constant": true,
      "inputs": [],
      "name": "owner",
      "outputs": [
        {
          "name": "",
          "type": "address"
        }
      ],
      "payable": false,
      "stateMutability": "view",
      "type": "function"
    },
    {
      "constant": true,
      "inputs": [],
      "name": "beta",
      "outputs": [
        {
          "name": "",
          "type": "uint256"
        }
      ],
      "payable": false,
      "stateMutability": "view",
      "type": "function"
    },
    {
      "constant": true,
      "inputs": [],
      "name": "crowdFundPrice",
      "outputs": [
        {
          "name": "",
          "type": "uint256"
        }
      ],
      "payable": false,
      "stateMutability": "view",
      "type": "function"
    },
    {
      "constant": true,
      "inputs": [],
      "name": "crowdFundMoney",
      "outputs": [
        {
          "name": "",
          "type": "uint256"
        }
      ],
      "payable": false,
      "stateMutability": "view",
      "type": "function"
    },
    {
      "constant": true,
      "inputs": [],
      "name": "alpha",
      "outputs": [
        {
          "name": "",
          "type": "uint256"
        }
      ],
      "payable": false,
      "stateMutability": "view",
      "type": "function"
    },
    {
      "constant": true,
      "inputs": [
        {
          "name": "",
          "type": "address"
        }
      ],
      "name": "crowdFundingEth",
      "outputs": [
        {
          "name": "",
          "type": "uint256"
        }
      ],
      "payable": false,
      "stateMutability": "view",
      "type": "function"
    },
    {
      "constant": true,
      "inputs": [],
      "name": "crowdFundDuringTime",
      "outputs": [
        {
          "name": "",
          "type": "uint256"
        }
      ],
      "payable": false,
      "stateMutability": "view",
      "type": "function"
    },
    {
      "inputs": [
        {
          "name": "_duringTime",
          "type": "uint256"
        },
        {
          "name": "_money",
          "type": "uint256"
        },
        {
          "name": "_slope",
          "type": "uint256"
        },
        {
          "name": "_alpha",
          "type": "uint256"
        },
        {
          "name": "_beta",
          "type": "uint256"
        }
      ],
      "payable": false,
      "stateMutability": "nonpayable",
      "type": "constructor"
    },
    {
      "anonymous": false,
      "inputs": [
        {
          "indexed": false,
          "name": "who",
          "type": "address"
        },
        {
          "indexed": false,
          "name": "ethAmount",
          "type": "uint256"
        },
        {
          "indexed": false,
          "name": "nfdAmount",
          "type": "uint256"
        }
      ],
      "name": "OnBuy",
      "type": "event"
    },
    {
      "anonymous": false,
      "inputs": [
        {
          "indexed": false,
          "name": "who",
          "type": "address"
        },
        {
          "indexed": false,
          "name": "ethAmount",
          "type": "uint256"
        },
        {
          "indexed": false,
          "name": "nfdAmount",
          "type": "uint256"
        }
      ],
      "name": "OnSell",
      "type": "event"
    },
    {
      "anonymous": false,
      "inputs": [
        {
          "indexed": false,
          "name": "who",
          "type": "address"
        },
        {
          "indexed": false,
          "name": "ethAmount",
          "type": "uint256"
        },
        {
          "indexed": false,
          "name": "nfdAmount",
          "type": "uint256"
        }
      ],
      "name": "OnRevenue",
      "type": "event"
    },
    {
      "anonymous": false,
      "inputs": [
        {
          "indexed": false,
          "name": "who",
          "type": "address"
        },
        {
          "indexed": false,
          "name": "ethAmount",
          "type": "uint256"
        }
      ],
      "name": "OnWindingUp",
      "type": "event"
    },
    {
      "anonymous": false,
      "inputs": [
        {
          "indexed": false,
          "name": "who",
          "type": "address"
        },
        {
          "indexed": false,
          "name": "nfdAmount",
          "type": "uint256"
        }
      ],
      "name": "OnPreMint",
      "type": "event"
    },
    {
      "constant": false,
      "inputs": [
        {
          "name": "_vote",
          "type": "address"
        }
      ],
      "name": "unsafe_setVote",
      "outputs": [],
      "payable": false,
      "stateMutability": "nonpayable",
      "type": "function"
    },
    {
      "constant": true,
      "inputs": [],
      "name": "getVoteContract",
      "outputs": [
        {
          "name": "",
          "type": "address"
        }
      ],
      "payable": false,
      "stateMutability": "view",
      "type": "function"
    },
    {
      "constant": false,
      "inputs": [],
      "name": "start",
      "outputs": [],
      "payable": false,
      "stateMutability": "nonpayable",
      "type": "function"
    },
    {
      "constant": false,
      "inputs": [
        {
          "name": "who",
          "type": "address"
        },
        {
          "name": "amount",
          "type": "uint256"
        }
      ],
      "name": "preMint",
      "outputs": [],
      "payable": false,
      "stateMutability": "nonpayable",
      "type": "function"
    },
    {
      "constant": false,
      "inputs": [
        {
          "name": "_slope",
          "type": "uint256"
        }
      ],
      "name": "setSlope",
      "outputs": [],
      "payable": false,
      "stateMutability": "nonpayable",
      "type": "function"
    },
    {
      "constant": false,
      "inputs": [
        {
          "name": "_alpha",
          "type": "uint256"
        }
      ],
      "name": "setAlpha",
      "outputs": [],
      "payable": false,
      "stateMutability": "nonpayable",
      "type": "function"
    },
    {
      "constant": false,
      "inputs": [
        {
          "name": "_beta",
          "type": "uint256"
        }
      ],
      "name": "setBeta",
      "outputs": [],
      "payable": false,
      "stateMutability": "nonpayable",
      "type": "function"
    },
    {
      "constant": false,
      "inputs": [
        {
          "name": "_addr",
          "type": "address"
        }
      ],
      "name": "reinstallOwner",
      "outputs": [
        {
          "name": "",
          "type": "bool"
        }
      ],
      "payable": false,
      "stateMutability": "nonpayable",
      "type": "function"
    },
    {
      "constant": false,
      "inputs": [],
      "name": "windingUp",
      "outputs": [],
      "payable": false,
      "stateMutability": "nonpayable",
      "type": "function"
    },
    {
      "constant": false,
      "inputs": [
        {
          "name": "needBack",
          "type": "bool"
        }
      ],
      "name": "crowdfunding",
      "outputs": [],
      "payable": true,
      "stateMutability": "payable",
      "type": "function"
    },
    {
      "constant": false,
      "inputs": [],
      "name": "buy",
      "outputs": [],
      "payable": true,
      "stateMutability": "payable",
      "type": "function"
    },
    {
      "constant": false,
      "inputs": [
        {
          "name": "amount",
          "type": "uint256"
        }
      ],
      "name": "sell",
      "outputs": [],
      "payable": false,
      "stateMutability": "nonpayable",
      "type": "function"
    },
    {
      "constant": false,
      "inputs": [
        {
          "name": "to",
          "type": "address"
        },
        {
          "name": "amount",
          "type": "uint256"
        }
      ],
      "name": "transfer",
      "outputs": [],
      "payable": true,
      "stateMutability": "payable",
      "type": "function"
    },
    {
      "constant": false,
      "inputs": [],
      "name": "revenue",
      "outputs": [],
      "payable": true,
      "stateMutability": "payable",
      "type": "function"
    },
    {
      "constant": false,
      "inputs": [
        {
          "name": "who",
          "type": "address"
        },
        {
          "name": "clearingProposalIndex",
          "type": "uint256"
        }
      ],
      "name": "unsafe_lockFnd",
      "outputs": [
        {
          "name": "",
          "type": "bool"
        }
      ],
      "payable": false,
      "stateMutability": "nonpayable",
      "type": "function"
    },
    {
      "constant": false,
      "inputs": [
        {
          "name": "who",
          "type": "address"
        },
        {
          "name": "clearingProposalIndex",
          "type": "uint256"
        }
      ],
      "name": "unsafe_unLockFnd",
      "outputs": [
        {
          "name": "",
          "type": "bool"
        }
      ],
      "payable": false,
      "stateMutability": "nonpayable",
      "type": "function"
    },
    {
      "constant": false,
      "inputs": [
        {
          "name": "clearingShares",
          "type": "uint256"
        },
        {
          "name": "clearingProposalIndex",
          "type": "uint256"
        }
      ],
      "name": "unsafe_clearing",
      "outputs": [
        {
          "name": "",
          "type": "bool"
        }
      ],
      "payable": false,
      "stateMutability": "nonpayable",
      "type": "function"
    },
    {
      "constant": false,
      "inputs": [
        {
          "name": "who",
          "type": "address"
        },
        {
          "name": "clearingProposalIndex",
          "type": "uint256"
        }
      ],
      "name": "unsafe_getClearingValue",
      "outputs": [],
      "payable": false,
      "stateMutability": "nonpayable",
      "type": "function"
    }
  ],
  "bytecode": "0x60806040526001600760006101000a81548160ff02191690831515021790555060006008556000600960146101000a81548160ff0219169083151502179055506000600a556000600b553480156200005657600080fd5b5060405160a08062003633833981018060405260a08110156200007857600080fd5b81019080805190602001909291908051906020019092919080519060200190929190805190602001909291908051906020019092919050505033600960006101000a81548173ffffffffffffffffffffffffffffffffffffffff021916908373ffffffffffffffffffffffffffffffffffffffff1602179055506000851162000169576040517f08c379a00000000000000000000000000000000000000000000000000000000081526004018080602001828103825260158152602001807f64206e6565642067726561746572207468616e2030000000000000000000000081525060200191505060405180910390fd5b60008411620001e0576040517f08c379a00000000000000000000000000000000000000000000000000000000081526004018080602001828103825260158152602001807f6d206e6565642067726561746572207468616e2030000000000000000000000081525060200191505060405180910390fd5b6000831162000257576040517f08c379a00000000000000000000000000000000000000000000000000000000081526004018080602001828103825260158152602001807f73206e6565642067726561746572207468616e2030000000000000000000000081525060200191505060405180910390fd5b60008211620002ce576040517f08c379a00000000000000000000000000000000000000000000000000000000081526004018080602001828103825260158152602001807f61206e6565642067726561746572207468616e2030000000000000000000000081525060200191505060405180910390fd5b6000811162000345576040517f08c379a00000000000000000000000000000000000000000000000000000000081526004018080602001828103825260158152602001807f62206e6565642067726561746572207468616e2030000000000000000000000081525060200191505060405180910390fd5b846004819055508360058190555042600681905550826000819055508160018190555080600281905550600262000393846103e88760020202816200038657fe5b04620003ad60201b60201c565b816200039b57fe5b046003819055505050505050620003fd565b60008060026001840181620003be57fe5b04905060008390505b80821015620003f357819050600282838681620003e057fe5b040181620003ea57fe5b049150620003c7565b8092505050919050565b613226806200040d6000396000f3fe6080604052600436106102045760003560e01c80638da5cb5b11610118578063cf59a23c116100a0578063e764ed2e1161006f578063e764ed2e1461092f578063e82a44cc146109a2578063f480fb6b14610a0b578063f894000014610a70578063facd49a914610a8757610204565b8063cf59a23c14610833578063d3a0b8101461088e578063db1d0fd5146108c9578063e4849b32146108f457610204565b8063a6f2ae3a116100e7578063a6f2ae3a14610748578063a9059cbb14610752578063b0e8fc75146107a0578063be9a6555146107cb578063c6eeebf6146107e257610204565b80638da5cb5b146106285780639faa3c911461067f578063a218dca0146106aa578063a545e8bd146106d557610204565b80633aee10881161019b5780634c2f050f1161016a5780634c2f050f14610510578063569e3e02146105405780636172bed41461057b578063632a9a52146105a657806383caf275146105fd57610204565b80633aee1088146104275780633d00e61b1461047e5780633e9491a2146104a957806340d67fba146104b357610204565b80631f2698ab116101d75780631f2698ab1461030d5780632710c0c41461033c57806327e235e314610367578063290c292d146103cc57610204565b806302528101146102095780630c17d42c1461023857806318160ddd146102735780631cfdca6b1461029e575b600080fd5b34801561021557600080fd5b5061021e610ab2565b604051808215151515815260200191505060405180910390f35b34801561024457600080fd5b506102716004803603602081101561025b57600080fd5b8101908080359060200190929190505050610ac5565b005b34801561027f57600080fd5b50610288610b92565b6040518082815260200191505060405180910390f35b3480156102aa57600080fd5b506102f7600480360360408110156102c157600080fd5b8101908080359060200190929190803573ffffffffffffffffffffffffffffffffffffffff169060200190929190505050610b98565b6040518082815260200191505060405180910390f35b34801561031957600080fd5b50610322610bbd565b604051808215151515815260200191505060405180910390f35b34801561034857600080fd5b50610351610bd0565b6040518082815260200191505060405180910390f35b34801561037357600080fd5b506103b66004803603602081101561038a57600080fd5b81019080803573ffffffffffffffffffffffffffffffffffffffff169060200190929190505050610bd6565b6040518082815260200191505060405180910390f35b3480156103d857600080fd5b50610425600480360360408110156103ef57600080fd5b81019080803573ffffffffffffffffffffffffffffffffffffffff16906020019092919080359060200190929190505050610bee565b005b34801561043357600080fd5b5061043c610e06565b604051808273ffffffffffffffffffffffffffffffffffffffff1673ffffffffffffffffffffffffffffffffffffffff16815260200191505060405180910390f35b34801561048a57600080fd5b50610493610e30565b6040518082815260200191505060405180910390f35b6104b1610e36565b005b3480156104bf57600080fd5b506104f6600480360360408110156104d657600080fd5b810190808035906020019092919080359060200190929190505050611092565b604051808215151515815260200191505060405180910390f35b61053e6004803603602081101561052657600080fd5b810190808035151590602001909291905050506111c3565b005b34801561054c57600080fd5b506105796004803603602081101561056357600080fd5b8101908080359060200190929190505050611880565b005b34801561058757600080fd5b5061059061194d565b6040518082815260200191505060405180910390f35b3480156105b257600080fd5b506105bb611953565b604051808273ffffffffffffffffffffffffffffffffffffffff1673ffffffffffffffffffffffffffffffffffffffff16815260200191505060405180910390f35b34801561060957600080fd5b50610612611979565b6040518082815260200191505060405180910390f35b34801561063457600080fd5b5061063d61197f565b604051808273ffffffffffffffffffffffffffffffffffffffff1673ffffffffffffffffffffffffffffffffffffffff16815260200191505060405180910390f35b34801561068b57600080fd5b506106946119a5565b6040518082815260200191505060405180910390f35b3480156106b657600080fd5b506106bf6119ab565b6040518082815260200191505060405180910390f35b3480156106e157600080fd5b5061072e600480360360408110156106f857600080fd5b81019080803573ffffffffffffffffffffffffffffffffffffffff169060200190929190803590602001909291905050506119b1565b604051808215151515815260200191505060405180910390f35b610750611c39565b005b61079e6004803603604081101561076857600080fd5b81019080803573ffffffffffffffffffffffffffffffffffffffff16906020019092919080359060200190929190505050611f6e565b005b3480156107ac57600080fd5b506107b56122cf565b6040518082815260200191505060405180910390f35b3480156107d757600080fd5b506107e06122d5565b005b3480156107ee57600080fd5b506108316004803603602081101561080557600080fd5b81019080803573ffffffffffffffffffffffffffffffffffffffff1690602001909291905050506123b5565b005b34801561083f57600080fd5b5061088c6004803603604081101561085657600080fd5b81019080803573ffffffffffffffffffffffffffffffffffffffff169060200190929190803590602001909291905050506124bd565b005b34801561089a57600080fd5b506108c7600480360360208110156108b157600080fd5b8101908080359060200190929190505050612663565b005b3480156108d557600080fd5b506108de612730565b6040518082815260200191505060405180910390f35b34801561090057600080fd5b5061092d6004803603602081101561091757600080fd5b8101908080359060200190929190505050612736565b005b34801561093b57600080fd5b506109886004803603604081101561095257600080fd5b81019080803573ffffffffffffffffffffffffffffffffffffffff16906020019092919080359060200190929190505050612b0d565b604051808215151515815260200191505060405180910390f35b3480156109ae57600080fd5b506109f1600480360360208110156109c557600080fd5b81019080803573ffffffffffffffffffffffffffffffffffffffff169060200190929190505050612d73565b604051808215151515815260200191505060405180910390f35b348015610a1757600080fd5b50610a5a60048036036020811015610a2e57600080fd5b81019080803573ffffffffffffffffffffffffffffffffffffffff169060200190929190505050612dbf565b6040518082815260200191505060405180910390f35b348015610a7c57600080fd5b50610a85612dd7565b005b348015610a9357600080fd5b50610a9c61313a565b6040518082815260200191505060405180910390f35b600760009054906101000a900460ff1681565b3373ffffffffffffffffffffffffffffffffffffffff16600960009054906101000a900473ffffffffffffffffffffffffffffffffffffffff1673ffffffffffffffffffffffffffffffffffffffff1614610b88576040517f08c379a00000000000000000000000000000000000000000000000000000000081526004018080602001828103825260118152602001807f6c696d6974656420617574686f7269747900000000000000000000000000000081525060200191505060405180910390fd5b8060018190555050565b60085481565b600f602052816000526040600020602052806000526040600020600091509150505481565b600960149054906101000a900460ff1681565b600b5481565b600e6020528060005260406000206000915090505481565b3373ffffffffffffffffffffffffffffffffffffffff16600960009054906101000a900473ffffffffffffffffffffffffffffffffffffffff1673ffffffffffffffffffffffffffffffffffffffff1614610cb1576040517f08c379a00000000000000000000000000000000000000000000000000000000081526004018080602001828103825260118152602001807f6c696d6974656420617574686f7269747900000000000000000000000000000081525060200191505060405180910390fd5b60001515600960149054906101000a900460ff16151514610d3a576040517f08c379a000000000000000000000000000000000000000000000000000000000815260040180806020018281038252600a8152602001807f63616e742073746172740000000000000000000000000000000000000000000081525060200191505060405180910390fd5b80600e60008473ffffffffffffffffffffffffffffffffffffffff1673ffffffffffffffffffffffffffffffffffffffff16815260200190815260200160002060008282540192505081905550806008600082825401925050819055507f110265d47e73c0ea495431be9532a2a79900da75f522a9e930b4156688cc9b8a8282604051808373ffffffffffffffffffffffffffffffffffffffff1673ffffffffffffffffffffffffffffffffffffffff1681526020018281526020019250505060405180910390a15050565b6000600c60009054906101000a900473ffffffffffffffffffffffffffffffffffffffff16905090565b600a5481565b60011515600960149054906101000a900460ff16151514610ebf576040517f08c379a000000000000000000000000000000000000000000000000000000000815260040180806020018281038252600a8152602001807f6e6565642073746172740000000000000000000000000000000000000000000081525060200191505060405180910390fd5b60003411610f35576040517f08c379a00000000000000000000000000000000000000000000000000000000081526004018080602001828103825260118152602001807f76616c7565206e656564206d6f7265203000000000000000000000000000000081525060200191505060405180910390fd5b60003490506000600854610f62600854600854026000546103e8866002020281610f5b57fe5b0401613140565b039050806008600082825401925050819055508160025402600a600082825401925050819055506000826002546103e80302905080600b60008282540192505081905550600c60009054906101000a900473ffffffffffffffffffffffffffffffffffffffff1673ffffffffffffffffffffffffffffffffffffffff166108fc6103e88381610fed57fe5b049081150290604051600060405180830381858888f19350505050158015611019573d6000803e3d6000fd5b507f587d8691a200e665a44579c740fc329381fab263cea1235d8104b66d4cd8235c333484604051808473ffffffffffffffffffffffffffffffffffffffff1673ffffffffffffffffffffffffffffffffffffffff168152602001838152602001828152602001935050505060405180910390a1505050565b6000600c60009054906101000a900473ffffffffffffffffffffffffffffffffffffffff1673ffffffffffffffffffffffffffffffffffffffff163373ffffffffffffffffffffffffffffffffffffffff1614611157576040517f08c379a000000000000000000000000000000000000000000000000000000000815260040180806020018281038252601e8152602001807f73656e6465722073686f756c6420626520766f746520636f6e7472616374000081525060200191505060405180910390fd5b826011600084815260200190815260200160002081905550600854600a5484028161117e57fe5b0460106000848152602001908152602001600020819055506010600083815260200190815260200160002054600a600082825403925050819055506001905092915050565b60011515600960149054906101000a900460ff1615151461124c576040517f08c379a000000000000000000000000000000000000000000000000000000000815260040180806020018281038252600a8152602001807f6e6565642073746172740000000000000000000000000000000000000000000081525060200191505060405180910390fd5b6000349050600081116112c7576040517f08c379a00000000000000000000000000000000000000000000000000000000081526004018080602001828103825260168152602001807f76616c7565206e656564206d6f7265207468616e20300000000000000000000081525060200191505060405180910390fd5b60011515600760009054906101000a900460ff16151514611350576040517f08c379a00000000000000000000000000000000000000000000000000000000081526004018080602001828103825260118152602001807f6e65656420636f72776466756e64696e6700000000000000000000000000000081525060200191505060405180910390fd5b600454600654420311156113cc576040517f08c379a000000000000000000000000000000000000000000000000000000000815260040180806020018281038252601f8152602001807f6e65656420696e2074686520636f72776466756e64696e6720706572696f640081525060200191505060405180910390fd5b6000600a546103e883020190506103e86005540281101561146e57600060035483816113f457fe5b04905080600e60003373ffffffffffffffffffffffffffffffffffffffff1673ffffffffffffffffffffffffffffffffffffffff16815260200190815260200160002060008282540192505081905550806008600082825401925050819055506103e88302600a600082825401925050819055505061187b565b6103e86005540281141561159a576000600760006101000a81548160ff021916908315150217905550600060035483816114a457fe5b04905080600e60003373ffffffffffffffffffffffffffffffffffffffff1673ffffffffffffffffffffffffffffffffffffffff16815260200190815260200160002060008282540192505081905550806008600082825401925050819055506103e88302600a60008282540192505081905550600c60009054906101000a900473ffffffffffffffffffffffffffffffffffffffff1673ffffffffffffffffffffffffffffffffffffffff166108fc600a549081150290604051600060405180830381858888f19350505050158015611582573d6000803e3d6000fd5b50600a54600b819055506000600a819055505061187a565b8215611717576000600760006101000a81548160ff0219169083151502179055506000600a546103e860055402039050600060035482816115d757fe5b04905080600e60003373ffffffffffffffffffffffffffffffffffffffff1673ffffffffffffffffffffffffffffffffffffffff16815260200190815260200160002060008282540192505081905550806008600082825401925050819055503373ffffffffffffffffffffffffffffffffffffffff166108fc8386039081150290604051600060405180830381858888f1935050505015801561167f573d6000803e3d6000fd5b506103e88202600a60008282540192505081905550600c60009054906101000a900473ffffffffffffffffffffffffffffffffffffffff1673ffffffffffffffffffffffffffffffffffffffff166108fc600a549081150290604051600060405180830381858888f193505050501580156116fe573d6000803e3d6000fd5b50600a54600b819055506000600a819055505050611879565b6000600760006101000a81548160ff0219169083151502179055506000600a546005540390506000600354828161174a57fe5b049050600854611775600854600854026000546103e8868903600202028161176e57fe5b0401613140565b038101905080600e60003373ffffffffffffffffffffffffffffffffffffffff1673ffffffffffffffffffffffffffffffffffffffff168152602001908152602001600020600082825401925050819055508060086000828254019250508190555060008285036001546103e803029050600c60009054906101000a900473ffffffffffffffffffffffffffffffffffffffff1673ffffffffffffffffffffffffffffffffffffffff166108fc829081150290604051600060405180830381858888f1935050505015801561184e573d6000803e3d6000fd5b5080600b600082825401925050819055506103e881860302600a600082825401925050819055505050505b5b5b505050565b3373ffffffffffffffffffffffffffffffffffffffff16600960009054906101000a900473ffffffffffffffffffffffffffffffffffffffff1673ffffffffffffffffffffffffffffffffffffffff1614611943576040517f08c379a00000000000000000000000000000000000000000000000000000000081526004018080602001828103825260118152602001807f6c696d6974656420617574686f7269747900000000000000000000000000000081525060200191505060405180910390fd5b8060008190555050565b60065481565b600c60009054906101000a900473ffffffffffffffffffffffffffffffffffffffff1681565b60005481565b600960009054906101000a900473ffffffffffffffffffffffffffffffffffffffff1681565b60025481565b60035481565b6000600c60009054906101000a900473ffffffffffffffffffffffffffffffffffffffff1673ffffffffffffffffffffffffffffffffffffffff163373ffffffffffffffffffffffffffffffffffffffff1614611a76576040517f08c379a000000000000000000000000000000000000000000000000000000000815260040180806020018281038252601e8152602001807f73656e6465722073686f756c6420626520766f746520636f6e7472616374000081525060200191505060405180910390fd5b6000600f600084815260200190815260200160002060008573ffffffffffffffffffffffffffffffffffffffff1673ffffffffffffffffffffffffffffffffffffffff1681526020019081526020016000205411611b3c576040517f08c379a00000000000000000000000000000000000000000000000000000000081526004018080602001828103825260198152602001807f6c6f636b20666e64206e656564206d6f7265207468616e20300000000000000081525060200191505060405180910390fd5b600f600083815260200190815260200160002060008473ffffffffffffffffffffffffffffffffffffffff1673ffffffffffffffffffffffffffffffffffffffff16815260200190815260200160002054600e60008573ffffffffffffffffffffffffffffffffffffffff1673ffffffffffffffffffffffffffffffffffffffff168152602001908152602001600020600082825401925050819055506000600f600084815260200190815260200160002060008573ffffffffffffffffffffffffffffffffffffffff1673ffffffffffffffffffffffffffffffffffffffff168152602001908152602001600020819055506001905092915050565b60011515600960149054906101000a900460ff16151514611cc2576040517f08c379a000000000000000000000000000000000000000000000000000000000815260040180806020018281038252600a8152602001807f6e6565642073746172740000000000000000000000000000000000000000000081525060200191505060405180910390fd5b60003411611d38576040517f08c379a00000000000000000000000000000000000000000000000000000000081526004018080602001828103825260168152602001807f76616c7565206e656564206d6f7265207468616e20300000000000000000000081525060200191505060405180910390fd5b60001515600760009054906101000a900460ff16151514611dc1576040517f08c379a000000000000000000000000000000000000000000000000000000000815260040180806020018281038252601c8152602001807f6e656564206e6f7420647572696e672063726f776466756e64696e670000000081525060200191505060405180910390fd5b60003490506000600854611dee600854600854026000546103e8866002020281611de757fe5b0401613140565b03905080600e60003373ffffffffffffffffffffffffffffffffffffffff1673ffffffffffffffffffffffffffffffffffffffff16815260200190815260200160002060008282540192505081905550806008600082825401925050819055508160015402600a600082825401925050819055506000826001546103e80302905080600b600082825401925050819055506103e88181611e8a57fe5b049050600c60009054906101000a900473ffffffffffffffffffffffffffffffffffffffff1673ffffffffffffffffffffffffffffffffffffffff166108fc829081150290604051600060405180830381858888f19350505050158015611ef5573d6000803e3d6000fd5b507fe1ec7176d5b997461b6dfac832d3dca02a6487756f5aa2bcb6d1eaeab56ce66c333484604051808473ffffffffffffffffffffffffffffffffffffffff1673ffffffffffffffffffffffffffffffffffffffff168152602001838152602001828152602001935050505060405180910390a1505050565b60011515600960149054906101000a900460ff16151514611ff7576040517f08c379a000000000000000000000000000000000000000000000000000000000815260040180806020018281038252600a8152602001807f6e6565642073746172740000000000000000000000000000000000000000000081525060200191505060405180910390fd5b60008111612048576040517f08c379a0000000000000000000000000000000000000000000000000000000008152600401808060200182810382526000815260200160200191505060405180910390fd5b600760009054906101000a900460ff16156120a6576040517f08c379a0000000000000000000000000000000000000000000000000000000008152600401808060200182810382526000815260200160200191505060405180910390fd5b600073ffffffffffffffffffffffffffffffffffffffff168273ffffffffffffffffffffffffffffffffffffffff161415612124576040517f08c379a0000000000000000000000000000000000000000000000000000000008152600401808060200182810382526000815260200160200191505060405180910390fd5b3373ffffffffffffffffffffffffffffffffffffffff168273ffffffffffffffffffffffffffffffffffffffff1614156121a1576040517f08c379a0000000000000000000000000000000000000000000000000000000008152600401808060200182810382526000815260200160200191505060405180910390fd5b80600e60003373ffffffffffffffffffffffffffffffffffffffff1673ffffffffffffffffffffffffffffffffffffffff168152602001908152602001600020541015612231576040517f08c379a0000000000000000000000000000000000000000000000000000000008152600401808060200182810382526000815260200160200191505060405180910390fd5b80600e60003373ffffffffffffffffffffffffffffffffffffffff1673ffffffffffffffffffffffffffffffffffffffff1681526020019081526020016000206000828254039250508190555080600e60008473ffffffffffffffffffffffffffffffffffffffff1673ffffffffffffffffffffffffffffffffffffffff168152602001908152602001600020600082825401925050819055505050565b60055481565b3373ffffffffffffffffffffffffffffffffffffffff16600960009054906101000a900473ffffffffffffffffffffffffffffffffffffffff1673ffffffffffffffffffffffffffffffffffffffff1614612398576040517f08c379a00000000000000000000000000000000000000000000000000000000081526004018080602001828103825260118152602001807f6c696d6974656420617574686f7269747900000000000000000000000000000081525060200191505060405180910390fd5b6001600960146101000a81548160ff021916908315150217905550565b600073ffffffffffffffffffffffffffffffffffffffff16600c60009054906101000a900473ffffffffffffffffffffffffffffffffffffffff1673ffffffffffffffffffffffffffffffffffffffff1614612479576040517f08c379a000000000000000000000000000000000000000000000000000000000815260040180806020018281038252600a8152602001807f666972737420696e69740000000000000000000000000000000000000000000081525060200191505060405180910390fd5b80600c60006101000a81548173ffffffffffffffffffffffffffffffffffffffff021916908373ffffffffffffffffffffffffffffffffffffffff16021790555050565b600c60009054906101000a900473ffffffffffffffffffffffffffffffffffffffff1673ffffffffffffffffffffffffffffffffffffffff163373ffffffffffffffffffffffffffffffffffffffff1614612580576040517f08c379a000000000000000000000000000000000000000000000000000000000815260040180806020018281038252601e8152602001807f73656e6465722073686f756c6420626520766f746520636f6e7472616374000081525060200191505060405180910390fd5b6000600f600083815260200190815260200160002060008473ffffffffffffffffffffffffffffffffffffffff1673ffffffffffffffffffffffffffffffffffffffff16815260200190815260200160002054905060006103e86011600085815260200190815260200160002054601060008681526020019081526020016000205484028161260b57fe5b048161261357fe5b0490508373ffffffffffffffffffffffffffffffffffffffff166108fc829081150290604051600060405180830381858888f1935050505015801561265c573d6000803e3d6000fd5b5050505050565b3373ffffffffffffffffffffffffffffffffffffffff16600960009054906101000a900473ffffffffffffffffffffffffffffffffffffffff1673ffffffffffffffffffffffffffffffffffffffff1614612726576040517f08c379a00000000000000000000000000000000000000000000000000000000081526004018080602001828103825260118152602001807f6c696d6974656420617574686f7269747900000000000000000000000000000081525060200191505060405180910390fd5b8060028190555050565b60015481565b60011515600960149054906101000a900460ff161515146127bf576040517f08c379a000000000000000000000000000000000000000000000000000000000815260040180806020018281038252600a8152602001807f6e6565642073746172740000000000000000000000000000000000000000000081525060200191505060405180910390fd5b600760009054906101000a900460ff1615612825576040517f08c379a000000000000000000000000000000000000000000000000000000000815260040180806020018281038252602a81526020018061318c602a913960400191505060405180910390fd5b6000811161289b576040517f08c379a00000000000000000000000000000000000000000000000000000000081526004018080602001828103825260178152602001807f616d6f756e74206e656564206d6f7265207468616e203000000000000000000081525060200191505060405180910390fd5b80600e60003373ffffffffffffffffffffffffffffffffffffffff1673ffffffffffffffffffffffffffffffffffffffff168152602001908152602001600020541015612933576040517f08c379a00000000000000000000000000000000000000000000000000000000081526004018080602001828103825260228152602001806131d96022913960400191505060405180910390fd5b6000600854600854836008546002020384600a5402028161295057fe5b048161295857fe5b04905081600e60003373ffffffffffffffffffffffffffffffffffffffff1673ffffffffffffffffffffffffffffffffffffffff168152602001908152602001600020600082825403925050819055508160086000828254039250508190555080600a600082825403925050819055506000600a541015612a41576040517f08c379a000000000000000000000000000000000000000000000000000000000815260040180806020018281038252601c8152602001807f73656c6c52657365727665206e656564206d6f7265207468616e20300000000081525060200191505060405180910390fd5b6103e88181612a4c57fe5b0490503373ffffffffffffffffffffffffffffffffffffffff166108fc829081150290604051600060405180830381858888f19350505050158015612a95573d6000803e3d6000fd5b507f26787c8671412319a484ce56f5606f739f3d415e9c4930cd0603b1c1badc2042338284604051808473ffffffffffffffffffffffffffffffffffffffff1673ffffffffffffffffffffffffffffffffffffffff168152602001838152602001828152602001935050505060405180910390a15050565b6000600c60009054906101000a900473ffffffffffffffffffffffffffffffffffffffff1673ffffffffffffffffffffffffffffffffffffffff163373ffffffffffffffffffffffffffffffffffffffff1614612bd2576040517f08c379a000000000000000000000000000000000000000000000000000000000815260040180806020018281038252601e8152602001807f73656e6465722073686f756c6420626520766f746520636f6e7472616374000081525060200191505060405180910390fd5b6000600e60008573ffffffffffffffffffffffffffffffffffffffff1673ffffffffffffffffffffffffffffffffffffffff1681526020019081526020016000205411612c87576040517f08c379a00000000000000000000000000000000000000000000000000000000081526004018080602001828103825260148152602001807f666e64206e656564206d6f7265207468616e203000000000000000000000000081525060200191505060405180910390fd5b600e60008473ffffffffffffffffffffffffffffffffffffffff1673ffffffffffffffffffffffffffffffffffffffff16815260200190815260200160002054600f600084815260200190815260200160002060008573ffffffffffffffffffffffffffffffffffffffff1673ffffffffffffffffffffffffffffffffffffffff168152602001908152602001600020600082825401925050819055506000600e60008573ffffffffffffffffffffffffffffffffffffffff1673ffffffffffffffffffffffffffffffffffffffff168152602001908152602001600020819055506001905092915050565b600081600960006101000a81548173ffffffffffffffffffffffffffffffffffffffff021916908373ffffffffffffffffffffffffffffffffffffffff16021790555060019050919050565b600d6020528060005260406000206000915090505481565b60011515600960149054906101000a900460ff16151514612e60576040517f08c379a000000000000000000000000000000000000000000000000000000000815260040180806020018281038252600a8152602001807f6e6565642073746172740000000000000000000000000000000000000000000081525060200191505060405180910390fd5b6000600d60003373ffffffffffffffffffffffffffffffffffffffff1673ffffffffffffffffffffffffffffffffffffffff1681526020019081526020016000205411612f15576040517f08c379a000000000000000000000000000000000000000000000000000000000815260040180806020018281038252600c8152602001807f6e6565642068617320657468000000000000000000000000000000000000000081525060200191505060405180910390fd5b60011515600760009054906101000a900460ff16151514612f9e576040517f08c379a00000000000000000000000000000000000000000000000000000000081526004018080602001828103825260118152602001807f6e65656420636f72776466756e64696e6700000000000000000000000000000081525060200191505060405180910390fd5b600454600654420311612ffc576040517f08c379a00000000000000000000000000000000000000000000000000000000081526004018080602001828103825260238152602001806131b66023913960400191505060405180910390fd5b6000600d60003373ffffffffffffffffffffffffffffffffffffffff1673ffffffffffffffffffffffffffffffffffffffff1681526020019081526020016000205490503373ffffffffffffffffffffffffffffffffffffffff166108fc829081150290604051600060405180830381858888f19350505050158015613086573d6000803e3d6000fd5b506000600d60003373ffffffffffffffffffffffffffffffffffffffff1673ffffffffffffffffffffffffffffffffffffffff168152602001908152602001600020819055507f7ea5f43cc9e27e9343d5a9d178f6780f166850ccc0795f2e8ad86580fd6aa2163382604051808373ffffffffffffffffffffffffffffffffffffffff1673ffffffffffffffffffffffffffffffffffffffff1681526020018281526020019250505060405180910390a150565b60045481565b6000806002600184018161315057fe5b04905060008390505b808210156131815781905060028283868161317057fe5b04018161317957fe5b049150613159565b809250505091905056fe6e656564204265796f6e642074686520647572696e675f63726f776466756e64696e6720706572696f646e656564206265796f6e642074686520636f72776466756e64696e6720706572696f6462616c616e6365206f662073656e646572206e656564206d6f7265207468616e2030a165627a7a723058205254e8cd4f7f208ca9dcb091adf8b19df61da8445ebed9f2ecb6a3817df1acec0029",
  "source": "pragma solidity >=0.4.22 <0.6.0;\nimport \"./Vote.sol\";\n\n/// @title eth\n/// @author viko\n/// @notice \n/// @dev \ncontract FundPool{\n    ///@notice \n    uint256 public slope;\n\n    /// @notice 73\n    uint256 public alpha;\n\n    /// @notice \n    uint256 public beta;\n\n    /// @notice \n    uint256 public crowdFundPrice;\n\n    /// @notice \n    uint256 public crowdFundDuringTime;\n\n    /// @notice \n    uint256 public crowdFundMoney;\n\n    /// @notice \n    uint256 public crowdFundStartTime;\n\n    /// @notice \n    bool public during_crowdfunding = true;\n\n    /// @notice fnd\n    uint256 public totalSupply = 0;\n\n    /// @notice \n    address public owner;\n\n    /// @notice \n    bool public started = false;\n\n    /// @notice \n    uint256 public sellReserve = 0;\n\n    /// @notice \n    uint256 public totalSendToVote = 0;\n\n    /// @notice \n    Vote public vote;\n\n    /// @notice eth\n    mapping (address=>uint256) public crowdFundingEth;\n\n    /// @notice fnd\n    mapping(address=>uint256) public balances;\n\n    /// @notice fnd\n    mapping(uint256 => mapping(address=>uint256)) public lock_balances;\n\n    /// @notice \n    mapping (uint256 => uint256) clearingValue;\n\n    /// @notice fnd\n    mapping (uint256 => uint256)  clearingTotalFnd;\n\n    /* events */\n    /// @notice \n    event OnBuy(\n        address who,\n        uint256 ethAmount,\n        uint256 nfdAmount\n    );\n\n    /// @notice \n    event OnSell(\n        address who,\n        uint256 ethAmount,\n        uint256 nfdAmount\n    );\n\n    /// @notice \n    event OnRevenue(\n        address who,\n        uint256 ethAmount,\n        uint256 nfdAmount\n    );\n\n    /// @notice \n    event OnWindingUp(\n        address who,\n        uint256 ethAmount\n    );\n\n    /// @notice \n    event OnPreMint(\n        address who,\n        uint256 nfdAmount\n    );\n\n    /// @notice \n    /// @param _duringTime _money \n    constructor(uint256 _duringTime,uint256 _money,uint256 _slope,uint256 _alpha, uint256 _beta) public{\n        //projectFactoryAddress = _addr;\n        owner = msg.sender;\n        require(_duringTime > 0, \"d need greater than 0\");\n        require(_money > 0, \"m need greater than 0\");\n        require(_slope > 0, \"s need greater than 0\");\n        require(_alpha > 0, \"a need greater than 0\");\n        require(_beta > 0, \"b need greater than 0\");\n        crowdFundDuringTime = _duringTime;\n        crowdFundMoney = _money;\n        crowdFundStartTime = now;\n        slope = _slope;\n        alpha = _alpha;\n        beta = _beta;\n        crowdFundPrice = sqrt(2 * _money * 1000 / _slope) / 2;\n    }\n\n    /// @notice \n    modifier isOwner() {\n        require(owner == msg.sender, \"limited authority\");\n        _;\n    }\n\n    /// @notice \n    modifier isStart(){\n        require(started == true,\"need start\");\n        _;\n    }\n\n    /// @notice vote\n    function unsafe_setVote(Vote _vote) public{\n        require(address(vote) == address(0), \"first init\");\n        vote = _vote;\n    }\n\n    /// @notice vote\n    /// @return vote\n    function getVoteContract() public view returns(address){\n        return address(vote);\n    }\n\n    /// @notice \n    function start() public isOwner() {\n        started = true;\n    }\n\n    /// @notice \n    function preMint(address who,uint256 amount) public isOwner() {\n        require(started == false,\"cant start\");\n        balances[who] += amount;\n        totalSupply += amount;\n        emit OnPreMint(who,amount);\n    }\n\n    /// @notice \n    /// @param _slope \n    function setSlope(uint256 _slope) public isOwner() {\n        slope = _slope;\n    }\n\n    /// @notice \n    /// @param _alpha \n    function setAlpha(uint256 _alpha) public isOwner() {\n        alpha = _alpha;\n    }\n\n    /// @notice \n    /// @param _beta \n    function setBeta(uint256 _beta) public isOwner() {\n        beta = _beta;\n    }\n\n    /// @notice   !!!!!!!!!!!!!!!!!!!!!!!!!!!!!!!!!!!!!!!!!!!!!!!!!!!!!!!!!!!!!!!!!!!!!!!!!!!!!!!!!!!!!\n    /// @param _addr \n    function reinstallOwner(address _addr)public returns(bool){ //isOwner(){\n        owner = _addr;\n        return true;\n    }\n\n    /// @notice \n    /// @param x \n    /// @return \n    function sqrt(uint256 x) private pure returns(uint256){\n        uint256 z = (x + 1) / 2;\n        uint256 y = x;\n        while(z < y){\n            y = z;\n            z = (x / z + z) / 2;\n        }\n        return y;\n    }\n\n    /// @notice \n    /// @dev \n    function windingUp() public isStart() {\n        require(crowdFundingEth[msg.sender] > 0,\"need has eth\");\n        require(during_crowdfunding == true,\"need corwdfunding\");\n        require(now - crowdFundStartTime > crowdFundDuringTime, \"need beyond the corwdfunding period\");\n        uint256 value = crowdFundingEth[msg.sender];\n        msg.sender.transfer(value);\n        crowdFundingEth[msg.sender] = 0;\n        emit OnWindingUp(msg.sender,value);\n    }\n\n    /// @notice \n    /// @dev ,\n    function crowdfunding(bool needBack) public payable isStart() {\n        uint256 invest = msg.value;\n        require(invest > 0,\"value need more than 0\");\n        require(during_crowdfunding == true,\"need corwdfunding\");\n        require(now - crowdFundStartTime <= crowdFundDuringTime,\"need in the corwdfunding period\");\n        uint256 all = invest * 1000 + sellReserve;\n        if(all < crowdFundMoney * 1000){//\n            uint256 fndAmount = invest / crowdFundPrice;\n            balances[msg.sender] += fndAmount;\n            totalSupply += fndAmount;\n            sellReserve += invest * 1000;\n        }\n        else if(all == crowdFundMoney * 1000){//\n            during_crowdfunding = false;\n            uint256 fndAmount = invest / crowdFundPrice;\n            balances[msg.sender] += fndAmount;\n            totalSupply += fndAmount;\n            sellReserve += invest * 1000;\n            address(vote).transfer(sellReserve);\n            totalSendToVote = sellReserve;\n            sellReserve = 0;\n        }\n        else if(needBack){//\n            during_crowdfunding = false;\n            uint256 needValue = crowdFundMoney * 1000 - sellReserve;\n            uint256 fndAmount = needValue / crowdFundPrice;\n            balances[msg.sender] += fndAmount;\n            totalSupply += fndAmount;\n            msg.sender.transfer(invest - needValue);\n            sellReserve += needValue * 1000;\n            address(vote).transfer(sellReserve);\n            totalSendToVote = sellReserve;\n            sellReserve = 0;\n        }\n        else{//\n            during_crowdfunding = false;\n            uint256 needValue = crowdFundMoney - sellReserve;\n            uint256 fndAmount = needValue / crowdFundPrice;\n            fndAmount += sqrt(2 * (invest - needValue) * 1000 / slope + totalSupply * totalSupply) - totalSupply;\n            balances[msg.sender] += fndAmount;\n            totalSupply += fndAmount;\n            uint256 sendToVote = (1000 - alpha) * (invest - needValue);\n            address(vote).transfer(sendToVote);\n            totalSendToVote += sendToVote;\n            sellReserve += (invest - sendToVote) * 1000;\n        }\n    }\n\n    /// @notice \n    function buy() public payable isStart() {\n        require(msg.value > 0,\"value need more than 0\");\n        require(during_crowdfunding == false,\"need not during crowdfunding\");\n        uint256 invest = msg.value;\n        uint256 fndAmount = sqrt(2 * invest * 1000 / slope + totalSupply * totalSupply) - totalSupply;\n        balances[msg.sender] += fndAmount;\n        totalSupply += fndAmount;\n        //\n        sellReserve += alpha * invest;\n        //\n        uint256 sendToVote = (1000-alpha) * invest;\n        totalSendToVote += sendToVote;\n        sendToVote /= 1000;\n        address(vote).transfer(sendToVote);\n        emit OnBuy(msg.sender,msg.value,fndAmount);\n    }\n\n    /// @notice \n    /// @dev \n    /// @param amount \n    function sell(uint256 amount) public isStart() {\n        require(!during_crowdfunding,\"need Beyond the during_crowdfunding period\");\n        require(amount > 0,\"amount need more than 0\");\n        require (balances[msg.sender] >= amount,\"balance of sender need more than 0\");\n        uint256 withdraw = sellReserve*amount*(2*totalSupply - amount)/totalSupply/totalSupply;\n        balances[msg.sender] -= amount;\n        totalSupply -= amount;\n        sellReserve -= withdraw;\n        require(sellReserve >= 0,\"sellReserve need more than 0\");\n        withdraw /= 1000;\n        msg.sender.transfer(withdraw);\n        emit OnSell(msg.sender,withdraw,amount);\n    }\n\n    /// @notice \n    /// @dev \n    /// @param to amount \n    function transfer(address to,uint256 amount) public payable isStart() {\n        require(amount > 0,\"\");\n        require(!during_crowdfunding,\"\");\n        require(to != address(0),\"\");\n        require(to != msg.sender,\"\");\n        require(balances[msg.sender] >= amount,\"\");\n        balances[msg.sender] -= amount;\n        balances[to] += amount;\n    }\n\n    /// @notice \n    /// @dev fnd\n    function revenue() public payable isStart() {\n        require(msg.value > 0,\"value need more 0\");\n        uint256 invest = msg.value;\n        uint256 fndAmount = sqrt(2 * invest * 1000 / slope + totalSupply * totalSupply) - totalSupply;\n        totalSupply += fndAmount;\n        //\n        sellReserve += beta * invest;\n        //\n        uint256 sendToVote = (1000 - beta) * invest;\n        totalSendToVote += sendToVote;\n        address(vote).transfer(sendToVote / 1000);\n        emit OnRevenue(msg.sender,msg.value,fndAmount);\n    }\n\n    /// @notice \n    /// @dev vote\n    /// @param who \n    function unsafe_lockFnd(address who,uint256 clearingProposalIndex) public returns(bool){\n        //vote\n        require(msg.sender == address(vote), \"sender should be vote contract\");\n        require(balances[who] > 0, \"fnd need more than 0\");\n        lock_balances[clearingProposalIndex][who] += balances[who];\n        balances[who] = 0;\n        return true;\n    }\n\n    /// @notice \n    /// @dev vote  ??\n    /// @param who \n    function unsafe_unLockFnd(address who,uint256 clearingProposalIndex) public returns(bool){\n        //vote\n        require(msg.sender == address(vote),\"sender should be vote contract\");\n        require(lock_balances[clearingProposalIndex][who] > 0, \"lock fnd need more than 0\");\n        balances[who] += lock_balances[clearingProposalIndex][who];\n        lock_balances[clearingProposalIndex][who] = 0;\n        return true;\n    }\n\n    /// @notice \n    /// @param clearingShares \n    function unsafe_clearing(uint256 clearingShares,uint256 clearingProposalIndex)  public returns(bool){\n        //vote\n        require(msg.sender == address(vote),\"sender should be vote contract\");\n        clearingTotalFnd[clearingProposalIndex] = clearingShares;\n        clearingValue[clearingProposalIndex] = clearingShares * sellReserve / totalSupply;\n        sellReserve -= clearingValue[clearingProposalIndex];\n        return true;\n    }\n\n    /// @notice \n    function unsafe_getClearingValue(address payable who,uint256 clearingProposalIndex) public{\n        //vote\n        require(msg.sender == address(vote),\"sender should be vote contract\");\n        uint256 fndAmount = lock_balances[clearingProposalIndex][who];\n        uint256 value = fndAmount * clearingValue[clearingProposalIndex] / clearingTotalFnd[clearingProposalIndex] / 1000;\n        address(who).transfer(value);\n    }\n}",
  "sourcePath": "/Users/yinwei//eth/FD_Contract_ETH/V3/contracts/FundPool.sol",
  "compiler": {
    "name": "solc",
    "version": "0.5.8+commit.23d335f2.Emscripten.clang"
  },
  "schemaVersion": "3.0.11",
  "updatedAt": "2019-07-24T08:09:40.205Z",
  "devdoc": {
    "author": "viko",
    "details": "",
    "methods": {
      "constructor": {
        "params": {
          "_duringTime": "_money "
        }
      },
      "crowdfunding(bool)": {
        "details": ","
      },
      "getVoteContract()": {
        "return": "vote"
      },
      "reinstallOwner(address)": {
        "params": {
          "_addr": ""
        }
      },
      "revenue()": {
        "details": "fnd"
      },
      "sell(uint256)": {
        "details": "",
        "params": {
          "amount": ""
        }
      },
      "setAlpha(uint256)": {
        "params": {
          "_alpha": ""
        }
      },
      "setBeta(uint256)": {
        "params": {
          "_beta": ""
        }
      },
      "setSlope(uint256)": {
        "params": {
          "_slope": ""
        }
      },
      "transfer(address,uint256)": {
        "details": "",
        "params": {
          "to": "amount "
        }
      },
      "unsafe_clearing(uint256,uint256)": {
        "params": {
          "clearingShares": ""
        }
      },
      "unsafe_lockFnd(address,uint256)": {
        "details": "vote",
        "params": {
          "who": ""
        }
      },
      "unsafe_unLockFnd(address,uint256)": {
        "details": "vote  ??",
        "params": {
          "who": ""
        }
      },
      "windingUp()": {
        "details": ""
      }
    },
    "title": "eth"
  },
  "userdoc": {
    "methods": {
      "buy()": {
        "notice": ""
      },
      "constructor": "",
      "crowdfunding(bool)": {
        "notice": ""
      },
      "getVoteContract()": {
        "notice": "vote"
      },
      "preMint(address,uint256)": {
        "notice": ""
      },
      "reinstallOwner(address)": {
        "notice": "  !!!!!!!!!!!!!!!!!!!!!!!!!!!!!!!!!!!!!!!!!!!!!!!!!!!!!!!!!!!!!!!!!!!!!!!!!!!!!!!!!!!!!"
      },
      "revenue()": {
        "notice": ""
      },
      "sell(uint256)": {
        "notice": ""
      },
      "setAlpha(uint256)": {
        "notice": ""
      },
      "setBeta(uint256)": {
        "notice": ""
      },
      "setSlope(uint256)": {
        "notice": ""
      },
      "start()": {
        "notice": ""
      },
      "transfer(address,uint256)": {
        "notice": ""
      },
      "unsafe_clearing(uint256,uint256)": {
        "notice": ""
      },
      "unsafe_getClearingValue(address,uint256)": {
        "notice": ""
      },
      "unsafe_lockFnd(address,uint256)": {
        "notice": ""
      },
      "unsafe_setVote(address)": {
        "notice": "vote"
      },
      "unsafe_unLockFnd(address,uint256)": {
        "notice": ""
      },
      "windingUp()": {
        "notice": ""
      }
    },
    "notice": ""
  }
}