{
  "contractName": "FutureDaoApp",
  "abi": [
    {
      "constant": true,
      "inputs": [],
      "name": "assetAddress",
      "outputs": [
        {
          "name": "",
          "type": "address"
        }
      ],
      "payable": false,
      "stateMutability": "view",
      "type": "function"
    },
    {
      "constant": true,
      "inputs": [],
      "name": "EMPTY_PARAM_HASH",
      "outputs": [
        {
          "name": "",
          "type": "bytes32"
        }
      ],
      "payable": false,
      "stateMutability": "view",
      "type": "function"
    },
    {
      "constant": true,
      "inputs": [],
      "name": "appManager",
      "outputs": [
        {
          "name": "",
          "type": "address"
        }
      ],
      "payable": false,
      "stateMutability": "view",
      "type": "function"
    },
    {
      "inputs": [
        {
          "name": "_appManager",
          "type": "address"
        }
      ],
      "payable": false,
      "stateMutability": "nonpayable",
      "type": "constructor"
    },
    {
      "constant": true,
      "inputs": [],
      "name": "getAppManagerAddress",
      "outputs": [
        {
          "name": "",
          "type": "address"
        }
      ],
      "payable": false,
      "stateMutability": "view",
      "type": "function"
    },
    {
      "constant": true,
      "inputs": [
        {
          "name": "_addr",
          "type": "address"
        }
      ],
      "name": "balance",
      "outputs": [
        {
          "name": "",
          "type": "uint256"
        }
      ],
      "payable": false,
      "stateMutability": "view",
      "type": "function"
    }
  ],
  "bytecode": "0x608060405234801561001057600080fd5b506040516020806103eb8339810180604052602081101561003057600080fd5b8101908080519060200190929190505050806000806101000a81548173ffffffffffffffffffffffffffffffffffffffff021916908373ffffffffffffffffffffffffffffffffffffffff1602179055505061035a806100916000396000f3fe608060405234801561001057600080fd5b50600436106100575760003560e01c80631ba46cfd1461005c5780634c330077146100a6578063c513f66e146100f0578063e3d670d71461010e578063ebe86c1314610166575b600080fd5b6100646101b0565b604051808273ffffffffffffffffffffffffffffffffffffffff1673ffffffffffffffffffffffffffffffffffffffff16815260200191505060405180910390f35b6100ae6101d6565b604051808273ffffffffffffffffffffffffffffffffffffffff1673ffffffffffffffffffffffffffffffffffffffff16815260200191505060405180910390f35b6100f86101ff565b6040518082815260200191505060405180910390f35b6101506004803603602081101561012457600080fd5b81019080803573ffffffffffffffffffffffffffffffffffffffff169060200190929190505050610226565b6040518082815260200191505060405180910390f35b61016e610309565b604051808273ffffffffffffffffffffffffffffffffffffffff1673ffffffffffffffffffffffffffffffffffffffff16815260200191505060405180910390f35b600160009054906101000a900473ffffffffffffffffffffffffffffffffffffffff1681565b60008060009054906101000a900473ffffffffffffffffffffffffffffffffffffffff16905090565b7f290decd9548b62a8d60345a988386fc84ba6bc95484008f6362f93160ef3e56360001b81565b6000600160009054906101000a900473ffffffffffffffffffffffffffffffffffffffff1673ffffffffffffffffffffffffffffffffffffffff166370a08231836040518263ffffffff1660e01b8152600401808273ffffffffffffffffffffffffffffffffffffffff1673ffffffffffffffffffffffffffffffffffffffff16815260200191505060206040518083038186803b1580156102c757600080fd5b505afa1580156102db573d6000803e3d6000fd5b505050506040513d60208110156102f157600080fd5b81019080805190602001909291905050509050919050565b6000809054906101000a900473ffffffffffffffffffffffffffffffffffffffff168156fea165627a7a72305820cbbe269f38816a4c5148ac275cad28c97a4415d68b290934bf312d732d35f36b0029",
  "source": "pragma solidity >=0.4.22 <0.6.0;\r\n\r\nimport \"./AppManager.sol\";\r\nimport \"../lib/SafeMath.sol\";\r\nimport \"../Interface/IERC20.sol\";\r\n\r\ncontract FutureDaoApp {\r\n    using SafeMath for uint256;\r\n\r\n    AppManager public appManager;\r\n\r\n    address public assetAddress;\r\n\r\n    bytes32 public constant EMPTY_PARAM_HASH = 0x290decd9548b62a8d60345a988386fc84ba6bc95484008f6362f93160ef3e563;\r\n\r\n    constructor(AppManager _appManager) public{\r\n        appManager = _appManager;\r\n    }\r\n\r\n    modifier auth(bytes32 _vData){\r\n        require(appManager.verifyPermission(msg.sender,address(this),_vData,EMPTY_PARAM_HASH),\"No permission to invoke the Contract\");\r\n        _;\r\n    }\r\n    function getAppManagerAddress() public view returns(address){\r\n        return address(appManager);\r\n    }\r\n\r\n    function balance(address _addr) public view returns(uint256){\r\n        return IERC20(assetAddress).balanceOf(_addr);\r\n    }\r\n\r\n    function transferF(address from,address to,uint256 amount) internal {\r\n        bool r = IERC20(assetAddress).transferFrom(from,to,amount);\r\n        require(r,\"asset transferFrom error\");\r\n    }\r\n\r\n    function transferM(address to,uint256 amount) internal {\r\n        bool r = IERC20(assetAddress).transfer(to,amount);\r\n        require(r,\"asset transferFrom error\");\r\n    }\r\n}",
  "sourcePath": "D:\\_______work\\FD_Contract_ETH\\fd\\contracts\\apps\\FutureDaoApp.sol",
  "compiler": {
    "name": "solc",
    "version": "0.5.8+commit.23d335f2.Emscripten.clang"
  },
  "schemaVersion": "3.0.11",
  "updatedAt": "2019-11-19T07:22:37.346Z",
  "devdoc": {
    "methods": {}
  },
  "userdoc": {
    "methods": {}
  }
}