{
  "contractName": "FutureDaoApp",
  "abi": [
    {
      "constant": true,
      "inputs": [],
      "name": "EMPTY_PARAM_HASH",
      "outputs": [
        {
          "name": "",
          "type": "bytes32"
        }
      ],
      "payable": false,
      "stateMutability": "view",
      "type": "function"
    },
    {
      "constant": true,
      "inputs": [],
      "name": "appManager",
      "outputs": [
        {
          "name": "",
          "type": "address"
        }
      ],
      "payable": false,
      "stateMutability": "view",
      "type": "function"
    }
  ],
  "bytecode": "0x608060405234801561001057600080fd5b50610113806100206000396000f3fe6080604052348015600f57600080fd5b506004361060325760003560e01c8063c513f66e146037578063ebe86c13146053575b600080fd5b603d609b565b6040518082815260200191505060405180910390f35b605960c2565b604051808273ffffffffffffffffffffffffffffffffffffffff1673ffffffffffffffffffffffffffffffffffffffff16815260200191505060405180910390f35b7f290decd9548b62a8d60345a988386fc84ba6bc95484008f6362f93160ef3e56360001b81565b6000809054906101000a900473ffffffffffffffffffffffffffffffffffffffff168156fea165627a7a72305820ff0c84130d7d840d62fec6ebf0b53b611138c46bcc559332a122444bc6ea78770029",
  "source": "pragma solidity >=0.4.22 <0.6.0;\r\n\r\nimport \"./AppManager.sol\";\r\nimport \"../lib/SafeMath.sol\";\r\n\r\ncontract FutureDaoApp {\r\n    using SafeMath for uint256;\r\n\r\n    AppManager public appManager;\r\n\r\n    bytes32 public constant EMPTY_PARAM_HASH = 0x290decd9548b62a8d60345a988386fc84ba6bc95484008f6362f93160ef3e563;\r\n\r\n    modifier auth(bytes32 _vData){\r\n        require(appManager.verifyPermission(msg.sender,address(this),_vData,EMPTY_PARAM_HASH),\"No permission to invoke the contract\");\r\n        _;\r\n    }\r\n}",
  "sourcePath": "D:\\_______work\\FD_Contract_ETH\\fd\\contracts\\apps\\FutureDaoApp.sol",
  "compiler": {
    "name": "solc",
    "version": "0.5.8+commit.23d335f2.Emscripten.clang"
  },
  "schemaVersion": "3.0.11",
  "updatedAt": "2019-08-27T10:27:31.818Z",
  "devdoc": {
    "methods": {}
  },
  "userdoc": {
    "methods": {}
  }
}