{
  "contractName": "FutureDaoApp",
  "abi": [
    {
      "constant": true,
      "inputs": [],
      "name": "FundPool_PreMint",
      "outputs": [
        {
          "name": "",
          "type": "bytes32"
        }
      ],
      "payable": false,
      "stateMutability": "view",
      "type": "function"
    },
    {
      "constant": true,
      "inputs": [],
      "name": "EMPTY_PARAM_HASH",
      "outputs": [
        {
          "name": "",
          "type": "bytes32"
        }
      ],
      "payable": false,
      "stateMutability": "view",
      "type": "function"
    },
    {
      "constant": true,
      "inputs": [],
      "name": "appManager",
      "outputs": [
        {
          "name": "",
          "type": "address"
        }
      ],
      "payable": false,
      "stateMutability": "view",
      "type": "function"
    },
    {
      "inputs": [
        {
          "name": "_appManager",
          "type": "address"
        }
      ],
      "payable": false,
      "stateMutability": "nonpayable",
      "type": "constructor"
    },
    {
      "constant": true,
      "inputs": [],
      "name": "getAppManagerAddress",
      "outputs": [
        {
          "name": "",
          "type": "address"
        }
      ],
      "payable": false,
      "stateMutability": "view",
      "type": "function"
    }
  ],
  "bytecode": "0x608060405234801561001057600080fd5b5060405160208061028c8339810180604052602081101561003057600080fd5b8101908080519060200190929190505050806000806101000a81548173ffffffffffffffffffffffffffffffffffffffff021916908373ffffffffffffffffffffffffffffffffffffffff160217905550506101fb806100916000396000f3fe608060405234801561001057600080fd5b506004361061004c5760003560e01c80634c33007714610051578063b710ffc01461009b578063c513f66e146100b9578063ebe86c13146100d7575b600080fd5b610059610121565b604051808273ffffffffffffffffffffffffffffffffffffffff1673ffffffffffffffffffffffffffffffffffffffff16815260200191505060405180910390f35b6100a361014a565b6040518082815260200191505060405180910390f35b6100c1610183565b6040518082815260200191505060405180910390f35b6100df6101aa565b604051808273ffffffffffffffffffffffffffffffffffffffff1673ffffffffffffffffffffffffffffffffffffffff16815260200191505060405180910390f35b60008060009054906101000a900473ffffffffffffffffffffffffffffffffffffffff16905090565b60405180807f46756e64506f6f6c5f5072654d696e74000000000000000000000000000000008152506010019050604051809103902081565b7f290decd9548b62a8d60345a988386fc84ba6bc95484008f6362f93160ef3e56360001b81565b6000809054906101000a900473ffffffffffffffffffffffffffffffffffffffff168156fea165627a7a723058202f3695e7f9c05a6e63eb2825d8db5dd58065c7e3d9e57210d2906b472d82bdd70029",
  "source": "pragma solidity >=0.4.22 <0.6.0;\r\n\r\nimport \"./AppManager.sol\";\r\nimport \"../lib/SafeMath.sol\";\r\n\r\ncontract FutureDaoApp {\r\n    using SafeMath for uint256;\r\n\r\n    AppManager public appManager;\r\n\r\n    bytes32 public constant EMPTY_PARAM_HASH = 0x290decd9548b62a8d60345a988386fc84ba6bc95484008f6362f93160ef3e563;\r\n    bytes32 public constant FundPool_PreMint = keccak256(\"FundPool_PreMint\");\r\n\r\n    constructor(AppManager _appManager) public{\r\n        appManager = _appManager;\r\n    }\r\n\r\n    modifier auth(bytes32 _vData){\r\n        require(appManager.verifyPermission(msg.sender,address(this),_vData,EMPTY_PARAM_HASH),\"No permission to invoke the Contract\");\r\n        _;\r\n    }\r\n    function getAppManagerAddress() public view returns(address){\r\n        return address(appManager);\r\n    }\r\n}",
  "sourcePath": "D:\\_______work\\FD_Contract_ETH\\fd\\contracts\\apps\\FutureDaoApp.sol",
  "compiler": {
    "name": "solc",
    "version": "0.5.8+commit.23d335f2.Emscripten.clang"
  },
  "schemaVersion": "3.0.11",
  "updatedAt": "2019-10-18T03:16:16.870Z",
  "devdoc": {
    "methods": {}
  },
  "userdoc": {
    "methods": {}
  }
}