{
  "contractName": "GovernShareManager",
  "abi": [
    {
      "constant": true,
      "inputs": [],
      "name": "assetAddress",
      "outputs": [
        {
          "name": "",
          "type": "address"
        }
      ],
      "payable": false,
      "stateMutability": "view",
      "type": "function"
    },
    {
      "constant": true,
      "inputs": [],
      "name": "getAppManagerAddress",
      "outputs": [
        {
          "name": "",
          "type": "address"
        }
      ],
      "payable": false,
      "stateMutability": "view",
      "type": "function"
    },
    {
      "constant": true,
      "inputs": [],
      "name": "GovernShareManager_Enter",
      "outputs": [
        {
          "name": "",
          "type": "bytes32"
        }
      ],
      "payable": false,
      "stateMutability": "view",
      "type": "function"
    },
    {
      "constant": true,
      "inputs": [],
      "name": "GovernShareManager_Quit",
      "outputs": [
        {
          "name": "",
          "type": "bytes32"
        }
      ],
      "payable": false,
      "stateMutability": "view",
      "type": "function"
    },
    {
      "constant": true,
      "inputs": [],
      "name": "EMPTY_PARAM_HASH",
      "outputs": [
        {
          "name": "",
          "type": "bytes32"
        }
      ],
      "payable": false,
      "stateMutability": "view",
      "type": "function"
    },
    {
      "constant": true,
      "inputs": [
        {
          "name": "_addr",
          "type": "address"
        }
      ],
      "name": "balance",
      "outputs": [
        {
          "name": "",
          "type": "uint256"
        }
      ],
      "payable": false,
      "stateMutability": "view",
      "type": "function"
    },
    {
      "constant": true,
      "inputs": [],
      "name": "appManager",
      "outputs": [
        {
          "name": "",
          "type": "address"
        }
      ],
      "payable": false,
      "stateMutability": "view",
      "type": "function"
    },
    {
      "constant": true,
      "inputs": [],
      "name": "token",
      "outputs": [
        {
          "name": "",
          "type": "address"
        }
      ],
      "payable": false,
      "stateMutability": "view",
      "type": "function"
    },
    {
      "inputs": [
        {
          "name": "_appManager",
          "type": "address"
        },
        {
          "name": "_token",
          "type": "address"
        }
      ],
      "payable": false,
      "stateMutability": "nonpayable",
      "type": "constructor"
    },
    {
      "payable": true,
      "stateMutability": "payable",
      "type": "fallback"
    },
    {
      "constant": false,
      "inputs": [
        {
          "name": "_account",
          "type": "address"
        },
        {
          "name": "_amount",
          "type": "uint256"
        }
      ],
      "name": "enter",
      "outputs": [
        {
          "name": "",
          "type": "bool"
        }
      ],
      "payable": false,
      "stateMutability": "nonpayable",
      "type": "function"
    },
    {
      "constant": false,
      "inputs": [
        {
          "name": "_amount",
          "type": "uint256"
        }
      ],
      "name": "quit",
      "outputs": [
        {
          "name": "",
          "type": "bool"
        }
      ],
      "payable": false,
      "stateMutability": "nonpayable",
      "type": "function"
    }
  ],
  "bytecode": "0x608060405234801561001057600080fd5b50604051604080610f858339810180604052604081101561003057600080fd5b81019080805190602001909291908051906020019092919050505081806000806101000a81548173ffffffffffffffffffffffffffffffffffffffff021916908373ffffffffffffffffffffffffffffffffffffffff1602179055505080600260006101000a81548173ffffffffffffffffffffffffffffffffffffffff021916908373ffffffffffffffffffffffffffffffffffffffff1602179055508173ffffffffffffffffffffffffffffffffffffffff16631ba46cfd6040518163ffffffff1660e01b815260040160206040518083038186803b15801561011457600080fd5b505afa158015610128573d6000803e3d6000fd5b505050506040513d602081101561013e57600080fd5b8101908080519060200190929190505050600160006101000a81548173ffffffffffffffffffffffffffffffffffffffff021916908373ffffffffffffffffffffffffffffffffffffffff1602179055505050610de5806101a06000396000f3fe6080604052600436106100915760003560e01c8063b4b3908b11610059578063b4b3908b14610232578063c513f66e1461025d578063e3d670d714610288578063ebe86c13146102ed578063fc0c546a1461034457610091565b80631ba46cfd14610093578063344cbc68146100ea5780634c3300771461013d57806379e0d5b2146101945780637e348b7d146101bf575b005b34801561009f57600080fd5b506100a861039b565b604051808273ffffffffffffffffffffffffffffffffffffffff1673ffffffffffffffffffffffffffffffffffffffff16815260200191505060405180910390f35b3480156100f657600080fd5b506101236004803603602081101561010d57600080fd5b81019080803590602001909291905050506103c1565b604051808215151515815260200191505060405180910390f35b34801561014957600080fd5b5061015261055a565b604051808273ffffffffffffffffffffffffffffffffffffffff1673ffffffffffffffffffffffffffffffffffffffff16815260200191505060405180910390f35b3480156101a057600080fd5b506101a9610583565b6040518082815260200191505060405180910390f35b3480156101cb57600080fd5b50610218600480360360408110156101e257600080fd5b81019080803573ffffffffffffffffffffffffffffffffffffffff169060200190929190803590602001909291905050506105bc565b604051808215151515815260200191505060405180910390f35b34801561023e57600080fd5b506102476108f0565b6040518082815260200191505060405180910390f35b34801561026957600080fd5b50610272610929565b6040518082815260200191505060405180910390f35b34801561029457600080fd5b506102d7600480360360208110156102ab57600080fd5b81019080803573ffffffffffffffffffffffffffffffffffffffff169060200190929190505050610950565b6040518082815260200191505060405180910390f35b3480156102f957600080fd5b50610302610a33565b604051808273ffffffffffffffffffffffffffffffffffffffff1673ffffffffffffffffffffffffffffffffffffffff16815260200191505060405180910390f35b34801561035057600080fd5b50610359610a58565b604051808273ffffffffffffffffffffffffffffffffffffffff1673ffffffffffffffffffffffffffffffffffffffff16815260200191505060405180910390f35b600160009054906101000a900473ffffffffffffffffffffffffffffffffffffffff1681565b600080610493600260009054906101000a900473ffffffffffffffffffffffffffffffffffffffff1673ffffffffffffffffffffffffffffffffffffffff166318160ddd6040518163ffffffff1660e01b815260040160206040518083038186803b15801561042f57600080fd5b505afa158015610443573d6000803e3d6000fd5b505050506040513d602081101561045957600080fd5b810190808051906020019092919050505061048561047630610950565b86610a7e90919063ffffffff16565b610b0490919063ffffffff16565b9050600260009054906101000a900473ffffffffffffffffffffffffffffffffffffffff1673ffffffffffffffffffffffffffffffffffffffff166342966c68846040518263ffffffff1660e01b815260040180828152602001915050602060405180830381600087803b15801561050a57600080fd5b505af115801561051e573d6000803e3d6000fd5b505050506040513d602081101561053457600080fd5b8101908080519060200190929190505050506105503382610b4e565b6001915050919050565b60008060009054906101000a900473ffffffffffffffffffffffffffffffffffffffff16905090565b60405180807f476f7665726e53686172654d616e616765725f456e74657200000000000000008152506018019050604051809103902081565b600060405180807f476f7665726e53686172654d616e616765725f456e7465720000000000000000815250601801905060405180910390206000809054906101000a900473ffffffffffffffffffffffffffffffffffffffff1673ffffffffffffffffffffffffffffffffffffffff16634c5f07493330847f290decd9548b62a8d60345a988386fc84ba6bc95484008f6362f93160ef3e56360001b6040518563ffffffff1660e01b8152600401808573ffffffffffffffffffffffffffffffffffffffff1673ffffffffffffffffffffffffffffffffffffffff1681526020018473ffffffffffffffffffffffffffffffffffffffff1673ffffffffffffffffffffffffffffffffffffffff16815260200183815260200182815260200194505050505060206040518083038186803b1580156106f957600080fd5b505afa15801561070d573d6000803e3d6000fd5b505050506040513d602081101561072357600080fd5b8101908080519060200190929190505050610789576040517f08c379a0000000000000000000000000000000000000000000000000000000008152600401808060200182810382526024815260200180610d966024913960400191505060405180910390fd5b6000600260009054906101000a900473ffffffffffffffffffffffffffffffffffffffff1673ffffffffffffffffffffffffffffffffffffffff166340c10f1986866040518363ffffffff1660e01b8152600401808373ffffffffffffffffffffffffffffffffffffffff1673ffffffffffffffffffffffffffffffffffffffff16815260200182815260200192505050602060405180830381600087803b15801561083457600080fd5b505af1158015610848573d6000803e3d6000fd5b505050506040513d602081101561085e57600080fd5b81019080805190602001909291905050509050806108e4576040517f08c379a000000000000000000000000000000000000000000000000000000000815260040180806020018281038252600a8152602001807f6d696e74206572726f720000000000000000000000000000000000000000000081525060200191505060405180910390fd5b60019250505092915050565b60405180807f476f7665726e53686172654d616e616765725f517569740000000000000000008152506017019050604051809103902081565b7f290decd9548b62a8d60345a988386fc84ba6bc95484008f6362f93160ef3e56360001b81565b6000600160009054906101000a900473ffffffffffffffffffffffffffffffffffffffff1673ffffffffffffffffffffffffffffffffffffffff166370a08231836040518263ffffffff1660e01b8152600401808273ffffffffffffffffffffffffffffffffffffffff1673ffffffffffffffffffffffffffffffffffffffff16815260200191505060206040518083038186803b1580156109f157600080fd5b505afa158015610a05573d6000803e3d6000fd5b505050506040513d6020811015610a1b57600080fd5b81019080805190602001909291905050509050919050565b6000809054906101000a900473ffffffffffffffffffffffffffffffffffffffff1681565b600260009054906101000a900473ffffffffffffffffffffffffffffffffffffffff1681565b600080831415610a915760009050610afe565b6000828402905082848281610aa257fe5b0414610af9576040517f08c379a0000000000000000000000000000000000000000000000000000000008152600401808060200182810382526021815260200180610d756021913960400191505060405180910390fd5b809150505b92915050565b6000610b4683836040518060400160405280601a81526020017f536166654d6174683a206469766973696f6e206279207a65726f000000000000815250610cae565b905092915050565b6000600160009054906101000a900473ffffffffffffffffffffffffffffffffffffffff1673ffffffffffffffffffffffffffffffffffffffff1663a9059cbb84846040518363ffffffff1660e01b8152600401808373ffffffffffffffffffffffffffffffffffffffff1673ffffffffffffffffffffffffffffffffffffffff16815260200182815260200192505050602060405180830381600087803b158015610bf957600080fd5b505af1158015610c0d573d6000803e3d6000fd5b505050506040513d6020811015610c2357600080fd5b8101908080519060200190929190505050905080610ca9576040517f08c379a00000000000000000000000000000000000000000000000000000000081526004018080602001828103825260188152602001807f6173736574207472616e7366657246726f6d206572726f72000000000000000081525060200191505060405180910390fd5b505050565b60008083118290610d5a576040517f08c379a00000000000000000000000000000000000000000000000000000000081526004018080602001828103825283818151815260200191508051906020019080838360005b83811015610d1f578082015181840152602081019050610d04565b50505050905090810190601f168015610d4c5780820380516001836020036101000a031916815260200191505b509250505060405180910390fd5b506000838581610d6657fe5b04905080915050939250505056fe536166654d6174683a206d756c7469706c69636174696f6e206f766572666c6f774e6f207065726d697373696f6e20746f20696e766f6b652074686520436f6e7472616374a165627a7a72305820e8fc33ce772d58292a803316ed772f99c069ce151c6fa8114d9904d173dc766a0029",
  "source": "pragma solidity >=0.4.22 <0.6.0;\r\n\r\nimport \"../Interface/IGovernShareManager.sol\";\r\nimport \"../apps/FutureDaoApp.sol\";\r\nimport \"../Interface/IERC20.sol\";\r\nimport \"../Interface/ITradeFundPool.sol\";\r\nimport \"../clearing/ClearingFundPool.sol\";\r\n\r\n\r\n/// @title 自治管钱的合约\r\n/// @author viko\r\n/// @notice 只允许白名单中的合约调用，不允许其他地址调用\r\ncontract GovernShareManager is FutureDaoApp , IGovernShareManager{\r\n\r\n    /// @notice 发行的股份币的合约地址\r\n    address public token;\r\n\r\n    bytes32 public constant GovernShareManager_Enter = keccak256(\"GovernShareManager_Enter\");\r\n    bytes32 public constant GovernShareManager_Quit = keccak256(\"GovernShareManager_Quit\");\r\n\r\n\r\n    constructor(AppManager _appManager,address _token)  FutureDaoApp(_appManager) public {\r\n        token = _token;\r\n        assetAddress = _appManager.assetAddress();\r\n    }\r\n\r\n    function enter(address _account,uint256 _amount) public auth(GovernShareManager_Enter) returns(bool){\r\n        bool r = IERC20(token).mint(_account,_amount);\r\n        require(r,\"mint error\");\r\n        return true;\r\n    }\r\n\r\n    function quit(uint256 _amount) public returns(bool) {\r\n        //计算退出的部分 可以分到多少asset\r\n        uint256 _v = _amount.mul(balance(address(this))).div(IERC20(token).totalSupply());\r\n        IERC20(token).burn(_amount);\r\n        transferM(msg.sender, _v);\r\n        return true;\r\n    }\r\n\r\n\r\n    function() external payable{\r\n    }\r\n}",
  "sourcePath": "D:/_______work/FD_Contract_ETH/fd/contracts/Govern/GovernShareManager.sol",
  "compiler": {
    "name": "solc",
    "version": "0.5.8+commit.23d335f2.Emscripten.clang"
  },
  "schemaVersion": "3.0.11",
  "updatedAt": "2019-11-19T07:22:37.256Z",
  "devdoc": {
    "methods": {}
  },
  "userdoc": {
    "methods": {},
    "notice": "只允许白名单中的合约调用，不允许其他地址调用"
  }
}