{
  "contractName": "GovernShareManager",
  "abi": [
    {
      "constant": true,
      "inputs": [],
      "name": "getAppManagerAddress",
      "outputs": [
        {
          "name": "",
          "type": "address"
        }
      ],
      "payable": false,
      "stateMutability": "view",
      "type": "function"
    },
    {
      "constant": true,
      "inputs": [],
      "name": "GovernShareManager_SendEth",
      "outputs": [
        {
          "name": "",
          "type": "bytes32"
        }
      ],
      "payable": false,
      "stateMutability": "view",
      "type": "function"
    },
    {
      "constant": true,
      "inputs": [],
      "name": "GovernShareManager_MintBinding",
      "outputs": [
        {
          "name": "",
          "type": "bytes32"
        }
      ],
      "payable": false,
      "stateMutability": "view",
      "type": "function"
    },
    {
      "constant": true,
      "inputs": [],
      "name": "GovernShareManager_Clearing",
      "outputs": [
        {
          "name": "",
          "type": "bytes32"
        }
      ],
      "payable": false,
      "stateMutability": "view",
      "type": "function"
    },
    {
      "constant": true,
      "inputs": [],
      "name": "FundPool_PreMint",
      "outputs": [
        {
          "name": "",
          "type": "bytes32"
        }
      ],
      "payable": false,
      "stateMutability": "view",
      "type": "function"
    },
    {
      "constant": true,
      "inputs": [],
      "name": "GovernShareManager_Free",
      "outputs": [
        {
          "name": "",
          "type": "bytes32"
        }
      ],
      "payable": false,
      "stateMutability": "view",
      "type": "function"
    },
    {
      "constant": true,
      "inputs": [],
      "name": "GovernShareManager_ClearingFdt",
      "outputs": [
        {
          "name": "",
          "type": "bytes32"
        }
      ],
      "payable": false,
      "stateMutability": "view",
      "type": "function"
    },
    {
      "constant": true,
      "inputs": [],
      "name": "EMPTY_PARAM_HASH",
      "outputs": [
        {
          "name": "",
          "type": "bytes32"
        }
      ],
      "payable": false,
      "stateMutability": "view",
      "type": "function"
    },
    {
      "constant": true,
      "inputs": [],
      "name": "GovernShareManager_Lock",
      "outputs": [
        {
          "name": "",
          "type": "bytes32"
        }
      ],
      "payable": false,
      "stateMutability": "view",
      "type": "function"
    },
    {
      "constant": true,
      "inputs": [],
      "name": "appManager",
      "outputs": [
        {
          "name": "",
          "type": "address"
        }
      ],
      "payable": false,
      "stateMutability": "view",
      "type": "function"
    },
    {
      "constant": true,
      "inputs": [],
      "name": "token",
      "outputs": [
        {
          "name": "",
          "type": "address"
        }
      ],
      "payable": false,
      "stateMutability": "view",
      "type": "function"
    },
    {
      "inputs": [
        {
          "name": "_appManager",
          "type": "address"
        },
        {
          "name": "_token",
          "type": "address"
        }
      ],
      "payable": false,
      "stateMutability": "nonpayable",
      "type": "constructor"
    },
    {
      "payable": true,
      "stateMutability": "payable",
      "type": "fallback"
    },
    {
      "anonymous": false,
      "inputs": [
        {
          "indexed": false,
          "name": "who",
          "type": "address"
        },
        {
          "indexed": false,
          "name": "amount",
          "type": "uint256"
        }
      ],
      "name": "OnGetFdtOut",
      "type": "event"
    },
    {
      "anonymous": false,
      "inputs": [
        {
          "indexed": false,
          "name": "who",
          "type": "address"
        },
        {
          "indexed": false,
          "name": "amount",
          "type": "uint256"
        }
      ],
      "name": "OnSetFdtIn",
      "type": "event"
    },
    {
      "anonymous": false,
      "inputs": [
        {
          "indexed": false,
          "name": "contractAddress",
          "type": "address"
        },
        {
          "indexed": false,
          "name": "lockAddr",
          "type": "address"
        },
        {
          "indexed": false,
          "name": "index",
          "type": "uint256"
        },
        {
          "indexed": false,
          "name": "expireDate",
          "type": "uint256"
        },
        {
          "indexed": false,
          "name": "lockAmount",
          "type": "uint256"
        }
      ],
      "name": "OnLock",
      "type": "event"
    },
    {
      "anonymous": false,
      "inputs": [
        {
          "indexed": false,
          "name": "contractAddress",
          "type": "address"
        },
        {
          "indexed": false,
          "name": "lockAddr",
          "type": "address"
        },
        {
          "indexed": false,
          "name": "index",
          "type": "uint256"
        },
        {
          "indexed": false,
          "name": "expireDate",
          "type": "uint256"
        }
      ],
      "name": "OnFree",
      "type": "event"
    },
    {
      "constant": true,
      "inputs": [
        {
          "name": "_addr",
          "type": "address"
        }
      ],
      "name": "getFdtInGovern",
      "outputs": [
        {
          "name": "",
          "type": "uint256"
        }
      ],
      "payable": false,
      "stateMutability": "view",
      "type": "function"
    },
    {
      "constant": true,
      "inputs": [],
      "name": "getFdtTotalSupply",
      "outputs": [
        {
          "name": "",
          "type": "uint256"
        }
      ],
      "payable": false,
      "stateMutability": "view",
      "type": "function"
    },
    {
      "constant": false,
      "inputs": [
        {
          "name": "_addr",
          "type": "address"
        },
        {
          "name": "_amount",
          "type": "uint256"
        },
        {
          "name": "_timestamp",
          "type": "uint256"
        }
      ],
      "name": "mintBinding",
      "outputs": [
        {
          "name": "",
          "type": "bool"
        }
      ],
      "payable": false,
      "stateMutability": "nonpayable",
      "type": "function"
    },
    {
      "constant": false,
      "inputs": [
        {
          "name": "_amount",
          "type": "uint256"
        }
      ],
      "name": "setFdtIn",
      "outputs": [
        {
          "name": "",
          "type": "bool"
        }
      ],
      "payable": false,
      "stateMutability": "nonpayable",
      "type": "function"
    },
    {
      "constant": false,
      "inputs": [
        {
          "name": "amount",
          "type": "uint256"
        }
      ],
      "name": "getFdtOut",
      "outputs": [
        {
          "name": "",
          "type": "bool"
        }
      ],
      "payable": false,
      "stateMutability": "nonpayable",
      "type": "function"
    },
    {
      "constant": false,
      "inputs": [
        {
          "name": "_lockAddr",
          "type": "address"
        },
        {
          "name": "_index",
          "type": "uint256"
        },
        {
          "name": "_expireDate",
          "type": "uint256"
        },
        {
          "name": "_lockAmount",
          "type": "uint256"
        }
      ],
      "name": "lock",
      "outputs": [
        {
          "name": "",
          "type": "bool"
        }
      ],
      "payable": false,
      "stateMutability": "nonpayable",
      "type": "function"
    },
    {
      "constant": false,
      "inputs": [
        {
          "name": "_lockAddr",
          "type": "address"
        },
        {
          "name": "_index",
          "type": "uint256"
        },
        {
          "name": "_expireDate",
          "type": "uint256"
        }
      ],
      "name": "free",
      "outputs": [
        {
          "name": "",
          "type": "bool"
        }
      ],
      "payable": false,
      "stateMutability": "nonpayable",
      "type": "function"
    },
    {
      "constant": false,
      "inputs": [
        {
          "name": "_addr_clearingFundPool",
          "type": "address"
        },
        {
          "name": "_addr",
          "type": "address"
        },
        {
          "name": "amount",
          "type": "uint256"
        }
      ],
      "name": "clearingFdt",
      "outputs": [
        {
          "name": "",
          "type": "bool"
        }
      ],
      "payable": false,
      "stateMutability": "nonpayable",
      "type": "function"
    },
    {
      "constant": false,
      "inputs": [
        {
          "name": "_addr",
          "type": "address"
        },
        {
          "name": "_value",
          "type": "uint256"
        }
      ],
      "name": "sendEth",
      "outputs": [
        {
          "name": "",
          "type": "bool"
        }
      ],
      "payable": true,
      "stateMutability": "payable",
      "type": "function"
    },
    {
      "constant": false,
      "inputs": [
        {
          "name": "_addr_clearingFundPool",
          "type": "address"
        },
        {
          "name": "_ratio",
          "type": "uint256"
        }
      ],
      "name": "clearing",
      "outputs": [
        {
          "name": "",
          "type": "bool"
        }
      ],
      "payable": true,
      "stateMutability": "payable",
      "type": "function"
    }
  ],
  "bytecode": "0x60806040526005600060146101000a81548160ff021916908360ff16021790555034801561002c57600080fd5b50604051604080612f3f8339810180604052604081101561004c57600080fd5b81019080805190602001909291908051906020019092919050505081806000806101000a81548173ffffffffffffffffffffffffffffffffffffffff021916908373ffffffffffffffffffffffffffffffffffffffff1602179055505080600460006101000a81548173ffffffffffffffffffffffffffffffffffffffff021916908373ffffffffffffffffffffffffffffffffffffffff1602179055505050612e44806100fb6000396000f3fe60806040526004361061012a5760003560e01c8063af6d13b1116100ab578063c513f66e1161006f578063c513f66e14610597578063c97be180146105c2578063e5ba7b0f14610649578063ebe86c1314610674578063efc66ad1146106cb578063fc0c546a146107485761012a565b8063af6d13b114610458578063b197aadf14610483578063b710ffc014610516578063b77df54b14610541578063bdb1a5951461056c5761012a565b8063578f6a62116100f2578063578f6a62146102cd57806366027b9d146103325780636c351c8e1461035d5780637b69ae90146103da578063999bb8db146104055761012a565b806308731cfe1461012c578063469616b61461015757806349dcbc5e146101aa5780634c330077146102105780634f25e2a314610267575b005b34801561013857600080fd5b5061014161079f565b6040518082815260200191505060405180910390f35b34801561016357600080fd5b506101906004803603602081101561017a57600080fd5b810190808035906020019092919050505061084e565b604051808215151515815260200191505060405180910390f35b6101f6600480360360408110156101c057600080fd5b81019080803573ffffffffffffffffffffffffffffffffffffffff16906020019092919080359060200190929190505050610b90565b604051808215151515815260200191505060405180910390f35b34801561021c57600080fd5b50610225610ea4565b604051808273ffffffffffffffffffffffffffffffffffffffff1673ffffffffffffffffffffffffffffffffffffffff16815260200191505060405180910390f35b6102b36004803603604081101561027d57600080fd5b81019080803573ffffffffffffffffffffffffffffffffffffffff16906020019092919080359060200190929190505050610ecd565b604051808215151515815260200191505060405180910390f35b3480156102d957600080fd5b5061031c600480360360208110156102f057600080fd5b81019080803573ffffffffffffffffffffffffffffffffffffffff1690602001909291905050506111e5565b6040518082815260200191505060405180910390f35b34801561033e57600080fd5b5061034761122e565b6040518082815260200191505060405180910390f35b34801561036957600080fd5b506103c06004803603606081101561038057600080fd5b81019080803573ffffffffffffffffffffffffffffffffffffffff1690602001909291908035906020019092919080359060200190929190505050611267565b604051808215151515815260200191505060405180910390f35b3480156103e657600080fd5b506103ef611449565b6040518082815260200191505060405180910390f35b34801561041157600080fd5b5061043e6004803603602081101561042857600080fd5b8101908080359060200190929190505050611482565b604051808215151515815260200191505060405180910390f35b34801561046457600080fd5b5061046d611692565b6040518082815260200191505060405180910390f35b34801561048f57600080fd5b506104fc600480360360608110156104a657600080fd5b81019080803573ffffffffffffffffffffffffffffffffffffffff169060200190929190803573ffffffffffffffffffffffffffffffffffffffff169060200190929190803590602001909291905050506116cb565b604051808215151515815260200191505060405180910390f35b34801561052257600080fd5b5061052b611c22565b6040518082815260200191505060405180910390f35b34801561054d57600080fd5b50610556611c5b565b6040518082815260200191505060405180910390f35b34801561057857600080fd5b50610581611c94565b6040518082815260200191505060405180910390f35b3480156105a357600080fd5b506105ac611ccd565b6040518082815260200191505060405180910390f35b3480156105ce57600080fd5b5061062f600480360360808110156105e557600080fd5b81019080803573ffffffffffffffffffffffffffffffffffffffff169060200190929190803590602001909291908035906020019092919080359060200190929190505050611cf4565b604051808215151515815260200191505060405180910390f35b34801561065557600080fd5b5061065e611edc565b6040518082815260200191505060405180910390f35b34801561068057600080fd5b50610689611f15565b604051808273ffffffffffffffffffffffffffffffffffffffff1673ffffffffffffffffffffffffffffffffffffffff16815260200191505060405180910390f35b3480156106d757600080fd5b5061072e600480360360608110156106ee57600080fd5b81019080803573ffffffffffffffffffffffffffffffffffffffff1690602001909291908035906020019092919080359060200190929190505050611f3a565b604051808215151515815260200191505060405180910390f35b34801561075457600080fd5b5061075d61224a565b604051808273ffffffffffffffffffffffffffffffffffffffff1673ffffffffffffffffffffffffffffffffffffffff16815260200191505060405180910390f35b600080600460009054906101000a900473ffffffffffffffffffffffffffffffffffffffff1673ffffffffffffffffffffffffffffffffffffffff166318160ddd6040518163ffffffff1660e01b815260040160206040518083038186803b15801561080a57600080fd5b505afa15801561081e573d6000803e3d6000fd5b505050506040513d602081101561083457600080fd5b810190808051906020019092919050505090508091505090565b60008082116108c5576040517f08c379a00000000000000000000000000000000000000000000000000000000081526004018080602001828103825260178152602001807f616d6f756e74206e656564206d6f7265207468616e203000000000000000000081525060200191505060405180910390fd5b60006108d033612270565b90508261092582600260003373ffffffffffffffffffffffffffffffffffffffff1673ffffffffffffffffffffffffffffffffffffffff168152602001908152602001600020546123cd90919063ffffffff16565b1015610999576040517f08c379a00000000000000000000000000000000000000000000000000000000081526004018080602001828103825260198152602001807f5468652062616c616e6365206973206e6f7420656e6f7567680000000000000081525060200191505060405180910390fd5b6000600460009054906101000a900473ffffffffffffffffffffffffffffffffffffffff1673ffffffffffffffffffffffffffffffffffffffff1663a9059cbb33866040518363ffffffff1660e01b8152600401808373ffffffffffffffffffffffffffffffffffffffff1673ffffffffffffffffffffffffffffffffffffffff16815260200182815260200192505050602060405180830381600087803b158015610a4457600080fd5b505af1158015610a58573d6000803e3d6000fd5b505050506040513d6020811015610a6e57600080fd5b8101908080519060200190929190505050905080610af4576040517f08c379a000000000000000000000000000000000000000000000000000000000815260040180806020018281038252600a8152602001807f66726565206572726f720000000000000000000000000000000000000000000081525060200191505060405180910390fd5b610b4684600260003373ffffffffffffffffffffffffffffffffffffffff1673ffffffffffffffffffffffffffffffffffffffff168152602001908152602001600020546123cd90919063ffffffff16565b600260003373ffffffffffffffffffffffffffffffffffffffff1673ffffffffffffffffffffffffffffffffffffffff168152602001908152602001600020819055505050919050565b600060405180807f476f7665726e53686172654d616e616765725f53656e64457468000000000000815250601a01905060405180910390206000809054906101000a900473ffffffffffffffffffffffffffffffffffffffff1673ffffffffffffffffffffffffffffffffffffffff16634c5f07493330847f290decd9548b62a8d60345a988386fc84ba6bc95484008f6362f93160ef3e56360001b6040518563ffffffff1660e01b8152600401808573ffffffffffffffffffffffffffffffffffffffff1673ffffffffffffffffffffffffffffffffffffffff1681526020018473ffffffffffffffffffffffffffffffffffffffff1673ffffffffffffffffffffffffffffffffffffffff16815260200183815260200182815260200194505050505060206040518083038186803b158015610ccd57600080fd5b505afa158015610ce1573d6000803e3d6000fd5b505050506040513d6020811015610cf757600080fd5b8101908080519060200190929190505050610d5d576040517f08c379a0000000000000000000000000000000000000000000000000000000008152600401808060200182810382526024815260200180612dd46024913960400191505060405180910390fd5b6000809054906101000a900473ffffffffffffffffffffffffffffffffffffffff1673ffffffffffffffffffffffffffffffffffffffff1663783672e36040518163ffffffff1660e01b815260040160206040518083038186803b158015610dc457600080fd5b505afa158015610dd8573d6000803e3d6000fd5b505050506040513d6020811015610dee57600080fd5b810190808051906020019092919050505073ffffffffffffffffffffffffffffffffffffffff166349dcbc5e85856040518363ffffffff1660e01b8152600401808373ffffffffffffffffffffffffffffffffffffffff1673ffffffffffffffffffffffffffffffffffffffff16815260200182815260200192505050600060405180830381600087803b158015610e8557600080fd5b505af1158015610e99573d6000803e3d6000fd5b505050505092915050565b60008060009054906101000a900473ffffffffffffffffffffffffffffffffffffffff16905090565b600060405180807f476f7665726e53686172654d616e616765725f436c656172696e670000000000815250601b01905060405180910390206000809054906101000a900473ffffffffffffffffffffffffffffffffffffffff1673ffffffffffffffffffffffffffffffffffffffff16634c5f07493330847f290decd9548b62a8d60345a988386fc84ba6bc95484008f6362f93160ef3e56360001b6040518563ffffffff1660e01b8152600401808573ffffffffffffffffffffffffffffffffffffffff1673ffffffffffffffffffffffffffffffffffffffff1681526020018473ffffffffffffffffffffffffffffffffffffffff1673ffffffffffffffffffffffffffffffffffffffff16815260200183815260200182815260200194505050505060206040518083038186803b15801561100a57600080fd5b505afa15801561101e573d6000803e3d6000fd5b505050506040513d602081101561103457600080fd5b810190808051906020019092919050505061109a576040517f08c379a0000000000000000000000000000000000000000000000000000000008152600401808060200182810382526024815260200180612dd46024913960400191505060405180910390fd5b6000809054906101000a900473ffffffffffffffffffffffffffffffffffffffff1673ffffffffffffffffffffffffffffffffffffffff1663783672e36040518163ffffffff1660e01b815260040160206040518083038186803b15801561110157600080fd5b505afa158015611115573d6000803e3d6000fd5b505050506040513d602081101561112b57600080fd5b810190808051906020019092919050505073ffffffffffffffffffffffffffffffffffffffff16634f25e2a385856040518363ffffffff1660e01b8152600401808373ffffffffffffffffffffffffffffffffffffffff1673ffffffffffffffffffffffffffffffffffffffff16815260200182815260200192505050600060405180830381600087803b1580156111c257600080fd5b505af11580156111d6573d6000803e3d6000fd5b50505050600191505092915050565b6000600260008373ffffffffffffffffffffffffffffffffffffffff1673ffffffffffffffffffffffffffffffffffffffff168152602001908152602001600020549050919050565b60405180807f476f7665726e53686172654d616e616765725f53656e64457468000000000000815250601a019050604051809103902081565b600060405180807f476f7665726e53686172654d616e616765725f46726565000000000000000000815250601701905060405180910390206000809054906101000a900473ffffffffffffffffffffffffffffffffffffffff1673ffffffffffffffffffffffffffffffffffffffff16634c5f07493330847f290decd9548b62a8d60345a988386fc84ba6bc95484008f6362f93160ef3e56360001b6040518563ffffffff1660e01b8152600401808573ffffffffffffffffffffffffffffffffffffffff1673ffffffffffffffffffffffffffffffffffffffff1681526020018473ffffffffffffffffffffffffffffffffffffffff1673ffffffffffffffffffffffffffffffffffffffff16815260200183815260200182815260200194505050505060206040518083038186803b1580156113a457600080fd5b505afa1580156113b8573d6000803e3d6000fd5b505050506040513d60208110156113ce57600080fd5b8101908080519060200190929190505050611434576040517f08c379a0000000000000000000000000000000000000000000000000000000008152600401808060200182810382526024815260200180612dd46024913960400191505060405180910390fd5b61144085338686612417565b50509392505050565b60405180807f476f7665726e53686172654d616e616765725f4d696e7442696e64696e670000815250601e019050604051809103902081565b60008082116114f9576040517f08c379a00000000000000000000000000000000000000000000000000000000081526004018080602001828103825260178152602001807f616d6f756e74206e656564206d6f7265207468616e203000000000000000000081525060200191505060405180910390fd5b6000600460009054906101000a900473ffffffffffffffffffffffffffffffffffffffff1673ffffffffffffffffffffffffffffffffffffffff166323b872dd3330866040518463ffffffff1660e01b8152600401808473ffffffffffffffffffffffffffffffffffffffff1673ffffffffffffffffffffffffffffffffffffffff1681526020018373ffffffffffffffffffffffffffffffffffffffff1673ffffffffffffffffffffffffffffffffffffffff1681526020018281526020019350505050602060405180830381600087803b1580156115d857600080fd5b505af11580156115ec573d6000803e3d6000fd5b505050506040513d602081101561160257600080fd5b8101908080519060200190929190505050905080611688576040517f08c379a000000000000000000000000000000000000000000000000000000000815260040180806020018281038252600a8152602001807f6c6f636b206572726f720000000000000000000000000000000000000000000081525060200191505060405180910390fd5b6001915050919050565b60405180807f476f7665726e53686172654d616e616765725f436c656172696e670000000000815250601b019050604051809103902081565b600060405180807f476f7665726e53686172654d616e616765725f436c656172696e674664740000815250601e01905060405180910390206000809054906101000a900473ffffffffffffffffffffffffffffffffffffffff1673ffffffffffffffffffffffffffffffffffffffff16634c5f07493330847f290decd9548b62a8d60345a988386fc84ba6bc95484008f6362f93160ef3e56360001b6040518563ffffffff1660e01b8152600401808573ffffffffffffffffffffffffffffffffffffffff1673ffffffffffffffffffffffffffffffffffffffff1681526020018473ffffffffffffffffffffffffffffffffffffffff1673ffffffffffffffffffffffffffffffffffffffff16815260200183815260200182815260200194505050505060206040518083038186803b15801561180857600080fd5b505afa15801561181c573d6000803e3d6000fd5b505050506040513d602081101561183257600080fd5b8101908080519060200190929190505050611898576040517f08c379a0000000000000000000000000000000000000000000000000000000008152600401808060200182810382526024815260200180612dd46024913960400191505060405180910390fd5b60006118ec84600260008873ffffffffffffffffffffffffffffffffffffffff1673ffffffffffffffffffffffffffffffffffffffff168152602001908152602001600020546123cd90919063ffffffff16565b1161195f576040517f08c379a00000000000000000000000000000000000000000000000000000000081526004018080602001828103825260088152602001807f6e6f206d6f6e657900000000000000000000000000000000000000000000000081525060200191505060405180910390fd5b600460009054906101000a900473ffffffffffffffffffffffffffffffffffffffff1673ffffffffffffffffffffffffffffffffffffffff1663095ea7b386856040518363ffffffff1660e01b8152600401808373ffffffffffffffffffffffffffffffffffffffff1673ffffffffffffffffffffffffffffffffffffffff16815260200182815260200192505050602060405180830381600087803b158015611a0857600080fd5b505af1158015611a1c573d6000803e3d6000fd5b505050506040513d6020811015611a3257600080fd5b81019080805190602001909291905050505060008573ffffffffffffffffffffffffffffffffffffffff1663282d3fdf86866040518363ffffffff1660e01b8152600401808373ffffffffffffffffffffffffffffffffffffffff1673ffffffffffffffffffffffffffffffffffffffff16815260200182815260200192505050602060405180830381600087803b158015611acd57600080fd5b505af1158015611ae1573d6000803e3d6000fd5b505050506040513d6020811015611af757600080fd5b81019080805190602001909291905050509050611b5c84600260008873ffffffffffffffffffffffffffffffffffffffff1673ffffffffffffffffffffffffffffffffffffffff168152602001908152602001600020546123cd90919063ffffffff16565b600260008773ffffffffffffffffffffffffffffffffffffffff1673ffffffffffffffffffffffffffffffffffffffff168152602001908152602001600020819055506001151581151514611c19576040517f08c379a00000000000000000000000000000000000000000000000000000000081526004018080602001828103825260058152602001807f6572726f7200000000000000000000000000000000000000000000000000000081525060200191505060405180910390fd5b50509392505050565b60405180807f46756e64506f6f6c5f5072654d696e74000000000000000000000000000000008152506010019050604051809103902081565b60405180807f476f7665726e53686172654d616e616765725f467265650000000000000000008152506017019050604051809103902081565b60405180807f476f7665726e53686172654d616e616765725f436c656172696e674664740000815250601e019050604051809103902081565b7f290decd9548b62a8d60345a988386fc84ba6bc95484008f6362f93160ef3e56360001b81565b600060405180807f476f7665726e53686172654d616e616765725f4c6f636b000000000000000000815250601701905060405180910390206000809054906101000a900473ffffffffffffffffffffffffffffffffffffffff1673ffffffffffffffffffffffffffffffffffffffff16634c5f07493330847f290decd9548b62a8d60345a988386fc84ba6bc95484008f6362f93160ef3e56360001b6040518563ffffffff1660e01b8152600401808573ffffffffffffffffffffffffffffffffffffffff1673ffffffffffffffffffffffffffffffffffffffff1681526020018473ffffffffffffffffffffffffffffffffffffffff1673ffffffffffffffffffffffffffffffffffffffff16815260200183815260200182815260200194505050505060206040518083038186803b158015611e3157600080fd5b505afa158015611e45573d6000803e3d6000fd5b505050506040513d6020811015611e5b57600080fd5b8101908080519060200190929190505050611ec1576040517f08c379a0000000000000000000000000000000000000000000000000000000008152600401808060200182810382526024815260200180612dd46024913960400191505060405180910390fd5b611ece8633878787612694565b506001915050949350505050565b60405180807f476f7665726e53686172654d616e616765725f4c6f636b0000000000000000008152506017019050604051809103902081565b6000809054906101000a900473ffffffffffffffffffffffffffffffffffffffff1681565b600060405180807f476f7665726e53686172654d616e616765725f4d696e7442696e64696e670000815250601e01905060405180910390206000809054906101000a900473ffffffffffffffffffffffffffffffffffffffff1673ffffffffffffffffffffffffffffffffffffffff16634c5f07493330847f290decd9548b62a8d60345a988386fc84ba6bc95484008f6362f93160ef3e56360001b6040518563ffffffff1660e01b8152600401808573ffffffffffffffffffffffffffffffffffffffff1673ffffffffffffffffffffffffffffffffffffffff1681526020018473ffffffffffffffffffffffffffffffffffffffff1673ffffffffffffffffffffffffffffffffffffffff16815260200183815260200182815260200194505050505060206040518083038186803b15801561207757600080fd5b505afa15801561208b573d6000803e3d6000fd5b505050506040513d60208110156120a157600080fd5b8101908080519060200190929190505050612107576040517f08c379a0000000000000000000000000000000000000000000000000000000008152600401808060200182810382526024815260200180612dd46024913960400191505060405180910390fd5b61215984600260008873ffffffffffffffffffffffffffffffffffffffff1673ffffffffffffffffffffffffffffffffffffffff16815260200190815260200160002054612b1b90919063ffffffff16565b600260008773ffffffffffffffffffffffffffffffffffffffff1673ffffffffffffffffffffffffffffffffffffffff168152602001908152602001600020819055506121a4612c63565b6040518060400160405280868152602001858152509050600360003373ffffffffffffffffffffffffffffffffffffffff1673ffffffffffffffffffffffffffffffffffffffff168152602001908152602001600020819080600181540180825580915050906001820390600052602060002090600202016000909192909190915060008201518160000155602082015181600101555050506001925050509392505050565b600460009054906101000a900473ffffffffffffffffffffffffffffffffffffffff1681565b60008090506000600360008473ffffffffffffffffffffffffffffffffffffffff1673ffffffffffffffffffffffffffffffffffffffff168152602001908152602001600020905060008090505b81805490508112156123c35760008282815481106122d857fe5b9060005260206000209060020201905080600101544210156123125761230b816000015485612b1b90919063ffffffff16565b93506123b5565b8261232b600185805490506123cd90919063ffffffff16565b8154811061233557fe5b906000526020600020906002020190508261235e600185805490506123cd90919063ffffffff16565b8154811061236857fe5b9060005260206000209060020201600080820160009055600182016000905550506123a1600184805490506123cd90919063ffffffff16565b83816123ad9190612c7d565b506001820391505b5080806001019150506122be565b5081915050919050565b600061240f83836040518060400160405280601e81526020017f536166654d6174683a207375627472616374696f6e206f766572666c6f770000815250612ba3565b905092915050565b600080600160008773ffffffffffffffffffffffffffffffffffffffff1673ffffffffffffffffffffffffffffffffffffffff168152602001908152602001600020905060008090505b818054905081121561268557600082828154811061247b57fe5b906000526020600020906004020190508673ffffffffffffffffffffffffffffffffffffffff168160000160009054906101000a900473ffffffffffffffffffffffffffffffffffffffff1673ffffffffffffffffffffffffffffffffffffffff161480156124ed5750848160020154145b80156124fc5750858160010154145b15612677576125578160030154600260008b73ffffffffffffffffffffffffffffffffffffffff1673ffffffffffffffffffffffffffffffffffffffff16815260200190815260200160002054612b1b90919063ffffffff16565b600260008a73ffffffffffffffffffffffffffffffffffffffff1673ffffffffffffffffffffffffffffffffffffffff16815260200190815260200160002081905550826125b3600185805490506123cd90919063ffffffff16565b815481106125bd57fe5b90600052602060002090600402019050826125e6600185805490506123cd90919063ffffffff16565b815481106125f057fe5b9060005260206000209060040201600080820160006101000a81549073ffffffffffffffffffffffffffffffffffffffff02191690556001820160009055600282016000905560038201600090555050612658600184805490506123cd90919063ffffffff16565b83816126649190612caf565b506001820391506001935050505061268c565b508080600101915050612461565b5060009150505b949350505050565b600080600260008873ffffffffffffffffffffffffffffffffffffffff1673ffffffffffffffffffffffffffffffffffffffff168152602001908152602001600020541161272d576040517f08c379a0000000000000000000000000000000000000000000000000000000008152600401808060200182810382526027815260200180612dad6027913960400191505060405180910390fd5b6000600160008873ffffffffffffffffffffffffffffffffffffffff1673ffffffffffffffffffffffffffffffffffffffff168152602001908152602001600020905060008090505b81805490508110156128f257600082828154811061279057fe5b906000526020600020906004020190508773ffffffffffffffffffffffffffffffffffffffff168160000160009054906101000a900473ffffffffffffffffffffffffffffffffffffffff1673ffffffffffffffffffffffffffffffffffffffff161480156128025750858160020154145b80156128115750868160010154145b156128d65761282d858260030154612b1b90919063ffffffff16565b816003018190555061288785600260008c73ffffffffffffffffffffffffffffffffffffffff1673ffffffffffffffffffffffffffffffffffffffff168152602001908152602001600020546123cd90919063ffffffff16565b600260008b73ffffffffffffffffffffffffffffffffffffffff1673ffffffffffffffffffffffffffffffffffffffff1681526020019081526020016000208190555060019350505050612b12565b506128eb600182612b1b90919063ffffffff16565b9050612776565b506128fb612ce1565b60405180608001604052808873ffffffffffffffffffffffffffffffffffffffff168152602001878152602001868152602001858152509050600060149054906101000a900460ff1660ff16828054905011156129a3576040517f08c379a0000000000000000000000000000000000000000000000000000000008152600401808060200182810382526021815260200180612df86021913960400191505060405180910390fd5b600160008973ffffffffffffffffffffffffffffffffffffffff1673ffffffffffffffffffffffffffffffffffffffff168152602001908152602001600020819080600181540180825580915050906001820390600052602060002090600402016000909192909190915060008201518160000160006101000a81548173ffffffffffffffffffffffffffffffffffffffff021916908373ffffffffffffffffffffffffffffffffffffffff160217905550602082015181600101556040820151816002015560608201518160030155505050612ac884600260008b73ffffffffffffffffffffffffffffffffffffffff1673ffffffffffffffffffffffffffffffffffffffff168152602001908152602001600020546123cd90919063ffffffff16565b600260008a73ffffffffffffffffffffffffffffffffffffffff1673ffffffffffffffffffffffffffffffffffffffff168152602001908152602001600020819055506001925050505b95945050505050565b600080828401905083811015612b99576040517f08c379a000000000000000000000000000000000000000000000000000000000815260040180806020018281038252601b8152602001807f536166654d6174683a206164646974696f6e206f766572666c6f77000000000081525060200191505060405180910390fd5b8091505092915050565b6000838311158290612c50576040517f08c379a00000000000000000000000000000000000000000000000000000000081526004018080602001828103825283818151815260200191508051906020019080838360005b83811015612c15578082015181840152602081019050612bfa565b50505050905090810190601f168015612c425780820380516001836020036101000a031916815260200191505b509250505060405180910390fd5b5060008385039050809150509392505050565b604051806040016040528060008152602001600081525090565b815481835581811115612caa57600202816002028360005260206000209182019101612ca99190612d1f565b5b505050565b815481835581811115612cdc57600402816004028360005260206000209182019101612cdb9190612d4e565b5b505050565b6040518060800160405280600073ffffffffffffffffffffffffffffffffffffffff1681526020016000815260200160008152602001600081525090565b612d4b91905b80821115612d4757600080820160009055600182016000905550600201612d25565b5090565b90565b612da991905b80821115612da557600080820160006101000a81549073ffffffffffffffffffffffffffffffffffffffff021916905560018201600090556002820160009055600382016000905550600401612d54565b5090565b9056fe4c6f636b6564207368617265732063616e6e6f7420657863656564207468652062616c616e63654e6f207065726d697373696f6e20746f20696e766f6b652074686520436f6e747261637443616e6e6f742065786365656420746865206e756d626572206f66206c6f636b73a165627a7a723058201b1ac645c89089b1329c0818c61bcbbd9667a58c9b21899f98c692e783efd8f10029",
  "source": "pragma solidity >=0.4.22 <0.6.0;\r\n\r\nimport \"../Interface/IGovernShareManager.sol\";\r\nimport \"../apps/FutureDaoApp.sol\";\r\nimport \"../Interface/IERC20.sol\";\r\nimport \"../Interface/ITradeFundPool.sol\";\r\nimport \"../clearing/ClearingFundPool.sol\";\r\n\r\n\r\n/// @title \r\n/// @author viko\r\n/// @notice \r\ncontract GovernShareManager is FutureDaoApp , IGovernShareManager{\r\n    /// @notice \r\n    uint8 lockTimesLimit = 5;\r\n\r\n    /// @notice\r\n    mapping(address => SL[]) slMap;\r\n\r\n    /// @notice Fdt\r\n    mapping (address=>uint256) balances;\r\n\r\n    /// @notice balances\r\n    mapping (address=>Sbinding[]) map_Sbinding;\r\n\r\n    /// @notice \r\n    address public token;\r\n\r\n    bytes32 public constant GovernShareManager_MintBinding = keccak256(\"GovernShareManager_MintBinding\");\r\n    bytes32 public constant GovernShareManager_Lock = keccak256(\"GovernShareManager_Lock\");\r\n    bytes32 public constant GovernShareManager_Free = keccak256(\"GovernShareManager_Free\");\r\n    bytes32 public constant GovernShareManager_SendEth = keccak256(\"GovernShareManager_SendEth\");\r\n    bytes32 public constant GovernShareManager_Clearing = keccak256(\"GovernShareManager_Clearing\");\r\n    bytes32 public constant GovernShareManager_ClearingFdt = keccak256(\"GovernShareManager_ClearingFdt\");\r\n\r\n    ////  \r\n    struct Sbinding{\r\n        uint256 amount;\r\n        uint timestamp;\r\n    }\r\n\r\n    /// @notice \r\n    struct SL {\r\n        address contractAddress;\r\n        uint256 index;\r\n        uint256 expireDate;\r\n        uint256 lockAmount;\r\n    }\r\n\r\n    /// @notice fdt\r\n    /// @param who \r\n    /// @param amount \r\n    event OnGetFdtOut(address who,uint256 amount);\r\n\r\n    /// @notice fdt\r\n    /// @param who \r\n    /// @param amount \r\n    event OnSetFdtIn(address who,uint256 amount);\r\n\r\n    /// @notice fdt\r\n    /// @param contractAddress \r\n    /// @param lockAddr \r\n    /// @param index \r\n    /// @param expireDate \r\n    /// @param lockAmount \r\n    event OnLock(address contractAddress,address lockAddr,uint256 index,uint256 expireDate,uint256 lockAmount);\r\n\r\n    /// @notice fdt\r\n    /// @param contractAddress \r\n    /// @param lockAddr \r\n    /// @param index \r\n    /// @param expireDate \r\n    event OnFree(address contractAddress,address lockAddr,uint256 index,uint256 expireDate);\r\n\r\n    constructor(AppManager _appManager,address _token)  FutureDaoApp(_appManager) public {\r\n        token = _token;\r\n    }\r\n\r\n    /// @notice \r\n    function getFdtInGovern(address _addr) public view returns(uint256) {\r\n        return balances[_addr];\r\n    }\r\n\r\n    /// @notice fdt\r\n    function getFdtTotalSupply() public view returns(uint256){\r\n        uint256 totalSupplyInFdt = IERC20(token).totalSupply();\r\n        return totalSupplyInFdt;\r\n    }\r\n\r\n    function mintBinding(address _addr,uint256 _amount,uint256 _timestamp)\r\n    public auth(GovernShareManager_MintBinding) returns(bool){\r\n        balances[_addr] = balances[_addr].add(_amount);\r\n        Sbinding memory binding = Sbinding({\r\n            amount : _amount,\r\n            timestamp : _timestamp\r\n        });\r\n        map_Sbinding[msg.sender].push(binding);\r\n        return true;\r\n    }\r\n\r\n    ///@notice tradefund\r\n    function setFdtIn(uint256 _amount) public returns(bool) {\r\n        require(_amount>0,\"amount need more than 0\");\r\n        bool r = IERC20(token).transferFrom(msg.sender,address(this),_amount);\r\n        require(r,\"lock error\");\r\n        return true;\r\n    }\r\n\r\n    ///@notice tradefund\r\n    function getFdtOut(uint256 amount) public returns(bool){\r\n        require(amount>0,'amount need more than 0');\r\n        uint256 _bindingAmount = _getbindingAmount(msg.sender);\r\n        require(balances[msg.sender].sub(_bindingAmount) >= amount,\"The balance is not enough\");\r\n        // //\r\n        // _refreshSL(msg.sender);\r\n        bool r = IERC20(token).transfer(msg.sender,amount);\r\n        require(r,\"free error\");\r\n        balances[msg.sender] = balances[msg.sender].sub(amount);\r\n    }\r\n\r\n    /// @notice \r\n    function lock(address _lockAddr,uint256 _index,uint256 _expireDate,uint256 _lockAmount)\r\n    public\r\n    auth(GovernShareManager_Lock)\r\n    returns(bool)\r\n    {\r\n        // //\r\n        // _refreshSL(_lockAddr);\r\n        //\r\n        _addSL(_lockAddr,msg.sender,_index,_expireDate,_lockAmount);\r\n        return true;\r\n    }\r\n\r\n    /// @notice \r\n    function free(address _lockAddr,uint256 _index,uint256 _expireDate)\r\n    public\r\n    auth(GovernShareManager_Free)\r\n    returns(bool)\r\n    {\r\n        _delSL(_lockAddr,msg.sender,_index,_expireDate);\r\n    }\r\n\r\n    /// @notice fdt\r\n    function clearingFdt(address payable _addr_clearingFundPool,address _addr,uint256 amount) public auth(GovernShareManager_ClearingFdt)\r\n    returns(bool)\r\n    {\r\n        // //\r\n        // _refreshSL(_addr);\r\n        require(balances[_addr].sub(amount)>0,\"no money\");\r\n        IERC20(token).approve(_addr_clearingFundPool,amount);\r\n        bool r = ClearingFundPool(_addr_clearingFundPool).lock(_addr,amount);\r\n        balances[_addr] = balances[_addr].sub(amount);\r\n        require(r==true,\"error\");\r\n    }\r\n\r\n    /// @notice \r\n    function sendEth(address payable _addr,uint256 _value) public payable auth(GovernShareManager_SendEth) returns(bool){\r\n        ITradeFundPool(appManager.getTradeFundPool()).sendEth(_addr,_value);\r\n    }\r\n\r\n    /// @notice \r\n    function clearing(address payable _addr_clearingFundPool,uint256 _ratio) public payable auth(GovernShareManager_Clearing) returns(bool){\r\n        ITradeFundPool(appManager.getTradeFundPool()).clearing(_addr_clearingFundPool,_ratio);\r\n        return true;\r\n    }\r\n\r\n/////////////////////\r\n///\r\n////////////////////\r\n\r\n    /// @notice \r\n    function _addSL(\r\n        address _lockAddr,\r\n        address _contractAddr,\r\n        uint256 _index,\r\n        uint256 _expireDate,\r\n        uint256 _lockAmount\r\n    )\r\n    private\r\n    returns(bool)\r\n    {\r\n        //\r\n        require(balances[_lockAddr] > 0,\"Locked shares cannot exceed the balance\");\r\n        SL[] storage slQueue = slMap[_lockAddr];\r\n        for(uint256 i = 0;i<slQueue.length;i = i.add(1)){\r\n            SL storage _sl = slQueue[i];\r\n            if(_sl.contractAddress == _contractAddr && _sl.expireDate == _expireDate && _sl.index == _index){\r\n                _sl.lockAmount = _sl.lockAmount.add(_lockAmount);\r\n                balances[_lockAddr] = balances[_lockAddr].sub(_lockAmount);\r\n                return true;\r\n            }\r\n        }\r\n\r\n        SL memory sl = SL({\r\n            contractAddress : _contractAddr,\r\n            expireDate : _expireDate,\r\n            index : _index,\r\n            lockAmount : _lockAmount\r\n        });\r\n        //\r\n        require(slQueue.length <= lockTimesLimit,\"Cannot exceed the number of locks\");\r\n        slMap[_lockAddr].push(sl);\r\n        balances[_lockAddr] = balances[_lockAddr].sub(_lockAmount);\r\n        return true;\r\n    }\r\n\r\n    /// @notice \r\n    function _delSL(\r\n        address _lockAddr,\r\n        address _contractAddr,\r\n        uint256 _index,\r\n        uint256 _expireDate\r\n    )\r\n    private\r\n    returns(bool)\r\n    {\r\n        SL[] storage slQueue = slMap[_lockAddr];\r\n        for(int i = 0;i < int(slQueue.length);i++){\r\n            SL storage _sl = slQueue[uint(i)];\r\n            if(_sl.contractAddress == _contractAddr && _sl.expireDate == _expireDate && _sl.index == _index){\r\n                balances[_lockAddr] = balances[_lockAddr].add(_sl.lockAmount);\r\n                _sl = slQueue[slQueue.length.sub(1)];\r\n                delete slQueue[slQueue.length.sub(1)];\r\n                slQueue.length = slQueue.length.sub(1);\r\n                i = i - 1;\r\n                return true;\r\n            }\r\n        }\r\n        return false;\r\n    }\r\n\r\n    // /// @notice  \r\n    // function _refreshSL(address _lockAddr) private {\r\n    //     SL[] storage slQueue = slMap[_lockAddr];\r\n    //     for(int i = 0;i<int(slQueue.length);i++){\r\n    //         SL storage _sl = slQueue[uint(i)];\r\n    //         if(_sl.expireDate > now){\r\n    //             balances[_lockAddr] = balances[_lockAddr].add(_sl.lockAmount);\r\n    //             _sl = slQueue[slQueue.length.sub(1)];\r\n    //             delete slQueue[slQueue.length.sub(1)];\r\n    //             slQueue.length = slQueue.length.sub(1);\r\n    //             i = i-1;\r\n    //         }\r\n    //     }\r\n    // }\r\n\r\n/*\r\n    /// @notice \r\n    function callContract(address payable _addr,uint256 _value,bytes memory _execScript) public payable isWhiteAddress(msg.sender){\r\n        (bool success,) = _addr.call.value(_value)(_execScript);\r\n        require(success, \"call failed\");\r\n    }\r\n*/\r\n\r\n    function _getbindingAmount(address _addr) private returns(uint256 _bindingAmount){\r\n        _bindingAmount = 0;\r\n        Sbinding[] storage queue = map_Sbinding[_addr];\r\n        for(int i = 0;i < int(queue.length);i++){\r\n            Sbinding storage _sb = queue[uint(i)];\r\n            if(now < _sb.timestamp){\r\n                _bindingAmount = _bindingAmount.add(_sb.amount);\r\n            }\r\n            else{\r\n                _sb = queue[queue.length.sub(1)];\r\n                delete queue[queue.length.sub(1)];\r\n                queue.length = queue.length.sub(1);\r\n                i = i - 1;\r\n            }\r\n        }\r\n        return _bindingAmount;\r\n    }\r\n\r\n    function() external payable{\r\n    }\r\n}",
  "sourcePath": "D:/_______work/FD_Contract_ETH/fd/contracts/Govern/GovernShareManager.sol",
  "compiler": {
    "name": "solc",
    "version": "0.5.8+commit.23d335f2.Emscripten.clang"
  },
  "schemaVersion": "3.0.11",
  "updatedAt": "2019-10-18T03:20:32.893Z",
  "devdoc": {
    "methods": {}
  },
  "userdoc": {
    "methods": {
      "clearing(address,uint256)": {
        "notice": ""
      },
      "clearingFdt(address,address,uint256)": {
        "notice": "fdt"
      },
      "free(address,uint256,uint256)": {
        "notice": ""
      },
      "getFdtInGovern(address)": {
        "notice": ""
      },
      "getFdtOut(uint256)": {
        "notice": "tradefund"
      },
      "getFdtTotalSupply()": {
        "notice": "fdt"
      },
      "lock(address,uint256,uint256,uint256)": {
        "notice": ""
      },
      "sendEth(address,uint256)": {
        "notice": ""
      },
      "setFdtIn(uint256)": {
        "notice": "tradefund"
      }
    },
    "notice": ""
  }
}