{
  "contractName": "GovernShareManager",
  "abi": [
    {
      "constant": true,
      "inputs": [],
      "name": "getAppManagerAddress",
      "outputs": [
        {
          "name": "",
          "type": "address"
        }
      ],
      "payable": false,
      "stateMutability": "view",
      "type": "function"
    },
    {
      "constant": true,
      "inputs": [],
      "name": "GovernShareManager_SendEth",
      "outputs": [
        {
          "name": "",
          "type": "bytes32"
        }
      ],
      "payable": false,
      "stateMutability": "view",
      "type": "function"
    },
    {
      "constant": true,
      "inputs": [],
      "name": "GovernShareManager_Clearing",
      "outputs": [
        {
          "name": "",
          "type": "bytes32"
        }
      ],
      "payable": false,
      "stateMutability": "view",
      "type": "function"
    },
    {
      "constant": true,
      "inputs": [],
      "name": "FundPool_PreMint",
      "outputs": [
        {
          "name": "",
          "type": "bytes32"
        }
      ],
      "payable": false,
      "stateMutability": "view",
      "type": "function"
    },
    {
      "constant": true,
      "inputs": [],
      "name": "GovernShareManager_Free",
      "outputs": [
        {
          "name": "",
          "type": "bytes32"
        }
      ],
      "payable": false,
      "stateMutability": "view",
      "type": "function"
    },
    {
      "constant": true,
      "inputs": [],
      "name": "GovernShareManager_ClearingFdt",
      "outputs": [
        {
          "name": "",
          "type": "bytes32"
        }
      ],
      "payable": false,
      "stateMutability": "view",
      "type": "function"
    },
    {
      "constant": true,
      "inputs": [],
      "name": "EMPTY_PARAM_HASH",
      "outputs": [
        {
          "name": "",
          "type": "bytes32"
        }
      ],
      "payable": false,
      "stateMutability": "view",
      "type": "function"
    },
    {
      "constant": true,
      "inputs": [],
      "name": "GovernShareManager_Lock",
      "outputs": [
        {
          "name": "",
          "type": "bytes32"
        }
      ],
      "payable": false,
      "stateMutability": "view",
      "type": "function"
    },
    {
      "constant": true,
      "inputs": [],
      "name": "appManager",
      "outputs": [
        {
          "name": "",
          "type": "address"
        }
      ],
      "payable": false,
      "stateMutability": "view",
      "type": "function"
    },
    {
      "constant": true,
      "inputs": [],
      "name": "token",
      "outputs": [
        {
          "name": "",
          "type": "address"
        }
      ],
      "payable": false,
      "stateMutability": "view",
      "type": "function"
    },
    {
      "inputs": [
        {
          "name": "_appManager",
          "type": "address"
        },
        {
          "name": "_token",
          "type": "address"
        }
      ],
      "payable": false,
      "stateMutability": "nonpayable",
      "type": "constructor"
    },
    {
      "payable": true,
      "stateMutability": "payable",
      "type": "fallback"
    },
    {
      "constant": false,
      "inputs": [
        {
          "name": "_addr",
          "type": "address"
        }
      ],
      "name": "getFdtInGovern",
      "outputs": [
        {
          "name": "",
          "type": "uint256"
        }
      ],
      "payable": false,
      "stateMutability": "nonpayable",
      "type": "function"
    },
    {
      "constant": false,
      "inputs": [],
      "name": "getFdtTotalSupply",
      "outputs": [
        {
          "name": "",
          "type": "uint256"
        }
      ],
      "payable": false,
      "stateMutability": "nonpayable",
      "type": "function"
    },
    {
      "constant": false,
      "inputs": [
        {
          "name": "amount",
          "type": "uint256"
        }
      ],
      "name": "setFdtIn",
      "outputs": [
        {
          "name": "",
          "type": "bool"
        }
      ],
      "payable": false,
      "stateMutability": "nonpayable",
      "type": "function"
    },
    {
      "constant": false,
      "inputs": [
        {
          "name": "amount",
          "type": "uint256"
        }
      ],
      "name": "getFdtOut",
      "outputs": [
        {
          "name": "",
          "type": "bool"
        }
      ],
      "payable": false,
      "stateMutability": "nonpayable",
      "type": "function"
    },
    {
      "constant": false,
      "inputs": [
        {
          "name": "_lockAddr",
          "type": "address"
        },
        {
          "name": "_index",
          "type": "uint256"
        },
        {
          "name": "_expireDate",
          "type": "uint256"
        },
        {
          "name": "_lockAmount",
          "type": "uint256"
        }
      ],
      "name": "lock",
      "outputs": [
        {
          "name": "",
          "type": "bool"
        }
      ],
      "payable": false,
      "stateMutability": "nonpayable",
      "type": "function"
    },
    {
      "constant": false,
      "inputs": [
        {
          "name": "_lockAddr",
          "type": "address"
        },
        {
          "name": "_index",
          "type": "uint256"
        },
        {
          "name": "_expireDate",
          "type": "uint256"
        }
      ],
      "name": "free",
      "outputs": [
        {
          "name": "",
          "type": "bool"
        }
      ],
      "payable": false,
      "stateMutability": "nonpayable",
      "type": "function"
    },
    {
      "constant": false,
      "inputs": [
        {
          "name": "_addr_clearingFundPool",
          "type": "address"
        },
        {
          "name": "_addr",
          "type": "address"
        },
        {
          "name": "amount",
          "type": "uint256"
        }
      ],
      "name": "clearingFdt",
      "outputs": [
        {
          "name": "",
          "type": "bool"
        }
      ],
      "payable": false,
      "stateMutability": "nonpayable",
      "type": "function"
    },
    {
      "constant": false,
      "inputs": [
        {
          "name": "_addr",
          "type": "address"
        },
        {
          "name": "_value",
          "type": "uint256"
        }
      ],
      "name": "sendEth",
      "outputs": [
        {
          "name": "",
          "type": "bool"
        }
      ],
      "payable": true,
      "stateMutability": "payable",
      "type": "function"
    },
    {
      "constant": false,
      "inputs": [
        {
          "name": "_addr_clearingFundPool",
          "type": "address"
        },
        {
          "name": "_ratio",
          "type": "uint256"
        }
      ],
      "name": "clearing",
      "outputs": [
        {
          "name": "",
          "type": "bool"
        }
      ],
      "payable": true,
      "stateMutability": "payable",
      "type": "function"
    }
  ],
  "bytecode": "0x60806040526005600060146101000a81548160ff021916908360ff16021790555034801561002c57600080fd5b50604051604080612bf68339810180604052604081101561004c57600080fd5b810190808051906020019092919080519060200190929190505050816000806101000a81548173ffffffffffffffffffffffffffffffffffffffff021916908373ffffffffffffffffffffffffffffffffffffffff16021790555080600360006101000a81548173ffffffffffffffffffffffffffffffffffffffff021916908373ffffffffffffffffffffffffffffffffffffffff1602179055505050612afd806100f96000396000f3fe6080604052600436106101145760003560e01c8063af6d13b1116100a0578063c513f66e11610064578063c513f66e14610556578063c97be18014610581578063e5ba7b0f14610608578063ebe86c1314610633578063fc0c546a1461068a57610114565b8063af6d13b114610417578063b197aadf14610442578063b710ffc0146104d5578063b77df54b14610500578063bdb1a5951461052b57610114565b80634f25e2a3116100e75780634f25e2a314610251578063578f6a62146102b757806366027b9d1461031c5780636c351c8e14610347578063999bb8db146103c457610114565b806308731cfe14610116578063469616b61461014157806349dcbc5e146101945780634c330077146101fa575b005b34801561012257600080fd5b5061012b6106e1565b6040518082815260200191505060405180910390f35b34801561014d57600080fd5b5061017a6004803603602081101561016457600080fd5b810190808035906020019092919050505061078b565b604051808215151515815260200191505060405180910390f35b6101e0600480360360408110156101aa57600080fd5b81019080803573ffffffffffffffffffffffffffffffffffffffff16906020019092919080359060200190929190505050610ab6565b604051808215151515815260200191505060405180910390f35b34801561020657600080fd5b5061020f610dca565b604051808273ffffffffffffffffffffffffffffffffffffffff1673ffffffffffffffffffffffffffffffffffffffff16815260200191505060405180910390f35b61029d6004803603604081101561026757600080fd5b81019080803573ffffffffffffffffffffffffffffffffffffffff16906020019092919080359060200190929190505050610df3565b604051808215151515815260200191505060405180910390f35b3480156102c357600080fd5b50610306600480360360208110156102da57600080fd5b81019080803573ffffffffffffffffffffffffffffffffffffffff16906020019092919050505061110b565b6040518082815260200191505060405180910390f35b34801561032857600080fd5b50610331611154565b6040518082815260200191505060405180910390f35b34801561035357600080fd5b506103aa6004803603606081101561036a57600080fd5b81019080803573ffffffffffffffffffffffffffffffffffffffff169060200190929190803590602001909291908035906020019092919050505061118d565b604051808215151515815260200191505060405180910390f35b3480156103d057600080fd5b506103fd600480360360208110156103e757600080fd5b810190808035906020019092919050505061136f565b604051808215151515815260200191505060405180910390f35b34801561042357600080fd5b5061042c611614565b6040518082815260200191505060405180910390f35b34801561044e57600080fd5b506104bb6004803603606081101561046557600080fd5b81019080803573ffffffffffffffffffffffffffffffffffffffff169060200190929190803573ffffffffffffffffffffffffffffffffffffffff1690602001909291908035906020019092919050505061164d565b604051808215151515815260200191505060405180910390f35b3480156104e157600080fd5b506104ea611bad565b6040518082815260200191505060405180910390f35b34801561050c57600080fd5b50610515611be6565b6040518082815260200191505060405180910390f35b34801561053757600080fd5b50610540611c1f565b6040518082815260200191505060405180910390f35b34801561056257600080fd5b5061056b611c58565b6040518082815260200191505060405180910390f35b34801561058d57600080fd5b506105ee600480360360808110156105a457600080fd5b81019080803573ffffffffffffffffffffffffffffffffffffffff169060200190929190803590602001909291908035906020019092919080359060200190929190505050611c7f565b604051808215151515815260200191505060405180910390f35b34801561061457600080fd5b5061061d611e70565b6040518082815260200191505060405180910390f35b34801561063f57600080fd5b50610648611ea9565b604051808273ffffffffffffffffffffffffffffffffffffffff1673ffffffffffffffffffffffffffffffffffffffff16815260200191505060405180910390f35b34801561069657600080fd5b5061069f611ece565b604051808273ffffffffffffffffffffffffffffffffffffffff1673ffffffffffffffffffffffffffffffffffffffff16815260200191505060405180910390f35b6000600360009054906101000a900473ffffffffffffffffffffffffffffffffffffffff1673ffffffffffffffffffffffffffffffffffffffff166318160ddd6040518163ffffffff1660e01b815260040160206040518083038186803b15801561074b57600080fd5b505afa15801561075f573d6000803e3d6000fd5b505050506040513d602081101561077557600080fd5b8101908080519060200190929190505050905090565b6000808211610802576040517f08c379a00000000000000000000000000000000000000000000000000000000081526004018080602001828103825260178152602001807f616d6f756e74206e656564206d6f7265207468616e203000000000000000000081525060200191505060405180910390fd5b81600260003373ffffffffffffffffffffffffffffffffffffffff1673ffffffffffffffffffffffffffffffffffffffff1681526020019081526020016000205410156108b7576040517f08c379a00000000000000000000000000000000000000000000000000000000081526004018080602001828103825260198152602001807f5468652062616c616e6365206973206e6f7420656e6f7567680000000000000081525060200191505060405180910390fd5b6108c033611ef4565b6000600360009054906101000a900473ffffffffffffffffffffffffffffffffffffffff1673ffffffffffffffffffffffffffffffffffffffff1663a9059cbb33856040518363ffffffff1660e01b8152600401808373ffffffffffffffffffffffffffffffffffffffff1673ffffffffffffffffffffffffffffffffffffffff16815260200182815260200192505050602060405180830381600087803b15801561096b57600080fd5b505af115801561097f573d6000803e3d6000fd5b505050506040513d602081101561099557600080fd5b8101908080519060200190929190505050905080610a1b576040517f08c379a000000000000000000000000000000000000000000000000000000000815260040180806020018281038252600a8152602001807f66726565206572726f720000000000000000000000000000000000000000000081525060200191505060405180910390fd5b610a6d83600260003373ffffffffffffffffffffffffffffffffffffffff1673ffffffffffffffffffffffffffffffffffffffff168152602001908152602001600020546120f990919063ffffffff16565b600260003373ffffffffffffffffffffffffffffffffffffffff1673ffffffffffffffffffffffffffffffffffffffff1681526020019081526020016000208190555050919050565b600060405180807f476f7665726e53686172654d616e616765725f53656e64457468000000000000815250601a01905060405180910390206000809054906101000a900473ffffffffffffffffffffffffffffffffffffffff1673ffffffffffffffffffffffffffffffffffffffff16634c5f07493330847f290decd9548b62a8d60345a988386fc84ba6bc95484008f6362f93160ef3e56360001b6040518563ffffffff1660e01b8152600401808573ffffffffffffffffffffffffffffffffffffffff1673ffffffffffffffffffffffffffffffffffffffff1681526020018473ffffffffffffffffffffffffffffffffffffffff1673ffffffffffffffffffffffffffffffffffffffff16815260200183815260200182815260200194505050505060206040518083038186803b158015610bf357600080fd5b505afa158015610c07573d6000803e3d6000fd5b505050506040513d6020811015610c1d57600080fd5b8101908080519060200190929190505050610c83576040517f08c379a0000000000000000000000000000000000000000000000000000000008152600401808060200182810382526024815260200180612a8d6024913960400191505060405180910390fd5b6000809054906101000a900473ffffffffffffffffffffffffffffffffffffffff1673ffffffffffffffffffffffffffffffffffffffff1663783672e36040518163ffffffff1660e01b815260040160206040518083038186803b158015610cea57600080fd5b505afa158015610cfe573d6000803e3d6000fd5b505050506040513d6020811015610d1457600080fd5b810190808051906020019092919050505073ffffffffffffffffffffffffffffffffffffffff166349dcbc5e85856040518363ffffffff1660e01b8152600401808373ffffffffffffffffffffffffffffffffffffffff1673ffffffffffffffffffffffffffffffffffffffff16815260200182815260200192505050600060405180830381600087803b158015610dab57600080fd5b505af1158015610dbf573d6000803e3d6000fd5b505050505092915050565b60008060009054906101000a900473ffffffffffffffffffffffffffffffffffffffff16905090565b600060405180807f476f7665726e53686172654d616e616765725f436c656172696e670000000000815250601b01905060405180910390206000809054906101000a900473ffffffffffffffffffffffffffffffffffffffff1673ffffffffffffffffffffffffffffffffffffffff16634c5f07493330847f290decd9548b62a8d60345a988386fc84ba6bc95484008f6362f93160ef3e56360001b6040518563ffffffff1660e01b8152600401808573ffffffffffffffffffffffffffffffffffffffff1673ffffffffffffffffffffffffffffffffffffffff1681526020018473ffffffffffffffffffffffffffffffffffffffff1673ffffffffffffffffffffffffffffffffffffffff16815260200183815260200182815260200194505050505060206040518083038186803b158015610f3057600080fd5b505afa158015610f44573d6000803e3d6000fd5b505050506040513d6020811015610f5a57600080fd5b8101908080519060200190929190505050610fc0576040517f08c379a0000000000000000000000000000000000000000000000000000000008152600401808060200182810382526024815260200180612a8d6024913960400191505060405180910390fd5b6000809054906101000a900473ffffffffffffffffffffffffffffffffffffffff1673ffffffffffffffffffffffffffffffffffffffff1663783672e36040518163ffffffff1660e01b815260040160206040518083038186803b15801561102757600080fd5b505afa15801561103b573d6000803e3d6000fd5b505050506040513d602081101561105157600080fd5b810190808051906020019092919050505073ffffffffffffffffffffffffffffffffffffffff16634f25e2a385856040518363ffffffff1660e01b8152600401808373ffffffffffffffffffffffffffffffffffffffff1673ffffffffffffffffffffffffffffffffffffffff16815260200182815260200192505050600060405180830381600087803b1580156110e857600080fd5b505af11580156110fc573d6000803e3d6000fd5b50505050600191505092915050565b6000600260008373ffffffffffffffffffffffffffffffffffffffff1673ffffffffffffffffffffffffffffffffffffffff168152602001908152602001600020549050919050565b60405180807f476f7665726e53686172654d616e616765725f53656e64457468000000000000815250601a019050604051809103902081565b600060405180807f476f7665726e53686172654d616e616765725f46726565000000000000000000815250601701905060405180910390206000809054906101000a900473ffffffffffffffffffffffffffffffffffffffff1673ffffffffffffffffffffffffffffffffffffffff16634c5f07493330847f290decd9548b62a8d60345a988386fc84ba6bc95484008f6362f93160ef3e56360001b6040518563ffffffff1660e01b8152600401808573ffffffffffffffffffffffffffffffffffffffff1673ffffffffffffffffffffffffffffffffffffffff1681526020018473ffffffffffffffffffffffffffffffffffffffff1673ffffffffffffffffffffffffffffffffffffffff16815260200183815260200182815260200194505050505060206040518083038186803b1580156112ca57600080fd5b505afa1580156112de573d6000803e3d6000fd5b505050506040513d60208110156112f457600080fd5b810190808051906020019092919050505061135a576040517f08c379a0000000000000000000000000000000000000000000000000000000008152600401808060200182810382526024815260200180612a8d6024913960400191505060405180910390fd5b61136685338686612143565b50509392505050565b60008082116113e6576040517f08c379a00000000000000000000000000000000000000000000000000000000081526004018080602001828103825260178152602001807f616d6f756e74206e656564206d6f7265207468616e203000000000000000000081525060200191505060405180910390fd5b6000600360009054906101000a900473ffffffffffffffffffffffffffffffffffffffff1673ffffffffffffffffffffffffffffffffffffffff166323b872dd3330866040518463ffffffff1660e01b8152600401808473ffffffffffffffffffffffffffffffffffffffff1673ffffffffffffffffffffffffffffffffffffffff1681526020018373ffffffffffffffffffffffffffffffffffffffff1673ffffffffffffffffffffffffffffffffffffffff1681526020018281526020019350505050602060405180830381600087803b1580156114c557600080fd5b505af11580156114d9573d6000803e3d6000fd5b505050506040513d60208110156114ef57600080fd5b8101908080519060200190929190505050905080611575576040517f08c379a000000000000000000000000000000000000000000000000000000000815260040180806020018281038252600a8152602001807f6c6f636b206572726f720000000000000000000000000000000000000000000081525060200191505060405180910390fd5b6115c783600260003373ffffffffffffffffffffffffffffffffffffffff1673ffffffffffffffffffffffffffffffffffffffff168152602001908152602001600020546123c890919063ffffffff16565b600260003373ffffffffffffffffffffffffffffffffffffffff1673ffffffffffffffffffffffffffffffffffffffff168152602001908152602001600020819055506001915050919050565b60405180807f476f7665726e53686172654d616e616765725f436c656172696e670000000000815250601b019050604051809103902081565b600060405180807f476f7665726e53686172654d616e616765725f436c656172696e674664740000815250601e01905060405180910390206000809054906101000a900473ffffffffffffffffffffffffffffffffffffffff1673ffffffffffffffffffffffffffffffffffffffff16634c5f07493330847f290decd9548b62a8d60345a988386fc84ba6bc95484008f6362f93160ef3e56360001b6040518563ffffffff1660e01b8152600401808573ffffffffffffffffffffffffffffffffffffffff1673ffffffffffffffffffffffffffffffffffffffff1681526020018473ffffffffffffffffffffffffffffffffffffffff1673ffffffffffffffffffffffffffffffffffffffff16815260200183815260200182815260200194505050505060206040518083038186803b15801561178a57600080fd5b505afa15801561179e573d6000803e3d6000fd5b505050506040513d60208110156117b457600080fd5b810190808051906020019092919050505061181a576040517f08c379a0000000000000000000000000000000000000000000000000000000008152600401808060200182810382526024815260200180612a8d6024913960400191505060405180910390fd5b61182384611ef4565b600061187784600260008873ffffffffffffffffffffffffffffffffffffffff1673ffffffffffffffffffffffffffffffffffffffff168152602001908152602001600020546120f990919063ffffffff16565b116118ea576040517f08c379a00000000000000000000000000000000000000000000000000000000081526004018080602001828103825260088152602001807f6e6f206d6f6e657900000000000000000000000000000000000000000000000081525060200191505060405180910390fd5b600360009054906101000a900473ffffffffffffffffffffffffffffffffffffffff1673ffffffffffffffffffffffffffffffffffffffff1663095ea7b386856040518363ffffffff1660e01b8152600401808373ffffffffffffffffffffffffffffffffffffffff1673ffffffffffffffffffffffffffffffffffffffff16815260200182815260200192505050602060405180830381600087803b15801561199357600080fd5b505af11580156119a7573d6000803e3d6000fd5b505050506040513d60208110156119bd57600080fd5b81019080805190602001909291905050505060008573ffffffffffffffffffffffffffffffffffffffff1663282d3fdf86866040518363ffffffff1660e01b8152600401808373ffffffffffffffffffffffffffffffffffffffff1673ffffffffffffffffffffffffffffffffffffffff16815260200182815260200192505050602060405180830381600087803b158015611a5857600080fd5b505af1158015611a6c573d6000803e3d6000fd5b505050506040513d6020811015611a8257600080fd5b81019080805190602001909291905050509050611ae784600260008873ffffffffffffffffffffffffffffffffffffffff1673ffffffffffffffffffffffffffffffffffffffff168152602001908152602001600020546120f990919063ffffffff16565b600260008773ffffffffffffffffffffffffffffffffffffffff1673ffffffffffffffffffffffffffffffffffffffff168152602001908152602001600020819055506001151581151514611ba4576040517f08c379a00000000000000000000000000000000000000000000000000000000081526004018080602001828103825260058152602001807f6572726f7200000000000000000000000000000000000000000000000000000081525060200191505060405180910390fd5b50509392505050565b60405180807f46756e64506f6f6c5f5072654d696e74000000000000000000000000000000008152506010019050604051809103902081565b60405180807f476f7665726e53686172654d616e616765725f467265650000000000000000008152506017019050604051809103902081565b60405180807f476f7665726e53686172654d616e616765725f436c656172696e674664740000815250601e019050604051809103902081565b7f290decd9548b62a8d60345a988386fc84ba6bc95484008f6362f93160ef3e56360001b81565b600060405180807f476f7665726e53686172654d616e616765725f4c6f636b000000000000000000815250601701905060405180910390206000809054906101000a900473ffffffffffffffffffffffffffffffffffffffff1673ffffffffffffffffffffffffffffffffffffffff16634c5f07493330847f290decd9548b62a8d60345a988386fc84ba6bc95484008f6362f93160ef3e56360001b6040518563ffffffff1660e01b8152600401808573ffffffffffffffffffffffffffffffffffffffff1673ffffffffffffffffffffffffffffffffffffffff1681526020018473ffffffffffffffffffffffffffffffffffffffff1673ffffffffffffffffffffffffffffffffffffffff16815260200183815260200182815260200194505050505060206040518083038186803b158015611dbc57600080fd5b505afa158015611dd0573d6000803e3d6000fd5b505050506040513d6020811015611de657600080fd5b8101908080519060200190929190505050611e4c576040517f08c379a0000000000000000000000000000000000000000000000000000000008152600401808060200182810382526024815260200180612a8d6024913960400191505060405180910390fd5b611e5586611ef4565b611e628633878787612450565b506001915050949350505050565b60405180807f476f7665726e53686172654d616e616765725f4c6f636b0000000000000000008152506017019050604051809103902081565b6000809054906101000a900473ffffffffffffffffffffffffffffffffffffffff1681565b600360009054906101000a900473ffffffffffffffffffffffffffffffffffffffff1681565b6000600160008373ffffffffffffffffffffffffffffffffffffffff1673ffffffffffffffffffffffffffffffffffffffff168152602001908152602001600020905060008090505b81805490508110156120f4576000828281548110611f5757fe5b9060005260206000209060040201905042816002015411156120d857611fc98160030154600260008773ffffffffffffffffffffffffffffffffffffffff1673ffffffffffffffffffffffffffffffffffffffff168152602001908152602001600020546123c890919063ffffffff16565b600260008673ffffffffffffffffffffffffffffffffffffffff1673ffffffffffffffffffffffffffffffffffffffff1681526020019081526020016000208190555082612025600185805490506120f990919063ffffffff16565b8154811061202f57fe5b9060005260206000209060040201905082612058600185805490506120f990919063ffffffff16565b8154811061206257fe5b9060005260206000209060040201600080820160006101000a81549073ffffffffffffffffffffffffffffffffffffffff021916905560018201600090556002820160009055600382016000905550506120ca600184805490506120f990919063ffffffff16565b83816120d69190612997565b505b506120ed6001826123c890919063ffffffff16565b9050611f3d565b505050565b600061213b83836040518060400160405280601e81526020017f536166654d6174683a207375627472616374696f6e206f766572666c6f7700008152506128d7565b905092915050565b600080600160008773ffffffffffffffffffffffffffffffffffffffff1673ffffffffffffffffffffffffffffffffffffffff168152602001908152602001600020905060008090505b81805490508110156123b95760008282815481106121a757fe5b906000526020600020906004020190508673ffffffffffffffffffffffffffffffffffffffff168160000160009054906101000a900473ffffffffffffffffffffffffffffffffffffffff1673ffffffffffffffffffffffffffffffffffffffff161480156122195750848160020154145b80156122285750858160010154145b1561239d576122838160030154600260008b73ffffffffffffffffffffffffffffffffffffffff1673ffffffffffffffffffffffffffffffffffffffff168152602001908152602001600020546123c890919063ffffffff16565b600260008a73ffffffffffffffffffffffffffffffffffffffff1673ffffffffffffffffffffffffffffffffffffffff16815260200190815260200160002081905550826122df600185805490506120f990919063ffffffff16565b815481106122e957fe5b9060005260206000209060040201905082612312600185805490506120f990919063ffffffff16565b8154811061231c57fe5b9060005260206000209060040201600080820160006101000a81549073ffffffffffffffffffffffffffffffffffffffff02191690556001820160009055600282016000905560038201600090555050612384600184805490506120f990919063ffffffff16565b83816123909190612997565b50600193505050506123c0565b506123b26001826123c890919063ffffffff16565b905061218d565b5060009150505b949350505050565b600080828401905083811015612446576040517f08c379a000000000000000000000000000000000000000000000000000000000815260040180806020018281038252601b8152602001807f536166654d6174683a206164646974696f6e206f766572666c6f77000000000081525060200191505060405180910390fd5b8091505092915050565b600080600260008873ffffffffffffffffffffffffffffffffffffffff1673ffffffffffffffffffffffffffffffffffffffff16815260200190815260200160002054116124e9576040517f08c379a0000000000000000000000000000000000000000000000000000000008152600401808060200182810382526027815260200180612a666027913960400191505060405180910390fd5b6000600160008873ffffffffffffffffffffffffffffffffffffffff1673ffffffffffffffffffffffffffffffffffffffff168152602001908152602001600020905060008090505b81805490508110156126ae57600082828154811061254c57fe5b906000526020600020906004020190508773ffffffffffffffffffffffffffffffffffffffff168160000160009054906101000a900473ffffffffffffffffffffffffffffffffffffffff1673ffffffffffffffffffffffffffffffffffffffff161480156125be5750858160020154145b80156125cd5750868160010154145b15612692576125e98582600301546123c890919063ffffffff16565b816003018190555061264385600260008c73ffffffffffffffffffffffffffffffffffffffff1673ffffffffffffffffffffffffffffffffffffffff168152602001908152602001600020546120f990919063ffffffff16565b600260008b73ffffffffffffffffffffffffffffffffffffffff1673ffffffffffffffffffffffffffffffffffffffff16815260200190815260200160002081905550600193505050506128ce565b506126a76001826123c890919063ffffffff16565b9050612532565b506126b76129c9565b60405180608001604052808873ffffffffffffffffffffffffffffffffffffffff1681526020018781526020018681526020018581525090508180549050600060149054906101000a900460ff1660ff16111561275f576040517f08c379a0000000000000000000000000000000000000000000000000000000008152600401808060200182810382526021815260200180612ab16021913960400191505060405180910390fd5b600160008973ffffffffffffffffffffffffffffffffffffffff1673ffffffffffffffffffffffffffffffffffffffff168152602001908152602001600020819080600181540180825580915050906001820390600052602060002090600402016000909192909190915060008201518160000160006101000a81548173ffffffffffffffffffffffffffffffffffffffff021916908373ffffffffffffffffffffffffffffffffffffffff16021790555060208201518160010155604082015181600201556060820151816003015550505061288484600260008b73ffffffffffffffffffffffffffffffffffffffff1673ffffffffffffffffffffffffffffffffffffffff168152602001908152602001600020546120f990919063ffffffff16565b600260008a73ffffffffffffffffffffffffffffffffffffffff1673ffffffffffffffffffffffffffffffffffffffff168152602001908152602001600020819055506001925050505b95945050505050565b6000838311158290612984576040517f08c379a00000000000000000000000000000000000000000000000000000000081526004018080602001828103825283818151815260200191508051906020019080838360005b8381101561294957808201518184015260208101905061292e565b50505050905090810190601f1680156129765780820380516001836020036101000a031916815260200191505b509250505060405180910390fd5b5060008385039050809150509392505050565b8154818355818111156129c4576004028160040283600052602060002091820191016129c39190612a07565b5b505050565b6040518060800160405280600073ffffffffffffffffffffffffffffffffffffffff1681526020016000815260200160008152602001600081525090565b612a6291905b80821115612a5e57600080820160006101000a81549073ffffffffffffffffffffffffffffffffffffffff021916905560018201600090556002820160009055600382016000905550600401612a0d565b5090565b9056fe4c6f636b6564207368617265732063616e6e6f7420657863656564207468652062616c616e63654e6f207065726d697373696f6e20746f20696e766f6b652074686520436f6e747261637443616e6e6f742065786365656420746865206e756d626572206f66206c6f636b73a165627a7a72305820360611b1ebb487c4e1635fcfde1343d9ad1133b2b663ca6ea1065ac4b2969bc10029",
  "source": "pragma solidity >=0.4.22 <0.6.0;\r\n\r\nimport \"../Interface/IGovernShareManager.sol\";\r\nimport \"../apps/FutureDaoApp.sol\";\r\nimport \"../Interface/IERC20.sol\";\r\nimport \"../Interface/ITradeFundPool.sol\";\r\nimport \"../clearing/ClearingFundPool.sol\";\r\n\r\n\r\n/// @title \r\n/// @author viko\r\n/// @notice \r\ncontract GovernShareManager is FutureDaoApp , IGovernShareManager{\r\n    /// @notice \r\n    uint8 lockTimesLimit = 5;\r\n\r\n    /// @notice\r\n    mapping(address => SL[]) slMap;\r\n\r\n    /// @notice Fdt\r\n    mapping (address=>uint256) balances;\r\n\r\n    /// @notice \r\n    address payable public token;\r\n\r\n    bytes32 public constant GovernShareManager_Lock = keccak256(\"GovernShareManager_Lock\");\r\n    bytes32 public constant GovernShareManager_Free = keccak256(\"GovernShareManager_Free\");\r\n    bytes32 public constant GovernShareManager_SendEth = keccak256(\"GovernShareManager_SendEth\");\r\n    bytes32 public constant GovernShareManager_Clearing = keccak256(\"GovernShareManager_Clearing\");\r\n    bytes32 public constant GovernShareManager_ClearingFdt = keccak256(\"GovernShareManager_ClearingFdt\");\r\n\r\n\r\n    /// @notice \r\n    struct SL {\r\n        address contractAddress;\r\n        uint256 index;\r\n        uint256 expireDate;\r\n        uint256 lockAmount;\r\n    }\r\n\r\n    constructor(AppManager _appManager,address payable _token) public{\r\n        appManager = _appManager;\r\n        token = _token;\r\n    }\r\n\r\n    /// @notice \r\n    function getFdtInGovern(address _addr) public returns(uint256){\r\n        return balances[_addr];\r\n    }\r\n\r\n    /// @notice fdt\r\n    function getFdtTotalSupply() public returns(uint256){\r\n        return IERC20(token).totalSupply();\r\n    }\r\n\r\n    ///@notice tradefund\r\n    function setFdtIn(uint256 amount) public returns(bool) {\r\n        require(amount>0,\"amount need more than 0\");\r\n        bool r = IERC20(token).transferFrom(msg.sender,address(this),amount);\r\n        require(r,\"lock error\");\r\n        balances[msg.sender] = balances[msg.sender].add(amount);\r\n        return true;\r\n    }\r\n\r\n    ///@notice tradefund\r\n    function getFdtOut(uint256 amount) public returns(bool){\r\n        require(amount>0,'amount need more than 0');\r\n        require(balances[msg.sender]>=amount,\"The balance is not enough\");\r\n        //\r\n        _refreshSL(msg.sender);\r\n        bool r = IERC20(token).transfer(msg.sender,amount);\r\n        require(r,\"free error\");\r\n        balances[msg.sender] = balances[msg.sender].sub(amount);\r\n    }\r\n\r\n    /// @notice \r\n    function lock(address _lockAddr,uint256 _index,uint256 _expireDate,uint256 _lockAmount)\r\n    public\r\n    auth(GovernShareManager_Lock)\r\n    returns(bool)\r\n    {\r\n        //\r\n        _refreshSL(_lockAddr);\r\n        //\r\n        _addSL(_lockAddr,msg.sender,_index,_expireDate,_lockAmount);\r\n        return true;\r\n    }\r\n\r\n    /// @notice \r\n    function free(address _lockAddr,uint256 _index,uint256 _expireDate)\r\n    public\r\n    auth(GovernShareManager_Free)\r\n    returns(bool)\r\n    {\r\n        _delSL(_lockAddr,msg.sender,_index,_expireDate);\r\n    }\r\n\r\n    /// @notice fdt\r\n    function clearingFdt(address payable _addr_clearingFundPool,address _addr,uint256 amount) public auth(GovernShareManager_ClearingFdt)\r\n    returns(bool)\r\n    {\r\n        //\r\n        _refreshSL(_addr);\r\n        require(balances[_addr].sub(amount)>0,\"no money\");\r\n        IERC20(token).approve(_addr_clearingFundPool,amount);\r\n        bool r = ClearingFundPool(_addr_clearingFundPool).lock(_addr,amount);\r\n        balances[_addr] = balances[_addr].sub(amount);\r\n        require(r==true,\"error\");\r\n    }\r\n\r\n    /// @notice \r\n    function sendEth(address payable _addr,uint256 _value) public payable auth(GovernShareManager_SendEth) returns(bool){\r\n        ITradeFundPool(appManager.getTradeFundPool()).sendEth(_addr,_value);\r\n    }\r\n\r\n    /// @notice \r\n    function clearing(address payable _addr_clearingFundPool,uint256 _ratio) public payable auth(GovernShareManager_Clearing) returns(bool){\r\n        ITradeFundPool(appManager.getTradeFundPool()).clearing(_addr_clearingFundPool,_ratio);\r\n        return true;\r\n    }\r\n\r\n/////////////////////\r\n///\r\n////////////////////\r\n\r\n    /// @notice \r\n    function _addSL(\r\n        address _lockAddr,\r\n        address _contractAddr,\r\n        uint256 _index,\r\n        uint256 _expireDate,\r\n        uint256 _lockAmount\r\n    )\r\n    private\r\n    returns(bool)\r\n    {\r\n        //\r\n        require(balances[_lockAddr] > 0,\"Locked shares cannot exceed the balance\");\r\n        SL[] storage slQueue = slMap[_lockAddr];\r\n        for(uint256 i = 0;i<slQueue.length;i = i.add(1)){\r\n            SL storage _sl = slQueue[i];\r\n            if(_sl.contractAddress == _contractAddr && _sl.expireDate == _expireDate && _sl.index == _index){\r\n                _sl.lockAmount = _sl.lockAmount.add(_lockAmount);\r\n                balances[_lockAddr] = balances[_lockAddr].sub(_lockAmount);\r\n                return true;\r\n            }\r\n        }\r\n\r\n        SL memory sl = SL({\r\n            contractAddress : _contractAddr,\r\n            expireDate : _expireDate,\r\n            index : _index,\r\n            lockAmount : _lockAmount\r\n        });\r\n        //\r\n        require(lockTimesLimit <= slQueue.length,\"Cannot exceed the number of locks\");\r\n        slMap[_lockAddr].push(sl);\r\n        balances[_lockAddr] = balances[_lockAddr].sub(_lockAmount);\r\n        return true;\r\n    }\r\n\r\n    /// @notice \r\n    function _delSL(\r\n        address _lockAddr,\r\n        address _contractAddr,\r\n        uint256 _index,\r\n        uint256 _expireDate\r\n    )\r\n    private\r\n    returns(bool)\r\n    {\r\n        SL[] storage slQueue = slMap[_lockAddr];\r\n        for(uint256 i = 0;i < slQueue.length;i = i.add(1)){\r\n            SL storage _sl = slQueue[i];\r\n            if(_sl.contractAddress == _contractAddr && _sl.expireDate == _expireDate && _sl.index == _index){\r\n                balances[_lockAddr] = balances[_lockAddr].add(_sl.lockAmount);\r\n                _sl = slQueue[slQueue.length.sub(1)];\r\n                delete slQueue[slQueue.length.sub(1)];\r\n                slQueue.length = slQueue.length.sub(1);\r\n                return true;\r\n            }\r\n        }\r\n        return false;\r\n    }\r\n\r\n    /// @notice  \r\n    function _refreshSL(address _lockAddr) private {\r\n        SL[] storage slQueue = slMap[_lockAddr];\r\n        for(uint256 i = 0;i<slQueue.length;i = i.add(1)){\r\n            SL storage _sl = slQueue[i];\r\n            if(_sl.expireDate > now){\r\n                balances[_lockAddr] = balances[_lockAddr].add(_sl.lockAmount);\r\n                _sl = slQueue[slQueue.length.sub(1)];\r\n                delete slQueue[slQueue.length.sub(1)];\r\n                slQueue.length = slQueue.length.sub(1);\r\n            }\r\n        }\r\n    }\r\n\r\n/*\r\n    /// @notice \r\n    function callContract(address payable _addr,uint256 _value,bytes memory _execScript) public payable isWhiteAddress(msg.sender){\r\n        (bool success,) = _addr.call.value(_value)(_execScript);\r\n        require(success, \"call failed\");\r\n    }\r\n*/\r\n\r\n    function() external payable{\r\n    }\r\n}",
  "sourcePath": "D:/_______work/FD_Contract_ETH/fd/contracts/Govern/GovernShareManager.sol",
  "compiler": {
    "name": "solc",
    "version": "0.5.8+commit.23d335f2.Emscripten.clang"
  },
  "schemaVersion": "3.0.11",
  "updatedAt": "2019-09-04T09:54:15.880Z",
  "devdoc": {
    "methods": {}
  },
  "userdoc": {
    "methods": {
      "clearing(address,uint256)": {
        "notice": ""
      },
      "clearingFdt(address,address,uint256)": {
        "notice": "fdt"
      },
      "free(address,uint256,uint256)": {
        "notice": ""
      },
      "getFdtInGovern(address)": {
        "notice": ""
      },
      "getFdtOut(uint256)": {
        "notice": "tradefund"
      },
      "getFdtTotalSupply()": {
        "notice": "fdt"
      },
      "lock(address,uint256,uint256,uint256)": {
        "notice": ""
      },
      "sendEth(address,uint256)": {
        "notice": ""
      },
      "setFdtIn(uint256)": {
        "notice": "tradefund"
      }
    },
    "notice": ""
  }
}