{
  "contractName": "Govern_Proposal_ApplyFund",
  "abi": [
    {
      "constant": false,
      "inputs": [],
      "name": "getFdtTotalSupply",
      "outputs": [
        {
          "name": "",
          "type": "uint256"
        }
      ],
      "payable": false,
      "stateMutability": "nonpayable",
      "type": "function"
    },
    {
      "constant": true,
      "inputs": [],
      "name": "getAppManagerAddress",
      "outputs": [
        {
          "name": "",
          "type": "address"
        }
      ],
      "payable": false,
      "stateMutability": "view",
      "type": "function"
    },
    {
      "constant": false,
      "inputs": [
        {
          "name": "_addr",
          "type": "address"
        }
      ],
      "name": "getFdtInGovern",
      "outputs": [
        {
          "name": "",
          "type": "uint256"
        }
      ],
      "payable": false,
      "stateMutability": "nonpayable",
      "type": "function"
    },
    {
      "constant": true,
      "inputs": [],
      "name": "cur_clearingProposal",
      "outputs": [
        {
          "name": "index",
          "type": "uint256"
        },
        {
          "name": "startTime",
          "type": "uint256"
        },
        {
          "name": "proposer",
          "type": "address"
        },
        {
          "name": "totalFndAmount",
          "type": "uint256"
        },
        {
          "name": "address_clearingFundPool",
          "type": "address"
        },
        {
          "name": "pass",
          "type": "bool"
        },
        {
          "name": "process",
          "type": "bool"
        }
      ],
      "payable": false,
      "stateMutability": "view",
      "type": "function"
    },
    {
      "constant": true,
      "inputs": [],
      "name": "FundPool_PreMint",
      "outputs": [
        {
          "name": "",
          "type": "bytes32"
        }
      ],
      "payable": false,
      "stateMutability": "view",
      "type": "function"
    },
    {
      "constant": true,
      "inputs": [],
      "name": "proposalFee",
      "outputs": [
        {
          "name": "",
          "type": "uint256"
        }
      ],
      "payable": false,
      "stateMutability": "view",
      "type": "function"
    },
    {
      "constant": true,
      "inputs": [],
      "name": "EMPTY_PARAM_HASH",
      "outputs": [
        {
          "name": "",
          "type": "bytes32"
        }
      ],
      "payable": false,
      "stateMutability": "view",
      "type": "function"
    },
    {
      "constant": true,
      "inputs": [],
      "name": "deposit",
      "outputs": [
        {
          "name": "",
          "type": "uint256"
        }
      ],
      "payable": false,
      "stateMutability": "view",
      "type": "function"
    },
    {
      "constant": true,
      "inputs": [],
      "name": "appManager",
      "outputs": [
        {
          "name": "",
          "type": "address"
        }
      ],
      "payable": false,
      "stateMutability": "view",
      "type": "function"
    },
    {
      "inputs": [
        {
          "name": "_appManager",
          "type": "address"
        }
      ],
      "payable": false,
      "stateMutability": "nonpayable",
      "type": "constructor"
    },
    {
      "anonymous": false,
      "inputs": [
        {
          "indexed": false,
          "name": "index",
          "type": "uint256"
        },
        {
          "indexed": false,
          "name": "proposaler",
          "type": "address"
        },
        {
          "indexed": false,
          "name": "address_clearingFundPool",
          "type": "address"
        },
        {
          "indexed": false,
          "name": "startTime",
          "type": "uint256"
        }
      ],
      "name": "OnApplyClearingProposal",
      "type": "event"
    },
    {
      "anonymous": false,
      "inputs": [
        {
          "indexed": false,
          "name": "who",
          "type": "address"
        },
        {
          "indexed": false,
          "name": "index",
          "type": "uint256"
        },
        {
          "indexed": false,
          "name": "fndAmount",
          "type": "uint256"
        }
      ],
      "name": "OnVoteClearingProposal",
      "type": "event"
    },
    {
      "anonymous": false,
      "inputs": [
        {
          "indexed": false,
          "name": "index",
          "type": "uint256"
        },
        {
          "indexed": false,
          "name": "pass",
          "type": "bool"
        }
      ],
      "name": "OnProcessClearingProposal",
      "type": "event"
    },
    {
      "constant": false,
      "inputs": [],
      "name": "applyClearingProposal",
      "outputs": [],
      "payable": true,
      "stateMutability": "payable",
      "type": "function"
    },
    {
      "constant": false,
      "inputs": [],
      "name": "voteClearingProposal",
      "outputs": [],
      "payable": false,
      "stateMutability": "nonpayable",
      "type": "function"
    },
    {
      "constant": false,
      "inputs": [],
      "name": "processClearingProposal",
      "outputs": [],
      "payable": false,
      "stateMutability": "nonpayable",
      "type": "function"
    }
  ],
  "bytecode": "0x608060405262093a8060015567016345785d8a000060025567016345785d8a00006003556203f48060045534801561003657600080fd5b506040516020806132168339810180604052602081101561005657600080fd5b8101908080519060200190929190505050806000806101000a81548173ffffffffffffffffffffffffffffffffffffffff021916908373ffffffffffffffffffffffffffffffffffffffff1602179055505061315f806100b76000396000f3fe6080604052600436106100a65760003560e01c8063aa79f71c11610064578063aa79f71c146101ca578063b710ffc01461027f578063c27cabb5146102aa578063c513f66e146102d5578063d0e30db014610300578063ebe86c131461032b576100a6565b80625bc885146100ab57806308731cfe146100c2578063094413f8146100ed5780631d63a0dc146100f75780634c3300771461010e578063578f6a6214610165575b600080fd5b3480156100b757600080fd5b506100c0610382565b005b3480156100ce57600080fd5b506100d7610813565b6040518082815260200191505060405180910390f35b6100f561093e565b005b34801561010357600080fd5b5061010c611086565b005b34801561011a57600080fd5b50610123611600565b604051808273ffffffffffffffffffffffffffffffffffffffff1673ffffffffffffffffffffffffffffffffffffffff16815260200191505060405180910390f35b34801561017157600080fd5b506101b46004803603602081101561018857600080fd5b81019080803573ffffffffffffffffffffffffffffffffffffffff169060200190929190505050611629565b6040518082815260200191505060405180910390f35b3480156101d657600080fd5b506101df61178d565b604051808881526020018781526020018673ffffffffffffffffffffffffffffffffffffffff1673ffffffffffffffffffffffffffffffffffffffff1681526020018581526020018473ffffffffffffffffffffffffffffffffffffffff1673ffffffffffffffffffffffffffffffffffffffff168152602001831515151581526020018215151515815260200197505050505050505060405180910390f35b34801561028b57600080fd5b50610294611817565b6040518082815260200191505060405180910390f35b3480156102b657600080fd5b506102bf611850565b6040518082815260200191505060405180910390f35b3480156102e157600080fd5b506102ea611856565b6040518082815260200191505060405180910390f35b34801561030c57600080fd5b5061031561187d565b6040518082815260200191505060405180910390f35b34801561033757600080fd5b50610340611883565b604051808273ffffffffffffffffffffffffffffffffffffffff1673ffffffffffffffffffffffffffffffffffffffff16815260200191505060405180910390f35b600061038d33611629565b11610400576040517f08c379a000000000000000000000000000000000000000000000000000000000815260040180806020018281038252600f8152602001807f6e6565642068617320736861726573000000000000000000000000000000000081525060200191505060405180910390fd5b600061040b33611629565b905060008111610483576040517f08c379a000000000000000000000000000000000000000000000000000000000815260040180806020018281038252601c8152602001807f666e64496e476f7665726e206e656564206d6f7265207468616e20300000000081525060200191505060405180910390fd5b60045460056002015401421115610502576040517f08c379a00000000000000000000000000000000000000000000000000000000081526004018080602001828103825260088152602001807f74696d65206f757400000000000000000000000000000000000000000000000081525060200191505060405180910390fd5b60008060009054906101000a900473ffffffffffffffffffffffffffffffffffffffff1673ffffffffffffffffffffffffffffffffffffffff1663bf7b00eb6040518163ffffffff1660e01b815260040160206040518083038186803b15801561056b57600080fd5b505afa15801561057f573d6000803e3d6000fd5b505050506040513d602081101561059557600080fd5b810190808051906020019092919050505073ffffffffffffffffffffffffffffffffffffffff1663b197aadf6005800160009054906101000a900473ffffffffffffffffffffffffffffffffffffffff1633856040518463ffffffff1660e01b8152600401808473ffffffffffffffffffffffffffffffffffffffff1673ffffffffffffffffffffffffffffffffffffffff1681526020018373ffffffffffffffffffffffffffffffffffffffff1673ffffffffffffffffffffffffffffffffffffffff1681526020018281526020019350505050602060405180830381600087803b15801561068457600080fd5b505af1158015610698573d6000803e3d6000fd5b505050506040513d60208110156106ae57600080fd5b8101908080519060200190929190505050905080610734576040517f08c379a000000000000000000000000000000000000000000000000000000000815260040180806020018281038252600a8152602001807f6c6f636b206572726f720000000000000000000000000000000000000000000081525060200191505060405180910390fd5b81600560010160003373ffffffffffffffffffffffffffffffffffffffff1673ffffffffffffffffffffffffffffffffffffffff16815260200190815260200160002060008282540192505081905550816005600401600082825401925050819055507fee256b1983e1701b3852bdc7ee6f3dcdd6d7556aadd194abb9ef9d0002dca29f3360056000015484604051808473ffffffffffffffffffffffffffffffffffffffff1673ffffffffffffffffffffffffffffffffffffffff168152602001838152602001828152602001935050505060405180910390a15050565b60008060009054906101000a900473ffffffffffffffffffffffffffffffffffffffff1673ffffffffffffffffffffffffffffffffffffffff1663bf7b00eb6040518163ffffffff1660e01b815260040160206040518083038186803b15801561087c57600080fd5b505afa158015610890573d6000803e3d6000fd5b505050506040513d60208110156108a657600080fd5b810190808051906020019092919050505073ffffffffffffffffffffffffffffffffffffffff166308731cfe6040518163ffffffff1660e01b8152600401602060405180830381600087803b1580156108fe57600080fd5b505af1158015610912573d6000803e3d6000fd5b505050506040513d602081101561092857600080fd5b8101908080519060200190929190505050905090565b600061094933611629565b116109bc576040517f08c379a000000000000000000000000000000000000000000000000000000000815260040180806020018281038252600f8152602001807f6e6565642068617320736861726573000000000000000000000000000000000081525060200191505060405180910390fd5b600073ffffffffffffffffffffffffffffffffffffffff16600560030160009054906101000a900473ffffffffffffffffffffffffffffffffffffffff1673ffffffffffffffffffffffffffffffffffffffff1614610a83576040517f08c379a000000000000000000000000000000000000000000000000000000000815260040180806020018281038252601c8152602001807f4f6e6c79206f6e652070726f706f73616c20697320616c6c6f7765640000000081525060200191505060405180910390fd5b60025460035401341015610aff576040517f08c379a00000000000000000000000000000000000000000000000000000000081526004018080602001828103825260108152602001807f6e6565642070726f706f73616c4665650000000000000000000000000000000081525060200191505060405180910390fd5b60008060009054906101000a900473ffffffffffffffffffffffffffffffffffffffff1673ffffffffffffffffffffffffffffffffffffffff1663bf7b00eb6040518163ffffffff1660e01b815260040160206040518083038186803b158015610b6857600080fd5b505afa158015610b7c573d6000803e3d6000fd5b505050506040513d6020811015610b9257600080fd5b81019080805190602001909291905050506000809054906101000a900473ffffffffffffffffffffffffffffffffffffffff1673ffffffffffffffffffffffffffffffffffffffff166357b7ac8f6040518163ffffffff1660e01b815260040160206040518083038186803b158015610c0a57600080fd5b505afa158015610c1e573d6000803e3d6000fd5b505050506040513d6020811015610c3457600080fd5b8101908080519060200190929190505050604051610c51906118a8565b808373ffffffffffffffffffffffffffffffffffffffff1673ffffffffffffffffffffffffffffffffffffffff1681526020018273ffffffffffffffffffffffffffffffffffffffff1673ffffffffffffffffffffffffffffffffffffffff16815260200192505050604051809103906000f080158015610cd6573d6000803e3d6000fd5b5090506040518060e00160405280600b8054905081526020014281526020013373ffffffffffffffffffffffffffffffffffffffff168152602001600081526020018273ffffffffffffffffffffffffffffffffffffffff168152602001600015158152602001600015158152506005600082015181600001556020820151816002015560408201518160030160006101000a81548173ffffffffffffffffffffffffffffffffffffffff021916908373ffffffffffffffffffffffffffffffffffffffff1602179055506060820151816004015560808201518160050160006101000a81548173ffffffffffffffffffffffffffffffffffffffff021916908373ffffffffffffffffffffffffffffffffffffffff16021790555060a08201518160050160146101000a81548160ff02191690831515021790555060c08201518160050160156101000a81548160ff021916908315150217905550905050600b60059080600181540180825580915050906001820390600052602060002090600602016000909192909190915060008201548160000155600282015481600201556003820160009054906101000a900473ffffffffffffffffffffffffffffffffffffffff168160030160006101000a81548173ffffffffffffffffffffffffffffffffffffffff021916908373ffffffffffffffffffffffffffffffffffffffff160217905550600482015481600401556005820160009054906101000a900473ffffffffffffffffffffffffffffffffffffffff168160050160006101000a81548173ffffffffffffffffffffffffffffffffffffffff021916908373ffffffffffffffffffffffffffffffffffffffff1602179055506005820160149054906101000a900460ff168160050160146101000a81548160ff0219169083151502179055506005820160159054906101000a900460ff168160050160156101000a81548160ff0219169083151502179055505050507f6cc1833e88837d24b28cfca01c8c5068f64f183607782a78a4693e506e10449c600560000154600560030160009054906101000a900473ffffffffffffffffffffffffffffffffffffffff1683600560020154604051808581526020018473ffffffffffffffffffffffffffffffffffffffff1673ffffffffffffffffffffffffffffffffffffffff1681526020018373ffffffffffffffffffffffffffffffffffffffff1673ffffffffffffffffffffffffffffffffffffffff16815260200182815260200194505050505060405180910390a150565b600454600560020154014211611104576040517f08c379a000000000000000000000000000000000000000000000000000000000815260040180806020018281038252601b8152602001807f697427732077697468696e20746865206578706972792064617465000000000081525060200191505060405180910390fd5b600015156005800160159054906101000a900460ff16151514611172576040517f08c379a000000000000000000000000000000000000000000000000000000000815260040180806020018281038252602781526020018061310d6027913960400191505060405180910390fd5b600061117c610813565b9050600081633b9aca00600560040154028161119457fe5b0490506311e1a3008110156111c55760006005800160146101000a81548160ff0219169083151502179055506113e2565b60016005800160146101000a81548160ff02191690831515021790555060008060009054906101000a900473ffffffffffffffffffffffffffffffffffffffff1673ffffffffffffffffffffffffffffffffffffffff1663bf7b00eb6040518163ffffffff1660e01b815260040160206040518083038186803b15801561124b57600080fd5b505afa15801561125f573d6000803e3d6000fd5b505050506040513d602081101561127557600080fd5b810190808051906020019092919050505073ffffffffffffffffffffffffffffffffffffffff16634f25e2a36005800160009054906101000a900473ffffffffffffffffffffffffffffffffffffffff16846040518363ffffffff1660e01b8152600401808373ffffffffffffffffffffffffffffffffffffffff1673ffffffffffffffffffffffffffffffffffffffff16815260200182815260200192505050602060405180830381600087803b15801561133057600080fd5b505af1158015611344573d6000803e3d6000fd5b505050506040513d602081101561135a57600080fd5b81019080805190602001909291905050509050806113e0576040517f08c379a000000000000000000000000000000000000000000000000000000000815260040180806020018281038252600b8152602001807f63616c6c206661696c656400000000000000000000000000000000000000000081525060200191505060405180910390fd5b505b60016005800160156101000a81548160ff0219169083151502179055503373ffffffffffffffffffffffffffffffffffffffff166108fc6003549081150290604051600060405180830381858888f19350505050158015611447573d6000803e3d6000fd5b507f088f923150a187251554ebec6f43f5fadc32406a6e85b04c648a7b7a078b8f096005600001546005800160149054906101000a900460ff1660405180838152602001821515151581526020019250505060405180910390a16040518060e001604052806000815260200160008152602001600073ffffffffffffffffffffffffffffffffffffffff16815260200160008152602001600073ffffffffffffffffffffffffffffffffffffffff168152602001600015158152602001600015158152506005600082015181600001556020820151816002015560408201518160030160006101000a81548173ffffffffffffffffffffffffffffffffffffffff021916908373ffffffffffffffffffffffffffffffffffffffff1602179055506060820151816004015560808201518160050160006101000a81548173ffffffffffffffffffffffffffffffffffffffff021916908373ffffffffffffffffffffffffffffffffffffffff16021790555060a08201518160050160146101000a81548160ff02191690831515021790555060c08201518160050160156101000a81548160ff0219169083151502179055509050505050565b60008060009054906101000a900473ffffffffffffffffffffffffffffffffffffffff16905090565b60008060009054906101000a900473ffffffffffffffffffffffffffffffffffffffff1673ffffffffffffffffffffffffffffffffffffffff1663bf7b00eb6040518163ffffffff1660e01b815260040160206040518083038186803b15801561169257600080fd5b505afa1580156116a6573d6000803e3d6000fd5b505050506040513d60208110156116bc57600080fd5b810190808051906020019092919050505073ffffffffffffffffffffffffffffffffffffffff1663578f6a62836040518263ffffffff1660e01b8152600401808273ffffffffffffffffffffffffffffffffffffffff1673ffffffffffffffffffffffffffffffffffffffff168152602001915050602060405180830381600087803b15801561174b57600080fd5b505af115801561175f573d6000803e3d6000fd5b505050506040513d602081101561177557600080fd5b81019080805190602001909291905050509050919050565b60058060000154908060020154908060030160009054906101000a900473ffffffffffffffffffffffffffffffffffffffff16908060040154908060050160009054906101000a900473ffffffffffffffffffffffffffffffffffffffff16908060050160149054906101000a900460ff16908060050160159054906101000a900460ff16905087565b60405180807f46756e64506f6f6c5f5072654d696e74000000000000000000000000000000008152506010019050604051809103902081565b60035481565b7f290decd9548b62a8d60345a988386fc84ba6bc95484008f6362f93160ef3e56360001b81565b60025481565b6000809054906101000a900473ffffffffffffffffffffffffffffffffffffffff1681565b611857806118b68339019056fe60806040526000600360006101000a81548160ff0219169083600281111561002357fe5b021790555034801561003457600080fd5b506040516040806118578339810180604052604081101561005457600080fd5b810190808051906020019092919080519060200190929190505050336000806101000a81548173ffffffffffffffffffffffffffffffffffffffff021916908373ffffffffffffffffffffffffffffffffffffffff16021790555060018060008060009054906101000a900473ffffffffffffffffffffffffffffffffffffffff1673ffffffffffffffffffffffffffffffffffffffff1673ffffffffffffffffffffffffffffffffffffffff16815260200190815260200160002060006101000a81548160ff021916908315150217905550816000806101000a81548173ffffffffffffffffffffffffffffffffffffffff021916908373ffffffffffffffffffffffffffffffffffffffff16021790555080600560006101000a81548173ffffffffffffffffffffffffffffffffffffffff021916908373ffffffffffffffffffffffffffffffffffffffff160217905550505061169e806101b96000396000f3fe60806040526004361061009b5760003560e01c80638e5bbaaa116100645780638e5bbaaa14610242578063a6f9dae11461026d578063c9b5bb17146102be578063d6b1598a1461030f578063e7cd4a0414610366578063f79dc128146103b75761009b565b80628dca6a1461009d5780632042e5c2146100d6578063282d3fdf146101275780633d0a40611461019a5780638da5cb5b146101eb575b005b3480156100a957600080fd5b506100b2610427565b604051808260028111156100c257fe5b60ff16815260200191505060405180910390f35b3480156100e257600080fd5b50610125600480360360208110156100f957600080fd5b81019080803573ffffffffffffffffffffffffffffffffffffffff16906020019092919050505061043a565b005b34801561013357600080fd5b506101806004803603604081101561014a57600080fd5b81019080803573ffffffffffffffffffffffffffffffffffffffff16906020019092919080359060200190929190505050610559565b604051808215151515815260200191505060405180910390f35b3480156101a657600080fd5b506101e9600480360360208110156101bd57600080fd5b81019080803573ffffffffffffffffffffffffffffffffffffffff169060200190929190505050610932565b005b3480156101f757600080fd5b50610200610c1d565b604051808273ffffffffffffffffffffffffffffffffffffffff1673ffffffffffffffffffffffffffffffffffffffff16815260200191505060405180910390f35b34801561024e57600080fd5b50610257610c42565b6040518082815260200191505060405180910390f35b34801561027957600080fd5b506102bc6004803603602081101561029057600080fd5b81019080803573ffffffffffffffffffffffffffffffffffffffff169060200190929190505050610c48565b005b3480156102ca57600080fd5b5061030d600480360360208110156102e157600080fd5b81019080803573ffffffffffffffffffffffffffffffffffffffff169060200190929190505050610df1565b005b34801561031b57600080fd5b506103246111b4565b604051808273ffffffffffffffffffffffffffffffffffffffff1673ffffffffffffffffffffffffffffffffffffffff16815260200191505060405180910390f35b34801561037257600080fd5b506103b56004803603602081101561038957600080fd5b81019080803573ffffffffffffffffffffffffffffffffffffffff1690602001909291905050506111da565b005b3480156103c357600080fd5b50610406600480360360208110156103da57600080fd5b81019080803573ffffffffffffffffffffffffffffffffffffffff1690602001909291905050506112f8565b60405180838152602001821515151581526020019250505060405180910390f35b600360009054906101000a900460ff1681565b336000809054906101000a900473ffffffffffffffffffffffffffffffffffffffff1673ffffffffffffffffffffffffffffffffffffffff168173ffffffffffffffffffffffffffffffffffffffff16146104fd576040517f08c379a00000000000000000000000000000000000000000000000000000000081526004018080602001828103825260118152602001807f5065726d697373696f6e2064656e69656400000000000000000000000000000081525060200191505060405180910390fd5b6000600160008473ffffffffffffffffffffffffffffffffffffffff1673ffffffffffffffffffffffffffffffffffffffff16815260200190815260200160002060006101000a81548160ff0219169083151502179055505050565b6000336000809054906101000a900473ffffffffffffffffffffffffffffffffffffffff1673ffffffffffffffffffffffffffffffffffffffff168173ffffffffffffffffffffffffffffffffffffffff161461061e576040517f08c379a00000000000000000000000000000000000000000000000000000000081526004018080602001828103825260118152602001807f5065726d697373696f6e2064656e69656400000000000000000000000000000081525060200191505060405180910390fd5b6000600281111561062b57fe5b600360009054906101000a900460ff16600281111561064657fe5b146106b9576040517f08c379a00000000000000000000000000000000000000000000000000000000081526004018080602001828103825260178152602001807f636c656172696e67526573756c742069732077726f6e6700000000000000000081525060200191505060405180910390fd5b6000600560009054906101000a900473ffffffffffffffffffffffffffffffffffffffff1673ffffffffffffffffffffffffffffffffffffffff166323b872dd6000809054906101000a900473ffffffffffffffffffffffffffffffffffffffff1630876040518463ffffffff1660e01b8152600401808473ffffffffffffffffffffffffffffffffffffffff1673ffffffffffffffffffffffffffffffffffffffff1681526020018373ffffffffffffffffffffffffffffffffffffffff1673ffffffffffffffffffffffffffffffffffffffff1681526020018281526020019350505050602060405180830381600087803b1580156107b957600080fd5b505af11580156107cd573d6000803e3d6000fd5b505050506040513d60208110156107e357600080fd5b810190808051906020019092919050505090506001151581151514610870576040517f08c379a00000000000000000000000000000000000000000000000000000000081526004018080602001828103825260058152602001807f6572726f7200000000000000000000000000000000000000000000000000000081525060200191505060405180910390fd5b6108c584600260008873ffffffffffffffffffffffffffffffffffffffff1673ffffffffffffffffffffffffffffffffffffffff1681526020019081526020016000206000015461132990919063ffffffff16565b600260008773ffffffffffffffffffffffffffffffffffffffff1673ffffffffffffffffffffffffffffffffffffffff168152602001908152602001600020600001819055506109208460045461132990919063ffffffff16565b60048190555060019250505092915050565b6001600281111561093f57fe5b600360009054906101000a900460ff16600281111561095a57fe5b146109cd576040517f08c379a00000000000000000000000000000000000000000000000000000000081526004018080602001828103825260178152602001807f636c656172696e67526573756c742069732077726f6e6700000000000000000081525060200191505060405180910390fd5b60001515600260008373ffffffffffffffffffffffffffffffffffffffff1673ffffffffffffffffffffffffffffffffffffffff16815260200190815260200160002060010160009054906101000a900460ff16151514610a96576040517f08c379a00000000000000000000000000000000000000000000000000000000081526004018080602001828103825260148152602001807f4e6f2072657065617420636f6c6c656374696f6e00000000000000000000000081525060200191505060405180910390fd5b6000610b18600454610b0a3073ffffffffffffffffffffffffffffffffffffffff1631600260008773ffffffffffffffffffffffffffffffffffffffff1673ffffffffffffffffffffffffffffffffffffffff168152602001908152602001600020600001546113b190919063ffffffff16565b61143790919063ffffffff16565b90508173ffffffffffffffffffffffffffffffffffffffff166108fc829081150290604051600060405180830381858888f19350505050158015610b60573d6000803e3d6000fd5b506001600260008473ffffffffffffffffffffffffffffffffffffffff1673ffffffffffffffffffffffffffffffffffffffff16815260200190815260200160002060010160006101000a81548160ff021916908315150217905550610c13600260008473ffffffffffffffffffffffffffffffffffffffff1673ffffffffffffffffffffffffffffffffffffffff1681526020019081526020016000206000015460045461148190919063ffffffff16565b6004819055505050565b6000809054906101000a900473ffffffffffffffffffffffffffffffffffffffff1681565b60045481565b336000809054906101000a900473ffffffffffffffffffffffffffffffffffffffff1673ffffffffffffffffffffffffffffffffffffffff168173ffffffffffffffffffffffffffffffffffffffff1614610d0b576040517f08c379a00000000000000000000000000000000000000000000000000000000081526004018080602001828103825260118152602001807f5065726d697373696f6e2064656e69656400000000000000000000000000000081525060200191505060405180910390fd5b8173ffffffffffffffffffffffffffffffffffffffff163373ffffffffffffffffffffffffffffffffffffffff161415610dad576040517f08c379a00000000000000000000000000000000000000000000000000000000081526004018080602001828103825260128152602001807f4e6565642061206e65772061646472657373000000000000000000000000000081525060200191505060405180910390fd5b816000806101000a81548173ffffffffffffffffffffffffffffffffffffffff021916908373ffffffffffffffffffffffffffffffffffffffff1602179055505050565b600280811115610dfd57fe5b600360009054906101000a900460ff166002811115610e1857fe5b14610e8b576040517f08c379a00000000000000000000000000000000000000000000000000000000081526004018080602001828103825260178152602001807f636c656172696e67526573756c742069732077726f6e6700000000000000000081525060200191505060405180910390fd5b60001515600260008373ffffffffffffffffffffffffffffffffffffffff1673ffffffffffffffffffffffffffffffffffffffff16815260200190815260200160002060010160009054906101000a900460ff16151514610f54576040517f08c379a00000000000000000000000000000000000000000000000000000000081526004018080602001828103825260148152602001807f4e6f2072657065617420636f6c6c656374696f6e00000000000000000000000081525060200191505060405180910390fd5b6000600560009054906101000a900473ffffffffffffffffffffffffffffffffffffffff1673ffffffffffffffffffffffffffffffffffffffff1663a9059cbb83600260008673ffffffffffffffffffffffffffffffffffffffff1673ffffffffffffffffffffffffffffffffffffffff168152602001908152602001600020600001546040518363ffffffff1660e01b8152600401808373ffffffffffffffffffffffffffffffffffffffff1673ffffffffffffffffffffffffffffffffffffffff16815260200182815260200192505050602060405180830381600087803b15801561104157600080fd5b505af1158015611055573d6000803e3d6000fd5b505050506040513d602081101561106b57600080fd5b8101908080519060200190929190505050905060011515811515146110f8576040517f08c379a00000000000000000000000000000000000000000000000000000000081526004018080602001828103825260058152602001807f6572726f7200000000000000000000000000000000000000000000000000000081525060200191505060405180910390fd5b6001600260008473ffffffffffffffffffffffffffffffffffffffff1673ffffffffffffffffffffffffffffffffffffffff16815260200190815260200160002060010160006101000a81548160ff0219169083151502179055506111aa600260008473ffffffffffffffffffffffffffffffffffffffff1673ffffffffffffffffffffffffffffffffffffffff1681526020019081526020016000206000015460045461148190919063ffffffff16565b6004819055505050565b600560009054906101000a900473ffffffffffffffffffffffffffffffffffffffff1681565b336000809054906101000a900473ffffffffffffffffffffffffffffffffffffffff1673ffffffffffffffffffffffffffffffffffffffff168173ffffffffffffffffffffffffffffffffffffffff161461129d576040517f08c379a00000000000000000000000000000000000000000000000000000000081526004018080602001828103825260118152602001807f5065726d697373696f6e2064656e69656400000000000000000000000000000081525060200191505060405180910390fd5b60018060008473ffffffffffffffffffffffffffffffffffffffff1673ffffffffffffffffffffffffffffffffffffffff16815260200190815260200160002060006101000a81548160ff0219169083151502179055505050565b60026020528060005260406000206000915090508060000154908060010160009054906101000a900460ff16905082565b6000808284019050838110156113a7576040517f08c379a000000000000000000000000000000000000000000000000000000000815260040180806020018281038252601b8152602001807f536166654d6174683a206164646974696f6e206f766572666c6f77000000000081525060200191505060405180910390fd5b8091505092915050565b6000808314156113c45760009050611431565b60008284029050828482816113d557fe5b041461142c576040517f08c379a00000000000000000000000000000000000000000000000000000000081526004018080602001828103825260218152602001806116526021913960400191505060405180910390fd5b809150505b92915050565b600061147983836040518060400160405280601a81526020017f536166654d6174683a206469766973696f6e206279207a65726f0000000000008152506114cb565b905092915050565b60006114c383836040518060400160405280601e81526020017f536166654d6174683a207375627472616374696f6e206f766572666c6f770000815250611591565b905092915050565b60008083118290611577576040517f08c379a00000000000000000000000000000000000000000000000000000000081526004018080602001828103825283818151815260200191508051906020019080838360005b8381101561153c578082015181840152602081019050611521565b50505050905090810190601f1680156115695780820380516001836020036101000a031916815260200191505b509250505060405180910390fd5b50600083858161158357fe5b049050809150509392505050565b600083831115829061163e576040517f08c379a00000000000000000000000000000000000000000000000000000000081526004018080602001828103825283818151815260200191508051906020019080838360005b838110156116035780820151818401526020810190506115e8565b50505050905090810190601f1680156116305780820380516001836020036101000a031916815260200191505b509250505060405180910390fd5b506000838503905080915050939250505056fe536166654d6174683a206d756c7469706c69636174696f6e206f766572666c6f77a165627a7a723058208ac1acd9f7556e3f639a7f16b63ffae14d0634a76525bf473fe19904051d43d600296e656564732070726f706f73616c732068617665206e6f74206265656e20616464726573736564a165627a7a723058202cd1000939039bc5804bf433abce99e62ec6c5331aaf9f7f5a944275bf11b0640029",
  "source": "pragma solidity >=0.4.22 <0.6.0;\r\n\r\nimport \"./VoteApp.sol\";\r\nimport \"../clearing/ClearingFundPool.sol\";\r\n\r\ncontract Govern_Proposal_ApplyFund is VoteApp{\r\n\r\n    /// @notice 3\r\n    uint256 clearingVotingPeriodLehgth = 3 days;\r\n\r\n    /// @notice   \r\n    ClearingProposal public cur_clearingProposal;\r\n    \r\n    /// @notice \r\n    ClearingProposal[] clearingProposalQueue;\r\n\r\n    /// @notice \r\n    struct ClearingProposal{\r\n        uint256 index;\r\n        mapping(address => uint256) clearingList;//\r\n        uint256 startTime;//\r\n        address proposer;//\r\n        uint256 totalFndAmount;//\r\n        address payable address_clearingFundPool;\r\n        bool pass; //\r\n        bool process; //\r\n    }\r\n\r\n    /// @notice \r\n    event OnApplyClearingProposal(\r\n        uint256 index,\r\n        address proposaler,\r\n        address payable address_clearingFundPool,\r\n        uint256 startTime\r\n    );\r\n\r\n    /// @param who \r\n    /// @param index \r\n    /// @param voteResult \r\n    /// @param fndAmount \r\n    event OnVoteClearingProposal(\r\n        address who,\r\n        uint256 index,\r\n        uint256 fndAmount\r\n    );\r\n\r\n    /// @param index  , pass \r\n    event OnProcessClearingProposal(\r\n        uint256 index,\r\n        bool pass\r\n    );\r\n\r\n    constructor(AppManager _appManager) public{\r\n        appManager = _appManager;\r\n    }\r\n\r\n    modifier ownFnd() {\r\n        require(getFdtInGovern(msg.sender)>0, \"need has shares\");\r\n        _;\r\n    }\r\n\r\n    /// @notice \r\n    /// @dev \r\n    function applyClearingProposal() public payable ownFnd(){\r\n        //\r\n        require(cur_clearingProposal.proposer == address(0),\"Only one proposal is allowed\");\r\n        //gas\r\n        require(msg.value >= proposalFee + deposit, \"need proposalFee\");\r\n\r\n        ClearingFundPool _clearingFundPool = new ClearingFundPool(appManager.getGovernShareManager(),appManager.getFdToken());\r\n\r\n        cur_clearingProposal = ClearingProposal({\r\n            index : clearingProposalQueue.length,\r\n            proposer : msg.sender,\r\n            totalFndAmount : 0,\r\n            startTime : now,\r\n            pass : false,\r\n            process :false,\r\n            address_clearingFundPool : address(_clearingFundPool)\r\n        });\r\n\r\n        clearingProposalQueue.push(cur_clearingProposal);\r\n\r\n        emit OnApplyClearingProposal(\r\n            cur_clearingProposal.index,\r\n            cur_clearingProposal.proposer,\r\n            address(_clearingFundPool),\r\n            cur_clearingProposal.startTime\r\n        );\r\n    }\r\n\r\n    /// @notice \r\n    function voteClearingProposal() public ownFnd(){\r\n        uint256 fndInGovern = getFdtInGovern(msg.sender);\r\n        require(fndInGovern > 0,\"fndInGovern need more than 0\");\r\n        //7\r\n        require(now <= cur_clearingProposal.startTime + clearingVotingPeriodLehgth,\"time out\");\r\n\r\n\r\n        bool r = IGovernShareManager(appManager.getGovernShareManager())\r\n        .clearingFdt(cur_clearingProposal.address_clearingFundPool,msg.sender,fndInGovern);\r\n        require(r,\"lock error\");\r\n\r\n        cur_clearingProposal.clearingList[msg.sender] += fndInGovern;\r\n        cur_clearingProposal.totalFndAmount += fndInGovern;\r\n\r\n        emit OnVoteClearingProposal(msg.sender,cur_clearingProposal.index,fndInGovern);\r\n    }\r\n\r\n    /// @notice \r\n    function processClearingProposal() public{\r\n        //7\r\n        require(now > cur_clearingProposal.startTime + clearingVotingPeriodLehgth,\"it's within the expiry date\");\r\n        require(cur_clearingProposal.process == false, \"needs proposals have not been addressed\");\r\n        //fnd\r\n        uint256 totalFnd = getFdtTotalSupply();\r\n        uint hold = cur_clearingProposal.totalFndAmount * (10 ** 9) / totalFnd;\r\n        if(hold < (3*(10**8))){\r\n            cur_clearingProposal.pass = false;\r\n        }\r\n        else{\r\n            cur_clearingProposal.pass = true;\r\n            //\r\n            //fundpool\r\n            bool r = IGovernShareManager(appManager.getGovernShareManager()).clearing(cur_clearingProposal.address_clearingFundPool,hold);\r\n            require(r, \"call failed\");\r\n        }\r\n        //\r\n        cur_clearingProposal.process = true;\r\n        //\r\n        msg.sender.transfer(proposalFee);\r\n        //\r\n        emit OnProcessClearingProposal(\r\n            cur_clearingProposal.index,\r\n            cur_clearingProposal.pass\r\n        );\r\n\r\n        //\r\n        cur_clearingProposal = ClearingProposal({\r\n            index : 0,\r\n            proposer : address(0),\r\n            address_clearingFundPool : address(0),\r\n            totalFndAmount : 0,\r\n            startTime : 0,\r\n            pass : false,\r\n            process : false\r\n        });\r\n    }\r\n}",
  "sourcePath": "D:/_______work/FD_Contract_ETH/fd/contracts/Vote/Vote_Clearing.sol",
  "compiler": {
    "name": "solc",
    "version": "0.5.8+commit.23d335f2.Emscripten.clang"
  },
  "schemaVersion": "3.0.11",
  "updatedAt": "2019-09-04T09:44:07.631Z",
  "devdoc": {
    "methods": {
      "applyClearingProposal()": {
        "details": ""
      }
    }
  },
  "userdoc": {
    "methods": {
      "getFdtInGovern(address)": {
        "notice": ""
      },
      "getFdtTotalSupply()": {
        "notice": ""
      },
      "processClearingProposal()": {
        "notice": ""
      },
      "voteClearingProposal()": {
        "notice": ""
      }
    }
  }
}