{
  "contractName": "Govern_Proposal_ApplyFund",
  "abi": [
    {
      "constant": true,
      "inputs": [],
      "name": "getFdtTotalSupply",
      "outputs": [
        {
          "name": "",
          "type": "uint256"
        }
      ],
      "payable": false,
      "stateMutability": "view",
      "type": "function"
    },
    {
      "constant": true,
      "inputs": [],
      "name": "getAppManagerAddress",
      "outputs": [
        {
          "name": "",
          "type": "address"
        }
      ],
      "payable": false,
      "stateMutability": "view",
      "type": "function"
    },
    {
      "constant": true,
      "inputs": [
        {
          "name": "_addr",
          "type": "address"
        }
      ],
      "name": "getFdtInGovern",
      "outputs": [
        {
          "name": "",
          "type": "uint256"
        }
      ],
      "payable": false,
      "stateMutability": "view",
      "type": "function"
    },
    {
      "constant": true,
      "inputs": [],
      "name": "cur_clearingProposal",
      "outputs": [
        {
          "name": "index",
          "type": "uint256"
        },
        {
          "name": "startTime",
          "type": "uint256"
        },
        {
          "name": "proposer",
          "type": "address"
        },
        {
          "name": "totalFndAmount",
          "type": "uint256"
        },
        {
          "name": "address_clearingFundPool",
          "type": "address"
        },
        {
          "name": "pass",
          "type": "bool"
        },
        {
          "name": "process",
          "type": "bool"
        }
      ],
      "payable": false,
      "stateMutability": "view",
      "type": "function"
    },
    {
      "constant": true,
      "inputs": [],
      "name": "FundPool_PreMint",
      "outputs": [
        {
          "name": "",
          "type": "bytes32"
        }
      ],
      "payable": false,
      "stateMutability": "view",
      "type": "function"
    },
    {
      "constant": true,
      "inputs": [],
      "name": "proposalFee",
      "outputs": [
        {
          "name": "",
          "type": "uint256"
        }
      ],
      "payable": false,
      "stateMutability": "view",
      "type": "function"
    },
    {
      "constant": true,
      "inputs": [],
      "name": "EMPTY_PARAM_HASH",
      "outputs": [
        {
          "name": "",
          "type": "bytes32"
        }
      ],
      "payable": false,
      "stateMutability": "view",
      "type": "function"
    },
    {
      "constant": true,
      "inputs": [],
      "name": "deposit",
      "outputs": [
        {
          "name": "",
          "type": "uint256"
        }
      ],
      "payable": false,
      "stateMutability": "view",
      "type": "function"
    },
    {
      "constant": true,
      "inputs": [],
      "name": "appManager",
      "outputs": [
        {
          "name": "",
          "type": "address"
        }
      ],
      "payable": false,
      "stateMutability": "view",
      "type": "function"
    },
    {
      "inputs": [
        {
          "name": "_appManager",
          "type": "address"
        }
      ],
      "payable": false,
      "stateMutability": "nonpayable",
      "type": "constructor"
    },
    {
      "anonymous": false,
      "inputs": [
        {
          "indexed": false,
          "name": "index",
          "type": "uint256"
        },
        {
          "indexed": false,
          "name": "proposaler",
          "type": "address"
        },
        {
          "indexed": false,
          "name": "address_clearingFundPool",
          "type": "address"
        },
        {
          "indexed": false,
          "name": "startTime",
          "type": "uint256"
        }
      ],
      "name": "OnApplyClearingProposal",
      "type": "event"
    },
    {
      "anonymous": false,
      "inputs": [
        {
          "indexed": false,
          "name": "who",
          "type": "address"
        },
        {
          "indexed": false,
          "name": "index",
          "type": "uint256"
        },
        {
          "indexed": false,
          "name": "fndAmount",
          "type": "uint256"
        }
      ],
      "name": "OnVoteClearingProposal",
      "type": "event"
    },
    {
      "anonymous": false,
      "inputs": [
        {
          "indexed": false,
          "name": "index",
          "type": "uint256"
        },
        {
          "indexed": false,
          "name": "pass",
          "type": "bool"
        }
      ],
      "name": "OnProcessClearingProposal",
      "type": "event"
    },
    {
      "constant": false,
      "inputs": [],
      "name": "applyClearingProposal",
      "outputs": [],
      "payable": true,
      "stateMutability": "payable",
      "type": "function"
    },
    {
      "constant": false,
      "inputs": [],
      "name": "voteClearingProposal",
      "outputs": [],
      "payable": false,
      "stateMutability": "nonpayable",
      "type": "function"
    },
    {
      "constant": false,
      "inputs": [],
      "name": "processClearingProposal",
      "outputs": [],
      "payable": false,
      "stateMutability": "nonpayable",
      "type": "function"
    }
  ],
  "bytecode": "0x608060405261012c60015561021c60025567016345785d8a000060035567016345785d8a000060045534801561003457600080fd5b5060405160208061339d8339810180604052602081101561005457600080fd5b81019080805190602001909291905050506000809054906101000a900473ffffffffffffffffffffffffffffffffffffffff16806000806101000a81548173ffffffffffffffffffffffffffffffffffffffff021916908373ffffffffffffffffffffffffffffffffffffffff16021790555050506132c5806100d86000396000f3fe6080604052600436106100a65760003560e01c8063aa79f71c11610064578063aa79f71c146101ca578063b710ffc01461027f578063c27cabb5146102aa578063c513f66e146102d5578063d0e30db014610300578063ebe86c131461032b576100a6565b80625bc885146100ab57806308731cfe146100c2578063094413f8146100ed5780631d63a0dc146100f75780634c3300771461010e578063578f6a6214610165575b600080fd5b3480156100b757600080fd5b506100c0610382565b005b3480156100ce57600080fd5b506100d7610813565b6040518082815260200191505060405180910390f35b6100f561093c565b005b34801561010357600080fd5b5061010c611084565b005b34801561011a57600080fd5b506101236115fe565b604051808273ffffffffffffffffffffffffffffffffffffffff1673ffffffffffffffffffffffffffffffffffffffff16815260200191505060405180910390f35b34801561017157600080fd5b506101b46004803603602081101561018857600080fd5b81019080803573ffffffffffffffffffffffffffffffffffffffff169060200190929190505050611627565b6040518082815260200191505060405180910390f35b3480156101d657600080fd5b506101df611789565b604051808881526020018781526020018673ffffffffffffffffffffffffffffffffffffffff1673ffffffffffffffffffffffffffffffffffffffff1681526020018581526020018473ffffffffffffffffffffffffffffffffffffffff1673ffffffffffffffffffffffffffffffffffffffff168152602001831515151581526020018215151515815260200197505050505050505060405180910390f35b34801561028b57600080fd5b50610294611813565b6040518082815260200191505060405180910390f35b3480156102b657600080fd5b506102bf61184c565b6040518082815260200191505060405180910390f35b3480156102e157600080fd5b506102ea611852565b6040518082815260200191505060405180910390f35b34801561030c57600080fd5b50610315611879565b6040518082815260200191505060405180910390f35b34801561033757600080fd5b5061034061187f565b604051808273ffffffffffffffffffffffffffffffffffffffff1673ffffffffffffffffffffffffffffffffffffffff16815260200191505060405180910390f35b600061038d33611627565b11610400576040517f08c379a000000000000000000000000000000000000000000000000000000000815260040180806020018281038252600f8152602001807f6e6565642068617320736861726573000000000000000000000000000000000081525060200191505060405180910390fd5b600061040b33611627565b905060008111610483576040517f08c379a000000000000000000000000000000000000000000000000000000000815260040180806020018281038252601c8152602001807f666474496e476f7665726e206e656564206d6f7265207468616e20300000000081525060200191505060405180910390fd5b60015460056002015401421115610502576040517f08c379a00000000000000000000000000000000000000000000000000000000081526004018080602001828103825260088152602001807f74696d65206f757400000000000000000000000000000000000000000000000081525060200191505060405180910390fd5b60008060009054906101000a900473ffffffffffffffffffffffffffffffffffffffff1673ffffffffffffffffffffffffffffffffffffffff1663bf7b00eb6040518163ffffffff1660e01b815260040160206040518083038186803b15801561056b57600080fd5b505afa15801561057f573d6000803e3d6000fd5b505050506040513d602081101561059557600080fd5b810190808051906020019092919050505073ffffffffffffffffffffffffffffffffffffffff1663b197aadf6005800160009054906101000a900473ffffffffffffffffffffffffffffffffffffffff1633856040518463ffffffff1660e01b8152600401808473ffffffffffffffffffffffffffffffffffffffff1673ffffffffffffffffffffffffffffffffffffffff1681526020018373ffffffffffffffffffffffffffffffffffffffff1673ffffffffffffffffffffffffffffffffffffffff1681526020018281526020019350505050602060405180830381600087803b15801561068457600080fd5b505af1158015610698573d6000803e3d6000fd5b505050506040513d60208110156106ae57600080fd5b8101908080519060200190929190505050905080610734576040517f08c379a000000000000000000000000000000000000000000000000000000000815260040180806020018281038252600a8152602001807f6c6f636b206572726f720000000000000000000000000000000000000000000081525060200191505060405180910390fd5b81600560010160003373ffffffffffffffffffffffffffffffffffffffff1673ffffffffffffffffffffffffffffffffffffffff16815260200190815260200160002060008282540192505081905550816005600401600082825401925050819055507fee256b1983e1701b3852bdc7ee6f3dcdd6d7556aadd194abb9ef9d0002dca29f3360056000015484604051808473ffffffffffffffffffffffffffffffffffffffff1673ffffffffffffffffffffffffffffffffffffffff168152602001838152602001828152602001935050505060405180910390a15050565b60008060009054906101000a900473ffffffffffffffffffffffffffffffffffffffff1673ffffffffffffffffffffffffffffffffffffffff1663bf7b00eb6040518163ffffffff1660e01b815260040160206040518083038186803b15801561087c57600080fd5b505afa158015610890573d6000803e3d6000fd5b505050506040513d60208110156108a657600080fd5b810190808051906020019092919050505073ffffffffffffffffffffffffffffffffffffffff166308731cfe6040518163ffffffff1660e01b815260040160206040518083038186803b1580156108fc57600080fd5b505afa158015610910573d6000803e3d6000fd5b505050506040513d602081101561092657600080fd5b8101908080519060200190929190505050905090565b600061094733611627565b116109ba576040517f08c379a000000000000000000000000000000000000000000000000000000000815260040180806020018281038252600f8152602001807f6e6565642068617320736861726573000000000000000000000000000000000081525060200191505060405180910390fd5b600073ffffffffffffffffffffffffffffffffffffffff16600560030160009054906101000a900473ffffffffffffffffffffffffffffffffffffffff1673ffffffffffffffffffffffffffffffffffffffff1614610a81576040517f08c379a000000000000000000000000000000000000000000000000000000000815260040180806020018281038252601c8152602001807f4f6e6c79206f6e652070726f706f73616c20697320616c6c6f7765640000000081525060200191505060405180910390fd5b60035460045401341015610afd576040517f08c379a00000000000000000000000000000000000000000000000000000000081526004018080602001828103825260108152602001807f6e6565642070726f706f73616c4665650000000000000000000000000000000081525060200191505060405180910390fd5b60008060009054906101000a900473ffffffffffffffffffffffffffffffffffffffff1673ffffffffffffffffffffffffffffffffffffffff1663bf7b00eb6040518163ffffffff1660e01b815260040160206040518083038186803b158015610b6657600080fd5b505afa158015610b7a573d6000803e3d6000fd5b505050506040513d6020811015610b9057600080fd5b81019080805190602001909291905050506000809054906101000a900473ffffffffffffffffffffffffffffffffffffffff1673ffffffffffffffffffffffffffffffffffffffff166357b7ac8f6040518163ffffffff1660e01b815260040160206040518083038186803b158015610c0857600080fd5b505afa158015610c1c573d6000803e3d6000fd5b505050506040513d6020811015610c3257600080fd5b8101908080519060200190929190505050604051610c4f906118a4565b808373ffffffffffffffffffffffffffffffffffffffff1673ffffffffffffffffffffffffffffffffffffffff1681526020018273ffffffffffffffffffffffffffffffffffffffff1673ffffffffffffffffffffffffffffffffffffffff16815260200192505050604051809103906000f080158015610cd4573d6000803e3d6000fd5b5090506040518060e00160405280600b8054905081526020014281526020013373ffffffffffffffffffffffffffffffffffffffff168152602001600081526020018273ffffffffffffffffffffffffffffffffffffffff168152602001600015158152602001600015158152506005600082015181600001556020820151816002015560408201518160030160006101000a81548173ffffffffffffffffffffffffffffffffffffffff021916908373ffffffffffffffffffffffffffffffffffffffff1602179055506060820151816004015560808201518160050160006101000a81548173ffffffffffffffffffffffffffffffffffffffff021916908373ffffffffffffffffffffffffffffffffffffffff16021790555060a08201518160050160146101000a81548160ff02191690831515021790555060c08201518160050160156101000a81548160ff021916908315150217905550905050600b60059080600181540180825580915050906001820390600052602060002090600602016000909192909190915060008201548160000155600282015481600201556003820160009054906101000a900473ffffffffffffffffffffffffffffffffffffffff168160030160006101000a81548173ffffffffffffffffffffffffffffffffffffffff021916908373ffffffffffffffffffffffffffffffffffffffff160217905550600482015481600401556005820160009054906101000a900473ffffffffffffffffffffffffffffffffffffffff168160050160006101000a81548173ffffffffffffffffffffffffffffffffffffffff021916908373ffffffffffffffffffffffffffffffffffffffff1602179055506005820160149054906101000a900460ff168160050160146101000a81548160ff0219169083151502179055506005820160159054906101000a900460ff168160050160156101000a81548160ff0219169083151502179055505050507f6cc1833e88837d24b28cfca01c8c5068f64f183607782a78a4693e506e10449c600560000154600560030160009054906101000a900473ffffffffffffffffffffffffffffffffffffffff1683600560020154604051808581526020018473ffffffffffffffffffffffffffffffffffffffff1673ffffffffffffffffffffffffffffffffffffffff1681526020018373ffffffffffffffffffffffffffffffffffffffff1673ffffffffffffffffffffffffffffffffffffffff16815260200182815260200194505050505060405180910390a150565b600154600560020154014211611102576040517f08c379a000000000000000000000000000000000000000000000000000000000815260040180806020018281038252601b8152602001807f697427732077697468696e20746865206578706972792064617465000000000081525060200191505060405180910390fd5b600015156005800160159054906101000a900460ff16151514611170576040517f08c379a00000000000000000000000000000000000000000000000000000000081526004018080602001828103825260278152602001806132736027913960400191505060405180910390fd5b600061117a610813565b9050600081633b9aca00600560040154028161119257fe5b0490506311e1a3008110156111c35760006005800160146101000a81548160ff0219169083151502179055506113e0565b60016005800160146101000a81548160ff02191690831515021790555060008060009054906101000a900473ffffffffffffffffffffffffffffffffffffffff1673ffffffffffffffffffffffffffffffffffffffff1663bf7b00eb6040518163ffffffff1660e01b815260040160206040518083038186803b15801561124957600080fd5b505afa15801561125d573d6000803e3d6000fd5b505050506040513d602081101561127357600080fd5b810190808051906020019092919050505073ffffffffffffffffffffffffffffffffffffffff16634f25e2a36005800160009054906101000a900473ffffffffffffffffffffffffffffffffffffffff16846040518363ffffffff1660e01b8152600401808373ffffffffffffffffffffffffffffffffffffffff1673ffffffffffffffffffffffffffffffffffffffff16815260200182815260200192505050602060405180830381600087803b15801561132e57600080fd5b505af1158015611342573d6000803e3d6000fd5b505050506040513d602081101561135857600080fd5b81019080805190602001909291905050509050806113de576040517f08c379a000000000000000000000000000000000000000000000000000000000815260040180806020018281038252600b8152602001807f63616c6c206661696c656400000000000000000000000000000000000000000081525060200191505060405180910390fd5b505b60016005800160156101000a81548160ff0219169083151502179055503373ffffffffffffffffffffffffffffffffffffffff166108fc6004549081150290604051600060405180830381858888f19350505050158015611445573d6000803e3d6000fd5b507f088f923150a187251554ebec6f43f5fadc32406a6e85b04c648a7b7a078b8f096005600001546005800160149054906101000a900460ff1660405180838152602001821515151581526020019250505060405180910390a16040518060e001604052806000815260200160008152602001600073ffffffffffffffffffffffffffffffffffffffff16815260200160008152602001600073ffffffffffffffffffffffffffffffffffffffff168152602001600015158152602001600015158152506005600082015181600001556020820151816002015560408201518160030160006101000a81548173ffffffffffffffffffffffffffffffffffffffff021916908373ffffffffffffffffffffffffffffffffffffffff1602179055506060820151816004015560808201518160050160006101000a81548173ffffffffffffffffffffffffffffffffffffffff021916908373ffffffffffffffffffffffffffffffffffffffff16021790555060a08201518160050160146101000a81548160ff02191690831515021790555060c08201518160050160156101000a81548160ff0219169083151502179055509050505050565b60008060009054906101000a900473ffffffffffffffffffffffffffffffffffffffff16905090565b60008060009054906101000a900473ffffffffffffffffffffffffffffffffffffffff1673ffffffffffffffffffffffffffffffffffffffff1663bf7b00eb6040518163ffffffff1660e01b815260040160206040518083038186803b15801561169057600080fd5b505afa1580156116a4573d6000803e3d6000fd5b505050506040513d60208110156116ba57600080fd5b810190808051906020019092919050505073ffffffffffffffffffffffffffffffffffffffff1663578f6a62836040518263ffffffff1660e01b8152600401808273ffffffffffffffffffffffffffffffffffffffff1673ffffffffffffffffffffffffffffffffffffffff16815260200191505060206040518083038186803b15801561174757600080fd5b505afa15801561175b573d6000803e3d6000fd5b505050506040513d602081101561177157600080fd5b81019080805190602001909291905050509050919050565b60058060000154908060020154908060030160009054906101000a900473ffffffffffffffffffffffffffffffffffffffff16908060040154908060050160009054906101000a900473ffffffffffffffffffffffffffffffffffffffff16908060050160149054906101000a900460ff16908060050160159054906101000a900460ff16905087565b60405180807f46756e64506f6f6c5f5072654d696e74000000000000000000000000000000008152506010019050604051809103902081565b60045481565b7f290decd9548b62a8d60345a988386fc84ba6bc95484008f6362f93160ef3e56360001b81565b60035481565b6000809054906101000a900473ffffffffffffffffffffffffffffffffffffffff1681565b6119c1806118b28339019056fe60806040526000600360006101000a81548160ff0219169083600281111561002357fe5b021790555034801561003457600080fd5b506040516040806119c18339810180604052604081101561005457600080fd5b810190808051906020019092919080519060200190929190505050336000806101000a81548173ffffffffffffffffffffffffffffffffffffffff021916908373ffffffffffffffffffffffffffffffffffffffff16021790555060018060008060009054906101000a900473ffffffffffffffffffffffffffffffffffffffff1673ffffffffffffffffffffffffffffffffffffffff1673ffffffffffffffffffffffffffffffffffffffff16815260200190815260200160002060006101000a81548160ff021916908315150217905550816000806101000a81548173ffffffffffffffffffffffffffffffffffffffff021916908373ffffffffffffffffffffffffffffffffffffffff16021790555080600560006101000a81548173ffffffffffffffffffffffffffffffffffffffff021916908373ffffffffffffffffffffffffffffffffffffffff1602179055505050611808806101b96000396000f3fe60806040526004361061009b5760003560e01c80638e5bbaaa116100645780638e5bbaaa14610242578063a6f9dae11461026d578063c9b5bb17146102be578063d6b1598a1461030f578063e7cd4a0414610366578063f79dc128146103b75761009b565b80628dca6a1461009d5780632042e5c2146100d6578063282d3fdf146101275780633d0a40611461019a5780638da5cb5b146101eb575b005b3480156100a957600080fd5b506100b2610427565b604051808260028111156100c257fe5b60ff16815260200191505060405180910390f35b3480156100e257600080fd5b50610125600480360360208110156100f957600080fd5b81019080803573ffffffffffffffffffffffffffffffffffffffff16906020019092919050505061043a565b005b34801561013357600080fd5b506101806004803603604081101561014a57600080fd5b81019080803573ffffffffffffffffffffffffffffffffffffffff16906020019092919080359060200190929190505050610559565b604051808215151515815260200191505060405180910390f35b3480156101a657600080fd5b506101e9600480360360208110156101bd57600080fd5b81019080803573ffffffffffffffffffffffffffffffffffffffff169060200190929190505050610932565b005b3480156101f757600080fd5b50610200610d87565b604051808273ffffffffffffffffffffffffffffffffffffffff1673ffffffffffffffffffffffffffffffffffffffff16815260200191505060405180910390f35b34801561024e57600080fd5b50610257610dac565b6040518082815260200191505060405180910390f35b34801561027957600080fd5b506102bc6004803603602081101561029057600080fd5b81019080803573ffffffffffffffffffffffffffffffffffffffff169060200190929190505050610db2565b005b3480156102ca57600080fd5b5061030d600480360360208110156102e157600080fd5b81019080803573ffffffffffffffffffffffffffffffffffffffff169060200190929190505050610f5b565b005b34801561031b57600080fd5b5061032461131e565b604051808273ffffffffffffffffffffffffffffffffffffffff1673ffffffffffffffffffffffffffffffffffffffff16815260200191505060405180910390f35b34801561037257600080fd5b506103b56004803603602081101561038957600080fd5b81019080803573ffffffffffffffffffffffffffffffffffffffff169060200190929190505050611344565b005b3480156103c357600080fd5b50610406600480360360208110156103da57600080fd5b81019080803573ffffffffffffffffffffffffffffffffffffffff169060200190929190505050611462565b60405180838152602001821515151581526020019250505060405180910390f35b600360009054906101000a900460ff1681565b336000809054906101000a900473ffffffffffffffffffffffffffffffffffffffff1673ffffffffffffffffffffffffffffffffffffffff168173ffffffffffffffffffffffffffffffffffffffff16146104fd576040517f08c379a00000000000000000000000000000000000000000000000000000000081526004018080602001828103825260118152602001807f5065726d697373696f6e2064656e69656400000000000000000000000000000081525060200191505060405180910390fd5b6000600160008473ffffffffffffffffffffffffffffffffffffffff1673ffffffffffffffffffffffffffffffffffffffff16815260200190815260200160002060006101000a81548160ff0219169083151502179055505050565b6000336000809054906101000a900473ffffffffffffffffffffffffffffffffffffffff1673ffffffffffffffffffffffffffffffffffffffff168173ffffffffffffffffffffffffffffffffffffffff161461061e576040517f08c379a00000000000000000000000000000000000000000000000000000000081526004018080602001828103825260118152602001807f5065726d697373696f6e2064656e69656400000000000000000000000000000081525060200191505060405180910390fd5b6000600281111561062b57fe5b600360009054906101000a900460ff16600281111561064657fe5b146106b9576040517f08c379a00000000000000000000000000000000000000000000000000000000081526004018080602001828103825260178152602001807f636c656172696e67526573756c742069732077726f6e6700000000000000000081525060200191505060405180910390fd5b6000600560009054906101000a900473ffffffffffffffffffffffffffffffffffffffff1673ffffffffffffffffffffffffffffffffffffffff166323b872dd6000809054906101000a900473ffffffffffffffffffffffffffffffffffffffff1630876040518463ffffffff1660e01b8152600401808473ffffffffffffffffffffffffffffffffffffffff1673ffffffffffffffffffffffffffffffffffffffff1681526020018373ffffffffffffffffffffffffffffffffffffffff1673ffffffffffffffffffffffffffffffffffffffff1681526020018281526020019350505050602060405180830381600087803b1580156107b957600080fd5b505af11580156107cd573d6000803e3d6000fd5b505050506040513d60208110156107e357600080fd5b810190808051906020019092919050505090506001151581151514610870576040517f08c379a00000000000000000000000000000000000000000000000000000000081526004018080602001828103825260058152602001807f6572726f7200000000000000000000000000000000000000000000000000000081525060200191505060405180910390fd5b6108c584600260008873ffffffffffffffffffffffffffffffffffffffff1673ffffffffffffffffffffffffffffffffffffffff1681526020019081526020016000206000015461149390919063ffffffff16565b600260008773ffffffffffffffffffffffffffffffffffffffff1673ffffffffffffffffffffffffffffffffffffffff168152602001908152602001600020600001819055506109208460045461149390919063ffffffff16565b60048190555060019250505092915050565b6001600281111561093f57fe5b600360009054906101000a900460ff16600281111561095a57fe5b146109cd576040517f08c379a00000000000000000000000000000000000000000000000000000000081526004018080602001828103825260178152602001807f636c656172696e67526573756c742069732077726f6e6700000000000000000081525060200191505060405180910390fd5b60001515600260008373ffffffffffffffffffffffffffffffffffffffff1673ffffffffffffffffffffffffffffffffffffffff16815260200190815260200160002060010160009054906101000a900460ff16151514610a96576040517f08c379a00000000000000000000000000000000000000000000000000000000081526004018080602001828103825260148152602001807f4e6f2072657065617420636f6c6c656374696f6e00000000000000000000000081525060200191505060405180910390fd5b6000610b18600454610b0a3073ffffffffffffffffffffffffffffffffffffffff1631600260008773ffffffffffffffffffffffffffffffffffffffff1673ffffffffffffffffffffffffffffffffffffffff1681526020019081526020016000206000015461151b90919063ffffffff16565b6115a190919063ffffffff16565b90506000600560009054906101000a900473ffffffffffffffffffffffffffffffffffffffff1673ffffffffffffffffffffffffffffffffffffffff166342966c68600260008673ffffffffffffffffffffffffffffffffffffffff1673ffffffffffffffffffffffffffffffffffffffff168152602001908152602001600020600001546040518263ffffffff1660e01b815260040180828152602001915050602060405180830381600087803b158015610bd357600080fd5b505af1158015610be7573d6000803e3d6000fd5b505050506040513d6020811015610bfd57600080fd5b8101908080519060200190929190505050905080610c83576040517f08c379a00000000000000000000000000000000000000000000000000000000081526004018080602001828103825260058152602001807f6572726f7200000000000000000000000000000000000000000000000000000081525060200191505060405180910390fd5b8273ffffffffffffffffffffffffffffffffffffffff166108fc839081150290604051600060405180830381858888f19350505050158015610cc9573d6000803e3d6000fd5b506001600260008573ffffffffffffffffffffffffffffffffffffffff1673ffffffffffffffffffffffffffffffffffffffff16815260200190815260200160002060010160006101000a81548160ff021916908315150217905550610d7c600260008573ffffffffffffffffffffffffffffffffffffffff1673ffffffffffffffffffffffffffffffffffffffff168152602001908152602001600020600001546004546115eb90919063ffffffff16565b600481905550505050565b6000809054906101000a900473ffffffffffffffffffffffffffffffffffffffff1681565b60045481565b336000809054906101000a900473ffffffffffffffffffffffffffffffffffffffff1673ffffffffffffffffffffffffffffffffffffffff168173ffffffffffffffffffffffffffffffffffffffff1614610e75576040517f08c379a00000000000000000000000000000000000000000000000000000000081526004018080602001828103825260118152602001807f5065726d697373696f6e2064656e69656400000000000000000000000000000081525060200191505060405180910390fd5b8173ffffffffffffffffffffffffffffffffffffffff163373ffffffffffffffffffffffffffffffffffffffff161415610f17576040517f08c379a00000000000000000000000000000000000000000000000000000000081526004018080602001828103825260128152602001807f4e6565642061206e65772061646472657373000000000000000000000000000081525060200191505060405180910390fd5b816000806101000a81548173ffffffffffffffffffffffffffffffffffffffff021916908373ffffffffffffffffffffffffffffffffffffffff1602179055505050565b600280811115610f6757fe5b600360009054906101000a900460ff166002811115610f8257fe5b14610ff5576040517f08c379a00000000000000000000000000000000000000000000000000000000081526004018080602001828103825260178152602001807f636c656172696e67526573756c742069732077726f6e6700000000000000000081525060200191505060405180910390fd5b60001515600260008373ffffffffffffffffffffffffffffffffffffffff1673ffffffffffffffffffffffffffffffffffffffff16815260200190815260200160002060010160009054906101000a900460ff161515146110be576040517f08c379a00000000000000000000000000000000000000000000000000000000081526004018080602001828103825260148152602001807f4e6f2072657065617420636f6c6c656374696f6e00000000000000000000000081525060200191505060405180910390fd5b6000600560009054906101000a900473ffffffffffffffffffffffffffffffffffffffff1673ffffffffffffffffffffffffffffffffffffffff1663a9059cbb83600260008673ffffffffffffffffffffffffffffffffffffffff1673ffffffffffffffffffffffffffffffffffffffff168152602001908152602001600020600001546040518363ffffffff1660e01b8152600401808373ffffffffffffffffffffffffffffffffffffffff1673ffffffffffffffffffffffffffffffffffffffff16815260200182815260200192505050602060405180830381600087803b1580156111ab57600080fd5b505af11580156111bf573d6000803e3d6000fd5b505050506040513d60208110156111d557600080fd5b810190808051906020019092919050505090506001151581151514611262576040517f08c379a00000000000000000000000000000000000000000000000000000000081526004018080602001828103825260058152602001807f6572726f7200000000000000000000000000000000000000000000000000000081525060200191505060405180910390fd5b6001600260008473ffffffffffffffffffffffffffffffffffffffff1673ffffffffffffffffffffffffffffffffffffffff16815260200190815260200160002060010160006101000a81548160ff021916908315150217905550611314600260008473ffffffffffffffffffffffffffffffffffffffff1673ffffffffffffffffffffffffffffffffffffffff168152602001908152602001600020600001546004546115eb90919063ffffffff16565b6004819055505050565b600560009054906101000a900473ffffffffffffffffffffffffffffffffffffffff1681565b336000809054906101000a900473ffffffffffffffffffffffffffffffffffffffff1673ffffffffffffffffffffffffffffffffffffffff168173ffffffffffffffffffffffffffffffffffffffff1614611407576040517f08c379a00000000000000000000000000000000000000000000000000000000081526004018080602001828103825260118152602001807f5065726d697373696f6e2064656e69656400000000000000000000000000000081525060200191505060405180910390fd5b60018060008473ffffffffffffffffffffffffffffffffffffffff1673ffffffffffffffffffffffffffffffffffffffff16815260200190815260200160002060006101000a81548160ff0219169083151502179055505050565b60026020528060005260406000206000915090508060000154908060010160009054906101000a900460ff16905082565b600080828401905083811015611511576040517f08c379a000000000000000000000000000000000000000000000000000000000815260040180806020018281038252601b8152602001807f536166654d6174683a206164646974696f6e206f766572666c6f77000000000081525060200191505060405180910390fd5b8091505092915050565b60008083141561152e576000905061159b565b600082840290508284828161153f57fe5b0414611596576040517f08c379a00000000000000000000000000000000000000000000000000000000081526004018080602001828103825260218152602001806117bc6021913960400191505060405180910390fd5b809150505b92915050565b60006115e383836040518060400160405280601a81526020017f536166654d6174683a206469766973696f6e206279207a65726f000000000000815250611635565b905092915050565b600061162d83836040518060400160405280601e81526020017f536166654d6174683a207375627472616374696f6e206f766572666c6f7700008152506116fb565b905092915050565b600080831182906116e1576040517f08c379a00000000000000000000000000000000000000000000000000000000081526004018080602001828103825283818151815260200191508051906020019080838360005b838110156116a657808201518184015260208101905061168b565b50505050905090810190601f1680156116d35780820380516001836020036101000a031916815260200191505b509250505060405180910390fd5b5060008385816116ed57fe5b049050809150509392505050565b60008383111582906117a8576040517f08c379a00000000000000000000000000000000000000000000000000000000081526004018080602001828103825283818151815260200191508051906020019080838360005b8381101561176d578082015181840152602081019050611752565b50505050905090810190601f16801561179a5780820380516001836020036101000a031916815260200191505b509250505060405180910390fd5b506000838503905080915050939250505056fe536166654d6174683a206d756c7469706c69636174696f6e206f766572666c6f77a165627a7a723058209da026301626352119a8ce90b8fec537e9f9fc311b5b93d51f0b6ee11b58255200296e656564732070726f706f73616c732068617665206e6f74206265656e20616464726573736564a165627a7a723058207a78b69f7a89c24803035751fe4fec2879189b1651166626dfce9fe5dd0706820029",
  "source": "pragma solidity >=0.4.22 <0.6.0;\r\n\r\nimport \"./VoteApp.sol\";\r\nimport \"../clearing/ClearingFundPool.sol\";\r\n\r\ncontract Govern_Proposal_ApplyFund is VoteApp{\r\n\r\n    /// @notice   \r\n    ClearingProposal public cur_clearingProposal;\r\n\r\n    /// @notice \r\n    ClearingProposal[] clearingProposalQueue;\r\n\r\n    /// @notice \r\n    struct ClearingProposal{\r\n        uint256 index;\r\n        mapping(address => uint256) clearingList;//\r\n        uint256 startTime;//\r\n        address proposer;//\r\n        uint256 totalFndAmount;//\r\n        address payable address_clearingFundPool;\r\n        bool pass; //\r\n        bool process; //\r\n    }\r\n\r\n    /// @notice \r\n    event OnApplyClearingProposal(\r\n        uint256 index,\r\n        address proposaler,\r\n        address payable address_clearingFundPool,\r\n        uint256 startTime\r\n    );\r\n\r\n    /// @param who \r\n    /// @param index \r\n    /// @param voteResult \r\n    /// @param fndAmount \r\n    event OnVoteClearingProposal(\r\n        address who,\r\n        uint256 index,\r\n        uint256 fndAmount\r\n    );\r\n\r\n    /// @param index  , pass \r\n    event OnProcessClearingProposal(\r\n        uint256 index,\r\n        bool pass\r\n    );\r\n\r\n    constructor(AppManager _appManager) FutureDaoApp(appManager) public{\r\n    }\r\n\r\n    modifier ownFdt() {\r\n        require(getFdtInGovern(msg.sender)>0, \"need has shares\");\r\n        _;\r\n    }\r\n\r\n    /// @notice \r\n    /// @dev \r\n    function applyClearingProposal() public payable ownFdt(){\r\n        //\r\n        require(cur_clearingProposal.proposer == address(0),\"Only one proposal is allowed\");\r\n        //gas\r\n        require(msg.value >= proposalFee + deposit, \"need proposalFee\");\r\n\r\n        ClearingFundPool _clearingFundPool = new ClearingFundPool(appManager.getGovernShareManager(),appManager.getFdToken());\r\n\r\n        cur_clearingProposal = ClearingProposal({\r\n            index : clearingProposalQueue.length,\r\n            proposer : msg.sender,\r\n            totalFndAmount : 0,\r\n            startTime : now,\r\n            pass : false,\r\n            process :false,\r\n            address_clearingFundPool : address(_clearingFundPool)\r\n        });\r\n\r\n        clearingProposalQueue.push(cur_clearingProposal);\r\n\r\n        emit OnApplyClearingProposal(\r\n            cur_clearingProposal.index,\r\n            cur_clearingProposal.proposer,\r\n            address(_clearingFundPool),\r\n            cur_clearingProposal.startTime\r\n        );\r\n    }\r\n\r\n    /// @notice \r\n    function voteClearingProposal() public ownFdt(){\r\n        uint256 fdtInGovern = getFdtInGovern(msg.sender);\r\n        require(fdtInGovern > 0,\"fdtInGovern need more than 0\");\r\n        //7\r\n        require(now <= cur_clearingProposal.startTime + votingPeriodLength,\"time out\");\r\n\r\n\r\n        bool r = IGovernShareManager(appManager.getGovernShareManager())\r\n        .clearingFdt(cur_clearingProposal.address_clearingFundPool,msg.sender,fdtInGovern);\r\n        require(r,\"lock error\");\r\n\r\n        cur_clearingProposal.clearingList[msg.sender] += fdtInGovern;\r\n        cur_clearingProposal.totalFndAmount += fdtInGovern;\r\n\r\n        emit OnVoteClearingProposal(msg.sender,cur_clearingProposal.index,fdtInGovern);\r\n    }\r\n\r\n    /// @notice \r\n    function processClearingProposal() public{\r\n        //7\r\n        require(now > cur_clearingProposal.startTime + votingPeriodLength,\"it's within the expiry date\");\r\n        require(cur_clearingProposal.process == false, \"needs proposals have not been addressed\");\r\n        //fnd\r\n        uint256 totalFnd = getFdtTotalSupply();\r\n        uint hold = cur_clearingProposal.totalFndAmount * (10 ** 9) / totalFnd;\r\n        if(hold < (3*(10**8))){\r\n            cur_clearingProposal.pass = false;\r\n        }\r\n        else{\r\n            cur_clearingProposal.pass = true;\r\n            //\r\n            //fundpool\r\n            bool r = IGovernShareManager(appManager.getGovernShareManager()).clearing(cur_clearingProposal.address_clearingFundPool,hold);\r\n            require(r, \"call failed\");\r\n        }\r\n        //\r\n        cur_clearingProposal.process = true;\r\n        //\r\n        msg.sender.transfer(proposalFee);\r\n        //\r\n        emit OnProcessClearingProposal(\r\n            cur_clearingProposal.index,\r\n            cur_clearingProposal.pass\r\n        );\r\n\r\n        //\r\n        cur_clearingProposal = ClearingProposal({\r\n            index : 0,\r\n            proposer : address(0),\r\n            address_clearingFundPool : address(0),\r\n            totalFndAmount : 0,\r\n            startTime : 0,\r\n            pass : false,\r\n            process : false\r\n        });\r\n    }\r\n}",
  "sourcePath": "D:/_______work/FD_Contract_ETH/fd/contracts/Vote/Vote_Clearing.sol",
  "compiler": {
    "name": "solc",
    "version": "0.5.8+commit.23d335f2.Emscripten.clang"
  },
  "schemaVersion": "3.0.11",
  "updatedAt": "2019-10-23T12:16:31.555Z",
  "devdoc": {
    "methods": {
      "applyClearingProposal()": {
        "details": ""
      }
    }
  },
  "userdoc": {
    "methods": {
      "getFdtInGovern(address)": {
        "notice": ""
      },
      "getFdtTotalSupply()": {
        "notice": ""
      },
      "processClearingProposal()": {
        "notice": ""
      },
      "voteClearingProposal()": {
        "notice": ""
      }
    }
  }
}