{
  "contractName": "GovernShareManager",
  "abi": [
    {
      "constant": true,
      "inputs": [],
      "name": "GovernShareManager_SendEth",
      "outputs": [
        {
          "name": "",
          "type": "bytes32"
        }
      ],
      "payable": false,
      "stateMutability": "view",
      "type": "function"
    },
    {
      "constant": true,
      "inputs": [],
      "name": "GovernShareManager_Free",
      "outputs": [
        {
          "name": "",
          "type": "bytes32"
        }
      ],
      "payable": false,
      "stateMutability": "view",
      "type": "function"
    },
    {
      "constant": true,
      "inputs": [],
      "name": "EMPTY_PARAM_HASH",
      "outputs": [
        {
          "name": "",
          "type": "bytes32"
        }
      ],
      "payable": false,
      "stateMutability": "view",
      "type": "function"
    },
    {
      "constant": true,
      "inputs": [],
      "name": "GovernShareManager_Lock",
      "outputs": [
        {
          "name": "",
          "type": "bytes32"
        }
      ],
      "payable": false,
      "stateMutability": "view",
      "type": "function"
    },
    {
      "constant": true,
      "inputs": [],
      "name": "appManager",
      "outputs": [
        {
          "name": "",
          "type": "address"
        }
      ],
      "payable": false,
      "stateMutability": "view",
      "type": "function"
    },
    {
      "constant": true,
      "inputs": [],
      "name": "token",
      "outputs": [
        {
          "name": "",
          "type": "address"
        }
      ],
      "payable": false,
      "stateMutability": "view",
      "type": "function"
    },
    {
      "inputs": [
        {
          "name": "_appManager",
          "type": "address"
        },
        {
          "name": "_token",
          "type": "address"
        }
      ],
      "payable": false,
      "stateMutability": "nonpayable",
      "type": "constructor"
    },
    {
      "payable": true,
      "stateMutability": "payable",
      "type": "fallback"
    },
    {
      "constant": false,
      "inputs": [
        {
          "name": "_addr",
          "type": "address"
        }
      ],
      "name": "getFdtInGovern",
      "outputs": [
        {
          "name": "",
          "type": "uint256"
        }
      ],
      "payable": false,
      "stateMutability": "nonpayable",
      "type": "function"
    },
    {
      "constant": false,
      "inputs": [],
      "name": "getFtdTotalSupply",
      "outputs": [
        {
          "name": "",
          "type": "uint256"
        }
      ],
      "payable": false,
      "stateMutability": "nonpayable",
      "type": "function"
    },
    {
      "constant": false,
      "inputs": [
        {
          "name": "amount",
          "type": "uint256"
        }
      ],
      "name": "setFdtIn",
      "outputs": [
        {
          "name": "",
          "type": "bool"
        }
      ],
      "payable": false,
      "stateMutability": "nonpayable",
      "type": "function"
    },
    {
      "constant": false,
      "inputs": [
        {
          "name": "amount",
          "type": "uint256"
        }
      ],
      "name": "getFdtOut",
      "outputs": [
        {
          "name": "",
          "type": "bool"
        }
      ],
      "payable": false,
      "stateMutability": "nonpayable",
      "type": "function"
    },
    {
      "constant": false,
      "inputs": [
        {
          "name": "_lockAddr",
          "type": "address"
        },
        {
          "name": "_index",
          "type": "uint256"
        },
        {
          "name": "_expireDate",
          "type": "uint256"
        },
        {
          "name": "_lockAmount",
          "type": "uint256"
        }
      ],
      "name": "lock",
      "outputs": [
        {
          "name": "",
          "type": "bool"
        }
      ],
      "payable": false,
      "stateMutability": "nonpayable",
      "type": "function"
    },
    {
      "constant": false,
      "inputs": [
        {
          "name": "_lockAddr",
          "type": "address"
        },
        {
          "name": "_index",
          "type": "uint256"
        },
        {
          "name": "_expireDate",
          "type": "uint256"
        }
      ],
      "name": "free",
      "outputs": [
        {
          "name": "",
          "type": "bool"
        }
      ],
      "payable": false,
      "stateMutability": "nonpayable",
      "type": "function"
    },
    {
      "constant": false,
      "inputs": [
        {
          "name": "_addr",
          "type": "address"
        },
        {
          "name": "_value",
          "type": "uint256"
        }
      ],
      "name": "sendEth",
      "outputs": [
        {
          "name": "",
          "type": "bool"
        }
      ],
      "payable": true,
      "stateMutability": "payable",
      "type": "function"
    }
  ],
  "bytecode": "0x60806040526005600060146101000a81548160ff021916908360ff16021790555034801561002c57600080fd5b50604051604080611ec48339810180604052604081101561004c57600080fd5b810190808051906020019092919080519060200190929190505050816000806101000a81548173ffffffffffffffffffffffffffffffffffffffff021916908373ffffffffffffffffffffffffffffffffffffffff16021790555080600360006101000a81548173ffffffffffffffffffffffffffffffffffffffff021916908373ffffffffffffffffffffffffffffffffffffffff1602179055505050611dcb806100f96000396000f3fe6080604052600436106100c25760003560e01c8063b77df54b1161007f578063e24d206711610059578063e24d2067146103ba578063e5ba7b0f146103e5578063ebe86c1314610410578063fc0c546a14610467576100c2565b8063b77df54b146102dd578063c513f66e14610308578063c97be18014610333576100c2565b8063469616b6146100c457806349dcbc5e14610117578063578f6a621461017d57806366027b9d146101e25780636c351c8e1461020d578063999bb8db1461028a575b005b3480156100d057600080fd5b506100fd600480360360208110156100e757600080fd5b81019080803590602001909291905050506104be565b604051808215151515815260200191505060405180910390f35b6101636004803603604081101561012d57600080fd5b81019080803573ffffffffffffffffffffffffffffffffffffffff169060200190929190803590602001909291905050506107e9565b604051808215151515815260200191505060405180910390f35b34801561018957600080fd5b506101cc600480360360208110156101a057600080fd5b81019080803573ffffffffffffffffffffffffffffffffffffffff169060200190929190505050610afd565b6040518082815260200191505060405180910390f35b3480156101ee57600080fd5b506101f7610b46565b6040518082815260200191505060405180910390f35b34801561021957600080fd5b506102706004803603606081101561023057600080fd5b81019080803573ffffffffffffffffffffffffffffffffffffffff1690602001909291908035906020019092919080359060200190929190505050610b7f565b604051808215151515815260200191505060405180910390f35b34801561029657600080fd5b506102c3600480360360208110156102ad57600080fd5b8101908080359060200190929190505050610d61565b604051808215151515815260200191505060405180910390f35b3480156102e957600080fd5b506102f2611006565b6040518082815260200191505060405180910390f35b34801561031457600080fd5b5061031d61103f565b6040518082815260200191505060405180910390f35b34801561033f57600080fd5b506103a06004803603608081101561035657600080fd5b81019080803573ffffffffffffffffffffffffffffffffffffffff169060200190929190803590602001909291908035906020019092919080359060200190929190505050611066565b604051808215151515815260200191505060405180910390f35b3480156103c657600080fd5b506103cf611257565b6040518082815260200191505060405180910390f35b3480156103f157600080fd5b506103fa611301565b6040518082815260200191505060405180910390f35b34801561041c57600080fd5b5061042561133a565b604051808273ffffffffffffffffffffffffffffffffffffffff1673ffffffffffffffffffffffffffffffffffffffff16815260200191505060405180910390f35b34801561047357600080fd5b5061047c61135f565b604051808273ffffffffffffffffffffffffffffffffffffffff1673ffffffffffffffffffffffffffffffffffffffff16815260200191505060405180910390f35b6000808211610535576040517f08c379a00000000000000000000000000000000000000000000000000000000081526004018080602001828103825260178152602001807f616d6f756e74206e656564206d6f7265207468616e203000000000000000000081525060200191505060405180910390fd5b81600260003373ffffffffffffffffffffffffffffffffffffffff1673ffffffffffffffffffffffffffffffffffffffff1681526020019081526020016000205410156105ea576040517f08c379a00000000000000000000000000000000000000000000000000000000081526004018080602001828103825260198152602001807f5468652062616c616e6365206973206e6f7420656e6f7567680000000000000081525060200191505060405180910390fd5b6105f333611385565b6000600360009054906101000a900473ffffffffffffffffffffffffffffffffffffffff1673ffffffffffffffffffffffffffffffffffffffff1663a9059cbb33856040518363ffffffff1660e01b8152600401808373ffffffffffffffffffffffffffffffffffffffff1673ffffffffffffffffffffffffffffffffffffffff16815260200182815260200192505050602060405180830381600087803b15801561069e57600080fd5b505af11580156106b2573d6000803e3d6000fd5b505050506040513d60208110156106c857600080fd5b810190808051906020019092919050505090508061074e576040517f08c379a000000000000000000000000000000000000000000000000000000000815260040180806020018281038252600a8152602001807f66726565206572726f720000000000000000000000000000000000000000000081525060200191505060405180910390fd5b6107a083600260003373ffffffffffffffffffffffffffffffffffffffff1673ffffffffffffffffffffffffffffffffffffffff1681526020019081526020016000205461158a90919063ffffffff16565b600260003373ffffffffffffffffffffffffffffffffffffffff1673ffffffffffffffffffffffffffffffffffffffff1681526020019081526020016000208190555050919050565b600060405180807f476f7665726e53686172654d616e616765725f53656e64457468000000000000815250601a01905060405180910390206000809054906101000a900473ffffffffffffffffffffffffffffffffffffffff1673ffffffffffffffffffffffffffffffffffffffff16634c5f07493330847f290decd9548b62a8d60345a988386fc84ba6bc95484008f6362f93160ef3e56360001b6040518563ffffffff1660e01b8152600401808573ffffffffffffffffffffffffffffffffffffffff1673ffffffffffffffffffffffffffffffffffffffff1681526020018473ffffffffffffffffffffffffffffffffffffffff1673ffffffffffffffffffffffffffffffffffffffff16815260200183815260200182815260200194505050505060206040518083038186803b15801561092657600080fd5b505afa15801561093a573d6000803e3d6000fd5b505050506040513d602081101561095057600080fd5b81019080805190602001909291905050506109b6576040517f08c379a0000000000000000000000000000000000000000000000000000000008152600401808060200182810382526024815260200180611d5b6024913960400191505060405180910390fd5b6000809054906101000a900473ffffffffffffffffffffffffffffffffffffffff1673ffffffffffffffffffffffffffffffffffffffff1663783672e36040518163ffffffff1660e01b815260040160206040518083038186803b158015610a1d57600080fd5b505afa158015610a31573d6000803e3d6000fd5b505050506040513d6020811015610a4757600080fd5b810190808051906020019092919050505073ffffffffffffffffffffffffffffffffffffffff166349dcbc5e85856040518363ffffffff1660e01b8152600401808373ffffffffffffffffffffffffffffffffffffffff1673ffffffffffffffffffffffffffffffffffffffff16815260200182815260200192505050600060405180830381600087803b158015610ade57600080fd5b505af1158015610af2573d6000803e3d6000fd5b505050505092915050565b6000600260008373ffffffffffffffffffffffffffffffffffffffff1673ffffffffffffffffffffffffffffffffffffffff168152602001908152602001600020549050919050565b60405180807f476f7665726e53686172654d616e616765725f53656e64457468000000000000815250601a019050604051809103902081565b600060405180807f476f7665726e53686172654d616e616765725f46726565000000000000000000815250601701905060405180910390206000809054906101000a900473ffffffffffffffffffffffffffffffffffffffff1673ffffffffffffffffffffffffffffffffffffffff16634c5f07493330847f290decd9548b62a8d60345a988386fc84ba6bc95484008f6362f93160ef3e56360001b6040518563ffffffff1660e01b8152600401808573ffffffffffffffffffffffffffffffffffffffff1673ffffffffffffffffffffffffffffffffffffffff1681526020018473ffffffffffffffffffffffffffffffffffffffff1673ffffffffffffffffffffffffffffffffffffffff16815260200183815260200182815260200194505050505060206040518083038186803b158015610cbc57600080fd5b505afa158015610cd0573d6000803e3d6000fd5b505050506040513d6020811015610ce657600080fd5b8101908080519060200190929190505050610d4c576040517f08c379a0000000000000000000000000000000000000000000000000000000008152600401808060200182810382526024815260200180611d5b6024913960400191505060405180910390fd5b610d58853386866115d4565b50509392505050565b6000808211610dd8576040517f08c379a00000000000000000000000000000000000000000000000000000000081526004018080602001828103825260178152602001807f616d6f756e74206e656564206d6f7265207468616e203000000000000000000081525060200191505060405180910390fd5b6000600360009054906101000a900473ffffffffffffffffffffffffffffffffffffffff1673ffffffffffffffffffffffffffffffffffffffff166323b872dd3330866040518463ffffffff1660e01b8152600401808473ffffffffffffffffffffffffffffffffffffffff1673ffffffffffffffffffffffffffffffffffffffff1681526020018373ffffffffffffffffffffffffffffffffffffffff1673ffffffffffffffffffffffffffffffffffffffff1681526020018281526020019350505050602060405180830381600087803b158015610eb757600080fd5b505af1158015610ecb573d6000803e3d6000fd5b505050506040513d6020811015610ee157600080fd5b8101908080519060200190929190505050905080610f67576040517f08c379a000000000000000000000000000000000000000000000000000000000815260040180806020018281038252600a8152602001807f6c6f636b206572726f720000000000000000000000000000000000000000000081525060200191505060405180910390fd5b610fb983600260003373ffffffffffffffffffffffffffffffffffffffff1673ffffffffffffffffffffffffffffffffffffffff168152602001908152602001600020546117c090919063ffffffff16565b600260003373ffffffffffffffffffffffffffffffffffffffff1673ffffffffffffffffffffffffffffffffffffffff168152602001908152602001600020819055506001915050919050565b60405180807f476f7665726e53686172654d616e616765725f467265650000000000000000008152506017019050604051809103902081565b7f290decd9548b62a8d60345a988386fc84ba6bc95484008f6362f93160ef3e56360001b81565b600060405180807f476f7665726e53686172654d616e616765725f4c6f636b000000000000000000815250601701905060405180910390206000809054906101000a900473ffffffffffffffffffffffffffffffffffffffff1673ffffffffffffffffffffffffffffffffffffffff16634c5f07493330847f290decd9548b62a8d60345a988386fc84ba6bc95484008f6362f93160ef3e56360001b6040518563ffffffff1660e01b8152600401808573ffffffffffffffffffffffffffffffffffffffff1673ffffffffffffffffffffffffffffffffffffffff1681526020018473ffffffffffffffffffffffffffffffffffffffff1673ffffffffffffffffffffffffffffffffffffffff16815260200183815260200182815260200194505050505060206040518083038186803b1580156111a357600080fd5b505afa1580156111b7573d6000803e3d6000fd5b505050506040513d60208110156111cd57600080fd5b8101908080519060200190929190505050611233576040517f08c379a0000000000000000000000000000000000000000000000000000000008152600401808060200182810382526024815260200180611d5b6024913960400191505060405180910390fd5b61123c86611385565b6112498633878787611848565b506001915050949350505050565b6000600360009054906101000a900473ffffffffffffffffffffffffffffffffffffffff1673ffffffffffffffffffffffffffffffffffffffff166318160ddd6040518163ffffffff1660e01b815260040160206040518083038186803b1580156112c157600080fd5b505afa1580156112d5573d6000803e3d6000fd5b505050506040513d60208110156112eb57600080fd5b8101908080519060200190929190505050905090565b60405180807f476f7665726e53686172654d616e616765725f4c6f636b0000000000000000008152506017019050604051809103902081565b6000809054906101000a900473ffffffffffffffffffffffffffffffffffffffff1681565b600360009054906101000a900473ffffffffffffffffffffffffffffffffffffffff1681565b6000600160008373ffffffffffffffffffffffffffffffffffffffff1673ffffffffffffffffffffffffffffffffffffffff168152602001908152602001600020905060008090505b81805490508110156115855760008282815481106113e857fe5b9060005260206000209060040201905042816002015411156115695761145a8160030154600260008773ffffffffffffffffffffffffffffffffffffffff1673ffffffffffffffffffffffffffffffffffffffff168152602001908152602001600020546117c090919063ffffffff16565b600260008673ffffffffffffffffffffffffffffffffffffffff1673ffffffffffffffffffffffffffffffffffffffff16815260200190815260200160002081905550826114b66001858054905061158a90919063ffffffff16565b815481106114c057fe5b90600052602060002090600402019050826114e96001858054905061158a90919063ffffffff16565b815481106114f357fe5b9060005260206000209060040201600080820160006101000a81549073ffffffffffffffffffffffffffffffffffffffff0219169055600182016000905560028201600090556003820160009055505061155b6001848054905061158a90919063ffffffff16565b83816115679190611c65565b505b5061157e6001826117c090919063ffffffff16565b90506113ce565b505050565b60006115cc83836040518060400160405280601e81526020017f536166654d6174683a207375627472616374696f6e206f766572666c6f770000815250611ba5565b905092915050565b600080600160008773ffffffffffffffffffffffffffffffffffffffff1673ffffffffffffffffffffffffffffffffffffffff168152602001908152602001600020905060008090505b81805490508110156117b157600082828154811061163857fe5b906000526020600020906004020190508673ffffffffffffffffffffffffffffffffffffffff168160000160009054906101000a900473ffffffffffffffffffffffffffffffffffffffff1673ffffffffffffffffffffffffffffffffffffffff161480156116aa5750848160020154145b80156116b95750858160010154145b1561179557826116d76001858054905061158a90919063ffffffff16565b815481106116e157fe5b906000526020600020906004020190508261170a6001858054905061158a90919063ffffffff16565b8154811061171457fe5b9060005260206000209060040201600080820160006101000a81549073ffffffffffffffffffffffffffffffffffffffff0219169055600182016000905560028201600090556003820160009055505061177c6001848054905061158a90919063ffffffff16565b83816117889190611c65565b50600193505050506117b8565b506117aa6001826117c090919063ffffffff16565b905061161e565b5060009150505b949350505050565b60008082840190508381101561183e576040517f08c379a000000000000000000000000000000000000000000000000000000000815260040180806020018281038252601b8152602001807f536166654d6174683a206164646974696f6e206f766572666c6f77000000000081525060200191505060405180910390fd5b8091505092915050565b600080600260008873ffffffffffffffffffffffffffffffffffffffff1673ffffffffffffffffffffffffffffffffffffffff16815260200190815260200160002054116118e1576040517f08c379a0000000000000000000000000000000000000000000000000000000008152600401808060200182810382526027815260200180611d346027913960400191505060405180910390fd5b6000600160008873ffffffffffffffffffffffffffffffffffffffff1673ffffffffffffffffffffffffffffffffffffffff168152602001908152602001600020905060008090505b8180549050811015611a1157600082828154811061194457fe5b906000526020600020906004020190508773ffffffffffffffffffffffffffffffffffffffff168160000160009054906101000a900473ffffffffffffffffffffffffffffffffffffffff1673ffffffffffffffffffffffffffffffffffffffff161480156119b65750858160020154145b80156119c55750868160010154145b156119f5576119e18582600301546117c090919063ffffffff16565b816003018190555060019350505050611b9c565b50611a0a6001826117c090919063ffffffff16565b905061192a565b50611a1a611c97565b60405180608001604052808873ffffffffffffffffffffffffffffffffffffffff1681526020018781526020018681526020018581525090508180549050600060149054906101000a900460ff1660ff161115611ac2576040517f08c379a0000000000000000000000000000000000000000000000000000000008152600401808060200182810382526021815260200180611d7f6021913960400191505060405180910390fd5b600160008973ffffffffffffffffffffffffffffffffffffffff1673ffffffffffffffffffffffffffffffffffffffff168152602001908152602001600020819080600181540180825580915050906001820390600052602060002090600402016000909192909190915060008201518160000160006101000a81548173ffffffffffffffffffffffffffffffffffffffff021916908373ffffffffffffffffffffffffffffffffffffffff1602179055506020820151816001015560408201518160020155606082015181600301555050506001925050505b95945050505050565b6000838311158290611c52576040517f08c379a00000000000000000000000000000000000000000000000000000000081526004018080602001828103825283818151815260200191508051906020019080838360005b83811015611c17578082015181840152602081019050611bfc565b50505050905090810190601f168015611c445780820380516001836020036101000a031916815260200191505b509250505060405180910390fd5b5060008385039050809150509392505050565b815481835581811115611c9257600402816004028360005260206000209182019101611c919190611cd5565b5b505050565b6040518060800160405280600073ffffffffffffffffffffffffffffffffffffffff1681526020016000815260200160008152602001600081525090565b611d3091905b80821115611d2c57600080820160006101000a81549073ffffffffffffffffffffffffffffffffffffffff021916905560018201600090556002820160009055600382016000905550600401611cdb565b5090565b9056fe4c6f636b6564207368617265732063616e6e6f7420657863656564207468652062616c616e63654e6f207065726d697373696f6e20746f20696e766f6b652074686520636f6e747261637443616e6e6f742065786365656420746865206e756d626572206f66206c6f636b73a165627a7a72305820171b25c75da5005b86013d5817b776473d51416e8eb724148dc186af331758d10029",
  "source": "pragma solidity >=0.4.22 <0.6.0;\r\n\r\nimport \"../Interface/IGovernShareManager.sol\";\r\nimport \"../apps/FutureDaoApp.sol\";\r\nimport \"../Interface/IERC20.sol\";\r\nimport \"../Interface/ITradeFundPool.sol\";\r\n\r\n\r\n/// @title \r\n/// @author viko\r\n/// @notice \r\ncontract GovernShareManager is IGovernShareManager , FutureDaoApp{\r\n    /// @notice \r\n    uint8 lockTimesLimit = 5;\r\n\r\n    /// @notice\r\n    mapping(address => SL[]) slMap;\r\n\r\n    /// @notice Fdt\r\n    mapping (address=>uint256) balances;\r\n\r\n    /// @notice \r\n    IERC20 public token;\r\n\r\n    bytes32 public constant GovernShareManager_Lock = keccak256(\"GovernShareManager_Lock\");\r\n    bytes32 public constant GovernShareManager_Free = keccak256(\"GovernShareManager_Free\");\r\n    bytes32 public constant GovernShareManager_SendEth = keccak256(\"GovernShareManager_SendEth\");\r\n\r\n\r\n    /// @notice \r\n    struct SL {\r\n        address contractAddress;\r\n        uint256 index;\r\n        uint256 expireDate;\r\n        uint256 lockAmount;\r\n    }\r\n\r\n    constructor(AppManager _appManager,IERC20 _token) public{\r\n        appManager = _appManager;\r\n        token = _token;\r\n    }\r\n\r\n    /// @notice \r\n    function getFdtInGovern(address _addr) public returns(uint256){\r\n        return balances[_addr];\r\n    }\r\n\r\n    /// @notice fdt\r\n    function getFtdTotalSupply() public returns(uint256){\r\n        return token.totalSupply();\r\n    }\r\n\r\n    ///@notice tradefund\r\n    function setFdtIn(uint256 amount) public returns(bool){\r\n        require(amount>0,\"amount need more than 0\");\r\n        bool r = token.transferFrom(msg.sender,address(this),amount);\r\n        require(r,\"lock error\");\r\n        balances[msg.sender] = balances[msg.sender].add(amount);\r\n        return true;\r\n    }\r\n\r\n    ///@notice tradefund\r\n    function getFdtOut(uint256 amount) public returns(bool){\r\n        require(amount>0,'amount need more than 0');\r\n        require(balances[msg.sender]>=amount,\"The balance is not enough\");\r\n        //\r\n        _refreshSL(msg.sender);\r\n        bool r = token.transfer(msg.sender,amount);\r\n        require(r,\"free error\");\r\n        balances[msg.sender] = balances[msg.sender].sub(amount);\r\n    }\r\n\r\n    /// @notice \r\n    function lock(address _lockAddr,uint256 _index,uint256 _expireDate,uint256 _lockAmount)\r\n    public\r\n    auth(GovernShareManager_Lock)\r\n    returns(bool)\r\n    {\r\n        //\r\n        _refreshSL(_lockAddr);\r\n        //\r\n        _addSL(_lockAddr,msg.sender,_index,_expireDate,_lockAmount);\r\n        return true;\r\n    }\r\n\r\n    /// @notice \r\n    function free(address _lockAddr,uint256 _index,uint256 _expireDate)\r\n    public\r\n    auth(GovernShareManager_Free)\r\n    returns(bool)\r\n    {\r\n        _delSL(_lockAddr,msg.sender,_index,_expireDate);\r\n    }\r\n\r\n\r\n    /// @notice \r\n    function sendEth(address payable _addr,uint256 _value) public payable auth(GovernShareManager_SendEth) returns(bool){\r\n        ITradeFundPool(appManager.getTradeFundPool()).sendEth(_addr,_value);\r\n    }\r\n\r\n/////////////////////\r\n///\r\n////////////////////\r\n\r\n    /// @notice \r\n    function _addSL(\r\n        address _lockAddr,\r\n        address _contractAddr,\r\n        uint256 _index,\r\n        uint256 _expireDate,\r\n        uint256 _lockAmount\r\n    )\r\n    private\r\n    returns(bool)\r\n    {\r\n        //\r\n        require(balances[_lockAddr] > 0,\"Locked shares cannot exceed the balance\");\r\n        SL[] storage slQueue = slMap[_lockAddr];\r\n        for(uint256 i = 0;i<slQueue.length;i = i.add(1)){\r\n            SL storage _sl = slQueue[i];\r\n            if(_sl.contractAddress == _contractAddr && _sl.expireDate == _expireDate && _sl.index == _index){\r\n                _sl.lockAmount = _sl.lockAmount.add(_lockAmount);\r\n                return true;\r\n            }\r\n        }\r\n\r\n        SL memory sl = SL({\r\n            contractAddress : _contractAddr,\r\n            expireDate : _expireDate,\r\n            index : _index,\r\n            lockAmount : _lockAmount\r\n        });\r\n        //\r\n        require(lockTimesLimit <= slQueue.length,\"Cannot exceed the number of locks\");\r\n        slMap[_lockAddr].push(sl);\r\n        return true;\r\n    }\r\n\r\n    /// @notice \r\n    function _delSL(\r\n        address _lockAddr,\r\n        address _contractAddr,\r\n        uint256 _index,\r\n        uint256 _expireDate\r\n    )\r\n    private\r\n    returns(bool)\r\n    {\r\n        SL[] storage slQueue = slMap[_lockAddr];\r\n        for(uint256 i = 0;i < slQueue.length;i = i.add(1)){\r\n            SL storage _sl = slQueue[i];\r\n            if(_sl.contractAddress == _contractAddr && _sl.expireDate == _expireDate && _sl.index == _index){\r\n                _sl = slQueue[slQueue.length.sub(1)];\r\n                delete slQueue[slQueue.length.sub(1)];\r\n                slQueue.length = slQueue.length.sub(1);\r\n                return true;\r\n            }\r\n        }\r\n        return false;\r\n    }\r\n\r\n    /// @notice  \r\n    function _refreshSL(address _lockAddr) private {\r\n        SL[] storage slQueue = slMap[_lockAddr];\r\n        for(uint256 i = 0;i<slQueue.length;i = i.add(1)){\r\n            SL storage _sl = slQueue[i];\r\n            if(_sl.expireDate > now){\r\n                balances[_lockAddr] = balances[_lockAddr].add(_sl.lockAmount);\r\n                _sl = slQueue[slQueue.length.sub(1)];\r\n                delete slQueue[slQueue.length.sub(1)];\r\n                slQueue.length = slQueue.length.sub(1);\r\n            }\r\n        }\r\n    }\r\n\r\n/*\r\n    /// @notice \r\n    function callContract(address payable _addr,uint256 _value,bytes memory _execScript) public payable isWhiteAddress(msg.sender){\r\n        (bool success,) = _addr.call.value(_value)(_execScript);\r\n        require(success, \"call failed\");\r\n    }\r\n*/\r\n\r\n    function() external payable{\r\n    }\r\n}",
  "sourcePath": "D:/_______work/FD_Contract_ETH/fd/contracts/Govern/GovernShareManager.sol",
  "compiler": {
    "name": "solc",
    "version": "0.5.8+commit.23d335f2.Emscripten.clang"
  },
  "schemaVersion": "3.0.11",
  "updatedAt": "2019-08-27T09:37:38.340Z",
  "devdoc": {
    "methods": {}
  },
  "userdoc": {
    "methods": {
      "free(address,uint256,uint256)": {
        "notice": ""
      },
      "getFdtInGovern(address)": {
        "notice": ""
      },
      "getFdtOut(uint256)": {
        "notice": "tradefund"
      },
      "getFtdTotalSupply()": {
        "notice": "fdt"
      },
      "lock(address,uint256,uint256,uint256)": {
        "notice": ""
      },
      "sendEth(address,uint256)": {
        "notice": ""
      },
      "setFdtIn(uint256)": {
        "notice": "tradefund"
      }
    },
    "notice": ""
  }
}