{
  "contractName": "Moloch",
  "abi": [
    {
      "constant": true,
      "inputs": [],
      "name": "processingReward",
      "outputs": [
        {
          "name": "",
          "type": "uint256"
        }
      ],
      "payable": false,
      "stateMutability": "view",
      "type": "function"
    },
    {
      "constant": true,
      "inputs": [
        {
          "name": "",
          "type": "address"
        }
      ],
      "name": "members",
      "outputs": [
        {
          "name": "delegateKey",
          "type": "address"
        },
        {
          "name": "shares",
          "type": "uint256"
        },
        {
          "name": "exists",
          "type": "bool"
        },
        {
          "name": "highestIndexYesVote",
          "type": "uint256"
        }
      ],
      "payable": false,
      "stateMutability": "view",
      "type": "function"
    },
    {
      "constant": true,
      "inputs": [],
      "name": "totalSharesRequested",
      "outputs": [
        {
          "name": "",
          "type": "uint256"
        }
      ],
      "payable": false,
      "stateMutability": "view",
      "type": "function"
    },
    {
      "constant": true,
      "inputs": [],
      "name": "totalShares",
      "outputs": [
        {
          "name": "",
          "type": "uint256"
        }
      ],
      "payable": false,
      "stateMutability": "view",
      "type": "function"
    },
    {
      "constant": true,
      "inputs": [
        {
          "name": "",
          "type": "uint256"
        }
      ],
      "name": "proposalQueue",
      "outputs": [
        {
          "name": "proposer",
          "type": "address"
        },
        {
          "name": "applicant",
          "type": "address"
        },
        {
          "name": "sharesRequested",
          "type": "uint256"
        },
        {
          "name": "startingPeriod",
          "type": "uint256"
        },
        {
          "name": "yesVotes",
          "type": "uint256"
        },
        {
          "name": "noVotes",
          "type": "uint256"
        },
        {
          "name": "processed",
          "type": "bool"
        },
        {
          "name": "didPass",
          "type": "bool"
        },
        {
          "name": "aborted",
          "type": "bool"
        },
        {
          "name": "tokenTribute",
          "type": "uint256"
        },
        {
          "name": "details",
          "type": "string"
        },
        {
          "name": "maxTotalSharesAtYesVote",
          "type": "uint256"
        }
      ],
      "payable": false,
      "stateMutability": "view",
      "type": "function"
    },
    {
      "constant": true,
      "inputs": [
        {
          "name": "",
          "type": "address"
        }
      ],
      "name": "memberAddressByDelegateKey",
      "outputs": [
        {
          "name": "",
          "type": "address"
        }
      ],
      "payable": false,
      "stateMutability": "view",
      "type": "function"
    },
    {
      "constant": true,
      "inputs": [],
      "name": "gracePeriodLength",
      "outputs": [
        {
          "name": "",
          "type": "uint256"
        }
      ],
      "payable": false,
      "stateMutability": "view",
      "type": "function"
    },
    {
      "constant": true,
      "inputs": [],
      "name": "abortWindow",
      "outputs": [
        {
          "name": "",
          "type": "uint256"
        }
      ],
      "payable": false,
      "stateMutability": "view",
      "type": "function"
    },
    {
      "constant": true,
      "inputs": [],
      "name": "summoningTime",
      "outputs": [
        {
          "name": "",
          "type": "uint256"
        }
      ],
      "payable": false,
      "stateMutability": "view",
      "type": "function"
    },
    {
      "constant": true,
      "inputs": [],
      "name": "votingPeriodLength",
      "outputs": [
        {
          "name": "",
          "type": "uint256"
        }
      ],
      "payable": false,
      "stateMutability": "view",
      "type": "function"
    },
    {
      "constant": true,
      "inputs": [],
      "name": "proposalDeposit",
      "outputs": [
        {
          "name": "",
          "type": "uint256"
        }
      ],
      "payable": false,
      "stateMutability": "view",
      "type": "function"
    },
    {
      "constant": true,
      "inputs": [],
      "name": "guildBank",
      "outputs": [
        {
          "name": "",
          "type": "address"
        }
      ],
      "payable": false,
      "stateMutability": "view",
      "type": "function"
    },
    {
      "constant": true,
      "inputs": [],
      "name": "dilutionBound",
      "outputs": [
        {
          "name": "",
          "type": "uint256"
        }
      ],
      "payable": false,
      "stateMutability": "view",
      "type": "function"
    },
    {
      "constant": true,
      "inputs": [],
      "name": "periodDuration",
      "outputs": [
        {
          "name": "",
          "type": "uint256"
        }
      ],
      "payable": false,
      "stateMutability": "view",
      "type": "function"
    },
    {
      "constant": true,
      "inputs": [],
      "name": "approvedToken",
      "outputs": [
        {
          "name": "",
          "type": "address"
        }
      ],
      "payable": false,
      "stateMutability": "view",
      "type": "function"
    },
    {
      "inputs": [
        {
          "name": "summoner",
          "type": "address"
        },
        {
          "name": "_approvedToken",
          "type": "address"
        },
        {
          "name": "_periodDuration",
          "type": "uint256"
        },
        {
          "name": "_votingPeriodLength",
          "type": "uint256"
        },
        {
          "name": "_gracePeriodLength",
          "type": "uint256"
        },
        {
          "name": "_abortWindow",
          "type": "uint256"
        },
        {
          "name": "_proposalDeposit",
          "type": "uint256"
        },
        {
          "name": "_dilutionBound",
          "type": "uint256"
        },
        {
          "name": "_processingReward",
          "type": "uint256"
        }
      ],
      "payable": false,
      "stateMutability": "nonpayable",
      "type": "constructor"
    },
    {
      "anonymous": false,
      "inputs": [
        {
          "indexed": false,
          "name": "proposalIndex",
          "type": "uint256"
        },
        {
          "indexed": true,
          "name": "delegateKey",
          "type": "address"
        },
        {
          "indexed": true,
          "name": "memberAddress",
          "type": "address"
        },
        {
          "indexed": true,
          "name": "applicant",
          "type": "address"
        },
        {
          "indexed": false,
          "name": "tokenTribute",
          "type": "uint256"
        },
        {
          "indexed": false,
          "name": "sharesRequested",
          "type": "uint256"
        }
      ],
      "name": "SubmitProposal",
      "type": "event"
    },
    {
      "anonymous": false,
      "inputs": [
        {
          "indexed": true,
          "name": "proposalIndex",
          "type": "uint256"
        },
        {
          "indexed": true,
          "name": "delegateKey",
          "type": "address"
        },
        {
          "indexed": true,
          "name": "memberAddress",
          "type": "address"
        },
        {
          "indexed": false,
          "name": "uintVote",
          "type": "uint8"
        }
      ],
      "name": "SubmitVote",
      "type": "event"
    },
    {
      "anonymous": false,
      "inputs": [
        {
          "indexed": true,
          "name": "proposalIndex",
          "type": "uint256"
        },
        {
          "indexed": true,
          "name": "applicant",
          "type": "address"
        },
        {
          "indexed": true,
          "name": "memberAddress",
          "type": "address"
        },
        {
          "indexed": false,
          "name": "tokenTribute",
          "type": "uint256"
        },
        {
          "indexed": false,
          "name": "sharesRequested",
          "type": "uint256"
        },
        {
          "indexed": false,
          "name": "didPass",
          "type": "bool"
        }
      ],
      "name": "ProcessProposal",
      "type": "event"
    },
    {
      "anonymous": false,
      "inputs": [
        {
          "indexed": true,
          "name": "memberAddress",
          "type": "address"
        },
        {
          "indexed": false,
          "name": "sharesToBurn",
          "type": "uint256"
        }
      ],
      "name": "Ragequit",
      "type": "event"
    },
    {
      "anonymous": false,
      "inputs": [
        {
          "indexed": true,
          "name": "proposalIndex",
          "type": "uint256"
        },
        {
          "indexed": false,
          "name": "applicantAddress",
          "type": "address"
        }
      ],
      "name": "Abort",
      "type": "event"
    },
    {
      "anonymous": false,
      "inputs": [
        {
          "indexed": true,
          "name": "memberAddress",
          "type": "address"
        },
        {
          "indexed": false,
          "name": "newDelegateKey",
          "type": "address"
        }
      ],
      "name": "UpdateDelegateKey",
      "type": "event"
    },
    {
      "anonymous": false,
      "inputs": [
        {
          "indexed": true,
          "name": "summoner",
          "type": "address"
        },
        {
          "indexed": false,
          "name": "shares",
          "type": "uint256"
        }
      ],
      "name": "SummonComplete",
      "type": "event"
    },
    {
      "constant": false,
      "inputs": [
        {
          "name": "applicant",
          "type": "address"
        },
        {
          "name": "tokenTribute",
          "type": "uint256"
        },
        {
          "name": "sharesRequested",
          "type": "uint256"
        },
        {
          "name": "details",
          "type": "string"
        }
      ],
      "name": "submitProposal",
      "outputs": [],
      "payable": false,
      "stateMutability": "nonpayable",
      "type": "function"
    },
    {
      "constant": false,
      "inputs": [
        {
          "name": "proposalIndex",
          "type": "uint256"
        },
        {
          "name": "uintVote",
          "type": "uint8"
        }
      ],
      "name": "submitVote",
      "outputs": [],
      "payable": false,
      "stateMutability": "nonpayable",
      "type": "function"
    },
    {
      "constant": false,
      "inputs": [
        {
          "name": "proposalIndex",
          "type": "uint256"
        }
      ],
      "name": "processProposal",
      "outputs": [],
      "payable": false,
      "stateMutability": "nonpayable",
      "type": "function"
    },
    {
      "constant": false,
      "inputs": [
        {
          "name": "sharesToBurn",
          "type": "uint256"
        }
      ],
      "name": "ragequit",
      "outputs": [],
      "payable": false,
      "stateMutability": "nonpayable",
      "type": "function"
    },
    {
      "constant": false,
      "inputs": [
        {
          "name": "proposalIndex",
          "type": "uint256"
        }
      ],
      "name": "abort",
      "outputs": [],
      "payable": false,
      "stateMutability": "nonpayable",
      "type": "function"
    },
    {
      "constant": false,
      "inputs": [
        {
          "name": "newDelegateKey",
          "type": "address"
        }
      ],
      "name": "updateDelegateKey",
      "outputs": [],
      "payable": false,
      "stateMutability": "nonpayable",
      "type": "function"
    },
    {
      "constant": true,
      "inputs": [],
      "name": "getCurrentPeriod",
      "outputs": [
        {
          "name": "",
          "type": "uint256"
        }
      ],
      "payable": false,
      "stateMutability": "view",
      "type": "function"
    },
    {
      "constant": true,
      "inputs": [],
      "name": "getProposalQueueLength",
      "outputs": [
        {
          "name": "",
          "type": "uint256"
        }
      ],
      "payable": false,
      "stateMutability": "view",
      "type": "function"
    },
    {
      "constant": true,
      "inputs": [
        {
          "name": "highestIndexYesVote",
          "type": "uint256"
        }
      ],
      "name": "canRagequit",
      "outputs": [
        {
          "name": "",
          "type": "bool"
        }
      ],
      "payable": false,
      "stateMutability": "view",
      "type": "function"
    },
    {
      "constant": true,
      "inputs": [
        {
          "name": "startingPeriod",
          "type": "uint256"
        }
      ],
      "name": "hasVotingPeriodExpired",
      "outputs": [
        {
          "name": "",
          "type": "bool"
        }
      ],
      "payable": false,
      "stateMutability": "view",
      "type": "function"
    },
    {
      "constant": true,
      "inputs": [
        {
          "name": "memberAddress",
          "type": "address"
        },
        {
          "name": "proposalIndex",
          "type": "uint256"
        }
      ],
      "name": "getMemberProposalVote",
      "outputs": [
        {
          "name": "",
          "type": "uint8"
        }
      ],
      "payable": false,
      "stateMutability": "view",
      "type": "function"
    }
  ],
  "bytecode": "0x60806040526000600a556000600b553480156200001b57600080fd5b50604051610120806200594283398101806040526101208110156200003f57600080fd5b81019080805190602001909291908051906020019092919080519060200190929190805190602001909291908051906020019092919080519060200190929190805190602001909291908051906020019092919080519060200190929190505050600073ffffffffffffffffffffffffffffffffffffffff168973ffffffffffffffffffffffffffffffffffffffff16141562000128576040517f08c379a000000000000000000000000000000000000000000000000000000000815260040180806020018281038252602a8152602001806200570d602a913960400191505060405180910390fd5b600073ffffffffffffffffffffffffffffffffffffffff168873ffffffffffffffffffffffffffffffffffffffff161415620001b0576040517f08c379a0000000000000000000000000000000000000000000000000000000008152600401808060200182810382526030815260200180620058e26030913960400191505060405180910390fd5b600087116200020b576040517f08c379a0000000000000000000000000000000000000000000000000000000008152600401808060200182810382526031815260200180620058b16031913960400191505060405180910390fd5b6000861162000266576040517f08c379a00000000000000000000000000000000000000000000000000000000081526004018080602001828103825260358152602001806200587c6035913960400191505060405180910390fd5b670de0b6b3a7640000861115620002c9576040517f08c379a0000000000000000000000000000000000000000000000000000000008152600401808060200182810382526037815260200180620057376037913960400191505060405180910390fd5b670de0b6b3a76400008511156200032c576040517f08c379a0000000000000000000000000000000000000000000000000000000008152600401808060200182810382526036815260200180620058466036913960400191505060405180910390fd5b6000841162000387576040517f08c379a000000000000000000000000000000000000000000000000000000000815260040180806020018281038252602e815260200180620056df602e913960400191505060405180910390fd5b85841115620003e2576040517f08c379a0000000000000000000000000000000000000000000000000000000008152600401808060200182810382526057815260200180620057ef6057913960600191505060405180910390fd5b600082116200043d576040517f08c379a0000000000000000000000000000000000000000000000000000000008152600401808060200182810382526030815260200180620059126030913960400191505060405180910390fd5b670de0b6b3a7640000821115620004a0576040517f08c379a0000000000000000000000000000000000000000000000000000000008152600401808060200182810382526032815260200180620057bd6032913960400191505060405180910390fd5b80831015620004fb576040517f08c379a000000000000000000000000000000000000000000000000000000000815260040180806020018281038252604f8152602001806200576e604f913960600191505060405180910390fd5b87600860006101000a81548173ffffffffffffffffffffffffffffffffffffffff021916908373ffffffffffffffffffffffffffffffffffffffff160217905550876040516200054b90620007f4565b808273ffffffffffffffffffffffffffffffffffffffff1673ffffffffffffffffffffffffffffffffffffffff168152602001915050604051809103906000f0801580156200059e573d6000803e3d6000fd5b50600960006101000a81548173ffffffffffffffffffffffffffffffffffffffff021916908373ffffffffffffffffffffffffffffffffffffffff160217905550866000819055508560018190555084600281905550836003819055508260048190555081600581905550806006819055504260078190555060405180608001604052808a73ffffffffffffffffffffffffffffffffffffffff168152602001600181526020016001151581526020016000815250600c60008b73ffffffffffffffffffffffffffffffffffffffff1673ffffffffffffffffffffffffffffffffffffffff16815260200190815260200160002060008201518160000160006101000a81548173ffffffffffffffffffffffffffffffffffffffff021916908373ffffffffffffffffffffffffffffffffffffffff1602179055506020820151816001015560408201518160020160006101000a81548160ff0219169083151502179055506060820151816003015590505088600d60008b73ffffffffffffffffffffffffffffffffffffffff1673ffffffffffffffffffffffffffffffffffffffff16815260200190815260200160002060006101000a81548173ffffffffffffffffffffffffffffffffffffffff021916908373ffffffffffffffffffffffffffffffffffffffff1602179055506001600a819055508873ffffffffffffffffffffffffffffffffffffffff167f03995a801b13c36325306deef859ef977ce61c6e15a794281bf969d20482522760016040518082815260200191505060405180910390a250505050505050505062000802565b6109e88062004cf783390190565b6144e580620008126000396000f3fe608060405234801561001057600080fd5b506004361061018e5760003560e01c80638340bbce116100de578063a3dc380011610097578063b470aade11610071578063b470aade14610838578063bab4625914610856578063e50701f4146108a0578063e63bc62d146108ce5761018e565b8063a3dc38001461078a578063a42afd29146107d0578063afe5475f1461081a5761018e565b80638340bbce146105b05780638436593f146105ce5780638b15a605146105fc5780639425a4761461061a578063962006c31461066057806399653fbe1461074f5761018e565b80633a98ef391161014b57806363858f2d1161012557806363858f2d146105385780637896ddaf14610556578063797daf70146105745780637d5b6c72146105925761018e565b80633a98ef391461033e5780633b214a741461035c578063402c1794146104b45761018e565b806303e32fa114610193578063044a0ca8146101b1578063086146d21461022157806308ae4b0c1461023f5780631a396a4a146102dc5780632582bf2a146102fa575b600080fd5b61019b6108fc565b6040518082815260200191505060405180910390f35b6101fd600480360360408110156101c757600080fd5b81019080803573ffffffffffffffffffffffffffffffffffffffff16906020019092919080359060200190929190505050610902565b6040518082600281111561020d57fe5b60ff16815260200191505060405180910390f35b610229610a77565b6040518082815260200191505060405180910390f35b6102816004803603602081101561025557600080fd5b81019080803573ffffffffffffffffffffffffffffffffffffffff169060200190929190505050610aa7565b604051808573ffffffffffffffffffffffffffffffffffffffff1673ffffffffffffffffffffffffffffffffffffffff1681526020018481526020018315151515815260200182815260200194505050505060405180910390f35b6102e4610b04565b6040518082815260200191505060405180910390f35b61033c6004803603602081101561031057600080fd5b81019080803573ffffffffffffffffffffffffffffffffffffffff169060200190929190505050610b0a565b005b61034661102f565b6040518082815260200191505060405180910390f35b6103886004803603602081101561037257600080fd5b8101908080359060200190929190505050611035565b604051808d73ffffffffffffffffffffffffffffffffffffffff1673ffffffffffffffffffffffffffffffffffffffff1681526020018c73ffffffffffffffffffffffffffffffffffffffff1673ffffffffffffffffffffffffffffffffffffffff1681526020018b81526020018a815260200189815260200188815260200187151515158152602001861515151581526020018515151515815260200184815260200180602001838152602001828103825284818151815260200191508051906020019080838360005b8381101561046e578082015181840152602081019050610453565b50505050905090810190601f16801561049b5780820380516001836020036101000a031916815260200191505b509d505050505050505050505050505060405180910390f35b6104f6600480360360208110156104ca57600080fd5b81019080803573ffffffffffffffffffffffffffffffffffffffff1690602001909291905050506111a1565b604051808273ffffffffffffffffffffffffffffffffffffffff1673ffffffffffffffffffffffffffffffffffffffff16815260200191505060405180910390f35b6105406111d4565b6040518082815260200191505060405180910390f35b61055e6111da565b6040518082815260200191505060405180910390f35b61057c6111e0565b6040518082815260200191505060405180910390f35b61059a6111ed565b6040518082815260200191505060405180910390f35b6105b86111f3565b6040518082815260200191505060405180910390f35b6105fa600480360360208110156105e457600080fd5b81019080803590602001909291905050506111f9565b005b61060461156b565b6040518082815260200191505060405180910390f35b6106466004803603602081101561063057600080fd5b8101908080359060200190929190505050611571565b604051808215151515815260200191505060405180910390f35b61074d6004803603608081101561067657600080fd5b81019080803573ffffffffffffffffffffffffffffffffffffffff1690602001909291908035906020019092919080359060200190929190803590602001906401000000008111156106c757600080fd5b8201836020820111156106d957600080fd5b803590602001918460018302840111640100000000831117156106fb57600080fd5b91908080601f016020809104026020016040519081016040528093929190818152602001838380828437600081840152601f19601f820116905080830192505050505050509192919290505050611599565b005b6107886004803603604081101561076557600080fd5b8101908080359060200190929190803560ff169060200190929190505050611e33565b005b6107b6600480360360208110156107a057600080fd5b81019080803590602001909291905050506124ca565b604051808215151515815260200191505060405180910390f35b6107d861255c565b604051808273ffffffffffffffffffffffffffffffffffffffff1673ffffffffffffffffffffffffffffffffffffffff16815260200191505060405180910390f35b610822612582565b6040518082815260200191505060405180910390f35b610840612588565b6040518082815260200191505060405180910390f35b61085e61258e565b604051808273ffffffffffffffffffffffffffffffffffffffff1673ffffffffffffffffffffffffffffffffffffffff16815260200191505060405180910390f35b6108cc600480360360208110156108b657600080fd5b81019080803590602001909291905050506125b4565b005b6108fa600480360360208110156108e457600080fd5b81019080803590602001909291905050506129ad565b005b60065481565b6000600c60008473ffffffffffffffffffffffffffffffffffffffff1673ffffffffffffffffffffffffffffffffffffffff16815260200190815260200160002060020160009054906101000a900460ff166109a9576040517f08c379a000000000000000000000000000000000000000000000000000000000815260040180806020018281038252603481526020018061418f6034913960400191505060405180910390fd5b600e805490508210610a06576040517f08c379a0000000000000000000000000000000000000000000000000000000008152600401808060200182810382526036815260200180613f356036913960400191505060405180910390fd5b600e8281548110610a1357fe5b90600052602060002090600b0201600a0160008473ffffffffffffffffffffffffffffffffffffffff1673ffffffffffffffffffffffffffffffffffffffff16815260200190815260200160002060009054906101000a900460ff16905092915050565b6000610aa2600054610a94600754426138a590919063ffffffff16565b6138ef90919063ffffffff16565b905090565b600c6020528060005260406000206000915090508060000160009054906101000a900473ffffffffffffffffffffffffffffffffffffffff16908060010154908060020160009054906101000a900460ff16908060030154905084565b600b5481565b6000600c60003373ffffffffffffffffffffffffffffffffffffffff1673ffffffffffffffffffffffffffffffffffffffff1681526020019081526020016000206001015411610ba5576040517f08c379a0000000000000000000000000000000000000000000000000000000008152600401808060200182810382526021815260200180613e116021913960400191505060405180910390fd5b600073ffffffffffffffffffffffffffffffffffffffff168173ffffffffffffffffffffffffffffffffffffffff161415610c2b576040517f08c379a00000000000000000000000000000000000000000000000000000000081526004018080602001828103825260368152602001806143e56036913960400191505060405180910390fd5b3373ffffffffffffffffffffffffffffffffffffffff168173ffffffffffffffffffffffffffffffffffffffff1614610e0a57600c60008273ffffffffffffffffffffffffffffffffffffffff1673ffffffffffffffffffffffffffffffffffffffff16815260200190815260200160002060020160009054906101000a900460ff1615610d04576040517f08c379a000000000000000000000000000000000000000000000000000000000815260040180806020018281038252603b815260200180613dd6603b913960400191505060405180910390fd5b600c6000600d60008473ffffffffffffffffffffffffffffffffffffffff1673ffffffffffffffffffffffffffffffffffffffff16815260200190815260200160002060009054906101000a900473ffffffffffffffffffffffffffffffffffffffff1673ffffffffffffffffffffffffffffffffffffffff1673ffffffffffffffffffffffffffffffffffffffff16815260200190815260200160002060020160009054906101000a900460ff1615610e09576040517f08c379a00000000000000000000000000000000000000000000000000000000081526004018080602001828103825260418152602001806142ba6041913960600191505060405180910390fd5b5b6000600c60003373ffffffffffffffffffffffffffffffffffffffff1673ffffffffffffffffffffffffffffffffffffffff16815260200190815260200160002090506000600d60008360000160009054906101000a900473ffffffffffffffffffffffffffffffffffffffff1673ffffffffffffffffffffffffffffffffffffffff1673ffffffffffffffffffffffffffffffffffffffff16815260200190815260200160002060006101000a81548173ffffffffffffffffffffffffffffffffffffffff021916908373ffffffffffffffffffffffffffffffffffffffff16021790555033600d60008473ffffffffffffffffffffffffffffffffffffffff1673ffffffffffffffffffffffffffffffffffffffff16815260200190815260200160002060006101000a81548173ffffffffffffffffffffffffffffffffffffffff021916908373ffffffffffffffffffffffffffffffffffffffff160217905550818160000160006101000a81548173ffffffffffffffffffffffffffffffffffffffff021916908373ffffffffffffffffffffffffffffffffffffffff1602179055503373ffffffffffffffffffffffffffffffffffffffff167fde7b64a369e10562cc2e71f0f1f944eaf144b75fead6ecb51fac9c4dd693488583604051808273ffffffffffffffffffffffffffffffffffffffff1673ffffffffffffffffffffffffffffffffffffffff16815260200191505060405180910390a25050565b600a5481565b600e818154811061104257fe5b90600052602060002090600b02016000915090508060000160009054906101000a900473ffffffffffffffffffffffffffffffffffffffff16908060010160009054906101000a900473ffffffffffffffffffffffffffffffffffffffff16908060020154908060030154908060040154908060050154908060060160009054906101000a900460ff16908060060160019054906101000a900460ff16908060060160029054906101000a900460ff1690806007015490806008018054600181600116156101000203166002900480601f0160208091040260200160405190810160405280929190818152602001828054600181600116156101000203166002900480156111915780601f1061116657610100808354040283529160200191611191565b820191906000526020600020905b81548152906001019060200180831161117457829003601f168201915b505050505090806009015490508c565b600d6020528060005260406000206000915054906101000a900473ffffffffffffffffffffffffffffffffffffffff1681565b60025481565b60035481565b6000600e80549050905090565b60075481565b60015481565b6000600c60003373ffffffffffffffffffffffffffffffffffffffff1673ffffffffffffffffffffffffffffffffffffffff1681526020019081526020016000206001015411611294576040517f08c379a0000000000000000000000000000000000000000000000000000000008152600401808060200182810382526021815260200180613e116021913960400191505060405180910390fd5b6000600a5490506000600c60003373ffffffffffffffffffffffffffffffffffffffff1673ffffffffffffffffffffffffffffffffffffffff1681526020019081526020016000209050828160010154101561133b576040517f08c379a00000000000000000000000000000000000000000000000000000000081526004018080602001828103825260268152602001806143986026913960400191505060405180910390fd5b61134881600301546124ca565b61139d576040517f08c379a000000000000000000000000000000000000000000000000000000000815260040180806020018281038252605e8152602001806140a7605e913960600191505060405180910390fd5b6113b48382600101546138a590919063ffffffff16565b81600101819055506113d183600a546138a590919063ffffffff16565b600a81905550600960009054906101000a900473ffffffffffffffffffffffffffffffffffffffff1673ffffffffffffffffffffffffffffffffffffffff1663b5c5f6723385856040518463ffffffff1660e01b8152600401808473ffffffffffffffffffffffffffffffffffffffff1673ffffffffffffffffffffffffffffffffffffffff1681526020018381526020018281526020019350505050602060405180830381600087803b15801561148857600080fd5b505af115801561149c573d6000803e3d6000fd5b505050506040513d60208110156114b257600080fd5b8101908080519060200190929190505050611518576040517f08c379a000000000000000000000000000000000000000000000000000000000815260040180806020018281038252603d815260200180613e32603d913960400191505060405180910390fd5b3373ffffffffffffffffffffffffffffffffffffffff167f667cb7a1818eacd2e3a421e734429ba9c4c7dec85e578e098b6d72cd2bfbf2f6846040518082815260200191505060405180910390a2505050565b60045481565b60006115886001548361393990919063ffffffff16565b611590610a77565b10159050919050565b6000600c6000600d60003373ffffffffffffffffffffffffffffffffffffffff1673ffffffffffffffffffffffffffffffffffffffff16815260200190815260200160002060009054906101000a900473ffffffffffffffffffffffffffffffffffffffff1673ffffffffffffffffffffffffffffffffffffffff1673ffffffffffffffffffffffffffffffffffffffff1681526020019081526020016000206001015411611693576040517f08c379a0000000000000000000000000000000000000000000000000000000008152600401808060200182810382526025815260200180613e6f6025913960400191505060405180910390fd5b600073ffffffffffffffffffffffffffffffffffffffff168473ffffffffffffffffffffffffffffffffffffffff161415611719576040517f08c379a000000000000000000000000000000000000000000000000000000000815260040180806020018281038252602e815260200180613fce602e913960400191505060405180910390fd5b670de0b6b3a764000061174b8361173d600b54600a5461393990919063ffffffff16565b61393990919063ffffffff16565b11156117a2576040517f08c379a00000000000000000000000000000000000000000000000000000000081526004018080602001828103825260328152602001806142026032913960400191505060405180910390fd5b6117b782600b5461393990919063ffffffff16565b600b819055506000600d60003373ffffffffffffffffffffffffffffffffffffffff1673ffffffffffffffffffffffffffffffffffffffff16815260200190815260200160002060009054906101000a900473ffffffffffffffffffffffffffffffffffffffff169050600860009054906101000a900473ffffffffffffffffffffffffffffffffffffffff1673ffffffffffffffffffffffffffffffffffffffff166323b872dd33306004546040518463ffffffff1660e01b8152600401808473ffffffffffffffffffffffffffffffffffffffff1673ffffffffffffffffffffffffffffffffffffffff1681526020018373ffffffffffffffffffffffffffffffffffffffff1673ffffffffffffffffffffffffffffffffffffffff1681526020018281526020019350505050602060405180830381600087803b15801561190057600080fd5b505af1158015611914573d6000803e3d6000fd5b505050506040513d602081101561192a57600080fd5b8101908080519060200190929190505050611990576040517f08c379a000000000000000000000000000000000000000000000000000000000815260040180806020018281038252603f815260200180613d20603f913960400191505060405180910390fd5b600860009054906101000a900473ffffffffffffffffffffffffffffffffffffffff1673ffffffffffffffffffffffffffffffffffffffff166323b872dd8630876040518463ffffffff1660e01b8152600401808473ffffffffffffffffffffffffffffffffffffffff1673ffffffffffffffffffffffffffffffffffffffff1681526020018373ffffffffffffffffffffffffffffffffffffffff1673ffffffffffffffffffffffffffffffffffffffff1681526020018281526020019350505050602060405180830381600087803b158015611a6d57600080fd5b505af1158015611a81573d6000803e3d6000fd5b505050506040513d6020811015611a9757600080fd5b8101908080519060200190929190505050611afd576040517f08c379a0000000000000000000000000000000000000000000000000000000008152600401808060200182810382526036815260200180613e946036913960400191505060405180910390fd5b6000611b6e6001611b60611b0f610a77565b6000600e8054905014611b5857600e611b376001600e805490506138a590919063ffffffff16565b81548110611b4157fe5b90600052602060002090600b020160030154611b5b565b60005b6139c1565b61393990919063ffffffff16565b9050611b78613be7565b6040518061018001604052808473ffffffffffffffffffffffffffffffffffffffff1681526020018873ffffffffffffffffffffffffffffffffffffffff168152602001868152602001838152602001600081526020016000815260200160001515815260200160001515815260200160001515815260200187815260200185815260200160008152509050600e819080600181540180825580915050906001820390600052602060002090600b02016000909192909190915060008201518160000160006101000a81548173ffffffffffffffffffffffffffffffffffffffff021916908373ffffffffffffffffffffffffffffffffffffffff16021790555060208201518160010160006101000a81548173ffffffffffffffffffffffffffffffffffffffff021916908373ffffffffffffffffffffffffffffffffffffffff16021790555060408201518160020155606082015181600301556080820151816004015560a0820151816005015560c08201518160060160006101000a81548160ff02191690831515021790555060e08201518160060160016101000a81548160ff0219169083151502179055506101008201518160060160026101000a81548160ff0219169083151502179055506101208201518160070155610140820151816008019080519060200190611d71929190613c7a565b5061016082015181600901555050506000611d9b6001600e805490506138a590919063ffffffff16565b90508773ffffffffffffffffffffffffffffffffffffffff168473ffffffffffffffffffffffffffffffffffffffff163373ffffffffffffffffffffffffffffffffffffffff167f2d105ebbc222c190059b3979356e13469f6a29a350add74ac3bf4f22f16301d6848b8b60405180848152602001838152602001828152602001935050505060405180910390a45050505050505050565b6000600c6000600d60003373ffffffffffffffffffffffffffffffffffffffff1673ffffffffffffffffffffffffffffffffffffffff16815260200190815260200160002060009054906101000a900473ffffffffffffffffffffffffffffffffffffffff1673ffffffffffffffffffffffffffffffffffffffff1673ffffffffffffffffffffffffffffffffffffffff1681526020019081526020016000206001015411611f2d576040517f08c379a0000000000000000000000000000000000000000000000000000000008152600401808060200182810382526025815260200180613e6f6025913960400191505060405180910390fd5b6000600d60003373ffffffffffffffffffffffffffffffffffffffff1673ffffffffffffffffffffffffffffffffffffffff16815260200190815260200160002060009054906101000a900473ffffffffffffffffffffffffffffffffffffffff1690506000600c60008373ffffffffffffffffffffffffffffffffffffffff1673ffffffffffffffffffffffffffffffffffffffff1681526020019081526020016000209050600e805490508410612031576040517f08c379a000000000000000000000000000000000000000000000000000000000815260040180806020018281038252602c815260200180614105602c913960400191505060405180910390fd5b6000600e858154811061204057fe5b90600052602060002090600b0201905060038460ff16106120ac576040517f08c379a000000000000000000000000000000000000000000000000000000000815260040180806020018281038252603181526020018061441b6031913960400191505060405180910390fd5b60008460ff1660028111156120bd57fe5b905081600301546120cc610a77565b1015612123576040517f08c379a00000000000000000000000000000000000000000000000000000000081526004018080602001828103825260328152602001806142fb6032913960400191505060405180910390fd5b6121308260030154611571565b15612186576040517f08c379a00000000000000000000000000000000000000000000000000000000081526004018080602001828103825260378152602001806140296037913960400191505060405180910390fd5b6000600281111561219357fe5b82600a0160008673ffffffffffffffffffffffffffffffffffffffff1673ffffffffffffffffffffffffffffffffffffffff16815260200190815260200160002060009054906101000a900460ff1660028111156121ed57fe5b14612243576040517f08c379a000000000000000000000000000000000000000000000000000000000815260040180806020018281038252603e81526020018061427c603e913960400191505060405180910390fd5b6001600281111561225057fe5b81600281111561225c57fe5b148061227d575060028081111561226f57fe5b81600281111561227b57fe5b145b6122d2576040517f08c379a0000000000000000000000000000000000000000000000000000000008152600401808060200182810382526032815260200180613f6b6032913960400191505060405180910390fd5b8160060160029054906101000a900460ff161561233a576040517f08c379a000000000000000000000000000000000000000000000000000000000815260040180806020018281038252602e81526020018061432d602e913960400191505060405180910390fd5b8082600a0160008673ffffffffffffffffffffffffffffffffffffffff1673ffffffffffffffffffffffffffffffffffffffff16815260200190815260200160002060006101000a81548160ff0219169083600281111561239757fe5b0217905550600160028111156123a957fe5b8160028111156123b557fe5b1415612413576123d68360010154836004015461393990919063ffffffff16565b826004018190555082600301548611156123f4578583600301819055505b8160090154600a54111561240e57600a5482600901819055505b612456565b60028081111561241f57fe5b81600281111561242b57fe5b14156124555761244c8360010154836005015461393990919063ffffffff16565b82600501819055505b5b8373ffffffffffffffffffffffffffffffffffffffff163373ffffffffffffffffffffffffffffffffffffffff16877f29bf0061f2faa9daa482f061b116195432d435536d8af4ae6b3c5dd78223679b88604051808260ff1660ff16815260200191505060405180910390a4505050505050565b6000600e805490508210612529576040517f08c379a000000000000000000000000000000000000000000000000000000000815260040180806020018281038252602d815260200180613ffc602d913960400191505060405180910390fd5b600e828154811061253657fe5b90600052602060002090600b020160060160009054906101000a900460ff169050919050565b600960009054906101000a900473ffffffffffffffffffffffffffffffffffffffff1681565b60055481565b60005481565b600860009054906101000a900473ffffffffffffffffffffffffffffffffffffffff1681565b600e805490508110612611576040517f08c379a00000000000000000000000000000000000000000000000000000000081526004018080602001828103825260278152602001806143be6027913960400191505060405180910390fd5b6000600e828154811061262057fe5b90600052602060002090600b020190508060010160009054906101000a900473ffffffffffffffffffffffffffffffffffffffff1673ffffffffffffffffffffffffffffffffffffffff163373ffffffffffffffffffffffffffffffffffffffff16146126d8576040517f08c379a000000000000000000000000000000000000000000000000000000000815260040180806020018281038252602c815260200180613f09602c913960400191505060405180910390fd5b6126f1600354826003015461393990919063ffffffff16565b6126f9610a77565b1061274f576040517f08c379a0000000000000000000000000000000000000000000000000000000008152600401808060200182810382526031815260200180613f9d6031913960400191505060405180910390fd5b8060060160029054906101000a900460ff16156127b7576040517f08c379a000000000000000000000000000000000000000000000000000000000815260040180806020018281038252603b815260200180613d9b603b913960400191505060405180910390fd5b6000816007015490506000826007018190555060018260060160026101000a81548160ff021916908315150217905550600860009054906101000a900473ffffffffffffffffffffffffffffffffffffffff1673ffffffffffffffffffffffffffffffffffffffff1663a9059cbb8360010160009054906101000a900473ffffffffffffffffffffffffffffffffffffffff16836040518363ffffffff1660e01b8152600401808373ffffffffffffffffffffffffffffffffffffffff1673ffffffffffffffffffffffffffffffffffffffff16815260200182815260200192505050602060405180830381600087803b1580156128b457600080fd5b505af11580156128c8573d6000803e3d6000fd5b505050506040513d60208110156128de57600080fd5b8101908080519060200190929190505050612944576040517f08c379a000000000000000000000000000000000000000000000000000000000815260040180806020018281038252603f8152602001806141c3603f913960400191505060405180910390fd5b827fa749dd3df92cae4d106b3eadf60c0dffd3698de09c67ce58ce6f5d02eb82131333604051808273ffffffffffffffffffffffffffffffffffffffff1673ffffffffffffffffffffffffffffffffffffffff16815260200191505060405180910390a2505050565b600e805490508110612a0a576040517f08c379a00000000000000000000000000000000000000000000000000000000081526004018080602001828103825260318152602001806144896031913960400191505060405180910390fd5b6000600e8281548110612a1957fe5b90600052602060002090600b02019050612a56600254612a48600154846003015461393990919063ffffffff16565b61393990919063ffffffff16565b612a5e610a77565b1015612ab5576040517f08c379a000000000000000000000000000000000000000000000000000000000815260040180806020018281038252603f815260200180613eca603f913960400191505060405180910390fd5b600015158160060160009054906101000a900460ff16151514612b23576040517f08c379a000000000000000000000000000000000000000000000000000000000815260040180806020018281038252603d81526020018061444c603d913960400191505060405180910390fd5b6000821480612b6d5750600e612b436001846138a590919063ffffffff16565b81548110612b4d57fe5b90600052602060002090600b020160060160009054906101000a900460ff165b612bc2576040517f08c379a000000000000000000000000000000000000000000000000000000000815260040180806020018281038252603d815260200180614131603d913960400191505060405180910390fd5b60018160060160006101000a81548160ff021916908315150217905550612bf88160020154600b546138a590919063ffffffff16565b600b819055506000816005015482600401541190508160090154612c29600554600a546139db90919063ffffffff16565b1015612c3457600090505b808015612c5057508160060160029054906101000a900460ff16155b156133c65760018260060160016101000a81548160ff021916908315150217905550600c60008360010160009054906101000a900473ffffffffffffffffffffffffffffffffffffffff1673ffffffffffffffffffffffffffffffffffffffff1673ffffffffffffffffffffffffffffffffffffffff16815260200190815260200160002060020160009054906101000a900460ff1615612dd757612d688260020154600c60008560010160009054906101000a900473ffffffffffffffffffffffffffffffffffffffff1673ffffffffffffffffffffffffffffffffffffffff1673ffffffffffffffffffffffffffffffffffffffff1681526020019081526020016000206001015461393990919063ffffffff16565b600c60008460010160009054906101000a900473ffffffffffffffffffffffffffffffffffffffff1673ffffffffffffffffffffffffffffffffffffffff1673ffffffffffffffffffffffffffffffffffffffff16815260200190815260200160002060010181905550613243565b600c6000600d60008560010160009054906101000a900473ffffffffffffffffffffffffffffffffffffffff1673ffffffffffffffffffffffffffffffffffffffff1673ffffffffffffffffffffffffffffffffffffffff16815260200190815260200160002060009054906101000a900473ffffffffffffffffffffffffffffffffffffffff1673ffffffffffffffffffffffffffffffffffffffff1673ffffffffffffffffffffffffffffffffffffffff16815260200190815260200160002060020160009054906101000a900460ff1615613038576000600d60008460010160009054906101000a900473ffffffffffffffffffffffffffffffffffffffff1673ffffffffffffffffffffffffffffffffffffffff1673ffffffffffffffffffffffffffffffffffffffff16815260200190815260200160002060009054906101000a900473ffffffffffffffffffffffffffffffffffffffff16905080600d60008373ffffffffffffffffffffffffffffffffffffffff1673ffffffffffffffffffffffffffffffffffffffff16815260200190815260200160002060006101000a81548173ffffffffffffffffffffffffffffffffffffffff021916908373ffffffffffffffffffffffffffffffffffffffff16021790555080600c60008373ffffffffffffffffffffffffffffffffffffffff1673ffffffffffffffffffffffffffffffffffffffff16815260200190815260200160002060000160006101000a81548173ffffffffffffffffffffffffffffffffffffffff021916908373ffffffffffffffffffffffffffffffffffffffff160217905550505b60405180608001604052808360010160009054906101000a900473ffffffffffffffffffffffffffffffffffffffff1673ffffffffffffffffffffffffffffffffffffffff168152602001836002015481526020016001151581526020016000815250600c60008460010160009054906101000a900473ffffffffffffffffffffffffffffffffffffffff1673ffffffffffffffffffffffffffffffffffffffff1673ffffffffffffffffffffffffffffffffffffffff16815260200190815260200160002060008201518160000160006101000a81548173ffffffffffffffffffffffffffffffffffffffff021916908373ffffffffffffffffffffffffffffffffffffffff1602179055506020820151816001015560408201518160020160006101000a81548160ff021916908315150217905550606082015181600301559050508160010160009054906101000a900473ffffffffffffffffffffffffffffffffffffffff16600d60008460010160009054906101000a900473ffffffffffffffffffffffffffffffffffffffff1673ffffffffffffffffffffffffffffffffffffffff1673ffffffffffffffffffffffffffffffffffffffff16815260200190815260200160002060006101000a81548173ffffffffffffffffffffffffffffffffffffffff021916908373ffffffffffffffffffffffffffffffffffffffff1602179055505b61325c8260020154600a5461393990919063ffffffff16565b600a81905550600860009054906101000a900473ffffffffffffffffffffffffffffffffffffffff1673ffffffffffffffffffffffffffffffffffffffff1663a9059cbb600960009054906101000a900473ffffffffffffffffffffffffffffffffffffffff1684600701546040518363ffffffff1660e01b8152600401808373ffffffffffffffffffffffffffffffffffffffff1673ffffffffffffffffffffffffffffffffffffffff16815260200182815260200192505050602060405180830381600087803b15801561333157600080fd5b505af1158015613345573d6000803e3d6000fd5b505050506040513d602081101561335b57600080fd5b81019080805190602001909291905050506133c1576040517f08c379a000000000000000000000000000000000000000000000000000000000815260040180806020018281038252603d81526020018061435b603d913960400191505060405180910390fd5b613528565b600860009054906101000a900473ffffffffffffffffffffffffffffffffffffffff1673ffffffffffffffffffffffffffffffffffffffff1663a9059cbb8360010160009054906101000a900473ffffffffffffffffffffffffffffffffffffffff1684600701546040518363ffffffff1660e01b8152600401808373ffffffffffffffffffffffffffffffffffffffff1673ffffffffffffffffffffffffffffffffffffffff16815260200182815260200192505050602060405180830381600087803b15801561349757600080fd5b505af11580156134ab573d6000803e3d6000fd5b505050506040513d60208110156134c157600080fd5b8101908080519060200190929190505050613527576040517f08c379a000000000000000000000000000000000000000000000000000000000815260040180806020018281038252603c815260200180613d5f603c913960400191505060405180910390fd5b5b600860009054906101000a900473ffffffffffffffffffffffffffffffffffffffff1673ffffffffffffffffffffffffffffffffffffffff1663a9059cbb336006546040518363ffffffff1660e01b8152600401808373ffffffffffffffffffffffffffffffffffffffff1673ffffffffffffffffffffffffffffffffffffffff16815260200182815260200192505050602060405180830381600087803b1580156135d357600080fd5b505af11580156135e7573d6000803e3d6000fd5b505050506040513d60208110156135fd57600080fd5b8101908080519060200190929190505050613663576040517f08c379a00000000000000000000000000000000000000000000000000000000081526004018080602001828103825260488152602001806142346048913960600191505060405180910390fd5b600860009054906101000a900473ffffffffffffffffffffffffffffffffffffffff1673ffffffffffffffffffffffffffffffffffffffff1663a9059cbb8360000160009054906101000a900473ffffffffffffffffffffffffffffffffffffffff166136dd6006546004546138a590919063ffffffff16565b6040518363ffffffff1660e01b8152600401808373ffffffffffffffffffffffffffffffffffffffff1673ffffffffffffffffffffffffffffffffffffffff16815260200182815260200192505050602060405180830381600087803b15801561374657600080fd5b505af115801561375a573d6000803e3d6000fd5b505050506040513d602081101561377057600080fd5b81019080805190602001909291905050506137d6576040517f08c379a00000000000000000000000000000000000000000000000000000000081526004018080602001828103825260478152602001806140606047913960600191505060405180910390fd5b8160000160009054906101000a900473ffffffffffffffffffffffffffffffffffffffff1673ffffffffffffffffffffffffffffffffffffffff168260010160009054906101000a900473ffffffffffffffffffffffffffffffffffffffff1673ffffffffffffffffffffffffffffffffffffffff16847f3f6fc303a82367bb4947244ba21c569a5ed2e870610f1a693366142309d7cbea85600701548660020154866040518084815260200183815260200182151515158152602001935050505060405180910390a4505050565b60006138e783836040518060400160405280601e81526020017f536166654d6174683a207375627472616374696f6e206f766572666c6f770000815250613a61565b905092915050565b600061393183836040518060400160405280601a81526020017f536166654d6174683a206469766973696f6e206279207a65726f000000000000815250613b21565b905092915050565b6000808284019050838110156139b7576040517f08c379a000000000000000000000000000000000000000000000000000000000815260040180806020018281038252601b8152602001807f536166654d6174683a206164646974696f6e206f766572666c6f77000000000081525060200191505060405180910390fd5b8091505092915050565b6000818310156139d157816139d3565b825b905092915050565b6000808314156139ee5760009050613a5b565b60008284029050828482816139ff57fe5b0414613a56576040517f08c379a000000000000000000000000000000000000000000000000000000000815260040180806020018281038252602181526020018061416e6021913960400191505060405180910390fd5b809150505b92915050565b6000838311158290613b0e576040517f08c379a00000000000000000000000000000000000000000000000000000000081526004018080602001828103825283818151815260200191508051906020019080838360005b83811015613ad3578082015181840152602081019050613ab8565b50505050905090810190601f168015613b005780820380516001836020036101000a031916815260200191505b509250505060405180910390fd5b5060008385039050809150509392505050565b60008083118290613bcd576040517f08c379a00000000000000000000000000000000000000000000000000000000081526004018080602001828103825283818151815260200191508051906020019080838360005b83811015613b92578082015181840152602081019050613b77565b50505050905090810190601f168015613bbf5780820380516001836020036101000a031916815260200191505b509250505060405180910390fd5b506000838581613bd957fe5b049050809150509392505050565b604051806101800160405280600073ffffffffffffffffffffffffffffffffffffffff168152602001600073ffffffffffffffffffffffffffffffffffffffff168152602001600081526020016000815260200160008152602001600081526020016000151581526020016000151581526020016000151581526020016000815260200160608152602001600081525090565b828054600181600116156101000203166002900490600052602060002090601f016020900481019282601f10613cbb57805160ff1916838001178555613ce9565b82800160010185558215613ce9579182015b82811115613ce8578251825591602001919060010190613ccd565b5b509050613cf69190613cfa565b5090565b613d1c91905b80821115613d18576000816000905550600101613d00565b5090565b9056fe4d6f6c6f63683a3a7375626d697450726f706f73616c202d2070726f706f73616c206465706f73697420746f6b656e207472616e73666572206661696c65644d6f6c6f63683a3a70726f6365737350726f706f73616c202d206661696c696e6720766f746520746f6b656e207472616e73666572206661696c65644d6f6c6f63683a3a61626f7274202d2070726f706f73616c206d757374206e6f74206861766520616c7265616479206265656e2061626f727465644d6f6c6f63683a3a75706461746544656c65676174654b6579202d2063616e74206f7665727772697465206578697374696e67206d656d626572734d6f6c6f63683a3a6f6e6c794d656d626572202d206e6f742061206d656d6265724d6f6c6f63683a3a7261676571756974202d207769746864726177616c206f6620746f6b656e732066726f6d206775696c6442616e6b206661696c65644d6f6c6f63683a3a6f6e6c7944656c6567617465202d206e6f7420612064656c65676174654d6f6c6f63683a3a7375626d697450726f706f73616c202d207472696275746520746f6b656e207472616e73666572206661696c65644d6f6c6f63683a3a70726f6365737350726f706f73616c202d2070726f706f73616c206973206e6f7420726561647920746f2062652070726f6365737365644d6f6c6f63683a3a61626f7274202d206d73672e73656e646572206d757374206265206170706c6963616e744d6f6c6f63683a3a6765744d656d62657250726f706f73616c566f7465202d2070726f706f73616c20646f65736e27742065786973744d6f6c6f63683a3a7375626d6974566f7465202d20766f7465206d7573742062652065697468657220596573206f72204e6f4d6f6c6f63683a3a61626f7274202d2061626f72742077696e646f77206d757374206e6f742068617665207061737365644d6f6c6f63683a3a7375626d697450726f706f73616c202d206170706c6963616e742063616e6e6f7420626520304d6f6c6f63683a3a63616e5261676571756974202d2070726f706f73616c20646f6573206e6f742065786973744d6f6c6f63683a3a7375626d6974566f7465202d2070726f706f73616c20766f74696e6720706572696f642068617320657870697265644d6f6c6f63683a3a70726f6365737350726f706f73616c202d206661696c656420746f2072657475726e2070726f706f73616c206465706f73697420746f2070726f706f7365724d6f6c6f63683a3a7261676571756974202d2063616e7420726167657175697420756e74696c206869676865737420696e6465782070726f706f73616c206d656d62657220766f74656420594553206f6e2069732070726f6365737365644d6f6c6f63683a3a7375626d6974566f7465202d2070726f706f73616c20646f6573206e6f742065786973744d6f6c6f63683a3a70726f6365737350726f706f73616c202d2070726576696f75732070726f706f73616c206d7573742062652070726f636573736564536166654d6174683a206d756c7469706c69636174696f6e206f766572666c6f774d6f6c6f63683a3a6765744d656d62657250726f706f73616c566f7465202d206d656d62657220646f65736e27742065786973744d6f6c6f63683a3a70726f6365737350726f706f73616c202d206661696c656420746f2072657475726e207472696275746520746f206170706c6963616e744d6f6c6f63683a3a7375626d697450726f706f73616c202d20746f6f206d616e7920736861726573207265717565737465644d6f6c6f63683a3a70726f6365737350726f706f73616c202d206661696c656420746f2073656e642070726f63657373696e672072657761726420746f206d73672e73656e6465724d6f6c6f63683a3a7375626d6974566f7465202d206d656d6265722068617320616c726561647920766f746564206f6e20746869732070726f706f73616c4d6f6c6f63683a3a75706461746544656c65676174654b6579202d2063616e74206f7665727772697465206578697374696e672064656c6567617465206b6579734d6f6c6f63683a3a7375626d6974566f7465202d20766f74696e6720706572696f6420686173206e6f7420737461727465644d6f6c6f63683a3a7375626d6974566f7465202d2070726f706f73616c20686173206265656e2061626f727465644d6f6c6f63683a3a70726f6365737350726f706f73616c202d20746f6b656e207472616e7366657220746f206775696c642062616e6b206661696c65644d6f6c6f63683a3a7261676571756974202d20696e73756666696369656e74207368617265734d6f6c6f63683a3a61626f7274202d2070726f706f73616c20646f6573206e6f742065786973744d6f6c6f63683a3a75706461746544656c65676174654b6579202d206e657744656c65676174654b65792063616e6e6f7420626520304d6f6c6f63683a3a7375626d6974566f7465202d2075696e74566f7465206d757374206265206c657373207468616e20334d6f6c6f63683a3a70726f6365737350726f706f73616c202d2070726f706f73616c2068617320616c7265616479206265656e2070726f6365737365644d6f6c6f63683a3a70726f6365737350726f706f73616c202d2070726f706f73616c20646f6573206e6f74206578697374a165627a7a72305820e57e6d14522d9398e15bb16b454675810ff2ea461046781be8a24fb1d32d0bc50029608060405234801561001057600080fd5b506040516020806109e88339810180604052602081101561003057600080fd5b8101908080519060200190929190505050336000806101000a81548173ffffffffffffffffffffffffffffffffffffffff021916908373ffffffffffffffffffffffffffffffffffffffff1602179055506000809054906101000a900473ffffffffffffffffffffffffffffffffffffffff1673ffffffffffffffffffffffffffffffffffffffff16600073ffffffffffffffffffffffffffffffffffffffff167f8be0079c531659141344cd1fd0a4f28419497f9722a3daafe3b4186f6b6457e060405160405180910390a380600160006101000a81548173ffffffffffffffffffffffffffffffffffffffff021916908373ffffffffffffffffffffffffffffffffffffffff1602179055505061089a8061014e6000396000f3fe608060405234801561001057600080fd5b50600436106100625760003560e01c8063715018a6146100675780638da5cb5b146100715780638f32d59b146100bb578063b5c5f672146100dd578063bab462591461014d578063f2fde38b14610197575b600080fd5b61006f6101db565b005b6100796102ab565b604051808273ffffffffffffffffffffffffffffffffffffffff1673ffffffffffffffffffffffffffffffffffffffff16815260200191505060405180910390f35b6100c36102d4565b604051808215151515815260200191505060405180910390f35b610133600480360360608110156100f357600080fd5b81019080803573ffffffffffffffffffffffffffffffffffffffff169060200190929190803590602001909291908035906020019092919050505061032b565b604051808215151515815260200191505060405180910390f35b61015561057c565b604051808273ffffffffffffffffffffffffffffffffffffffff1673ffffffffffffffffffffffffffffffffffffffff16815260200191505060405180910390f35b6101d9600480360360208110156101ad57600080fd5b81019080803573ffffffffffffffffffffffffffffffffffffffff1690602001909291905050506105a2565b005b6101e36102d4565b6101ec57600080fd5b600073ffffffffffffffffffffffffffffffffffffffff166000809054906101000a900473ffffffffffffffffffffffffffffffffffffffff1673ffffffffffffffffffffffffffffffffffffffff167f8be0079c531659141344cd1fd0a4f28419497f9722a3daafe3b4186f6b6457e060405160405180910390a360008060006101000a81548173ffffffffffffffffffffffffffffffffffffffff021916908373ffffffffffffffffffffffffffffffffffffffff160217905550565b60008060009054906101000a900473ffffffffffffffffffffffffffffffffffffffff16905090565b60008060009054906101000a900473ffffffffffffffffffffffffffffffffffffffff1673ffffffffffffffffffffffffffffffffffffffff163373ffffffffffffffffffffffffffffffffffffffff1614905090565b60006103356102d4565b61033e57600080fd5b600061043e8361043086600160009054906101000a900473ffffffffffffffffffffffffffffffffffffffff1673ffffffffffffffffffffffffffffffffffffffff166370a08231306040518263ffffffff1660e01b8152600401808273ffffffffffffffffffffffffffffffffffffffff1673ffffffffffffffffffffffffffffffffffffffff16815260200191505060206040518083038186803b1580156103e757600080fd5b505afa1580156103fb573d6000803e3d6000fd5b505050506040513d602081101561041157600080fd5b81019080805190602001909291905050506105bf90919063ffffffff16565b61064590919063ffffffff16565b90508473ffffffffffffffffffffffffffffffffffffffff167f7fcf532c15f0a6db0bd6d0e038bea71d30d808c7d98cb3bf7268a95bf5081b65826040518082815260200191505060405180910390a2600160009054906101000a900473ffffffffffffffffffffffffffffffffffffffff1673ffffffffffffffffffffffffffffffffffffffff1663a9059cbb86836040518363ffffffff1660e01b8152600401808373ffffffffffffffffffffffffffffffffffffffff1673ffffffffffffffffffffffffffffffffffffffff16815260200182815260200192505050602060405180830381600087803b15801561053757600080fd5b505af115801561054b573d6000803e3d6000fd5b505050506040513d602081101561056157600080fd5b81019080805190602001909291905050509150509392505050565b600160009054906101000a900473ffffffffffffffffffffffffffffffffffffffff1681565b6105aa6102d4565b6105b357600080fd5b6105bc8161068f565b50565b6000808314156105d2576000905061063f565b60008284029050828482816105e357fe5b041461063a576040517f08c379a000000000000000000000000000000000000000000000000000000000815260040180806020018281038252602181526020018061084e6021913960400191505060405180910390fd5b809150505b92915050565b600061068783836040518060400160405280601a81526020017f536166654d6174683a206469766973696f6e206279207a65726f000000000000815250610787565b905092915050565b600073ffffffffffffffffffffffffffffffffffffffff168173ffffffffffffffffffffffffffffffffffffffff1614156106c957600080fd5b8073ffffffffffffffffffffffffffffffffffffffff166000809054906101000a900473ffffffffffffffffffffffffffffffffffffffff1673ffffffffffffffffffffffffffffffffffffffff167f8be0079c531659141344cd1fd0a4f28419497f9722a3daafe3b4186f6b6457e060405160405180910390a3806000806101000a81548173ffffffffffffffffffffffffffffffffffffffff021916908373ffffffffffffffffffffffffffffffffffffffff16021790555050565b60008083118290610833576040517f08c379a00000000000000000000000000000000000000000000000000000000081526004018080602001828103825283818151815260200191508051906020019080838360005b838110156107f85780820151818401526020810190506107dd565b50505050905090810190601f1680156108255780820380516001836020036101000a031916815260200191505b509250505060405180910390fd5b50600083858161083f57fe5b04905080915050939250505056fe536166654d6174683a206d756c7469706c69636174696f6e206f766572666c6f77a165627a7a72305820116e95c79657a8bad9764470ea3472fbd537108cf28655caf1665d2dd0e7710700294d6f6c6f63683a3a636f6e7374727563746f72202d205f61626f727457696e646f772063616e6e6f7420626520304d6f6c6f63683a3a636f6e7374727563746f72202d2073756d6d6f6e65722063616e6e6f7420626520304d6f6c6f63683a3a636f6e7374727563746f72202d205f766f74696e67506572696f644c656e6774682065786365656473206c696d69744d6f6c6f63683a3a636f6e7374727563746f72202d205f70726f706f73616c4465706f7369742063616e6e6f7420626520736d616c6c6572207468616e205f70726f63657373696e675265776172644d6f6c6f63683a3a636f6e7374727563746f72202d205f64696c7574696f6e426f756e642065786365656473206c696d69744d6f6c6f63683a3a636f6e7374727563746f72202d205f61626f727457696e646f77206d75737420626520736d616c6c6572207468616e206f7220657175616c20746f205f766f74696e67506572696f644c656e6774684d6f6c6f63683a3a636f6e7374727563746f72202d205f6772616365506572696f644c656e6774682065786365656473206c696d69744d6f6c6f63683a3a636f6e7374727563746f72202d205f766f74696e67506572696f644c656e6774682063616e6e6f7420626520304d6f6c6f63683a3a636f6e7374727563746f72202d205f706572696f644475726174696f6e2063616e6e6f7420626520304d6f6c6f63683a3a636f6e7374727563746f72202d205f617070726f766564546f6b656e2063616e6e6f7420626520304d6f6c6f63683a3a636f6e7374727563746f72202d205f64696c7574696f6e426f756e642063616e6e6f742062652030",
  "source": "pragma solidity >=0.4.22 <0.6.0;\r\n\r\nimport \"../lib/SafeMath.sol\";\r\nimport \"../Interface/IERC20.sol\";\r\nimport \"./GuildBank.sol\";\r\n\r\ncontract Moloch {\r\n    using SafeMath for uint256;\r\n\r\n    /***************\r\n    GLOBAL CONSTANTS\r\n    ***************/\r\n    uint256 public periodDuration; // default = 17280 = 4.8 hours in seconds (5 periods per day)\r\n    uint256 public votingPeriodLength; // default = 35 periods (7 days)\r\n    uint256 public gracePeriodLength; // default = 35 periods (7 days)\r\n    uint256 public abortWindow; // default = 5 periods (1 day)\r\n    uint256 public proposalDeposit; // default = 10 ETH (~$1,000 worth of ETH at contract deployment)\r\n    uint256 public dilutionBound; // default = 3 - maximum multiplier a YES voter will be obligated to pay in case of mass ragequit\r\n    uint256 public processingReward; // default = 0.1 - amount of ETH to give to whoever processes a proposal\r\n    uint256 public summoningTime; // needed to determine the current period\r\n\r\n    IERC20 public approvedToken; // approved token contract reference; default = wETH\r\n    GuildBank public guildBank; // guild bank contract reference\r\n\r\n    // HARD-CODED LIMITS\r\n    // These numbers are quite arbitrary; they are small enough to avoid overflows when doing calculations\r\n    // with periods or shares, yet big enough to not limit reasonable use cases.\r\n    uint256 constant MAX_VOTING_PERIOD_LENGTH = 10**18; // maximum length of voting period\r\n    uint256 constant MAX_GRACE_PERIOD_LENGTH = 10**18; // maximum length of grace period\r\n    uint256 constant MAX_DILUTION_BOUND = 10**18; // maximum dilution bound\r\n    uint256 constant MAX_NUMBER_OF_SHARES = 10**18; // maximum number of shares that can be minted\r\n\r\n    /***************\r\n    EVENTS\r\n    ***************/\r\n    event SubmitProposal(uint256 proposalIndex, address indexed delegateKey, address indexed memberAddress, address indexed applicant, uint256 tokenTribute, uint256 sharesRequested);\r\n    event SubmitVote(uint256 indexed proposalIndex, address indexed delegateKey, address indexed memberAddress, uint8 uintVote);\r\n    event ProcessProposal(uint256 indexed proposalIndex, address indexed applicant, address indexed memberAddress, uint256 tokenTribute, uint256 sharesRequested, bool didPass);\r\n    event Ragequit(address indexed memberAddress, uint256 sharesToBurn);\r\n    event Abort(uint256 indexed proposalIndex, address applicantAddress);\r\n    event UpdateDelegateKey(address indexed memberAddress, address newDelegateKey);\r\n    event SummonComplete(address indexed summoner, uint256 shares);\r\n\r\n    /******************\r\n    INTERNAL ACCOUNTING\r\n    ******************/\r\n    uint256 public totalShares = 0; // total shares across all members\r\n    uint256 public totalSharesRequested = 0; // total shares that have been requested in unprocessed proposals\r\n\r\n    enum Vote {\r\n        Null, // default value, counted as abstention\r\n        Yes,\r\n        No\r\n    }\r\n\r\n    struct Member {\r\n        address delegateKey; // the key responsible for submitting proposals and voting - defaults to member address unless updated\r\n        uint256 shares; // the # of shares assigned to this member\r\n        bool exists; // always true once a member has been created\r\n        uint256 highestIndexYesVote; // highest proposal index # on which the member voted YES\r\n    }\r\n\r\n    struct Proposal {\r\n        address proposer; // the member who submitted the proposal\r\n        address applicant; // the applicant who wishes to become a member - this key will be used for withdrawals\r\n        uint256 sharesRequested; // the # of shares the applicant is requesting\r\n        uint256 startingPeriod; // the period in which voting can start for this proposal\r\n        uint256 yesVotes; // the total number of YES votes for this proposal\r\n        uint256 noVotes; // the total number of NO votes for this proposal\r\n        bool processed; // true only if the proposal has been processed\r\n        bool didPass; // true only if the proposal passed\r\n        bool aborted; // true only if applicant calls \"abort\" fn before end of voting period\r\n        uint256 tokenTribute; // amount of tokens offered as tribute\r\n        string details; // proposal details - could be IPFS hash, plaintext, or JSON\r\n        uint256 maxTotalSharesAtYesVote; // the maximum # of total shares encountered at a yes vote on this proposal\r\n        mapping (address => Vote) votesByMember; // the votes on this proposal by each member\r\n    }\r\n\r\n    mapping (address => Member) public members;\r\n    mapping (address => address) public memberAddressByDelegateKey;\r\n    Proposal[] public proposalQueue;\r\n\r\n    /********\r\n    MODIFIERS\r\n    ********/\r\n    modifier onlyMember {\r\n        require(members[msg.sender].shares > 0, \"Moloch::onlyMember - not a member\");\r\n        _;\r\n    }\r\n\r\n    modifier onlyDelegate {\r\n        require(members[memberAddressByDelegateKey[msg.sender]].shares > 0, \"Moloch::onlyDelegate - not a delegate\");\r\n        _;\r\n    }\r\n\r\n    /********\r\n    FUNCTIONS\r\n    ********/\r\n    constructor(\r\n        address summoner,\r\n        address _approvedToken,\r\n        uint256 _periodDuration,\r\n        uint256 _votingPeriodLength,\r\n        uint256 _gracePeriodLength,\r\n        uint256 _abortWindow,\r\n        uint256 _proposalDeposit,\r\n        uint256 _dilutionBound,\r\n        uint256 _processingReward\r\n    ) public {\r\n        require(summoner != address(0), \"Moloch::constructor - summoner cannot be 0\");\r\n        require(_approvedToken != address(0), \"Moloch::constructor - _approvedToken cannot be 0\");\r\n        require(_periodDuration > 0, \"Moloch::constructor - _periodDuration cannot be 0\");\r\n        require(_votingPeriodLength > 0, \"Moloch::constructor - _votingPeriodLength cannot be 0\");\r\n        require(_votingPeriodLength <= MAX_VOTING_PERIOD_LENGTH, \"Moloch::constructor - _votingPeriodLength exceeds limit\");\r\n        require(_gracePeriodLength <= MAX_GRACE_PERIOD_LENGTH, \"Moloch::constructor - _gracePeriodLength exceeds limit\");\r\n        require(_abortWindow > 0, \"Moloch::constructor - _abortWindow cannot be 0\");\r\n        require(_abortWindow <= _votingPeriodLength, \"Moloch::constructor - _abortWindow must be smaller than or equal to _votingPeriodLength\");\r\n        require(_dilutionBound > 0, \"Moloch::constructor - _dilutionBound cannot be 0\");\r\n        require(_dilutionBound <= MAX_DILUTION_BOUND, \"Moloch::constructor - _dilutionBound exceeds limit\");\r\n        require(_proposalDeposit >= _processingReward, \"Moloch::constructor - _proposalDeposit cannot be smaller than _processingReward\");\r\n\r\n        approvedToken = IERC20(_approvedToken);\r\n\r\n        guildBank = new GuildBank(_approvedToken);\r\n\r\n        periodDuration = _periodDuration;\r\n        votingPeriodLength = _votingPeriodLength;\r\n        gracePeriodLength = _gracePeriodLength;\r\n        abortWindow = _abortWindow;\r\n        proposalDeposit = _proposalDeposit;\r\n        dilutionBound = _dilutionBound;\r\n        processingReward = _processingReward;\r\n\r\n        summoningTime = now;\r\n\r\n        members[summoner] = Member(summoner, 1, true, 0);\r\n        memberAddressByDelegateKey[summoner] = summoner;\r\n        totalShares = 1;\r\n\r\n        emit SummonComplete(summoner, 1);\r\n    }\r\n\r\n    /*****************\r\n    PROPOSAL FUNCTIONS\r\n    *****************/\r\n\r\n    function submitProposal(\r\n        address applicant,\r\n        uint256 tokenTribute,\r\n        uint256 sharesRequested,\r\n        string memory details\r\n    )\r\n        public\r\n        onlyDelegate\r\n    {\r\n        require(applicant != address(0), \"Moloch::submitProposal - applicant cannot be 0\");\r\n\r\n        // Make sure we won't run into overflows when doing calculations with shares.\r\n        // Note that totalShares + totalSharesRequested + sharesRequested is an upper bound\r\n        // on the number of shares that can exist until this proposal has been processed.\r\n        require(totalShares.add(totalSharesRequested).add(sharesRequested) <= MAX_NUMBER_OF_SHARES, \"Moloch::submitProposal - too many shares requested\");\r\n\r\n        totalSharesRequested = totalSharesRequested.add(sharesRequested);\r\n\r\n        address memberAddress = memberAddressByDelegateKey[msg.sender];\r\n\r\n        // collect proposal deposit from proposer and store it in the Moloch until the proposal is processed\r\n        require(approvedToken.transferFrom(msg.sender, address(this), proposalDeposit), \"Moloch::submitProposal - proposal deposit token transfer failed\");\r\n\r\n        // collect tribute from applicant and store it in the Moloch until the proposal is processed\r\n        require(approvedToken.transferFrom(applicant, address(this), tokenTribute), \"Moloch::submitProposal - tribute token transfer failed\");\r\n\r\n        // compute startingPeriod for proposal\r\n        uint256 startingPeriod = max(\r\n            getCurrentPeriod(),\r\n            proposalQueue.length == 0 ? 0 : proposalQueue[proposalQueue.length.sub(1)].startingPeriod\r\n        ).add(1);\r\n\r\n        // create proposal ...\r\n        Proposal memory proposal = Proposal({\r\n            proposer: memberAddress,\r\n            applicant: applicant,\r\n            sharesRequested: sharesRequested,\r\n            startingPeriod: startingPeriod,\r\n            yesVotes: 0,\r\n            noVotes: 0,\r\n            processed: false,\r\n            didPass: false,\r\n            aborted: false,\r\n            tokenTribute: tokenTribute,\r\n            details: details,\r\n            maxTotalSharesAtYesVote: 0\r\n        });\r\n\r\n        // ... and append it to the queue\r\n        proposalQueue.push(proposal);\r\n\r\n        uint256 proposalIndex = proposalQueue.length.sub(1);\r\n        emit SubmitProposal(proposalIndex, msg.sender, memberAddress, applicant, tokenTribute, sharesRequested);\r\n    }\r\n\r\n    function submitVote(uint256 proposalIndex, uint8 uintVote) public onlyDelegate {\r\n        address memberAddress = memberAddressByDelegateKey[msg.sender];\r\n        Member storage member = members[memberAddress];\r\n\r\n        require(proposalIndex < proposalQueue.length, \"Moloch::submitVote - proposal does not exist\");\r\n        Proposal storage proposal = proposalQueue[proposalIndex];\r\n\r\n        require(uintVote < 3, \"Moloch::submitVote - uintVote must be less than 3\");\r\n        Vote vote = Vote(uintVote);\r\n\r\n        require(getCurrentPeriod() >= proposal.startingPeriod, \"Moloch::submitVote - voting period has not started\");\r\n        require(!hasVotingPeriodExpired(proposal.startingPeriod), \"Moloch::submitVote - proposal voting period has expired\");\r\n        require(proposal.votesByMember[memberAddress] == Vote.Null, \"Moloch::submitVote - member has already voted on this proposal\");\r\n        require(vote == Vote.Yes || vote == Vote.No, \"Moloch::submitVote - vote must be either Yes or No\");\r\n        require(!proposal.aborted, \"Moloch::submitVote - proposal has been aborted\");\r\n\r\n        // store vote\r\n        proposal.votesByMember[memberAddress] = vote;\r\n\r\n        // count vote\r\n        if (vote == Vote.Yes) {\r\n            proposal.yesVotes = proposal.yesVotes.add(member.shares);\r\n\r\n            // set highest index (latest) yes vote - must be processed for member to ragequit\r\n            if (proposalIndex > member.highestIndexYesVote) {\r\n                member.highestIndexYesVote = proposalIndex;\r\n            }\r\n\r\n            // set maximum of total shares encountered at a yes vote - used to bound dilution for yes voters\r\n            if (totalShares > proposal.maxTotalSharesAtYesVote) {\r\n                proposal.maxTotalSharesAtYesVote = totalShares;\r\n            }\r\n\r\n        } else if (vote == Vote.No) {\r\n            proposal.noVotes = proposal.noVotes.add(member.shares);\r\n        }\r\n\r\n        emit SubmitVote(proposalIndex, msg.sender, memberAddress, uintVote);\r\n    }\r\n\r\n    function processProposal(uint256 proposalIndex) public {\r\n        require(proposalIndex < proposalQueue.length, \"Moloch::processProposal - proposal does not exist\");\r\n        Proposal storage proposal = proposalQueue[proposalIndex];\r\n\r\n        require(getCurrentPeriod() >= proposal.startingPeriod.add(votingPeriodLength).add(gracePeriodLength), \"Moloch::processProposal - proposal is not ready to be processed\");\r\n        require(proposal.processed == false, \"Moloch::processProposal - proposal has already been processed\");\r\n        require(proposalIndex == 0 || proposalQueue[proposalIndex.sub(1)].processed, \"Moloch::processProposal - previous proposal must be processed\");\r\n\r\n        proposal.processed = true;\r\n        totalSharesRequested = totalSharesRequested.sub(proposal.sharesRequested);\r\n\r\n        bool didPass = proposal.yesVotes > proposal.noVotes;\r\n\r\n        // Make the proposal fail if the dilutionBound is exceeded\r\n        if (totalShares.mul(dilutionBound) < proposal.maxTotalSharesAtYesVote) {\r\n            didPass = false;\r\n        }\r\n\r\n        // PROPOSAL PASSED\r\n        if (didPass && !proposal.aborted) {\r\n\r\n            proposal.didPass = true;\r\n\r\n            // if the applicant is already a member, add to their existing shares\r\n            if (members[proposal.applicant].exists) {\r\n                members[proposal.applicant].shares = members[proposal.applicant].shares.add(proposal.sharesRequested);\r\n\r\n            // the applicant is a new member, create a new record for them\r\n            } else {\r\n                // if the applicant address is already taken by a member's delegateKey, reset it to their member address\r\n                if (members[memberAddressByDelegateKey[proposal.applicant]].exists) {\r\n                    address memberToOverride = memberAddressByDelegateKey[proposal.applicant];\r\n                    memberAddressByDelegateKey[memberToOverride] = memberToOverride;\r\n                    members[memberToOverride].delegateKey = memberToOverride;\r\n                }\r\n\r\n                // use applicant address as delegateKey by default\r\n                members[proposal.applicant] = Member(proposal.applicant, proposal.sharesRequested, true, 0);\r\n                memberAddressByDelegateKey[proposal.applicant] = proposal.applicant;\r\n            }\r\n\r\n            // mint new shares\r\n            totalShares = totalShares.add(proposal.sharesRequested);\r\n\r\n            // transfer tokens to guild bank\r\n            require(\r\n                approvedToken.transfer(address(guildBank), proposal.tokenTribute),\r\n                \"Moloch::processProposal - token transfer to guild bank failed\"\r\n            );\r\n\r\n        // PROPOSAL FAILED OR ABORTED\r\n        } else {\r\n            // return all tokens to the applicant\r\n            require(\r\n                approvedToken.transfer(proposal.applicant, proposal.tokenTribute),\r\n                \"Moloch::processProposal - failing vote token transfer failed\"\r\n            );\r\n        }\r\n\r\n        // send msg.sender the processingReward\r\n        require(\r\n            approvedToken.transfer(msg.sender, processingReward),\r\n            \"Moloch::processProposal - failed to send processing reward to msg.sender\"\r\n        );\r\n\r\n        // return deposit to proposer (subtract processing reward)\r\n        require(\r\n            approvedToken.transfer(proposal.proposer, proposalDeposit.sub(processingReward)),\r\n            \"Moloch::processProposal - failed to return proposal deposit to proposer\"\r\n        );\r\n\r\n        emit ProcessProposal(\r\n            proposalIndex,\r\n            proposal.applicant,\r\n            proposal.proposer,\r\n            proposal.tokenTribute,\r\n            proposal.sharesRequested,\r\n            didPass\r\n        );\r\n    }\r\n\r\n    function ragequit(uint256 sharesToBurn) public onlyMember {\r\n        uint256 initialTotalShares = totalShares;\r\n\r\n        Member storage member = members[msg.sender];\r\n\r\n        require(member.shares >= sharesToBurn, \"Moloch::ragequit - insufficient shares\");\r\n\r\n        require(canRagequit(member.highestIndexYesVote), \"Moloch::ragequit - cant ragequit until highest index proposal member voted YES on is processed\");\r\n\r\n        // burn shares\r\n        member.shares = member.shares.sub(sharesToBurn);\r\n        totalShares = totalShares.sub(sharesToBurn);\r\n\r\n        // instruct guildBank to transfer fair share of tokens to the ragequitter\r\n        require(\r\n            guildBank.withdraw(msg.sender, sharesToBurn, initialTotalShares),\r\n            \"Moloch::ragequit - withdrawal of tokens from guildBank failed\"\r\n        );\r\n\r\n        emit Ragequit(msg.sender, sharesToBurn);\r\n    }\r\n\r\n    function abort(uint256 proposalIndex) public {\r\n        require(proposalIndex < proposalQueue.length, \"Moloch::abort - proposal does not exist\");\r\n        Proposal storage proposal = proposalQueue[proposalIndex];\r\n\r\n        require(msg.sender == proposal.applicant, \"Moloch::abort - msg.sender must be applicant\");\r\n        require(getCurrentPeriod() < proposal.startingPeriod.add(abortWindow), \"Moloch::abort - abort window must not have passed\");\r\n        require(!proposal.aborted, \"Moloch::abort - proposal must not have already been aborted\");\r\n\r\n        uint256 tokensToAbort = proposal.tokenTribute;\r\n        proposal.tokenTribute = 0;\r\n        proposal.aborted = true;\r\n\r\n        // return all tokens to the applicant\r\n        require(\r\n            approvedToken.transfer(proposal.applicant, tokensToAbort),\r\n            \"Moloch::processProposal - failed to return tribute to applicant\"\r\n        );\r\n\r\n        emit Abort(proposalIndex, msg.sender);\r\n    }\r\n\r\n    function updateDelegateKey(address newDelegateKey) public onlyMember {\r\n        require(newDelegateKey != address(0), \"Moloch::updateDelegateKey - newDelegateKey cannot be 0\");\r\n\r\n        // skip checks if member is setting the delegate key to their member address\r\n        if (newDelegateKey != msg.sender) {\r\n            require(!members[newDelegateKey].exists, \"Moloch::updateDelegateKey - cant overwrite existing members\");\r\n            require(!members[memberAddressByDelegateKey[newDelegateKey]].exists, \"Moloch::updateDelegateKey - cant overwrite existing delegate keys\");\r\n        }\r\n\r\n        Member storage member = members[msg.sender];\r\n        memberAddressByDelegateKey[member.delegateKey] = address(0);\r\n        memberAddressByDelegateKey[newDelegateKey] = msg.sender;\r\n        member.delegateKey = newDelegateKey;\r\n\r\n        emit UpdateDelegateKey(msg.sender, newDelegateKey);\r\n    }\r\n\r\n    /***************\r\n    GETTER FUNCTIONS\r\n    ***************/\r\n\r\n    function max(uint256 x, uint256 y) internal pure returns (uint256) {\r\n        return x >= y ? x : y;\r\n    }\r\n\r\n    function getCurrentPeriod() public view returns (uint256) {\r\n        return now.sub(summoningTime).div(periodDuration);\r\n    }\r\n\r\n    function getProposalQueueLength() public view returns (uint256) {\r\n        return proposalQueue.length;\r\n    }\r\n\r\n    // can only ragequit if the latest proposal you voted YES on has been processed\r\n    function canRagequit(uint256 highestIndexYesVote) public view returns (bool) {\r\n        require(highestIndexYesVote < proposalQueue.length, \"Moloch::canRagequit - proposal does not exist\");\r\n        return proposalQueue[highestIndexYesVote].processed;\r\n    }\r\n\r\n    function hasVotingPeriodExpired(uint256 startingPeriod) public view returns (bool) {\r\n        return getCurrentPeriod() >= startingPeriod.add(votingPeriodLength);\r\n    }\r\n\r\n    function getMemberProposalVote(address memberAddress, uint256 proposalIndex) public view returns (Vote) {\r\n        require(members[memberAddress].exists, \"Moloch::getMemberProposalVote - member doesn't exist\");\r\n        require(proposalIndex < proposalQueue.length, \"Moloch::getMemberProposalVote - proposal doesn't exist\");\r\n        return proposalQueue[proposalIndex].votesByMember[memberAddress];\r\n    }\r\n}\r\n",
  "sourcePath": "D:/_______work/FD_Contract_ETH/fd/contracts/moloch/Moloch.sol",
  "compiler": {
    "name": "solc",
    "version": "0.5.8+commit.23d335f2.Emscripten.clang"
  },
  "schemaVersion": "3.0.11",
  "updatedAt": "2019-11-19T07:22:37.401Z",
  "devdoc": {
    "methods": {}
  },
  "userdoc": {
    "methods": {
      "constructor": "******\r FUNCTIONS\r*******",
      "submitProposal(address,uint256,uint256,string)": {
        "notice": "***************\r PROPOSAL FUNCTIONS\r****************"
      }
    }
  }
}