{
  "contractName": "Permission",
  "abi": [
    {
      "constant": true,
      "inputs": [],
      "name": "EMPTY_PARAM_HASH",
      "outputs": [
        {
          "name": "",
          "type": "bytes32"
        }
      ],
      "payable": false,
      "stateMutability": "view",
      "type": "function"
    },
    {
      "anonymous": false,
      "inputs": [
        {
          "indexed": true,
          "name": "grantor",
          "type": "address"
        },
        {
          "indexed": true,
          "name": "app",
          "type": "address"
        },
        {
          "indexed": true,
          "name": "vData",
          "type": "bytes32"
        },
        {
          "indexed": false,
          "name": "paramsHash",
          "type": "bytes32"
        }
      ],
      "name": "AddPermission",
      "type": "event"
    },
    {
      "constant": false,
      "inputs": [
        {
          "name": "_grantor",
          "type": "address"
        },
        {
          "name": "_app",
          "type": "address"
        },
        {
          "name": "_vData",
          "type": "bytes32"
        },
        {
          "name": "_paramsHash",
          "type": "bytes32"
        }
      ],
      "name": "addPermission",
      "outputs": [],
      "payable": false,
      "stateMutability": "nonpayable",
      "type": "function"
    },
    {
      "constant": false,
      "inputs": [
        {
          "name": "_grantor",
          "type": "address"
        },
        {
          "name": "_app",
          "type": "address"
        },
        {
          "name": "_vData",
          "type": "bytes32"
        }
      ],
      "name": "addPermission",
      "outputs": [],
      "payable": false,
      "stateMutability": "nonpayable",
      "type": "function"
    },
    {
      "constant": true,
      "inputs": [
        {
          "name": "_grantor",
          "type": "address"
        },
        {
          "name": "_app",
          "type": "address"
        },
        {
          "name": "_vData",
          "type": "bytes32"
        },
        {
          "name": "_paramsHash",
          "type": "bytes32"
        }
      ],
      "name": "verifyPermission",
      "outputs": [
        {
          "name": "",
          "type": "bool"
        }
      ],
      "payable": false,
      "stateMutability": "view",
      "type": "function"
    }
  ],
  "bytecode": "0x608060405234801561001057600080fd5b5061049b806100206000396000f3fe608060405234801561001057600080fd5b506004361061004c5760003560e01c80634c5f074914610051578063a945c836146100e1578063c513f66e14610159578063f376124f14610177575b600080fd5b6100c76004803603608081101561006757600080fd5b81019080803573ffffffffffffffffffffffffffffffffffffffff169060200190929190803573ffffffffffffffffffffffffffffffffffffffff16906020019092919080359060200190929190803590602001909291905050506101e5565b604051808215151515815260200191505060405180910390f35b610157600480360360808110156100f757600080fd5b81019080803573ffffffffffffffffffffffffffffffffffffffff169060200190929190803573ffffffffffffffffffffffffffffffffffffffff1690602001909291908035906020019092919080359060200190929190505050610221565b005b6101616102ae565b6040518082815260200191505060405180910390f35b6101e36004803603606081101561018d57600080fd5b81019080803573ffffffffffffffffffffffffffffffffffffffff169060200190929190803573ffffffffffffffffffffffffffffffffffffffff169060200190929190803590602001909291905050506102d5565b005b6000816000806101f68888886103a7565b81526020019081526020016000205414156102145760019050610219565b600090505b949350505050565b806000806102308787876103a7565b815260200190815260200160002081905550818373ffffffffffffffffffffffffffffffffffffffff168573ffffffffffffffffffffffffffffffffffffffff167f3e505cc99beaaa46999c9ad9aab0192876c9d97ac60bd4bbeb5a825fafd7264a846040518082815260200191505060405180910390a450505050565b7f290decd9548b62a8d60345a988386fc84ba6bc95484008f6362f93160ef3e56360001b81565b7f290decd9548b62a8d60345a988386fc84ba6bc95484008f6362f93160ef3e56360001b6000806103078686866103a7565b815260200190815260200160002081905550808273ffffffffffffffffffffffffffffffffffffffff168473ffffffffffffffffffffffffffffffffffffffff167f3e505cc99beaaa46999c9ad9aab0192876c9d97ac60bd4bbeb5a825fafd7264a7f290decd9548b62a8d60345a988386fc84ba6bc95484008f6362f93160ef3e56360001b6040518082815260200191505060405180910390a4505050565b600083838360405160200180807f5045524d495353494f4e00000000000000000000000000000000000000000000815250600a018473ffffffffffffffffffffffffffffffffffffffff1673ffffffffffffffffffffffffffffffffffffffff1660601b81526014018373ffffffffffffffffffffffffffffffffffffffff1673ffffffffffffffffffffffffffffffffffffffff1660601b81526014018281526020019350505050604051602081830303815290604052805190602001209050939250505056fea165627a7a723058208293ac275a240e85e99facfa524a6a1798df568b50f0b93b437860d9898a98220029",
  "source": "pragma solidity >=0.4.22 <0.6.0;\r\n\r\nimport \"../Interface/IPermission.sol\";\r\n\r\ncontract Permission is IPermission  {\r\n\r\n    bytes32 public constant EMPTY_PARAM_HASH = 0x290decd9548b62a8d60345a988386fc84ba6bc95484008f6362f93160ef3e563;\r\n\r\n    mapping(bytes32 => bytes32) private permissions;\r\n\r\n    event AddPermission(address indexed grantor, address indexed app, bytes32 indexed vData, bytes32 paramsHash);\r\n\r\n    /// @notice _app 授予 _grantor 权力，允许_grantor调用_app.\r\n    function addPermission(address _grantor,address _app,bytes32 _vData) external{\r\n        permissions[permissionHash(_grantor, _app, _vData)] = EMPTY_PARAM_HASH;\r\n        emit AddPermission(_grantor,_app,_vData,EMPTY_PARAM_HASH);\r\n    }\r\n\r\n    function addPermission(address _grantor,address _app,bytes32 _vData,bytes32 _paramsHash) external{\r\n        permissions[permissionHash(_grantor, _app, _vData)] = _paramsHash;\r\n        emit AddPermission(_grantor,_app,_vData,_paramsHash);\r\n    }\r\n\r\n    function verifyPermission(address _grantor,address _app,bytes32 _vData,bytes32 _paramsHash) external view returns (bool){\r\n        if(permissions[permissionHash(_grantor, _app, _vData)] == _paramsHash)\r\n            return true;\r\n        return false;\r\n    }\r\n\r\n    function permissionHash(address _grantor,address _app,bytes32 _vData) internal pure returns(bytes32){\r\n        return keccak256(abi.encodePacked(\"PERMISSION\",_grantor,_app,_vData));\r\n    }\r\n}",
  "sourcePath": "D:\\_______work\\FD_Contract_ETH\\fd\\contracts\\Permission\\Permission.sol",
  "compiler": {
    "name": "solc",
    "version": "0.5.8+commit.23d335f2.Emscripten.clang"
  },
  "schemaVersion": "3.0.11",
  "updatedAt": "2019-08-27T10:27:31.810Z",
  "devdoc": {
    "methods": {}
  },
  "userdoc": {
    "methods": {
      "addPermission(address,address,bytes32)": {
        "notice": "_app 授予 _grantor 权力，允许_grantor调用_app."
      }
    }
  }
}