{
  "contractName": "Permission",
  "abi": [
    {
      "constant": false,
      "inputs": [
        {
          "name": "_addr",
          "type": "address"
        }
      ],
      "name": "removeWhiteList",
      "outputs": [],
      "payable": false,
      "stateMutability": "nonpayable",
      "type": "function"
    },
    {
      "constant": true,
      "inputs": [],
      "name": "owner",
      "outputs": [
        {
          "name": "",
          "type": "address"
        }
      ],
      "payable": false,
      "stateMutability": "view",
      "type": "function"
    },
    {
      "constant": false,
      "inputs": [
        {
          "name": "_newOwner",
          "type": "address"
        }
      ],
      "name": "changeOwner",
      "outputs": [],
      "payable": false,
      "stateMutability": "nonpayable",
      "type": "function"
    },
    {
      "constant": true,
      "inputs": [],
      "name": "EMPTY_PARAM_HASH",
      "outputs": [
        {
          "name": "",
          "type": "bytes32"
        }
      ],
      "payable": false,
      "stateMutability": "view",
      "type": "function"
    },
    {
      "constant": false,
      "inputs": [
        {
          "name": "_addr",
          "type": "address"
        }
      ],
      "name": "addWhiteList",
      "outputs": [],
      "payable": false,
      "stateMutability": "nonpayable",
      "type": "function"
    },
    {
      "anonymous": false,
      "inputs": [
        {
          "indexed": true,
          "name": "grantor",
          "type": "address"
        },
        {
          "indexed": true,
          "name": "app",
          "type": "address"
        },
        {
          "indexed": true,
          "name": "vData",
          "type": "bytes32"
        },
        {
          "indexed": false,
          "name": "paramsHash",
          "type": "bytes32"
        }
      ],
      "name": "OnAddPermission",
      "type": "event"
    },
    {
      "anonymous": false,
      "inputs": [
        {
          "indexed": true,
          "name": "newGrantor",
          "type": "address"
        },
        {
          "indexed": true,
          "name": "app",
          "type": "address"
        },
        {
          "indexed": true,
          "name": "vData",
          "type": "bytes32"
        },
        {
          "indexed": false,
          "name": "paramsHash",
          "type": "bytes32"
        }
      ],
      "name": "OnChangePermission",
      "type": "event"
    },
    {
      "anonymous": false,
      "inputs": [
        {
          "indexed": true,
          "name": "grantor",
          "type": "address"
        },
        {
          "indexed": true,
          "name": "app",
          "type": "address"
        },
        {
          "indexed": true,
          "name": "vData",
          "type": "bytes32"
        }
      ],
      "name": "OnDeletePermission",
      "type": "event"
    },
    {
      "constant": false,
      "inputs": [
        {
          "name": "_grantor",
          "type": "address"
        },
        {
          "name": "_app",
          "type": "address"
        },
        {
          "name": "_vData",
          "type": "bytes32"
        },
        {
          "name": "_paramsHash",
          "type": "bytes32"
        }
      ],
      "name": "addPermission",
      "outputs": [],
      "payable": false,
      "stateMutability": "nonpayable",
      "type": "function"
    },
    {
      "constant": false,
      "inputs": [
        {
          "name": "_grantor",
          "type": "address"
        },
        {
          "name": "_app",
          "type": "address"
        },
        {
          "name": "_vData",
          "type": "bytes32"
        }
      ],
      "name": "addPermission",
      "outputs": [],
      "payable": false,
      "stateMutability": "nonpayable",
      "type": "function"
    },
    {
      "constant": false,
      "inputs": [
        {
          "name": "_oldGrantor",
          "type": "address"
        },
        {
          "name": "_newGrantor",
          "type": "address"
        },
        {
          "name": "_app",
          "type": "address"
        },
        {
          "name": "_vData",
          "type": "bytes32"
        },
        {
          "name": "_paramsHash",
          "type": "bytes32"
        }
      ],
      "name": "changePermission",
      "outputs": [],
      "payable": false,
      "stateMutability": "nonpayable",
      "type": "function"
    },
    {
      "constant": false,
      "inputs": [
        {
          "name": "_oldGrantor",
          "type": "address"
        },
        {
          "name": "_newGrantor",
          "type": "address"
        },
        {
          "name": "_app",
          "type": "address"
        },
        {
          "name": "_vData",
          "type": "bytes32"
        }
      ],
      "name": "changePermission",
      "outputs": [],
      "payable": false,
      "stateMutability": "nonpayable",
      "type": "function"
    },
    {
      "constant": false,
      "inputs": [
        {
          "name": "_grantor",
          "type": "address"
        },
        {
          "name": "_app",
          "type": "address"
        },
        {
          "name": "_vData",
          "type": "bytes32"
        }
      ],
      "name": "deletePermission",
      "outputs": [],
      "payable": false,
      "stateMutability": "nonpayable",
      "type": "function"
    },
    {
      "constant": true,
      "inputs": [
        {
          "name": "_grantor",
          "type": "address"
        },
        {
          "name": "_app",
          "type": "address"
        },
        {
          "name": "_vData",
          "type": "bytes32"
        },
        {
          "name": "_paramsHash",
          "type": "bytes32"
        }
      ],
      "name": "verifyPermission",
      "outputs": [
        {
          "name": "",
          "type": "bool"
        }
      ],
      "payable": false,
      "stateMutability": "view",
      "type": "function"
    }
  ],
  "bytecode": "0x6080604052336000806101000a81548173ffffffffffffffffffffffffffffffffffffffff021916908373ffffffffffffffffffffffffffffffffffffffff16021790555060018060008060009054906101000a900473ffffffffffffffffffffffffffffffffffffffff1673ffffffffffffffffffffffffffffffffffffffff1673ffffffffffffffffffffffffffffffffffffffff16815260200190815260200160002060006101000a81548160ff0219169083151502179055506112f1806100cb6000396000f3fe608060405234801561001057600080fd5b50600436106100a95760003560e01c8063a6f9dae111610071578063a6f9dae1146102d2578063a945c83614610316578063c513f66e1461038e578063dcad324f146103ac578063e7cd4a041461043a578063f376124f1461047e576100a9565b80632042e5c2146100ae5780634c5f0749146100f25780635f473c3614610182578063811be92f1461021a5780638da5cb5b14610288575b600080fd5b6100f0600480360360208110156100c457600080fd5b81019080803573ffffffffffffffffffffffffffffffffffffffff1690602001909291905050506104ec565b005b6101686004803603608081101561010857600080fd5b81019080803573ffffffffffffffffffffffffffffffffffffffff169060200190929190803573ffffffffffffffffffffffffffffffffffffffff169060200190929190803590602001909291908035906020019092919050505061060b565b604051808215151515815260200191505060405180910390f35b610218600480360360a081101561019857600080fd5b81019080803573ffffffffffffffffffffffffffffffffffffffff169060200190929190803573ffffffffffffffffffffffffffffffffffffffff169060200190929190803573ffffffffffffffffffffffffffffffffffffffff1690602001909291908035906020019092919080359060200190929190505050610648565b005b6102866004803603606081101561023057600080fd5b81019080803573ffffffffffffffffffffffffffffffffffffffff169060200190929190803573ffffffffffffffffffffffffffffffffffffffff1690602001909291908035906020019092919050505061084e565b005b610290610993565b604051808273ffffffffffffffffffffffffffffffffffffffff1673ffffffffffffffffffffffffffffffffffffffff16815260200191505060405180910390f35b610314600480360360208110156102e857600080fd5b81019080803573ffffffffffffffffffffffffffffffffffffffff1690602001909291905050506109b8565b005b61038c6004803603608081101561032c57600080fd5b81019080803573ffffffffffffffffffffffffffffffffffffffff169060200190929190803573ffffffffffffffffffffffffffffffffffffffff1690602001909291908035906020019092919080359060200190929190505050610b61565b005b610396610cb3565b6040518082815260200191505060405180910390f35b610438600480360360808110156103c257600080fd5b81019080803573ffffffffffffffffffffffffffffffffffffffff169060200190929190803573ffffffffffffffffffffffffffffffffffffffff169060200190929190803573ffffffffffffffffffffffffffffffffffffffff16906020019092919080359060200190929190505050610cda565b005b61047c6004803603602081101561045057600080fd5b81019080803573ffffffffffffffffffffffffffffffffffffffff169060200190929190505050610f48565b005b6104ea6004803603606081101561049457600080fd5b81019080803573ffffffffffffffffffffffffffffffffffffffff169060200190929190803573ffffffffffffffffffffffffffffffffffffffff16906020019092919080359060200190929190505050611066565b005b336000809054906101000a900473ffffffffffffffffffffffffffffffffffffffff1673ffffffffffffffffffffffffffffffffffffffff168173ffffffffffffffffffffffffffffffffffffffff16146105af576040517f08c379a00000000000000000000000000000000000000000000000000000000081526004018080602001828103825260118152602001807f5065726d697373696f6e2064656e69656400000000000000000000000000000081525060200191505060405180910390fd5b6000600160008473ffffffffffffffffffffffffffffffffffffffff1673ffffffffffffffffffffffffffffffffffffffff16815260200190815260200160002060006101000a81548160ff0219169083151502179055505050565b6000816002600061061d8888886111fd565b815260200190815260200160002054141561063b5760019050610640565b600090505b949350505050565b336000809054906101000a900473ffffffffffffffffffffffffffffffffffffffff1673ffffffffffffffffffffffffffffffffffffffff168173ffffffffffffffffffffffffffffffffffffffff161461070b576040517f08c379a00000000000000000000000000000000000000000000000000000000081526004018080602001828103825260118152602001807f5065726d697373696f6e2064656e69656400000000000000000000000000000081525060200191505060405180910390fd5b816002600061071b8988886111fd565b8152602001908152602001600020541461079d576040517f08c379a00000000000000000000000000000000000000000000000000000000081526004018080602001828103825260098152602001807f466f7262696464656e000000000000000000000000000000000000000000000081525060200191505060405180910390fd5b81600260006107ad8888886111fd565b815260200190815260200160002081905550600260006107ce8887876111fd565b815260200190815260200160002060009055828473ffffffffffffffffffffffffffffffffffffffff168673ffffffffffffffffffffffffffffffffffffffff167f9f8ffb7f7efc086ea41d7e83c5172f5e837b5c7709182140d97214202467657b856040518082815260200191505060405180910390a4505050505050565b336000809054906101000a900473ffffffffffffffffffffffffffffffffffffffff1673ffffffffffffffffffffffffffffffffffffffff168173ffffffffffffffffffffffffffffffffffffffff1614610911576040517f08c379a00000000000000000000000000000000000000000000000000000000081526004018080602001828103825260118152602001807f5065726d697373696f6e2064656e69656400000000000000000000000000000081525060200191505060405180910390fd5b600260006109208686866111fd565b815260200190815260200160002060009055818373ffffffffffffffffffffffffffffffffffffffff168573ffffffffffffffffffffffffffffffffffffffff167fd0c2b78d239ed225d3521e7e654a561486f3eae07bcefe8558c27b20d5a32eca60405160405180910390a450505050565b6000809054906101000a900473ffffffffffffffffffffffffffffffffffffffff1681565b336000809054906101000a900473ffffffffffffffffffffffffffffffffffffffff1673ffffffffffffffffffffffffffffffffffffffff168173ffffffffffffffffffffffffffffffffffffffff1614610a7b576040517f08c379a00000000000000000000000000000000000000000000000000000000081526004018080602001828103825260118152602001807f5065726d697373696f6e2064656e69656400000000000000000000000000000081525060200191505060405180910390fd5b8173ffffffffffffffffffffffffffffffffffffffff163373ffffffffffffffffffffffffffffffffffffffff161415610b1d576040517f08c379a00000000000000000000000000000000000000000000000000000000081526004018080602001828103825260128152602001807f4e6565642061206e65772061646472657373000000000000000000000000000081525060200191505060405180910390fd5b816000806101000a81548173ffffffffffffffffffffffffffffffffffffffff021916908373ffffffffffffffffffffffffffffffffffffffff1602179055505050565b336000809054906101000a900473ffffffffffffffffffffffffffffffffffffffff1673ffffffffffffffffffffffffffffffffffffffff168173ffffffffffffffffffffffffffffffffffffffff1614610c24576040517f08c379a00000000000000000000000000000000000000000000000000000000081526004018080602001828103825260118152602001807f5065726d697373696f6e2064656e69656400000000000000000000000000000081525060200191505060405180910390fd5b8160026000610c348888886111fd565b815260200190815260200160002081905550828473ffffffffffffffffffffffffffffffffffffffff168673ffffffffffffffffffffffffffffffffffffffff167fa079ce8f46433050c376a0a8b9f8a22dd54e92aa312dce34f33d75517ee3ef30856040518082815260200191505060405180910390a45050505050565b7f290decd9548b62a8d60345a988386fc84ba6bc95484008f6362f93160ef3e56360001b81565b336000809054906101000a900473ffffffffffffffffffffffffffffffffffffffff1673ffffffffffffffffffffffffffffffffffffffff168173ffffffffffffffffffffffffffffffffffffffff1614610d9d576040517f08c379a00000000000000000000000000000000000000000000000000000000081526004018080602001828103825260118152602001807f5065726d697373696f6e2064656e69656400000000000000000000000000000081525060200191505060405180910390fd5b7f290decd9548b62a8d60345a988386fc84ba6bc95484008f6362f93160ef3e56360001b60026000610dd08887876111fd565b81526020019081526020016000205414610e52576040517f08c379a00000000000000000000000000000000000000000000000000000000081526004018080602001828103825260098152602001807f466f7262696464656e000000000000000000000000000000000000000000000081525060200191505060405180910390fd5b7f290decd9548b62a8d60345a988386fc84ba6bc95484008f6362f93160ef3e56360001b60026000610e858787876111fd565b81526020019081526020016000208190555060026000610ea68786866111fd565b815260200190815260200160002060009055818373ffffffffffffffffffffffffffffffffffffffff168573ffffffffffffffffffffffffffffffffffffffff167f9f8ffb7f7efc086ea41d7e83c5172f5e837b5c7709182140d97214202467657b7f290decd9548b62a8d60345a988386fc84ba6bc95484008f6362f93160ef3e56360001b6040518082815260200191505060405180910390a45050505050565b336000809054906101000a900473ffffffffffffffffffffffffffffffffffffffff1673ffffffffffffffffffffffffffffffffffffffff168173ffffffffffffffffffffffffffffffffffffffff161461100b576040517f08c379a00000000000000000000000000000000000000000000000000000000081526004018080602001828103825260118152602001807f5065726d697373696f6e2064656e69656400000000000000000000000000000081525060200191505060405180910390fd5b60018060008473ffffffffffffffffffffffffffffffffffffffff1673ffffffffffffffffffffffffffffffffffffffff16815260200190815260200160002060006101000a81548160ff0219169083151502179055505050565b336000809054906101000a900473ffffffffffffffffffffffffffffffffffffffff1673ffffffffffffffffffffffffffffffffffffffff168173ffffffffffffffffffffffffffffffffffffffff1614611129576040517f08c379a00000000000000000000000000000000000000000000000000000000081526004018080602001828103825260118152602001807f5065726d697373696f6e2064656e69656400000000000000000000000000000081525060200191505060405180910390fd5b7f290decd9548b62a8d60345a988386fc84ba6bc95484008f6362f93160ef3e56360001b6002600061115c8787876111fd565b815260200190815260200160002081905550818373ffffffffffffffffffffffffffffffffffffffff168573ffffffffffffffffffffffffffffffffffffffff167fa079ce8f46433050c376a0a8b9f8a22dd54e92aa312dce34f33d75517ee3ef307f290decd9548b62a8d60345a988386fc84ba6bc95484008f6362f93160ef3e56360001b6040518082815260200191505060405180910390a450505050565b600083838360405160200180807f5045524d495353494f4e00000000000000000000000000000000000000000000815250600a018473ffffffffffffffffffffffffffffffffffffffff1673ffffffffffffffffffffffffffffffffffffffff1660601b81526014018373ffffffffffffffffffffffffffffffffffffffff1673ffffffffffffffffffffffffffffffffffffffff1660601b81526014018281526020019350505050604051602081830303815290604052805190602001209050939250505056fea165627a7a723058206ca323b28013e9fcbab752231a1a27f227d1cb7a99355c3b760e3961981730140029",
  "source": "pragma solidity >=0.4.22 <0.6.0;\r\n\r\nimport \"../Own/Own.sol\";\r\nimport \"../Interface/IPermission.sol\";\r\n\r\ncontract Permission is IPermission , Own{\r\n\r\n    bytes32 public constant EMPTY_PARAM_HASH = 0x290decd9548b62a8d60345a988386fc84ba6bc95484008f6362f93160ef3e563;\r\n\r\n    mapping(bytes32 => bytes32) private permissions;\r\n\r\n    event OnAddPermission(address indexed grantor, address indexed app, bytes32 indexed vData, bytes32 paramsHash);\r\n    event OnChangePermission(\r\n        address indexed newGrantor,\r\n        address indexed app,\r\n        bytes32 indexed vData,\r\n        bytes32 paramsHash\r\n    );\r\n    event OnDeletePermission(address indexed grantor, address indexed app, bytes32 indexed vData);\r\n\r\n    /// @notice _app 授予 _grantor 权力，允许_grantor调用_app.\r\n    function addPermission(address _grantor,address _app,bytes32 _vData) external isOwner(msg.sender){\r\n        permissions[permissionHash(_grantor, _app, _vData)] = EMPTY_PARAM_HASH;\r\n        emit OnAddPermission(_grantor,_app,_vData,EMPTY_PARAM_HASH);\r\n    }\r\n\r\n    function changePermission(address _oldGrantor,address _newGrantor,address _app,bytes32 _vData) external isOwner(msg.sender){\r\n        require(permissions[permissionHash(_oldGrantor, _app, _vData)] == EMPTY_PARAM_HASH,\"Forbidden\");\r\n        permissions[permissionHash(_newGrantor, _app, _vData)] = EMPTY_PARAM_HASH;\r\n        delete permissions[permissionHash(_oldGrantor, _app, _vData)];\r\n        emit OnChangePermission(_newGrantor,_app,_vData,EMPTY_PARAM_HASH);\r\n    }\r\n\r\n    function addPermission(address _grantor,address _app,bytes32 _vData,bytes32 _paramsHash) external isOwner(msg.sender){\r\n        permissions[permissionHash(_grantor, _app, _vData)] = _paramsHash;\r\n        emit OnAddPermission(_grantor,_app,_vData,_paramsHash);\r\n    }\r\n\r\n    function changePermission(address _oldGrantor,address _newGrantor,address _app,bytes32 _vData,bytes32 _paramsHash)\r\n    external\r\n    isOwner(msg.sender)\r\n    {\r\n        require(permissions[permissionHash(_oldGrantor, _app, _vData)] == _paramsHash,\"Forbidden\");\r\n        permissions[permissionHash(_newGrantor, _app, _vData)] = _paramsHash;\r\n        delete permissions[permissionHash(_oldGrantor, _app, _vData)];\r\n        emit OnChangePermission(_newGrantor,_app,_vData,_paramsHash);\r\n    }\r\n\r\n    function deletePermission(address _grantor,address _app,bytes32 _vData) external isOwner(msg.sender){\r\n        delete permissions[permissionHash(_grantor, _app, _vData)];\r\n        emit OnDeletePermission(_grantor,_app,_vData);\r\n    }\r\n\r\n    function verifyPermission(address _grantor,address _app,bytes32 _vData,bytes32 _paramsHash) external view returns(bool){\r\n        if(bytes32(permissions[permissionHash(_grantor, _app, _vData)]) == _paramsHash)\r\n            return true;\r\n        return false;\r\n    }\r\n\r\n    function permissionHash(address _grantor,address _app,bytes32 _vData) internal pure returns(bytes32){\r\n        return keccak256(abi.encodePacked(\"PERMISSION\",_grantor,_app,_vData));\r\n    }\r\n}",
  "sourcePath": "D:\\_______work\\FD_Contract_ETH\\fd\\contracts\\Permission\\Permission.sol",
  "compiler": {
    "name": "solc",
    "version": "0.5.8+commit.23d335f2.Emscripten.clang"
  },
  "schemaVersion": "3.0.11",
  "updatedAt": "2019-10-23T12:18:10.416Z",
  "devdoc": {
    "methods": {}
  },
  "userdoc": {
    "methods": {
      "addPermission(address,address,bytes32)": {
        "notice": "_app 授予 _grantor 权力，允许_grantor调用_app."
      }
    }
  }
}