{
  "contractName": "ProjectFactory",
  "abi": [
    {
      "inputs": [],
      "payable": false,
      "stateMutability": "nonpayable",
      "type": "constructor"
    },
    {
      "anonymous": false,
      "inputs": [
        {
          "indexed": false,
          "name": "index",
          "type": "uint256"
        },
        {
          "indexed": false,
          "name": "creater",
          "type": "address"
        },
        {
          "indexed": false,
          "name": "projectName",
          "type": "string"
        },
        {
          "indexed": false,
          "name": "fundPoolAddress",
          "type": "address"
        },
        {
          "indexed": false,
          "name": "voteAddress",
          "type": "address"
        }
      ],
      "name": "OnCreate",
      "type": "event"
    },
    {
      "constant": false,
      "inputs": [
        {
          "name": "_name",
          "type": "string"
        },
        {
          "name": "_fundpool",
          "type": "address"
        },
        {
          "name": "_vote",
          "type": "address"
        }
      ],
      "name": "createProject",
      "outputs": [],
      "payable": false,
      "stateMutability": "nonpayable",
      "type": "function"
    },
    {
      "constant": true,
      "inputs": [],
      "name": "getProjectCount",
      "outputs": [
        {
          "name": "count",
          "type": "uint256"
        }
      ],
      "payable": false,
      "stateMutability": "view",
      "type": "function"
    },
    {
      "constant": true,
      "inputs": [
        {
          "name": "_index",
          "type": "uint256"
        }
      ],
      "name": "getProjectInfoByIndex",
      "outputs": [
        {
          "name": "creater",
          "type": "address"
        },
        {
          "name": "name",
          "type": "string"
        },
        {
          "name": "fundPoolContract",
          "type": "address"
        },
        {
          "name": "voteContract",
          "type": "address"
        }
      ],
      "payable": false,
      "stateMutability": "view",
      "type": "function"
    }
  ],
  "bytecode": "0x608060405234801561001057600080fd5b50336000806101000a81548173ffffffffffffffffffffffffffffffffffffffff021916908373ffffffffffffffffffffffffffffffffffffffff160217905550610b60806100606000396000f3fe608060405234801561001057600080fd5b50600436106100415760003560e01c80633bcff3b01461004657806388ff2dcc14610064578063bfc95f9c1461015f575b600080fd5b61004e61029f565b6040518082815260200191505060405180910390f35b61015d6004803603606081101561007a57600080fd5b810190808035906020019064010000000081111561009757600080fd5b8201836020820111156100a957600080fd5b803590602001918460018302840111640100000000831117156100cb57600080fd5b91908080601f016020809104026020016040519081016040528093929190818152602001838380828437600081840152601f19601f820116905080830192505050505050509192919290803573ffffffffffffffffffffffffffffffffffffffff169060200190929190803573ffffffffffffffffffffffffffffffffffffffff1690602001909291905050506102ac565b005b61018b6004803603602081101561017557600080fd5b810190808035906020019092919050505061079b565b604051808573ffffffffffffffffffffffffffffffffffffffff1673ffffffffffffffffffffffffffffffffffffffff168152602001806020018473ffffffffffffffffffffffffffffffffffffffff1673ffffffffffffffffffffffffffffffffffffffff1681526020018373ffffffffffffffffffffffffffffffffffffffff1673ffffffffffffffffffffffffffffffffffffffff168152602001828103825285818151815260200191508051906020019080838360005b83811015610261578082015181840152602081019050610246565b50505050905090810190601f16801561028e5780820380516001836020036101000a031916815260200191505b509550505050505060405180910390f35b6000600180549050905090565b3373ffffffffffffffffffffffffffffffffffffffff166000809054906101000a900473ffffffffffffffffffffffffffffffffffffffff1673ffffffffffffffffffffffffffffffffffffffff161461036e576040517f08c379a00000000000000000000000000000000000000000000000000000000081526004018080602001828103825260118152602001807f6c696d6974656420617574686f7269747900000000000000000000000000000081525060200191505060405180910390fd5b610376610a1e565b6040518060a0016040528060018054905081526020013373ffffffffffffffffffffffffffffffffffffffff1681526020018581526020018473ffffffffffffffffffffffffffffffffffffffff1681526020018373ffffffffffffffffffffffffffffffffffffffff168152509050600181908060018154018082558091505090600182039060005260206000209060050201600090919290919091506000820151816000015560208201518160010160006101000a81548173ffffffffffffffffffffffffffffffffffffffff021916908373ffffffffffffffffffffffffffffffffffffffff1602179055506040820151816002019080519060200190610481929190610a8f565b5060608201518160030160006101000a81548173ffffffffffffffffffffffffffffffffffffffff021916908373ffffffffffffffffffffffffffffffffffffffff16021790555060808201518160040160006101000a81548173ffffffffffffffffffffffffffffffffffffffff021916908373ffffffffffffffffffffffffffffffffffffffff1602179055505050508273ffffffffffffffffffffffffffffffffffffffff1663c6eeebf6836040518263ffffffff1660e01b8152600401808273ffffffffffffffffffffffffffffffffffffffff1673ffffffffffffffffffffffffffffffffffffffff168152602001915050600060405180830381600087803b15801561059257600080fd5b505af11580156105a6573d6000803e3d6000fd5b505050508173ffffffffffffffffffffffffffffffffffffffff1663a04d741a846040518263ffffffff1660e01b8152600401808273ffffffffffffffffffffffffffffffffffffffff1673ffffffffffffffffffffffffffffffffffffffff168152602001915050600060405180830381600087803b15801561062957600080fd5b505af115801561063d573d6000803e3d6000fd5b505050507f0e3c1b8363bc332740333e487360fc7e8002a629f6fc11a4442ea4eadea0116381600001518260200151836040015184606001518560800151604051808681526020018573ffffffffffffffffffffffffffffffffffffffff1673ffffffffffffffffffffffffffffffffffffffff168152602001806020018473ffffffffffffffffffffffffffffffffffffffff1673ffffffffffffffffffffffffffffffffffffffff1681526020018373ffffffffffffffffffffffffffffffffffffffff1673ffffffffffffffffffffffffffffffffffffffff168152602001828103825285818151815260200191508051906020019080838360005b8381101561075757808201518184015260208101905061073c565b50505050905090810190601f1680156107845780820380516001836020036101000a031916815260200191505b50965050505050505060405180910390a150505050565b60006060600080600180549050851061081c576040517f08c379a000000000000000000000000000000000000000000000000000000000815260040180806020018281038252600c8152602001807f6f7574206f662072616e6765000000000000000000000000000000000000000081525060200191505060405180910390fd5b610824610a1e565b6001868154811061083157fe5b90600052602060002090600502016040518060a0016040529081600082015481526020016001820160009054906101000a900473ffffffffffffffffffffffffffffffffffffffff1673ffffffffffffffffffffffffffffffffffffffff1673ffffffffffffffffffffffffffffffffffffffff168152602001600282018054600181600116156101000203166002900480601f0160208091040260200160405190810160405280929190818152602001828054600181600116156101000203166002900480156109435780601f1061091857610100808354040283529160200191610943565b820191906000526020600020905b81548152906001019060200180831161092657829003601f168201915b505050505081526020016003820160009054906101000a900473ffffffffffffffffffffffffffffffffffffffff1673ffffffffffffffffffffffffffffffffffffffff1673ffffffffffffffffffffffffffffffffffffffff1681526020016004820160009054906101000a900473ffffffffffffffffffffffffffffffffffffffff1673ffffffffffffffffffffffffffffffffffffffff1673ffffffffffffffffffffffffffffffffffffffff1681525050905080602001519450806040015193508060600151925080608001519150509193509193565b6040518060a0016040528060008152602001600073ffffffffffffffffffffffffffffffffffffffff16815260200160608152602001600073ffffffffffffffffffffffffffffffffffffffff168152602001600073ffffffffffffffffffffffffffffffffffffffff1681525090565b828054600181600116156101000203166002900490600052602060002090601f016020900481019282601f10610ad057805160ff1916838001178555610afe565b82800160010185558215610afe579182015b82811115610afd578251825591602001919060010190610ae2565b5b509050610b0b9190610b0f565b5090565b610b3191905b80821115610b2d576000816000905550600101610b15565b5090565b9056fea165627a7a72305820cb7f7f7162f686f443fba08c88b3308d38661bd573cd980445e5307752a67b3b0029",
  "source": "pragma solidity >=0.4.22 <0.6.0;\nimport \"./FundPool.sol\";\nimport \"./Vote.sol\";\n\n/// @title 工厂合约\n/// @author viko\n/// @notice 调用createProject创建fundpool合约以及vote合约\ncontract ProjectFactory{\n    /// @notice 项目的结构\n    struct Project{\n        uint256 index;\n        address creater;\n        string projectName;\n        address fundPoolContract;\n        address voteContract;\n    }\n\n    address owner;\n\n    /// @notice 用来存储所有的项目\n    Project[] projectQueue;\n\n    /* events */\n    event OnCreate(\n        uint256 index,\n        address creater,\n        string  projectName,\n        address fundPoolAddress,\n        address voteAddress\n    );\n\n    /// @notice 判断是不是合约的所有者\n    modifier isOwner() {\n        require(owner == msg.sender, \"limited authority\");\n        _;\n    }\n\n    constructor() public {\n        owner = msg.sender;\n    }\n\n    /// @notice 创建一个工程\n    /// @dev 创建工程等于创建了两个合约，一个是vote合约，一个是fundpool合约。两个合约的hash用event的方式抛出。\n    /// @param _name 需要传入项目的名称，_days 项目需要众筹的总耗时，_money 项目众筹的资金\n    function createProject(string memory _name,FundPool _fundpool,Vote _vote) public isOwner(){\n        Project memory project = Project({\n            index:projectQueue.length,\n            creater : msg.sender,\n            projectName : _name,\n            fundPoolContract : address(_fundpool),\n            voteContract:address(_vote)\n        });\n        projectQueue.push(project);\n        //耦合\n        _fundpool.unsafe_setVote(_vote);\n        _vote.unsafe_setFundPool(_fundpool);\n        emit OnCreate(project.index,project.creater,project.projectName,project.fundPoolContract,project.voteContract);\n    }\n\n    /// @notice 获取已经创立的项目数\n    function getProjectCount() public view returns(uint256 count) {\n        count = projectQueue.length;\n    }\n\n    /// @notice 获取项目详情\n    /// @param _index 项目的序列号\n    function getProjectInfoByIndex(uint256 _index)\n    public\n    view\n    returns(\n        address creater,\n        string memory name,\n        address fundPoolContract,\n        address voteContract\n        )\n    {\n        require(_index < projectQueue.length, \"out of range\");\n        Project memory project = projectQueue[_index];\n        creater = project.creater;\n        name = project.projectName;\n        fundPoolContract = project.fundPoolContract;\n        voteContract = project.voteContract;\n    }\n}",
  "sourcePath": "/Users/yinwei/工作/eth/FD_Contract_ETH/V3/contracts/ProjectFactory.sol",
  "compiler": {
    "name": "solc",
    "version": "0.5.8+commit.23d335f2.Emscripten.clang"
  },
  "schemaVersion": "3.0.11",
  "updatedAt": "2019-07-24T08:09:40.229Z",
  "devdoc": {
    "author": "viko",
    "methods": {
      "createProject(string,address,address)": {
        "details": "创建工程等于创建了两个合约，一个是vote合约，一个是fundpool合约。两个合约的hash用event的方式抛出。",
        "params": {
          "_name": "需要传入项目的名称，_days 项目需要众筹的总耗时，_money 项目众筹的资金"
        }
      },
      "getProjectInfoByIndex(uint256)": {
        "params": {
          "_index": "项目的序列号"
        }
      }
    },
    "title": "工厂合约"
  },
  "userdoc": {
    "methods": {
      "createProject(string,address,address)": {
        "notice": "创建一个工程"
      },
      "getProjectCount()": {
        "notice": "获取已经创立的项目数"
      },
      "getProjectInfoByIndex(uint256)": {
        "notice": "获取项目详情"
      }
    },
    "notice": "调用createProject创建fundpool合约以及vote合约"
  }
}