{
  "contractName": "Tap",
  "abi": [
    {
      "inputs": [
        {
          "name": "_owner",
          "type": "address"
        },
        {
          "name": "_startTime",
          "type": "uint256"
        },
        {
          "name": "_endTime",
          "type": "uint256"
        },
        {
          "name": "_allMoney",
          "type": "uint256"
        }
      ],
      "payable": false,
      "stateMutability": "nonpayable",
      "type": "constructor"
    },
    {
      "payable": true,
      "stateMutability": "payable",
      "type": "fallback"
    },
    {
      "constant": false,
      "inputs": [],
      "name": "GetMoney",
      "outputs": [],
      "payable": true,
      "stateMutability": "payable",
      "type": "function"
    }
  ],
  "bytecode": "0x608060405234801561001057600080fd5b506040516080806105108339810180604052608081101561003057600080fd5b810190808051906020019092919080519060200190929190805190602001909291908051906020019092919050505083600360006101000a81548173ffffffffffffffffffffffffffffffffffffffff021916908373ffffffffffffffffffffffffffffffffffffffff16021790555082600081905550816001819055508060028190555050505050610448806100c86000396000f3fe60806040526004361061001e5760003560e01c8063686e8aaa14610020575b005b61002861002a565b005b6000610056620151806100486000544261015b90919063ffffffff16565b6101a590919063ffffffff16565b905060006100866201518061007860005460015461015b90919063ffffffff16565b6101a590919063ffffffff16565b905060008082146100d2576100cd826100bf853073ffffffffffffffffffffffffffffffffffffffff16316101ef90919063ffffffff16565b6101a590919063ffffffff16565b6100eb565b3073ffffffffffffffffffffffffffffffffffffffff16315b9050600360009054906101000a900473ffffffffffffffffffffffffffffffffffffffff1673ffffffffffffffffffffffffffffffffffffffff166108fc829081150290604051600060405180830381858888f19350505050158015610155573d6000803e3d6000fd5b50505050565b600061019d83836040518060400160405280601e81526020017f536166654d6174683a207375627472616374696f6e206f766572666c6f770000815250610275565b905092915050565b60006101e783836040518060400160405280601a81526020017f536166654d6174683a206469766973696f6e206279207a65726f000000000000815250610335565b905092915050565b600080831415610202576000905061026f565b600082840290508284828161021357fe5b041461026a576040517f08c379a00000000000000000000000000000000000000000000000000000000081526004018080602001828103825260218152602001806103fc6021913960400191505060405180910390fd5b809150505b92915050565b6000838311158290610322576040517f08c379a00000000000000000000000000000000000000000000000000000000081526004018080602001828103825283818151815260200191508051906020019080838360005b838110156102e75780820151818401526020810190506102cc565b50505050905090810190601f1680156103145780820380516001836020036101000a031916815260200191505b509250505060405180910390fd5b5060008385039050809150509392505050565b600080831182906103e1576040517f08c379a00000000000000000000000000000000000000000000000000000000081526004018080602001828103825283818151815260200191508051906020019080838360005b838110156103a657808201518184015260208101905061038b565b50505050905090810190601f1680156103d35780820380516001836020036101000a031916815260200191505b509250505060405180910390fd5b5060008385816103ed57fe5b04905080915050939250505056fe536166654d6174683a206d756c7469706c69636174696f6e206f766572666c6f77a165627a7a72305820db315ff17f0c24af82b568baf403157e25a3fb433e10fe434ebe58c9a8f0f1280029",
  "source": "pragma solidity >=0.4.22 <0.6.0;\r\n\r\nimport \"../lib/SafeMath.sol\";\r\n\r\ncontract Tap {\r\n    using SafeMath for uint256;\r\n    uint256 startTime;\r\n    uint256 endTime;\r\n    uint256 allMoney;\r\n    address payable owner;\r\n\r\n    constructor(address payable _owner,uint256 _startTime,uint256 _endTime,uint256 _allMoney) public{\r\n        owner = _owner;\r\n        startTime = _startTime;\r\n        endTime = _endTime;\r\n        allMoney = _allMoney;\r\n    }\r\n\r\n    function GetMoney() public payable{\r\n        uint256 times = now.sub(startTime).div(1 days);\r\n        uint256 allTimes = endTime.sub(startTime).div(1 days);\r\n        uint256 canGetMoney = allTimes == 0 ? address(this).balance : address(this).balance.mul(times).div(allTimes);\r\n        owner.transfer(canGetMoney);\r\n    }\r\n\r\n    function() external payable{\r\n    }\r\n}",
  "sourcePath": "D:/_______work/FD_Contract_ETH/fd/contracts/Tap/Tap.sol",
  "compiler": {
    "name": "solc",
    "version": "0.5.8+commit.23d335f2.Emscripten.clang"
  },
  "schemaVersion": "3.0.11",
  "updatedAt": "2019-08-27T08:11:10.195Z",
  "devdoc": {
    "methods": {}
  },
  "userdoc": {
    "methods": {}
  }
}