{
  "contractName": "Test",
  "abi": [
    {
      "anonymous": false,
      "inputs": [
        {
          "indexed": true,
          "name": "beneficiary",
          "type": "address"
        }
      ],
      "name": "UpdateBeneficiary",
      "type": "event"
    },
    {
      "anonymous": false,
      "inputs": [
        {
          "indexed": true,
          "name": "formula",
          "type": "address"
        }
      ],
      "name": "UpdateFormula",
      "type": "event"
    },
    {
      "anonymous": false,
      "inputs": [
        {
          "indexed": false,
          "name": "buyFeePct",
          "type": "uint256"
        },
        {
          "indexed": false,
          "name": "sellFeePct",
          "type": "uint256"
        }
      ],
      "name": "UpdateFees",
      "type": "event"
    },
    {
      "anonymous": false,
      "inputs": [
        {
          "indexed": true,
          "name": "id",
          "type": "uint256"
        },
        {
          "indexed": false,
          "name": "supply",
          "type": "uint256"
        }
      ],
      "name": "NewMetaBatch",
      "type": "event"
    },
    {
      "anonymous": false,
      "inputs": [
        {
          "indexed": true,
          "name": "id",
          "type": "uint256"
        },
        {
          "indexed": true,
          "name": "collateral",
          "type": "address"
        },
        {
          "indexed": false,
          "name": "supply",
          "type": "uint256"
        },
        {
          "indexed": false,
          "name": "balance",
          "type": "uint256"
        },
        {
          "indexed": false,
          "name": "reserveRatio",
          "type": "uint32"
        }
      ],
      "name": "NewBatch",
      "type": "event"
    },
    {
      "anonymous": false,
      "inputs": [
        {
          "indexed": true,
          "name": "id",
          "type": "uint256"
        },
        {
          "indexed": true,
          "name": "collateral",
          "type": "address"
        }
      ],
      "name": "CancelBatch",
      "type": "event"
    },
    {
      "anonymous": false,
      "inputs": [
        {
          "indexed": true,
          "name": "collateral",
          "type": "address"
        },
        {
          "indexed": false,
          "name": "virtualSupply",
          "type": "uint256"
        },
        {
          "indexed": false,
          "name": "virtualBalance",
          "type": "uint256"
        },
        {
          "indexed": false,
          "name": "reserveRatio",
          "type": "uint32"
        },
        {
          "indexed": false,
          "name": "slippage",
          "type": "uint256"
        }
      ],
      "name": "AddCollateralToken",
      "type": "event"
    },
    {
      "anonymous": false,
      "inputs": [
        {
          "indexed": true,
          "name": "collateral",
          "type": "address"
        }
      ],
      "name": "RemoveCollateralToken",
      "type": "event"
    },
    {
      "anonymous": false,
      "inputs": [
        {
          "indexed": true,
          "name": "collateral",
          "type": "address"
        },
        {
          "indexed": false,
          "name": "virtualSupply",
          "type": "uint256"
        },
        {
          "indexed": false,
          "name": "virtualBalance",
          "type": "uint256"
        },
        {
          "indexed": false,
          "name": "reserveRatio",
          "type": "uint32"
        },
        {
          "indexed": false,
          "name": "slippage",
          "type": "uint256"
        }
      ],
      "name": "UpdateCollateralToken",
      "type": "event"
    },
    {
      "anonymous": false,
      "inputs": [],
      "name": "Open",
      "type": "event"
    },
    {
      "anonymous": false,
      "inputs": [
        {
          "indexed": true,
          "name": "buyer",
          "type": "address"
        },
        {
          "indexed": true,
          "name": "batchId",
          "type": "uint256"
        },
        {
          "indexed": true,
          "name": "collateral",
          "type": "address"
        },
        {
          "indexed": false,
          "name": "fee",
          "type": "uint256"
        },
        {
          "indexed": false,
          "name": "value",
          "type": "uint256"
        }
      ],
      "name": "OpenBuyOrder",
      "type": "event"
    },
    {
      "anonymous": false,
      "inputs": [
        {
          "indexed": true,
          "name": "seller",
          "type": "address"
        },
        {
          "indexed": true,
          "name": "batchId",
          "type": "uint256"
        },
        {
          "indexed": true,
          "name": "collateral",
          "type": "address"
        },
        {
          "indexed": false,
          "name": "amount",
          "type": "uint256"
        }
      ],
      "name": "OpenSellOrder",
      "type": "event"
    },
    {
      "anonymous": false,
      "inputs": [
        {
          "indexed": true,
          "name": "buyer",
          "type": "address"
        },
        {
          "indexed": true,
          "name": "batchId",
          "type": "uint256"
        },
        {
          "indexed": true,
          "name": "collateral",
          "type": "address"
        },
        {
          "indexed": false,
          "name": "amount",
          "type": "uint256"
        }
      ],
      "name": "ClaimBuyOrder",
      "type": "event"
    },
    {
      "anonymous": false,
      "inputs": [
        {
          "indexed": true,
          "name": "seller",
          "type": "address"
        },
        {
          "indexed": true,
          "name": "batchId",
          "type": "uint256"
        },
        {
          "indexed": true,
          "name": "collateral",
          "type": "address"
        },
        {
          "indexed": false,
          "name": "fee",
          "type": "uint256"
        },
        {
          "indexed": false,
          "name": "value",
          "type": "uint256"
        }
      ],
      "name": "ClaimSellOrder",
      "type": "event"
    },
    {
      "anonymous": false,
      "inputs": [
        {
          "indexed": true,
          "name": "buyer",
          "type": "address"
        },
        {
          "indexed": true,
          "name": "batchId",
          "type": "uint256"
        },
        {
          "indexed": true,
          "name": "collateral",
          "type": "address"
        },
        {
          "indexed": false,
          "name": "value",
          "type": "uint256"
        }
      ],
      "name": "ClaimCancelledBuyOrder",
      "type": "event"
    },
    {
      "anonymous": false,
      "inputs": [
        {
          "indexed": true,
          "name": "seller",
          "type": "address"
        },
        {
          "indexed": true,
          "name": "batchId",
          "type": "uint256"
        },
        {
          "indexed": true,
          "name": "collateral",
          "type": "address"
        },
        {
          "indexed": false,
          "name": "amount",
          "type": "uint256"
        }
      ],
      "name": "ClaimCancelledSellOrder",
      "type": "event"
    },
    {
      "anonymous": false,
      "inputs": [
        {
          "indexed": true,
          "name": "batchId",
          "type": "uint256"
        },
        {
          "indexed": true,
          "name": "collateral",
          "type": "address"
        },
        {
          "indexed": false,
          "name": "totalBuySpend",
          "type": "uint256"
        },
        {
          "indexed": false,
          "name": "totalBuyReturn",
          "type": "uint256"
        },
        {
          "indexed": false,
          "name": "totalSellSpend",
          "type": "uint256"
        },
        {
          "indexed": false,
          "name": "totalSellReturn",
          "type": "uint256"
        }
      ],
      "name": "UpdatePricing",
      "type": "event"
    },
    {
      "constant": false,
      "inputs": [
        {
          "name": "_grantor",
          "type": "address"
        },
        {
          "name": "_app",
          "type": "address"
        },
        {
          "name": "_vData",
          "type": "bytes32"
        }
      ],
      "name": "addPermission",
      "outputs": [],
      "payable": false,
      "stateMutability": "nonpayable",
      "type": "function"
    },
    {
      "constant": false,
      "inputs": [
        {
          "name": "_oldGrantor",
          "type": "address"
        },
        {
          "name": "_newGrantor",
          "type": "address"
        },
        {
          "name": "_app",
          "type": "address"
        },
        {
          "name": "_vData",
          "type": "bytes32"
        }
      ],
      "name": "changePermission",
      "outputs": [],
      "payable": false,
      "stateMutability": "nonpayable",
      "type": "function"
    }
  ],
  "bytecode": "0x608060405234801561001057600080fd5b5061016e806100206000396000f3fe608060405234801561001057600080fd5b50600436106100365760003560e01c8063dcad324f1461003b578063f376124f146100c9575b600080fd5b6100c76004803603608081101561005157600080fd5b81019080803573ffffffffffffffffffffffffffffffffffffffff169060200190929190803573ffffffffffffffffffffffffffffffffffffffff169060200190929190803573ffffffffffffffffffffffffffffffffffffffff16906020019092919080359060200190929190505050610137565b005b610135600480360360608110156100df57600080fd5b81019080803573ffffffffffffffffffffffffffffffffffffffff169060200190929190803573ffffffffffffffffffffffffffffffffffffffff1690602001909291908035906020019092919050505061013d565b005b50505050565b50505056fea165627a7a72305820f1632fd45ab3688a982d3b9dc8e0129e17fc6f4590cf4f0bc106f8c5269acf5f0029",
  "source": "pragma solidity >=0.4.22 <0.6.0;\r\n\r\ncontract Test {\r\n    event UpdateBeneficiary      (address indexed beneficiary);\r\n    event UpdateFormula          (address indexed formula);\r\n    event UpdateFees             (uint256 buyFeePct, uint256 sellFeePct);\r\n    event NewMetaBatch           (uint256 indexed id, uint256 supply);\r\n    event NewBatch               (uint256 indexed id, address indexed collateral, uint256 supply, uint256 balance, uint32 reserveRatio);\r\n    event CancelBatch            (uint256 indexed id, address indexed collateral);\r\n    event AddCollateralToken     (\r\n        address indexed collateral,\r\n        uint256 virtualSupply,\r\n        uint256 virtualBalance,\r\n        uint32  reserveRatio,\r\n        uint256 slippage\r\n    );\r\n    event RemoveCollateralToken  (address indexed collateral);\r\n    event UpdateCollateralToken  (\r\n        address indexed collateral,\r\n        uint256 virtualSupply,\r\n        uint256 virtualBalance,\r\n        uint32  reserveRatio,\r\n        uint256 slippage\r\n    );\r\n    event Open                   ();\r\n    event OpenBuyOrder           (address indexed buyer, uint256 indexed batchId, address indexed collateral, uint256 fee, uint256 value);\r\n    event OpenSellOrder          (address indexed seller, uint256 indexed batchId, address indexed collateral, uint256 amount);\r\n    event ClaimBuyOrder          (address indexed buyer, uint256 indexed batchId, address indexed collateral, uint256 amount);\r\n    event ClaimSellOrder         (address indexed seller, uint256 indexed batchId, address indexed collateral, uint256 fee, uint256 value);\r\n    event ClaimCancelledBuyOrder (address indexed buyer, uint256 indexed batchId, address indexed collateral, uint256 value);\r\n    event ClaimCancelledSellOrder(address indexed seller, uint256 indexed batchId, address indexed collateral, uint256 amount);\r\n    event UpdatePricing          (\r\n        uint256 indexed batchId,\r\n        address indexed collateral,\r\n        uint256 totalBuySpend,\r\n        uint256 totalBuyReturn,\r\n        uint256 totalSellSpend,\r\n        uint256 totalSellReturn\r\n    );\r\n\r\n\r\n    function addPermission(address _grantor,address _app,bytes32 _vData) external{\r\n    }\r\n\r\n    function changePermission(address _oldGrantor,address _newGrantor,address _app,bytes32 _vData) external{\r\n    }\r\n}",
  "sourcePath": "D:/_______work/FD_Contract_ETH/fd/contracts/Token/Test.sol",
  "compiler": {
    "name": "solc",
    "version": "0.5.8+commit.23d335f2.Emscripten.clang"
  },
  "schemaVersion": "3.0.11",
  "updatedAt": "2019-10-23T12:18:10.424Z",
  "devdoc": {
    "methods": {}
  },
  "userdoc": {
    "methods": {}
  }
}