{
  "contractName": "TradeFundPool",
  "abi": [
    {
      "constant": true,
      "inputs": [],
      "name": "during_crowdfunding",
      "outputs": [
        {
          "name": "",
          "type": "bool"
        }
      ],
      "payable": false,
      "stateMutability": "view",
      "type": "function"
    },
    {
      "constant": true,
      "inputs": [],
      "name": "started",
      "outputs": [
        {
          "name": "",
          "type": "bool"
        }
      ],
      "payable": false,
      "stateMutability": "view",
      "type": "function"
    },
    {
      "constant": true,
      "inputs": [],
      "name": "sellReserve",
      "outputs": [
        {
          "name": "",
          "type": "uint256"
        }
      ],
      "payable": false,
      "stateMutability": "view",
      "type": "function"
    },
    {
      "constant": true,
      "inputs": [],
      "name": "getAppManagerAddress",
      "outputs": [
        {
          "name": "",
          "type": "address"
        }
      ],
      "payable": false,
      "stateMutability": "view",
      "type": "function"
    },
    {
      "constant": true,
      "inputs": [],
      "name": "FundPool_Clearing",
      "outputs": [
        {
          "name": "",
          "type": "bytes32"
        }
      ],
      "payable": false,
      "stateMutability": "view",
      "type": "function"
    },
    {
      "constant": true,
      "inputs": [],
      "name": "crowdFundStartTime",
      "outputs": [
        {
          "name": "",
          "type": "uint256"
        }
      ],
      "payable": false,
      "stateMutability": "view",
      "type": "function"
    },
    {
      "constant": true,
      "inputs": [],
      "name": "FundPool_Start",
      "outputs": [
        {
          "name": "",
          "type": "bytes32"
        }
      ],
      "payable": false,
      "stateMutability": "view",
      "type": "function"
    },
    {
      "constant": true,
      "inputs": [],
      "name": "crowdFundPrice",
      "outputs": [
        {
          "name": "",
          "type": "uint256"
        }
      ],
      "payable": false,
      "stateMutability": "view",
      "type": "function"
    },
    {
      "constant": true,
      "inputs": [],
      "name": "crowdFundMoney",
      "outputs": [
        {
          "name": "",
          "type": "uint256"
        }
      ],
      "payable": false,
      "stateMutability": "view",
      "type": "function"
    },
    {
      "constant": true,
      "inputs": [],
      "name": "FundPool_PreMint",
      "outputs": [
        {
          "name": "",
          "type": "bytes32"
        }
      ],
      "payable": false,
      "stateMutability": "view",
      "type": "function"
    },
    {
      "constant": true,
      "inputs": [],
      "name": "EMPTY_PARAM_HASH",
      "outputs": [
        {
          "name": "",
          "type": "bytes32"
        }
      ],
      "payable": false,
      "stateMutability": "view",
      "type": "function"
    },
    {
      "constant": true,
      "inputs": [],
      "name": "FundPool_SendEth",
      "outputs": [
        {
          "name": "",
          "type": "bytes32"
        }
      ],
      "payable": false,
      "stateMutability": "view",
      "type": "function"
    },
    {
      "constant": true,
      "inputs": [],
      "name": "appManager",
      "outputs": [
        {
          "name": "",
          "type": "address"
        }
      ],
      "payable": false,
      "stateMutability": "view",
      "type": "function"
    },
    {
      "constant": true,
      "inputs": [
        {
          "name": "",
          "type": "address"
        }
      ],
      "name": "crowdFundingEth",
      "outputs": [
        {
          "name": "",
          "type": "uint256"
        }
      ],
      "payable": false,
      "stateMutability": "view",
      "type": "function"
    },
    {
      "constant": true,
      "inputs": [],
      "name": "crowdFundDuringTime",
      "outputs": [
        {
          "name": "",
          "type": "uint256"
        }
      ],
      "payable": false,
      "stateMutability": "view",
      "type": "function"
    },
    {
      "inputs": [
        {
          "name": "_appManager",
          "type": "address"
        },
        {
          "name": "_token",
          "type": "address"
        },
        {
          "name": "_duringTime",
          "type": "uint256"
        },
        {
          "name": "_money",
          "type": "uint256"
        },
        {
          "name": "_curve",
          "type": "address"
        }
      ],
      "payable": false,
      "stateMutability": "nonpayable",
      "type": "constructor"
    },
    {
      "payable": true,
      "stateMutability": "payable",
      "type": "fallback"
    },
    {
      "anonymous": false,
      "inputs": [
        {
          "indexed": false,
          "name": "who",
          "type": "address"
        },
        {
          "indexed": false,
          "name": "ethAmount",
          "type": "uint256"
        },
        {
          "indexed": false,
          "name": "fdtAmount",
          "type": "uint256"
        }
      ],
      "name": "OnBuy",
      "type": "event"
    },
    {
      "anonymous": false,
      "inputs": [
        {
          "indexed": false,
          "name": "who",
          "type": "address"
        },
        {
          "indexed": false,
          "name": "ethAmount",
          "type": "uint256"
        },
        {
          "indexed": false,
          "name": "fdtAmount",
          "type": "uint256"
        }
      ],
      "name": "OnSell",
      "type": "event"
    },
    {
      "anonymous": false,
      "inputs": [
        {
          "indexed": false,
          "name": "who",
          "type": "address"
        },
        {
          "indexed": false,
          "name": "ethAmount",
          "type": "uint256"
        }
      ],
      "name": "OnRevenue",
      "type": "event"
    },
    {
      "anonymous": false,
      "inputs": [
        {
          "indexed": false,
          "name": "who",
          "type": "address"
        },
        {
          "indexed": false,
          "name": "ethAmount",
          "type": "uint256"
        }
      ],
      "name": "OnWindingUp",
      "type": "event"
    },
    {
      "anonymous": false,
      "inputs": [
        {
          "indexed": false,
          "name": "who",
          "type": "address"
        },
        {
          "indexed": false,
          "name": "fdtAmount",
          "type": "uint256"
        }
      ],
      "name": "OnPreMint",
      "type": "event"
    },
    {
      "constant": true,
      "inputs": [],
      "name": "getCurveAddress",
      "outputs": [
        {
          "name": "",
          "type": "address"
        }
      ],
      "payable": false,
      "stateMutability": "view",
      "type": "function"
    },
    {
      "constant": true,
      "inputs": [],
      "name": "getFdTokenAddress",
      "outputs": [
        {
          "name": "",
          "type": "address"
        }
      ],
      "payable": false,
      "stateMutability": "view",
      "type": "function"
    },
    {
      "constant": false,
      "inputs": [],
      "name": "start",
      "outputs": [],
      "payable": false,
      "stateMutability": "nonpayable",
      "type": "function"
    },
    {
      "constant": false,
      "inputs": [
        {
          "name": "who",
          "type": "address"
        },
        {
          "name": "amount",
          "type": "uint256"
        }
      ],
      "name": "preMint",
      "outputs": [],
      "payable": false,
      "stateMutability": "nonpayable",
      "type": "function"
    },
    {
      "constant": false,
      "inputs": [],
      "name": "windingUp",
      "outputs": [],
      "payable": false,
      "stateMutability": "nonpayable",
      "type": "function"
    },
    {
      "constant": false,
      "inputs": [
        {
          "name": "needBack",
          "type": "bool"
        }
      ],
      "name": "crowdfunding",
      "outputs": [],
      "payable": true,
      "stateMutability": "payable",
      "type": "function"
    },
    {
      "constant": false,
      "inputs": [],
      "name": "buy",
      "outputs": [],
      "payable": true,
      "stateMutability": "payable",
      "type": "function"
    },
    {
      "constant": false,
      "inputs": [
        {
          "name": "_amount",
          "type": "uint256"
        }
      ],
      "name": "sell",
      "outputs": [],
      "payable": false,
      "stateMutability": "nonpayable",
      "type": "function"
    },
    {
      "constant": false,
      "inputs": [],
      "name": "revenue",
      "outputs": [],
      "payable": true,
      "stateMutability": "payable",
      "type": "function"
    },
    {
      "constant": false,
      "inputs": [
        {
          "name": "_who",
          "type": "address"
        },
        {
          "name": "_value",
          "type": "uint256"
        }
      ],
      "name": "sendEth",
      "outputs": [],
      "payable": false,
      "stateMutability": "nonpayable",
      "type": "function"
    },
    {
      "constant": false,
      "inputs": [
        {
          "name": "_clearingContractAddress",
          "type": "address"
        },
        {
          "name": "_ratio",
          "type": "uint256"
        }
      ],
      "name": "clearing",
      "outputs": [],
      "payable": false,
      "stateMutability": "nonpayable",
      "type": "function"
    }
  ],
  "bytecode": "0x60806040526001600560006101000a81548160ff0219169083151502179055506000600560016101000a81548160ff0219169083151502179055503480156200004757600080fd5b5060405160a08062003dd2833981018060405260a08110156200006957600080fd5b8101908080519060200190929190805190602001909291908051906020019092919080519060200190929190805190602001909291905050506000831162000119576040517f08c379a00000000000000000000000000000000000000000000000000000000081526004018080602001828103825260158152602001807f64206e6565642067726561746572207468616e2030000000000000000000000081525060200191505060405180910390fd5b6000821162000190576040517f08c379a00000000000000000000000000000000000000000000000000000000081526004018080602001828103825260158152602001807f6d206e6565642067726561746572207468616e2030000000000000000000000081525060200191505060405180910390fd5b80600860006101000a81548173ffffffffffffffffffffffffffffffffffffffff021916908373ffffffffffffffffffffffffffffffffffffffff160217905550846000806101000a81548173ffffffffffffffffffffffffffffffffffffffff021916908373ffffffffffffffffffffffffffffffffffffffff16021790555083600960006101000a81548173ffffffffffffffffffffffffffffffffffffffff021916908373ffffffffffffffffffffffffffffffffffffffff160217905550826002819055508160038190555042600481905550600860009054906101000a900473ffffffffffffffffffffffffffffffffffffffff1673ffffffffffffffffffffffffffffffffffffffff166332386d9e6003546040518263ffffffff1660e01b81526004018082815260200191505060206040518083038186803b158015620002dd57600080fd5b505afa158015620002f2573d6000803e3d6000fd5b505050506040513d60208110156200030957600080fd5b81019080805190602001909291905050506001819055505050505050613a9d80620003356000396000f3fe6080604052600436106101815760003560e01c8063a218dca0116100d1578063c513f66e1161008a578063ebe86c1311610064578063ebe86c1314610610578063f480fb6b14610667578063f8940000146106cc578063facd49a9146106e357610181565b8063c513f66e1461057f578063e4849b32146105aa578063e51f67d0146105e557610181565b8063a218dca014610486578063a6f2ae3a146104b1578063b0e8fc75146104bb578063b5250ac2146104e6578063b710ffc01461053d578063be9a65551461056857610181565b806349dcbc5e1161013e5780634dceabe2116101185780634dceabe2146103aa5780634f25e2a3146103d55780636172bed414610430578063a0ce08971461045b57610181565b806349dcbc5e146102c85780634c2f050f146103235780634c3300771461035357610181565b806302528101146101835780631f2698ab146101b257806323572c57146101e1578063290c292d146102385780633d00e61b146102935780633e9491a2146102be575b005b34801561018f57600080fd5b5061019861070e565b604051808215151515815260200191505060405180910390f35b3480156101be57600080fd5b506101c7610721565b604051808215151515815260200191505060405180910390f35b3480156101ed57600080fd5b506101f6610734565b604051808273ffffffffffffffffffffffffffffffffffffffff1673ffffffffffffffffffffffffffffffffffffffff16815260200191505060405180910390f35b34801561024457600080fd5b506102916004803603604081101561025b57600080fd5b81019080803573ffffffffffffffffffffffffffffffffffffffff1690602001909291908035906020019092919050505061075e565b005b34801561029f57600080fd5b506102a8610b07565b6040518082815260200191505060405180910390f35b6102c6610b0d565b005b3480156102d457600080fd5b50610321600480360360408110156102eb57600080fd5b81019080803573ffffffffffffffffffffffffffffffffffffffff16906020019092919080359060200190929190505050610d06565b005b6103516004803603602081101561033957600080fd5b810190808035151590602001909291905050506110b2565b005b34801561035f57600080fd5b50610368611fef565b604051808273ffffffffffffffffffffffffffffffffffffffff1673ffffffffffffffffffffffffffffffffffffffff16815260200191505060405180910390f35b3480156103b657600080fd5b506103bf612018565b6040518082815260200191505060405180910390f35b3480156103e157600080fd5b5061042e600480360360408110156103f857600080fd5b81019080803573ffffffffffffffffffffffffffffffffffffffff16906020019092919080359060200190929190505050612051565b005b34801561043c57600080fd5b5061044561248d565b6040518082815260200191505060405180910390f35b34801561046757600080fd5b50610470612493565b6040518082815260200191505060405180910390f35b34801561049257600080fd5b5061049b6124cc565b6040518082815260200191505060405180910390f35b6104b96124d2565b005b3480156104c757600080fd5b506104d06129c2565b6040518082815260200191505060405180910390f35b3480156104f257600080fd5b506104fb6129c8565b604051808273ffffffffffffffffffffffffffffffffffffffff1673ffffffffffffffffffffffffffffffffffffffff16815260200191505060405180910390f35b34801561054957600080fd5b506105526129f2565b6040518082815260200191505060405180910390f35b34801561057457600080fd5b5061057d612a2b565b005b34801561058b57600080fd5b50610594612c14565b6040518082815260200191505060405180910390f35b3480156105b657600080fd5b506105e3600480360360208110156105cd57600080fd5b8101908080359060200190929190505050612c3b565b005b3480156105f157600080fd5b506105fa613143565b6040518082815260200191505060405180910390f35b34801561061c57600080fd5b5061062561317c565b604051808273ffffffffffffffffffffffffffffffffffffffff1673ffffffffffffffffffffffffffffffffffffffff16815260200191505060405180910390f35b34801561067357600080fd5b506106b66004803603602081101561068a57600080fd5b81019080803573ffffffffffffffffffffffffffffffffffffffff1690602001909291905050506131a1565b6040518082815260200191505060405180910390f35b3480156106d857600080fd5b506106e16131b9565b005b3480156106ef57600080fd5b506106f8613696565b6040518082815260200191505060405180910390f35b600560009054906101000a900460ff1681565b600560019054906101000a900460ff1681565b6000600860009054906101000a900473ffffffffffffffffffffffffffffffffffffffff16905090565b60405180807f46756e64506f6f6c5f5072654d696e7400000000000000000000000000000000815250601001905060405180910390206000809054906101000a900473ffffffffffffffffffffffffffffffffffffffff1673ffffffffffffffffffffffffffffffffffffffff16634c5f07493330847f290decd9548b62a8d60345a988386fc84ba6bc95484008f6362f93160ef3e56360001b6040518563ffffffff1660e01b8152600401808573ffffffffffffffffffffffffffffffffffffffff1673ffffffffffffffffffffffffffffffffffffffff1681526020018473ffffffffffffffffffffffffffffffffffffffff1673ffffffffffffffffffffffffffffffffffffffff16815260200183815260200182815260200194505050505060206040518083038186803b15801561089957600080fd5b505afa1580156108ad573d6000803e3d6000fd5b505050506040513d60208110156108c357600080fd5b8101908080519060200190929190505050610929576040517f08c379a0000000000000000000000000000000000000000000000000000000008152600401808060200182810382526024815260200180613a4e6024913960400191505060405180910390fd5b60001515600560019054906101000a900460ff161515146109b2576040517f08c379a000000000000000000000000000000000000000000000000000000000815260040180806020018281038252600a8152602001807f63616e742073746172740000000000000000000000000000000000000000000081525060200191505060405180910390fd5b600960009054906101000a900473ffffffffffffffffffffffffffffffffffffffff1673ffffffffffffffffffffffffffffffffffffffff166340c10f1984846040518363ffffffff1660e01b8152600401808373ffffffffffffffffffffffffffffffffffffffff1673ffffffffffffffffffffffffffffffffffffffff16815260200182815260200192505050602060405180830381600087803b158015610a5b57600080fd5b505af1158015610a6f573d6000803e3d6000fd5b505050506040513d6020811015610a8557600080fd5b8101908080519060200190929190505050507f110265d47e73c0ea495431be9532a2a79900da75f522a9e930b4156688cc9b8a8383604051808373ffffffffffffffffffffffffffffffffffffffff1673ffffffffffffffffffffffffffffffffffffffff1681526020018281526020019250505060405180910390a1505050565b60065481565b60011515600560019054906101000a900460ff16151514610b96576040517f08c379a000000000000000000000000000000000000000000000000000000000815260040180806020018281038252600a8152602001807f6e6565642073746172740000000000000000000000000000000000000000000081525060200191505060405180910390fd5b60001515600560009054906101000a900460ff16151514610c02576040517f08c379a00000000000000000000000000000000000000000000000000000000081526004018080602001828103825260228152602001806139c56022913960400191505060405180910390fd5b60003411610c78576040517f08c379a00000000000000000000000000000000000000000000000000000000081526004018080602001828103825260118152602001807f76616c7565206e656564206d6f7265203000000000000000000000000000000081525060200191505060405180910390fd5b6000349050610c928160065461369c90919063ffffffff16565b6006819055507ff817f8b22dc3d12c2b0537ef5fadd318e6a373be013bf57a92d2f49c4396fc9b3382604051808373ffffffffffffffffffffffffffffffffffffffff1673ffffffffffffffffffffffffffffffffffffffff1681526020018281526020019250505060405180910390a150565b60011515600560019054906101000a900460ff16151514610d8f576040517f08c379a000000000000000000000000000000000000000000000000000000000815260040180806020018281038252600a8152602001807f6e6565642073746172740000000000000000000000000000000000000000000081525060200191505060405180910390fd5b60001515600560009054906101000a900460ff16151514610dfb576040517f08c379a00000000000000000000000000000000000000000000000000000000081526004018080602001828103825260228152602001806139c56022913960400191505060405180910390fd5b60405180807f46756e64506f6f6c5f53656e6445746800000000000000000000000000000000815250601001905060405180910390206000809054906101000a900473ffffffffffffffffffffffffffffffffffffffff1673ffffffffffffffffffffffffffffffffffffffff16634c5f07493330847f290decd9548b62a8d60345a988386fc84ba6bc95484008f6362f93160ef3e56360001b6040518563ffffffff1660e01b8152600401808573ffffffffffffffffffffffffffffffffffffffff1673ffffffffffffffffffffffffffffffffffffffff1681526020018473ffffffffffffffffffffffffffffffffffffffff1673ffffffffffffffffffffffffffffffffffffffff16815260200183815260200182815260200194505050505060206040518083038186803b158015610f3657600080fd5b505afa158015610f4a573d6000803e3d6000fd5b505050506040513d6020811015610f6057600080fd5b8101908080519060200190929190505050610fc6576040517f08c379a0000000000000000000000000000000000000000000000000000000008152600401808060200182810382526024815260200180613a4e6024913960400191505060405180910390fd5b600654610ff3833073ffffffffffffffffffffffffffffffffffffffff163161372490919063ffffffff16565b11611066576040517f08c379a00000000000000000000000000000000000000000000000000000000081526004018080602001828103825260148152602001807f6e6f742073756666696369656e742066756e647300000000000000000000000081525060200191505060405180910390fd5b8273ffffffffffffffffffffffffffffffffffffffff166108fc839081150290604051600060405180830381858888f193505050501580156110ac573d6000803e3d6000fd5b50505050565b60011515600560019054906101000a900460ff1615151461113b576040517f08c379a000000000000000000000000000000000000000000000000000000000815260040180806020018281038252600a8152602001807f6e6565642073746172740000000000000000000000000000000000000000000081525060200191505060405180910390fd5b60011515600560009054906101000a900460ff161515146111a7576040517f08c379a0000000000000000000000000000000000000000000000000000000008152600401808060200182810382526023815260200180613a2b6023913960400191505060405180910390fd5b600034905060008111611222576040517f08c379a00000000000000000000000000000000000000000000000000000000081526004018080602001828103825260168152602001807f76616c7565206e656564206d6f7265207468616e20300000000000000000000081525060200191505060405180910390fd5b60025461123a6004544261372490919063ffffffff16565b11156112ae576040517f08c379a000000000000000000000000000000000000000000000000000000000815260040180806020018281038252601f8152602001807f6e65656420696e2074686520636f72776466756e64696e6720706572696f640081525060200191505060405180910390fd5b60003073ffffffffffffffffffffffffffffffffffffffff163190506003548110156115355760006112eb6001548461376e90919063ffffffff16565b9050600960009054906101000a900473ffffffffffffffffffffffffffffffffffffffff1673ffffffffffffffffffffffffffffffffffffffff166340c10f1933836040518363ffffffff1660e01b8152600401808373ffffffffffffffffffffffffffffffffffffffff1673ffffffffffffffffffffffffffffffffffffffff16815260200182815260200192505050602060405180830381600087803b15801561139657600080fd5b505af11580156113aa573d6000803e3d6000fd5b505050506040513d60208110156113c057600080fd5b810190808051906020019092919050505050611494600860009054906101000a900473ffffffffffffffffffffffffffffffffffffffff1673ffffffffffffffffffffffffffffffffffffffff16638bcc9537856040518263ffffffff1660e01b81526004018082815260200191505060206040518083038186803b15801561144857600080fd5b505afa15801561145c573d6000803e3d6000fd5b505050506040513d602081101561147257600080fd5b810190808051906020019092919050505060065461369c90919063ffffffff16565b6006819055506114ec83600760003373ffffffffffffffffffffffffffffffffffffffff1673ffffffffffffffffffffffffffffffffffffffff1681526020019081526020016000205461369c90919063ffffffff16565b600760003373ffffffffffffffffffffffffffffffffffffffff1673ffffffffffffffffffffffffffffffffffffffff1681526020019081526020016000208190555050611fea565b6003548114156117bb576000600560006101000a81548160ff02191690831515021790555060006115716001548461376e90919063ffffffff16565b9050600960009054906101000a900473ffffffffffffffffffffffffffffffffffffffff1673ffffffffffffffffffffffffffffffffffffffff166340c10f1933836040518363ffffffff1660e01b8152600401808373ffffffffffffffffffffffffffffffffffffffff1673ffffffffffffffffffffffffffffffffffffffff16815260200182815260200192505050602060405180830381600087803b15801561161c57600080fd5b505af1158015611630573d6000803e3d6000fd5b505050506040513d602081101561164657600080fd5b81019080805190602001909291905050505061171a600860009054906101000a900473ffffffffffffffffffffffffffffffffffffffff1673ffffffffffffffffffffffffffffffffffffffff16638bcc9537856040518263ffffffff1660e01b81526004018082815260200191505060206040518083038186803b1580156116ce57600080fd5b505afa1580156116e2573d6000803e3d6000fd5b505050506040513d60208110156116f857600080fd5b810190808051906020019092919050505060065461369c90919063ffffffff16565b60068190555061177283600760003373ffffffffffffffffffffffffffffffffffffffff1673ffffffffffffffffffffffffffffffffffffffff1681526020019081526020016000205461369c90919063ffffffff16565b600760003373ffffffffffffffffffffffffffffffffffffffff1673ffffffffffffffffffffffffffffffffffffffff1681526020019081526020016000208190555050611fe9565b8215611ad9576000600560006101000a81548160ff021916908315150217905550600061181c61180d6003543073ffffffffffffffffffffffffffffffffffffffff163161372490919063ffffffff16565b8461372490919063ffffffff16565b905060006118356001548361376e90919063ffffffff16565b9050600960009054906101000a900473ffffffffffffffffffffffffffffffffffffffff1673ffffffffffffffffffffffffffffffffffffffff166340c10f1933836040518363ffffffff1660e01b8152600401808373ffffffffffffffffffffffffffffffffffffffff1673ffffffffffffffffffffffffffffffffffffffff16815260200182815260200192505050602060405180830381600087803b1580156118e057600080fd5b505af11580156118f4573d6000803e3d6000fd5b505050506040513d602081101561190a57600080fd5b8101908080519060200190929190505050503373ffffffffffffffffffffffffffffffffffffffff166108fc611949848761372490919063ffffffff16565b9081150290604051600060405180830381858888f19350505050158015611974573d6000803e3d6000fd5b50611a37600860009054906101000a900473ffffffffffffffffffffffffffffffffffffffff1673ffffffffffffffffffffffffffffffffffffffff16638bcc9537846040518263ffffffff1660e01b81526004018082815260200191505060206040518083038186803b1580156119eb57600080fd5b505afa1580156119ff573d6000803e3d6000fd5b505050506040513d6020811015611a1557600080fd5b810190808051906020019092919050505060065461369c90919063ffffffff16565b600681905550611a8f82600760003373ffffffffffffffffffffffffffffffffffffffff1673ffffffffffffffffffffffffffffffffffffffff1681526020019081526020016000205461369c90919063ffffffff16565b600760003373ffffffffffffffffffffffffffffffffffffffff1673ffffffffffffffffffffffffffffffffffffffff168152602001908152602001600020819055505050611fe8565b6000600560006101000a81548160ff0219169083151502179055506000611b34611b256003543073ffffffffffffffffffffffffffffffffffffffff163161372490919063ffffffff16565b8461372490919063ffffffff16565b90506000611b4d6001548361376e90919063ffffffff16565b9050600960009054906101000a900473ffffffffffffffffffffffffffffffffffffffff1673ffffffffffffffffffffffffffffffffffffffff166340c10f1933836040518363ffffffff1660e01b8152600401808373ffffffffffffffffffffffffffffffffffffffff1673ffffffffffffffffffffffffffffffffffffffff16815260200182815260200192505050602060405180830381600087803b158015611bf857600080fd5b505af1158015611c0c573d6000803e3d6000fd5b505050506040513d6020811015611c2257600080fd5b8101908080519060200190929190505050506000600860009054906101000a900473ffffffffffffffffffffffffffffffffffffffff1673ffffffffffffffffffffffffffffffffffffffff166356d68a2d611c87858861372490919063ffffffff16565b600960009054906101000a900473ffffffffffffffffffffffffffffffffffffffff1673ffffffffffffffffffffffffffffffffffffffff166318160ddd6040518163ffffffff1660e01b815260040160206040518083038186803b158015611cef57600080fd5b505afa158015611d03573d6000803e3d6000fd5b505050506040513d6020811015611d1957600080fd5b81019080805190602001909291905050506040518363ffffffff1660e01b8152600401808381526020018281526020019250505060206040518083038186803b158015611d6557600080fd5b505afa158015611d79573d6000803e3d6000fd5b505050506040513d6020811015611d8f57600080fd5b81019080805190602001909291905050509050600960009054906101000a900473ffffffffffffffffffffffffffffffffffffffff1673ffffffffffffffffffffffffffffffffffffffff166340c10f1933836040518363ffffffff1660e01b8152600401808373ffffffffffffffffffffffffffffffffffffffff1673ffffffffffffffffffffffffffffffffffffffff16815260200182815260200192505050602060405180830381600087803b158015611e4b57600080fd5b505af1158015611e5f573d6000803e3d6000fd5b505050506040513d6020811015611e7557600080fd5b810190808051906020019092919050505050611f49600860009054906101000a900473ffffffffffffffffffffffffffffffffffffffff1673ffffffffffffffffffffffffffffffffffffffff16638bcc9537876040518263ffffffff1660e01b81526004018082815260200191505060206040518083038186803b158015611efd57600080fd5b505afa158015611f11573d6000803e3d6000fd5b505050506040513d6020811015611f2757600080fd5b810190808051906020019092919050505060065461369c90919063ffffffff16565b600681905550611fa185600760003373ffffffffffffffffffffffffffffffffffffffff1673ffffffffffffffffffffffffffffffffffffffff1681526020019081526020016000205461369c90919063ffffffff16565b600760003373ffffffffffffffffffffffffffffffffffffffff1673ffffffffffffffffffffffffffffffffffffffff168152602001908152602001600020819055505050505b5b5b505050565b60008060009054906101000a900473ffffffffffffffffffffffffffffffffffffffff16905090565b60405180807f46756e64506f6f6c5f436c656172696e670000000000000000000000000000008152506011019050604051809103902081565b60011515600560019054906101000a900460ff161515146120da576040517f08c379a000000000000000000000000000000000000000000000000000000000815260040180806020018281038252600a8152602001807f6e6565642073746172740000000000000000000000000000000000000000000081525060200191505060405180910390fd5b60001515600560009054906101000a900460ff16151514612146576040517f08c379a00000000000000000000000000000000000000000000000000000000081526004018080602001828103825260228152602001806139c56022913960400191505060405180910390fd5b60405180807f46756e64506f6f6c5f436c656172696e67000000000000000000000000000000815250601101905060405180910390206000809054906101000a900473ffffffffffffffffffffffffffffffffffffffff1673ffffffffffffffffffffffffffffffffffffffff16634c5f07493330847f290decd9548b62a8d60345a988386fc84ba6bc95484008f6362f93160ef3e56360001b6040518563ffffffff1660e01b8152600401808573ffffffffffffffffffffffffffffffffffffffff1673ffffffffffffffffffffffffffffffffffffffff1681526020018473ffffffffffffffffffffffffffffffffffffffff1673ffffffffffffffffffffffffffffffffffffffff16815260200183815260200182815260200194505050505060206040518083038186803b15801561228157600080fd5b505afa158015612295573d6000803e3d6000fd5b505050506040513d60208110156122ab57600080fd5b8101908080519060200190929190505050612311576040517f08c379a0000000000000000000000000000000000000000000000000000000008152600401808060200182810382526024815260200180613a4e6024913960400191505060405180910390fd5b633b9aca0082111561238b576040517f08c379a000000000000000000000000000000000000000000000000000000000815260040180806020018281038252600e8152602001807f726174696f2069732077726f6e6700000000000000000000000000000000000081525060200191505060405180910390fd5b60006123b8633b9aca006123aa856006546137b890919063ffffffff16565b61376e90919063ffffffff16565b90506000612410633b9aca00612402866123f46006543073ffffffffffffffffffffffffffffffffffffffff163161372490919063ffffffff16565b6137b890919063ffffffff16565b61376e90919063ffffffff16565b90506124278260065461372490919063ffffffff16565b6006819055508473ffffffffffffffffffffffffffffffffffffffff166108fc61245a838561369c90919063ffffffff16565b9081150290604051600060405180830381858888f19350505050158015612485573d6000803e3d6000fd5b505050505050565b60045481565b60405180807f46756e64506f6f6c5f5374617274000000000000000000000000000000000000815250600e019050604051809103902081565b60015481565b60011515600560019054906101000a900460ff1615151461255b576040517f08c379a000000000000000000000000000000000000000000000000000000000815260040180806020018281038252600a8152602001807f6e6565642073746172740000000000000000000000000000000000000000000081525060200191505060405180910390fd5b60001515600560009054906101000a900460ff161515146125c7576040517f08c379a00000000000000000000000000000000000000000000000000000000081526004018080602001828103825260228152602001806139c56022913960400191505060405180910390fd5b6000341161263d576040517f08c379a00000000000000000000000000000000000000000000000000000000081526004018080602001828103825260168152602001807f76616c7565206e656564206d6f7265207468616e20300000000000000000000081525060200191505060405180910390fd5b60003490506000600860009054906101000a900473ffffffffffffffffffffffffffffffffffffffff1673ffffffffffffffffffffffffffffffffffffffff166356d68a2d83600960009054906101000a900473ffffffffffffffffffffffffffffffffffffffff1673ffffffffffffffffffffffffffffffffffffffff166318160ddd6040518163ffffffff1660e01b815260040160206040518083038186803b1580156126eb57600080fd5b505afa1580156126ff573d6000803e3d6000fd5b505050506040513d602081101561271557600080fd5b81019080805190602001909291905050506040518363ffffffff1660e01b8152600401808381526020018281526020019250505060206040518083038186803b15801561276157600080fd5b505afa158015612775573d6000803e3d6000fd5b505050506040513d602081101561278b57600080fd5b81019080805190602001909291905050509050600960009054906101000a900473ffffffffffffffffffffffffffffffffffffffff1673ffffffffffffffffffffffffffffffffffffffff166340c10f1933836040518363ffffffff1660e01b8152600401808373ffffffffffffffffffffffffffffffffffffffff1673ffffffffffffffffffffffffffffffffffffffff16815260200182815260200192505050602060405180830381600087803b15801561284757600080fd5b505af115801561285b573d6000803e3d6000fd5b505050506040513d602081101561287157600080fd5b810190808051906020019092919050505050612945600860009054906101000a900473ffffffffffffffffffffffffffffffffffffffff1673ffffffffffffffffffffffffffffffffffffffff16638bcc9537846040518263ffffffff1660e01b81526004018082815260200191505060206040518083038186803b1580156128f957600080fd5b505afa15801561290d573d6000803e3d6000fd5b505050506040513d602081101561292357600080fd5b810190808051906020019092919050505060065461369c90919063ffffffff16565b6006819055507fe1ec7176d5b997461b6dfac832d3dca02a6487756f5aa2bcb6d1eaeab56ce66c333483604051808473ffffffffffffffffffffffffffffffffffffffff1673ffffffffffffffffffffffffffffffffffffffff168152602001838152602001828152602001935050505060405180910390a15050565b60035481565b6000600960009054906101000a900473ffffffffffffffffffffffffffffffffffffffff16905090565b60405180807f46756e64506f6f6c5f5072654d696e74000000000000000000000000000000008152506010019050604051809103902081565b60405180807f46756e64506f6f6c5f5374617274000000000000000000000000000000000000815250600e01905060405180910390206000809054906101000a900473ffffffffffffffffffffffffffffffffffffffff1673ffffffffffffffffffffffffffffffffffffffff16634c5f07493330847f290decd9548b62a8d60345a988386fc84ba6bc95484008f6362f93160ef3e56360001b6040518563ffffffff1660e01b8152600401808573ffffffffffffffffffffffffffffffffffffffff1673ffffffffffffffffffffffffffffffffffffffff1681526020018473ffffffffffffffffffffffffffffffffffffffff1673ffffffffffffffffffffffffffffffffffffffff16815260200183815260200182815260200194505050505060206040518083038186803b158015612b6657600080fd5b505afa158015612b7a573d6000803e3d6000fd5b505050506040513d6020811015612b9057600080fd5b8101908080519060200190929190505050612bf6576040517f08c379a0000000000000000000000000000000000000000000000000000000008152600401808060200182810382526024815260200180613a4e6024913960400191505060405180910390fd5b6001600560016101000a81548160ff02191690831515021790555050565b7f290decd9548b62a8d60345a988386fc84ba6bc95484008f6362f93160ef3e56360001b81565b60011515600560019054906101000a900460ff16151514612cc4576040517f08c379a000000000000000000000000000000000000000000000000000000000815260040180806020018281038252600a8152602001807f6e6565642073746172740000000000000000000000000000000000000000000081525060200191505060405180910390fd5b60001515600560009054906101000a900460ff16151514612d30576040517f08c379a00000000000000000000000000000000000000000000000000000000081526004018080602001828103825260228152602001806139c56022913960400191505060405180910390fd5b60008111612da6576040517f08c379a00000000000000000000000000000000000000000000000000000000081526004018080602001828103825260178152602001807f616d6f756e74206e656564206d6f7265207468616e203000000000000000000081525060200191505060405180910390fd5b6000600860009054906101000a900473ffffffffffffffffffffffffffffffffffffffff1673ffffffffffffffffffffffffffffffffffffffff1663f81cb5ae83600654600960009054906101000a900473ffffffffffffffffffffffffffffffffffffffff1673ffffffffffffffffffffffffffffffffffffffff166318160ddd6040518163ffffffff1660e01b815260040160206040518083038186803b158015612e5257600080fd5b505afa158015612e66573d6000803e3d6000fd5b505050506040513d6020811015612e7c57600080fd5b81019080805190602001909291905050506040518463ffffffff1660e01b815260040180848152602001838152602001828152602001935050505060206040518083038186803b158015612ecf57600080fd5b505afa158015612ee3573d6000803e3d6000fd5b505050506040513d6020811015612ef957600080fd5b81019080805190602001909291905050509050612f218160065461372490919063ffffffff16565b60068190555060006006541015612fa0576040517f08c379a000000000000000000000000000000000000000000000000000000000815260040180806020018281038252601c8152602001807f73656c6c52657365727665206e656564206d6f7265207468616e20300000000081525060200191505060405180910390fd5b600960009054906101000a900473ffffffffffffffffffffffffffffffffffffffff1673ffffffffffffffffffffffffffffffffffffffff16639dc29fac33846040518363ffffffff1660e01b8152600401808373ffffffffffffffffffffffffffffffffffffffff1673ffffffffffffffffffffffffffffffffffffffff16815260200182815260200192505050602060405180830381600087803b15801561304957600080fd5b505af115801561305d573d6000803e3d6000fd5b505050506040513d602081101561307357600080fd5b8101908080519060200190929190505050503373ffffffffffffffffffffffffffffffffffffffff166108fc829081150290604051600060405180830381858888f193505050501580156130cb573d6000803e3d6000fd5b507f26787c8671412319a484ce56f5606f739f3d415e9c4930cd0603b1c1badc2042338284604051808473ffffffffffffffffffffffffffffffffffffffff1673ffffffffffffffffffffffffffffffffffffffff168152602001838152602001828152602001935050505060405180910390a15050565b60405180807f46756e64506f6f6c5f53656e64457468000000000000000000000000000000008152506010019050604051809103902081565b6000809054906101000a900473ffffffffffffffffffffffffffffffffffffffff1681565b60076020528060005260406000206000915090505481565b60011515600560019054906101000a900460ff16151514613242576040517f08c379a000000000000000000000000000000000000000000000000000000000815260040180806020018281038252600a8152602001807f6e6565642073746172740000000000000000000000000000000000000000000081525060200191505060405180910390fd5b60011515600560009054906101000a900460ff161515146132ae576040517f08c379a0000000000000000000000000000000000000000000000000000000008152600401808060200182810382526023815260200180613a2b6023913960400191505060405180910390fd5b6000600760003373ffffffffffffffffffffffffffffffffffffffff1673ffffffffffffffffffffffffffffffffffffffff1681526020019081526020016000205411613363576040517f08c379a000000000000000000000000000000000000000000000000000000000815260040180806020018281038252600c8152602001807f6e6565642068617320657468000000000000000000000000000000000000000081525060200191505060405180910390fd5b60025461337b6004544261372490919063ffffffff16565b116133d1576040517f08c379a0000000000000000000000000000000000000000000000000000000008152600401808060200182810382526023815260200180613a086023913960400191505060405180910390fd5b6000600760003373ffffffffffffffffffffffffffffffffffffffff1673ffffffffffffffffffffffffffffffffffffffff1681526020019081526020016000205490503373ffffffffffffffffffffffffffffffffffffffff166108fc829081150290604051600060405180830381858888f1935050505015801561345b573d6000803e3d6000fd5b506000600760003373ffffffffffffffffffffffffffffffffffffffff1673ffffffffffffffffffffffffffffffffffffffff16815260200190815260200160002081905550600960009054906101000a900473ffffffffffffffffffffffffffffffffffffffff1673ffffffffffffffffffffffffffffffffffffffff16639dc29fac33600960009054906101000a900473ffffffffffffffffffffffffffffffffffffffff1673ffffffffffffffffffffffffffffffffffffffff166318160ddd6040518163ffffffff1660e01b815260040160206040518083038186803b15801561354857600080fd5b505afa15801561355c573d6000803e3d6000fd5b505050506040513d602081101561357257600080fd5b81019080805190602001909291905050506040518363ffffffff1660e01b8152600401808373ffffffffffffffffffffffffffffffffffffffff1673ffffffffffffffffffffffffffffffffffffffff16815260200182815260200192505050602060405180830381600087803b1580156135ec57600080fd5b505af1158015613600573d6000803e3d6000fd5b505050506040513d602081101561361657600080fd5b8101908080519060200190929190505050507f7ea5f43cc9e27e9343d5a9d178f6780f166850ccc0795f2e8ad86580fd6aa2163382604051808373ffffffffffffffffffffffffffffffffffffffff1673ffffffffffffffffffffffffffffffffffffffff1681526020018281526020019250505060405180910390a150565b60025481565b60008082840190508381101561371a576040517f08c379a000000000000000000000000000000000000000000000000000000000815260040180806020018281038252601b8152602001807f536166654d6174683a206164646974696f6e206f766572666c6f77000000000081525060200191505060405180910390fd5b8091505092915050565b600061376683836040518060400160405280601e81526020017f536166654d6174683a207375627472616374696f6e206f766572666c6f77000081525061383e565b905092915050565b60006137b083836040518060400160405280601a81526020017f536166654d6174683a206469766973696f6e206279207a65726f0000000000008152506138fe565b905092915050565b6000808314156137cb5760009050613838565b60008284029050828482816137dc57fe5b0414613833576040517f08c379a00000000000000000000000000000000000000000000000000000000081526004018080602001828103825260218152602001806139e76021913960400191505060405180910390fd5b809150505b92915050565b60008383111582906138eb576040517f08c379a00000000000000000000000000000000000000000000000000000000081526004018080602001828103825283818151815260200191508051906020019080838360005b838110156138b0578082015181840152602081019050613895565b50505050905090810190601f1680156138dd5780820380516001836020036101000a031916815260200191505b509250505060405180910390fd5b5060008385039050809150509392505050565b600080831182906139aa576040517f08c379a00000000000000000000000000000000000000000000000000000000081526004018080602001828103825283818151815260200191508051906020019080838360005b8381101561396f578082015181840152602081019050613954565b50505050905090810190601f16801561399c5780820380516001836020036101000a031916815260200191505b509250505060405180910390fd5b5060008385816139b657fe5b04905080915050939250505056fe4e656564206e6f7420626520696e2063726f776466756e64696e6720706572696f64536166654d6174683a206d756c7469706c69636174696f6e206f766572666c6f776e656564206265796f6e642074686520636f72776466756e64696e6720706572696f646e65656420746f20626520696e20612063726f776466756e64696e6720706572696f644e6f207065726d697373696f6e20746f20696e766f6b652074686520436f6e7472616374a165627a7a72305820b81c490634f75246d378d3ef5b1ac6b8545a7a66581329b5832d63014dd0328e0029",
  "source": "pragma solidity >=0.4.22 <0.6.0;\r\n\r\nimport \"../Interface/ITradeFundPool.sol\";\r\nimport \"../apps/FutureDaoApp.sol\";\r\nimport \"../Interface/ICurve.sol\";\r\nimport \"../Interface/IERC20.sol\";\r\n\r\n/// @title eth\r\n/// @author viko\r\n/// @notice \r\n/// @dev \r\ncontract TradeFundPool is ITradeFundPool , FutureDaoApp{\r\n    /// @notice \r\n    uint256 public crowdFundPrice;\r\n\r\n    /// @notice \r\n    uint256 public crowdFundDuringTime;\r\n\r\n    /// @notice \r\n    uint256 public crowdFundMoney;\r\n\r\n    /// @notice \r\n    uint256 public crowdFundStartTime;\r\n\r\n    /// @notice \r\n    bool public during_crowdfunding = true;\r\n\r\n    /// @notice \r\n    bool public started = false;\r\n\r\n    /// @notice \r\n    uint256 public sellReserve;\r\n\r\n    /// @notice eth\r\n    mapping (address=>uint256) public crowdFundingEth;\r\n\r\n    /////////////\r\n    /// auth\r\n    /////////////\r\n    bytes32 public constant FundPool_Start = keccak256(\"FundPool_Start\");\r\n    bytes32 public constant FundPool_PreMint = keccak256(\"FundPool_PreMint\");\r\n    bytes32 public constant FundPool_SendEth = keccak256(\"FundPool_SendEth\");\r\n    bytes32 public constant FundPool_Clearing = keccak256(\"FundPool_Clearing\");\r\n    //bytes32 public constant FundPool_crowdfunding = keccak256(\"FundPool_crowdfunding\");\r\n\r\n    //////////////\r\n    //// \r\n    //////////////\r\n    /// @notice \r\n    ICurve private curve;\r\n\r\n    /// @notice \r\n    IERC20 private token;\r\n\r\n    /* events */\r\n    /// @notice \r\n    event OnBuy(\r\n        address who,\r\n        uint256 ethAmount,\r\n        uint256 fdtAmount\r\n    );\r\n\r\n    /// @notice \r\n    event OnSell(\r\n        address who,\r\n        uint256 ethAmount,\r\n        uint256 fdtAmount\r\n    );\r\n\r\n    /// @notice \r\n    event OnRevenue(\r\n        address who,\r\n        uint256 ethAmount\r\n    );\r\n\r\n    /// @notice \r\n    event OnWindingUp(\r\n        address who,\r\n        uint256 ethAmount\r\n    );\r\n\r\n    /// @notice \r\n    event OnPreMint(\r\n        address who,\r\n        uint256 fdtAmount\r\n    );\r\n\r\n    /// @notice \r\n    /// @param _duringTime _money \r\n    constructor(AppManager _appManager,IERC20 _token,uint256 _duringTime,uint256 _money,ICurve _curve) public{\r\n        require(_duringTime > 0, \"d need greater than 0\");\r\n        require(_money > 0, \"m need greater than 0\");\r\n        curve = _curve;\r\n        appManager = _appManager;\r\n        token = _token;\r\n        crowdFundDuringTime = _duringTime;\r\n        crowdFundMoney = _money;\r\n        crowdFundStartTime = now;\r\n        crowdFundPrice = curve.getCrowdFundPrice(crowdFundMoney);\r\n    }\r\n\r\n    /// @notice \r\n    modifier isStart(){\r\n        require(started == true,\"need start\");\r\n        _;\r\n    }\r\n\r\n    /// @notice \r\n    modifier isCrowdfunding(){\r\n        require(during_crowdfunding == true,\"need to be in a crowdfunding period\");\r\n        _;\r\n    }\r\n\r\n    /// @notice \r\n    modifier isNotCrowdfunding(){\r\n        require(during_crowdfunding == false,\"Need not be in crowdfunding period\");\r\n        _;\r\n    }\r\n\r\n    /////////////////\r\n    //// \r\n    ////////////////\r\n\r\n    /// @notice \r\n    function getCurveAddress() public view returns(address) {\r\n        return address(curve);\r\n    }\r\n\r\n    /// @notice \r\n    function getFdTokenAddress() public view returns(address){\r\n        return address(token);\r\n    }\r\n\r\n    /////////////////\r\n    ////\r\n    ////////////////\r\n\r\n    /// @notice \r\n    function start() public auth(FundPool_Start) {\r\n        started = true;\r\n    }\r\n\r\n    /// @notice \r\n    function preMint(address who,uint256 amount) public auth(FundPool_PreMint){\r\n        require(started == false,\"cant start\");\r\n        token.mint(who,amount);\r\n        emit OnPreMint(who,amount);\r\n    }\r\n\r\n    /// @notice \r\n    /// @dev \r\n    function windingUp() public isStart() isCrowdfunding() {\r\n        require(crowdFundingEth[msg.sender] > 0,\"need has eth\");\r\n        require(now.sub(crowdFundStartTime) > crowdFundDuringTime, \"need beyond the corwdfunding period\");\r\n        uint256 value = crowdFundingEth[msg.sender];\r\n        msg.sender.transfer(value);\r\n        crowdFundingEth[msg.sender] = 0;\r\n        //token\r\n        token.burn(msg.sender,token.totalSupply());\r\n        emit OnWindingUp(msg.sender,value);\r\n    }\r\n\r\n    /// @notice \r\n    /// @dev ,\r\n    function crowdfunding(bool needBack) public payable isStart() isCrowdfunding(){\r\n        uint256 invest = msg.value;\r\n        require(invest > 0,\"value need more than 0\");\r\n        require(now.sub(crowdFundStartTime) <= crowdFundDuringTime,\"need in the corwdfunding period\");\r\n        uint256 balance = address(this).balance;\r\n        if(balance < crowdFundMoney){//\r\n            uint256 fdtAmount = invest.div(crowdFundPrice);\r\n            token.mint(msg.sender,fdtAmount);\r\n            sellReserve = sellReserve.add(curve.getVauleToReserve(invest));\r\n            crowdFundingEth[msg.sender] = crowdFundingEth[msg.sender].add(invest);\r\n        }\r\n        else if(balance == crowdFundMoney){//\r\n            during_crowdfunding = false;\r\n            uint256 fdtAmount = invest.div(crowdFundPrice);\r\n            token.mint(msg.sender,fdtAmount);\r\n            sellReserve = sellReserve.add(curve.getVauleToReserve(invest));\r\n            crowdFundingEth[msg.sender] = crowdFundingEth[msg.sender].add(invest);\r\n        }\r\n        else if(needBack){//\r\n            during_crowdfunding = false;\r\n            uint256 needValue = invest.sub(address(this).balance.sub(crowdFundMoney));\r\n            uint256 fdtAmount = needValue.div(crowdFundPrice);\r\n            token.mint(msg.sender,fdtAmount);\r\n            //eth\r\n            msg.sender.transfer(invest.sub(needValue));\r\n            sellReserve = sellReserve.add(curve.getVauleToReserve(needValue));\r\n            crowdFundingEth[msg.sender] = crowdFundingEth[msg.sender].add(needValue);\r\n        }\r\n        else{//\r\n            during_crowdfunding = false;\r\n            uint256 needValue = invest.sub(address(this).balance.sub(crowdFundMoney));\r\n            uint256 fdtAmount = needValue.div(crowdFundPrice);\r\n            token.mint(msg.sender,fdtAmount);\r\n            uint256 fdtAmount2 = curve.getBuyAmount(invest.sub(needValue),token.totalSupply());\r\n            token.mint(msg.sender,fdtAmount2);\r\n            sellReserve = sellReserve.add(curve.getVauleToReserve(invest));\r\n            crowdFundingEth[msg.sender] = crowdFundingEth[msg.sender].add(invest);\r\n        }\r\n    }\r\n\r\n    /// @notice \r\n    function buy() public payable isStart() isNotCrowdfunding(){\r\n        require(msg.value > 0,\"value need more than 0\");\r\n        uint256 invest = msg.value;\r\n        uint256 fdtAmount = curve.getBuyAmount(invest,token.totalSupply());\r\n        token.mint(msg.sender,fdtAmount);\r\n        //\r\n        sellReserve = sellReserve.add(curve.getVauleToReserve(invest));\r\n        emit OnBuy(msg.sender,msg.value,fdtAmount);\r\n    }\r\n\r\n    /// @notice \r\n    /// @dev \r\n    /// @param _amount \r\n    function sell(uint256 _amount) public isStart() isNotCrowdfunding(){\r\n        require(_amount > 0,\"amount need more than 0\");\r\n        uint256 withdraw = curve.getSellValue(_amount,sellReserve,token.totalSupply());\r\n        sellReserve = sellReserve.sub(withdraw);\r\n        require(sellReserve >= 0,\"sellReserve need more than 0\");\r\n        token.burn(msg.sender,_amount);\r\n        msg.sender.transfer(withdraw);\r\n        emit OnSell(msg.sender,withdraw,_amount);\r\n    }\r\n\r\n    /// @notice \r\n    /// @dev reserve fdt\r\n    function revenue() public payable isStart() isNotCrowdfunding(){\r\n        require(msg.value > 0,\"value need more 0\");\r\n        uint256 invest = msg.value;\r\n        //\r\n        sellReserve = sellReserve.add(invest);\r\n        emit OnRevenue(msg.sender,invest);\r\n    }\r\n\r\n    /// @notice   \r\n    function sendEth(address payable _who,uint256 _value) public isStart() isNotCrowdfunding() auth(FundPool_SendEth){\r\n        //  \r\n        require(address(this).balance.sub(_value) > sellReserve, \"not sufficient funds\");\r\n\r\n        _who.transfer(_value);\r\n    }\r\n\r\n    /// @notice   ratio  10 ** 9\r\n    function clearing(address payable _clearingContractAddress,uint256 _ratio) public isStart() isNotCrowdfunding() auth(FundPool_Clearing){\r\n        require(_ratio<=10**9,\"ratio is wrong\");\r\n        uint256 _value_reserve = (sellReserve).mul(_ratio).div(10**9);\r\n        uint256 _value_govern = (address(this)).balance.sub(sellReserve).mul(_ratio).div(10**9);\r\n        sellReserve = sellReserve.sub(_value_reserve);\r\n        _clearingContractAddress.transfer(_value_reserve.add(_value_govern));\r\n    }\r\n\r\n    function() external payable{\r\n    }\r\n}",
  "sourcePath": "D:/_______work/FD_Contract_ETH/fd/contracts/Financing/TradeFundPool.sol",
  "compiler": {
    "name": "solc",
    "version": "0.5.8+commit.23d335f2.Emscripten.clang"
  },
  "schemaVersion": "3.0.11",
  "updatedAt": "2019-09-04T09:54:15.858Z",
  "devdoc": {
    "details": "",
    "methods": {
      "constructor": {
        "params": {
          "_duringTime": "_money "
        }
      },
      "crowdfunding(bool)": {
        "details": ","
      },
      "revenue()": {
        "details": "reserve fdt"
      },
      "sell(uint256)": {
        "params": {
          "_amount": ""
        }
      },
      "windingUp()": {
        "details": ""
      }
    }
  },
  "userdoc": {
    "methods": {
      "buy()": {
        "notice": ""
      },
      "clearing(address,uint256)": {
        "notice": "  ratio  10 ** 9"
      },
      "getCurveAddress()": {
        "notice": ""
      },
      "getFdTokenAddress()": {
        "notice": ""
      },
      "preMint(address,uint256)": {
        "notice": ""
      },
      "sendEth(address,uint256)": {
        "notice": "  "
      },
      "start()": {
        "notice": ""
      }
    }
  }
}