{
  "contractName": "TradeFundPool",
  "abi": [
    {
      "constant": true,
      "inputs": [],
      "name": "during_crowdfunding",
      "outputs": [
        {
          "name": "",
          "type": "bool"
        }
      ],
      "payable": false,
      "stateMutability": "view",
      "type": "function"
    },
    {
      "constant": true,
      "inputs": [],
      "name": "started",
      "outputs": [
        {
          "name": "",
          "type": "bool"
        }
      ],
      "payable": false,
      "stateMutability": "view",
      "type": "function"
    },
    {
      "constant": true,
      "inputs": [],
      "name": "sellReserve",
      "outputs": [
        {
          "name": "",
          "type": "uint256"
        }
      ],
      "payable": false,
      "stateMutability": "view",
      "type": "function"
    },
    {
      "constant": true,
      "inputs": [],
      "name": "crowdFundStartTime",
      "outputs": [
        {
          "name": "",
          "type": "uint256"
        }
      ],
      "payable": false,
      "stateMutability": "view",
      "type": "function"
    },
    {
      "constant": true,
      "inputs": [],
      "name": "curve",
      "outputs": [
        {
          "name": "",
          "type": "address"
        }
      ],
      "payable": false,
      "stateMutability": "view",
      "type": "function"
    },
    {
      "constant": true,
      "inputs": [],
      "name": "FundPool_Start",
      "outputs": [
        {
          "name": "",
          "type": "bytes32"
        }
      ],
      "payable": false,
      "stateMutability": "view",
      "type": "function"
    },
    {
      "constant": true,
      "inputs": [],
      "name": "crowdFundPrice",
      "outputs": [
        {
          "name": "",
          "type": "uint256"
        }
      ],
      "payable": false,
      "stateMutability": "view",
      "type": "function"
    },
    {
      "constant": true,
      "inputs": [],
      "name": "crowdFundMoney",
      "outputs": [
        {
          "name": "",
          "type": "uint256"
        }
      ],
      "payable": false,
      "stateMutability": "view",
      "type": "function"
    },
    {
      "constant": true,
      "inputs": [],
      "name": "FundPool_PreMint",
      "outputs": [
        {
          "name": "",
          "type": "bytes32"
        }
      ],
      "payable": false,
      "stateMutability": "view",
      "type": "function"
    },
    {
      "constant": true,
      "inputs": [],
      "name": "EMPTY_PARAM_HASH",
      "outputs": [
        {
          "name": "",
          "type": "bytes32"
        }
      ],
      "payable": false,
      "stateMutability": "view",
      "type": "function"
    },
    {
      "constant": true,
      "inputs": [],
      "name": "FundPool_SendEth",
      "outputs": [
        {
          "name": "",
          "type": "bytes32"
        }
      ],
      "payable": false,
      "stateMutability": "view",
      "type": "function"
    },
    {
      "constant": true,
      "inputs": [],
      "name": "appManager",
      "outputs": [
        {
          "name": "",
          "type": "address"
        }
      ],
      "payable": false,
      "stateMutability": "view",
      "type": "function"
    },
    {
      "constant": true,
      "inputs": [
        {
          "name": "",
          "type": "address"
        }
      ],
      "name": "crowdFundingEth",
      "outputs": [
        {
          "name": "",
          "type": "uint256"
        }
      ],
      "payable": false,
      "stateMutability": "view",
      "type": "function"
    },
    {
      "constant": true,
      "inputs": [],
      "name": "crowdFundDuringTime",
      "outputs": [
        {
          "name": "",
          "type": "uint256"
        }
      ],
      "payable": false,
      "stateMutability": "view",
      "type": "function"
    },
    {
      "constant": true,
      "inputs": [],
      "name": "token",
      "outputs": [
        {
          "name": "",
          "type": "address"
        }
      ],
      "payable": false,
      "stateMutability": "view",
      "type": "function"
    },
    {
      "inputs": [
        {
          "name": "_appManager",
          "type": "address"
        },
        {
          "name": "_token",
          "type": "address"
        },
        {
          "name": "_duringTime",
          "type": "uint256"
        },
        {
          "name": "_money",
          "type": "uint256"
        },
        {
          "name": "_curve",
          "type": "address"
        }
      ],
      "payable": false,
      "stateMutability": "nonpayable",
      "type": "constructor"
    },
    {
      "payable": true,
      "stateMutability": "payable",
      "type": "fallback"
    },
    {
      "anonymous": false,
      "inputs": [
        {
          "indexed": false,
          "name": "who",
          "type": "address"
        },
        {
          "indexed": false,
          "name": "ethAmount",
          "type": "uint256"
        },
        {
          "indexed": false,
          "name": "fdtAmount",
          "type": "uint256"
        }
      ],
      "name": "OnBuy",
      "type": "event"
    },
    {
      "anonymous": false,
      "inputs": [
        {
          "indexed": false,
          "name": "who",
          "type": "address"
        },
        {
          "indexed": false,
          "name": "ethAmount",
          "type": "uint256"
        },
        {
          "indexed": false,
          "name": "fdtAmount",
          "type": "uint256"
        }
      ],
      "name": "OnSell",
      "type": "event"
    },
    {
      "anonymous": false,
      "inputs": [
        {
          "indexed": false,
          "name": "who",
          "type": "address"
        },
        {
          "indexed": false,
          "name": "ethAmount",
          "type": "uint256"
        }
      ],
      "name": "OnRevenue",
      "type": "event"
    },
    {
      "anonymous": false,
      "inputs": [
        {
          "indexed": false,
          "name": "who",
          "type": "address"
        },
        {
          "indexed": false,
          "name": "ethAmount",
          "type": "uint256"
        }
      ],
      "name": "OnWindingUp",
      "type": "event"
    },
    {
      "anonymous": false,
      "inputs": [
        {
          "indexed": false,
          "name": "who",
          "type": "address"
        },
        {
          "indexed": false,
          "name": "fdtAmount",
          "type": "uint256"
        }
      ],
      "name": "OnPreMint",
      "type": "event"
    },
    {
      "constant": false,
      "inputs": [],
      "name": "start",
      "outputs": [],
      "payable": false,
      "stateMutability": "nonpayable",
      "type": "function"
    },
    {
      "constant": false,
      "inputs": [
        {
          "name": "who",
          "type": "address"
        },
        {
          "name": "amount",
          "type": "uint256"
        }
      ],
      "name": "preMint",
      "outputs": [],
      "payable": false,
      "stateMutability": "nonpayable",
      "type": "function"
    },
    {
      "constant": false,
      "inputs": [],
      "name": "windingUp",
      "outputs": [],
      "payable": false,
      "stateMutability": "nonpayable",
      "type": "function"
    },
    {
      "constant": false,
      "inputs": [
        {
          "name": "needBack",
          "type": "bool"
        }
      ],
      "name": "crowdfunding",
      "outputs": [],
      "payable": true,
      "stateMutability": "payable",
      "type": "function"
    },
    {
      "constant": false,
      "inputs": [],
      "name": "buy",
      "outputs": [],
      "payable": true,
      "stateMutability": "payable",
      "type": "function"
    },
    {
      "constant": false,
      "inputs": [
        {
          "name": "_amount",
          "type": "uint256"
        }
      ],
      "name": "sell",
      "outputs": [],
      "payable": false,
      "stateMutability": "nonpayable",
      "type": "function"
    },
    {
      "constant": false,
      "inputs": [],
      "name": "revenue",
      "outputs": [],
      "payable": true,
      "stateMutability": "payable",
      "type": "function"
    },
    {
      "constant": false,
      "inputs": [
        {
          "name": "_who",
          "type": "address"
        },
        {
          "name": "_value",
          "type": "uint256"
        }
      ],
      "name": "sendEth",
      "outputs": [],
      "payable": false,
      "stateMutability": "nonpayable",
      "type": "function"
    }
  ],
  "bytecode": "0x60806040526001600560006101000a81548160ff0219169083151502179055506000600660146101000a81548160ff0219169083151502179055503480156200004757600080fd5b5060405160a08062003767833981018060405260a08110156200006957600080fd5b8101908080519060200190929190805190602001909291908051906020019092919080519060200190929190805190602001909291905050506000831162000119576040517f08c379a00000000000000000000000000000000000000000000000000000000081526004018080602001828103825260158152602001807f64206e6565642067726561746572207468616e2030000000000000000000000081525060200191505060405180910390fd5b6000821162000190576040517f08c379a00000000000000000000000000000000000000000000000000000000081526004018080602001828103825260158152602001807f6d206e6565642067726561746572207468616e2030000000000000000000000081525060200191505060405180910390fd5b80600560016101000a81548173ffffffffffffffffffffffffffffffffffffffff021916908373ffffffffffffffffffffffffffffffffffffffff160217905550846000806101000a81548173ffffffffffffffffffffffffffffffffffffffff021916908373ffffffffffffffffffffffffffffffffffffffff16021790555083600660006101000a81548173ffffffffffffffffffffffffffffffffffffffff021916908373ffffffffffffffffffffffffffffffffffffffff160217905550826002819055508160038190555042600481905550600560019054906101000a900473ffffffffffffffffffffffffffffffffffffffff1673ffffffffffffffffffffffffffffffffffffffff166332386d9e6003546040518263ffffffff1660e01b81526004018082815260200191505060206040518083038186803b158015620002dd57600080fd5b505afa158015620002f2573d6000803e3d6000fd5b505050506040513d60208110156200030957600080fd5b8101908080519060200190929190505050600181905550505050505061343280620003356000396000f3fe6080604052600436106101405760003560e01c8063a6f2ae3a116100b6578063e51f67d01161006f578063e51f67d014610470578063ebe86c131461049b578063f480fb6b146104f2578063f894000014610557578063facd49a91461056e578063fc0c546a1461059957610140565b8063a6f2ae3a14610393578063b0e8fc751461039d578063b710ffc0146103c8578063be9a6555146103f3578063c513f66e1461040a578063e4849b321461043557610140565b806349dcbc5e1161010857806349dcbc5e146102305780634c2f050f1461028b5780636172bed4146102bb5780637165485d146102e6578063a0ce08971461033d578063a218dca01461036857610140565b806302528101146101425780631f2698ab14610171578063290c292d146101a05780633d00e61b146101fb5780633e9491a214610226575b005b34801561014e57600080fd5b506101576105f0565b604051808215151515815260200191505060405180910390f35b34801561017d57600080fd5b50610186610603565b604051808215151515815260200191505060405180910390f35b3480156101ac57600080fd5b506101f9600480360360408110156101c357600080fd5b81019080803573ffffffffffffffffffffffffffffffffffffffff16906020019092919080359060200190929190505050610616565b005b34801561020757600080fd5b506102106109bf565b6040518082815260200191505060405180910390f35b61022e6109c5565b005b34801561023c57600080fd5b506102896004803603604081101561025357600080fd5b81019080803573ffffffffffffffffffffffffffffffffffffffff16906020019092919080359060200190929190505050610bbe565b005b6102b9600480360360208110156102a157600080fd5b81019080803515159060200190929190505050610f6a565b005b3480156102c757600080fd5b506102d0611ea7565b6040518082815260200191505060405180910390f35b3480156102f257600080fd5b506102fb611ead565b604051808273ffffffffffffffffffffffffffffffffffffffff1673ffffffffffffffffffffffffffffffffffffffff16815260200191505060405180910390f35b34801561034957600080fd5b50610352611ed3565b6040518082815260200191505060405180910390f35b34801561037457600080fd5b5061037d611f0c565b6040518082815260200191505060405180910390f35b61039b611f12565b005b3480156103a957600080fd5b506103b2612402565b6040518082815260200191505060405180910390f35b3480156103d457600080fd5b506103dd612408565b6040518082815260200191505060405180910390f35b3480156103ff57600080fd5b50610408612441565b005b34801561041657600080fd5b5061041f61262a565b6040518082815260200191505060405180910390f35b34801561044157600080fd5b5061046e6004803603602081101561045857600080fd5b8101908080359060200190929190505050612651565b005b34801561047c57600080fd5b50610485612b59565b6040518082815260200191505060405180910390f35b3480156104a757600080fd5b506104b0612b92565b604051808273ffffffffffffffffffffffffffffffffffffffff1673ffffffffffffffffffffffffffffffffffffffff16815260200191505060405180910390f35b3480156104fe57600080fd5b506105416004803603602081101561051557600080fd5b81019080803573ffffffffffffffffffffffffffffffffffffffff169060200190929190505050612bb7565b6040518082815260200191505060405180910390f35b34801561056357600080fd5b5061056c612bcf565b005b34801561057a57600080fd5b506105836130ac565b6040518082815260200191505060405180910390f35b3480156105a557600080fd5b506105ae6130b2565b604051808273ffffffffffffffffffffffffffffffffffffffff1673ffffffffffffffffffffffffffffffffffffffff16815260200191505060405180910390f35b600560009054906101000a900460ff1681565b600660149054906101000a900460ff1681565b60405180807f46756e64506f6f6c5f5072654d696e7400000000000000000000000000000000815250601001905060405180910390206000809054906101000a900473ffffffffffffffffffffffffffffffffffffffff1673ffffffffffffffffffffffffffffffffffffffff16634c5f07493330847f290decd9548b62a8d60345a988386fc84ba6bc95484008f6362f93160ef3e56360001b6040518563ffffffff1660e01b8152600401808573ffffffffffffffffffffffffffffffffffffffff1673ffffffffffffffffffffffffffffffffffffffff1681526020018473ffffffffffffffffffffffffffffffffffffffff1673ffffffffffffffffffffffffffffffffffffffff16815260200183815260200182815260200194505050505060206040518083038186803b15801561075157600080fd5b505afa158015610765573d6000803e3d6000fd5b505050506040513d602081101561077b57600080fd5b81019080805190602001909291905050506107e1576040517f08c379a00000000000000000000000000000000000000000000000000000000081526004018080602001828103825260248152602001806133e36024913960400191505060405180910390fd5b60001515600660149054906101000a900460ff1615151461086a576040517f08c379a000000000000000000000000000000000000000000000000000000000815260040180806020018281038252600a8152602001807f63616e742073746172740000000000000000000000000000000000000000000081525060200191505060405180910390fd5b600660009054906101000a900473ffffffffffffffffffffffffffffffffffffffff1673ffffffffffffffffffffffffffffffffffffffff166340c10f1984846040518363ffffffff1660e01b8152600401808373ffffffffffffffffffffffffffffffffffffffff1673ffffffffffffffffffffffffffffffffffffffff16815260200182815260200192505050602060405180830381600087803b15801561091357600080fd5b505af1158015610927573d6000803e3d6000fd5b505050506040513d602081101561093d57600080fd5b8101908080519060200190929190505050507f110265d47e73c0ea495431be9532a2a79900da75f522a9e930b4156688cc9b8a8383604051808373ffffffffffffffffffffffffffffffffffffffff1673ffffffffffffffffffffffffffffffffffffffff1681526020018281526020019250505060405180910390a1505050565b60075481565b60011515600660149054906101000a900460ff16151514610a4e576040517f08c379a000000000000000000000000000000000000000000000000000000000815260040180806020018281038252600a8152602001807f6e6565642073746172740000000000000000000000000000000000000000000081525060200191505060405180910390fd5b60001515600560009054906101000a900460ff16151514610aba576040517f08c379a000000000000000000000000000000000000000000000000000000000815260040180806020018281038252602281526020018061337b6022913960400191505060405180910390fd5b60003411610b30576040517f08c379a00000000000000000000000000000000000000000000000000000000081526004018080602001828103825260118152602001807f76616c7565206e656564206d6f7265203000000000000000000000000000000081525060200191505060405180910390fd5b6000349050610b4a816007546130d890919063ffffffff16565b6007819055507ff817f8b22dc3d12c2b0537ef5fadd318e6a373be013bf57a92d2f49c4396fc9b3382604051808373ffffffffffffffffffffffffffffffffffffffff1673ffffffffffffffffffffffffffffffffffffffff1681526020018281526020019250505060405180910390a150565b60011515600660149054906101000a900460ff16151514610c47576040517f08c379a000000000000000000000000000000000000000000000000000000000815260040180806020018281038252600a8152602001807f6e6565642073746172740000000000000000000000000000000000000000000081525060200191505060405180910390fd5b60001515600560009054906101000a900460ff16151514610cb3576040517f08c379a000000000000000000000000000000000000000000000000000000000815260040180806020018281038252602281526020018061337b6022913960400191505060405180910390fd5b60405180807f46756e64506f6f6c5f53656e6445746800000000000000000000000000000000815250601001905060405180910390206000809054906101000a900473ffffffffffffffffffffffffffffffffffffffff1673ffffffffffffffffffffffffffffffffffffffff16634c5f07493330847f290decd9548b62a8d60345a988386fc84ba6bc95484008f6362f93160ef3e56360001b6040518563ffffffff1660e01b8152600401808573ffffffffffffffffffffffffffffffffffffffff1673ffffffffffffffffffffffffffffffffffffffff1681526020018473ffffffffffffffffffffffffffffffffffffffff1673ffffffffffffffffffffffffffffffffffffffff16815260200183815260200182815260200194505050505060206040518083038186803b158015610dee57600080fd5b505afa158015610e02573d6000803e3d6000fd5b505050506040513d6020811015610e1857600080fd5b8101908080519060200190929190505050610e7e576040517f08c379a00000000000000000000000000000000000000000000000000000000081526004018080602001828103825260248152602001806133e36024913960400191505060405180910390fd5b600754610eab833073ffffffffffffffffffffffffffffffffffffffff163161316090919063ffffffff16565b11610f1e576040517f08c379a00000000000000000000000000000000000000000000000000000000081526004018080602001828103825260148152602001807f6e6f742073756666696369656e742066756e647300000000000000000000000081525060200191505060405180910390fd5b8273ffffffffffffffffffffffffffffffffffffffff166108fc839081150290604051600060405180830381858888f19350505050158015610f64573d6000803e3d6000fd5b50505050565b60011515600660149054906101000a900460ff16151514610ff3576040517f08c379a000000000000000000000000000000000000000000000000000000000815260040180806020018281038252600a8152602001807f6e6565642073746172740000000000000000000000000000000000000000000081525060200191505060405180910390fd5b60011515600560009054906101000a900460ff1615151461105f576040517f08c379a00000000000000000000000000000000000000000000000000000000081526004018080602001828103825260238152602001806133c06023913960400191505060405180910390fd5b6000349050600081116110da576040517f08c379a00000000000000000000000000000000000000000000000000000000081526004018080602001828103825260168152602001807f76616c7565206e656564206d6f7265207468616e20300000000000000000000081525060200191505060405180910390fd5b6002546110f26004544261316090919063ffffffff16565b1115611166576040517f08c379a000000000000000000000000000000000000000000000000000000000815260040180806020018281038252601f8152602001807f6e65656420696e2074686520636f72776466756e64696e6720706572696f640081525060200191505060405180910390fd5b60003073ffffffffffffffffffffffffffffffffffffffff163190506003548110156113ed5760006111a3600154846131aa90919063ffffffff16565b9050600660009054906101000a900473ffffffffffffffffffffffffffffffffffffffff1673ffffffffffffffffffffffffffffffffffffffff166340c10f1933836040518363ffffffff1660e01b8152600401808373ffffffffffffffffffffffffffffffffffffffff1673ffffffffffffffffffffffffffffffffffffffff16815260200182815260200192505050602060405180830381600087803b15801561124e57600080fd5b505af1158015611262573d6000803e3d6000fd5b505050506040513d602081101561127857600080fd5b81019080805190602001909291905050505061134c600560019054906101000a900473ffffffffffffffffffffffffffffffffffffffff1673ffffffffffffffffffffffffffffffffffffffff16638bcc9537856040518263ffffffff1660e01b81526004018082815260200191505060206040518083038186803b15801561130057600080fd5b505afa158015611314573d6000803e3d6000fd5b505050506040513d602081101561132a57600080fd5b81019080805190602001909291905050506007546130d890919063ffffffff16565b6007819055506113a483600860003373ffffffffffffffffffffffffffffffffffffffff1673ffffffffffffffffffffffffffffffffffffffff168152602001908152602001600020546130d890919063ffffffff16565b600860003373ffffffffffffffffffffffffffffffffffffffff1673ffffffffffffffffffffffffffffffffffffffff1681526020019081526020016000208190555050611ea2565b600354811415611673576000600560006101000a81548160ff0219169083151502179055506000611429600154846131aa90919063ffffffff16565b9050600660009054906101000a900473ffffffffffffffffffffffffffffffffffffffff1673ffffffffffffffffffffffffffffffffffffffff166340c10f1933836040518363ffffffff1660e01b8152600401808373ffffffffffffffffffffffffffffffffffffffff1673ffffffffffffffffffffffffffffffffffffffff16815260200182815260200192505050602060405180830381600087803b1580156114d457600080fd5b505af11580156114e8573d6000803e3d6000fd5b505050506040513d60208110156114fe57600080fd5b8101908080519060200190929190505050506115d2600560019054906101000a900473ffffffffffffffffffffffffffffffffffffffff1673ffffffffffffffffffffffffffffffffffffffff16638bcc9537856040518263ffffffff1660e01b81526004018082815260200191505060206040518083038186803b15801561158657600080fd5b505afa15801561159a573d6000803e3d6000fd5b505050506040513d60208110156115b057600080fd5b81019080805190602001909291905050506007546130d890919063ffffffff16565b60078190555061162a83600860003373ffffffffffffffffffffffffffffffffffffffff1673ffffffffffffffffffffffffffffffffffffffff168152602001908152602001600020546130d890919063ffffffff16565b600860003373ffffffffffffffffffffffffffffffffffffffff1673ffffffffffffffffffffffffffffffffffffffff1681526020019081526020016000208190555050611ea1565b8215611991576000600560006101000a81548160ff02191690831515021790555060006116d46116c56003543073ffffffffffffffffffffffffffffffffffffffff163161316090919063ffffffff16565b8461316090919063ffffffff16565b905060006116ed600154836131aa90919063ffffffff16565b9050600660009054906101000a900473ffffffffffffffffffffffffffffffffffffffff1673ffffffffffffffffffffffffffffffffffffffff166340c10f1933836040518363ffffffff1660e01b8152600401808373ffffffffffffffffffffffffffffffffffffffff1673ffffffffffffffffffffffffffffffffffffffff16815260200182815260200192505050602060405180830381600087803b15801561179857600080fd5b505af11580156117ac573d6000803e3d6000fd5b505050506040513d60208110156117c257600080fd5b8101908080519060200190929190505050503373ffffffffffffffffffffffffffffffffffffffff166108fc611801848761316090919063ffffffff16565b9081150290604051600060405180830381858888f1935050505015801561182c573d6000803e3d6000fd5b506118ef600560019054906101000a900473ffffffffffffffffffffffffffffffffffffffff1673ffffffffffffffffffffffffffffffffffffffff16638bcc9537846040518263ffffffff1660e01b81526004018082815260200191505060206040518083038186803b1580156118a357600080fd5b505afa1580156118b7573d6000803e3d6000fd5b505050506040513d60208110156118cd57600080fd5b81019080805190602001909291905050506007546130d890919063ffffffff16565b60078190555061194782600860003373ffffffffffffffffffffffffffffffffffffffff1673ffffffffffffffffffffffffffffffffffffffff168152602001908152602001600020546130d890919063ffffffff16565b600860003373ffffffffffffffffffffffffffffffffffffffff1673ffffffffffffffffffffffffffffffffffffffff168152602001908152602001600020819055505050611ea0565b6000600560006101000a81548160ff02191690831515021790555060006119ec6119dd6003543073ffffffffffffffffffffffffffffffffffffffff163161316090919063ffffffff16565b8461316090919063ffffffff16565b90506000611a05600154836131aa90919063ffffffff16565b9050600660009054906101000a900473ffffffffffffffffffffffffffffffffffffffff1673ffffffffffffffffffffffffffffffffffffffff166340c10f1933836040518363ffffffff1660e01b8152600401808373ffffffffffffffffffffffffffffffffffffffff1673ffffffffffffffffffffffffffffffffffffffff16815260200182815260200192505050602060405180830381600087803b158015611ab057600080fd5b505af1158015611ac4573d6000803e3d6000fd5b505050506040513d6020811015611ada57600080fd5b8101908080519060200190929190505050506000600560019054906101000a900473ffffffffffffffffffffffffffffffffffffffff1673ffffffffffffffffffffffffffffffffffffffff166356d68a2d611b3f858861316090919063ffffffff16565b600660009054906101000a900473ffffffffffffffffffffffffffffffffffffffff1673ffffffffffffffffffffffffffffffffffffffff166318160ddd6040518163ffffffff1660e01b815260040160206040518083038186803b158015611ba757600080fd5b505afa158015611bbb573d6000803e3d6000fd5b505050506040513d6020811015611bd157600080fd5b81019080805190602001909291905050506040518363ffffffff1660e01b8152600401808381526020018281526020019250505060206040518083038186803b158015611c1d57600080fd5b505afa158015611c31573d6000803e3d6000fd5b505050506040513d6020811015611c4757600080fd5b81019080805190602001909291905050509050600660009054906101000a900473ffffffffffffffffffffffffffffffffffffffff1673ffffffffffffffffffffffffffffffffffffffff166340c10f1933836040518363ffffffff1660e01b8152600401808373ffffffffffffffffffffffffffffffffffffffff1673ffffffffffffffffffffffffffffffffffffffff16815260200182815260200192505050602060405180830381600087803b158015611d0357600080fd5b505af1158015611d17573d6000803e3d6000fd5b505050506040513d6020811015611d2d57600080fd5b810190808051906020019092919050505050611e01600560019054906101000a900473ffffffffffffffffffffffffffffffffffffffff1673ffffffffffffffffffffffffffffffffffffffff16638bcc9537876040518263ffffffff1660e01b81526004018082815260200191505060206040518083038186803b158015611db557600080fd5b505afa158015611dc9573d6000803e3d6000fd5b505050506040513d6020811015611ddf57600080fd5b81019080805190602001909291905050506007546130d890919063ffffffff16565b600781905550611e5985600860003373ffffffffffffffffffffffffffffffffffffffff1673ffffffffffffffffffffffffffffffffffffffff168152602001908152602001600020546130d890919063ffffffff16565b600860003373ffffffffffffffffffffffffffffffffffffffff1673ffffffffffffffffffffffffffffffffffffffff168152602001908152602001600020819055505050505b5b5b505050565b60045481565b600560019054906101000a900473ffffffffffffffffffffffffffffffffffffffff1681565b60405180807f46756e64506f6f6c5f5374617274000000000000000000000000000000000000815250600e019050604051809103902081565b60015481565b60011515600660149054906101000a900460ff16151514611f9b576040517f08c379a000000000000000000000000000000000000000000000000000000000815260040180806020018281038252600a8152602001807f6e6565642073746172740000000000000000000000000000000000000000000081525060200191505060405180910390fd5b60001515600560009054906101000a900460ff16151514612007576040517f08c379a000000000000000000000000000000000000000000000000000000000815260040180806020018281038252602281526020018061337b6022913960400191505060405180910390fd5b6000341161207d576040517f08c379a00000000000000000000000000000000000000000000000000000000081526004018080602001828103825260168152602001807f76616c7565206e656564206d6f7265207468616e20300000000000000000000081525060200191505060405180910390fd5b60003490506000600560019054906101000a900473ffffffffffffffffffffffffffffffffffffffff1673ffffffffffffffffffffffffffffffffffffffff166356d68a2d83600660009054906101000a900473ffffffffffffffffffffffffffffffffffffffff1673ffffffffffffffffffffffffffffffffffffffff166318160ddd6040518163ffffffff1660e01b815260040160206040518083038186803b15801561212b57600080fd5b505afa15801561213f573d6000803e3d6000fd5b505050506040513d602081101561215557600080fd5b81019080805190602001909291905050506040518363ffffffff1660e01b8152600401808381526020018281526020019250505060206040518083038186803b1580156121a157600080fd5b505afa1580156121b5573d6000803e3d6000fd5b505050506040513d60208110156121cb57600080fd5b81019080805190602001909291905050509050600660009054906101000a900473ffffffffffffffffffffffffffffffffffffffff1673ffffffffffffffffffffffffffffffffffffffff166340c10f1933836040518363ffffffff1660e01b8152600401808373ffffffffffffffffffffffffffffffffffffffff1673ffffffffffffffffffffffffffffffffffffffff16815260200182815260200192505050602060405180830381600087803b15801561228757600080fd5b505af115801561229b573d6000803e3d6000fd5b505050506040513d60208110156122b157600080fd5b810190808051906020019092919050505050612385600560019054906101000a900473ffffffffffffffffffffffffffffffffffffffff1673ffffffffffffffffffffffffffffffffffffffff16638bcc9537846040518263ffffffff1660e01b81526004018082815260200191505060206040518083038186803b15801561233957600080fd5b505afa15801561234d573d6000803e3d6000fd5b505050506040513d602081101561236357600080fd5b81019080805190602001909291905050506007546130d890919063ffffffff16565b6007819055507fe1ec7176d5b997461b6dfac832d3dca02a6487756f5aa2bcb6d1eaeab56ce66c333483604051808473ffffffffffffffffffffffffffffffffffffffff1673ffffffffffffffffffffffffffffffffffffffff168152602001838152602001828152602001935050505060405180910390a15050565b60035481565b60405180807f46756e64506f6f6c5f5072654d696e74000000000000000000000000000000008152506010019050604051809103902081565b60405180807f46756e64506f6f6c5f5374617274000000000000000000000000000000000000815250600e01905060405180910390206000809054906101000a900473ffffffffffffffffffffffffffffffffffffffff1673ffffffffffffffffffffffffffffffffffffffff16634c5f07493330847f290decd9548b62a8d60345a988386fc84ba6bc95484008f6362f93160ef3e56360001b6040518563ffffffff1660e01b8152600401808573ffffffffffffffffffffffffffffffffffffffff1673ffffffffffffffffffffffffffffffffffffffff1681526020018473ffffffffffffffffffffffffffffffffffffffff1673ffffffffffffffffffffffffffffffffffffffff16815260200183815260200182815260200194505050505060206040518083038186803b15801561257c57600080fd5b505afa158015612590573d6000803e3d6000fd5b505050506040513d60208110156125a657600080fd5b810190808051906020019092919050505061260c576040517f08c379a00000000000000000000000000000000000000000000000000000000081526004018080602001828103825260248152602001806133e36024913960400191505060405180910390fd5b6001600660146101000a81548160ff02191690831515021790555050565b7f290decd9548b62a8d60345a988386fc84ba6bc95484008f6362f93160ef3e56360001b81565b60011515600660149054906101000a900460ff161515146126da576040517f08c379a000000000000000000000000000000000000000000000000000000000815260040180806020018281038252600a8152602001807f6e6565642073746172740000000000000000000000000000000000000000000081525060200191505060405180910390fd5b60001515600560009054906101000a900460ff16151514612746576040517f08c379a000000000000000000000000000000000000000000000000000000000815260040180806020018281038252602281526020018061337b6022913960400191505060405180910390fd5b600081116127bc576040517f08c379a00000000000000000000000000000000000000000000000000000000081526004018080602001828103825260178152602001807f616d6f756e74206e656564206d6f7265207468616e203000000000000000000081525060200191505060405180910390fd5b6000600560019054906101000a900473ffffffffffffffffffffffffffffffffffffffff1673ffffffffffffffffffffffffffffffffffffffff1663f81cb5ae83600754600660009054906101000a900473ffffffffffffffffffffffffffffffffffffffff1673ffffffffffffffffffffffffffffffffffffffff166318160ddd6040518163ffffffff1660e01b815260040160206040518083038186803b15801561286857600080fd5b505afa15801561287c573d6000803e3d6000fd5b505050506040513d602081101561289257600080fd5b81019080805190602001909291905050506040518463ffffffff1660e01b815260040180848152602001838152602001828152602001935050505060206040518083038186803b1580156128e557600080fd5b505afa1580156128f9573d6000803e3d6000fd5b505050506040513d602081101561290f57600080fd5b810190808051906020019092919050505090506129378160075461316090919063ffffffff16565b600781905550600060075410156129b6576040517f08c379a000000000000000000000000000000000000000000000000000000000815260040180806020018281038252601c8152602001807f73656c6c52657365727665206e656564206d6f7265207468616e20300000000081525060200191505060405180910390fd5b600660009054906101000a900473ffffffffffffffffffffffffffffffffffffffff1673ffffffffffffffffffffffffffffffffffffffff16639dc29fac33846040518363ffffffff1660e01b8152600401808373ffffffffffffffffffffffffffffffffffffffff1673ffffffffffffffffffffffffffffffffffffffff16815260200182815260200192505050602060405180830381600087803b158015612a5f57600080fd5b505af1158015612a73573d6000803e3d6000fd5b505050506040513d6020811015612a8957600080fd5b8101908080519060200190929190505050503373ffffffffffffffffffffffffffffffffffffffff166108fc829081150290604051600060405180830381858888f19350505050158015612ae1573d6000803e3d6000fd5b507f26787c8671412319a484ce56f5606f739f3d415e9c4930cd0603b1c1badc2042338284604051808473ffffffffffffffffffffffffffffffffffffffff1673ffffffffffffffffffffffffffffffffffffffff168152602001838152602001828152602001935050505060405180910390a15050565b60405180807f46756e64506f6f6c5f53656e64457468000000000000000000000000000000008152506010019050604051809103902081565b6000809054906101000a900473ffffffffffffffffffffffffffffffffffffffff1681565b60086020528060005260406000206000915090505481565b60011515600660149054906101000a900460ff16151514612c58576040517f08c379a000000000000000000000000000000000000000000000000000000000815260040180806020018281038252600a8152602001807f6e6565642073746172740000000000000000000000000000000000000000000081525060200191505060405180910390fd5b60011515600560009054906101000a900460ff16151514612cc4576040517f08c379a00000000000000000000000000000000000000000000000000000000081526004018080602001828103825260238152602001806133c06023913960400191505060405180910390fd5b6000600860003373ffffffffffffffffffffffffffffffffffffffff1673ffffffffffffffffffffffffffffffffffffffff1681526020019081526020016000205411612d79576040517f08c379a000000000000000000000000000000000000000000000000000000000815260040180806020018281038252600c8152602001807f6e6565642068617320657468000000000000000000000000000000000000000081525060200191505060405180910390fd5b600254612d916004544261316090919063ffffffff16565b11612de7576040517f08c379a000000000000000000000000000000000000000000000000000000000815260040180806020018281038252602381526020018061339d6023913960400191505060405180910390fd5b6000600860003373ffffffffffffffffffffffffffffffffffffffff1673ffffffffffffffffffffffffffffffffffffffff1681526020019081526020016000205490503373ffffffffffffffffffffffffffffffffffffffff166108fc829081150290604051600060405180830381858888f19350505050158015612e71573d6000803e3d6000fd5b506000600860003373ffffffffffffffffffffffffffffffffffffffff1673ffffffffffffffffffffffffffffffffffffffff16815260200190815260200160002081905550600660009054906101000a900473ffffffffffffffffffffffffffffffffffffffff1673ffffffffffffffffffffffffffffffffffffffff16639dc29fac33600660009054906101000a900473ffffffffffffffffffffffffffffffffffffffff1673ffffffffffffffffffffffffffffffffffffffff166318160ddd6040518163ffffffff1660e01b815260040160206040518083038186803b158015612f5e57600080fd5b505afa158015612f72573d6000803e3d6000fd5b505050506040513d6020811015612f8857600080fd5b81019080805190602001909291905050506040518363ffffffff1660e01b8152600401808373ffffffffffffffffffffffffffffffffffffffff1673ffffffffffffffffffffffffffffffffffffffff16815260200182815260200192505050602060405180830381600087803b15801561300257600080fd5b505af1158015613016573d6000803e3d6000fd5b505050506040513d602081101561302c57600080fd5b8101908080519060200190929190505050507f7ea5f43cc9e27e9343d5a9d178f6780f166850ccc0795f2e8ad86580fd6aa2163382604051808373ffffffffffffffffffffffffffffffffffffffff1673ffffffffffffffffffffffffffffffffffffffff1681526020018281526020019250505060405180910390a150565b60025481565b600660009054906101000a900473ffffffffffffffffffffffffffffffffffffffff1681565b600080828401905083811015613156576040517f08c379a000000000000000000000000000000000000000000000000000000000815260040180806020018281038252601b8152602001807f536166654d6174683a206164646974696f6e206f766572666c6f77000000000081525060200191505060405180910390fd5b8091505092915050565b60006131a283836040518060400160405280601e81526020017f536166654d6174683a207375627472616374696f6e206f766572666c6f7700008152506131f4565b905092915050565b60006131ec83836040518060400160405280601a81526020017f536166654d6174683a206469766973696f6e206279207a65726f0000000000008152506132b4565b905092915050565b60008383111582906132a1576040517f08c379a00000000000000000000000000000000000000000000000000000000081526004018080602001828103825283818151815260200191508051906020019080838360005b8381101561326657808201518184015260208101905061324b565b50505050905090810190601f1680156132935780820380516001836020036101000a031916815260200191505b509250505060405180910390fd5b5060008385039050809150509392505050565b60008083118290613360576040517f08c379a00000000000000000000000000000000000000000000000000000000081526004018080602001828103825283818151815260200191508051906020019080838360005b8381101561332557808201518184015260208101905061330a565b50505050905090810190601f1680156133525780820380516001836020036101000a031916815260200191505b509250505060405180910390fd5b50600083858161336c57fe5b04905080915050939250505056fe4e656564206e6f7420626520696e2063726f776466756e64696e6720706572696f646e656564206265796f6e642074686520636f72776466756e64696e6720706572696f646e65656420746f20626520696e20612063726f776466756e64696e6720706572696f644e6f207065726d697373696f6e20746f20696e766f6b652074686520636f6e7472616374a165627a7a72305820b1b11d1a53896d1711e7d19e7cba8bf98f44cab62ef4dd5547f801352f74e9230029",
  "source": "pragma solidity >=0.4.22 <0.6.0;\r\n\r\nimport \"../Interface/ITradeFundPool.sol\";\r\nimport \"../apps/FutureDaoApp.sol\";\r\nimport \"../Interface/ICurve.sol\";\r\nimport \"../Interface/IERC20.sol\";\r\n\r\n/// @title eth\r\n/// @author viko\r\n/// @notice \r\n/// @dev \r\ncontract TradeFundPool is ITradeFundPool , FutureDaoApp{\r\n    /// @notice \r\n    uint256 public crowdFundPrice;\r\n\r\n    /// @notice \r\n    uint256 public crowdFundDuringTime;\r\n\r\n    /// @notice \r\n    uint256 public crowdFundMoney;\r\n\r\n    /// @notice \r\n    uint256 public crowdFundStartTime;\r\n\r\n    /// @notice \r\n    bool public during_crowdfunding = true;\r\n\r\n    /// @notice \r\n    ICurve public curve;\r\n\r\n    /// @notice \r\n    IERC20 public token;\r\n\r\n    /// @notice \r\n    bool public started = false;\r\n\r\n    /// @notice \r\n    uint256 public sellReserve;\r\n\r\n    /// @notice eth\r\n    mapping (address=>uint256) public crowdFundingEth;\r\n\r\n    /////////////\r\n    /// auth\r\n    /////////////\r\n    bytes32 public constant FundPool_Start = keccak256(\"FundPool_Start\");\r\n    bytes32 public constant FundPool_PreMint = keccak256(\"FundPool_PreMint\");\r\n    bytes32 public constant FundPool_SendEth = keccak256(\"FundPool_SendEth\");\r\n\r\n    /* events */\r\n    /// @notice \r\n    event OnBuy(\r\n        address who,\r\n        uint256 ethAmount,\r\n        uint256 fdtAmount\r\n    );\r\n\r\n    /// @notice \r\n    event OnSell(\r\n        address who,\r\n        uint256 ethAmount,\r\n        uint256 fdtAmount\r\n    );\r\n\r\n    /// @notice \r\n    event OnRevenue(\r\n        address who,\r\n        uint256 ethAmount\r\n    );\r\n\r\n    /// @notice \r\n    event OnWindingUp(\r\n        address who,\r\n        uint256 ethAmount\r\n    );\r\n\r\n    /// @notice \r\n    event OnPreMint(\r\n        address who,\r\n        uint256 fdtAmount\r\n    );\r\n\r\n    /// @notice \r\n    /// @param _duringTime _money \r\n    constructor(AppManager _appManager,IERC20 _token,uint256 _duringTime,uint256 _money,ICurve _curve) public{\r\n        require(_duringTime > 0, \"d need greater than 0\");\r\n        require(_money > 0, \"m need greater than 0\");\r\n        curve = _curve;\r\n        appManager = _appManager;\r\n        token = _token;\r\n        crowdFundDuringTime = _duringTime;\r\n        crowdFundMoney = _money;\r\n        crowdFundStartTime = now;\r\n        crowdFundPrice = curve.getCrowdFundPrice(crowdFundMoney);\r\n    }\r\n\r\n    /// @notice \r\n    modifier isStart(){\r\n        require(started == true,\"need start\");\r\n        _;\r\n    }\r\n\r\n    /// @notice \r\n    modifier isCrowdfunding(){\r\n        require(during_crowdfunding == true,\"need to be in a crowdfunding period\");\r\n        _;\r\n    }\r\n\r\n    /// @notice \r\n    modifier isNotCrowdfunding(){\r\n        require(during_crowdfunding == false,\"Need not be in crowdfunding period\");\r\n        _;\r\n    }\r\n\r\n    /// @notice \r\n    function start() public auth(FundPool_Start) {\r\n        started = true;\r\n    }\r\n\r\n    /// @notice \r\n    function preMint(address who,uint256 amount) public auth(FundPool_PreMint) {\r\n        require(started == false,\"cant start\");\r\n        token.mint(who,amount);\r\n        emit OnPreMint(who,amount);\r\n    }\r\n\r\n    /// @notice \r\n    /// @dev \r\n    function windingUp() public isStart() isCrowdfunding() {\r\n        require(crowdFundingEth[msg.sender] > 0,\"need has eth\");\r\n        require(now.sub(crowdFundStartTime) > crowdFundDuringTime, \"need beyond the corwdfunding period\");\r\n        uint256 value = crowdFundingEth[msg.sender];\r\n        msg.sender.transfer(value);\r\n        crowdFundingEth[msg.sender] = 0;\r\n        //token\r\n        token.burn(msg.sender,token.totalSupply());\r\n        emit OnWindingUp(msg.sender,value);\r\n    }\r\n\r\n    /// @notice \r\n    /// @dev ,\r\n    function crowdfunding(bool needBack) public payable isStart() isCrowdfunding(){\r\n        uint256 invest = msg.value;\r\n        require(invest > 0,\"value need more than 0\");\r\n        require(now.sub(crowdFundStartTime) <= crowdFundDuringTime,\"need in the corwdfunding period\");\r\n        uint256 balance = address(this).balance;\r\n        if(balance < crowdFundMoney){//\r\n            uint256 fdtAmount = invest.div(crowdFundPrice);\r\n            token.mint(msg.sender,fdtAmount);\r\n            sellReserve = sellReserve.add(curve.getVauleToReserve(invest));\r\n            crowdFundingEth[msg.sender] = crowdFundingEth[msg.sender].add(invest);\r\n        }\r\n        else if(balance == crowdFundMoney){//\r\n            during_crowdfunding = false;\r\n            uint256 fdtAmount = invest.div(crowdFundPrice);\r\n            token.mint(msg.sender,fdtAmount);\r\n            sellReserve = sellReserve.add(curve.getVauleToReserve(invest));\r\n            crowdFundingEth[msg.sender] = crowdFundingEth[msg.sender].add(invest);\r\n        }\r\n        else if(needBack){//\r\n            during_crowdfunding = false;\r\n            uint256 needValue = invest.sub(address(this).balance.sub(crowdFundMoney));\r\n            uint256 fdtAmount = needValue.div(crowdFundPrice);\r\n            token.mint(msg.sender,fdtAmount);\r\n            //eth\r\n            msg.sender.transfer(invest.sub(needValue));\r\n            sellReserve = sellReserve.add(curve.getVauleToReserve(needValue));\r\n            crowdFundingEth[msg.sender] = crowdFundingEth[msg.sender].add(needValue);\r\n        }\r\n        else{//\r\n            during_crowdfunding = false;\r\n            uint256 needValue = invest.sub(address(this).balance.sub(crowdFundMoney)); //crowdFundMoney - (sellReserve + totalSendToVote) / 1000;\r\n            uint256 fdtAmount = needValue.div(crowdFundPrice);\r\n            token.mint(msg.sender,fdtAmount);\r\n            uint256 fdtAmount2 = curve.getBuyAmount(invest.sub(needValue),token.totalSupply());\r\n            token.mint(msg.sender,fdtAmount2);\r\n            sellReserve = sellReserve.add(curve.getVauleToReserve(invest));\r\n            crowdFundingEth[msg.sender] = crowdFundingEth[msg.sender].add(invest);\r\n        }\r\n    }\r\n\r\n    /// @notice \r\n    function buy() public payable isStart() isNotCrowdfunding(){\r\n        require(msg.value > 0,\"value need more than 0\");\r\n        uint256 invest = msg.value;\r\n        uint256 fdtAmount = curve.getBuyAmount(invest,token.totalSupply());\r\n        token.mint(msg.sender,fdtAmount);\r\n        //\r\n        sellReserve = sellReserve.add(curve.getVauleToReserve(invest));\r\n        emit OnBuy(msg.sender,msg.value,fdtAmount);\r\n    }\r\n\r\n    /// @notice \r\n    /// @dev \r\n    /// @param _amount \r\n    function sell(uint256 _amount) public isStart() isNotCrowdfunding(){\r\n        require(_amount > 0,\"amount need more than 0\");\r\n        uint256 withdraw = curve.getSellValue(_amount,sellReserve,token.totalSupply());\r\n        sellReserve = sellReserve.sub(withdraw);\r\n        require(sellReserve >= 0,\"sellReserve need more than 0\");\r\n        token.burn(msg.sender,_amount);\r\n        msg.sender.transfer(withdraw);\r\n        emit OnSell(msg.sender,withdraw,_amount);\r\n    }\r\n\r\n    /// @notice \r\n    /// @dev reserve fdt\r\n    function revenue() public payable isStart() isNotCrowdfunding(){\r\n        require(msg.value > 0,\"value need more 0\");\r\n        uint256 invest = msg.value;\r\n        //\r\n        sellReserve = sellReserve.add(invest);\r\n        emit OnRevenue(msg.sender,invest);\r\n    }\r\n\r\n    /// @notice   \r\n    function sendEth(address payable _who,uint256 _value) public isStart() isNotCrowdfunding() auth(FundPool_SendEth){\r\n        //  \r\n        require(address(this).balance.sub(_value) > sellReserve, \"not sufficient funds\");\r\n\r\n        _who.transfer(_value);\r\n    }\r\n\r\n    function() external payable{\r\n    }\r\n}",
  "sourcePath": "D:/_______work/FD_Contract_ETH/fd/contracts/Financing/TradeFundPool.sol",
  "compiler": {
    "name": "solc",
    "version": "0.5.8+commit.23d335f2.Emscripten.clang"
  },
  "schemaVersion": "3.0.11",
  "updatedAt": "2019-08-27T10:27:32.992Z",
  "devdoc": {
    "details": "",
    "methods": {
      "constructor": {
        "params": {
          "_duringTime": "_money "
        }
      },
      "crowdfunding(bool)": {
        "details": ","
      },
      "revenue()": {
        "details": "reserve fdt"
      },
      "sell(uint256)": {
        "params": {
          "_amount": ""
        }
      },
      "windingUp()": {
        "details": ""
      }
    }
  },
  "userdoc": {
    "methods": {
      "buy()": {
        "notice": ""
      },
      "preMint(address,uint256)": {
        "notice": ""
      },
      "sendEth(address,uint256)": {
        "notice": "  "
      },
      "start()": {
        "notice": ""
      }
    }
  }
}