{
  "contractName": "Vote_ApplySharesA",
  "abi": [
    {
      "constant": true,
      "inputs": [],
      "name": "assetAddress",
      "outputs": [
        {
          "name": "",
          "type": "address"
        }
      ],
      "payable": false,
      "stateMutability": "view",
      "type": "function"
    },
    {
      "constant": true,
      "inputs": [],
      "name": "Vote_ApplyFund_oneTicketStopTap",
      "outputs": [
        {
          "name": "",
          "type": "bytes32"
        }
      ],
      "payable": false,
      "stateMutability": "view",
      "type": "function"
    },
    {
      "constant": true,
      "inputs": [
        {
          "name": "approveVotes",
          "type": "uint256"
        },
        {
          "name": "refuseVotes",
          "type": "uint256"
        }
      ],
      "name": "canPass",
      "outputs": [
        {
          "name": "r",
          "type": "bool"
        },
        {
          "name": "_voteRatio_1000",
          "type": "uint256"
        },
        {
          "name": "_approveRatio_1000",
          "type": "uint256"
        }
      ],
      "payable": false,
      "stateMutability": "view",
      "type": "function"
    },
    {
      "constant": true,
      "inputs": [],
      "name": "approveRatio",
      "outputs": [
        {
          "name": "",
          "type": "uint256"
        }
      ],
      "payable": false,
      "stateMutability": "view",
      "type": "function"
    },
    {
      "constant": true,
      "inputs": [],
      "name": "voteRatio",
      "outputs": [
        {
          "name": "",
          "type": "uint256"
        }
      ],
      "payable": false,
      "stateMutability": "view",
      "type": "function"
    },
    {
      "constant": true,
      "inputs": [],
      "name": "getAppManagerAddress",
      "outputs": [
        {
          "name": "",
          "type": "address"
        }
      ],
      "payable": false,
      "stateMutability": "view",
      "type": "function"
    },
    {
      "constant": true,
      "inputs": [
        {
          "name": "_addr",
          "type": "address"
        }
      ],
      "name": "getBalanceOf",
      "outputs": [
        {
          "name": "",
          "type": "uint256"
        }
      ],
      "payable": false,
      "stateMutability": "view",
      "type": "function"
    },
    {
      "constant": true,
      "inputs": [],
      "name": "proposalFee",
      "outputs": [
        {
          "name": "",
          "type": "uint256"
        }
      ],
      "payable": false,
      "stateMutability": "view",
      "type": "function"
    },
    {
      "constant": true,
      "inputs": [],
      "name": "getTotalSupply",
      "outputs": [
        {
          "name": "",
          "type": "uint256"
        }
      ],
      "payable": false,
      "stateMutability": "view",
      "type": "function"
    },
    {
      "constant": true,
      "inputs": [],
      "name": "EMPTY_PARAM_HASH",
      "outputs": [
        {
          "name": "",
          "type": "bytes32"
        }
      ],
      "payable": false,
      "stateMutability": "view",
      "type": "function"
    },
    {
      "constant": true,
      "inputs": [],
      "name": "Vote_ApplyFund_OneTicketRefuseProposal",
      "outputs": [
        {
          "name": "",
          "type": "bytes32"
        }
      ],
      "payable": false,
      "stateMutability": "view",
      "type": "function"
    },
    {
      "constant": true,
      "inputs": [],
      "name": "deposit",
      "outputs": [
        {
          "name": "",
          "type": "uint256"
        }
      ],
      "payable": false,
      "stateMutability": "view",
      "type": "function"
    },
    {
      "constant": true,
      "inputs": [],
      "name": "voteRatio_1000",
      "outputs": [
        {
          "name": "",
          "type": "uint256"
        }
      ],
      "payable": false,
      "stateMutability": "view",
      "type": "function"
    },
    {
      "constant": true,
      "inputs": [
        {
          "name": "_addr",
          "type": "address"
        }
      ],
      "name": "balance",
      "outputs": [
        {
          "name": "",
          "type": "uint256"
        }
      ],
      "payable": false,
      "stateMutability": "view",
      "type": "function"
    },
    {
      "constant": true,
      "inputs": [],
      "name": "approveRatio_1000",
      "outputs": [
        {
          "name": "",
          "type": "uint256"
        }
      ],
      "payable": false,
      "stateMutability": "view",
      "type": "function"
    },
    {
      "constant": true,
      "inputs": [],
      "name": "appManager",
      "outputs": [
        {
          "name": "",
          "type": "address"
        }
      ],
      "payable": false,
      "stateMutability": "view",
      "type": "function"
    },
    {
      "constant": true,
      "inputs": [],
      "name": "sharesAddress",
      "outputs": [
        {
          "name": "",
          "type": "address"
        }
      ],
      "payable": false,
      "stateMutability": "view",
      "type": "function"
    },
    {
      "inputs": [
        {
          "name": "_appManager",
          "type": "address"
        },
        {
          "name": "_governAddress",
          "type": "address"
        },
        {
          "name": "_sharesAddress",
          "type": "address"
        },
        {
          "name": "_voteRatio",
          "type": "uint256"
        },
        {
          "name": "_approveRatio",
          "type": "uint256"
        }
      ],
      "payable": false,
      "stateMutability": "nonpayable",
      "type": "constructor"
    },
    {
      "payable": true,
      "stateMutability": "payable",
      "type": "fallback"
    },
    {
      "anonymous": false,
      "inputs": [
        {
          "indexed": false,
          "name": "index",
          "type": "uint256"
        },
        {
          "indexed": false,
          "name": "proposaler",
          "type": "address"
        },
        {
          "indexed": false,
          "name": "sharesAmount",
          "type": "uint256"
        },
        {
          "indexed": false,
          "name": "assetValue",
          "type": "uint256"
        },
        {
          "indexed": false,
          "name": "votingStartTime",
          "type": "uint256"
        },
        {
          "indexed": false,
          "name": "detail",
          "type": "string"
        }
      ],
      "name": "OnApplyProposal",
      "type": "event"
    },
    {
      "anonymous": false,
      "inputs": [
        {
          "indexed": false,
          "name": "who",
          "type": "address"
        },
        {
          "indexed": false,
          "name": "index",
          "type": "uint256"
        },
        {
          "indexed": false,
          "name": "voteResult",
          "type": "uint8"
        },
        {
          "indexed": false,
          "name": "shares",
          "type": "uint256"
        }
      ],
      "name": "OnVote",
      "type": "event"
    },
    {
      "anonymous": false,
      "inputs": [
        {
          "indexed": false,
          "name": "index",
          "type": "uint256"
        }
      ],
      "name": "OnPass",
      "type": "event"
    },
    {
      "anonymous": false,
      "inputs": [
        {
          "indexed": false,
          "name": "index",
          "type": "uint256"
        }
      ],
      "name": "OnProcess",
      "type": "event"
    },
    {
      "anonymous": false,
      "inputs": [
        {
          "indexed": false,
          "name": "index",
          "type": "uint256"
        },
        {
          "indexed": false,
          "name": "assetValue",
          "type": "uint256"
        }
      ],
      "name": "OnGetAssetBack",
      "type": "event"
    },
    {
      "constant": true,
      "inputs": [],
      "name": "getProposalQueueLength",
      "outputs": [
        {
          "name": "",
          "type": "uint256"
        }
      ],
      "payable": false,
      "stateMutability": "view",
      "type": "function"
    },
    {
      "constant": true,
      "inputs": [
        {
          "name": "_proposalIndex",
          "type": "uint256"
        }
      ],
      "name": "getProposalInfoByIndex",
      "outputs": [
        {
          "name": "_proposer",
          "type": "address"
        },
        {
          "name": "_sharesAmount",
          "type": "uint256"
        },
        {
          "name": "_assetValue",
          "type": "uint256"
        },
        {
          "name": "_detail",
          "type": "string"
        }
      ],
      "payable": false,
      "stateMutability": "view",
      "type": "function"
    },
    {
      "constant": true,
      "inputs": [
        {
          "name": "_proposalIndex",
          "type": "uint256"
        }
      ],
      "name": "getProposalStateByIndex",
      "outputs": [
        {
          "name": "_approveVotes",
          "type": "uint256"
        },
        {
          "name": "_refuseVotes",
          "type": "uint256"
        },
        {
          "name": "_process",
          "type": "bool"
        },
        {
          "name": "_pass",
          "type": "bool"
        },
        {
          "name": "_votingStartTime",
          "type": "uint256"
        },
        {
          "name": "_publicityStartTime",
          "type": "uint256"
        }
      ],
      "payable": false,
      "stateMutability": "view",
      "type": "function"
    },
    {
      "constant": false,
      "inputs": [
        {
          "name": "_sharesAmount",
          "type": "uint256"
        },
        {
          "name": "_assetValue",
          "type": "uint256"
        },
        {
          "name": "_detail",
          "type": "string"
        }
      ],
      "name": "applyProposal",
      "outputs": [],
      "payable": true,
      "stateMutability": "payable",
      "type": "function"
    },
    {
      "constant": false,
      "inputs": [
        {
          "name": "_proposalIndex",
          "type": "uint256"
        },
        {
          "name": "result",
          "type": "uint8"
        },
        {
          "name": "sharesAmount",
          "type": "uint256"
        }
      ],
      "name": "vote",
      "outputs": [],
      "payable": false,
      "stateMutability": "nonpayable",
      "type": "function"
    },
    {
      "constant": false,
      "inputs": [
        {
          "name": "_proposalIndex",
          "type": "uint256"
        }
      ],
      "name": "process",
      "outputs": [],
      "payable": false,
      "stateMutability": "nonpayable",
      "type": "function"
    },
    {
      "constant": false,
      "inputs": [
        {
          "name": "_proposalIndex",
          "type": "uint256"
        }
      ],
      "name": "getAssetBack",
      "outputs": [],
      "payable": false,
      "stateMutability": "nonpayable",
      "type": "function"
    }
  ],
  "bytecode": "0x608060405261012c60025561021c6003556000600660006101000a81548173ffffffffffffffffffffffffffffffffffffffff021916908373ffffffffffffffffffffffffffffffffffffffff1602179055506000600755600060085534801561006857600080fd5b5060405160a080612605833981018060405260a081101561008857600080fd5b8101908080519060200190929190805190602001909291908051906020019092919080519060200190929190805190602001909291905050508483838383806000806101000a81548173ffffffffffffffffffffffffffffffffffffffff021916908373ffffffffffffffffffffffffffffffffffffffff1602179055505082600660006101000a81548173ffffffffffffffffffffffffffffffffffffffff021916908373ffffffffffffffffffffffffffffffffffffffff1602179055508160098190555080600a819055505050505083600c60006101000a81548173ffffffffffffffffffffffffffffffffffffffff021916908373ffffffffffffffffffffffffffffffffffffffff1602179055505050505050612456806101af6000396000f3fe60806040526004361061014b5760003560e01c8063c513f66e116100b6578063e3d670d71161006f578063e3d670d7146106f2578063e520251a14610757578063e8105ef5146107a9578063ebe86c13146107d4578063f33670aa1461082b578063ffb2c479146108825761014b565b8063c513f66e14610482578063c5e684d2146104ad578063ca9c846c146105a2578063cc19ddba146105cd578063d0e30db01461069c578063d1acec11146106c75761014b565b8063452f783c11610108578063452f783c1461031a5780634c33007714610345578063797daf701461039c5780639b96eece146103c7578063c27cabb51461042c578063c4e41b22146104575761014b565b80631ab3c1d31461014d5780631ba46cfd146101c75780633968ccfe1461021e5780633c74523e1461024957806343f7b98a146102b45780634413550d146102df575b005b34801561015957600080fd5b506101866004803603602081101561017057600080fd5b81019080803590602001909291905050506108bd565b604051808781526020018681526020018515151515815260200184151515158152602001838152602001828152602001965050505050505060405180910390f35b3480156101d357600080fd5b506101dc610941565b604051808273ffffffffffffffffffffffffffffffffffffffff1673ffffffffffffffffffffffffffffffffffffffff16815260200191505060405180910390f35b34801561022a57600080fd5b50610233610967565b6040518082815260200191505060405180910390f35b34801561025557600080fd5b5061028c6004803603604081101561026c57600080fd5b8101908080359060200190929190803590602001909291905050506109a0565b6040518084151515158152602001838152602001828152602001935050505060405180910390f35b3480156102c057600080fd5b506102c9610a42565b6040518082815260200191505060405180910390f35b3480156102eb57600080fd5b506103186004803603602081101561030257600080fd5b8101908080359060200190929190505050610a48565b005b34801561032657600080fd5b5061032f610c4d565b6040518082815260200191505060405180910390f35b34801561035157600080fd5b5061035a610c53565b604051808273ffffffffffffffffffffffffffffffffffffffff1673ffffffffffffffffffffffffffffffffffffffff16815260200191505060405180910390f35b3480156103a857600080fd5b506103b1610c7c565b6040518082815260200191505060405180910390f35b3480156103d357600080fd5b50610416600480360360208110156103ea57600080fd5b81019080803573ffffffffffffffffffffffffffffffffffffffff169060200190929190505050610c89565b6040518082815260200191505060405180910390f35b34801561043857600080fd5b50610441610d6c565b6040518082815260200191505060405180910390f35b34801561046357600080fd5b5061046c610d72565b6040518082815260200191505060405180910390f35b34801561048e57600080fd5b50610497610e1c565b6040518082815260200191505060405180910390f35b3480156104b957600080fd5b506104e6600480360360208110156104d057600080fd5b8101908080359060200190929190505050610e43565b604051808573ffffffffffffffffffffffffffffffffffffffff1673ffffffffffffffffffffffffffffffffffffffff16815260200184815260200183815260200180602001828103825283818151815260200191508051906020019080838360005b83811015610564578082015181840152602081019050610549565b50505050905090810190601f1680156105915780820380516001836020036101000a031916815260200191505b509550505050505060405180910390f35b3480156105ae57600080fd5b506105b7610f53565b6040518082815260200191505060405180910390f35b61069a600480360360608110156105e357600080fd5b8101908080359060200190929190803590602001909291908035906020019064010000000081111561061457600080fd5b82018360208201111561062657600080fd5b8035906020019184600183028401116401000000008311171561064857600080fd5b91908080601f016020809104026020016040519081016040528093929190818152602001838380828437600081840152601f19601f820116905080830192505050505050509192919290505050610f6f565b005b3480156106a857600080fd5b506106b16112ab565b6040518082815260200191505060405180910390f35b3480156106d357600080fd5b506106dc6112b1565b6040518082815260200191505060405180910390f35b3480156106fe57600080fd5b506107416004803603602081101561071557600080fd5b81019080803573ffffffffffffffffffffffffffffffffffffffff1690602001909291905050506112b7565b6040518082815260200191505060405180910390f35b34801561076357600080fd5b506107a76004803603606081101561077a57600080fd5b8101908080359060200190929190803560ff1690602001909291908035906020019092919050505061139a565b005b3480156107b557600080fd5b506107be6118b3565b6040518082815260200191505060405180910390f35b3480156107e057600080fd5b506107e96118b9565b604051808273ffffffffffffffffffffffffffffffffffffffff1673ffffffffffffffffffffffffffffffffffffffff16815260200191505060405180910390f35b34801561083757600080fd5b506108406118de565b604051808273ffffffffffffffffffffffffffffffffffffffff1673ffffffffffffffffffffffffffffffffffffffff16815260200191505060405180910390f35b34801561088e57600080fd5b506108bb600480360360208110156108a557600080fd5b8101908080359060200190929190505050611904565b005b60008060008060008060006108d188611d01565b90506000600b82815481106108e257fe5b90600052602060002090600b0201905080600401549750806005015496508060060160009054906101000a900460ff1695508060060160019054906101000a900460ff1694508060070154935080600801549250505091939550919395565b600160009054906101000a900473ffffffffffffffffffffffffffffffffffffffff1681565b60405180807f566f74655f4170706c7946756e645f6f6e655469636b657453746f7054617000815250601f019050604051809103902081565b6000806000806109b98587611d9590919063ffffffff16565b90506109e96109c6610d72565b6109db6103e884611e1d90919063ffffffff16565b611ea390919063ffffffff16565b9250610a1281610a046103e889611e1d90919063ffffffff16565b611ea390919063ffffffff16565b91506009546007541015610a2557600093505b600a546008541015610a3657600093505b60019350509250925092565b60085481565b6000610a5382611d01565b90506000600b8281548110610a6457fe5b90600052602060002090600b020190506002548160070154014210158015610aa15750600015158160060160019054906101000a900460ff161515145b610b13576040517f08c379a000000000000000000000000000000000000000000000000000000000815260040180806020018281038252601d8152602001807f5374696c6c206f6e207468652062616c6c6f74206f722070617373656400000081525060200191505060405180910390fd5b6000816003015411610b8d576040517f08c379a00000000000000000000000000000000000000000000000000000000081526004018080602001828103825260108152602001807f4e6f206d6f6e657920746f206261636b0000000000000000000000000000000081525060200191505060405180910390fd5b610bbf8160010160009054906101000a900473ffffffffffffffffffffffffffffffffffffffff168260030154611eed565b7ffeb5211da564b90c4321524bb5e4ff7dc27ff0faa0eaf919f00c73abc645f339838260030154604051808381526020018281526020019250505060405180910390a160008160030181905550610c1833600554611eed565b610c488160010160009054906101000a900473ffffffffffffffffffffffffffffffffffffffff16600454611eed565b505050565b60075481565b60008060009054906101000a900473ffffffffffffffffffffffffffffffffffffffff16905090565b6000600b80549050905090565b6000600660009054906101000a900473ffffffffffffffffffffffffffffffffffffffff1673ffffffffffffffffffffffffffffffffffffffff166370a08231836040518263ffffffff1660e01b8152600401808273ffffffffffffffffffffffffffffffffffffffff1673ffffffffffffffffffffffffffffffffffffffff16815260200191505060206040518083038186803b158015610d2a57600080fd5b505afa158015610d3e573d6000803e3d6000fd5b505050506040513d6020811015610d5457600080fd5b81019080805190602001909291905050509050919050565b60055481565b6000600660009054906101000a900473ffffffffffffffffffffffffffffffffffffffff1673ffffffffffffffffffffffffffffffffffffffff166318160ddd6040518163ffffffff1660e01b815260040160206040518083038186803b158015610ddc57600080fd5b505afa158015610df0573d6000803e3d6000fd5b505050506040513d6020811015610e0657600080fd5b8101908080519060200190929190505050905090565b7f290decd9548b62a8d60345a988386fc84ba6bc95484008f6362f93160ef3e56360001b81565b600080600060606000610e5586611d01565b90506000600b8281548110610e6657fe5b90600052602060002090600b020190508060010160009054906101000a900473ffffffffffffffffffffffffffffffffffffffff16955080600a018054600181600116156101000203166002900480601f016020809104026020016040519081016040528092919081815260200182805460018160011615610100020316600290048015610f355780601f10610f0a57610100808354040283529160200191610f35565b820191906000526020600020905b815481529060010190602001808311610f1857829003601f168201915b50505050509250806002015494508060030154935050509193509193565b60405180806123e3602691396026019050604051809103902081565b6000610f7a33610c89565b11610fed576040517f08c379a000000000000000000000000000000000000000000000000000000000815260040180806020018281038252600f8152602001807f6e6565642068617320736861726573000000000000000000000000000000000081525060200191505060405180910390fd5b611000333060045460055486010161204d565b6110086122a8565b6040518061016001604052806001600b805490500181526020013373ffffffffffffffffffffffffffffffffffffffff1681526020018581526020018481526020016000815260200160008152602001600015158152602001600015158152602001428152602001600081526020018381525090507f6c60dc85e21f37fff21ef3a7885275ade2b6986e385c039926a50acf0798e89b8160000151826020015183604001518460600151856101000151866101400151604051808781526020018673ffffffffffffffffffffffffffffffffffffffff1673ffffffffffffffffffffffffffffffffffffffff16815260200185815260200184815260200183815260200180602001828103825283818151815260200191508051906020019080838360005b8381101561114857808201518184015260208101905061112d565b50505050905090810190601f1680156111755780820380516001836020036101000a031916815260200191505b5097505050505050505060405180910390a1600b819080600181540180825580915050906001820390600052602060002090600b0201600090919290919091506000820151816000015560208201518160010160006101000a81548173ffffffffffffffffffffffffffffffffffffffff021916908373ffffffffffffffffffffffffffffffffffffffff16021790555060408201518160020155606082015181600301556080820151816004015560a0820151816005015560c08201518160060160006101000a81548160ff02191690831515021790555060e08201518160060160016101000a81548160ff0219169083151502179055506101008201518160070155610120820151816008015561014082015181600a0190805190602001906112a192919061231c565b5050505050505050565b60045481565b60095481565b6000600160009054906101000a900473ffffffffffffffffffffffffffffffffffffffff1673ffffffffffffffffffffffffffffffffffffffff166370a08231836040518263ffffffff1660e01b8152600401808273ffffffffffffffffffffffffffffffffffffffff1673ffffffffffffffffffffffffffffffffffffffff16815260200191505060206040518083038186803b15801561135857600080fd5b505afa15801561136c573d6000803e3d6000fd5b505050506040513d602081101561138257600080fd5b81019080805190602001909291905050509050919050565b60006113a533610c89565b11611418576040517f08c379a000000000000000000000000000000000000000000000000000000000815260040180806020018281038252600f8152602001807f6e6565642068617320736861726573000000000000000000000000000000000081525060200191505060405180910390fd5b600061142384611d01565b90506000600b828154811061143457fe5b90600052602060002090600b0201905060025481600701540142106114c1576040517f08c379a00000000000000000000000000000000000000000000000000000000081526004018080602001828103825260088152602001807f74696d65206f757400000000000000000000000000000000000000000000000081525060200191505060405180910390fd5b60018460ff1614806114d6575060028460ff16145b611548576040517f08c379a000000000000000000000000000000000000000000000000000000000815260040180806020018281038252601f8152602001807f766f746520726573756c74206d757374206265206c657373207468616e20330081525060200191505060405180910390fd5b6000600281111561155557fe5b8160090160003373ffffffffffffffffffffffffffffffffffffffff1673ffffffffffffffffffffffffffffffffffffffff16815260200190815260200160002060010160009054906101000a900460ff1660028111156115b257fe5b14611625576040517f08c379a00000000000000000000000000000000000000000000000000000000081526004018080602001828103825260148152602001807f566f7465732068617665206265656e206361737400000000000000000000000081525060200191505060405180910390fd5b8261162f33610c89565b116116a2576040517f08c379a00000000000000000000000000000000000000000000000000000000081526004018080602001828103825260128152602001807f6e6f7420656e6f7567682073686172657341000000000000000000000000000081525060200191505060405180910390fd5b60008460ff1660028111156116b357fe5b9050808260090160003373ffffffffffffffffffffffffffffffffffffffff1673ffffffffffffffffffffffffffffffffffffffff16815260200190815260200160002060010160006101000a81548160ff0219169083600281111561171557fe5b0217905550838260090160003373ffffffffffffffffffffffffffffffffffffffff1673ffffffffffffffffffffffffffffffffffffffff168152602001908152602001600020600001819055506001600281111561177057fe5b81600281111561177c57fe5b1415611796578382600401540182600401819055506117a6565b8382600501540182600501819055505b7fbc64f9d6bf28430c0cbce4b563fdb6c057c9d05e7f68f3ef84c1c4b91efb940e33878787604051808573ffffffffffffffffffffffffffffffffffffffff1673ffffffffffffffffffffffffffffffffffffffff1681526020018481526020018360ff1660ff16815260200182815260200194505050505060405180910390a1600061183b836004015484600501546109a0565b9050508091505080156118aa5760018360060160016101000a81548160ff0219169083151502179055504283600801819055507f38e7bbda606caec7d6928b67f78e2e5b159127292c642c4702b301ae1e75a23c83600001546040518082815260200191505060405180910390a15b50505050505050565b600a5481565b6000809054906101000a900473ffffffffffffffffffffffffffffffffffffffff1681565b600660009054906101000a900473ffffffffffffffffffffffffffffffffffffffff1681565b600061190f82611d01565b90506000600b828154811061192057fe5b90600052602060002090600b02019050600354600254826007015401014211611994576040517f08c379a00000000000000000000000000000000000000000000000000000000081526004018080602001828103825260228152602001806124096022913960400191505060405180910390fd5b600115158160060160019054906101000a900460ff16151514611a1f576040517f08c379a00000000000000000000000000000000000000000000000000000000081526004018080602001828103825260128152602001807f70726f706f73616c206e6565642070617373000000000000000000000000000081525060200191505060405180910390fd5b600015158160060160009054906101000a900460ff16151514611aaa576040517f08c379a00000000000000000000000000000000000000000000000000000000081526004018080602001828103825260198152602001807f70726f706f73616c20686173206265656e2070726f636573730000000000000081525060200191505060405180910390fd5b60018160060160006101000a81548160ff0219169083151502179055507f9351ad0db77a89c0836c30198d34259521e1dd1f69033188ce9eafccd51e1aa8836040518082815260200191505060405180910390a16000600c60009054906101000a900473ffffffffffffffffffffffffffffffffffffffff1673ffffffffffffffffffffffffffffffffffffffff16637e348b7d8360010160009054906101000a900473ffffffffffffffffffffffffffffffffffffffff1684600201546040518363ffffffff1660e01b8152600401808373ffffffffffffffffffffffffffffffffffffffff1673ffffffffffffffffffffffffffffffffffffffff16815260200182815260200192505050602060405180830381600087803b158015611bd157600080fd5b505af1158015611be5573d6000803e3d6000fd5b505050506040513d6020811015611bfb57600080fd5b8101908080519060200190929190505050905080611c81576040517f08c379a000000000000000000000000000000000000000000000000000000000815260040180806020018281038252600b8152602001807f656e746572206661696c6400000000000000000000000000000000000000000081525060200191505060405180910390fd5b600082600301541115611cbf57611cbe600c60009054906101000a900473ffffffffffffffffffffffffffffffffffffffff168360030154611eed565b5b611ccb33600554611eed565b611cfb8260010160009054906101000a900473ffffffffffffffffffffffffffffffffffffffff16600454611eed565b50505050565b6000600b805490508211158015611d185750600082115b611d8a576040517f08c379a00000000000000000000000000000000000000000000000000000000081526004018080602001828103825260178152602001807f70726f706f73616c20646f6573206e6f7420657869737400000000000000000081525060200191505060405180910390fd5b600182039050919050565b600080828401905083811015611e13576040517f08c379a000000000000000000000000000000000000000000000000000000000815260040180806020018281038252601b8152602001807f536166654d6174683a206164646974696f6e206f766572666c6f77000000000081525060200191505060405180910390fd5b8091505092915050565b600080831415611e305760009050611e9d565b6000828402905082848281611e4157fe5b0414611e98576040517f08c379a00000000000000000000000000000000000000000000000000000000081526004018080602001828103825260218152602001806123c26021913960400191505060405180910390fd5b809150505b92915050565b6000611ee583836040518060400160405280601a81526020017f536166654d6174683a206469766973696f6e206279207a65726f0000000000008152506121e2565b905092915050565b6000600160009054906101000a900473ffffffffffffffffffffffffffffffffffffffff1673ffffffffffffffffffffffffffffffffffffffff1663a9059cbb84846040518363ffffffff1660e01b8152600401808373ffffffffffffffffffffffffffffffffffffffff1673ffffffffffffffffffffffffffffffffffffffff16815260200182815260200192505050602060405180830381600087803b158015611f9857600080fd5b505af1158015611fac573d6000803e3d6000fd5b505050506040513d6020811015611fc257600080fd5b8101908080519060200190929190505050905080612048576040517f08c379a00000000000000000000000000000000000000000000000000000000081526004018080602001828103825260188152602001807f6173736574207472616e7366657246726f6d206572726f72000000000000000081525060200191505060405180910390fd5b505050565b6000600160009054906101000a900473ffffffffffffffffffffffffffffffffffffffff1673ffffffffffffffffffffffffffffffffffffffff166323b872dd8585856040518463ffffffff1660e01b8152600401808473ffffffffffffffffffffffffffffffffffffffff1673ffffffffffffffffffffffffffffffffffffffff1681526020018373ffffffffffffffffffffffffffffffffffffffff1673ffffffffffffffffffffffffffffffffffffffff1681526020018281526020019350505050602060405180830381600087803b15801561212c57600080fd5b505af1158015612140573d6000803e3d6000fd5b505050506040513d602081101561215657600080fd5b81019080805190602001909291905050509050806121dc576040517f08c379a00000000000000000000000000000000000000000000000000000000081526004018080602001828103825260188152602001807f6173736574207472616e7366657246726f6d206572726f72000000000000000081525060200191505060405180910390fd5b50505050565b6000808311829061228e576040517f08c379a00000000000000000000000000000000000000000000000000000000081526004018080602001828103825283818151815260200191508051906020019080838360005b83811015612253578082015181840152602081019050612238565b50505050905090810190601f1680156122805780820380516001836020036101000a031916815260200191505b509250505060405180910390fd5b50600083858161229a57fe5b049050809150509392505050565b60405180610160016040528060008152602001600073ffffffffffffffffffffffffffffffffffffffff168152602001600081526020016000815260200160008152602001600081526020016000151581526020016000151581526020016000815260200160008152602001606081525090565b828054600181600116156101000203166002900490600052602060002090601f016020900481019282601f1061235d57805160ff191683800117855561238b565b8280016001018555821561238b579182015b8281111561238a57825182559160200191906001019061236f565b5b509050612398919061239c565b5090565b6123be91905b808211156123ba5760008160009055506001016123a2565b5090565b9056fe536166654d6174683a206d756c7469706c69636174696f6e206f766572666c6f77566f74655f4170706c7946756e645f4f6e655469636b657452656675736550726f706f73616c53686f756c642065786365656420746865207075626c696369747920706572696f64a165627a7a72305820c87aa53ca3ff4c97d926f71cc30144fad5799b86bb9cb48b32ad2eee7ecb76a00029",
  "source": "pragma solidity >=0.4.22 <0.6.0;\r\n\r\nimport \"./VoteApp.sol\";\r\nimport \"../Interface/IDateTime.sol\";\r\nimport \"../Interface/IGovernShareManager.sol\";\r\n\r\ncontract Vote_ApplySharesA is VoteApp{\r\n\r\n    bytes32 public constant Vote_ApplyFund_OneTicketRefuseProposal = keccak256(\"Vote_ApplyFund_OneTicketRefuseProposal\");\r\n    bytes32 public constant Vote_ApplyFund_oneTicketStopTap = keccak256(\"Vote_ApplyFund_oneTicketStopTap\");\r\n\r\n    /// @notice \r\n    Proposal[] private proposalQueue;\r\n\r\n    address payable private govern;\r\n\r\n    /// @notice \r\n    struct Proposal{\r\n        uint256 index;//\r\n        address payable proposer; //\r\n        uint256 sharesAmount; //sharesA\r\n        uint256 assetValue; //\r\n        uint256 approveVotes; //\r\n        uint256 refuseVotes; //\r\n        bool process; //\r\n        bool pass; //\r\n        uint256 votingStartTime;//\r\n        uint256 publicityStartTime;//\r\n        mapping(address => VoteInfo) voteDetails;\r\n        string detail; //\r\n    }\r\n\r\n    /// @notice \r\n    event OnApplyProposal(\r\n        uint256 index,\r\n        address payable proposaler,\r\n        uint256 sharesAmount, //sharesA\r\n        uint256 assetValue, //\r\n        uint256 votingStartTime,\r\n        string detail\r\n    );\r\n\r\n    /// @param who \r\n    /// @param index \r\n    /// @param voteResult \r\n    /// @param shares \r\n    event OnVote(\r\n        address who,\r\n        uint256 index,\r\n        uint8 voteResult,\r\n        uint256 shares\r\n    );\r\n\r\n    event OnPass(\r\n        uint256 index\r\n    );\r\n\r\n    /// @param index  , pass \r\n    event OnProcess(\r\n        uint256 index\r\n    );\r\n\r\n    event OnGetAssetBack(\r\n        uint256 index,\r\n        uint256 assetValue\r\n    );\r\n\r\n    constructor(AppManager _appManager,address payable _governAddress,address _sharesAddress,uint256 _voteRatio,uint256 _approveRatio)\r\n    VoteApp(_appManager,_sharesAddress,_voteRatio,_approveRatio)\r\n    public\r\n    {\r\n        govern = _governAddress;\r\n    }\r\n\r\n    /////////////\r\n    /// \r\n    /////////////\r\n    //\r\n    function getProposalQueueLength() public view returns(uint256){\r\n        return proposalQueue.length;\r\n    }\r\n\r\n    /// @notice index\r\n    function getProposalInfoByIndex(uint256 _proposalIndex)\r\n    public\r\n    view\r\n    returns(address _proposer,uint256 _sharesAmount,uint256 _assetValue,string memory _detail)\r\n    {\r\n        uint256 queueIndex = proposalIndexToQueueIndex(_proposalIndex);\r\n        Proposal storage proposal = proposalQueue[queueIndex];\r\n        _proposer = proposal.proposer;\r\n        _detail = proposal.detail;\r\n        _sharesAmount = proposal.sharesAmount;\r\n        _assetValue = proposal.assetValue;\r\n    }\r\n\r\n    ///\r\n    function getProposalStateByIndex(uint256 _proposalIndex)\r\n    public\r\n    view\r\n    returns(uint256 _approveVotes,uint256 _refuseVotes,bool _process,bool _pass,uint256 _votingStartTime,uint256 _publicityStartTime)\r\n    {\r\n        uint256 queueIndex = proposalIndexToQueueIndex(_proposalIndex);\r\n        Proposal storage proposal = proposalQueue[queueIndex];\r\n        _approveVotes = proposal.approveVotes;\r\n        _refuseVotes = proposal.refuseVotes;\r\n        _process = proposal.process;\r\n        _pass = proposal.pass;\r\n        _votingStartTime = proposal.votingStartTime;\r\n        _publicityStartTime = proposal.publicityStartTime;\r\n    }\r\n\r\n    /// @notice \r\n    /// @param _detail \r\n    function applyProposal(\r\n        uint256 _sharesAmount,\r\n        uint256 _assetValue,\r\n        string memory _detail\r\n    )\r\n    public\r\n    payable\r\n    ownShares()\r\n    {\r\n        transferF(msg.sender,address(this),_assetValue + proposalFee + deposit);\r\n\r\n        Proposal memory proposal = Proposal({\r\n            index : proposalQueue.length + 1,\r\n            proposer : msg.sender,\r\n            sharesAmount : _sharesAmount,\r\n            assetValue : _assetValue,\r\n            approveVotes : 0,\r\n            refuseVotes : 0,\r\n            process : false,\r\n            pass : false,\r\n            votingStartTime : now,\r\n            publicityStartTime : 0,\r\n            detail : _detail\r\n        });\r\n\r\n        emit OnApplyProposal(\r\n            proposal.index,\r\n            proposal.proposer,\r\n            proposal.sharesAmount,\r\n            proposal.assetValue,\r\n            proposal.votingStartTime,\r\n            proposal.detail\r\n        );\r\n        proposalQueue.push(proposal);\r\n    }\r\n\r\n    function vote(uint256 _proposalIndex,uint8 result,uint256 sharesAmount) public ownShares() {\r\n        //\r\n        uint256 queueIndex = proposalIndexToQueueIndex(_proposalIndex);\r\n        Proposal storage proposal = proposalQueue[queueIndex];\r\n        //\r\n        require(now < proposal.votingStartTime + votingPeriodLength,\"time out\");\r\n        //\r\n        require(result == 1||result == 2,\"vote result must be less than 3\");\r\n        //\r\n        require(proposal.voteDetails[msg.sender].result == enumVoteResult.waiver,\"Votes have been cast\");\r\n        //A\r\n        require(getBalanceOf(msg.sender) > sharesAmount,\"not enough sharesA\");\r\n        //\r\n        enumVoteResult voteResult = enumVoteResult(result);\r\n        proposal.voteDetails[msg.sender].result = voteResult;\r\n        proposal.voteDetails[msg.sender].sharesAmount = sharesAmount;\r\n        if(voteResult == enumVoteResult.approve){\r\n            proposal.approveVotes = proposal.approveVotes + sharesAmount;\r\n        }\r\n        else{\r\n            proposal.refuseVotes = proposal.refuseVotes + sharesAmount;\r\n        }\r\n        emit OnVote(msg.sender,_proposalIndex,result,sharesAmount);\r\n        bool r;\r\n        (r,,) = canPass(proposal.approveVotes,proposal.refuseVotes);\r\n        //\r\n        if(r){//\r\n            proposal.pass = true;\r\n            proposal.publicityStartTime = now;\r\n            emit OnPass(proposal.index);\r\n        }\r\n    }\r\n\r\n    /// @notice \r\n    /// @param _proposalIndex \r\n    function process(uint256 _proposalIndex) public {\r\n        uint256 queueIndex = proposalIndexToQueueIndex(_proposalIndex);\r\n        Proposal storage proposal = proposalQueue[queueIndex];\r\n        //\r\n        require(now > proposal.votingStartTime + votingPeriodLength + publicityPeriodLength,\"Should exceed the publicity period\");\r\n        //\r\n        require(proposal.pass == true,\"proposal need pass\");\r\n        //\r\n        require(proposal.process == false,\"proposal has been process\");\r\n        proposal.process = true;\r\n\r\n        emit OnProcess(_proposalIndex);\r\n\r\n        ////A\r\n        bool r = IGovernShareManager(govern).enter(proposal.proposer,proposal.sharesAmount);\r\n        require(r,\"enter faild\");\r\n        //govern\r\n        if (proposal.assetValue > 0) {\r\n            transferM(address(govern),proposal.assetValue);\r\n        }\r\n        //\r\n        transferM(msg.sender,proposalFee);\r\n        //\r\n        transferM(proposal.proposer,deposit);\r\n    }\r\n\r\n    /// @notice  \r\n    function getAssetBack(uint256 _proposalIndex) public {\r\n        uint256 queueIndex = proposalIndexToQueueIndex(_proposalIndex);\r\n        Proposal storage proposal = proposalQueue[queueIndex];\r\n        //\r\n        require(now >= proposal.votingStartTime + votingPeriodLength && proposal.pass == false,\"Still on the ballot or passed\");\r\n        //\r\n        require(proposal.assetValue > 0,\"No money to back\");\r\n        //\r\n        transferM(proposal.proposer,proposal.assetValue);\r\n        emit OnGetAssetBack(_proposalIndex,proposal.assetValue);\r\n        proposal.assetValue = 0;\r\n        //\r\n        transferM(msg.sender,proposalFee);\r\n        //\r\n        transferM(proposal.proposer,deposit);\r\n    }\r\n\r\n\r\n    function proposalIndexToQueueIndex(uint256 _proposalIndex) private view returns(uint256){\r\n        //\r\n        require(_proposalIndex <= proposalQueue.length && _proposalIndex>0,\"proposal does not exist\");\r\n        return _proposalIndex - 1;\r\n    }\r\n\r\n    function() external payable{\r\n    }\r\n}",
  "sourcePath": "D:/_______work/FD_Contract_ETH/fd/contracts/Vote/Vote_ApplySharesA.sol",
  "compiler": {
    "name": "solc",
    "version": "0.5.8+commit.23d335f2.Emscripten.clang"
  },
  "schemaVersion": "3.0.11",
  "updatedAt": "2019-11-26T08:42:38.011Z",
  "devdoc": {
    "methods": {
      "applyProposal(uint256,uint256,string)": {
        "params": {
          "_detail": ""
        }
      },
      "process(uint256)": {
        "params": {
          "_proposalIndex": ""
        }
      }
    }
  },
  "userdoc": {
    "methods": {
      "getAssetBack(uint256)": {
        "notice": " "
      },
      "getBalanceOf(address)": {
        "notice": ""
      },
      "getProposalInfoByIndex(uint256)": {
        "notice": "index"
      },
      "getProposalQueueLength()": {
        "notice": "//////////"
      },
      "getProposalStateByIndex(uint256)": {
        "notice": ""
      },
      "getTotalSupply()": {
        "notice": ""
      }
    }
  }
}