{
  "contractName": "Vote",
  "abi": [
    {
      "constant": true,
      "inputs": [],
      "name": "fundPool",
      "outputs": [
        {
          "name": "",
          "type": "address"
        }
      ],
      "payable": false,
      "stateMutability": "view",
      "type": "function"
    },
    {
      "constant": true,
      "inputs": [],
      "name": "cur_clearingProposal",
      "outputs": [
        {
          "name": "index",
          "type": "uint256"
        },
        {
          "name": "startTime",
          "type": "uint256"
        },
        {
          "name": "proposer",
          "type": "address"
        },
        {
          "name": "totalShares",
          "type": "uint256"
        },
        {
          "name": "pass",
          "type": "bool"
        },
        {
          "name": "process",
          "type": "bool"
        }
      ],
      "payable": false,
      "stateMutability": "view",
      "type": "function"
    },
    {
      "constant": true,
      "inputs": [],
      "name": "proposalFee",
      "outputs": [
        {
          "name": "",
          "type": "uint256"
        }
      ],
      "payable": false,
      "stateMutability": "view",
      "type": "function"
    },
    {
      "inputs": [],
      "payable": false,
      "stateMutability": "nonpayable",
      "type": "constructor"
    },
    {
      "payable": true,
      "stateMutability": "payable",
      "type": "fallback"
    },
    {
      "anonymous": false,
      "inputs": [
        {
          "indexed": false,
          "name": "index",
          "type": "uint256"
        },
        {
          "indexed": false,
          "name": "proposalName",
          "type": "string"
        },
        {
          "indexed": false,
          "name": "proposer",
          "type": "address"
        },
        {
          "indexed": false,
          "name": "startTime",
          "type": "uint256"
        },
        {
          "indexed": false,
          "name": "recipient",
          "type": "address"
        },
        {
          "indexed": false,
          "name": "value",
          "type": "uint256"
        },
        {
          "indexed": false,
          "name": "timeConsuming",
          "type": "uint256"
        },
        {
          "indexed": false,
          "name": "detail",
          "type": "string"
        }
      ],
      "name": "OnApplyProposal",
      "type": "event"
    },
    {
      "anonymous": false,
      "inputs": [
        {
          "indexed": false,
          "name": "index",
          "type": "uint256"
        },
        {
          "indexed": false,
          "name": "proposalName",
          "type": "string"
        },
        {
          "indexed": false,
          "name": "proposer",
          "type": "address"
        },
        {
          "indexed": false,
          "name": "startTime",
          "type": "uint256"
        },
        {
          "indexed": false,
          "name": "execScript",
          "type": "bytes"
        },
        {
          "indexed": false,
          "name": "execContract",
          "type": "address"
        }
      ],
      "name": "OnApplyCommonProposal",
      "type": "event"
    },
    {
      "anonymous": false,
      "inputs": [
        {
          "indexed": false,
          "name": "who",
          "type": "address"
        },
        {
          "indexed": false,
          "name": "proposalType",
          "type": "uint8"
        },
        {
          "indexed": false,
          "name": "index",
          "type": "uint256"
        },
        {
          "indexed": false,
          "name": "voteResult",
          "type": "uint8"
        },
        {
          "indexed": false,
          "name": "shares",
          "type": "uint256"
        }
      ],
      "name": "OnVote",
      "type": "event"
    },
    {
      "anonymous": false,
      "inputs": [
        {
          "indexed": false,
          "name": "index",
          "type": "uint256"
        },
        {
          "indexed": false,
          "name": "proposalType",
          "type": "uint8"
        },
        {
          "indexed": false,
          "name": "pass",
          "type": "bool"
        }
      ],
      "name": "OnProcess",
      "type": "event"
    },
    {
      "anonymous": false,
      "inputs": [
        {
          "indexed": false,
          "name": "index",
          "type": "uint256"
        },
        {
          "indexed": false,
          "name": "proposalType",
          "type": "uint8"
        }
      ],
      "name": "OnAbort",
      "type": "event"
    },
    {
      "anonymous": false,
      "inputs": [
        {
          "indexed": false,
          "name": "index",
          "type": "uint256"
        },
        {
          "indexed": false,
          "name": "proposalType",
          "type": "uint8"
        }
      ],
      "name": "OnOneTicketRefuse",
      "type": "event"
    },
    {
      "anonymous": false,
      "inputs": [
        {
          "indexed": false,
          "name": "index",
          "type": "uint256"
        },
        {
          "indexed": false,
          "name": "getMoney",
          "type": "uint256"
        },
        {
          "indexed": false,
          "name": "totalMoney",
          "type": "uint256"
        },
        {
          "indexed": false,
          "name": "getTime",
          "type": "uint256"
        }
      ],
      "name": "OnGetMoney",
      "type": "event"
    },
    {
      "anonymous": false,
      "inputs": [
        {
          "indexed": false,
          "name": "index",
          "type": "uint256"
        },
        {
          "indexed": false,
          "name": "proposer",
          "type": "address"
        },
        {
          "indexed": false,
          "name": "startTime",
          "type": "uint256"
        }
      ],
      "name": "OnApplyClearingProposal",
      "type": "event"
    },
    {
      "anonymous": false,
      "inputs": [
        {
          "indexed": false,
          "name": "index",
          "type": "uint256"
        },
        {
          "indexed": false,
          "name": "who",
          "type": "address"
        },
        {
          "indexed": false,
          "name": "shares",
          "type": "uint256"
        }
      ],
      "name": "OnVoteClearingProposal",
      "type": "event"
    },
    {
      "anonymous": false,
      "inputs": [
        {
          "indexed": false,
          "name": "index",
          "type": "uint256"
        },
        {
          "indexed": false,
          "name": "proposer",
          "type": "address"
        },
        {
          "indexed": false,
          "name": "startTime",
          "type": "uint256"
        },
        {
          "indexed": false,
          "name": "totalShares",
          "type": "uint256"
        },
        {
          "indexed": false,
          "name": "pass",
          "type": "bool"
        }
      ],
      "name": "OnProcessClearingProposal",
      "type": "event"
    },
    {
      "anonymous": false,
      "inputs": [
        {
          "indexed": false,
          "name": "u",
          "type": "address"
        }
      ],
      "name": "OnTest",
      "type": "event"
    },
    {
      "constant": false,
      "inputs": [
        {
          "name": "_fundPool",
          "type": "address"
        }
      ],
      "name": "unsafe_setFundPool",
      "outputs": [],
      "payable": false,
      "stateMutability": "nonpayable",
      "type": "function"
    },
    {
      "constant": true,
      "inputs": [],
      "name": "getLengthOfProposalQueue",
      "outputs": [
        {
          "name": "",
          "type": "uint256"
        }
      ],
      "payable": false,
      "stateMutability": "view",
      "type": "function"
    },
    {
      "constant": true,
      "inputs": [
        {
          "name": "proposalIndex",
          "type": "uint256"
        }
      ],
      "name": "getProposalInfoByIndex",
      "outputs": [
        {
          "name": "",
          "type": "string"
        },
        {
          "name": "",
          "type": "address"
        },
        {
          "name": "",
          "type": "uint256"
        },
        {
          "name": "",
          "type": "address"
        },
        {
          "name": "",
          "type": "uint256"
        },
        {
          "name": "",
          "type": "uint256"
        },
        {
          "name": "details",
          "type": "string"
        }
      ],
      "payable": false,
      "stateMutability": "view",
      "type": "function"
    },
    {
      "constant": true,
      "inputs": [
        {
          "name": "proposalIndex",
          "type": "uint256"
        }
      ],
      "name": "getProposalStateByIndex",
      "outputs": [
        {
          "name": "",
          "type": "uint256"
        },
        {
          "name": "",
          "type": "uint256"
        },
        {
          "name": "",
          "type": "bool"
        },
        {
          "name": "",
          "type": "bool"
        },
        {
          "name": "",
          "type": "bool"
        },
        {
          "name": "",
          "type": "bool"
        }
      ],
      "payable": false,
      "stateMutability": "view",
      "type": "function"
    },
    {
      "constant": true,
      "inputs": [
        {
          "name": "proposalIndex",
          "type": "uint256"
        }
      ],
      "name": "getTapByIndex",
      "outputs": [
        {
          "name": "startTime",
          "type": "uint256"
        },
        {
          "name": "endTime",
          "type": "uint256"
        },
        {
          "name": "money",
          "type": "uint256"
        }
      ],
      "payable": false,
      "stateMutability": "view",
      "type": "function"
    },
    {
      "constant": true,
      "inputs": [
        {
          "name": "_address",
          "type": "address"
        }
      ],
      "name": "getSharesOf",
      "outputs": [
        {
          "name": "",
          "type": "uint256"
        }
      ],
      "payable": false,
      "stateMutability": "view",
      "type": "function"
    },
    {
      "constant": false,
      "inputs": [
        {
          "name": "_name",
          "type": "string"
        },
        {
          "name": "_recipient",
          "type": "address"
        },
        {
          "name": "_value",
          "type": "uint256"
        },
        {
          "name": "_timeConsuming",
          "type": "uint256"
        },
        {
          "name": "_detail",
          "type": "string"
        }
      ],
      "name": "applyProposal",
      "outputs": [],
      "payable": true,
      "stateMutability": "payable",
      "type": "function"
    },
    {
      "constant": false,
      "inputs": [
        {
          "name": "proposalIndex",
          "type": "uint256"
        }
      ],
      "name": "abortProposal",
      "outputs": [],
      "payable": false,
      "stateMutability": "nonpayable",
      "type": "function"
    },
    {
      "constant": false,
      "inputs": [
        {
          "name": "proposalIndex",
          "type": "uint256"
        }
      ],
      "name": "oneTicketRefuseProposal",
      "outputs": [],
      "payable": false,
      "stateMutability": "nonpayable",
      "type": "function"
    },
    {
      "constant": false,
      "inputs": [
        {
          "name": "proposalIndex",
          "type": "uint256"
        },
        {
          "name": "result",
          "type": "uint8"
        }
      ],
      "name": "vote",
      "outputs": [],
      "payable": false,
      "stateMutability": "nonpayable",
      "type": "function"
    },
    {
      "constant": false,
      "inputs": [
        {
          "name": "proposalIndex",
          "type": "uint256"
        }
      ],
      "name": "process",
      "outputs": [],
      "payable": false,
      "stateMutability": "nonpayable",
      "type": "function"
    },
    {
      "constant": false,
      "inputs": [
        {
          "name": "proposalIndex",
          "type": "uint256"
        }
      ],
      "name": "getMoney",
      "outputs": [],
      "payable": false,
      "stateMutability": "nonpayable",
      "type": "function"
    }
  ],
  "bytecode": "0x60806040526212750060015562093a80600255662386f26fc10000600f5534801561002957600080fd5b50336000806101000a81548173ffffffffffffffffffffffffffffffffffffffff021916908373ffffffffffffffffffffffffffffffffffffffff1602179055506132b7806100796000396000f3fe6080604052600436106100e85760003560e01c8063a04d741a1161008a578063cfab3acc11610059578063cfab3acc146106fd578063ee85348e14610738578063ef990d201461079d578063ffb2c479146107c8576100e8565b8063a04d741a14610464578063aa79f71c146104b5578063c27cabb514610537578063c5e684d214610562576100e8565b806370f37d27116100c657806370f37d27146101e25780637a0a0078146102395780638c4680ec146103bf578063943e82161461041c576100e8565b80630a81e702146100ea5780631ab3c1d3146101255780633262fd9a146101a7575b005b3480156100f657600080fd5b506101236004803603602081101561010d57600080fd5b8101908080359060200190929190505050610803565b005b34801561013157600080fd5b5061015e6004803603602081101561014857600080fd5b8101908080359060200190929190505050610b39565b6040518087815260200186815260200185151515158152602001841515151581526020018315151515815260200182151515158152602001965050505050505060405180910390f35b3480156101b357600080fd5b506101e0600480360360208110156101ca57600080fd5b8101908080359060200190929190505050610e75565b005b3480156101ee57600080fd5b506101f7611322565b604051808273ffffffffffffffffffffffffffffffffffffffff1673ffffffffffffffffffffffffffffffffffffffff16815260200191505060405180910390f35b6103bd600480360360a081101561024f57600080fd5b810190808035906020019064010000000081111561026c57600080fd5b82018360208201111561027e57600080fd5b803590602001918460018302840111640100000000831117156102a057600080fd5b91908080601f016020809104026020016040519081016040528093929190818152602001838380828437600081840152601f19601f820116905080830192505050505050509192919290803573ffffffffffffffffffffffffffffffffffffffff16906020019092919080359060200190929190803590602001909291908035906020019064010000000081111561033757600080fd5b82018360208201111561034957600080fd5b8035906020019184600183028401116401000000008311171561036b57600080fd5b91908080601f016020809104026020016040519081016040528093929190818152602001838380828437600081840152601f19601f820116905080830192505050505050509192919290505050611348565b005b3480156103cb57600080fd5b506103f8600480360360208110156103e257600080fd5b8101908080359060200190929190505050611a37565b60405180848152602001838152602001828152602001935050505060405180910390f35b34801561042857600080fd5b506104626004803603604081101561043f57600080fd5b8101908080359060200190929190803560ff169060200190929190505050611d63565b005b34801561047057600080fd5b506104b36004803603602081101561048757600080fd5b81019080803573ffffffffffffffffffffffffffffffffffffffff169060200190929190505050612321565b005b3480156104c157600080fd5b506104ca612429565b604051808781526020018681526020018573ffffffffffffffffffffffffffffffffffffffff1673ffffffffffffffffffffffffffffffffffffffff1681526020018481526020018315151515815260200182151515158152602001965050505050505060405180910390f35b34801561054357600080fd5b5061054c61248d565b6040518082815260200191505060405180910390f35b34801561056e57600080fd5b5061059b6004803603602081101561058557600080fd5b8101908080359060200190929190505050612493565b60405180806020018873ffffffffffffffffffffffffffffffffffffffff1673ffffffffffffffffffffffffffffffffffffffff1681526020018781526020018673ffffffffffffffffffffffffffffffffffffffff1673ffffffffffffffffffffffffffffffffffffffff1681526020018581526020018481526020018060200183810383528a818151815260200191508051906020019080838360005b8381101561065557808201518184015260208101905061063a565b50505050905090810190601f1680156106825780820380516001836020036101000a031916815260200191505b50838103825284818151815260200191508051906020019080838360005b838110156106bb5780820151818401526020810190506106a0565b50505050905090810190601f1680156106e85780820380516001836020036101000a031916815260200191505b50995050505050505050505060405180910390f35b34801561070957600080fd5b506107366004803603602081101561072057600080fd5b81019080803590602001909291905050506127df565b005b34801561074457600080fd5b506107876004803603602081101561075b57600080fd5b81019080803573ffffffffffffffffffffffffffffffffffffffff169060200190929190505050612b96565b6040518082815260200191505060405180910390f35b3480156107a957600080fd5b506107b2612cb7565b6040518082815260200191505060405180910390f35b3480156107d457600080fd5b50610801600480360360208110156107eb57600080fd5b8101908080359060200190929190505050612cc4565b005b600061080e33612b96565b11610881576040517f08c379a000000000000000000000000000000000000000000000000000000000815260040180806020018281038252600f8152602001807f6e6565642068617320736861726573000000000000000000000000000000000081525060200191505060405180910390fd5b3373ffffffffffffffffffffffffffffffffffffffff166000809054906101000a900473ffffffffffffffffffffffffffffffffffffffff1673ffffffffffffffffffffffffffffffffffffffff1614610943576040517f08c379a00000000000000000000000000000000000000000000000000000000081526004018080602001828103825260168152602001807f73656e6465722073686f756c64206265206f776e65720000000000000000000081525060200191505060405180910390fd5b60038054905081106109bd576040517f08c379a00000000000000000000000000000000000000000000000000000000081526004018080602001828103825260178152602001807f70726f706f73616c20646f6573206e6f7420657869737400000000000000000081525060200191505060405180910390fd5b6000600382815481106109cc57fe5b90600052602060002090600f02019050600015158160090160029054906101000a900460ff16151514610a67576040517f08c379a00000000000000000000000000000000000000000000000000000000081526004018080602001828103825260198152602001807f70726f706f73616c20686173206265656e2061626f727465640000000000000081525060200191505060405180910390fd5b600015158160090160039054906101000a900460ff16151514610ad5576040517f08c379a00000000000000000000000000000000000000000000000000000000081526004018080602001828103825260218152602001806132496021913960400191505060405180910390fd5b60018160090160036101000a81548160ff0219169083151502179055507f4dd71d695f483140e64665d169717b10391cfa6f1a1349ae26f4d0e1f104cbfb826001604051808381526020018260ff1681526020019250505060405180910390a15050565b600080600080600080610b4a6130b1565b60038881548110610b5757fe5b90600052602060002090600f0201604051806101e001604052908160008201548152602001600182018054600181600116156101000203166002900480601f016020809104026020016040519081016040528092919081815260200182805460018160011615610100020316600290048015610c145780601f10610be957610100808354040283529160200191610c14565b820191906000526020600020905b815481529060010190602001808311610bf757829003601f168201915b505050505081526020016002820160009054906101000a900473ffffffffffffffffffffffffffffffffffffffff1673ffffffffffffffffffffffffffffffffffffffff1673ffffffffffffffffffffffffffffffffffffffff1681526020016003820154815260200160048201548152602001600582015481526020016006820160009054906101000a900473ffffffffffffffffffffffffffffffffffffffff1673ffffffffffffffffffffffffffffffffffffffff1673ffffffffffffffffffffffffffffffffffffffff16815260200160078201548152602001600882015481526020016009820160009054906101000a900460ff161515151581526020016009820160019054906101000a900460ff161515151581526020016009820160029054906101000a900460ff161515151581526020016009820160039054906101000a900460ff16151515158152602001600b82018054600181600116156101000203166002900480601f016020809104026020016040519081016040528092919081815260200182805460018160011615610100020316600290048015610e005780601f10610dd557610100808354040283529160200191610e00565b820191906000526020600020905b815481529060010190602001808311610de357829003601f168201915b50505050508152602001600c82016040518060600160405290816000820154815260200160018201548152602001600282015481525050815250509050806060015181608001518261012001518361014001518461016001518561018001519650965096509650965096505091939550919395565b6003805490508110610eef576040517f08c379a00000000000000000000000000000000000000000000000000000000081526004018080602001828103825260178152602001807f70726f706f73616c20646f6573206e6f7420657869737400000000000000000081525060200191505060405180910390fd5b600060038281548110610efe57fe5b90600052602060002090600f02019050600115158160090160019054906101000a900460ff16151514610f99576040517f08c379a00000000000000000000000000000000000000000000000000000000081526004018080602001828103825260168152602001807f70726f706f73616c20646f6573206e6f7420706173730000000000000000000081525060200191505060405180910390fd5b8060060160009054906101000a900473ffffffffffffffffffffffffffffffffffffffff1673ffffffffffffffffffffffffffffffffffffffff163373ffffffffffffffffffffffffffffffffffffffff161461105e576040517f08c379a00000000000000000000000000000000000000000000000000000000081526004018080602001828103825260188152602001807f73656e646572206d75737420626520726563697069656e74000000000000000081525060200191505060405180910390fd5b611066613161565b81600c0160405180606001604052908160008201548152602001600182015481526020016002820154815250509050600081604001511161110f576040517f08c379a00000000000000000000000000000000000000000000000000000000081526004018080602001828103825260088152602001807f6e6f206d6f6e657900000000000000000000000000000000000000000000000081525060200191505060405180910390fd5b600062015180826000015142038161112357fe5b04905060006201518083600001518460200151038161113e57fe5b049050600080821461115f57828285604001518161115857fe5b0402611165565b83604001515b90503073ffffffffffffffffffffffffffffffffffffffff163181106111f3576040517f08c379a00000000000000000000000000000000000000000000000000000000081526004018080602001828103825260108152602001807f6e6f7420656e6f756768206d6f6e65790000000000000000000000000000000081525060200191505060405180910390fd5b62015180830284600001510185600c01600001819055508085600c016002016000828254039250508190555060008460400151101561127d576040517f08c379a000000000000000000000000000000000000000000000000000000000815260040180806020018281038252602281526020018061326a6022913960400191505060405180910390fd5b3373ffffffffffffffffffffffffffffffffffffffff166108fc829081150290604051600060405180830381858888f193505050501580156112c3573d6000803e3d6000fd5b507f1349a842787148ed05f4f2c10415b49589067c03461437c8f320aa81adc9d763868287600c0160020154426040518085815260200184815260200183815260200182815260200194505050505060405180910390a1505050505050565b600860009054906101000a900473ffffffffffffffffffffffffffffffffffffffff1681565b600061135333612b96565b116113c6576040517f08c379a000000000000000000000000000000000000000000000000000000000815260040180806020018281038252600f8152602001807f6e6565642068617320736861726573000000000000000000000000000000000081525060200191505060405180910390fd5b600073ffffffffffffffffffffffffffffffffffffffff168473ffffffffffffffffffffffffffffffffffffffff161415611469576040517f08c379a00000000000000000000000000000000000000000000000000000000081526004018080602001828103825260198152602001807f5f726563697069656e742063616e6e6f74206265206e756c6c0000000000000081525060200191505060405180910390fd5b600083116114df576040517f08c379a00000000000000000000000000000000000000000000000000000000081526004018080602001828103825260168152602001807f76616c7565206e656564206d6f7265207468616e20300000000000000000000081525060200191505060405180910390fd5b6000821015611556576040517f08c379a000000000000000000000000000000000000000000000000000000000815260040180806020018281038252601f8152602001807f5f74696d65436f6e73756d696e672063616e74206c657373207468616e20300081525060200191505060405180910390fd5b600f5434146115cd576040517f08c379a00000000000000000000000000000000000000000000000000000000081526004018080602001828103825260108152602001807f6e6565642070726f706f73616c4665650000000000000000000000000000000081525060200191505060405180910390fd5b6115d56130b1565b604051806101e0016040528060038054905081526020018781526020013373ffffffffffffffffffffffffffffffffffffffff16815260200160008152602001600081526020014281526020018673ffffffffffffffffffffffffffffffffffffffff16815260200185815260200184815260200160001515815260200160001515815260200160001515815260200160001515815260200183815260200160405180606001604052806000815260200160008152602001600081525081525090507f2502a88482d0c9326f614b5d37916990c3b58ad0abf3acd0ad73b36ce3f2f3818160000151826020015183604001518460a001518560c001518660e00151876101000151886101a0015160405180898152602001806020018873ffffffffffffffffffffffffffffffffffffffff1673ffffffffffffffffffffffffffffffffffffffff1681526020018781526020018673ffffffffffffffffffffffffffffffffffffffff1673ffffffffffffffffffffffffffffffffffffffff1681526020018581526020018481526020018060200183810383528a818151815260200191508051906020019080838360005b838110156117a2578082015181840152602081019050611787565b50505050905090810190601f1680156117cf5780820380516001836020036101000a031916815260200191505b50838103825284818151815260200191508051906020019080838360005b838110156118085780820151818401526020810190506117ed565b50505050905090810190601f1680156118355780820380516001836020036101000a031916815260200191505b509a505050505050505050505060405180910390a16003819080600181540180825580915050906001820390600052602060002090600f02016000909192909190915060008201518160000155602082015181600101908051906020019061189e929190613182565b5060408201518160020160006101000a81548173ffffffffffffffffffffffffffffffffffffffff021916908373ffffffffffffffffffffffffffffffffffffffff160217905550606082015181600301556080820151816004015560a0820151816005015560c08201518160060160006101000a81548173ffffffffffffffffffffffffffffffffffffffff021916908373ffffffffffffffffffffffffffffffffffffffff16021790555060e0820151816007015561010082015181600801556101208201518160090160006101000a81548160ff0219169083151502179055506101408201518160090160016101000a81548160ff0219169083151502179055506101608201518160090160026101000a81548160ff0219169083151502179055506101808201518160090160036101000a81548160ff0219169083151502179055506101a082015181600b019080519060200190611a01929190613182565b506101c082015181600c016000820151816000015560208201518160010155604082015181600201555050505050505050505050565b6000806000611a446130b1565b60038581548110611a5157fe5b90600052602060002090600f0201604051806101e001604052908160008201548152602001600182018054600181600116156101000203166002900480601f016020809104026020016040519081016040528092919081815260200182805460018160011615610100020316600290048015611b0e5780601f10611ae357610100808354040283529160200191611b0e565b820191906000526020600020905b815481529060010190602001808311611af157829003601f168201915b505050505081526020016002820160009054906101000a900473ffffffffffffffffffffffffffffffffffffffff1673ffffffffffffffffffffffffffffffffffffffff1673ffffffffffffffffffffffffffffffffffffffff1681526020016003820154815260200160048201548152602001600582015481526020016006820160009054906101000a900473ffffffffffffffffffffffffffffffffffffffff1673ffffffffffffffffffffffffffffffffffffffff1673ffffffffffffffffffffffffffffffffffffffff16815260200160078201548152602001600882015481526020016009820160009054906101000a900460ff161515151581526020016009820160019054906101000a900460ff161515151581526020016009820160029054906101000a900460ff161515151581526020016009820160039054906101000a900460ff16151515158152602001600b82018054600181600116156101000203166002900480601f016020809104026020016040519081016040528092919081815260200182805460018160011615610100020316600290048015611cfa5780601f10611ccf57610100808354040283529160200191611cfa565b820191906000526020600020905b815481529060010190602001808311611cdd57829003601f168201915b50505050508152602001600c82016040518060600160405290816000820154815260200160018201548152602001600282015481525050815250509050806101c00151600001519350806101c00151602001519250806101c00151604001519150509193909250565b6000611d6e33612b96565b11611de1576040517f08c379a000000000000000000000000000000000000000000000000000000000815260040180806020018281038252600f8152602001807f6e6565642068617320736861726573000000000000000000000000000000000081525060200191505060405180910390fd5b6003805490508210611e5b576040517f08c379a00000000000000000000000000000000000000000000000000000000081526004018080602001828103825260178152602001807f70726f706f73616c20646f6573206e6f7420657869737400000000000000000081525060200191505060405180910390fd5b600060038381548110611e6a57fe5b90600052602060002090600f02019050600154816005015401421115611ef8576040517f08c379a00000000000000000000000000000000000000000000000000000000081526004018080602001828103825260088152602001807f74696d65206f757400000000000000000000000000000000000000000000000081525060200191505060405180910390fd5b60006002811115611f0557fe5b81600a0160003373ffffffffffffffffffffffffffffffffffffffff1673ffffffffffffffffffffffffffffffffffffffff16815260200190815260200160002060009054906101000a900460ff166002811115611f5f57fe5b14611fd2576040517f08c379a00000000000000000000000000000000000000000000000000000000081526004018080602001828103825260148152602001807f566f7465732068617665206265656e206361737400000000000000000000000081525060200191505060405180910390fd5b60018260ff161480611fe7575060028260ff16145b612059576040517f08c379a000000000000000000000000000000000000000000000000000000000815260040180806020018281038252601f8152602001807f766f746520726573756c74206d757374206265206c657373207468616e20330081525060200191505060405180910390fd5b600015158160090160029054906101000a900460ff161515146120e4576040517f08c379a00000000000000000000000000000000000000000000000000000000081526004018080602001828103825260198152602001807f70726f706f73616c20686173206265656e2061626f727465640000000000000081525060200191505060405180910390fd5b600015158160090160039054906101000a900460ff16151514612152576040517f08c379a00000000000000000000000000000000000000000000000000000000081526004018080602001828103825260218152602001806132496021913960400191505060405180910390fd5b60008260ff16600281111561216357fe5b90508082600a0160003373ffffffffffffffffffffffffffffffffffffffff1673ffffffffffffffffffffffffffffffffffffffff16815260200190815260200160002060006101000a81548160ff021916908360028111156121c257fe5b021790555060006121d233612b96565b90506000811161224a576040517f08c379a00000000000000000000000000000000000000000000000000000000081526004018080602001828103825260128152602001807f736861726573206e656564206d6f72652030000000000000000000000000000081525060200191505060405180910390fd5b6001600281111561225757fe5b82600281111561226357fe5b141561227d5780836003015401836003018190555061228d565b8083600401540183600401819055505b7f7bd2d7de17e7b97c7c3a2d9c6e15e0d1240b76c274a0515641e0574b78b0a17e336001878785604051808673ffffffffffffffffffffffffffffffffffffffff1673ffffffffffffffffffffffffffffffffffffffff1681526020018560ff1681526020018481526020018360ff1660ff1681526020018281526020019550505050505060405180910390a15050505050565b600073ffffffffffffffffffffffffffffffffffffffff16600860009054906101000a900473ffffffffffffffffffffffffffffffffffffffff1673ffffffffffffffffffffffffffffffffffffffff16146123e5576040517f08c379a000000000000000000000000000000000000000000000000000000000815260040180806020018281038252600a8152602001807f666972737420696e69740000000000000000000000000000000000000000000081525060200191505060405180910390fd5b80600860006101000a81548173ffffffffffffffffffffffffffffffffffffffff021916908373ffffffffffffffffffffffffffffffffffffffff16021790555050565b60098060000154908060020154908060030160009054906101000a900473ffffffffffffffffffffffffffffffffffffffff16908060040154908060050160009054906101000a900460ff16908060050160019054906101000a900460ff16905086565b600f5481565b6060600080600080600060606124a76130b1565b600389815481106124b457fe5b90600052602060002090600f0201604051806101e001604052908160008201548152602001600182018054600181600116156101000203166002900480601f0160208091040260200160405190810160405280929190818152602001828054600181600116156101000203166002900480156125715780601f1061254657610100808354040283529160200191612571565b820191906000526020600020905b81548152906001019060200180831161255457829003601f168201915b505050505081526020016002820160009054906101000a900473ffffffffffffffffffffffffffffffffffffffff1673ffffffffffffffffffffffffffffffffffffffff1673ffffffffffffffffffffffffffffffffffffffff1681526020016003820154815260200160048201548152602001600582015481526020016006820160009054906101000a900473ffffffffffffffffffffffffffffffffffffffff1673ffffffffffffffffffffffffffffffffffffffff1673ffffffffffffffffffffffffffffffffffffffff16815260200160078201548152602001600882015481526020016009820160009054906101000a900460ff161515151581526020016009820160019054906101000a900460ff161515151581526020016009820160029054906101000a900460ff161515151581526020016009820160039054906101000a900460ff16151515158152602001600b82018054600181600116156101000203166002900480601f01602080910402602001604051908101604052809291908181526020018280546001816001161561010002031660029004801561275d5780601f106127325761010080835404028352916020019161275d565b820191906000526020600020905b81548152906001019060200180831161274057829003601f168201915b50505050508152602001600c82016040518060600160405290816000820154815260200160018201548152602001600282015481525050815250509050806020015181604001518260a001518360c001518460e00151856101000151866101a00151869650809050975097509750975097509750975050919395979092949650565b60006127ea33612b96565b1161285d576040517f08c379a000000000000000000000000000000000000000000000000000000000815260040180806020018281038252600f8152602001807f6e6565642068617320736861726573000000000000000000000000000000000081525060200191505060405180910390fd5b60038054905081106128d7576040517f08c379a00000000000000000000000000000000000000000000000000000000081526004018080602001828103825260178152602001807f70726f706f73616c20646f6573206e6f7420657869737400000000000000000081525060200191505060405180910390fd5b6000600382815481106128e657fe5b90600052602060002090600f020190503373ffffffffffffffffffffffffffffffffffffffff168160020160009054906101000a900473ffffffffffffffffffffffffffffffffffffffff1673ffffffffffffffffffffffffffffffffffffffff16146129bb576040517f08c379a00000000000000000000000000000000000000000000000000000000081526004018080602001828103825260198152602001807f73656e6465722073686f756c642062652070726f706f7365720000000000000081525060200191505060405180910390fd5b600154816005015401421115612a39576040517f08c379a00000000000000000000000000000000000000000000000000000000081526004018080602001828103825260088152602001807f74696d65206f757400000000000000000000000000000000000000000000000081525060200191505060405180910390fd5b600015158160090160039054906101000a900460ff16151514612aa7576040517f08c379a00000000000000000000000000000000000000000000000000000000081526004018080602001828103825260218152602001806132496021913960400191505060405180910390fd5b600015158160090160029054906101000a900460ff16151514612b32576040517f08c379a00000000000000000000000000000000000000000000000000000000081526004018080602001828103825260198152602001807f70726f706f73616c20686173206265656e2061626f727465640000000000000081525060200191505060405180910390fd5b60018160090160026101000a81548160ff0219169083151502179055507fab43be3e2fe9c2c14d03825811dc4b99a67b763d76fa5b061107eb64f1b3228e826002604051808381526020018260ff1681526020019250505060405180910390a15050565b600080829050600073ffffffffffffffffffffffffffffffffffffffff168173ffffffffffffffffffffffffffffffffffffffff161415612bd5573390505b600860009054906101000a900473ffffffffffffffffffffffffffffffffffffffff1673ffffffffffffffffffffffffffffffffffffffff166327e235e3826040518263ffffffff1660e01b8152600401808273ffffffffffffffffffffffffffffffffffffffff1673ffffffffffffffffffffffffffffffffffffffff16815260200191505060206040518083038186803b158015612c7457600080fd5b505afa158015612c88573d6000803e3d6000fd5b505050506040513d6020811015612c9e57600080fd5b8101908080519060200190929190505050915050919050565b6000600380549050905090565b6003805490508110612d3e576040517f08c379a00000000000000000000000000000000000000000000000000000000081526004018080602001828103825260178152602001807f70726f706f73616c20646f6573206e6f7420657869737400000000000000000081525060200191505060405180910390fd5b600060038281548110612d4d57fe5b90600052602060002090600f020190506001548160050154014211612dda576040517f08c379a000000000000000000000000000000000000000000000000000000000815260040180806020018281038252601b8152602001807f697427732077697468696e20746865206578706972792064617465000000000081525060200191505060405180910390fd5b600015158160090160009054906101000a900460ff16151514612e65576040517f08c379a00000000000000000000000000000000000000000000000000000000081526004018080602001828103825260198152602001807f70726f706f73616c20686173206265656e2070726f636573730000000000000081525060200191505060405180910390fd5b600015158160090160029054906101000a900460ff16151514612ef0576040517f08c379a00000000000000000000000000000000000000000000000000000000081526004018080602001828103825260198152602001807f70726f706f73616c20686173206265656e2061626f727465640000000000000081525060200191505060405180910390fd5b600015158160090160039054906101000a900460ff16151514612f5e576040517f08c379a00000000000000000000000000000000000000000000000000000000081526004018080602001828103825260218152602001806132496021913960400191505060405180910390fd5b60018160090160006101000a81548160ff0219169083151502179055503373ffffffffffffffffffffffffffffffffffffffff166108fc600f549081150290604051600060405180830381858888f19350505050158015612fc3573d6000803e3d6000fd5b5080600401548160030154111561304d5760018160090160016101000a81548160ff021916908315150217905550612ff9613161565b60405180606001604052804281526020016201518084600801540242018152602001836007015481525090508082600c01600082015181600001556020820151816001015560408201518160020155905050505b7fa57b37291ff10328134d6f1d9e57eb794c79daeee2d2850fcbb68094230150938260018360090160019054906101000a900460ff16604051808481526020018360ff16815260200182151515158152602001935050505060405180910390a15050565b6040518061022001604052806000815260200160608152602001600073ffffffffffffffffffffffffffffffffffffffff168152602001600081526020016000815260200160008152602001600073ffffffffffffffffffffffffffffffffffffffff16815260200160008152602001600081526020016000151581526020016000151581526020016000151581526020016000151581526020016060815260200161315b613202565b81525090565b60405180606001604052806000815260200160008152602001600081525090565b828054600181600116156101000203166002900490600052602060002090601f016020900481019282601f106131c357805160ff19168380011785556131f1565b828001600101855582156131f1579182015b828111156131f05782518255916020019190600101906131d5565b5b5090506131fe9190613223565b5090565b60405180606001604052806000815260200160008152602001600081525090565b61324591905b80821115613241576000816000905550600101613229565b5090565b9056fe70726f706f73616c20686173206265656e206f6e655469636b65745265667573657461702e746f74616c43616e4d6f6e65792063616e74206c657373207468616e2030a165627a7a72305820b690b282d0c14bfa2a477fb402b359cd5edb71145a5bed594f3963133afca8920029",
  "source": "pragma solidity >=0.4.22 <0.6.0;\nimport \"./FundPool.sol\";\n\n/// @title \n/// @author viko\n/// @notice \ncontract Vote{\n    /// @notice \n    address owner;\n\n    /// @notice 14\n    uint votingPeriodLength = 14 days;\n\n    /// @notice \n    uint clearingVotingPeriodLehgth = 7 days;\n\n    /// @notice eth\n    Proposal[] proposalQueue;\n\n    /// @notice \n    ClearingProposal[] clearingProposalQueue;\n\n    /// @notice \n    Proposal_Common[] commonProposalQueue;\n\n    /// @notice \n    mapping(uint256=>uint256) clearingValue;\n\n    /// @notice \n    uint256 totalClearingVlaue;\n\n    /// @notice \n    FundPool public fundPool;\n\n    /// @notice \n    //address public projectFactoryAddress;\n\n    /// @notice   \n    ClearingProposal public cur_clearingProposal;\n\n    /// @notice \n    uint256 public proposalFee = 10 finney; //0.01eth\n\n    /// @notice eth\n    struct Proposal{\n        uint256 index;//\n        string proposalName; //\n        address proposer; //\n        uint256 approveVotes; //\n        uint256 refuseVotes; //\n        uint256 startTime; //\n        address recipient; //gas\n        uint256 value; //\n        uint256 timeConsuming; // 30\n        bool process; //\n        bool pass; //\n        bool abort;//\n        bool oneTicketRefuse;//\n        mapping(address => enumVoteResult) voteDetails;\n        string detail; //\n        Tap tap;\n    }\n\n    /// @notice \n    struct Proposal_Common{\n        uint256 index;//\n        string proposalName; //\n        address proposer; //\n        uint256 approveVotes; //\n        uint256 refuseVotes; //\n        uint256 startTime; //\n        bytes execScript; //bytes\n        address execContract; //contract\n        bool process; //\n        bool pass; //\n        bool abort;//\n        bool oneTicketRefuse;//\n        mapping(address => enumVoteResult) voteDetails;\n        string detail; //\n    }\n\n    /// @notice \n    struct ClearingProposal{\n        uint256 index;\n        mapping(address => uint256) clearingList;//\n        uint256 startTime;//\n        address proposer;//\n        uint256 totalShares;//\n        bool pass; //\n        bool process; //\n    }\n\n    /// @notice \n    struct Tap{\n        uint256 startTime;\n        uint256 endTime;\n        uint256 totalMoney;\n    }\n\n    /// @notice \n    enum enumVoteResult {\n        waiver,\n        approve,\n        refuse\n    }\n\n    /* events */\n    /// @param index proposalName proposer startTime recipient value timeConsuming ,detail \n    event OnApplyProposal(\n        uint256 index,\n        string proposalName,\n        address proposer,\n        uint256 startTime,\n        address recipient,\n        uint256 value,\n        uint256 timeConsuming,\n        string detail\n    );\n\n    /// @param index proposalName proposer startTime execScript  ,execContrac \n    event OnApplyCommonProposal(\n        uint256 index,\n        string proposalName,\n        address proposer,\n        uint256 startTime,\n        bytes execScript,\n        address execContract\n    );\n\n    /// @param who  ,proposalType index ,voteResult shares \n    event OnVote(\n        address who,\n        uint8 proposalType,\n        uint256 index,\n        uint8 voteResult,\n        uint256 shares\n    );\n\n    /// @param index proposalType , pass \n    event OnProcess(\n        uint256 index,\n        uint8 proposalType,\n        bool pass\n    );\n\n    /// @param index ,proposalType \n    event OnAbort(\n        uint256 index,\n        uint8 proposalType\n    );\n\n    /// @param index ,proposalType \n    event OnOneTicketRefuse(\n        uint256 index,\n        uint8 proposalType\n    );\n\n    /// @param index getMoney totalMoney getTime \n    event OnGetMoney(\n        uint256 index,\n        uint256 getMoney,\n        uint256 totalMoney,\n        uint256 getTime\n    );\n\n    /// @param proposer ,startTime \n    event OnApplyClearingProposal(\n        uint256 index,\n        address proposer,\n        uint256 startTime\n    );\n\n    /// @param who ,shares \n    event OnVoteClearingProposal(\n        uint256 index,\n        address who,\n        uint256 shares\n    );\n\n    /// @param proposer ,startTime ,totalShares ,pass \n    event OnProcessClearingProposal(\n        uint256 index,\n        address proposer,\n        uint256 startTime,\n        uint256 totalShares,\n        bool pass\n    );\n\n    event OnTest(address u);\n\n    /// @notice \n    modifier isOwner() {\n        require(owner == msg.sender, \"limited authority\");\n        _;\n    }\n\n    modifier ownShares() {\n        require(getSharesOf(msg.sender)>0, \"need has shares\");\n        _;\n    }\n\n    constructor() public{\n        owner = msg.sender;\n    }\n\n    /// @notice vote\n    function unsafe_setFundPool(FundPool _fundPool) public{\n        require(address(fundPool) == address(0),\"first init\");\n        fundPool = _fundPool;\n    }\n\n    /// @notice \n    function getLengthOfProposalQueue() public view returns(uint256){\n        return proposalQueue.length;\n    }\n\n    /// @notice index\n    /// @param proposalIndex \n    function getProposalInfoByIndex(uint256 proposalIndex) public view returns(\n        string memory,\n        address,\n        uint256,\n        address,\n        uint256,\n        uint256,\n        string memory details\n    )\n    {\n        Proposal memory proposal = proposalQueue[proposalIndex];\n        return(\n            proposal.proposalName,\n            proposal.proposer,\n            proposal.startTime,\n            proposal.recipient,\n            proposal.value,\n            proposal.timeConsuming,\n            proposal.detail\n            );\n    }\n\n    /// @notice index\n    /// @param proposalIndex \n    function getProposalStateByIndex(uint256 proposalIndex) public view returns(\n        uint256,\n        uint256,\n        bool,\n        bool,\n        bool,\n        bool\n    )\n    {\n        Proposal memory proposal = proposalQueue[proposalIndex];\n        return(proposal.approveVotes,proposal.refuseVotes,proposal.process,proposal.pass,proposal.abort,proposal.oneTicketRefuse);\n    }\n\n    /// @notice \n    /// @param proposalIndex \n    function getTapByIndex(uint256 proposalIndex) public view returns(\n        uint256 startTime,\n        uint256 endTime,\n        uint256 money\n    )\n    {\n        Proposal memory proposal = proposalQueue[proposalIndex];\n        startTime = proposal.tap.startTime;\n        endTime = proposal.tap.endTime;\n        money = proposal.tap.totalMoney;\n    }\n\n    /// @notice \n    /// @param _address \n    function getSharesOf(address _address)\n    public\n    view\n    returns(uint256){\n        address who = _address;\n        if(who == address(0))\n            who = msg.sender;\n        return fundPool.balances(who);\n    }\n\n    /// @notice \n    /// @param _name _recipient _value _timeConsuming _detail \n    function applyProposal(\n        string memory _name,\n        address _recipient,\n        uint256 _value,\n        uint256 _timeConsuming,\n        string memory _detail\n    )\n        public\n        payable\n        ownShares()\n    {\n        require(_recipient != address(0),\"_recipient cannot be null\");\n        require(_value>0,\"value need more than 0\");\n        require(_timeConsuming>=0,\"_timeConsuming cant less than 0\");\n        //gas\n        require(msg.value == proposalFee, \"need proposalFee\");\n        Proposal memory proposal = Proposal({\n            index : proposalQueue.length,\n            proposalName : _name,\n            proposer : msg.sender,\n            approveVotes : 0,\n            refuseVotes : 0,\n            startTime : now,\n            recipient : _recipient,\n            value : _value,\n            timeConsuming : _timeConsuming,\n            process : false,\n            pass : false,\n            abort : false,\n            oneTicketRefuse : false,\n            detail : _detail,\n            tap : Tap({startTime:0,endTime:0,totalMoney:0})\n        });\n        emit OnApplyProposal(\n            proposal.index,\n            proposal.proposalName,\n            proposal.proposer,\n            proposal.startTime,\n            proposal.recipient,\n            proposal.value,\n            proposal.timeConsuming,\n            proposal.detail\n        );\n        proposalQueue.push(proposal);\n    }\n\n    /// @notice \n    /// @param proposalIndex \n    function abortProposal(uint256 proposalIndex) public ownShares(){\n        //\n        require(proposalIndex<proposalQueue.length,\"proposal does not exist\");\n        Proposal storage proposal = proposalQueue[proposalIndex];\n        //\n        require(proposal.proposer == msg.sender,\"sender should be proposer\");\n        //\n        require(now <= proposal.startTime + votingPeriodLength,\"time out\");\n        //\n        require(proposal.oneTicketRefuse == false,\"proposal has been oneTicketRefuse\");\n        //\n        require(proposal.abort == false,\"proposal has been aborted\");\n        proposal.abort = true;\n        emit OnAbort(proposalIndex,2);\n    }\n\n    /// @notice \n    /// @dev \n    /// @param proposalIndex \n    function oneTicketRefuseProposal(uint256 proposalIndex) public ownShares() {\n        //\n        require(owner == msg.sender,\"sender should be owner\");\n        //\n        require(proposalIndex<proposalQueue.length,\"proposal does not exist\");\n        Proposal storage proposal = proposalQueue[proposalIndex];\n        //\n        require(proposal.abort == false,\"proposal has been aborted\");\n        //\n        require(proposal.oneTicketRefuse == false,\"proposal has been oneTicketRefuse\");\n\n        proposal.oneTicketRefuse = true;\n        emit OnOneTicketRefuse(proposalIndex,1);\n    }\n\n    /// @notice \n    /// @param proposalIndex result \n    function vote(uint256 proposalIndex,uint8 result) public ownShares() {\n        //\n        require(proposalIndex<proposalQueue.length,\"proposal does not exist\");\n        Proposal storage proposal = proposalQueue[proposalIndex];\n        //\n        require(now <= proposal.startTime + votingPeriodLength,\"time out\");\n        //\n        require(proposal.voteDetails[msg.sender] == enumVoteResult.waiver,\"Votes have been cast\");\n        //\n        require(result == 1||result == 2,\"vote result must be less than 3\");\n        //\n        require(proposal.abort == false,\"proposal has been aborted\");\n        //\n        require(proposal.oneTicketRefuse == false,\"proposal has been oneTicketRefuse\");\n        //\n        enumVoteResult voteResult = enumVoteResult(result);\n        proposal.voteDetails[msg.sender] = voteResult;\n        //\n        uint256 shares = getSharesOf(msg.sender);\n        //\n        require(shares > 0,\"shares need more 0\");\n        if(voteResult == enumVoteResult.approve){\n            proposal.approveVotes = proposal.approveVotes + shares;\n        }\n        else{\n            proposal.refuseVotes = proposal.refuseVotes + shares;\n        }\n        emit OnVote(msg.sender,1,proposalIndex,result,shares);\n    }\n\n    /// @notice \n    /// @param proposalIndex \n    function process(uint256 proposalIndex) public {\n        //\n        require(proposalIndex<proposalQueue.length,\"proposal does not exist\");\n        Proposal storage proposal = proposalQueue[proposalIndex];\n        //\n        require(now > proposal.startTime + votingPeriodLength,\"it's within the expiry date\");\n        //\n        require(proposal.process == false,\"proposal has been process\");\n        //\n        require(proposal.abort == false,\"proposal has been aborted\");\n        //\n        require(proposal.oneTicketRefuse == false,\"proposal has been oneTicketRefuse\");\n        proposal.process = true;\n        //\n        msg.sender.transfer(proposalFee);\n        //\n        if(proposal.approveVotes>proposal.refuseVotes){\n            proposal.pass = true;\n            // \n            Tap memory tap = Tap({\n                startTime : now,\n                endTime : now + proposal.timeConsuming * 1 days,\n                totalMoney : proposal.value\n            });\n            proposal.tap = tap;\n        }\n        emit OnProcess(proposalIndex,1,proposal.pass);\n    }\n\n    /// @notice \n    /// @param proposalIndex \n    function getMoney(uint256 proposalIndex) public {\n        //\n        require(proposalIndex<proposalQueue.length,\"proposal does not exist\");\n        Proposal storage proposal = proposalQueue[proposalIndex];\n        //\n        require(proposal.pass == true,\"proposal does not pass\");\n        //\n        require(msg.sender == proposal.recipient,\"sender must be recipient\");\n        Tap memory tap = proposal.tap;\n        require(tap.totalMoney > 0,\"no money\");\n        //\n        uint256 times = (now - tap.startTime) / 1 days;\n        uint256 allTimes = (tap.endTime - tap.startTime) / 1 days;\n        uint256 canGetMoney = allTimes == 0?tap.totalMoney: tap.totalMoney / allTimes * times;\n        require(canGetMoney < address(this).balance,\"not enough money\");\n        proposal.tap.startTime = tap.startTime + (times * 1 days);\n        proposal.tap.totalMoney -= canGetMoney;\n        require(tap.totalMoney >= 0,\"tap.totalCanMoney cant less than 0\");\n        msg.sender.transfer(canGetMoney);\n        emit OnGetMoney(proposalIndex,canGetMoney, proposal.tap.totalMoney,now);\n    }\n    /*\n    /// @notice \n    /// @dev \n    function applyCommonProposal(\n        string memory _name,\n        address _execContract,\n        bytes memory _execScript,\n        string memory _detail\n    )\n        public\n        payable\n        ownShares()\n    {\n        //\n        require(msg.value == proposalFee, \"need proposalFee\");\n        //\n        Proposal_Common memory p = Proposal_Common({\n        index : commonProposalQueue.length,\n        proposalName : _name,\n        proposer : msg.sender,\n        approveVotes : 0,\n        refuseVotes : 0,\n        startTime : now,\n        execScript : _execScript,\n        execContract : _execContract,\n        process : false,\n        pass : false,\n        abort : false,\n        oneTicketRefuse : false,\n        detail : _detail\n        });\n        commonProposalQueue.push(p);\n        //\n        emit OnApplyCommonProposal(p.index,p.proposalName,p.proposer,p.startTime,p.execScript,p.execContract);\n    }\n\n    /// @notice \n    /// @param proposalIndex result \n    function voteCommon(uint256 proposalIndex,uint8 result) public ownShares() {\n        //\n        require(proposalIndex<commonProposalQueue.length,\"proposal does not exist\");\n        Proposal_Common storage proposal = commonProposalQueue[proposalIndex];\n        //\n        require(now <= proposal.startTime + votingPeriodLength,\"time out\");\n        //\n        require(proposal.voteDetails[msg.sender] == enumVoteResult.waiver,\"Votes have been cast\");\n        //\n        require(result == 1||result == 2,\"vote result must be less than 3\");\n        //\n        require(proposal.abort == false,\"proposal has been aborted\");\n        //\n        require(proposal.oneTicketRefuse == false,\"proposal has been oneTicketRefuse\");\n        //\n        enumVoteResult voteResult = enumVoteResult(result);\n        proposal.voteDetails[msg.sender] = voteResult;\n        //\n        uint256 shares = getSharesOf(msg.sender);\n        //\n        require(shares > 0,\"shares need more 0\");\n        if(voteResult == enumVoteResult.approve){\n            proposal.approveVotes = proposal.approveVotes + shares;\n        }\n        else{\n            proposal.refuseVotes = proposal.refuseVotes + shares;\n        }\n        emit OnVote(msg.sender,2,proposalIndex,result,shares);\n    }\n\n    /// @notice \n    function processCommon(uint256 proposalIndex) public {\n        //\n        require(proposalIndex<commonProposalQueue.length,\"proposal does not exist\");\n        Proposal_Common storage proposal = commonProposalQueue[proposalIndex];\n        //\n        require(now > proposal.startTime + votingPeriodLength,\"it's within the expiry date\");\n        //\n        require(proposal.process == false,\"proposal has been process\");\n        //\n        require(proposal.abort == false,\"proposal has been aborted\");\n        //\n        require(proposal.oneTicketRefuse == false,\"proposal has been oneTicketRefuse\");\n        proposal.process = true;\n        //\n        msg.sender.transfer(proposalFee);\n        //\n        if(proposal.approveVotes>proposal.refuseVotes){\n            proposal.pass = true;\n            //\n             (bool success,) = proposal.execContract.call(proposal.execScript);\n             require(success, \"call failed\");\n        }\n        emit OnProcess(proposalIndex,2,proposal.pass);\n    }\n\n    /// @notice \n    /// @dev \n    function applyClearingProposal() public payable{\n        uint256 shares = getSharesOf(msg.sender);\n        require(shares > 0,\"shares need more than 0\");\n        //\n        require(cur_clearingProposal.proposer == address(0),\"Only one proposal is allowed\");\n        cur_clearingProposal = ClearingProposal({\n            index : clearingProposalQueue.length,\n            proposer : msg.sender,\n            totalShares : 0,\n            startTime : now,\n            pass : false,\n            process :false\n        });\n        //\n        require(msg.value == proposalFee, \"need proposalFee\");\n        clearingProposalQueue.push(cur_clearingProposal);\n        emit OnApplyClearingProposal(cur_clearingProposal.index,cur_clearingProposal.proposer,cur_clearingProposal.startTime);\n    }\n\n    /// @notice \n    function voteClearingProposal() public{\n        uint256 shares = getSharesOf(msg.sender);\n        require(shares > 0,\"shares need more than 0\");\n        //7\n        require(now <= cur_clearingProposal.startTime + clearingVotingPeriodLehgth,\"time out\");\n        cur_clearingProposal.clearingList[msg.sender] += shares;\n        cur_clearingProposal.totalShares += shares;\n        //fundpool\n        (bool success,) = address(fundPool).call(abi.encodeWithSignature(\"unsafe_lockFnd(address,uint256)\",msg.sender,cur_clearingProposal.index));\n        require(success, \"call failed\");\n        emit OnVoteClearingProposal(cur_clearingProposal.index,msg.sender,shares);\n    }\n\n    /// @notice \n    function processClearingProposal() public{\n        //7\n        require(now > cur_clearingProposal.startTime + clearingVotingPeriodLehgth,\"it's within the expiry date\");\n        require(cur_clearingProposal.process == false, \"needs proposals have not been addressed\");\n        //fnd\n        uint256 totalFnd = fundPool.totalSupply();\n        uint hold = cur_clearingProposal.totalShares * 1000 / totalFnd;\n        if(hold < 300){\n            cur_clearingProposal.pass = false;\n        }\n        else{\n            cur_clearingProposal.pass = true;\n            //\n            uint256 value = cur_clearingProposal.totalShares * 1000 * address(this).balance / totalFnd / 1000 + 1;\n            clearingValue[cur_clearingProposal.index] = value;\n            totalClearingVlaue+=value;\n            //fundpool\n            (bool success,) = address(fundPool).call(abi.encodeWithSignature(\"unsafe_clearing(address,uint256)\",cur_clearingProposal.totalShares,cur_clearingProposal.index));\n            require(success, \"call failed\");\n        }\n        //\n        cur_clearingProposal.process = true;\n        //\n        msg.sender.transfer(proposalFee);\n        //\n        emit OnProcessClearingProposal(\n            cur_clearingProposal.index,\n            cur_clearingProposal.proposer,\n            cur_clearingProposal.startTime,\n            cur_clearingProposal.totalShares,\n            cur_clearingProposal.pass\n        );\n\n        //\n        cur_clearingProposal = ClearingProposal({\n            index : 0,\n            proposer : address(0),\n            totalShares : 0,\n            startTime : 0,\n            pass : false,\n            process : false\n        });\n    }\n\n    /// @notice \n    function unLockShares(uint256 clearingProposalIndex) public {\n        ClearingProposal storage clearingProposal = clearingProposalQueue[clearingProposalIndex];\n        require(clearingProposal.clearingList[msg.sender] > 0,\"need voted\");\n        require(clearingProposal.pass = false,\"need proposal failed\");\n        require(now > clearingProposal.startTime + clearingVotingPeriodLehgth, \"it's within the expiry date\");\n        require(cur_clearingProposal.process == false, \"needs proposals have not been addressed\");\n        (bool success,) =address(fundPool).call(abi.encodeWithSignature(\"unsafe_unLockFnd(address,uint256)\",msg.sender,clearingProposalIndex));\n        require(success, \"call failed\");\n        clearingProposal.clearingList[msg.sender] = 0;\n    }\n\n    /// @notice \n    function getClearingValue(uint256 clearingProposalIndex) public {\n        ClearingProposal storage clearingProposal = clearingProposalQueue[clearingProposalIndex];\n        require(clearingProposal.clearingList[msg.sender] > 0,\"need voted\");\n        require(clearingProposal.pass = true,\"need proposal pass\");\n        require(now > clearingProposal.startTime + clearingVotingPeriodLehgth, \"it's within the expiry date\");\n        require(cur_clearingProposal.process == false, \"needs proposals have not been addressed\");\n        (bool success,) = address(fundPool).call(\n            abi.encodeWithSignature(\"unsafe_getClearingValue(address,uint256)\",msg.sender,clearingProposalIndex)\n        );\n        require(success, \"call failed\");\n        uint256 shares = clearingProposal.clearingList[msg.sender];\n        uint256 totalShares = clearingProposal.totalShares;\n        uint256 totalValue = clearingValue[clearingProposalIndex];\n        uint256 value = shares * totalValue * 1000 / totalShares / 1000;\n        msg.sender.transfer(value);\n        totalClearingVlaue -= value;\n        clearingProposal.clearingList[msg.sender] = 0;\n    }\n    */\n    function() external payable{\n    }\n}",
  "sourcePath": "/Users/yinwei//eth/FD_Contract_ETH/V3/contracts/Vote.sol",
  "compiler": {
    "name": "solc",
    "version": "0.5.8+commit.23d335f2.Emscripten.clang"
  },
  "schemaVersion": "3.0.11",
  "updatedAt": "2019-07-24T08:09:40.255Z",
  "devdoc": {
    "author": "viko",
    "methods": {
      "abortProposal(uint256)": {
        "params": {
          "proposalIndex": ""
        }
      },
      "applyProposal(string,address,uint256,uint256,string)": {
        "params": {
          "_name": "_recipient _value _timeConsuming _detail "
        }
      },
      "getMoney(uint256)": {
        "params": {
          "proposalIndex": ""
        }
      },
      "getProposalInfoByIndex(uint256)": {
        "params": {
          "proposalIndex": ""
        }
      },
      "getProposalStateByIndex(uint256)": {
        "params": {
          "proposalIndex": ""
        }
      },
      "getSharesOf(address)": {
        "params": {
          "_address": ""
        }
      },
      "getTapByIndex(uint256)": {
        "params": {
          "proposalIndex": ""
        }
      },
      "oneTicketRefuseProposal(uint256)": {
        "details": "",
        "params": {
          "proposalIndex": ""
        }
      },
      "process(uint256)": {
        "params": {
          "proposalIndex": ""
        }
      },
      "vote(uint256,uint8)": {
        "params": {
          "proposalIndex": "result "
        }
      }
    },
    "title": ""
  },
  "userdoc": {
    "methods": {
      "abortProposal(uint256)": {
        "notice": ""
      },
      "applyProposal(string,address,uint256,uint256,string)": {
        "notice": ""
      },
      "getLengthOfProposalQueue()": {
        "notice": ""
      },
      "getMoney(uint256)": {
        "notice": ""
      },
      "getProposalInfoByIndex(uint256)": {
        "notice": "index"
      },
      "getProposalStateByIndex(uint256)": {
        "notice": "index"
      },
      "getSharesOf(address)": {
        "notice": ""
      },
      "getTapByIndex(uint256)": {
        "notice": ""
      },
      "oneTicketRefuseProposal(uint256)": {
        "notice": ""
      },
      "process(uint256)": {
        "notice": ""
      },
      "unsafe_setFundPool(address)": {
        "notice": "vote"
      },
      "vote(uint256,uint8)": {
        "notice": ""
      }
    },
    "notice": ""
  }
}