{
  "contractName": "Vote_ChangeMonthlyAllocationRatio",
  "abi": [
    {
      "constant": true,
      "inputs": [],
      "name": "assetAddress",
      "outputs": [
        {
          "name": "",
          "type": "address"
        }
      ],
      "payable": false,
      "stateMutability": "view",
      "type": "function"
    },
    {
      "constant": true,
      "inputs": [
        {
          "name": "approveVotes",
          "type": "uint256"
        },
        {
          "name": "refuseVotes",
          "type": "uint256"
        }
      ],
      "name": "canPass",
      "outputs": [
        {
          "name": "r",
          "type": "bool"
        },
        {
          "name": "_voteRatio_1000",
          "type": "uint256"
        },
        {
          "name": "_approveRatio_1000",
          "type": "uint256"
        }
      ],
      "payable": false,
      "stateMutability": "view",
      "type": "function"
    },
    {
      "constant": true,
      "inputs": [],
      "name": "approveRatio",
      "outputs": [
        {
          "name": "",
          "type": "uint256"
        }
      ],
      "payable": false,
      "stateMutability": "view",
      "type": "function"
    },
    {
      "constant": true,
      "inputs": [],
      "name": "voteRatio",
      "outputs": [
        {
          "name": "",
          "type": "uint256"
        }
      ],
      "payable": false,
      "stateMutability": "view",
      "type": "function"
    },
    {
      "constant": true,
      "inputs": [],
      "name": "getAppManagerAddress",
      "outputs": [
        {
          "name": "",
          "type": "address"
        }
      ],
      "payable": false,
      "stateMutability": "view",
      "type": "function"
    },
    {
      "constant": true,
      "inputs": [
        {
          "name": "_addr",
          "type": "address"
        }
      ],
      "name": "getBalanceOf",
      "outputs": [
        {
          "name": "",
          "type": "uint256"
        }
      ],
      "payable": false,
      "stateMutability": "view",
      "type": "function"
    },
    {
      "constant": true,
      "inputs": [],
      "name": "proposalFee",
      "outputs": [
        {
          "name": "",
          "type": "uint256"
        }
      ],
      "payable": false,
      "stateMutability": "view",
      "type": "function"
    },
    {
      "constant": true,
      "inputs": [],
      "name": "getTotalSupply",
      "outputs": [
        {
          "name": "",
          "type": "uint256"
        }
      ],
      "payable": false,
      "stateMutability": "view",
      "type": "function"
    },
    {
      "constant": true,
      "inputs": [],
      "name": "EMPTY_PARAM_HASH",
      "outputs": [
        {
          "name": "",
          "type": "bytes32"
        }
      ],
      "payable": false,
      "stateMutability": "view",
      "type": "function"
    },
    {
      "constant": true,
      "inputs": [],
      "name": "deposit",
      "outputs": [
        {
          "name": "",
          "type": "uint256"
        }
      ],
      "payable": false,
      "stateMutability": "view",
      "type": "function"
    },
    {
      "constant": true,
      "inputs": [],
      "name": "voteRatio_1000",
      "outputs": [
        {
          "name": "",
          "type": "uint256"
        }
      ],
      "payable": false,
      "stateMutability": "view",
      "type": "function"
    },
    {
      "constant": true,
      "inputs": [
        {
          "name": "_addr",
          "type": "address"
        }
      ],
      "name": "balance",
      "outputs": [
        {
          "name": "",
          "type": "uint256"
        }
      ],
      "payable": false,
      "stateMutability": "view",
      "type": "function"
    },
    {
      "constant": true,
      "inputs": [],
      "name": "approveRatio_1000",
      "outputs": [
        {
          "name": "",
          "type": "uint256"
        }
      ],
      "payable": false,
      "stateMutability": "view",
      "type": "function"
    },
    {
      "constant": true,
      "inputs": [],
      "name": "appManager",
      "outputs": [
        {
          "name": "",
          "type": "address"
        }
      ],
      "payable": false,
      "stateMutability": "view",
      "type": "function"
    },
    {
      "constant": true,
      "inputs": [],
      "name": "sharesAddress",
      "outputs": [
        {
          "name": "",
          "type": "address"
        }
      ],
      "payable": false,
      "stateMutability": "view",
      "type": "function"
    },
    {
      "inputs": [
        {
          "name": "_appManager",
          "type": "address"
        },
        {
          "name": "_sharesAddress",
          "type": "address"
        },
        {
          "name": "_tradeAddress",
          "type": "address"
        },
        {
          "name": "_voteRatio",
          "type": "uint256"
        },
        {
          "name": "_approveRatio",
          "type": "uint256"
        }
      ],
      "payable": false,
      "stateMutability": "nonpayable",
      "type": "constructor"
    },
    {
      "payable": true,
      "stateMutability": "payable",
      "type": "fallback"
    },
    {
      "anonymous": false,
      "inputs": [
        {
          "indexed": false,
          "name": "index",
          "type": "uint256"
        },
        {
          "indexed": false,
          "name": "proposaler",
          "type": "address"
        },
        {
          "indexed": false,
          "name": "ratio",
          "type": "uint256"
        },
        {
          "indexed": false,
          "name": "votingStartTime",
          "type": "uint256"
        }
      ],
      "name": "OnApplyProposal",
      "type": "event"
    },
    {
      "anonymous": false,
      "inputs": [
        {
          "indexed": false,
          "name": "who",
          "type": "address"
        },
        {
          "indexed": false,
          "name": "index",
          "type": "uint256"
        },
        {
          "indexed": false,
          "name": "voteResult",
          "type": "uint8"
        },
        {
          "indexed": false,
          "name": "shares",
          "type": "uint256"
        }
      ],
      "name": "OnVote",
      "type": "event"
    },
    {
      "anonymous": false,
      "inputs": [
        {
          "indexed": false,
          "name": "index",
          "type": "uint256"
        }
      ],
      "name": "OnPass",
      "type": "event"
    },
    {
      "anonymous": false,
      "inputs": [
        {
          "indexed": false,
          "name": "index",
          "type": "uint256"
        }
      ],
      "name": "OnProcess",
      "type": "event"
    },
    {
      "constant": true,
      "inputs": [],
      "name": "getProposalQueueLength",
      "outputs": [
        {
          "name": "",
          "type": "uint256"
        }
      ],
      "payable": false,
      "stateMutability": "view",
      "type": "function"
    },
    {
      "constant": true,
      "inputs": [
        {
          "name": "_proposalIndex",
          "type": "uint256"
        }
      ],
      "name": "getProposalBaseInfoByIndex",
      "outputs": [
        {
          "name": "_proposer",
          "type": "address"
        },
        {
          "name": "_detail",
          "type": "string"
        }
      ],
      "payable": false,
      "stateMutability": "view",
      "type": "function"
    },
    {
      "constant": true,
      "inputs": [
        {
          "name": "_proposalIndex",
          "type": "uint256"
        }
      ],
      "name": "getProposalStateByIndex",
      "outputs": [
        {
          "name": "_approveVotes",
          "type": "uint256"
        },
        {
          "name": "_refuseVotes",
          "type": "uint256"
        },
        {
          "name": "_process",
          "type": "bool"
        },
        {
          "name": "_pass",
          "type": "bool"
        }
      ],
      "payable": false,
      "stateMutability": "view",
      "type": "function"
    },
    {
      "constant": false,
      "inputs": [
        {
          "name": "_ratio",
          "type": "uint256"
        },
        {
          "name": "_detail",
          "type": "string"
        }
      ],
      "name": "applyProposal",
      "outputs": [],
      "payable": true,
      "stateMutability": "payable",
      "type": "function"
    },
    {
      "constant": false,
      "inputs": [
        {
          "name": "_proposalIndex",
          "type": "uint256"
        },
        {
          "name": "result",
          "type": "uint8"
        },
        {
          "name": "sharesAmount",
          "type": "uint256"
        }
      ],
      "name": "vote",
      "outputs": [],
      "payable": false,
      "stateMutability": "nonpayable",
      "type": "function"
    },
    {
      "constant": false,
      "inputs": [
        {
          "name": "_proposalIndex",
          "type": "uint256"
        }
      ],
      "name": "process",
      "outputs": [],
      "payable": false,
      "stateMutability": "nonpayable",
      "type": "function"
    },
    {
      "constant": false,
      "inputs": [
        {
          "name": "_proposalIndexs",
          "type": "uint256[]"
        }
      ],
      "name": "getSharesBack",
      "outputs": [],
      "payable": false,
      "stateMutability": "nonpayable",
      "type": "function"
    }
  ],
  "bytecode": "0x608060405261012c60025561021c6003556000600660006101000a81548173ffffffffffffffffffffffffffffffffffffffff021916908373ffffffffffffffffffffffffffffffffffffffff1602179055506000600755600060085534801561006857600080fd5b5060405160a08061274f833981018060405260a081101561008857600080fd5b8101908080519060200190929190805190602001909291908051906020019092919080519060200190929190805190602001909291905050508484838383806000806101000a81548173ffffffffffffffffffffffffffffffffffffffff021916908373ffffffffffffffffffffffffffffffffffffffff1602179055505082600660006101000a81548173ffffffffffffffffffffffffffffffffffffffff021916908373ffffffffffffffffffffffffffffffffffffffff1602179055508160098190555080600a819055505050505083600660006101000a81548173ffffffffffffffffffffffffffffffffffffffff021916908373ffffffffffffffffffffffffffffffffffffffff16021790555082600d60006101000a81548173ffffffffffffffffffffffffffffffffffffffff021916908373ffffffffffffffffffffffffffffffffffffffff160217905550505050505061255f806101f06000396000f3fe6080604052600436106101355760003560e01c8063c27cabb5116100ab578063e3d670d71161006f578063e3d670d7146106ea578063e520251a1461074f578063e8105ef5146107a1578063ebe86c13146107cc578063f33670aa14610823578063ffb2c4791461087a57610135565b8063c27cabb514610613578063c4e41b221461063e578063c513f66e14610669578063d0e30db014610694578063d1acec11146106bf57610135565b806343f7b98a116100fd57806343f7b98a146103ef578063452f783c1461041a5780634c33007714610445578063759c7aa41461049c578063797daf70146105835780639b96eece146105ae57610135565b80631ab3c1d3146101375780631ba46cfd146101a3578063328899fb146101fa57806337259d62146102bf5780633c74523e14610384575b005b34801561014357600080fd5b506101706004803603602081101561015a57600080fd5b81019080803590602001909291905050506108b5565b60405180858152602001848152602001831515151581526020018215151515815260200194505050505060405180910390f35b3480156101af57600080fd5b506101b8610926565b604051808273ffffffffffffffffffffffffffffffffffffffff1673ffffffffffffffffffffffffffffffffffffffff16815260200191505060405180910390f35b34801561020657600080fd5b506102bd6004803603602081101561021d57600080fd5b810190808035906020019064010000000081111561023a57600080fd5b82018360208201111561024c57600080fd5b8035906020019184602083028401116401000000008311171561026e57600080fd5b919080806020026020016040519081016040528093929190818152602001838360200280828437600081840152601f19601f82011690508083019250505050505050919291929050505061094c565b005b610382600480360360408110156102d557600080fd5b8101908080359060200190929190803590602001906401000000008111156102fc57600080fd5b82018360208201111561030e57600080fd5b8035906020019184600183028401116401000000008311171561033057600080fd5b91908080601f016020809104026020016040519081016040528093929190818152602001838380828437600081840152601f19601f820116905080830192505050505050509192919290505050610ca5565b005b34801561039057600080fd5b506103c7600480360360408110156103a757600080fd5b810190808035906020019092919080359060200190929190505050610f4e565b6040518084151515158152602001838152602001828152602001935050505060405180910390f35b3480156103fb57600080fd5b50610404610ff0565b6040518082815260200191505060405180910390f35b34801561042657600080fd5b5061042f610ff6565b6040518082815260200191505060405180910390f35b34801561045157600080fd5b5061045a610ffc565b604051808273ffffffffffffffffffffffffffffffffffffffff1673ffffffffffffffffffffffffffffffffffffffff16815260200191505060405180910390f35b3480156104a857600080fd5b506104d5600480360360208110156104bf57600080fd5b8101908080359060200190929190505050611025565b604051808373ffffffffffffffffffffffffffffffffffffffff1673ffffffffffffffffffffffffffffffffffffffff16815260200180602001828103825283818151815260200191508051906020019080838360005b8381101561054757808201518184015260208101905061052c565b50505050905090810190601f1680156105745780820380516001836020036101000a031916815260200191505b50935050505060405180910390f35b34801561058f57600080fd5b50610598611122565b6040518082815260200191505060405180910390f35b3480156105ba57600080fd5b506105fd600480360360208110156105d157600080fd5b81019080803573ffffffffffffffffffffffffffffffffffffffff16906020019092919050505061112f565b6040518082815260200191505060405180910390f35b34801561061f57600080fd5b50610628611212565b6040518082815260200191505060405180910390f35b34801561064a57600080fd5b50610653611218565b6040518082815260200191505060405180910390f35b34801561067557600080fd5b5061067e6112c2565b6040518082815260200191505060405180910390f35b3480156106a057600080fd5b506106a96112e9565b6040518082815260200191505060405180910390f35b3480156106cb57600080fd5b506106d46112ef565b6040518082815260200191505060405180910390f35b3480156106f657600080fd5b506107396004803603602081101561070d57600080fd5b81019080803573ffffffffffffffffffffffffffffffffffffffff1690602001909291905050506112f5565b6040518082815260200191505060405180910390f35b34801561075b57600080fd5b5061079f6004803603606081101561077257600080fd5b8101908080359060200190929190803560ff169060200190929190803590602001909291905050506113d8565b005b3480156107ad57600080fd5b506107b6611af5565b6040518082815260200191505060405180910390f35b3480156107d857600080fd5b506107e1611afb565b604051808273ffffffffffffffffffffffffffffffffffffffff1673ffffffffffffffffffffffffffffffffffffffff16815260200191505060405180910390f35b34801561082f57600080fd5b50610838611b20565b604051808273ffffffffffffffffffffffffffffffffffffffff1673ffffffffffffffffffffffffffffffffffffffff16815260200191505060405180910390f35b34801561088657600080fd5b506108b36004803603602081101561089d57600080fd5b8101908080359060200190929190505050611b46565b005b60008060008060006108c686611e12565b90506000600b82815481106108d757fe5b90600052602060002090600a0201905080600301549550806004015494508060050160009054906101000a900460ff1693508060050160019054906101000a900460ff16925050509193509193565b600160009054906101000a900473ffffffffffffffffffffffffffffffffffffffff1681565b60008090505b8151811015610ca157600082828151811061096957fe5b60200260200101519050600b8054905081111580156109885750600081115b6109fa576040517f08c379a00000000000000000000000000000000000000000000000000000000081526004018080602001828103825260178152602001807f70726f706f73616c20646f6573206e6f7420657869737400000000000000000081525060200191505060405180910390fd5b6000610a0582611e12565b90506000600b8281548110610a1657fe5b90600052602060002090600a02019050600115158160050160019054906101000a900460ff1615151480610a5257506002548160060154014210155b610aa7576040517f08c379a00000000000000000000000000000000000000000000000000000000081526004018080602001828103825260258152602001806124cc6025913960400191505060405180910390fd5b6000600660009054906101000a900473ffffffffffffffffffffffffffffffffffffffff1673ffffffffffffffffffffffffffffffffffffffff1663a9059cbb338460080160003373ffffffffffffffffffffffffffffffffffffffff1673ffffffffffffffffffffffffffffffffffffffff168152602001908152602001600020600001546040518363ffffffff1660e01b8152600401808373ffffffffffffffffffffffffffffffffffffffff1673ffffffffffffffffffffffffffffffffffffffff16815260200182815260200192505050602060405180830381600087803b158015610b9657600080fd5b505af1158015610baa573d6000803e3d6000fd5b505050506040513d6020811015610bc057600080fd5b8101908080519060200190929190505050905060008260080160003373ffffffffffffffffffffffffffffffffffffffff1673ffffffffffffffffffffffffffffffffffffffff1681526020019081526020016000206000018190555080610c90576040517f08c379a00000000000000000000000000000000000000000000000000000000081526004018080602001828103825260158152602001807f736861726573207472616e73666572206572726f72000000000000000000000081525060200191505060405180910390fd5b505050508080600101915050610952565b5050565b6000610cb03361112f565b11610d23576040517f08c379a000000000000000000000000000000000000000000000000000000000815260040180806020018281038252600f8152602001807f6e6565642068617320736861726573000000000000000000000000000000000081525060200191505060405180910390fd5b610d34333060045460055401611ea6565b610d3c6123b9565b6040518061014001604052806001600b805490500181526020013373ffffffffffffffffffffffffffffffffffffffff168152602001848152602001600081526020016000815260200160001515815260200160001515815260200142815260200160008152602001838152509050600b819080600181540180825580915050906001820390600052602060002090600a0201600090919290919091506000820151816000015560208201518160010160006101000a81548173ffffffffffffffffffffffffffffffffffffffff021916908373ffffffffffffffffffffffffffffffffffffffff16021790555060408201518160020155606082015181600301556080820151816004015560a08201518160050160006101000a81548160ff02191690831515021790555060c08201518160050160016101000a81548160ff02191690831515021790555060e082015181600601556101008201518160070155610120820151816009019080519060200190610eba929190612426565b505050507f253405ef25a752cdcf0bc8b8c37f7c61137baf7070eb7fffca7fe19c7d9fa7438160000151826020015183604001518460e00151604051808581526020018473ffffffffffffffffffffffffffffffffffffffff1673ffffffffffffffffffffffffffffffffffffffff16815260200183815260200182815260200194505050505060405180910390a1505050565b600080600080610f67858761203b90919063ffffffff16565b9050610f97610f74611218565b610f896103e8846120c390919063ffffffff16565b61214990919063ffffffff16565b9250610fc081610fb26103e8896120c390919063ffffffff16565b61214990919063ffffffff16565b91506009546007541015610fd357600093505b600a546008541015610fe457600093505b60019350509250925092565b60085481565b60075481565b60008060009054906101000a900473ffffffffffffffffffffffffffffffffffffffff16905090565b60006060600061103484611e12565b90506000600b828154811061104557fe5b90600052602060002090600a020190508060010160009054906101000a900473ffffffffffffffffffffffffffffffffffffffff169350806009018054600181600116156101000203166002900480601f0160208091040260200160405190810160405280929190818152602001828054600181600116156101000203166002900480156111145780601f106110e957610100808354040283529160200191611114565b820191906000526020600020905b8154815290600101906020018083116110f757829003601f168201915b505050505092505050915091565b6000600b80549050905090565b6000600660009054906101000a900473ffffffffffffffffffffffffffffffffffffffff1673ffffffffffffffffffffffffffffffffffffffff166370a08231836040518263ffffffff1660e01b8152600401808273ffffffffffffffffffffffffffffffffffffffff1673ffffffffffffffffffffffffffffffffffffffff16815260200191505060206040518083038186803b1580156111d057600080fd5b505afa1580156111e4573d6000803e3d6000fd5b505050506040513d60208110156111fa57600080fd5b81019080805190602001909291905050509050919050565b60055481565b6000600660009054906101000a900473ffffffffffffffffffffffffffffffffffffffff1673ffffffffffffffffffffffffffffffffffffffff166318160ddd6040518163ffffffff1660e01b815260040160206040518083038186803b15801561128257600080fd5b505afa158015611296573d6000803e3d6000fd5b505050506040513d60208110156112ac57600080fd5b8101908080519060200190929190505050905090565b7f290decd9548b62a8d60345a988386fc84ba6bc95484008f6362f93160ef3e56360001b81565b60045481565b60095481565b6000600160009054906101000a900473ffffffffffffffffffffffffffffffffffffffff1673ffffffffffffffffffffffffffffffffffffffff166370a08231836040518263ffffffff1660e01b8152600401808273ffffffffffffffffffffffffffffffffffffffff1673ffffffffffffffffffffffffffffffffffffffff16815260200191505060206040518083038186803b15801561139657600080fd5b505afa1580156113aa573d6000803e3d6000fd5b505050506040513d60208110156113c057600080fd5b81019080805190602001909291905050509050919050565b60006113e33361112f565b11611456576040517f08c379a000000000000000000000000000000000000000000000000000000000815260040180806020018281038252600f8152602001807f6e6565642068617320736861726573000000000000000000000000000000000081525060200191505060405180910390fd5b600061146184611e12565b90506000600b828154811061147257fe5b90600052602060002090600a0201905060025481600601540142106114ff576040517f08c379a00000000000000000000000000000000000000000000000000000000081526004018080602001828103825260088152602001807f74696d65206f757400000000000000000000000000000000000000000000000081525060200191505060405180910390fd5b60018460ff161480611514575060028460ff16145b611586576040517f08c379a000000000000000000000000000000000000000000000000000000000815260040180806020018281038252601f8152602001807f766f746520726573756c74206d757374206265206c657373207468616e20330081525060200191505060405180910390fd5b600015158160050160019054906101000a900460ff16151514611611576040517f08c379a00000000000000000000000000000000000000000000000000000000081526004018080602001828103825260128152602001807f70726f706f73616c2063616e742070617373000000000000000000000000000081525060200191505060405180910390fd5b6000600281111561161e57fe5b8160080160003373ffffffffffffffffffffffffffffffffffffffff1673ffffffffffffffffffffffffffffffffffffffff16815260200190815260200160002060010160009054906101000a900460ff16600281111561167b57fe5b146116ee576040517f08c379a00000000000000000000000000000000000000000000000000000000081526004018080602001828103825260148152602001807f566f7465732068617665206265656e206361737400000000000000000000000081525060200191505060405180910390fd5b60008460ff1660028111156116ff57fe5b9050808260080160003373ffffffffffffffffffffffffffffffffffffffff1673ffffffffffffffffffffffffffffffffffffffff16815260200190815260200160002060010160006101000a81548160ff0219169083600281111561176157fe5b0217905550838260080160003373ffffffffffffffffffffffffffffffffffffffff1673ffffffffffffffffffffffffffffffffffffffff168152602001908152602001600020600001819055506000600660009054906101000a900473ffffffffffffffffffffffffffffffffffffffff1673ffffffffffffffffffffffffffffffffffffffff166323b872dd3330886040518463ffffffff1660e01b8152600401808473ffffffffffffffffffffffffffffffffffffffff1673ffffffffffffffffffffffffffffffffffffffff1681526020018373ffffffffffffffffffffffffffffffffffffffff1673ffffffffffffffffffffffffffffffffffffffff1681526020018281526020019350505050602060405180830381600087803b15801561188e57600080fd5b505af11580156118a2573d6000803e3d6000fd5b505050506040513d60208110156118b857600080fd5b810190808051906020019092919050505090508061193e576040517f08c379a00000000000000000000000000000000000000000000000000000000081526004018080602001828103825260158152602001807f736861726573207472616e73666572206572726f72000000000000000000000081525060200191505060405180910390fd5b6001600281111561194b57fe5b82600281111561195757fe5b141561197157848360030154018360030181905550611981565b8483600401540183600401819055505b7fbc64f9d6bf28430c0cbce4b563fdb6c057c9d05e7f68f3ef84c1c4b91efb940e33888888604051808573ffffffffffffffffffffffffffffffffffffffff1673ffffffffffffffffffffffffffffffffffffffff1681526020018481526020018360ff1660ff16815260200182815260200194505050505060405180910390a16000611a38611a0f611218565b611a2a8660040154876003015461203b90919063ffffffff16565b61214990919063ffffffff16565b90506000611a6d611a5a8660040154876003015461203b90919063ffffffff16565b866003015461214990919063ffffffff16565b90506007548210158015611a8357506008548110155b15611aea5760018560050160016101000a81548160ff0219169083151502179055504285600701819055507f38e7bbda606caec7d6928b67f78e2e5b159127292c642c4702b301ae1e75a23c85600001546040518082815260200191505060405180910390a15b505050505050505050565b600a5481565b6000809054906101000a900473ffffffffffffffffffffffffffffffffffffffff1681565b600660009054906101000a900473ffffffffffffffffffffffffffffffffffffffff1681565b6000611b5182611e12565b90506000600b8281548110611b6257fe5b90600052602060002090600a02019050600354600254826006015401014211611bd6576040517f08c379a00000000000000000000000000000000000000000000000000000000081526004018080602001828103825260228152602001806125126022913960400191505060405180910390fd5b600115158160050160019054906101000a900460ff16151514611c61576040517f08c379a00000000000000000000000000000000000000000000000000000000081526004018080602001828103825260128152602001807f70726f706f73616c206e6565642070617373000000000000000000000000000081525060200191505060405180910390fd5b600015158160050160009054906101000a900460ff16151514611cec576040517f08c379a00000000000000000000000000000000000000000000000000000000081526004018080602001828103825260198152602001807f70726f706f73616c20686173206265656e2070726f636573730000000000000081525060200191505060405180910390fd5b60018160050160006101000a81548160ff0219169083151502179055507f9351ad0db77a89c0836c30198d34259521e1dd1f69033188ce9eafccd51e1aa8836040518082815260200191505060405180910390a1600d60009054906101000a900473ffffffffffffffffffffffffffffffffffffffff1673ffffffffffffffffffffffffffffffffffffffff1663f6a3325382600201546040518263ffffffff1660e01b815260040180828152602001915050600060405180830381600087803b158015611db957600080fd5b505af1158015611dcd573d6000803e3d6000fd5b50505050611ddd33600554612193565b611e0d8160010160009054906101000a900473ffffffffffffffffffffffffffffffffffffffff16600454612193565b505050565b6000600b805490508211158015611e295750600082115b611e9b576040517f08c379a00000000000000000000000000000000000000000000000000000000081526004018080602001828103825260178152602001807f70726f706f73616c20646f6573206e6f7420657869737400000000000000000081525060200191505060405180910390fd5b600182039050919050565b6000600160009054906101000a900473ffffffffffffffffffffffffffffffffffffffff1673ffffffffffffffffffffffffffffffffffffffff166323b872dd8585856040518463ffffffff1660e01b8152600401808473ffffffffffffffffffffffffffffffffffffffff1673ffffffffffffffffffffffffffffffffffffffff1681526020018373ffffffffffffffffffffffffffffffffffffffff1673ffffffffffffffffffffffffffffffffffffffff1681526020018281526020019350505050602060405180830381600087803b158015611f8557600080fd5b505af1158015611f99573d6000803e3d6000fd5b505050506040513d6020811015611faf57600080fd5b8101908080519060200190929190505050905080612035576040517f08c379a00000000000000000000000000000000000000000000000000000000081526004018080602001828103825260188152602001807f6173736574207472616e7366657246726f6d206572726f72000000000000000081525060200191505060405180910390fd5b50505050565b6000808284019050838110156120b9576040517f08c379a000000000000000000000000000000000000000000000000000000000815260040180806020018281038252601b8152602001807f536166654d6174683a206164646974696f6e206f766572666c6f77000000000081525060200191505060405180910390fd5b8091505092915050565b6000808314156120d65760009050612143565b60008284029050828482816120e757fe5b041461213e576040517f08c379a00000000000000000000000000000000000000000000000000000000081526004018080602001828103825260218152602001806124f16021913960400191505060405180910390fd5b809150505b92915050565b600061218b83836040518060400160405280601a81526020017f536166654d6174683a206469766973696f6e206279207a65726f0000000000008152506122f3565b905092915050565b6000600160009054906101000a900473ffffffffffffffffffffffffffffffffffffffff1673ffffffffffffffffffffffffffffffffffffffff1663a9059cbb84846040518363ffffffff1660e01b8152600401808373ffffffffffffffffffffffffffffffffffffffff1673ffffffffffffffffffffffffffffffffffffffff16815260200182815260200192505050602060405180830381600087803b15801561223e57600080fd5b505af1158015612252573d6000803e3d6000fd5b505050506040513d602081101561226857600080fd5b81019080805190602001909291905050509050806122ee576040517f08c379a00000000000000000000000000000000000000000000000000000000081526004018080602001828103825260188152602001807f6173736574207472616e7366657246726f6d206572726f72000000000000000081525060200191505060405180910390fd5b505050565b6000808311829061239f576040517f08c379a00000000000000000000000000000000000000000000000000000000081526004018080602001828103825283818151815260200191508051906020019080838360005b83811015612364578082015181840152602081019050612349565b50505050905090810190601f1680156123915780820380516001836020036101000a031916815260200191505b509250505060405180910390fd5b5060008385816123ab57fe5b049050809150509392505050565b60405180610140016040528060008152602001600073ffffffffffffffffffffffffffffffffffffffff1681526020016000815260200160008152602001600081526020016000151581526020016000151581526020016000815260200160008152602001606081525090565b828054600181600116156101000203166002900490600052602060002090601f016020900481019282601f1061246757805160ff1916838001178555612495565b82800160010185558215612495579182015b82811115612494578251825591602001919060010190612479565b5b5090506124a291906124a6565b5090565b6124c891905b808211156124c45760008160009055506001016124ac565b5090565b9056fe70726f706f73616c206e6565642070726f63657373207c7c6e6565642074696d65206f7574536166654d6174683a206d756c7469706c69636174696f6e206f766572666c6f7753686f756c642065786365656420746865207075626c696369747920706572696f64a165627a7a7230582004afa59c7dcfc265fee315cb886004ea2525dbada49d4584496b22aca5b5839f0029",
  "source": "pragma solidity >=0.4.22 <0.6.0;\r\n\r\nimport \"./VoteApp.sol\";\r\nimport \"../Tap/Tap.sol\";\r\nimport \"../Interface/IDateTime.sol\";\r\nimport \"../Interface/ITradeFundPool.sol\";\r\n\r\ncontract Vote_ChangeMonthlyAllocationRatio is VoteApp{\r\n\r\n    /// @notice \r\n    Proposal[] private proposalQueue;\r\n\r\n    mapping(bytes32=>uint256) counter;\r\n\r\n    address private tradeAddress;\r\n\r\n    /// @notice \r\n    struct Proposal{\r\n        uint256 index;//\r\n        address payable proposer; //\r\n        uint256 ratio;\r\n        uint256 approveVotes; //\r\n        uint256 refuseVotes; //\r\n        bool process; //\r\n        bool pass; //\r\n        uint256 votingStartTime;//\r\n        uint256 publicityStartTime;//\r\n        mapping(address => VoteInfo) voteDetails;\r\n        string detail; //\r\n    }\r\n\r\n    /// @notice \r\n    event OnApplyProposal(\r\n        uint256 index,\r\n        address payable proposaler,\r\n        uint256 ratio,\r\n        uint256 votingStartTime\r\n    );\r\n\r\n    /// @param who \r\n    /// @param index \r\n    /// @param voteResult \r\n    /// @param shares \r\n    event OnVote(\r\n        address who,\r\n        uint256 index,\r\n        uint8 voteResult,\r\n        uint256 shares\r\n    );\r\n\r\n    /// @param index \r\n    event OnPass(uint256 index);\r\n\r\n    /// @param index \r\n    event OnProcess(\r\n        uint256 index\r\n    );\r\n\r\n    constructor(AppManager _appManager,address _sharesAddress,address _tradeAddress,uint256 _voteRatio,uint256 _approveRatio)\r\n    VoteApp(_appManager,_sharesAddress,_voteRatio,_approveRatio)\r\n    public\r\n    {\r\n        sharesAddress = _sharesAddress;\r\n        tradeAddress = _tradeAddress;\r\n    }\r\n\r\n    /////////////\r\n    /// \r\n    /////////////\r\n    //\r\n    function getProposalQueueLength() public view returns(uint256){\r\n        return proposalQueue.length;\r\n    }\r\n\r\n    ///index()\r\n    function getProposalBaseInfoByIndex(uint256 _proposalIndex)\r\n    public\r\n    view\r\n    returns(address _proposer,string memory _detail)\r\n    {\r\n        uint256 queueIndex = proposalIndexToQueueIndex(_proposalIndex);\r\n        Proposal storage proposal = proposalQueue[queueIndex];\r\n        _proposer = proposal.proposer;\r\n        _detail = proposal.detail;\r\n    }\r\n\r\n    ///\r\n    function getProposalStateByIndex(uint256 _proposalIndex)\r\n    public\r\n    view\r\n    returns(uint256 _approveVotes,uint256 _refuseVotes,bool _process,bool _pass)\r\n    {\r\n        uint256 queueIndex = proposalIndexToQueueIndex(_proposalIndex);\r\n        Proposal storage proposal = proposalQueue[queueIndex];\r\n        _approveVotes = proposal.approveVotes;\r\n        _refuseVotes = proposal.refuseVotes;\r\n        _process = proposal.process;\r\n        _pass = proposal.pass;\r\n    }\r\n\r\n    /// @notice \r\n    /// @param _detail \r\n    function applyProposal(\r\n        uint256 _ratio,\r\n        string memory _detail\r\n    )\r\n    public\r\n    payable\r\n    ownShares()\r\n    {\r\n        transferF(msg.sender,address(this),proposalFee + deposit);\r\n\r\n        Proposal memory proposal = Proposal({\r\n            index : proposalQueue.length + 1,\r\n            proposer : msg.sender,\r\n            approveVotes : 0,\r\n            refuseVotes : 0,\r\n            process : false,\r\n            pass : false,\r\n            ratio : _ratio,\r\n            detail : _detail,\r\n            votingStartTime : now,\r\n            publicityStartTime : 0\r\n        });\r\n        proposalQueue.push(proposal);\r\n\r\n        emit OnApplyProposal(\r\n            proposal.index,\r\n            proposal.proposer,\r\n            proposal.ratio,\r\n            proposal.votingStartTime\r\n        );\r\n    }\r\n\r\n    function vote(uint256 _proposalIndex,uint8 result,uint256 sharesAmount) public ownShares() {\r\n        //\r\n        uint256 queueIndex = proposalIndexToQueueIndex(_proposalIndex);\r\n        Proposal storage proposal = proposalQueue[queueIndex];\r\n        //\r\n        require(now < proposal.votingStartTime + votingPeriodLength,\"time out\");\r\n        //\r\n        require(result == 1||result == 2,\"vote result must be less than 3\");\r\n        //\r\n        require(proposal.pass == false,\"proposal cant pass\");\r\n        //\r\n        require(proposal.voteDetails[msg.sender].result == enumVoteResult.waiver,\"Votes have been cast\");\r\n        //\r\n        enumVoteResult voteResult = enumVoteResult(result);\r\n        proposal.voteDetails[msg.sender].result = voteResult;\r\n        proposal.voteDetails[msg.sender].sharesAmount = sharesAmount;\r\n        //\r\n        bool r = IERC20(sharesAddress).transferFrom(msg.sender,address(this),sharesAmount);\r\n        require(r,\"shares transfer error\");\r\n\r\n        if(voteResult == enumVoteResult.approve){\r\n            proposal.approveVotes = proposal.approveVotes + sharesAmount;\r\n        }\r\n        else{\r\n            proposal.refuseVotes = proposal.refuseVotes + sharesAmount;\r\n        }\r\n\r\n        emit OnVote(msg.sender,_proposalIndex,result,sharesAmount);\r\n\r\n        //\r\n        uint256 _voteRatio = (proposal.approveVotes.add(proposal.refuseVotes)).div(getTotalSupply());\r\n        uint256 _approveRatio = proposal.approveVotes.div(proposal.approveVotes.add(proposal.refuseVotes));\r\n        if(_voteRatio >= voteRatio && _approveRatio >= approveRatio){//\r\n            proposal.pass = true;\r\n            proposal.publicityStartTime = now;\r\n            emit OnPass(proposal.index);\r\n        }\r\n    }\r\n\r\n    /// @notice \r\n    /// @param _proposalIndex \r\n    function process(uint256 _proposalIndex) public {\r\n        uint256 queueIndex = proposalIndexToQueueIndex(_proposalIndex);\r\n        Proposal storage proposal = proposalQueue[queueIndex];\r\n        //\r\n        require(now > proposal.votingStartTime + votingPeriodLength + publicityPeriodLength,\"Should exceed the publicity period\");\r\n        //\r\n        require(proposal.pass == true,\"proposal need pass\");\r\n        //\r\n        require(proposal.process == false,\"proposal has been process\");\r\n        proposal.process = true;\r\n\r\n        emit OnProcess(_proposalIndex);\r\n\r\n        ////ratio\r\n        ITradeFundPool(tradeAddress).changeRatio(proposal.ratio);\r\n\r\n        //\r\n        transferM(msg.sender,proposalFee);\r\n        //\r\n        transferM(proposal.proposer,deposit);\r\n    }\r\n\r\n    function getSharesBack(uint256[] memory _proposalIndexs) public {\r\n        for(uint256 i = 0;i<_proposalIndexs.length;i++){\r\n            uint256 _proposalIndex = _proposalIndexs[i];\r\n            require(_proposalIndex <= proposalQueue.length && _proposalIndex>0,\"proposal does not exist\");\r\n            uint256 queueIndex = proposalIndexToQueueIndex(_proposalIndex);\r\n            Proposal storage proposal = proposalQueue[queueIndex];\r\n            // \r\n            require(proposal.pass == true || now >= proposal.votingStartTime + votingPeriodLength,\"proposal need process ||need time out\");\r\n            bool r = IERC20(sharesAddress).transfer(msg.sender,proposal.voteDetails[msg.sender].sharesAmount);\r\n            proposal.voteDetails[msg.sender].sharesAmount = 0;\r\n            require(r,\"shares transfer error\");\r\n        }\r\n    }\r\n\r\n    function proposalIndexToQueueIndex(uint256 _proposalIndex) private view returns(uint256){\r\n        //\r\n        require(_proposalIndex <= proposalQueue.length && _proposalIndex>0,\"proposal does not exist\");\r\n        return _proposalIndex - 1;\r\n    }\r\n\r\n    function() external payable{\r\n    }\r\n}",
  "sourcePath": "D:/_______work/FD_Contract_ETH/fd/contracts/Vote/Vote_ChangeMonthlyAllocationRatio.sol",
  "compiler": {
    "name": "solc",
    "version": "0.5.8+commit.23d335f2.Emscripten.clang"
  },
  "schemaVersion": "3.0.11",
  "updatedAt": "2019-11-19T07:22:37.320Z",
  "devdoc": {
    "methods": {
      "applyProposal(uint256,string)": {
        "params": {
          "_detail": ""
        }
      },
      "process(uint256)": {
        "params": {
          "_proposalIndex": ""
        }
      }
    }
  },
  "userdoc": {
    "methods": {
      "getBalanceOf(address)": {
        "notice": ""
      },
      "getProposalBaseInfoByIndex(uint256)": {
        "notice": "index()"
      },
      "getProposalQueueLength()": {
        "notice": "//////////"
      },
      "getProposalStateByIndex(uint256)": {
        "notice": ""
      },
      "getTotalSupply()": {
        "notice": ""
      }
    }
  }
}