{
  "contractName": "Vote_ChangeMonthlyAllocation",
  "abi": [
    {
      "constant": true,
      "inputs": [],
      "name": "assetAddress",
      "outputs": [
        {
          "name": "",
          "type": "address"
        }
      ],
      "payable": false,
      "stateMutability": "view",
      "type": "function"
    },
    {
      "constant": true,
      "inputs": [
        {
          "name": "approveVotes",
          "type": "uint256"
        },
        {
          "name": "refuseVotes",
          "type": "uint256"
        }
      ],
      "name": "canPass",
      "outputs": [
        {
          "name": "r",
          "type": "bool"
        },
        {
          "name": "_voteRatio_1000",
          "type": "uint256"
        },
        {
          "name": "_approveRatio_1000",
          "type": "uint256"
        }
      ],
      "payable": false,
      "stateMutability": "view",
      "type": "function"
    },
    {
      "constant": true,
      "inputs": [],
      "name": "approveRatio",
      "outputs": [
        {
          "name": "",
          "type": "uint256"
        }
      ],
      "payable": false,
      "stateMutability": "view",
      "type": "function"
    },
    {
      "constant": true,
      "inputs": [],
      "name": "voteRatio",
      "outputs": [
        {
          "name": "",
          "type": "uint256"
        }
      ],
      "payable": false,
      "stateMutability": "view",
      "type": "function"
    },
    {
      "constant": true,
      "inputs": [],
      "name": "getAppManagerAddress",
      "outputs": [
        {
          "name": "",
          "type": "address"
        }
      ],
      "payable": false,
      "stateMutability": "view",
      "type": "function"
    },
    {
      "constant": true,
      "inputs": [
        {
          "name": "_addr",
          "type": "address"
        }
      ],
      "name": "getBalanceOf",
      "outputs": [
        {
          "name": "",
          "type": "uint256"
        }
      ],
      "payable": false,
      "stateMutability": "view",
      "type": "function"
    },
    {
      "constant": true,
      "inputs": [],
      "name": "proposalFee",
      "outputs": [
        {
          "name": "",
          "type": "uint256"
        }
      ],
      "payable": false,
      "stateMutability": "view",
      "type": "function"
    },
    {
      "constant": true,
      "inputs": [],
      "name": "getTotalSupply",
      "outputs": [
        {
          "name": "",
          "type": "uint256"
        }
      ],
      "payable": false,
      "stateMutability": "view",
      "type": "function"
    },
    {
      "constant": true,
      "inputs": [],
      "name": "EMPTY_PARAM_HASH",
      "outputs": [
        {
          "name": "",
          "type": "bytes32"
        }
      ],
      "payable": false,
      "stateMutability": "view",
      "type": "function"
    },
    {
      "constant": true,
      "inputs": [],
      "name": "deposit",
      "outputs": [
        {
          "name": "",
          "type": "uint256"
        }
      ],
      "payable": false,
      "stateMutability": "view",
      "type": "function"
    },
    {
      "constant": true,
      "inputs": [],
      "name": "voteRatio_1000",
      "outputs": [
        {
          "name": "",
          "type": "uint256"
        }
      ],
      "payable": false,
      "stateMutability": "view",
      "type": "function"
    },
    {
      "constant": true,
      "inputs": [
        {
          "name": "_addr",
          "type": "address"
        }
      ],
      "name": "balance",
      "outputs": [
        {
          "name": "",
          "type": "uint256"
        }
      ],
      "payable": false,
      "stateMutability": "view",
      "type": "function"
    },
    {
      "constant": true,
      "inputs": [],
      "name": "approveRatio_1000",
      "outputs": [
        {
          "name": "",
          "type": "uint256"
        }
      ],
      "payable": false,
      "stateMutability": "view",
      "type": "function"
    },
    {
      "constant": true,
      "inputs": [],
      "name": "appManager",
      "outputs": [
        {
          "name": "",
          "type": "address"
        }
      ],
      "payable": false,
      "stateMutability": "view",
      "type": "function"
    },
    {
      "constant": true,
      "inputs": [],
      "name": "sharesAddress",
      "outputs": [
        {
          "name": "",
          "type": "address"
        }
      ],
      "payable": false,
      "stateMutability": "view",
      "type": "function"
    },
    {
      "inputs": [
        {
          "name": "_appManager",
          "type": "address"
        },
        {
          "name": "_sharesAddress",
          "type": "address"
        },
        {
          "name": "_tradeAddress",
          "type": "address"
        },
        {
          "name": "_voteRatio",
          "type": "uint256"
        },
        {
          "name": "_approveRatio",
          "type": "uint256"
        }
      ],
      "payable": false,
      "stateMutability": "nonpayable",
      "type": "constructor"
    },
    {
      "payable": true,
      "stateMutability": "payable",
      "type": "fallback"
    },
    {
      "anonymous": false,
      "inputs": [
        {
          "indexed": false,
          "name": "index",
          "type": "uint256"
        },
        {
          "indexed": false,
          "name": "proposaler",
          "type": "address"
        },
        {
          "indexed": false,
          "name": "ratio",
          "type": "uint256"
        },
        {
          "indexed": false,
          "name": "minValue",
          "type": "uint256"
        },
        {
          "indexed": false,
          "name": "maxValue",
          "type": "uint256"
        },
        {
          "indexed": false,
          "name": "votingStartTime",
          "type": "uint256"
        }
      ],
      "name": "OnApplyProposal",
      "type": "event"
    },
    {
      "anonymous": false,
      "inputs": [
        {
          "indexed": false,
          "name": "who",
          "type": "address"
        },
        {
          "indexed": false,
          "name": "index",
          "type": "uint256"
        },
        {
          "indexed": false,
          "name": "voteResult",
          "type": "uint8"
        },
        {
          "indexed": false,
          "name": "shares",
          "type": "uint256"
        }
      ],
      "name": "OnVote",
      "type": "event"
    },
    {
      "anonymous": false,
      "inputs": [
        {
          "indexed": false,
          "name": "index",
          "type": "uint256"
        }
      ],
      "name": "OnPass",
      "type": "event"
    },
    {
      "anonymous": false,
      "inputs": [
        {
          "indexed": false,
          "name": "index",
          "type": "uint256"
        }
      ],
      "name": "OnProcess",
      "type": "event"
    },
    {
      "constant": true,
      "inputs": [],
      "name": "getProposalQueueLength",
      "outputs": [
        {
          "name": "",
          "type": "uint256"
        }
      ],
      "payable": false,
      "stateMutability": "view",
      "type": "function"
    },
    {
      "constant": true,
      "inputs": [
        {
          "name": "_proposalIndex",
          "type": "uint256"
        }
      ],
      "name": "getProposalBaseInfoByIndex",
      "outputs": [
        {
          "name": "_proposer",
          "type": "address"
        },
        {
          "name": "_detail",
          "type": "string"
        }
      ],
      "payable": false,
      "stateMutability": "view",
      "type": "function"
    },
    {
      "constant": true,
      "inputs": [
        {
          "name": "_proposalIndex",
          "type": "uint256"
        }
      ],
      "name": "getProposalStateByIndex",
      "outputs": [
        {
          "name": "_approveVotes",
          "type": "uint256"
        },
        {
          "name": "_refuseVotes",
          "type": "uint256"
        },
        {
          "name": "_process",
          "type": "bool"
        },
        {
          "name": "_pass",
          "type": "bool"
        }
      ],
      "payable": false,
      "stateMutability": "view",
      "type": "function"
    },
    {
      "constant": false,
      "inputs": [
        {
          "name": "_ratio",
          "type": "uint256"
        },
        {
          "name": "_minValue",
          "type": "uint256"
        },
        {
          "name": "_maxValue",
          "type": "uint256"
        },
        {
          "name": "_detail",
          "type": "string"
        }
      ],
      "name": "applyProposal",
      "outputs": [],
      "payable": true,
      "stateMutability": "payable",
      "type": "function"
    },
    {
      "constant": false,
      "inputs": [
        {
          "name": "_proposalIndex",
          "type": "uint256"
        },
        {
          "name": "result",
          "type": "uint8"
        },
        {
          "name": "sharesAmount",
          "type": "uint256"
        }
      ],
      "name": "vote",
      "outputs": [],
      "payable": false,
      "stateMutability": "nonpayable",
      "type": "function"
    },
    {
      "constant": false,
      "inputs": [
        {
          "name": "_proposalIndex",
          "type": "uint256"
        }
      ],
      "name": "process",
      "outputs": [],
      "payable": false,
      "stateMutability": "nonpayable",
      "type": "function"
    }
  ],
  "bytecode": "0x608060405261012c60025561021c6003556000600660006101000a81548173ffffffffffffffffffffffffffffffffffffffff021916908373ffffffffffffffffffffffffffffffffffffffff1602179055506000600755600060085534801561006857600080fd5b5060405160a08061233d833981018060405260a081101561008857600080fd5b8101908080519060200190929190805190602001909291908051906020019092919080519060200190929190805190602001909291905050508484838383806000806101000a81548173ffffffffffffffffffffffffffffffffffffffff021916908373ffffffffffffffffffffffffffffffffffffffff1602179055505082600660006101000a81548173ffffffffffffffffffffffffffffffffffffffff021916908373ffffffffffffffffffffffffffffffffffffffff1602179055508160098190555080600a819055505050505083600660006101000a81548173ffffffffffffffffffffffffffffffffffffffff021916908373ffffffffffffffffffffffffffffffffffffffff16021790555082600d60006101000a81548173ffffffffffffffffffffffffffffffffffffffff021916908373ffffffffffffffffffffffffffffffffffffffff160217905550505050505061214d806101f06000396000f3fe60806040526004361061012a5760003560e01c8063c27cabb5116100ab578063e3d670d71161006f578063e3d670d71461062e578063e520251a14610693578063e8105ef5146106e5578063ebe86c1314610710578063f33670aa14610767578063ffb2c479146107be5761012a565b8063c27cabb514610557578063c4e41b2214610582578063c513f66e146105ad578063d0e30db0146105d8578063d1acec11146106035761012a565b80634c330077116100f25780634c330077146102b057806365da6a1014610307578063759c7aa4146103e0578063797daf70146104c75780639b96eece146104f25761012a565b80631ab3c1d31461012c5780631ba46cfd146101985780633c74523e146101ef57806343f7b98a1461025a578063452f783c14610285575b005b34801561013857600080fd5b506101656004803603602081101561014f57600080fd5b81019080803590602001909291905050506107f9565b60405180858152602001848152602001831515151581526020018215151515815260200194505050505060405180910390f35b3480156101a457600080fd5b506101ad61086a565b604051808273ffffffffffffffffffffffffffffffffffffffff1673ffffffffffffffffffffffffffffffffffffffff16815260200191505060405180910390f35b3480156101fb57600080fd5b506102326004803603604081101561021257600080fd5b810190808035906020019092919080359060200190929190505050610890565b6040518084151515158152602001838152602001828152602001935050505060405180910390f35b34801561026657600080fd5b5061026f610932565b6040518082815260200191505060405180910390f35b34801561029157600080fd5b5061029a610938565b6040518082815260200191505060405180910390f35b3480156102bc57600080fd5b506102c561093e565b604051808273ffffffffffffffffffffffffffffffffffffffff1673ffffffffffffffffffffffffffffffffffffffff16815260200191505060405180910390f35b6103de6004803603608081101561031d57600080fd5b810190808035906020019092919080359060200190929190803590602001909291908035906020019064010000000081111561035857600080fd5b82018360208201111561036a57600080fd5b8035906020019184600183028401116401000000008311171561038c57600080fd5b91908080601f016020809104026020016040519081016040528093929190818152602001838380828437600081840152601f19601f820116905080830192505050505050509192919290505050610967565b005b3480156103ec57600080fd5b506104196004803603602081101561040357600080fd5b8101908080359060200190929190505050610c4d565b604051808373ffffffffffffffffffffffffffffffffffffffff1673ffffffffffffffffffffffffffffffffffffffff16815260200180602001828103825283818151815260200191508051906020019080838360005b8381101561048b578082015181840152602081019050610470565b50505050905090810190601f1680156104b85780820380516001836020036101000a031916815260200191505b50935050505060405180910390f35b3480156104d357600080fd5b506104dc610d4a565b6040518082815260200191505060405180910390f35b3480156104fe57600080fd5b506105416004803603602081101561051557600080fd5b81019080803573ffffffffffffffffffffffffffffffffffffffff169060200190929190505050610d57565b6040518082815260200191505060405180910390f35b34801561056357600080fd5b5061056c610e3a565b6040518082815260200191505060405180910390f35b34801561058e57600080fd5b50610597610e40565b6040518082815260200191505060405180910390f35b3480156105b957600080fd5b506105c2610eea565b6040518082815260200191505060405180910390f35b3480156105e457600080fd5b506105ed610f11565b6040518082815260200191505060405180910390f35b34801561060f57600080fd5b50610618610f17565b6040518082815260200191505060405180910390f35b34801561063a57600080fd5b5061067d6004803603602081101561065157600080fd5b81019080803573ffffffffffffffffffffffffffffffffffffffff169060200190929190505050610f1d565b6040518082815260200191505060405180910390f35b34801561069f57600080fd5b506106e3600480360360608110156106b657600080fd5b8101908080359060200190929190803560ff16906020019092919080359060200190929190505050611000565b005b3480156106f157600080fd5b506106fa6116e2565b6040518082815260200191505060405180910390f35b34801561071c57600080fd5b506107256116e8565b604051808273ffffffffffffffffffffffffffffffffffffffff1673ffffffffffffffffffffffffffffffffffffffff16815260200191505060405180910390f35b34801561077357600080fd5b5061077c61170d565b604051808273ffffffffffffffffffffffffffffffffffffffff1673ffffffffffffffffffffffffffffffffffffffff16815260200191505060405180910390f35b3480156107ca57600080fd5b506107f7600480360360208110156107e157600080fd5b8101908080359060200190929190505050611733565b005b600080600080600061080a86611a17565b90506000600b828154811061081b57fe5b90600052602060002090600c0201905080600501549550806006015494508060070160009054906101000a900460ff1693508060070160019054906101000a900460ff16925050509193509193565b600160009054906101000a900473ffffffffffffffffffffffffffffffffffffffff1681565b6000806000806108a98587611aab90919063ffffffff16565b90506108d96108b6610e40565b6108cb6103e884611b3390919063ffffffff16565b611bb990919063ffffffff16565b9250610902816108f46103e889611b3390919063ffffffff16565b611bb990919063ffffffff16565b9150600954600754101561091557600093505b600a54600854101561092657600093505b60019350509250925092565b60085481565b60075481565b60008060009054906101000a900473ffffffffffffffffffffffffffffffffffffffff16905090565b600061097233610d57565b116109e5576040517f08c379a000000000000000000000000000000000000000000000000000000000815260040180806020018281038252600f8152602001807f6e6565642068617320736861726573000000000000000000000000000000000081525060200191505060405180910390fd5b6109f6333060045460055401611c03565b6109fe611fbe565b6040518061018001604052806001600b805490500181526020013373ffffffffffffffffffffffffffffffffffffffff168152602001868152602001858152602001848152602001600081526020016000815260200160001515815260200160001515815260200142815260200160008152602001838152509050600b819080600181540180825580915050906001820390600052602060002090600c0201600090919290919091506000820151816000015560208201518160010160006101000a81548173ffffffffffffffffffffffffffffffffffffffff021916908373ffffffffffffffffffffffffffffffffffffffff16021790555060408201518160020155606082015181600301556080820151816004015560a0820151816005015560c0820151816006015560e08201518160070160006101000a81548160ff0219169083151502179055506101008201518160070160016101000a81548160ff0219169083151502179055506101208201518160080155610140820151816009015561016082015181600b019080519060200190610b9e929190612039565b505050507fdcfafa1e9f5ed8c1acfc04da5c4d3f5ad38926d2e91d8b37872148da1462748781600001518260200151836040015184606001518560800151866101200151604051808781526020018673ffffffffffffffffffffffffffffffffffffffff1673ffffffffffffffffffffffffffffffffffffffff168152602001858152602001848152602001838152602001828152602001965050505050505060405180910390a15050505050565b600060606000610c5c84611a17565b90506000600b8281548110610c6d57fe5b90600052602060002090600c020190508060010160009054906101000a900473ffffffffffffffffffffffffffffffffffffffff16935080600b018054600181600116156101000203166002900480601f016020809104026020016040519081016040528092919081815260200182805460018160011615610100020316600290048015610d3c5780601f10610d1157610100808354040283529160200191610d3c565b820191906000526020600020905b815481529060010190602001808311610d1f57829003601f168201915b505050505092505050915091565b6000600b80549050905090565b6000600660009054906101000a900473ffffffffffffffffffffffffffffffffffffffff1673ffffffffffffffffffffffffffffffffffffffff166370a08231836040518263ffffffff1660e01b8152600401808273ffffffffffffffffffffffffffffffffffffffff1673ffffffffffffffffffffffffffffffffffffffff16815260200191505060206040518083038186803b158015610df857600080fd5b505afa158015610e0c573d6000803e3d6000fd5b505050506040513d6020811015610e2257600080fd5b81019080805190602001909291905050509050919050565b60055481565b6000600660009054906101000a900473ffffffffffffffffffffffffffffffffffffffff1673ffffffffffffffffffffffffffffffffffffffff166318160ddd6040518163ffffffff1660e01b815260040160206040518083038186803b158015610eaa57600080fd5b505afa158015610ebe573d6000803e3d6000fd5b505050506040513d6020811015610ed457600080fd5b8101908080519060200190929190505050905090565b7f290decd9548b62a8d60345a988386fc84ba6bc95484008f6362f93160ef3e56360001b81565b60045481565b60095481565b6000600160009054906101000a900473ffffffffffffffffffffffffffffffffffffffff1673ffffffffffffffffffffffffffffffffffffffff166370a08231836040518263ffffffff1660e01b8152600401808273ffffffffffffffffffffffffffffffffffffffff1673ffffffffffffffffffffffffffffffffffffffff16815260200191505060206040518083038186803b158015610fbe57600080fd5b505afa158015610fd2573d6000803e3d6000fd5b505050506040513d6020811015610fe857600080fd5b81019080805190602001909291905050509050919050565b600061100b33610d57565b1161107e576040517f08c379a000000000000000000000000000000000000000000000000000000000815260040180806020018281038252600f8152602001807f6e6565642068617320736861726573000000000000000000000000000000000081525060200191505060405180910390fd5b600061108984611a17565b90506000600b828154811061109a57fe5b90600052602060002090600c020190506002548160080154014210611127576040517f08c379a00000000000000000000000000000000000000000000000000000000081526004018080602001828103825260088152602001807f74696d65206f757400000000000000000000000000000000000000000000000081525060200191505060405180910390fd5b60018460ff16148061113c575060028460ff16145b6111ae576040517f08c379a000000000000000000000000000000000000000000000000000000000815260040180806020018281038252601f8152602001807f766f746520726573756c74206d757374206265206c657373207468616e20330081525060200191505060405180910390fd5b600015158160070160019054906101000a900460ff16151514611239576040517f08c379a00000000000000000000000000000000000000000000000000000000081526004018080602001828103825260128152602001807f70726f706f73616c2063616e742070617373000000000000000000000000000081525060200191505060405180910390fd5b6000600281111561124657fe5b81600a0160003373ffffffffffffffffffffffffffffffffffffffff1673ffffffffffffffffffffffffffffffffffffffff16815260200190815260200160002060010160009054906101000a900460ff1660028111156112a357fe5b14611316576040517f08c379a00000000000000000000000000000000000000000000000000000000081526004018080602001828103825260148152602001807f566f7465732068617665206265656e206361737400000000000000000000000081525060200191505060405180910390fd5b6000600660009054906101000a900473ffffffffffffffffffffffffffffffffffffffff1673ffffffffffffffffffffffffffffffffffffffff166370a08231336040518263ffffffff1660e01b8152600401808273ffffffffffffffffffffffffffffffffffffffff1673ffffffffffffffffffffffffffffffffffffffff16815260200191505060206040518083038186803b1580156113b757600080fd5b505afa1580156113cb573d6000803e3d6000fd5b505050506040513d60208110156113e157600080fd5b810190808051906020019092919050505090508381101561146a576040517f08c379a00000000000000000000000000000000000000000000000000000000081526004018080602001828103825260118152602001807f6e6f7420656e6f7567682073686172657300000000000000000000000000000081525060200191505060405180910390fd5b60008560ff16600281111561147b57fe5b90508083600a0160003373ffffffffffffffffffffffffffffffffffffffff1673ffffffffffffffffffffffffffffffffffffffff16815260200190815260200160002060010160006101000a81548160ff021916908360028111156114dd57fe5b02179055508483600a0160003373ffffffffffffffffffffffffffffffffffffffff1673ffffffffffffffffffffffffffffffffffffffff168152602001908152602001600020600001819055506001600281111561153857fe5b81600281111561154457fe5b141561155e5784836005015401836005018190555061156e565b8483600601540183600601819055505b7fbc64f9d6bf28430c0cbce4b563fdb6c057c9d05e7f68f3ef84c1c4b91efb940e33888888604051808573ffffffffffffffffffffffffffffffffffffffff1673ffffffffffffffffffffffffffffffffffffffff1681526020018481526020018360ff1660ff16815260200182815260200194505050505060405180910390a160006116256115fc610e40565b61161786600601548760050154611aab90919063ffffffff16565b611bb990919063ffffffff16565b9050600061165a61164786600601548760050154611aab90919063ffffffff16565b8660050154611bb990919063ffffffff16565b9050600754821015801561167057506008548110155b156116d75760018560070160016101000a81548160ff0219169083151502179055504285600901819055507f38e7bbda606caec7d6928b67f78e2e5b159127292c642c4702b301ae1e75a23c85600001546040518082815260200191505060405180910390a15b505050505050505050565b600a5481565b6000809054906101000a900473ffffffffffffffffffffffffffffffffffffffff1681565b600660009054906101000a900473ffffffffffffffffffffffffffffffffffffffff1681565b600061173e82611a17565b90506000600b828154811061174f57fe5b90600052602060002090600c020190506003546002548260080154010142116117c3576040517f08c379a00000000000000000000000000000000000000000000000000000000081526004018080602001828103825260228152602001806121006022913960400191505060405180910390fd5b600115158160070160019054906101000a900460ff1615151461184e576040517f08c379a00000000000000000000000000000000000000000000000000000000081526004018080602001828103825260128152602001807f70726f706f73616c206e6565642070617373000000000000000000000000000081525060200191505060405180910390fd5b600015158160070160009054906101000a900460ff161515146118d9576040517f08c379a00000000000000000000000000000000000000000000000000000000081526004018080602001828103825260198152602001807f70726f706f73616c20686173206265656e2070726f636573730000000000000081525060200191505060405180910390fd5b60018160070160006101000a81548160ff0219169083151502179055507f9351ad0db77a89c0836c30198d34259521e1dd1f69033188ce9eafccd51e1aa8836040518082815260200191505060405180910390a1600d60009054906101000a900473ffffffffffffffffffffffffffffffffffffffff1673ffffffffffffffffffffffffffffffffffffffff1663b79fc5268260020154836003015484600401546040518463ffffffff1660e01b8152600401808481526020018381526020018281526020019350505050600060405180830381600087803b1580156119be57600080fd5b505af11580156119d2573d6000803e3d6000fd5b505050506119e233600554611d98565b611a128160010160009054906101000a900473ffffffffffffffffffffffffffffffffffffffff16600454611d98565b505050565b6000600b805490508211158015611a2e5750600082115b611aa0576040517f08c379a00000000000000000000000000000000000000000000000000000000081526004018080602001828103825260178152602001807f70726f706f73616c20646f6573206e6f7420657869737400000000000000000081525060200191505060405180910390fd5b600182039050919050565b600080828401905083811015611b29576040517f08c379a000000000000000000000000000000000000000000000000000000000815260040180806020018281038252601b8152602001807f536166654d6174683a206164646974696f6e206f766572666c6f77000000000081525060200191505060405180910390fd5b8091505092915050565b600080831415611b465760009050611bb3565b6000828402905082848281611b5757fe5b0414611bae576040517f08c379a00000000000000000000000000000000000000000000000000000000081526004018080602001828103825260218152602001806120df6021913960400191505060405180910390fd5b809150505b92915050565b6000611bfb83836040518060400160405280601a81526020017f536166654d6174683a206469766973696f6e206279207a65726f000000000000815250611ef8565b905092915050565b6000600160009054906101000a900473ffffffffffffffffffffffffffffffffffffffff1673ffffffffffffffffffffffffffffffffffffffff166323b872dd8585856040518463ffffffff1660e01b8152600401808473ffffffffffffffffffffffffffffffffffffffff1673ffffffffffffffffffffffffffffffffffffffff1681526020018373ffffffffffffffffffffffffffffffffffffffff1673ffffffffffffffffffffffffffffffffffffffff1681526020018281526020019350505050602060405180830381600087803b158015611ce257600080fd5b505af1158015611cf6573d6000803e3d6000fd5b505050506040513d6020811015611d0c57600080fd5b8101908080519060200190929190505050905080611d92576040517f08c379a00000000000000000000000000000000000000000000000000000000081526004018080602001828103825260188152602001807f6173736574207472616e7366657246726f6d206572726f72000000000000000081525060200191505060405180910390fd5b50505050565b6000600160009054906101000a900473ffffffffffffffffffffffffffffffffffffffff1673ffffffffffffffffffffffffffffffffffffffff1663a9059cbb84846040518363ffffffff1660e01b8152600401808373ffffffffffffffffffffffffffffffffffffffff1673ffffffffffffffffffffffffffffffffffffffff16815260200182815260200192505050602060405180830381600087803b158015611e4357600080fd5b505af1158015611e57573d6000803e3d6000fd5b505050506040513d6020811015611e6d57600080fd5b8101908080519060200190929190505050905080611ef3576040517f08c379a00000000000000000000000000000000000000000000000000000000081526004018080602001828103825260188152602001807f6173736574207472616e7366657246726f6d206572726f72000000000000000081525060200191505060405180910390fd5b505050565b60008083118290611fa4576040517f08c379a00000000000000000000000000000000000000000000000000000000081526004018080602001828103825283818151815260200191508051906020019080838360005b83811015611f69578082015181840152602081019050611f4e565b50505050905090810190601f168015611f965780820380516001836020036101000a031916815260200191505b509250505060405180910390fd5b506000838581611fb057fe5b049050809150509392505050565b60405180610180016040528060008152602001600073ffffffffffffffffffffffffffffffffffffffff16815260200160008152602001600081526020016000815260200160008152602001600081526020016000151581526020016000151581526020016000815260200160008152602001606081525090565b828054600181600116156101000203166002900490600052602060002090601f016020900481019282601f1061207a57805160ff19168380011785556120a8565b828001600101855582156120a8579182015b828111156120a757825182559160200191906001019061208c565b5b5090506120b591906120b9565b5090565b6120db91905b808211156120d75760008160009055506001016120bf565b5090565b9056fe536166654d6174683a206d756c7469706c69636174696f6e206f766572666c6f7753686f756c642065786365656420746865207075626c696369747920706572696f64a165627a7a723058206ab56f69ab0870261540f47897d1a7d25ed253ae580369ac1510d0286761c6ae0029",
  "source": "pragma solidity >=0.4.22 <0.6.0;\r\n\r\nimport \"./VoteApp.sol\";\r\nimport \"../Tap/Tap.sol\";\r\nimport \"../Interface/IDateTime.sol\";\r\nimport \"../Interface/ITradeFundPool.sol\";\r\n\r\ncontract Vote_ChangeMonthlyAllocation is VoteApp{\r\n\r\n    /// @notice \r\n    Proposal[] private proposalQueue;\r\n\r\n    mapping(bytes32=>uint256) counter;\r\n\r\n    address private tradeAddress;\r\n\r\n    /// @notice \r\n    struct Proposal{\r\n        uint256 index;//\r\n        address payable proposer; //\r\n        uint256 ratio;\r\n        uint256 minValue;\r\n        uint256 maxValue;\r\n        uint256 approveVotes; //\r\n        uint256 refuseVotes; //\r\n        bool process; //\r\n        bool pass; //\r\n        uint256 votingStartTime;//\r\n        uint256 publicityStartTime;//\r\n        mapping(address => VoteInfo) voteDetails;\r\n        string detail; //\r\n    }\r\n\r\n    /// @notice \r\n    event OnApplyProposal(\r\n        uint256 index,\r\n        address payable proposaler,\r\n        uint256 ratio,\r\n        uint256 minValue,\r\n        uint256 maxValue,\r\n        uint256 votingStartTime\r\n    );\r\n\r\n    /// @param who \r\n    /// @param index \r\n    /// @param voteResult \r\n    /// @param shares \r\n    event OnVote(\r\n        address who,\r\n        uint256 index,\r\n        uint8 voteResult,\r\n        uint256 shares\r\n    );\r\n\r\n    /// @param index \r\n    event OnPass(uint256 index);\r\n\r\n    /// @param index \r\n    event OnProcess(\r\n        uint256 index\r\n    );\r\n\r\n    constructor(AppManager _appManager,address _sharesAddress,address _tradeAddress,uint256 _voteRatio,uint256 _approveRatio)\r\n    VoteApp(_appManager,_sharesAddress,_voteRatio,_approveRatio)\r\n    public\r\n    {\r\n        sharesAddress = _sharesAddress;\r\n        tradeAddress = _tradeAddress;\r\n    }\r\n\r\n    /////////////\r\n    /// \r\n    /////////////\r\n    //\r\n    function getProposalQueueLength() public view returns(uint256){\r\n        return proposalQueue.length;\r\n    }\r\n\r\n    ///index()\r\n    function getProposalBaseInfoByIndex(uint256 _proposalIndex)\r\n    public\r\n    view\r\n    returns(address _proposer,string memory _detail)\r\n    {\r\n        uint256 queueIndex = proposalIndexToQueueIndex(_proposalIndex);\r\n        Proposal storage proposal = proposalQueue[queueIndex];\r\n        _proposer = proposal.proposer;\r\n        _detail = proposal.detail;\r\n    }\r\n\r\n    ///\r\n    function getProposalStateByIndex(uint256 _proposalIndex)\r\n    public\r\n    view\r\n    returns(uint256 _approveVotes,uint256 _refuseVotes,bool _process,bool _pass)\r\n    {\r\n        uint256 queueIndex = proposalIndexToQueueIndex(_proposalIndex);\r\n        Proposal storage proposal = proposalQueue[queueIndex];\r\n        _approveVotes = proposal.approveVotes;\r\n        _refuseVotes = proposal.refuseVotes;\r\n        _process = proposal.process;\r\n        _pass = proposal.pass;\r\n    }\r\n\r\n    /// @notice \r\n    /// @param _detail \r\n    function applyProposal(\r\n        uint256 _ratio,\r\n        uint256 _minValue,\r\n        uint256 _maxValue,\r\n        string memory _detail\r\n    )\r\n    public\r\n    payable\r\n    ownShares()\r\n    {\r\n        transferF(msg.sender,address(this),proposalFee + deposit);\r\n\r\n        Proposal memory proposal = Proposal({\r\n            index : proposalQueue.length + 1,\r\n            proposer : msg.sender,\r\n            approveVotes : 0,\r\n            refuseVotes : 0,\r\n            process : false,\r\n            pass : false,\r\n            ratio : _ratio,\r\n            minValue : _minValue,\r\n            maxValue : _maxValue,\r\n            detail : _detail,\r\n            votingStartTime : now,\r\n            publicityStartTime : 0\r\n        });\r\n        proposalQueue.push(proposal);\r\n\r\n        emit OnApplyProposal(\r\n            proposal.index,\r\n            proposal.proposer,\r\n            proposal.ratio,\r\n            proposal.minValue,\r\n            proposal.maxValue,\r\n            proposal.votingStartTime\r\n        );\r\n    }\r\n\r\n    function vote(uint256 _proposalIndex,uint8 result,uint256 sharesAmount) public ownShares() {\r\n        //\r\n        uint256 queueIndex = proposalIndexToQueueIndex(_proposalIndex);\r\n        Proposal storage proposal = proposalQueue[queueIndex];\r\n        //\r\n        require(now < proposal.votingStartTime + votingPeriodLength,\"time out\");\r\n        //\r\n        require(result == 1||result == 2,\"vote result must be less than 3\");\r\n        //\r\n        require(proposal.pass == false,\"proposal cant pass\");\r\n        //\r\n        require(proposal.voteDetails[msg.sender].result == enumVoteResult.waiver,\"Votes have been cast\");\r\n        //\r\n        uint256 balance = IERC20(sharesAddress).balanceOf(msg.sender);\r\n        require(balance >= sharesAmount,\"not enough shares\");\r\n        //\r\n        enumVoteResult voteResult = enumVoteResult(result);\r\n        proposal.voteDetails[msg.sender].result = voteResult;\r\n        proposal.voteDetails[msg.sender].sharesAmount = sharesAmount;\r\n\r\n        if(voteResult == enumVoteResult.approve){\r\n            proposal.approveVotes = proposal.approveVotes + sharesAmount;\r\n        }\r\n        else{\r\n            proposal.refuseVotes = proposal.refuseVotes + sharesAmount;\r\n        }\r\n\r\n        emit OnVote(msg.sender,_proposalIndex,result,sharesAmount);\r\n\r\n        //\r\n        uint256 _voteRatio = (proposal.approveVotes.add(proposal.refuseVotes)).div(getTotalSupply());\r\n        uint256 _approveRatio = proposal.approveVotes.div(proposal.approveVotes.add(proposal.refuseVotes));\r\n        if(_voteRatio >= voteRatio && _approveRatio >= approveRatio){//\r\n            proposal.pass = true;\r\n            proposal.publicityStartTime = now;\r\n            emit OnPass(proposal.index);\r\n        }\r\n    }\r\n\r\n    /// @notice \r\n    /// @param _proposalIndex \r\n    function process(uint256 _proposalIndex) public {\r\n        uint256 queueIndex = proposalIndexToQueueIndex(_proposalIndex);\r\n        Proposal storage proposal = proposalQueue[queueIndex];\r\n        //\r\n        require(now > proposal.votingStartTime + votingPeriodLength + publicityPeriodLength,\"Should exceed the publicity period\");\r\n        //\r\n        require(proposal.pass == true,\"proposal need pass\");\r\n        //\r\n        require(proposal.process == false,\"proposal has been process\");\r\n        proposal.process = true;\r\n\r\n        emit OnProcess(_proposalIndex);\r\n\r\n        ////ratio\r\n        ITradeFundPool(tradeAddress).changeRatio(proposal.ratio,proposal.minValue,proposal.maxValue);\r\n\r\n        //\r\n        transferM(msg.sender,proposalFee);\r\n        //\r\n        transferM(proposal.proposer,deposit);\r\n    }\r\n\r\n    function proposalIndexToQueueIndex(uint256 _proposalIndex) private view returns(uint256){\r\n        //\r\n        require(_proposalIndex <= proposalQueue.length && _proposalIndex>0,\"proposal does not exist\");\r\n        return _proposalIndex - 1;\r\n    }\r\n\r\n    function() external payable{\r\n    }\r\n}",
  "sourcePath": "D:/_______work/FD_Contract_ETH/fd/contracts/Vote/Vote_ChangeMonthlyAllocationRatio.sol",
  "compiler": {
    "name": "solc",
    "version": "0.5.8+commit.23d335f2.Emscripten.clang"
  },
  "schemaVersion": "3.0.11",
  "updatedAt": "2019-11-26T08:42:38.021Z",
  "devdoc": {
    "methods": {
      "applyProposal(uint256,uint256,uint256,string)": {
        "params": {
          "_detail": ""
        }
      },
      "process(uint256)": {
        "params": {
          "_proposalIndex": ""
        }
      }
    }
  },
  "userdoc": {
    "methods": {
      "getBalanceOf(address)": {
        "notice": ""
      },
      "getProposalBaseInfoByIndex(uint256)": {
        "notice": "index()"
      },
      "getProposalQueueLength()": {
        "notice": "//////////"
      },
      "getProposalStateByIndex(uint256)": {
        "notice": ""
      },
      "getTotalSupply()": {
        "notice": ""
      }
    }
  }
}