{
  "contractName": "VoteApp",
  "abi": [
    {
      "constant": true,
      "inputs": [],
      "name": "assetAddress",
      "outputs": [
        {
          "name": "",
          "type": "address"
        }
      ],
      "payable": false,
      "stateMutability": "view",
      "type": "function"
    },
    {
      "constant": true,
      "inputs": [],
      "name": "approveRatio",
      "outputs": [
        {
          "name": "",
          "type": "uint256"
        }
      ],
      "payable": false,
      "stateMutability": "view",
      "type": "function"
    },
    {
      "constant": true,
      "inputs": [],
      "name": "voteRatio",
      "outputs": [
        {
          "name": "",
          "type": "uint256"
        }
      ],
      "payable": false,
      "stateMutability": "view",
      "type": "function"
    },
    {
      "constant": true,
      "inputs": [],
      "name": "getAppManagerAddress",
      "outputs": [
        {
          "name": "",
          "type": "address"
        }
      ],
      "payable": false,
      "stateMutability": "view",
      "type": "function"
    },
    {
      "constant": true,
      "inputs": [],
      "name": "proposalFee",
      "outputs": [
        {
          "name": "",
          "type": "uint256"
        }
      ],
      "payable": false,
      "stateMutability": "view",
      "type": "function"
    },
    {
      "constant": true,
      "inputs": [],
      "name": "EMPTY_PARAM_HASH",
      "outputs": [
        {
          "name": "",
          "type": "bytes32"
        }
      ],
      "payable": false,
      "stateMutability": "view",
      "type": "function"
    },
    {
      "constant": true,
      "inputs": [],
      "name": "deposit",
      "outputs": [
        {
          "name": "",
          "type": "uint256"
        }
      ],
      "payable": false,
      "stateMutability": "view",
      "type": "function"
    },
    {
      "constant": true,
      "inputs": [],
      "name": "voteRatio_1000",
      "outputs": [
        {
          "name": "",
          "type": "uint256"
        }
      ],
      "payable": false,
      "stateMutability": "view",
      "type": "function"
    },
    {
      "constant": true,
      "inputs": [
        {
          "name": "_addr",
          "type": "address"
        }
      ],
      "name": "balance",
      "outputs": [
        {
          "name": "",
          "type": "uint256"
        }
      ],
      "payable": false,
      "stateMutability": "view",
      "type": "function"
    },
    {
      "constant": true,
      "inputs": [],
      "name": "approveRatio_1000",
      "outputs": [
        {
          "name": "",
          "type": "uint256"
        }
      ],
      "payable": false,
      "stateMutability": "view",
      "type": "function"
    },
    {
      "constant": true,
      "inputs": [],
      "name": "appManager",
      "outputs": [
        {
          "name": "",
          "type": "address"
        }
      ],
      "payable": false,
      "stateMutability": "view",
      "type": "function"
    },
    {
      "constant": true,
      "inputs": [],
      "name": "sharesAddress",
      "outputs": [
        {
          "name": "",
          "type": "address"
        }
      ],
      "payable": false,
      "stateMutability": "view",
      "type": "function"
    },
    {
      "inputs": [
        {
          "name": "_appManager",
          "type": "address"
        },
        {
          "name": "_sharesAddress",
          "type": "address"
        },
        {
          "name": "_voteRatio_1000",
          "type": "uint256"
        },
        {
          "name": "_approveRatio_1000",
          "type": "uint256"
        }
      ],
      "payable": false,
      "stateMutability": "nonpayable",
      "type": "constructor"
    },
    {
      "constant": true,
      "inputs": [
        {
          "name": "approveVotes",
          "type": "uint256"
        },
        {
          "name": "refuseVotes",
          "type": "uint256"
        }
      ],
      "name": "canPass",
      "outputs": [
        {
          "name": "r",
          "type": "bool"
        },
        {
          "name": "_voteRatio_1000",
          "type": "uint256"
        },
        {
          "name": "_approveRatio_1000",
          "type": "uint256"
        }
      ],
      "payable": false,
      "stateMutability": "view",
      "type": "function"
    },
    {
      "constant": true,
      "inputs": [
        {
          "name": "_addr",
          "type": "address"
        }
      ],
      "name": "getBalanceOf",
      "outputs": [
        {
          "name": "",
          "type": "uint256"
        }
      ],
      "payable": false,
      "stateMutability": "view",
      "type": "function"
    },
    {
      "constant": true,
      "inputs": [],
      "name": "getTotalSupply",
      "outputs": [
        {
          "name": "",
          "type": "uint256"
        }
      ],
      "payable": false,
      "stateMutability": "view",
      "type": "function"
    }
  ],
  "bytecode": "0x608060405261012c60025561021c6003556000600660006101000a81548173ffffffffffffffffffffffffffffffffffffffff021916908373ffffffffffffffffffffffffffffffffffffffff1602179055506000600755600060085534801561006857600080fd5b50604051608080610bdd8339810180604052608081101561008857600080fd5b810190808051906020019092919080519060200190929190805190602001909291908051906020019092919050505083806000806101000a81548173ffffffffffffffffffffffffffffffffffffffff021916908373ffffffffffffffffffffffffffffffffffffffff1602179055505082600660006101000a81548173ffffffffffffffffffffffffffffffffffffffff021916908373ffffffffffffffffffffffffffffffffffffffff1602179055508160098190555080600a8190555050505050610a828061015b6000396000f3fe608060405234801561001057600080fd5b50600436106100f55760003560e01c8063c4e41b2211610097578063e3d670d711610066578063e3d670d714610316578063e8105ef51461036e578063ebe86c131461038c578063f33670aa146103d6576100f5565b8063c4e41b221461029e578063c513f66e146102bc578063d0e30db0146102da578063d1acec11146102f8576100f5565b8063452f783c116100d3578063452f783c146101c05780634c330077146101de5780639b96eece14610228578063c27cabb514610280576100f5565b80631ba46cfd146100fa5780633c74523e1461014457806343f7b98a146101a2575b600080fd5b610102610420565b604051808273ffffffffffffffffffffffffffffffffffffffff1673ffffffffffffffffffffffffffffffffffffffff16815260200191505060405180910390f35b61017a6004803603604081101561015a57600080fd5b810190808035906020019092919080359060200190929190505050610446565b6040518084151515158152602001838152602001828152602001935050505060405180910390f35b6101aa6104e8565b6040518082815260200191505060405180910390f35b6101c86104ee565b6040518082815260200191505060405180910390f35b6101e66104f4565b604051808273ffffffffffffffffffffffffffffffffffffffff1673ffffffffffffffffffffffffffffffffffffffff16815260200191505060405180910390f35b61026a6004803603602081101561023e57600080fd5b81019080803573ffffffffffffffffffffffffffffffffffffffff16906020019092919050505061051d565b6040518082815260200191505060405180910390f35b610288610600565b6040518082815260200191505060405180910390f35b6102a6610606565b6040518082815260200191505060405180910390f35b6102c46106b0565b6040518082815260200191505060405180910390f35b6102e26106d7565b6040518082815260200191505060405180910390f35b6103006106dd565b6040518082815260200191505060405180910390f35b6103586004803603602081101561032c57600080fd5b81019080803573ffffffffffffffffffffffffffffffffffffffff1690602001909291905050506106e3565b6040518082815260200191505060405180910390f35b6103766107c6565b6040518082815260200191505060405180910390f35b6103946107cc565b604051808273ffffffffffffffffffffffffffffffffffffffff1673ffffffffffffffffffffffffffffffffffffffff16815260200191505060405180910390f35b6103de6107f1565b604051808273ffffffffffffffffffffffffffffffffffffffff1673ffffffffffffffffffffffffffffffffffffffff16815260200191505060405180910390f35b600160009054906101000a900473ffffffffffffffffffffffffffffffffffffffff1681565b60008060008061045f858761081790919063ffffffff16565b905061048f61046c610606565b6104816103e88461089f90919063ffffffff16565b61092590919063ffffffff16565b92506104b8816104aa6103e88961089f90919063ffffffff16565b61092590919063ffffffff16565b915060095460075410156104cb57600093505b600a5460085410156104dc57600093505b60019350509250925092565b60085481565b60075481565b60008060009054906101000a900473ffffffffffffffffffffffffffffffffffffffff16905090565b6000600660009054906101000a900473ffffffffffffffffffffffffffffffffffffffff1673ffffffffffffffffffffffffffffffffffffffff166370a08231836040518263ffffffff1660e01b8152600401808273ffffffffffffffffffffffffffffffffffffffff1673ffffffffffffffffffffffffffffffffffffffff16815260200191505060206040518083038186803b1580156105be57600080fd5b505afa1580156105d2573d6000803e3d6000fd5b505050506040513d60208110156105e857600080fd5b81019080805190602001909291905050509050919050565b60055481565b6000600660009054906101000a900473ffffffffffffffffffffffffffffffffffffffff1673ffffffffffffffffffffffffffffffffffffffff166318160ddd6040518163ffffffff1660e01b815260040160206040518083038186803b15801561067057600080fd5b505afa158015610684573d6000803e3d6000fd5b505050506040513d602081101561069a57600080fd5b8101908080519060200190929190505050905090565b7f290decd9548b62a8d60345a988386fc84ba6bc95484008f6362f93160ef3e56360001b81565b60045481565b60095481565b6000600160009054906101000a900473ffffffffffffffffffffffffffffffffffffffff1673ffffffffffffffffffffffffffffffffffffffff166370a08231836040518263ffffffff1660e01b8152600401808273ffffffffffffffffffffffffffffffffffffffff1673ffffffffffffffffffffffffffffffffffffffff16815260200191505060206040518083038186803b15801561078457600080fd5b505afa158015610798573d6000803e3d6000fd5b505050506040513d60208110156107ae57600080fd5b81019080805190602001909291905050509050919050565b600a5481565b6000809054906101000a900473ffffffffffffffffffffffffffffffffffffffff1681565b600660009054906101000a900473ffffffffffffffffffffffffffffffffffffffff1681565b600080828401905083811015610895576040517f08c379a000000000000000000000000000000000000000000000000000000000815260040180806020018281038252601b8152602001807f536166654d6174683a206164646974696f6e206f766572666c6f77000000000081525060200191505060405180910390fd5b8091505092915050565b6000808314156108b2576000905061091f565b60008284029050828482816108c357fe5b041461091a576040517f08c379a0000000000000000000000000000000000000000000000000000000008152600401808060200182810382526021815260200180610a366021913960400191505060405180910390fd5b809150505b92915050565b600061096783836040518060400160405280601a81526020017f536166654d6174683a206469766973696f6e206279207a65726f00000000000081525061096f565b905092915050565b60008083118290610a1b576040517f08c379a00000000000000000000000000000000000000000000000000000000081526004018080602001828103825283818151815260200191508051906020019080838360005b838110156109e05780820151818401526020810190506109c5565b50505050905090810190601f168015610a0d5780820380516001836020036101000a031916815260200191505b509250505060405180910390fd5b506000838581610a2757fe5b04905080915050939250505056fe536166654d6174683a206d756c7469706c69636174696f6e206f766572666c6f77a165627a7a72305820b0a72f8f73ab6e45baf895a2d107d1e246b337993fd35b987410f052c1e6ff040029",
  "source": "pragma solidity >=0.4.22 <0.6.0;\r\n\r\nimport \"../apps/FutureDaoApp.sol\";\r\nimport \"../Interface/IERC20.sol\";\r\nimport \"../lib/SafeMath.sol\";\r\n\r\ncontract VoteApp is FutureDaoApp {\r\n    using SafeMath for uint256;\r\n\r\n    struct VoteInfo{\r\n        uint256 sharesAmount;\r\n        enumVoteResult result;\r\n    }\r\n\r\n    /// @notice 一个提议有7天的投票窗口期\r\n    uint256 votingPeriodLength = 5 minutes; //测试用\r\n    /// @notice 公示期\r\n    uint256 publicityPeriodLength = 9 minutes;\r\n\r\n    //uint256 votingPeriodLength = 5 days;\r\n    //uint256 publicityPeriodLength = 9 days;\r\n\r\n    /// @notice 发起提议需要抵押的\r\n    uint256 public deposit;\r\n\r\n    /// @notice 发起提议的人需要给的手续费，用来奖励结算的人\r\n    uint256 public proposalFee;\r\n\r\n    //投票采用的哪个股份币\r\n    address public sharesAddress = address(0);\r\n\r\n    //要求投票的人数占比\r\n    uint256 public voteRatio = 0;  //全都乘以1000  300意味着 30%\r\n    //要求同意的人数占比\r\n    uint256 public approveRatio = 0;\r\n    //要求最低投票占总数比 乘以了1000   例如 5% 就是50\r\n    uint256 public voteRatio_1000;\r\n    // 要求投票的票数中  投赞成的比例\r\n    uint256 public approveRatio_1000;\r\n\r\n    /// @notice 投票的结果\r\n    enum enumVoteResult {\r\n        waiver,\r\n        approve,\r\n        refuse\r\n    }\r\n\r\n    modifier ownShares() {\r\n        require(getBalanceOf(msg.sender)>0, \"need has shares\");\r\n        _;\r\n    }\r\n\r\n    constructor (AppManager _appManager,address _sharesAddress,uint256 _voteRatio_1000,uint256 _approveRatio_1000)\r\n    public\r\n    FutureDaoApp(_appManager)\r\n    {\r\n        sharesAddress = _sharesAddress;\r\n        voteRatio_1000 = _voteRatio_1000;\r\n        approveRatio_1000 = _approveRatio_1000;\r\n    }\r\n\r\n    function canPass(uint256 approveVotes,uint256 refuseVotes) public view returns(bool r,uint256 _voteRatio_1000,uint256 _approveRatio_1000){\r\n        uint256 totalVotes = approveVotes.add(refuseVotes);\r\n        _voteRatio_1000 = totalVotes.mul(1000).div(getTotalSupply());\r\n        _approveRatio_1000 = approveVotes.mul(1000).div(totalVotes);\r\n        if (voteRatio < voteRatio_1000) {\r\n            r = false;\r\n        }\r\n        if (approveRatio < approveRatio_1000) {\r\n            r = false;\r\n        }\r\n        r = true;\r\n    }\r\n\r\n    /// @notice 获取可以投票的股份数\r\n    function getBalanceOf(address _addr) public view returns(uint256){\r\n        return IERC20(sharesAddress).balanceOf(_addr);\r\n    }\r\n\r\n    /// @notice 获取全部的票数\r\n    function getTotalSupply() public view returns(uint256){\r\n        return IERC20(sharesAddress).totalSupply();\r\n    }\r\n}",
  "sourcePath": "D:\\_______work\\FD_Contract_ETH\\fd\\contracts\\Vote\\VoteApp.sol",
  "compiler": {
    "name": "solc",
    "version": "0.5.8+commit.23d335f2.Emscripten.clang"
  },
  "schemaVersion": "3.0.11",
  "updatedAt": "2019-11-19T07:22:37.307Z",
  "devdoc": {
    "methods": {}
  },
  "userdoc": {
    "methods": {
      "getBalanceOf(address)": {
        "notice": "获取可以投票的股份数"
      },
      "getTotalSupply()": {
        "notice": "获取全部的票数"
      }
    }
  }
}