{
  "contractName": "VoteApp",
  "abi": [
    {
      "constant": true,
      "inputs": [],
      "name": "assetAddress",
      "outputs": [
        {
          "name": "",
          "type": "address"
        }
      ],
      "payable": false,
      "stateMutability": "view",
      "type": "function"
    },
    {
      "constant": true,
      "inputs": [],
      "name": "approveRatio",
      "outputs": [
        {
          "name": "",
          "type": "uint256"
        }
      ],
      "payable": false,
      "stateMutability": "view",
      "type": "function"
    },
    {
      "constant": true,
      "inputs": [],
      "name": "voteRatio",
      "outputs": [
        {
          "name": "",
          "type": "uint256"
        }
      ],
      "payable": false,
      "stateMutability": "view",
      "type": "function"
    },
    {
      "constant": true,
      "inputs": [],
      "name": "getAppManagerAddress",
      "outputs": [
        {
          "name": "",
          "type": "address"
        }
      ],
      "payable": false,
      "stateMutability": "view",
      "type": "function"
    },
    {
      "constant": true,
      "inputs": [],
      "name": "proposalFee",
      "outputs": [
        {
          "name": "",
          "type": "uint256"
        }
      ],
      "payable": false,
      "stateMutability": "view",
      "type": "function"
    },
    {
      "constant": true,
      "inputs": [],
      "name": "EMPTY_PARAM_HASH",
      "outputs": [
        {
          "name": "",
          "type": "bytes32"
        }
      ],
      "payable": false,
      "stateMutability": "view",
      "type": "function"
    },
    {
      "constant": true,
      "inputs": [],
      "name": "deposit",
      "outputs": [
        {
          "name": "",
          "type": "uint256"
        }
      ],
      "payable": false,
      "stateMutability": "view",
      "type": "function"
    },
    {
      "constant": true,
      "inputs": [
        {
          "name": "_addr",
          "type": "address"
        }
      ],
      "name": "balance",
      "outputs": [
        {
          "name": "",
          "type": "uint256"
        }
      ],
      "payable": false,
      "stateMutability": "view",
      "type": "function"
    },
    {
      "constant": true,
      "inputs": [],
      "name": "appManager",
      "outputs": [
        {
          "name": "",
          "type": "address"
        }
      ],
      "payable": false,
      "stateMutability": "view",
      "type": "function"
    },
    {
      "constant": true,
      "inputs": [],
      "name": "sharesAddress",
      "outputs": [
        {
          "name": "",
          "type": "address"
        }
      ],
      "payable": false,
      "stateMutability": "view",
      "type": "function"
    },
    {
      "inputs": [
        {
          "name": "_appManager",
          "type": "address"
        },
        {
          "name": "_sharesAddress",
          "type": "address"
        },
        {
          "name": "_votingPeriodLength",
          "type": "uint256"
        },
        {
          "name": "_publicityPeriodLength",
          "type": "uint256"
        }
      ],
      "payable": false,
      "stateMutability": "nonpayable",
      "type": "constructor"
    },
    {
      "constant": true,
      "inputs": [
        {
          "name": "_addr",
          "type": "address"
        }
      ],
      "name": "getBalanceOf",
      "outputs": [
        {
          "name": "",
          "type": "uint256"
        }
      ],
      "payable": false,
      "stateMutability": "view",
      "type": "function"
    },
    {
      "constant": true,
      "inputs": [],
      "name": "getTotalSupply",
      "outputs": [
        {
          "name": "",
          "type": "uint256"
        }
      ],
      "payable": false,
      "stateMutability": "view",
      "type": "function"
    }
  ],
  "bytecode": "0x60806040526000600660006101000a81548173ffffffffffffffffffffffffffffffffffffffff021916908373ffffffffffffffffffffffffffffffffffffffff1602179055506000600755600060085534801561005c57600080fd5b506040516080806108098339810180604052608081101561007c57600080fd5b810190808051906020019092919080519060200190929190805190602001909291908051906020019092919050505083806000806101000a81548173ffffffffffffffffffffffffffffffffffffffff021916908373ffffffffffffffffffffffffffffffffffffffff1602179055505082600660006101000a81548173ffffffffffffffffffffffffffffffffffffffff021916908373ffffffffffffffffffffffffffffffffffffffff1602179055508160028190555080600381905550505050506106ba8061014f6000396000f3fe608060405234801561001057600080fd5b50600436106100b45760003560e01c8063c4e41b2211610071578063c4e41b22146101ff578063c513f66e1461021d578063d0e30db01461023b578063e3d670d714610259578063ebe86c13146102b1578063f33670aa146102fb576100b4565b80631ba46cfd146100b957806343f7b98a14610103578063452f783c146101215780634c3300771461013f5780639b96eece14610189578063c27cabb5146101e1575b600080fd5b6100c1610345565b604051808273ffffffffffffffffffffffffffffffffffffffff1673ffffffffffffffffffffffffffffffffffffffff16815260200191505060405180910390f35b61010b61036b565b6040518082815260200191505060405180910390f35b610129610371565b6040518082815260200191505060405180910390f35b610147610377565b604051808273ffffffffffffffffffffffffffffffffffffffff1673ffffffffffffffffffffffffffffffffffffffff16815260200191505060405180910390f35b6101cb6004803603602081101561019f57600080fd5b81019080803573ffffffffffffffffffffffffffffffffffffffff1690602001909291905050506103a0565b6040518082815260200191505060405180910390f35b6101e9610483565b6040518082815260200191505060405180910390f35b610207610489565b6040518082815260200191505060405180910390f35b610225610533565b6040518082815260200191505060405180910390f35b61024361055a565b6040518082815260200191505060405180910390f35b61029b6004803603602081101561026f57600080fd5b81019080803573ffffffffffffffffffffffffffffffffffffffff169060200190929190505050610560565b6040518082815260200191505060405180910390f35b6102b9610643565b604051808273ffffffffffffffffffffffffffffffffffffffff1673ffffffffffffffffffffffffffffffffffffffff16815260200191505060405180910390f35b610303610668565b604051808273ffffffffffffffffffffffffffffffffffffffff1673ffffffffffffffffffffffffffffffffffffffff16815260200191505060405180910390f35b600160009054906101000a900473ffffffffffffffffffffffffffffffffffffffff1681565b60085481565b60075481565b60008060009054906101000a900473ffffffffffffffffffffffffffffffffffffffff16905090565b6000600660009054906101000a900473ffffffffffffffffffffffffffffffffffffffff1673ffffffffffffffffffffffffffffffffffffffff166370a08231836040518263ffffffff1660e01b8152600401808273ffffffffffffffffffffffffffffffffffffffff1673ffffffffffffffffffffffffffffffffffffffff16815260200191505060206040518083038186803b15801561044157600080fd5b505afa158015610455573d6000803e3d6000fd5b505050506040513d602081101561046b57600080fd5b81019080805190602001909291905050509050919050565b60055481565b6000600660009054906101000a900473ffffffffffffffffffffffffffffffffffffffff1673ffffffffffffffffffffffffffffffffffffffff166318160ddd6040518163ffffffff1660e01b815260040160206040518083038186803b1580156104f357600080fd5b505afa158015610507573d6000803e3d6000fd5b505050506040513d602081101561051d57600080fd5b8101908080519060200190929190505050905090565b7f290decd9548b62a8d60345a988386fc84ba6bc95484008f6362f93160ef3e56360001b81565b60045481565b6000600160009054906101000a900473ffffffffffffffffffffffffffffffffffffffff1673ffffffffffffffffffffffffffffffffffffffff166370a08231836040518263ffffffff1660e01b8152600401808273ffffffffffffffffffffffffffffffffffffffff1673ffffffffffffffffffffffffffffffffffffffff16815260200191505060206040518083038186803b15801561060157600080fd5b505afa158015610615573d6000803e3d6000fd5b505050506040513d602081101561062b57600080fd5b81019080805190602001909291905050509050919050565b6000809054906101000a900473ffffffffffffffffffffffffffffffffffffffff1681565b600660009054906101000a900473ffffffffffffffffffffffffffffffffffffffff168156fea165627a7a723058203ddd157cd3a166ebd577515a8400fbbd91b87b236df67ee507e3148a62b7d2950029",
  "source": "pragma solidity >=0.4.22 <0.6.0;\r\n\r\nimport \"../apps/FutureDaoApp.sol\";\r\nimport \"../Interface/IERC20.sol\";\r\nimport \"../lib/SafeMath.sol\";\r\n\r\ncontract VoteApp is FutureDaoApp {\r\n    using SafeMath for uint256;\r\n\r\n    struct VoteInfo{\r\n        uint256 sharesAmount;\r\n        enumVoteResult result;\r\n    }\r\n    //投票窗口期\r\n    uint256 votingPeriodLength;\r\n    //公示窗口期\r\n    uint256 publicityPeriodLength;\r\n\r\n    /// @notice 发起提议需要抵押的\r\n    uint256 public deposit;\r\n\r\n    /// @notice 发起提议的人需要给的手续费，用来奖励结算的人\r\n    uint256 public proposalFee;\r\n\r\n    //投票采用的哪个股份币\r\n    address public sharesAddress = address(0);\r\n\r\n    //要求投票的人数占比\r\n    uint256 public voteRatio = 0;  //全都乘以1000  300意味着 30%\r\n    //要求同意的人数占比\r\n    uint256 public approveRatio = 0;\r\n\r\n    /// @notice 投票的结果\r\n    enum enumVoteResult {\r\n        waiver,\r\n        approve,\r\n        refuse\r\n    }\r\n\r\n    modifier ownShares() {\r\n        require(getBalanceOf(msg.sender)>0, \"need has shares\");\r\n        _;\r\n    }\r\n\r\n    constructor (AppManager _appManager,address _sharesAddress,uint256 _votingPeriodLength,uint256 _publicityPeriodLength)\r\n    public\r\n    FutureDaoApp(_appManager)\r\n    {\r\n        sharesAddress = _sharesAddress;\r\n        votingPeriodLength = _votingPeriodLength;\r\n        publicityPeriodLength = _publicityPeriodLength;\r\n    }\r\n\r\n    /// @notice 获取可以投票的股份数\r\n    function getBalanceOf(address _addr) public view returns(uint256){\r\n        return IERC20(sharesAddress).balanceOf(_addr);\r\n    }\r\n\r\n    /// @notice 获取全部的票数\r\n    function getTotalSupply() public view returns(uint256){\r\n        return IERC20(sharesAddress).totalSupply();\r\n    }\r\n}",
  "sourcePath": "D:\\_______work\\FD_Contract_ETH\\fd\\contracts\\Vote\\VoteApp.sol",
  "compiler": {
    "name": "solc",
    "version": "0.5.8+commit.23d335f2.Emscripten.clang"
  },
  "schemaVersion": "3.0.11",
  "updatedAt": "2019-11-26T10:03:07.654Z",
  "devdoc": {
    "methods": {}
  },
  "userdoc": {
    "methods": {
      "getBalanceOf(address)": {
        "notice": "获取可以投票的股份数"
      },
      "getTotalSupply()": {
        "notice": "获取全部的票数"
      }
    }
  }
}