{
  "contractName": "VoteApp",
  "abi": [
    {
      "constant": true,
      "inputs": [],
      "name": "getAppManagerAddress",
      "outputs": [
        {
          "name": "",
          "type": "address"
        }
      ],
      "payable": false,
      "stateMutability": "view",
      "type": "function"
    },
    {
      "constant": true,
      "inputs": [],
      "name": "FundPool_PreMint",
      "outputs": [
        {
          "name": "",
          "type": "bytes32"
        }
      ],
      "payable": false,
      "stateMutability": "view",
      "type": "function"
    },
    {
      "constant": true,
      "inputs": [],
      "name": "proposalFee",
      "outputs": [
        {
          "name": "",
          "type": "uint256"
        }
      ],
      "payable": false,
      "stateMutability": "view",
      "type": "function"
    },
    {
      "constant": true,
      "inputs": [],
      "name": "EMPTY_PARAM_HASH",
      "outputs": [
        {
          "name": "",
          "type": "bytes32"
        }
      ],
      "payable": false,
      "stateMutability": "view",
      "type": "function"
    },
    {
      "constant": true,
      "inputs": [],
      "name": "deposit",
      "outputs": [
        {
          "name": "",
          "type": "uint256"
        }
      ],
      "payable": false,
      "stateMutability": "view",
      "type": "function"
    },
    {
      "constant": true,
      "inputs": [],
      "name": "appManager",
      "outputs": [
        {
          "name": "",
          "type": "address"
        }
      ],
      "payable": false,
      "stateMutability": "view",
      "type": "function"
    },
    {
      "constant": false,
      "inputs": [
        {
          "name": "_addr",
          "type": "address"
        }
      ],
      "name": "getFdtInGovern",
      "outputs": [
        {
          "name": "",
          "type": "uint256"
        }
      ],
      "payable": false,
      "stateMutability": "nonpayable",
      "type": "function"
    },
    {
      "constant": false,
      "inputs": [],
      "name": "getFdtTotalSupply",
      "outputs": [
        {
          "name": "",
          "type": "uint256"
        }
      ],
      "payable": false,
      "stateMutability": "nonpayable",
      "type": "function"
    }
  ],
  "bytecode": "0x608060405262093a8060015567016345785d8a000060025567016345785d8a000060035534801561002f57600080fd5b506105848061003f6000396000f3fe608060405234801561001057600080fd5b50600436106100885760003560e01c8063c27cabb51161005b578063c27cabb51461016b578063c513f66e14610189578063d0e30db0146101a7578063ebe86c13146101c557610088565b806308731cfe1461008d5780634c330077146100ab578063578f6a62146100f5578063b710ffc01461014d575b600080fd5b61009561020f565b6040518082815260200191505060405180910390f35b6100b361033a565b604051808273ffffffffffffffffffffffffffffffffffffffff1673ffffffffffffffffffffffffffffffffffffffff16815260200191505060405180910390f35b6101376004803603602081101561010b57600080fd5b81019080803573ffffffffffffffffffffffffffffffffffffffff169060200190929190505050610363565b6040518082815260200191505060405180910390f35b6101556104c7565b6040518082815260200191505060405180910390f35b610173610500565b6040518082815260200191505060405180910390f35b610191610506565b6040518082815260200191505060405180910390f35b6101af61052d565b6040518082815260200191505060405180910390f35b6101cd610533565b604051808273ffffffffffffffffffffffffffffffffffffffff1673ffffffffffffffffffffffffffffffffffffffff16815260200191505060405180910390f35b60008060009054906101000a900473ffffffffffffffffffffffffffffffffffffffff1673ffffffffffffffffffffffffffffffffffffffff1663bf7b00eb6040518163ffffffff1660e01b815260040160206040518083038186803b15801561027857600080fd5b505afa15801561028c573d6000803e3d6000fd5b505050506040513d60208110156102a257600080fd5b810190808051906020019092919050505073ffffffffffffffffffffffffffffffffffffffff166308731cfe6040518163ffffffff1660e01b8152600401602060405180830381600087803b1580156102fa57600080fd5b505af115801561030e573d6000803e3d6000fd5b505050506040513d602081101561032457600080fd5b8101908080519060200190929190505050905090565b60008060009054906101000a900473ffffffffffffffffffffffffffffffffffffffff16905090565b60008060009054906101000a900473ffffffffffffffffffffffffffffffffffffffff1673ffffffffffffffffffffffffffffffffffffffff1663bf7b00eb6040518163ffffffff1660e01b815260040160206040518083038186803b1580156103cc57600080fd5b505afa1580156103e0573d6000803e3d6000fd5b505050506040513d60208110156103f657600080fd5b810190808051906020019092919050505073ffffffffffffffffffffffffffffffffffffffff1663578f6a62836040518263ffffffff1660e01b8152600401808273ffffffffffffffffffffffffffffffffffffffff1673ffffffffffffffffffffffffffffffffffffffff168152602001915050602060405180830381600087803b15801561048557600080fd5b505af1158015610499573d6000803e3d6000fd5b505050506040513d60208110156104af57600080fd5b81019080805190602001909291905050509050919050565b60405180807f46756e64506f6f6c5f5072654d696e74000000000000000000000000000000008152506010019050604051809103902081565b60035481565b7f290decd9548b62a8d60345a988386fc84ba6bc95484008f6362f93160ef3e56360001b81565b60025481565b6000809054906101000a900473ffffffffffffffffffffffffffffffffffffffff168156fea165627a7a723058207ab8e6fd1f6459f8198e9e5c2f2473a9a16333588a60245619a51d0ddd1a5c830029",
  "source": "pragma solidity >=0.4.22 <0.6.0;\r\n\r\nimport \"../apps/FutureDaoApp.sol\";\r\nimport \"../Interface/IGovernShareManager.sol\";\r\n\r\ncontract VoteApp is FutureDaoApp {\r\n    /// @notice 一个提议有7天的投票窗口期\r\n    uint256 votingPeriodLength = 7 days;\r\n\r\n    /// @notice 发起提议需要抵押的eth数量（对应成fnd）\r\n    uint256 public deposit = 0.1 ether;\r\n\r\n    /// @notice 发起提议的人需要给的手续费，用来奖励结算的人\r\n    uint256 public proposalFee = 0.1 ether;\r\n\r\n    /// @notice 投票的结果\r\n    enum enumVoteResult {\r\n        waiver,\r\n        approve,\r\n        refuse\r\n    }\r\n\r\n    /// @notice 获取可以投票的股份数\r\n    function getFdtInGovern(address _addr) public returns(uint256){\r\n        return IGovernShareManager(appManager.getGovernShareManager()).getFdtInGovern(_addr);\r\n    }\r\n\r\n    /// @notice 获取全部的票数\r\n    function getFdtTotalSupply() public returns(uint256){\r\n        return IGovernShareManager(appManager.getGovernShareManager()).getFdtTotalSupply();\r\n    }\r\n}",
  "sourcePath": "D:\\_______work\\FD_Contract_ETH\\fd\\contracts\\Vote\\VoteApp.sol",
  "compiler": {
    "name": "solc",
    "version": "0.5.8+commit.23d335f2.Emscripten.clang"
  },
  "schemaVersion": "3.0.11",
  "updatedAt": "2019-09-04T09:56:02.928Z",
  "devdoc": {
    "methods": {}
  },
  "userdoc": {
    "methods": {
      "getFdtInGovern(address)": {
        "notice": "获取可以投票的股份数"
      },
      "getFdtTotalSupply()": {
        "notice": "获取全部的票数"
      }
    }
  }
}