{
  "contractName": "Vote_ChangeMonthlyAllocation",
  "abi": [
    {
      "constant": true,
      "inputs": [],
      "name": "assetAddress",
      "outputs": [
        {
          "name": "",
          "type": "address"
        }
      ],
      "payable": false,
      "stateMutability": "view",
      "type": "function"
    },
    {
      "constant": true,
      "inputs": [],
      "name": "approveRatio",
      "outputs": [
        {
          "name": "",
          "type": "uint256"
        }
      ],
      "payable": false,
      "stateMutability": "view",
      "type": "function"
    },
    {
      "constant": true,
      "inputs": [],
      "name": "voteRatio",
      "outputs": [
        {
          "name": "",
          "type": "uint256"
        }
      ],
      "payable": false,
      "stateMutability": "view",
      "type": "function"
    },
    {
      "constant": true,
      "inputs": [],
      "name": "getAppManagerAddress",
      "outputs": [
        {
          "name": "",
          "type": "address"
        }
      ],
      "payable": false,
      "stateMutability": "view",
      "type": "function"
    },
    {
      "constant": true,
      "inputs": [
        {
          "name": "_addr",
          "type": "address"
        }
      ],
      "name": "getBalanceOf",
      "outputs": [
        {
          "name": "",
          "type": "uint256"
        }
      ],
      "payable": false,
      "stateMutability": "view",
      "type": "function"
    },
    {
      "constant": true,
      "inputs": [],
      "name": "proposalFee",
      "outputs": [
        {
          "name": "",
          "type": "uint256"
        }
      ],
      "payable": false,
      "stateMutability": "view",
      "type": "function"
    },
    {
      "constant": true,
      "inputs": [],
      "name": "getTotalSupply",
      "outputs": [
        {
          "name": "",
          "type": "uint256"
        }
      ],
      "payable": false,
      "stateMutability": "view",
      "type": "function"
    },
    {
      "constant": true,
      "inputs": [],
      "name": "EMPTY_PARAM_HASH",
      "outputs": [
        {
          "name": "",
          "type": "bytes32"
        }
      ],
      "payable": false,
      "stateMutability": "view",
      "type": "function"
    },
    {
      "constant": true,
      "inputs": [],
      "name": "deposit",
      "outputs": [
        {
          "name": "",
          "type": "uint256"
        }
      ],
      "payable": false,
      "stateMutability": "view",
      "type": "function"
    },
    {
      "constant": true,
      "inputs": [
        {
          "name": "_addr",
          "type": "address"
        }
      ],
      "name": "balance",
      "outputs": [
        {
          "name": "",
          "type": "uint256"
        }
      ],
      "payable": false,
      "stateMutability": "view",
      "type": "function"
    },
    {
      "constant": true,
      "inputs": [],
      "name": "appManager",
      "outputs": [
        {
          "name": "",
          "type": "address"
        }
      ],
      "payable": false,
      "stateMutability": "view",
      "type": "function"
    },
    {
      "constant": true,
      "inputs": [],
      "name": "sharesAddress",
      "outputs": [
        {
          "name": "",
          "type": "address"
        }
      ],
      "payable": false,
      "stateMutability": "view",
      "type": "function"
    },
    {
      "inputs": [
        {
          "name": "_appManager",
          "type": "address"
        },
        {
          "name": "_sharesAddress",
          "type": "address"
        },
        {
          "name": "_tradeAddress",
          "type": "address"
        },
        {
          "name": "_votingPeriodLength",
          "type": "uint256"
        },
        {
          "name": "_publicityPeriodLength",
          "type": "uint256"
        }
      ],
      "payable": false,
      "stateMutability": "nonpayable",
      "type": "constructor"
    },
    {
      "payable": true,
      "stateMutability": "payable",
      "type": "fallback"
    },
    {
      "anonymous": false,
      "inputs": [
        {
          "indexed": false,
          "name": "index",
          "type": "uint256"
        },
        {
          "indexed": false,
          "name": "proposaler",
          "type": "address"
        },
        {
          "indexed": false,
          "name": "ratio",
          "type": "uint256"
        },
        {
          "indexed": false,
          "name": "minValue",
          "type": "uint256"
        },
        {
          "indexed": false,
          "name": "maxValue",
          "type": "uint256"
        },
        {
          "indexed": false,
          "name": "votingStartTime",
          "type": "uint256"
        }
      ],
      "name": "OnApplyProposal",
      "type": "event"
    },
    {
      "anonymous": false,
      "inputs": [
        {
          "indexed": false,
          "name": "who",
          "type": "address"
        },
        {
          "indexed": false,
          "name": "index",
          "type": "uint256"
        },
        {
          "indexed": false,
          "name": "voteResult",
          "type": "uint8"
        },
        {
          "indexed": false,
          "name": "shares",
          "type": "uint256"
        }
      ],
      "name": "OnVote",
      "type": "event"
    },
    {
      "anonymous": false,
      "inputs": [
        {
          "indexed": false,
          "name": "index",
          "type": "uint256"
        }
      ],
      "name": "OnPass",
      "type": "event"
    },
    {
      "anonymous": false,
      "inputs": [
        {
          "indexed": false,
          "name": "index",
          "type": "uint256"
        }
      ],
      "name": "OnProcess",
      "type": "event"
    },
    {
      "constant": true,
      "inputs": [],
      "name": "getProposalQueueLength",
      "outputs": [
        {
          "name": "",
          "type": "uint256"
        }
      ],
      "payable": false,
      "stateMutability": "view",
      "type": "function"
    },
    {
      "constant": true,
      "inputs": [
        {
          "name": "_proposalIndex",
          "type": "uint256"
        }
      ],
      "name": "getProposalBaseInfoByIndex",
      "outputs": [
        {
          "name": "_proposer",
          "type": "address"
        },
        {
          "name": "_detail",
          "type": "string"
        }
      ],
      "payable": false,
      "stateMutability": "view",
      "type": "function"
    },
    {
      "constant": true,
      "inputs": [
        {
          "name": "_proposalIndex",
          "type": "uint256"
        }
      ],
      "name": "getProposalStateByIndex",
      "outputs": [
        {
          "name": "_approveVotes",
          "type": "uint256"
        },
        {
          "name": "_refuseVotes",
          "type": "uint256"
        },
        {
          "name": "_process",
          "type": "bool"
        },
        {
          "name": "_pass",
          "type": "bool"
        }
      ],
      "payable": false,
      "stateMutability": "view",
      "type": "function"
    },
    {
      "constant": false,
      "inputs": [
        {
          "name": "_ratio",
          "type": "uint256"
        },
        {
          "name": "_minValue",
          "type": "uint256"
        },
        {
          "name": "_maxValue",
          "type": "uint256"
        },
        {
          "name": "_detail",
          "type": "string"
        }
      ],
      "name": "applyProposal",
      "outputs": [],
      "payable": true,
      "stateMutability": "payable",
      "type": "function"
    },
    {
      "constant": false,
      "inputs": [
        {
          "name": "_proposalIndex",
          "type": "uint256"
        },
        {
          "name": "result",
          "type": "uint8"
        },
        {
          "name": "sharesAmount",
          "type": "uint256"
        }
      ],
      "name": "vote",
      "outputs": [],
      "payable": false,
      "stateMutability": "nonpayable",
      "type": "function"
    },
    {
      "constant": false,
      "inputs": [
        {
          "name": "_proposalIndex",
          "type": "uint256"
        }
      ],
      "name": "process",
      "outputs": [],
      "payable": false,
      "stateMutability": "nonpayable",
      "type": "function"
    }
  ],
  "bytecode": "0x60806040526000600660006101000a81548173ffffffffffffffffffffffffffffffffffffffff021916908373ffffffffffffffffffffffffffffffffffffffff1602179055506000600755600060085534801561005c57600080fd5b5060405160a080611e56833981018060405260a081101561007c57600080fd5b8101908080519060200190929190805190602001909291908051906020019092919080519060200190929190805190602001909291905050508484838383806000806101000a81548173ffffffffffffffffffffffffffffffffffffffff021916908373ffffffffffffffffffffffffffffffffffffffff1602179055505082600660006101000a81548173ffffffffffffffffffffffffffffffffffffffff021916908373ffffffffffffffffffffffffffffffffffffffff16021790555081600281905550806003819055505050505083600660006101000a81548173ffffffffffffffffffffffffffffffffffffffff021916908373ffffffffffffffffffffffffffffffffffffffff16021790555082600b60006101000a81548173ffffffffffffffffffffffffffffffffffffffff021916908373ffffffffffffffffffffffffffffffffffffffff1602179055505050505050611c72806101e46000396000f3fe6080604052600436106101095760003560e01c8063c27cabb511610095578063e3d670d711610064578063e3d670d714610577578063e520251a146105dc578063ebe86c131461062e578063f33670aa14610685578063ffb2c479146106dc57610109565b8063c27cabb5146104cb578063c4e41b22146104f6578063c513f66e14610521578063d0e30db01461054c57610109565b80634c330077116100dc5780634c3300771461022457806365da6a101461027b578063759c7aa414610354578063797daf701461043b5780639b96eece1461046657610109565b80631ab3c1d31461010b5780631ba46cfd1461017757806343f7b98a146101ce578063452f783c146101f9575b005b34801561011757600080fd5b506101446004803603602081101561012e57600080fd5b8101908080359060200190929190505050610717565b60405180858152602001848152602001831515151581526020018215151515815260200194505050505060405180910390f35b34801561018357600080fd5b5061018c610788565b604051808273ffffffffffffffffffffffffffffffffffffffff1673ffffffffffffffffffffffffffffffffffffffff16815260200191505060405180910390f35b3480156101da57600080fd5b506101e36107ae565b6040518082815260200191505060405180910390f35b34801561020557600080fd5b5061020e6107b4565b6040518082815260200191505060405180910390f35b34801561023057600080fd5b506102396107ba565b604051808273ffffffffffffffffffffffffffffffffffffffff1673ffffffffffffffffffffffffffffffffffffffff16815260200191505060405180910390f35b6103526004803603608081101561029157600080fd5b81019080803590602001909291908035906020019092919080359060200190929190803590602001906401000000008111156102cc57600080fd5b8201836020820111156102de57600080fd5b8035906020019184600183028401116401000000008311171561030057600080fd5b91908080601f016020809104026020016040519081016040528093929190818152602001838380828437600081840152601f19601f8201169050808301925050505050505091929192905050506107e3565b005b34801561036057600080fd5b5061038d6004803603602081101561037757600080fd5b8101908080359060200190929190505050610ac9565b604051808373ffffffffffffffffffffffffffffffffffffffff1673ffffffffffffffffffffffffffffffffffffffff16815260200180602001828103825283818151815260200191508051906020019080838360005b838110156103ff5780820151818401526020810190506103e4565b50505050905090810190601f16801561042c5780820380516001836020036101000a031916815260200191505b50935050505060405180910390f35b34801561044757600080fd5b50610450610bc6565b6040518082815260200191505060405180910390f35b34801561047257600080fd5b506104b56004803603602081101561048957600080fd5b81019080803573ffffffffffffffffffffffffffffffffffffffff169060200190929190505050610bd3565b6040518082815260200191505060405180910390f35b3480156104d757600080fd5b506104e0610cb6565b6040518082815260200191505060405180910390f35b34801561050257600080fd5b5061050b610cbc565b6040518082815260200191505060405180910390f35b34801561052d57600080fd5b50610536610d66565b6040518082815260200191505060405180910390f35b34801561055857600080fd5b50610561610d8d565b6040518082815260200191505060405180910390f35b34801561058357600080fd5b506105c66004803603602081101561059a57600080fd5b81019080803573ffffffffffffffffffffffffffffffffffffffff169060200190929190505050610d93565b6040518082815260200191505060405180910390f35b3480156105e857600080fd5b5061062c600480360360608110156105ff57600080fd5b8101908080359060200190929190803560ff16906020019092919080359060200190929190505050610e76565b005b34801561063a57600080fd5b5061064361146e565b604051808273ffffffffffffffffffffffffffffffffffffffff1673ffffffffffffffffffffffffffffffffffffffff16815260200191505060405180910390f35b34801561069157600080fd5b5061069a611493565b604051808273ffffffffffffffffffffffffffffffffffffffff1673ffffffffffffffffffffffffffffffffffffffff16815260200191505060405180910390f35b3480156106e857600080fd5b50610715600480360360208110156106ff57600080fd5b81019080803590602001909291905050506114b9565b005b60008060008060006107288661177b565b905060006009828154811061073957fe5b90600052602060002090600c0201905080600501549550806006015494508060070160009054906101000a900460ff1693508060070160019054906101000a900460ff16925050509193509193565b600160009054906101000a900473ffffffffffffffffffffffffffffffffffffffff1681565b60085481565b60075481565b60008060009054906101000a900473ffffffffffffffffffffffffffffffffffffffff16905090565b60006107ee33610bd3565b11610861576040517f08c379a000000000000000000000000000000000000000000000000000000000815260040180806020018281038252600f8152602001807f6e6565642068617320736861726573000000000000000000000000000000000081525060200191505060405180910390fd5b61087233306004546005540161180f565b61087a611b04565b60405180610180016040528060016009805490500181526020013373ffffffffffffffffffffffffffffffffffffffff1681526020018681526020018581526020018481526020016000815260200160008152602001600015158152602001600015158152602001428152602001600081526020018381525090506009819080600181540180825580915050906001820390600052602060002090600c0201600090919290919091506000820151816000015560208201518160010160006101000a81548173ffffffffffffffffffffffffffffffffffffffff021916908373ffffffffffffffffffffffffffffffffffffffff16021790555060408201518160020155606082015181600301556080820151816004015560a0820151816005015560c0820151816006015560e08201518160070160006101000a81548160ff0219169083151502179055506101008201518160070160016101000a81548160ff0219169083151502179055506101208201518160080155610140820151816009015561016082015181600b019080519060200190610a1a929190611b7f565b505050507fdcfafa1e9f5ed8c1acfc04da5c4d3f5ad38926d2e91d8b37872148da1462748781600001518260200151836040015184606001518560800151866101200151604051808781526020018673ffffffffffffffffffffffffffffffffffffffff1673ffffffffffffffffffffffffffffffffffffffff168152602001858152602001848152602001838152602001828152602001965050505050505060405180910390a15050505050565b600060606000610ad88461177b565b9050600060098281548110610ae957fe5b90600052602060002090600c020190508060010160009054906101000a900473ffffffffffffffffffffffffffffffffffffffff16935080600b018054600181600116156101000203166002900480601f016020809104026020016040519081016040528092919081815260200182805460018160011615610100020316600290048015610bb85780601f10610b8d57610100808354040283529160200191610bb8565b820191906000526020600020905b815481529060010190602001808311610b9b57829003601f168201915b505050505092505050915091565b6000600980549050905090565b6000600660009054906101000a900473ffffffffffffffffffffffffffffffffffffffff1673ffffffffffffffffffffffffffffffffffffffff166370a08231836040518263ffffffff1660e01b8152600401808273ffffffffffffffffffffffffffffffffffffffff1673ffffffffffffffffffffffffffffffffffffffff16815260200191505060206040518083038186803b158015610c7457600080fd5b505afa158015610c88573d6000803e3d6000fd5b505050506040513d6020811015610c9e57600080fd5b81019080805190602001909291905050509050919050565b60055481565b6000600660009054906101000a900473ffffffffffffffffffffffffffffffffffffffff1673ffffffffffffffffffffffffffffffffffffffff166318160ddd6040518163ffffffff1660e01b815260040160206040518083038186803b158015610d2657600080fd5b505afa158015610d3a573d6000803e3d6000fd5b505050506040513d6020811015610d5057600080fd5b8101908080519060200190929190505050905090565b7f290decd9548b62a8d60345a988386fc84ba6bc95484008f6362f93160ef3e56360001b81565b60045481565b6000600160009054906101000a900473ffffffffffffffffffffffffffffffffffffffff1673ffffffffffffffffffffffffffffffffffffffff166370a08231836040518263ffffffff1660e01b8152600401808273ffffffffffffffffffffffffffffffffffffffff1673ffffffffffffffffffffffffffffffffffffffff16815260200191505060206040518083038186803b158015610e3457600080fd5b505afa158015610e48573d6000803e3d6000fd5b505050506040513d6020811015610e5e57600080fd5b81019080805190602001909291905050509050919050565b6000610e8133610bd3565b11610ef4576040517f08c379a000000000000000000000000000000000000000000000000000000000815260040180806020018281038252600f8152602001807f6e6565642068617320736861726573000000000000000000000000000000000081525060200191505060405180910390fd5b6000610eff8461177b565b9050600060098281548110610f1057fe5b90600052602060002090600c020190506002548160080154014210610f9d576040517f08c379a00000000000000000000000000000000000000000000000000000000081526004018080602001828103825260088152602001807f74696d65206f757400000000000000000000000000000000000000000000000081525060200191505060405180910390fd5b60018460ff161480610fb2575060028460ff16145b611024576040517f08c379a000000000000000000000000000000000000000000000000000000000815260040180806020018281038252601f8152602001807f766f746520726573756c74206d757374206265206c657373207468616e20330081525060200191505060405180910390fd5b600015158160070160019054906101000a900460ff161515146110af576040517f08c379a00000000000000000000000000000000000000000000000000000000081526004018080602001828103825260128152602001807f70726f706f73616c2063616e742070617373000000000000000000000000000081525060200191505060405180910390fd5b600060028111156110bc57fe5b81600a0160003373ffffffffffffffffffffffffffffffffffffffff1673ffffffffffffffffffffffffffffffffffffffff16815260200190815260200160002060010160009054906101000a900460ff16600281111561111957fe5b1461118c576040517f08c379a00000000000000000000000000000000000000000000000000000000081526004018080602001828103825260148152602001807f566f7465732068617665206265656e206361737400000000000000000000000081525060200191505060405180910390fd5b6000600660009054906101000a900473ffffffffffffffffffffffffffffffffffffffff1673ffffffffffffffffffffffffffffffffffffffff166370a08231336040518263ffffffff1660e01b8152600401808273ffffffffffffffffffffffffffffffffffffffff1673ffffffffffffffffffffffffffffffffffffffff16815260200191505060206040518083038186803b15801561122d57600080fd5b505afa158015611241573d6000803e3d6000fd5b505050506040513d602081101561125757600080fd5b81019080805190602001909291905050509050838110156112e0576040517f08c379a00000000000000000000000000000000000000000000000000000000081526004018080602001828103825260118152602001807f6e6f7420656e6f7567682073686172657300000000000000000000000000000081525060200191505060405180910390fd5b60008560ff1660028111156112f157fe5b90508083600a0160003373ffffffffffffffffffffffffffffffffffffffff1673ffffffffffffffffffffffffffffffffffffffff16815260200190815260200160002060010160006101000a81548160ff0219169083600281111561135357fe5b02179055508483600a0160003373ffffffffffffffffffffffffffffffffffffffff1673ffffffffffffffffffffffffffffffffffffffff16815260200190815260200160002060000181905550600160028111156113ae57fe5b8160028111156113ba57fe5b14156113d4578483600501540183600501819055506113e4565b8483600601540183600601819055505b7fbc64f9d6bf28430c0cbce4b563fdb6c057c9d05e7f68f3ef84c1c4b91efb940e33888888604051808573ffffffffffffffffffffffffffffffffffffffff1673ffffffffffffffffffffffffffffffffffffffff1681526020018481526020018360ff1660ff16815260200182815260200194505050505060405180910390a150505050505050565b6000809054906101000a900473ffffffffffffffffffffffffffffffffffffffff1681565b600660009054906101000a900473ffffffffffffffffffffffffffffffffffffffff1681565b60006114c48261177b565b90506000600982815481106114d557fe5b90600052602060002090600c020190506003546002548260080154010142101561154a576040517f08c379a0000000000000000000000000000000000000000000000000000000008152600401808060200182810382526022815260200180611c256022913960400191505060405180910390fd5b600015158160070160009054906101000a900460ff161515146115d5576040517f08c379a00000000000000000000000000000000000000000000000000000000081526004018080602001828103825260198152602001807f70726f706f73616c20686173206265656e2070726f636573730000000000000081525060200191505060405180910390fd5b60018160070160006101000a81548160ff0219169083151502179055507f9351ad0db77a89c0836c30198d34259521e1dd1f69033188ce9eafccd51e1aa8836040518082815260200191505060405180910390a1806006015481600501541061173a5760018160070160016101000a81548160ff021916908315150217905550600b60009054906101000a900473ffffffffffffffffffffffffffffffffffffffff1673ffffffffffffffffffffffffffffffffffffffff1663b79fc5268260020154836003015484600401546040518463ffffffff1660e01b8152600401808481526020018381526020018281526020019350505050600060405180830381600087803b1580156116e657600080fd5b505af11580156116fa573d6000803e3d6000fd5b505050507f38e7bbda606caec7d6928b67f78e2e5b159127292c642c4702b301ae1e75a23c81600001546040518082815260200191505060405180910390a15b611746336005546119a4565b6117768160010160009054906101000a900473ffffffffffffffffffffffffffffffffffffffff166004546119a4565b505050565b600060098054905082111580156117925750600082115b611804576040517f08c379a00000000000000000000000000000000000000000000000000000000081526004018080602001828103825260178152602001807f70726f706f73616c20646f6573206e6f7420657869737400000000000000000081525060200191505060405180910390fd5b600182039050919050565b6000600160009054906101000a900473ffffffffffffffffffffffffffffffffffffffff1673ffffffffffffffffffffffffffffffffffffffff166323b872dd8585856040518463ffffffff1660e01b8152600401808473ffffffffffffffffffffffffffffffffffffffff1673ffffffffffffffffffffffffffffffffffffffff1681526020018373ffffffffffffffffffffffffffffffffffffffff1673ffffffffffffffffffffffffffffffffffffffff1681526020018281526020019350505050602060405180830381600087803b1580156118ee57600080fd5b505af1158015611902573d6000803e3d6000fd5b505050506040513d602081101561191857600080fd5b810190808051906020019092919050505090508061199e576040517f08c379a00000000000000000000000000000000000000000000000000000000081526004018080602001828103825260188152602001807f6173736574207472616e7366657246726f6d206572726f72000000000000000081525060200191505060405180910390fd5b50505050565b6000600160009054906101000a900473ffffffffffffffffffffffffffffffffffffffff1673ffffffffffffffffffffffffffffffffffffffff1663a9059cbb84846040518363ffffffff1660e01b8152600401808373ffffffffffffffffffffffffffffffffffffffff1673ffffffffffffffffffffffffffffffffffffffff16815260200182815260200192505050602060405180830381600087803b158015611a4f57600080fd5b505af1158015611a63573d6000803e3d6000fd5b505050506040513d6020811015611a7957600080fd5b8101908080519060200190929190505050905080611aff576040517f08c379a00000000000000000000000000000000000000000000000000000000081526004018080602001828103825260188152602001807f6173736574207472616e7366657246726f6d206572726f72000000000000000081525060200191505060405180910390fd5b505050565b60405180610180016040528060008152602001600073ffffffffffffffffffffffffffffffffffffffff16815260200160008152602001600081526020016000815260200160008152602001600081526020016000151581526020016000151581526020016000815260200160008152602001606081525090565b828054600181600116156101000203166002900490600052602060002090601f016020900481019282601f10611bc057805160ff1916838001178555611bee565b82800160010185558215611bee579182015b82811115611bed578251825591602001919060010190611bd2565b5b509050611bfb9190611bff565b5090565b611c2191905b80821115611c1d576000816000905550600101611c05565b5090565b9056fe53686f756c642065786365656420746865207075626c696369747920706572696f64a165627a7a723058200ecc1af2a70665d72aad951be7704061b51eee585a5570c82566fee138c2969f0029",
  "source": "pragma solidity >=0.4.22 <0.6.0;\r\n\r\nimport \"./VoteApp.sol\";\r\nimport \"../Tap/Tap.sol\";\r\nimport \"../Interface/IDateTime.sol\";\r\nimport \"../Interface/ITradeFundPool.sol\";\r\n\r\ncontract Vote_ChangeMonthlyAllocation is VoteApp{\r\n\r\n    /// @notice \r\n    Proposal[] private proposalQueue;\r\n\r\n    mapping(bytes32=>uint256) counter;\r\n\r\n    address private tradeAddress;\r\n\r\n    /// @notice \r\n    struct Proposal{\r\n        uint256 index;//\r\n        address payable proposer; //\r\n        uint256 ratio;\r\n        uint256 minValue;\r\n        uint256 maxValue;\r\n        uint256 approveVotes; //\r\n        uint256 refuseVotes; //\r\n        bool process; //\r\n        bool pass; //\r\n        uint256 votingStartTime;//\r\n        uint256 publicityStartTime;//\r\n        mapping(address => VoteInfo) voteDetails;\r\n        string detail; //\r\n    }\r\n\r\n    /// @notice \r\n    event OnApplyProposal(\r\n        uint256 index,\r\n        address payable proposaler,\r\n        uint256 ratio,\r\n        uint256 minValue,\r\n        uint256 maxValue,\r\n        uint256 votingStartTime\r\n    );\r\n\r\n    /// @param who \r\n    /// @param index \r\n    /// @param voteResult \r\n    /// @param shares \r\n    event OnVote(\r\n        address who,\r\n        uint256 index,\r\n        uint8 voteResult,\r\n        uint256 shares\r\n    );\r\n\r\n    /// @param index \r\n    event OnPass(uint256 index);\r\n\r\n    /// @param index \r\n    event OnProcess(\r\n        uint256 index\r\n    );\r\n\r\n    constructor(AppManager _appManager,address _sharesAddress,address _tradeAddress,uint256 _votingPeriodLength,uint256 _publicityPeriodLength)\r\n    VoteApp(_appManager,_sharesAddress,_votingPeriodLength,_publicityPeriodLength)\r\n    public\r\n    {\r\n        sharesAddress = _sharesAddress;\r\n        tradeAddress = _tradeAddress;\r\n    }\r\n\r\n    /////////////\r\n    /// \r\n    /////////////\r\n    //\r\n    function getProposalQueueLength() public view returns(uint256){\r\n        return proposalQueue.length;\r\n    }\r\n\r\n    ///index()\r\n    function getProposalBaseInfoByIndex(uint256 _proposalIndex)\r\n    public\r\n    view\r\n    returns(address _proposer,string memory _detail)\r\n    {\r\n        uint256 queueIndex = proposalIndexToQueueIndex(_proposalIndex);\r\n        Proposal storage proposal = proposalQueue[queueIndex];\r\n        _proposer = proposal.proposer;\r\n        _detail = proposal.detail;\r\n    }\r\n\r\n    ///\r\n    function getProposalStateByIndex(uint256 _proposalIndex)\r\n    public\r\n    view\r\n    returns(uint256 _approveVotes,uint256 _refuseVotes,bool _process,bool _pass)\r\n    {\r\n        uint256 queueIndex = proposalIndexToQueueIndex(_proposalIndex);\r\n        Proposal storage proposal = proposalQueue[queueIndex];\r\n        _approveVotes = proposal.approveVotes;\r\n        _refuseVotes = proposal.refuseVotes;\r\n        _process = proposal.process;\r\n        _pass = proposal.pass;\r\n    }\r\n\r\n    /// @notice \r\n    /// @param _detail \r\n    function applyProposal(\r\n        uint256 _ratio,\r\n        uint256 _minValue,\r\n        uint256 _maxValue,\r\n        string memory _detail\r\n    )\r\n    public\r\n    payable\r\n    ownShares()\r\n    {\r\n        transferF(msg.sender,address(this),proposalFee + deposit);\r\n\r\n        Proposal memory proposal = Proposal({\r\n            index : proposalQueue.length + 1,\r\n            proposer : msg.sender,\r\n            approveVotes : 0,\r\n            refuseVotes : 0,\r\n            process : false,\r\n            pass : false,\r\n            ratio : _ratio,\r\n            minValue : _minValue,\r\n            maxValue : _maxValue,\r\n            detail : _detail,\r\n            votingStartTime : now,\r\n            publicityStartTime : 0\r\n        });\r\n        proposalQueue.push(proposal);\r\n\r\n        emit OnApplyProposal(\r\n            proposal.index,\r\n            proposal.proposer,\r\n            proposal.ratio,\r\n            proposal.minValue,\r\n            proposal.maxValue,\r\n            proposal.votingStartTime\r\n        );\r\n    }\r\n\r\n    function vote(uint256 _proposalIndex,uint8 result,uint256 sharesAmount) public ownShares() {\r\n        //\r\n        uint256 queueIndex = proposalIndexToQueueIndex(_proposalIndex);\r\n        Proposal storage proposal = proposalQueue[queueIndex];\r\n        //\r\n        require(now < proposal.votingStartTime + votingPeriodLength,\"time out\");\r\n        //\r\n        require(result == 1||result == 2,\"vote result must be less than 3\");\r\n        //\r\n        require(proposal.pass == false,\"proposal cant pass\");\r\n        //\r\n        require(proposal.voteDetails[msg.sender].result == enumVoteResult.waiver,\"Votes have been cast\");\r\n        //\r\n        uint256 balance = IERC20(sharesAddress).balanceOf(msg.sender);\r\n        require(balance >= sharesAmount,\"not enough shares\");\r\n        //\r\n        enumVoteResult voteResult = enumVoteResult(result);\r\n        proposal.voteDetails[msg.sender].result = voteResult;\r\n        proposal.voteDetails[msg.sender].sharesAmount = sharesAmount;\r\n\r\n        if(voteResult == enumVoteResult.approve){\r\n            proposal.approveVotes = proposal.approveVotes + sharesAmount;\r\n        }\r\n        else{\r\n            proposal.refuseVotes = proposal.refuseVotes + sharesAmount;\r\n        }\r\n\r\n        emit OnVote(msg.sender,_proposalIndex,result,sharesAmount);\r\n    }\r\n\r\n    /// @notice \r\n    /// @param _proposalIndex \r\n    function process(uint256 _proposalIndex) public {\r\n        uint256 queueIndex = proposalIndexToQueueIndex(_proposalIndex);\r\n        Proposal storage proposal = proposalQueue[queueIndex];\r\n        //\r\n        require(now >= proposal.votingStartTime + votingPeriodLength + publicityPeriodLength,\"Should exceed the publicity period\");\r\n        //\r\n        require(proposal.process == false,\"proposal has been process\");\r\n        proposal.process = true;\r\n\r\n        emit OnProcess(_proposalIndex);\r\n\r\n        if (proposal.approveVotes >= proposal.refuseVotes) {\r\n            proposal.pass = true;\r\n            ////ratio\r\n            ITradeFundPool(tradeAddress).changeRatio(proposal.ratio,proposal.minValue,proposal.maxValue);\r\n            emit OnPass(proposal.index);\r\n        }\r\n\r\n        //\r\n        transferM(msg.sender,proposalFee);\r\n        //\r\n        transferM(proposal.proposer,deposit);\r\n    }\r\n\r\n    function proposalIndexToQueueIndex(uint256 _proposalIndex) private view returns(uint256){\r\n        //\r\n        require(_proposalIndex <= proposalQueue.length && _proposalIndex>0,\"proposal does not exist\");\r\n        return _proposalIndex - 1;\r\n    }\r\n\r\n    function() external payable{\r\n    }\r\n}",
  "sourcePath": "D:/_______work/FD_Contract_ETH/fd/contracts/Vote/Vote_ChangeMonthlyAllocationRatio.sol",
  "compiler": {
    "name": "solc",
    "version": "0.5.8+commit.23d335f2.Emscripten.clang"
  },
  "schemaVersion": "3.0.11",
  "updatedAt": "2019-11-26T10:03:07.688Z",
  "devdoc": {
    "methods": {
      "applyProposal(uint256,uint256,uint256,string)": {
        "params": {
          "_detail": ""
        }
      },
      "process(uint256)": {
        "params": {
          "_proposalIndex": ""
        }
      }
    }
  },
  "userdoc": {
    "methods": {
      "getBalanceOf(address)": {
        "notice": ""
      },
      "getProposalBaseInfoByIndex(uint256)": {
        "notice": "index()"
      },
      "getProposalQueueLength()": {
        "notice": "//////////"
      },
      "getProposalStateByIndex(uint256)": {
        "notice": ""
      },
      "getTotalSupply()": {
        "notice": ""
      }
    }
  }
}