{
  "contractName": "Vote_ApplySharesA",
  "abi": [
    {
      "constant": true,
      "inputs": [],
      "name": "Vote_ApplyFund_oneTicketStopTap",
      "outputs": [
        {
          "name": "",
          "type": "bytes32"
        }
      ],
      "payable": false,
      "stateMutability": "view",
      "type": "function"
    },
    {
      "constant": true,
      "inputs": [],
      "name": "approveRatio",
      "outputs": [
        {
          "name": "",
          "type": "uint256"
        }
      ],
      "payable": false,
      "stateMutability": "view",
      "type": "function"
    },
    {
      "constant": true,
      "inputs": [],
      "name": "voteRatio",
      "outputs": [
        {
          "name": "",
          "type": "uint256"
        }
      ],
      "payable": false,
      "stateMutability": "view",
      "type": "function"
    },
    {
      "constant": true,
      "inputs": [],
      "name": "getAppManagerAddress",
      "outputs": [
        {
          "name": "",
          "type": "address"
        }
      ],
      "payable": false,
      "stateMutability": "view",
      "type": "function"
    },
    {
      "constant": true,
      "inputs": [],
      "name": "ETH",
      "outputs": [
        {
          "name": "",
          "type": "address"
        }
      ],
      "payable": false,
      "stateMutability": "view",
      "type": "function"
    },
    {
      "constant": true,
      "inputs": [
        {
          "name": "_addr",
          "type": "address"
        }
      ],
      "name": "getBalanceOf",
      "outputs": [
        {
          "name": "",
          "type": "uint256"
        }
      ],
      "payable": false,
      "stateMutability": "view",
      "type": "function"
    },
    {
      "constant": true,
      "inputs": [],
      "name": "proposalFee",
      "outputs": [
        {
          "name": "",
          "type": "uint256"
        }
      ],
      "payable": false,
      "stateMutability": "view",
      "type": "function"
    },
    {
      "constant": true,
      "inputs": [],
      "name": "getTotalSupply",
      "outputs": [
        {
          "name": "",
          "type": "uint256"
        }
      ],
      "payable": false,
      "stateMutability": "view",
      "type": "function"
    },
    {
      "constant": true,
      "inputs": [],
      "name": "EMPTY_PARAM_HASH",
      "outputs": [
        {
          "name": "",
          "type": "bytes32"
        }
      ],
      "payable": false,
      "stateMutability": "view",
      "type": "function"
    },
    {
      "constant": true,
      "inputs": [],
      "name": "Vote_ApplyFund_OneTicketRefuseProposal",
      "outputs": [
        {
          "name": "",
          "type": "bytes32"
        }
      ],
      "payable": false,
      "stateMutability": "view",
      "type": "function"
    },
    {
      "constant": true,
      "inputs": [],
      "name": "deposit",
      "outputs": [
        {
          "name": "",
          "type": "uint256"
        }
      ],
      "payable": false,
      "stateMutability": "view",
      "type": "function"
    },
    {
      "constant": true,
      "inputs": [],
      "name": "appManager",
      "outputs": [
        {
          "name": "",
          "type": "address"
        }
      ],
      "payable": false,
      "stateMutability": "view",
      "type": "function"
    },
    {
      "constant": true,
      "inputs": [],
      "name": "sharesAddress",
      "outputs": [
        {
          "name": "",
          "type": "address"
        }
      ],
      "payable": false,
      "stateMutability": "view",
      "type": "function"
    },
    {
      "inputs": [
        {
          "name": "_appManager",
          "type": "address"
        },
        {
          "name": "_governAddress",
          "type": "address"
        },
        {
          "name": "_sharesAddress",
          "type": "address"
        },
        {
          "name": "_voteRatio",
          "type": "uint256"
        },
        {
          "name": "_approveRatio",
          "type": "uint256"
        }
      ],
      "payable": false,
      "stateMutability": "nonpayable",
      "type": "constructor"
    },
    {
      "payable": true,
      "stateMutability": "payable",
      "type": "fallback"
    },
    {
      "anonymous": false,
      "inputs": [
        {
          "indexed": false,
          "name": "index",
          "type": "uint256"
        },
        {
          "indexed": false,
          "name": "proposalName",
          "type": "string"
        },
        {
          "indexed": false,
          "name": "proposaler",
          "type": "address"
        },
        {
          "indexed": false,
          "name": "sharesAmount",
          "type": "uint256"
        },
        {
          "indexed": false,
          "name": "assetValue",
          "type": "uint256"
        },
        {
          "indexed": false,
          "name": "votingStartTime",
          "type": "uint256"
        },
        {
          "indexed": false,
          "name": "detail",
          "type": "string"
        }
      ],
      "name": "OnApplyProposal",
      "type": "event"
    },
    {
      "anonymous": false,
      "inputs": [
        {
          "indexed": false,
          "name": "who",
          "type": "address"
        },
        {
          "indexed": false,
          "name": "index",
          "type": "uint256"
        },
        {
          "indexed": false,
          "name": "voteResult",
          "type": "uint8"
        },
        {
          "indexed": false,
          "name": "shares",
          "type": "uint256"
        }
      ],
      "name": "OnVote",
      "type": "event"
    },
    {
      "anonymous": false,
      "inputs": [
        {
          "indexed": false,
          "name": "index",
          "type": "uint256"
        }
      ],
      "name": "OnPass",
      "type": "event"
    },
    {
      "anonymous": false,
      "inputs": [
        {
          "indexed": false,
          "name": "index",
          "type": "uint256"
        }
      ],
      "name": "OnProcess",
      "type": "event"
    },
    {
      "anonymous": false,
      "inputs": [
        {
          "indexed": false,
          "name": "index",
          "type": "uint256"
        },
        {
          "indexed": false,
          "name": "assetValue",
          "type": "uint256"
        }
      ],
      "name": "OnGetAssetBack",
      "type": "event"
    },
    {
      "constant": true,
      "inputs": [],
      "name": "getProposalQueueLength",
      "outputs": [
        {
          "name": "",
          "type": "uint256"
        }
      ],
      "payable": false,
      "stateMutability": "view",
      "type": "function"
    },
    {
      "constant": true,
      "inputs": [
        {
          "name": "_proposalIndex",
          "type": "uint256"
        }
      ],
      "name": "getProposalInfoByIndex",
      "outputs": [
        {
          "name": "_proposalName",
          "type": "string"
        },
        {
          "name": "_proposer",
          "type": "address"
        },
        {
          "name": "_sharesAmount",
          "type": "uint256"
        },
        {
          "name": "_assetValue",
          "type": "uint256"
        },
        {
          "name": "_detail",
          "type": "string"
        }
      ],
      "payable": false,
      "stateMutability": "view",
      "type": "function"
    },
    {
      "constant": true,
      "inputs": [
        {
          "name": "_proposalIndex",
          "type": "uint256"
        }
      ],
      "name": "getProposalStateByIndex",
      "outputs": [
        {
          "name": "_approveVotes",
          "type": "uint256"
        },
        {
          "name": "_refuseVotes",
          "type": "uint256"
        },
        {
          "name": "_process",
          "type": "bool"
        },
        {
          "name": "_pass",
          "type": "bool"
        },
        {
          "name": "_votingStartTime",
          "type": "uint256"
        },
        {
          "name": "_publicityStartTime",
          "type": "uint256"
        }
      ],
      "payable": false,
      "stateMutability": "view",
      "type": "function"
    },
    {
      "constant": false,
      "inputs": [
        {
          "name": "_name",
          "type": "string"
        },
        {
          "name": "_sharesAmount",
          "type": "uint256"
        },
        {
          "name": "_assetValue",
          "type": "uint256"
        },
        {
          "name": "_detail",
          "type": "string"
        }
      ],
      "name": "applyProposal",
      "outputs": [],
      "payable": true,
      "stateMutability": "payable",
      "type": "function"
    },
    {
      "constant": false,
      "inputs": [
        {
          "name": "_proposalIndex",
          "type": "uint256"
        },
        {
          "name": "result",
          "type": "uint8"
        },
        {
          "name": "sharesAmount",
          "type": "uint256"
        }
      ],
      "name": "vote",
      "outputs": [],
      "payable": false,
      "stateMutability": "nonpayable",
      "type": "function"
    },
    {
      "constant": false,
      "inputs": [
        {
          "name": "_proposalIndex",
          "type": "uint256"
        }
      ],
      "name": "process",
      "outputs": [],
      "payable": false,
      "stateMutability": "nonpayable",
      "type": "function"
    },
    {
      "constant": false,
      "inputs": [
        {
          "name": "_proposalIndex",
          "type": "uint256"
        }
      ],
      "name": "getAssetBack",
      "outputs": [],
      "payable": false,
      "stateMutability": "nonpayable",
      "type": "function"
    }
  ],
  "bytecode": "0x60806040526000600260006101000a81548173ffffffffffffffffffffffffffffffffffffffff021916908373ffffffffffffffffffffffffffffffffffffffff16021790555061012c60035561021c600455600060055560006006556000600760006101000a81548173ffffffffffffffffffffffffffffffffffffffff021916908373ffffffffffffffffffffffffffffffffffffffff160217905550600060085560006009553480156100b457600080fd5b5060405160a080620028f1833981018060405260a08110156100d557600080fd5b8101908080519060200190929190805190602001909291908051906020019092919080519060200190929190805190602001909291905050508483838383806000806101000a81548173ffffffffffffffffffffffffffffffffffffffff021916908373ffffffffffffffffffffffffffffffffffffffff1602179055508073ffffffffffffffffffffffffffffffffffffffff1663670ab5e96040518163ffffffff1660e01b815260040160206040518083038186803b15801561019957600080fd5b505afa1580156101ad573d6000803e3d6000fd5b505050506040513d60208110156101c357600080fd5b8101908080519060200190929190505050600160006101000a81548173ffffffffffffffffffffffffffffffffffffffff021916908373ffffffffffffffffffffffffffffffffffffffff16021790555050816008819055508060098190555082600760006101000a81548173ffffffffffffffffffffffffffffffffffffffff021916908373ffffffffffffffffffffffffffffffffffffffff1602179055505050505083600b60006101000a81548173ffffffffffffffffffffffffffffffffffffffff021916908373ffffffffffffffffffffffffffffffffffffffff160217905550505050505061263380620002be6000396000f3fe60806040526004361061011f5760003560e01c8063c27cabb5116100a0578063d0e30db011610064578063d0e30db014610708578063e520251a14610733578063ebe86c1314610785578063f33670aa146107dc578063ffb2c479146108335761011f565b8063c27cabb5146104fb578063c4e41b2214610526578063c513f66e14610551578063c5e684d21461057c578063ca9c846c146106dd5761011f565b80634c330077116100e75780634c3300771461025757806377321810146102ae578063797daf70146104145780638322fff21461043f5780639b96eece146104965761011f565b80631ab3c1d3146101215780633968ccfe1461019b57806343f7b98a146101c65780634413550d146101f1578063452f783c1461022c575b005b34801561012d57600080fd5b5061015a6004803603602081101561014457600080fd5b810190808035906020019092919050505061086e565b604051808781526020018681526020018515151515815260200184151515158152602001838152602001828152602001965050505050505060405180910390f35b3480156101a757600080fd5b506101b06108f2565b6040518082815260200191505060405180910390f35b3480156101d257600080fd5b506101db61092b565b6040518082815260200191505060405180910390f35b3480156101fd57600080fd5b5061022a6004803603602081101561021457600080fd5b8101908080359060200190929190505050610931565b005b34801561023857600080fd5b50610241610b39565b6040518082815260200191505060405180910390f35b34801561026357600080fd5b5061026c610b3f565b604051808273ffffffffffffffffffffffffffffffffffffffff1673ffffffffffffffffffffffffffffffffffffffff16815260200191505060405180910390f35b610412600480360360808110156102c457600080fd5b81019080803590602001906401000000008111156102e157600080fd5b8201836020820111156102f357600080fd5b8035906020019184600183028401116401000000008311171561031557600080fd5b91908080601f016020809104026020016040519081016040528093929190818152602001838380828437600081840152601f19601f82011690508083019250505050505050919291929080359060200190929190803590602001909291908035906020019064010000000081111561038c57600080fd5b82018360208201111561039e57600080fd5b803590602001918460018302840111640100000000831117156103c057600080fd5b91908080601f016020809104026020016040519081016040528093929190818152602001838380828437600081840152601f19601f820116905080830192505050505050509192919290505050610b68565b005b34801561042057600080fd5b50610429610f39565b6040518082815260200191505060405180910390f35b34801561044b57600080fd5b50610454610f46565b604051808273ffffffffffffffffffffffffffffffffffffffff1673ffffffffffffffffffffffffffffffffffffffff16815260200191505060405180910390f35b3480156104a257600080fd5b506104e5600480360360208110156104b957600080fd5b81019080803573ffffffffffffffffffffffffffffffffffffffff169060200190929190505050610f6c565b6040518082815260200191505060405180910390f35b34801561050757600080fd5b5061051061104f565b6040518082815260200191505060405180910390f35b34801561053257600080fd5b5061053b611055565b6040518082815260200191505060405180910390f35b34801561055d57600080fd5b506105666110ff565b6040518082815260200191505060405180910390f35b34801561058857600080fd5b506105b56004803603602081101561059f57600080fd5b8101908080359060200190929190505050611126565b60405180806020018673ffffffffffffffffffffffffffffffffffffffff1673ffffffffffffffffffffffffffffffffffffffff16815260200185815260200184815260200180602001838103835288818151815260200191508051906020019080838360005b8381101561063757808201518184015260208101905061061c565b50505050905090810190601f1680156106645780820380516001836020036101000a031916815260200191505b50838103825284818151815260200191508051906020019080838360005b8381101561069d578082015181840152602081019050610682565b50505050905090810190601f1680156106ca5780820380516001836020036101000a031916815260200191505b5097505050505050505060405180910390f35b3480156106e957600080fd5b506106f26112d9565b6040518082815260200191505060405180910390f35b34801561071457600080fd5b5061071d6112f5565b6040518082815260200191505060405180910390f35b34801561073f57600080fd5b506107836004803603606081101561075657600080fd5b8101908080359060200190929190803560ff169060200190929190803590602001909291905050506112fb565b005b34801561079157600080fd5b5061079a61181e565b604051808273ffffffffffffffffffffffffffffffffffffffff1673ffffffffffffffffffffffffffffffffffffffff16815260200191505060405180910390f35b3480156107e857600080fd5b506107f1611843565b604051808273ffffffffffffffffffffffffffffffffffffffff1673ffffffffffffffffffffffffffffffffffffffff16815260200191505060405180910390f35b34801561083f57600080fd5b5061086c6004803603602081101561085657600080fd5b8101908080359060200190929190505050611869565b005b600080600080600080600061088288611c69565b90506000600a828154811061089357fe5b90600052602060002090600c0201905080600501549750806006015496508060070160009054906101000a900460ff1695508060070160019054906101000a900460ff1694508060080154935080600901549250505091939550919395565b60405180807f566f74655f4170706c7946756e645f6f6e655469636b657453746f7054617000815250601f019050604051809103902081565b60095481565b600061093c82611c69565b90506000600a828154811061094d57fe5b90600052602060002090600c02019050600354816008015401421015801561098a5750600015158160070160019054906101000a900460ff161515145b6109fc576040517f08c379a000000000000000000000000000000000000000000000000000000000815260040180806020018281038252601d8152602001807f5374696c6c206f6e207468652062616c6c6f74206f722070617373656400000081525060200191505060405180910390fd5b6000816004015411610a76576040517f08c379a00000000000000000000000000000000000000000000000000000000081526004018080602001828103825260108152602001807f4e6f206d6f6e657920746f206261636b0000000000000000000000000000000081525060200191505060405180910390fd5b610aa88160020160009054906101000a900473ffffffffffffffffffffffffffffffffffffffff168260040154611cfd565b507ffeb5211da564b90c4321524bb5e4ff7dc27ff0faa0eaf919f00c73abc645f339838260040154604051808381526020018281526020019250505060405180910390a160008160040181905550610b0233600654611cfd565b50610b338160020160009054906101000a900473ffffffffffffffffffffffffffffffffffffffff16600554611cfd565b50505050565b60085481565b60008060009054906101000a900473ffffffffffffffffffffffffffffffffffffffff16905090565b6000610b7333610f6c565b11610be6576040517f08c379a000000000000000000000000000000000000000000000000000000000815260040180806020018281038252600f8152602001807f6e6565642068617320736861726573000000000000000000000000000000000081525060200191505060405180910390fd5b610bf7600554600654840101611f26565b50610c0061247e565b6040518061018001604052806001600a805490500181526020018681526020013373ffffffffffffffffffffffffffffffffffffffff1681526020018581526020018481526020016000815260200160008152602001600015158152602001600015158152602001428152602001600081526020018381525090507f080b678a96055145043c08f5b79c3f5d269141d10953233abb8e2c48419a4bbd8160000151826020015183604001518460600151856080015186610120015187610160015160405180888152602001806020018773ffffffffffffffffffffffffffffffffffffffff1673ffffffffffffffffffffffffffffffffffffffff16815260200186815260200185815260200184815260200180602001838103835289818151815260200191508051906020019080838360005b83811015610d4f578082015181840152602081019050610d34565b50505050905090810190601f168015610d7c5780820380516001836020036101000a031916815260200191505b50838103825284818151815260200191508051906020019080838360005b83811015610db5578082015181840152602081019050610d9a565b50505050905090810190601f168015610de25780820380516001836020036101000a031916815260200191505b50995050505050505050505060405180910390a1600a819080600181540180825580915050906001820390600052602060002090600c020160009091929091909150600082015181600001556020820151816001019080519060200190610e4a9291906124f9565b5060408201518160020160006101000a81548173ffffffffffffffffffffffffffffffffffffffff021916908373ffffffffffffffffffffffffffffffffffffffff160217905550606082015181600301556080820151816004015560a0820151816005015560c0820151816006015560e08201518160070160006101000a81548160ff0219169083151502179055506101008201518160070160016101000a81548160ff0219169083151502179055506101208201518160080155610140820151816009015561016082015181600b019080519060200190610f2e9291906124f9565b505050505050505050565b6000600a80549050905090565b600260009054906101000a900473ffffffffffffffffffffffffffffffffffffffff1681565b6000600760009054906101000a900473ffffffffffffffffffffffffffffffffffffffff1673ffffffffffffffffffffffffffffffffffffffff166370a08231836040518263ffffffff1660e01b8152600401808273ffffffffffffffffffffffffffffffffffffffff1673ffffffffffffffffffffffffffffffffffffffff16815260200191505060206040518083038186803b15801561100d57600080fd5b505afa158015611021573d6000803e3d6000fd5b505050506040513d602081101561103757600080fd5b81019080805190602001909291905050509050919050565b60065481565b6000600760009054906101000a900473ffffffffffffffffffffffffffffffffffffffff1673ffffffffffffffffffffffffffffffffffffffff166318160ddd6040518163ffffffff1660e01b815260040160206040518083038186803b1580156110bf57600080fd5b505afa1580156110d3573d6000803e3d6000fd5b505050506040513d60208110156110e957600080fd5b8101908080519060200190929190505050905090565b7f290decd9548b62a8d60345a988386fc84ba6bc95484008f6362f93160ef3e56360001b81565b606060008060006060600061113a87611c69565b90506000600a828154811061114b57fe5b90600052602060002090600c02019050806001018054600181600116156101000203166002900480601f0160208091040260200160405190810160405280929190818152602001828054600181600116156101000203166002900480156111f35780601f106111c8576101008083540402835291602001916111f3565b820191906000526020600020905b8154815290600101906020018083116111d657829003601f168201915b505050505096508060020160009054906101000a900473ffffffffffffffffffffffffffffffffffffffff16955080600b018054600181600116156101000203166002900480601f0160208091040260200160405190810160405280929190818152602001828054600181600116156101000203166002900480156112b95780601f1061128e576101008083540402835291602001916112b9565b820191906000526020600020905b81548152906001019060200180831161129c57829003601f168201915b505050505092508060030154945080600401549350505091939590929450565b60405180806125c0602691396026019050604051809103902081565b60055481565b600061130633610f6c565b11611379576040517f08c379a000000000000000000000000000000000000000000000000000000000815260040180806020018281038252600f8152602001807f6e6565642068617320736861726573000000000000000000000000000000000081525060200191505060405180910390fd5b600061138484611c69565b90506000600a828154811061139557fe5b90600052602060002090600c020190506003548160080154014210611422576040517f08c379a00000000000000000000000000000000000000000000000000000000081526004018080602001828103825260088152602001807f74696d65206f757400000000000000000000000000000000000000000000000081525060200191505060405180910390fd5b60018460ff161480611437575060028460ff16145b6114a9576040517f08c379a000000000000000000000000000000000000000000000000000000000815260040180806020018281038252601f8152602001807f766f746520726573756c74206d757374206265206c657373207468616e20330081525060200191505060405180910390fd5b600060028111156114b657fe5b81600a0160003373ffffffffffffffffffffffffffffffffffffffff1673ffffffffffffffffffffffffffffffffffffffff16815260200190815260200160002060010160009054906101000a900460ff16600281111561151357fe5b14611586576040517f08c379a00000000000000000000000000000000000000000000000000000000081526004018080602001828103825260148152602001807f566f7465732068617665206265656e206361737400000000000000000000000081525060200191505060405180910390fd5b8261159033610f6c565b11611603576040517f08c379a00000000000000000000000000000000000000000000000000000000081526004018080602001828103825260128152602001807f6e6f7420656e6f7567682073686172657341000000000000000000000000000081525060200191505060405180910390fd5b60008460ff16600281111561161457fe5b90508082600a0160003373ffffffffffffffffffffffffffffffffffffffff1673ffffffffffffffffffffffffffffffffffffffff16815260200190815260200160002060010160006101000a81548160ff0219169083600281111561167657fe5b02179055508382600a0160003373ffffffffffffffffffffffffffffffffffffffff1673ffffffffffffffffffffffffffffffffffffffff16815260200190815260200160002060000181905550600160028111156116d157fe5b8160028111156116dd57fe5b14156116f757838260050154018260050181905550611707565b8382600601540182600601819055505b7fbc64f9d6bf28430c0cbce4b563fdb6c057c9d05e7f68f3ef84c1c4b91efb940e33878787604051808573ffffffffffffffffffffffffffffffffffffffff1673ffffffffffffffffffffffffffffffffffffffff1681526020018481526020018360ff1660ff16815260200182815260200194505050505060405180910390a1600080600061179f856005015486600601546121b0565b80935081945082955050505082156118135760018560070160016101000a81548160ff0219169083151502179055504285600901819055507f38e7bbda606caec7d6928b67f78e2e5b159127292c642c4702b301ae1e75a23c85600001546040518082815260200191505060405180910390a15b505050505050505050565b6000809054906101000a900473ffffffffffffffffffffffffffffffffffffffff1681565b600760009054906101000a900473ffffffffffffffffffffffffffffffffffffffff1681565b600061187482611c69565b90506000600a828154811061188557fe5b90600052602060002090600c020190506004546003548260080154010142116118f9576040517f08c379a00000000000000000000000000000000000000000000000000000000081526004018080602001828103825260228152602001806125e66022913960400191505060405180910390fd5b600115158160070160019054906101000a900460ff16151514611984576040517f08c379a00000000000000000000000000000000000000000000000000000000081526004018080602001828103825260128152602001807f70726f706f73616c206e6565642070617373000000000000000000000000000081525060200191505060405180910390fd5b600015158160070160009054906101000a900460ff16151514611a0f576040517f08c379a00000000000000000000000000000000000000000000000000000000081526004018080602001828103825260198152602001807f70726f706f73616c20686173206265656e2070726f636573730000000000000081525060200191505060405180910390fd5b60018160070160006101000a81548160ff0219169083151502179055507f9351ad0db77a89c0836c30198d34259521e1dd1f69033188ce9eafccd51e1aa8836040518082815260200191505060405180910390a16000600b60009054906101000a900473ffffffffffffffffffffffffffffffffffffffff1673ffffffffffffffffffffffffffffffffffffffff16635b9c232d8360020160009054906101000a900473ffffffffffffffffffffffffffffffffffffffff1684600301546040518363ffffffff1660e01b8152600401808373ffffffffffffffffffffffffffffffffffffffff1673ffffffffffffffffffffffffffffffffffffffff16815260200182815260200192505050602060405180830381600087803b158015611b3657600080fd5b505af1158015611b4a573d6000803e3d6000fd5b505050506040513d6020811015611b6057600080fd5b8101908080519060200190929190505050905080611be6576040517f08c379a00000000000000000000000000000000000000000000000000000000081526004018080602001828103825260118152602001807f6d696e7473686172657341206661696c6400000000000000000000000000000081525060200191505060405180910390fd5b600082600401541115611c2557611c23600b60009054906101000a900473ffffffffffffffffffffffffffffffffffffffff168360040154611cfd565b505b611c3133600654611cfd565b50611c628260020160009054906101000a900473ffffffffffffffffffffffffffffffffffffffff16600554611cfd565b5050505050565b6000600a805490508211158015611c805750600082115b611cf2576040517f08c379a00000000000000000000000000000000000000000000000000000000081526004018080602001828103825260178152602001807f70726f706f73616c20646f6573206e6f7420657869737400000000000000000081525060200191505060405180910390fd5b600182039050919050565b6000600260009054906101000a900473ffffffffffffffffffffffffffffffffffffffff1673ffffffffffffffffffffffffffffffffffffffff16600160009054906101000a900473ffffffffffffffffffffffffffffffffffffffff1673ffffffffffffffffffffffffffffffffffffffff161415611dc3578273ffffffffffffffffffffffffffffffffffffffff166108fc839081150290604051600060405180830381858888f19350505050158015611dbd573d6000803e3d6000fd5b50611f20565b6000600160009054906101000a900473ffffffffffffffffffffffffffffffffffffffff1673ffffffffffffffffffffffffffffffffffffffff1663a9059cbb33856040518363ffffffff1660e01b8152600401808373ffffffffffffffffffffffffffffffffffffffff1673ffffffffffffffffffffffffffffffffffffffff16815260200182815260200192505050602060405180830381600087803b158015611e6e57600080fd5b505af1158015611e82573d6000803e3d6000fd5b505050506040513d6020811015611e9857600080fd5b8101908080519060200190929190505050905080611f1e576040517f08c379a000000000000000000000000000000000000000000000000000000000815260040180806020018281038252600e8152602001807f7472616e73666572206572726f7200000000000000000000000000000000000081525060200191505060405180910390fd5b505b92915050565b6000600260009054906101000a900473ffffffffffffffffffffffffffffffffffffffff1673ffffffffffffffffffffffffffffffffffffffff16600160009054906101000a900473ffffffffffffffffffffffffffffffffffffffff1673ffffffffffffffffffffffffffffffffffffffff16141561201a57348214612015576040517f08c379a000000000000000000000000000000000000000000000000000000000815260040180806020018281038252600b8152602001807f76616c75652077726f6e6700000000000000000000000000000000000000000081525060200191505060405180910390fd5b6121ab565b6000600160009054906101000a900473ffffffffffffffffffffffffffffffffffffffff1673ffffffffffffffffffffffffffffffffffffffff166323b872dd3330866040518463ffffffff1660e01b8152600401808473ffffffffffffffffffffffffffffffffffffffff1673ffffffffffffffffffffffffffffffffffffffff1681526020018373ffffffffffffffffffffffffffffffffffffffff1673ffffffffffffffffffffffffffffffffffffffff1681526020018281526020019350505050602060405180830381600087803b1580156120f957600080fd5b505af115801561210d573d6000803e3d6000fd5b505050506040513d602081101561212357600080fd5b81019080805190602001909291905050509050806121a9576040517f08c379a00000000000000000000000000000000000000000000000000000000081526004018080602001828103825260128152602001807f7472616e7366657246726f6d206572726f72000000000000000000000000000081525060200191505060405180910390fd5b505b919050565b60008060006121f56121c0611055565b6121e76103e86121d9888a61226090919063ffffffff16565b6122e890919063ffffffff16565b61236e90919063ffffffff16565b915061223061220d858761226090919063ffffffff16565b6122226103e8886122e890919063ffffffff16565b61236e90919063ffffffff16565b9050600854821015801561224657506009548110155b156122545760019250612259565b600092505b9250925092565b6000808284019050838110156122de576040517f08c379a000000000000000000000000000000000000000000000000000000000815260040180806020018281038252601b8152602001807f536166654d6174683a206164646974696f6e206f766572666c6f77000000000081525060200191505060405180910390fd5b8091505092915050565b6000808314156122fb5760009050612368565b600082840290508284828161230c57fe5b0414612363576040517f08c379a000000000000000000000000000000000000000000000000000000000815260040180806020018281038252602181526020018061259f6021913960400191505060405180910390fd5b809150505b92915050565b60006123b083836040518060400160405280601a81526020017f536166654d6174683a206469766973696f6e206279207a65726f0000000000008152506123b8565b905092915050565b60008083118290612464576040517f08c379a00000000000000000000000000000000000000000000000000000000081526004018080602001828103825283818151815260200191508051906020019080838360005b8381101561242957808201518184015260208101905061240e565b50505050905090810190601f1680156124565780820380516001836020036101000a031916815260200191505b509250505060405180910390fd5b50600083858161247057fe5b049050809150509392505050565b6040518061018001604052806000815260200160608152602001600073ffffffffffffffffffffffffffffffffffffffff168152602001600081526020016000815260200160008152602001600081526020016000151581526020016000151581526020016000815260200160008152602001606081525090565b828054600181600116156101000203166002900490600052602060002090601f016020900481019282601f1061253a57805160ff1916838001178555612568565b82800160010185558215612568579182015b8281111561256757825182559160200191906001019061254c565b5b5090506125759190612579565b5090565b61259b91905b8082111561259757600081600090555060010161257f565b5090565b9056fe536166654d6174683a206d756c7469706c69636174696f6e206f766572666c6f77566f74655f4170706c7946756e645f4f6e655469636b657452656675736550726f706f73616c53686f756c642065786365656420746865207075626c696369747920706572696f64a165627a7a723058204ff353a7aa127c42489a3d56ca246f1ce7bab1cbbb453af1583515d737d864350029",
  "source": "pragma solidity >=0.4.22 <0.6.0;\r\n\r\nimport \"./VoteApp.sol\";\r\nimport \"../Interface/IDateTime.sol\";\r\nimport \"../Interface/IGovernShareManager.sol\";\r\n\r\ncontract Vote_ApplySharesA is VoteApp{\r\n\r\n    bytes32 public constant Vote_ApplyFund_OneTicketRefuseProposal = keccak256(\"Vote_ApplyFund_OneTicketRefuseProposal\");\r\n    bytes32 public constant Vote_ApplyFund_oneTicketStopTap = keccak256(\"Vote_ApplyFund_oneTicketStopTap\");\r\n\r\n    /// @notice \r\n    Proposal[] private proposalQueue;\r\n\r\n    address payable private govern;\r\n\r\n    /// @notice \r\n    struct Proposal{\r\n        uint256 index;//\r\n        string proposalName; //\r\n        address payable proposer; //\r\n        uint256 sharesAmount; //sharesA\r\n        uint256 assetValue; //\r\n        uint256 approveVotes; //\r\n        uint256 refuseVotes; //\r\n        bool process; //\r\n        bool pass; //\r\n        uint256 votingStartTime;//\r\n        uint256 publicityStartTime;//\r\n        mapping(address => VoteInfo) voteDetails;\r\n        string detail; //\r\n    }\r\n\r\n    /// @notice \r\n    event OnApplyProposal(\r\n        uint256 index,\r\n        string proposalName,\r\n        address payable proposaler,\r\n        uint256 sharesAmount, //sharesA\r\n        uint256 assetValue, //\r\n        uint256 votingStartTime,\r\n        string detail\r\n    );\r\n\r\n    /// @param who \r\n    /// @param index \r\n    /// @param voteResult \r\n    /// @param shares \r\n    event OnVote(\r\n        address who,\r\n        uint256 index,\r\n        uint8 voteResult,\r\n        uint256 shares\r\n    );\r\n\r\n    event OnPass(\r\n        uint256 index\r\n    );\r\n\r\n    /// @param index  , pass \r\n    event OnProcess(\r\n        uint256 index\r\n    );\r\n\r\n    event OnGetAssetBack(\r\n        uint256 index,\r\n        uint256 assetValue\r\n    );\r\n\r\n    constructor(AppManager _appManager,address payable _governAddress,address _sharesAddress,uint256 _voteRatio,uint256 _approveRatio)\r\n    VoteApp(_appManager,_sharesAddress,_voteRatio,_approveRatio)\r\n    public\r\n    {\r\n        govern = _governAddress;\r\n    }\r\n\r\n    /////////////\r\n    /// \r\n    /////////////\r\n    //\r\n    function getProposalQueueLength() public view returns(uint256){\r\n        return proposalQueue.length;\r\n    }\r\n\r\n    /// @notice index\r\n    function getProposalInfoByIndex(uint256 _proposalIndex)\r\n    public\r\n    view\r\n    returns(string memory _proposalName,address _proposer,uint256 _sharesAmount,uint256 _assetValue,string memory _detail)\r\n    {\r\n        uint256 queueIndex = proposalIndexToQueueIndex(_proposalIndex);\r\n        Proposal storage proposal = proposalQueue[queueIndex];\r\n        _proposalName = proposal.proposalName;\r\n        _proposer = proposal.proposer;\r\n        _detail = proposal.detail;\r\n        _sharesAmount = proposal.sharesAmount;\r\n        _assetValue = proposal.assetValue;\r\n    }\r\n\r\n    ///\r\n    function getProposalStateByIndex(uint256 _proposalIndex)\r\n    public\r\n    view\r\n    returns(uint256 _approveVotes,uint256 _refuseVotes,bool _process,bool _pass,uint256 _votingStartTime,uint256 _publicityStartTime)\r\n    {\r\n        uint256 queueIndex = proposalIndexToQueueIndex(_proposalIndex);\r\n        Proposal storage proposal = proposalQueue[queueIndex];\r\n        _approveVotes = proposal.approveVotes;\r\n        _refuseVotes = proposal.refuseVotes;\r\n        _process = proposal.process;\r\n        _pass = proposal.pass;\r\n        _votingStartTime = proposal.votingStartTime;\r\n        _publicityStartTime = proposal.publicityStartTime;\r\n    }\r\n\r\n    /// @notice \r\n    /// @param _name _detail \r\n    function applyProposal(\r\n        string memory _name,\r\n        uint256 _sharesAmount,\r\n        uint256 _assetValue,\r\n        string memory _detail\r\n    )\r\n    public\r\n    payable\r\n    ownShares()\r\n    {\r\n        setAssetIn(_assetValue + proposalFee + deposit);\r\n\r\n        Proposal memory proposal = Proposal({\r\n            index : proposalQueue.length + 1,\r\n            proposalName : _name,\r\n            proposer : msg.sender,\r\n            sharesAmount : _sharesAmount,\r\n            assetValue : _assetValue,\r\n            approveVotes : 0,\r\n            refuseVotes : 0,\r\n            process : false,\r\n            pass : false,\r\n            votingStartTime : now,\r\n            publicityStartTime : 0,\r\n            detail : _detail\r\n        });\r\n\r\n        emit OnApplyProposal(\r\n            proposal.index,\r\n            proposal.proposalName,\r\n            proposal.proposer,\r\n            proposal.sharesAmount,\r\n            proposal.assetValue,\r\n            proposal.votingStartTime,\r\n            proposal.detail\r\n        );\r\n        proposalQueue.push(proposal);\r\n    }\r\n\r\n    function vote(uint256 _proposalIndex,uint8 result,uint256 sharesAmount) public ownShares() {\r\n        //\r\n        uint256 queueIndex = proposalIndexToQueueIndex(_proposalIndex);\r\n        Proposal storage proposal = proposalQueue[queueIndex];\r\n        //\r\n        require(now < proposal.votingStartTime + votingPeriodLength,\"time out\");\r\n        //\r\n        require(result == 1||result == 2,\"vote result must be less than 3\");\r\n        //\r\n        require(proposal.voteDetails[msg.sender].result == enumVoteResult.waiver,\"Votes have been cast\");\r\n        //A\r\n        require(getBalanceOf(msg.sender) > sharesAmount,\"not enough sharesA\");\r\n        //\r\n        enumVoteResult voteResult = enumVoteResult(result);\r\n        proposal.voteDetails[msg.sender].result = voteResult;\r\n        proposal.voteDetails[msg.sender].sharesAmount = sharesAmount;\r\n        if(voteResult == enumVoteResult.approve){\r\n            proposal.approveVotes = proposal.approveVotes + sharesAmount;\r\n        }\r\n        else{\r\n            proposal.refuseVotes = proposal.refuseVotes + sharesAmount;\r\n        }\r\n        emit OnVote(msg.sender,_proposalIndex,result,sharesAmount);\r\n        bool r;\r\n        uint256 voteRatio;\r\n        uint256 approveRatio;\r\n        (r,voteRatio,approveRatio) = canPass(proposal.approveVotes,proposal.refuseVotes);\r\n        //\r\n        if(r){//\r\n            proposal.pass = true;\r\n            proposal.publicityStartTime = now;\r\n            emit OnPass(proposal.index);\r\n        }\r\n    }\r\n\r\n    /// @notice \r\n    /// @param _proposalIndex \r\n    function process(uint256 _proposalIndex) public {\r\n        uint256 queueIndex = proposalIndexToQueueIndex(_proposalIndex);\r\n        Proposal storage proposal = proposalQueue[queueIndex];\r\n        //\r\n        require(now > proposal.votingStartTime + votingPeriodLength + publicityPeriodLength,\"Should exceed the publicity period\");\r\n        //\r\n        require(proposal.pass == true,\"proposal need pass\");\r\n        //\r\n        require(proposal.process == false,\"proposal has been process\");\r\n        proposal.process = true;\r\n\r\n        emit OnProcess(_proposalIndex);\r\n\r\n        ////A\r\n        bool r = IGovernShareManager(govern).mintSharesA(proposal.proposer,proposal.sharesAmount);\r\n        require(r,\"mintsharesA faild\");\r\n        //govern\r\n        if (proposal.assetValue > 0) {\r\n            transferMix(address(govern),proposal.assetValue);\r\n        }\r\n        //\r\n        transferMix(msg.sender,proposalFee);\r\n        //\r\n        transferMix(proposal.proposer,deposit);\r\n    }\r\n\r\n    /// @notice  \r\n    function getAssetBack(uint256 _proposalIndex) public {\r\n        uint256 queueIndex = proposalIndexToQueueIndex(_proposalIndex);\r\n        Proposal storage proposal = proposalQueue[queueIndex];\r\n        //\r\n        require(now >= proposal.votingStartTime + votingPeriodLength && proposal.pass == false,\"Still on the ballot or passed\");\r\n        //\r\n        require(proposal.assetValue > 0,\"No money to back\");\r\n        //\r\n        transferMix(proposal.proposer,proposal.assetValue);\r\n        emit OnGetAssetBack(_proposalIndex,proposal.assetValue);\r\n        proposal.assetValue = 0;\r\n        //\r\n        transferMix(msg.sender,proposalFee);\r\n        //\r\n        transferMix(proposal.proposer,deposit);\r\n    }\r\n\r\n\r\n    function proposalIndexToQueueIndex(uint256 _proposalIndex) private view returns(uint256){\r\n        //\r\n        require(_proposalIndex <= proposalQueue.length && _proposalIndex>0,\"proposal does not exist\");\r\n        return _proposalIndex - 1;\r\n    }\r\n\r\n    function() external payable{\r\n    }\r\n}",
  "sourcePath": "D:/_______work/FD_Contract_ETH/fd/contracts/Vote/Vote_ApplySharesA.sol",
  "compiler": {
    "name": "solc",
    "version": "0.5.8+commit.23d335f2.Emscripten.clang"
  },
  "schemaVersion": "3.0.11",
  "updatedAt": "2019-11-15T03:03:48.087Z",
  "devdoc": {
    "methods": {
      "applyProposal(string,uint256,uint256,string)": {
        "params": {
          "_name": "_detail "
        }
      },
      "process(uint256)": {
        "params": {
          "_proposalIndex": ""
        }
      }
    }
  },
  "userdoc": {
    "methods": {
      "getAssetBack(uint256)": {
        "notice": " "
      },
      "getBalanceOf(address)": {
        "notice": ""
      },
      "getProposalInfoByIndex(uint256)": {
        "notice": "index"
      },
      "getProposalQueueLength()": {
        "notice": "//////////"
      },
      "getProposalStateByIndex(uint256)": {
        "notice": ""
      },
      "getTotalSupply()": {
        "notice": ""
      }
    }
  }
}