{
  "contractName": "Vote_ApplyFund",
  "abi": [
    {
      "constant": true,
      "inputs": [],
      "name": "getFdtTotalSupply",
      "outputs": [
        {
          "name": "",
          "type": "uint256"
        }
      ],
      "payable": false,
      "stateMutability": "view",
      "type": "function"
    },
    {
      "constant": true,
      "inputs": [],
      "name": "Vote_ApplyFund_oneTicketStopTap",
      "outputs": [
        {
          "name": "",
          "type": "bytes32"
        }
      ],
      "payable": false,
      "stateMutability": "view",
      "type": "function"
    },
    {
      "constant": true,
      "inputs": [],
      "name": "getAppManagerAddress",
      "outputs": [
        {
          "name": "",
          "type": "address"
        }
      ],
      "payable": false,
      "stateMutability": "view",
      "type": "function"
    },
    {
      "constant": true,
      "inputs": [
        {
          "name": "_addr",
          "type": "address"
        }
      ],
      "name": "getFdtInGovern",
      "outputs": [
        {
          "name": "",
          "type": "uint256"
        }
      ],
      "payable": false,
      "stateMutability": "view",
      "type": "function"
    },
    {
      "constant": true,
      "inputs": [],
      "name": "proposalFee",
      "outputs": [
        {
          "name": "",
          "type": "uint256"
        }
      ],
      "payable": false,
      "stateMutability": "view",
      "type": "function"
    },
    {
      "constant": true,
      "inputs": [],
      "name": "EMPTY_PARAM_HASH",
      "outputs": [
        {
          "name": "",
          "type": "bytes32"
        }
      ],
      "payable": false,
      "stateMutability": "view",
      "type": "function"
    },
    {
      "constant": true,
      "inputs": [],
      "name": "Vote_ApplyFund_OneTicketRefuseProposal",
      "outputs": [
        {
          "name": "",
          "type": "bytes32"
        }
      ],
      "payable": false,
      "stateMutability": "view",
      "type": "function"
    },
    {
      "constant": true,
      "inputs": [],
      "name": "deposit",
      "outputs": [
        {
          "name": "",
          "type": "uint256"
        }
      ],
      "payable": false,
      "stateMutability": "view",
      "type": "function"
    },
    {
      "constant": true,
      "inputs": [],
      "name": "appManager",
      "outputs": [
        {
          "name": "",
          "type": "address"
        }
      ],
      "payable": false,
      "stateMutability": "view",
      "type": "function"
    },
    {
      "inputs": [
        {
          "name": "_appManager",
          "type": "address"
        }
      ],
      "payable": false,
      "stateMutability": "nonpayable",
      "type": "constructor"
    },
    {
      "payable": true,
      "stateMutability": "payable",
      "type": "fallback"
    },
    {
      "anonymous": false,
      "inputs": [
        {
          "indexed": false,
          "name": "index",
          "type": "uint256"
        },
        {
          "indexed": false,
          "name": "proposalName",
          "type": "string"
        },
        {
          "indexed": false,
          "name": "proposaler",
          "type": "address"
        },
        {
          "indexed": false,
          "name": "startTime",
          "type": "uint256"
        },
        {
          "indexed": false,
          "name": "recipient",
          "type": "address"
        },
        {
          "indexed": false,
          "name": "value",
          "type": "uint256"
        },
        {
          "indexed": false,
          "name": "timeConsuming",
          "type": "uint256"
        },
        {
          "indexed": false,
          "name": "detail",
          "type": "string"
        }
      ],
      "name": "OnApplyProposal",
      "type": "event"
    },
    {
      "anonymous": false,
      "inputs": [
        {
          "indexed": false,
          "name": "who",
          "type": "address"
        },
        {
          "indexed": false,
          "name": "index",
          "type": "uint256"
        },
        {
          "indexed": false,
          "name": "voteResult",
          "type": "uint8"
        },
        {
          "indexed": false,
          "name": "shares",
          "type": "uint256"
        }
      ],
      "name": "OnVote",
      "type": "event"
    },
    {
      "anonymous": false,
      "inputs": [
        {
          "indexed": false,
          "name": "index",
          "type": "uint256"
        },
        {
          "indexed": false,
          "name": "pass",
          "type": "bool"
        }
      ],
      "name": "OnProcess",
      "type": "event"
    },
    {
      "anonymous": false,
      "inputs": [
        {
          "indexed": false,
          "name": "index",
          "type": "uint256"
        }
      ],
      "name": "OnAbort",
      "type": "event"
    },
    {
      "anonymous": false,
      "inputs": [
        {
          "indexed": false,
          "name": "index",
          "type": "uint256"
        }
      ],
      "name": "OnOneTicketRefuse",
      "type": "event"
    },
    {
      "anonymous": false,
      "inputs": [
        {
          "indexed": false,
          "name": "index",
          "type": "uint256"
        }
      ],
      "name": "OnOneTicketStopTap",
      "type": "event"
    },
    {
      "constant": true,
      "inputs": [],
      "name": "getProposalQueueLength",
      "outputs": [
        {
          "name": "",
          "type": "uint256"
        }
      ],
      "payable": false,
      "stateMutability": "view",
      "type": "function"
    },
    {
      "constant": true,
      "inputs": [],
      "name": "getAmountOfProposalToday",
      "outputs": [
        {
          "name": "",
          "type": "uint256"
        }
      ],
      "payable": false,
      "stateMutability": "view",
      "type": "function"
    },
    {
      "constant": true,
      "inputs": [
        {
          "name": "_proposalIndex",
          "type": "uint256"
        }
      ],
      "name": "getProposalBaseInfoByIndex",
      "outputs": [
        {
          "name": "_proposalName",
          "type": "string"
        },
        {
          "name": "_proposer",
          "type": "address"
        },
        {
          "name": "_detail",
          "type": "string"
        },
        {
          "name": "_address_tap",
          "type": "address"
        }
      ],
      "payable": false,
      "stateMutability": "view",
      "type": "function"
    },
    {
      "constant": true,
      "inputs": [
        {
          "name": "_proposalIndex",
          "type": "uint256"
        }
      ],
      "name": "getProposalStateByIndex",
      "outputs": [
        {
          "name": "_approveVotes",
          "type": "uint256"
        },
        {
          "name": "_refuseVotes",
          "type": "uint256"
        },
        {
          "name": "_process",
          "type": "bool"
        },
        {
          "name": "_pass",
          "type": "bool"
        },
        {
          "name": "_abort",
          "type": "bool"
        },
        {
          "name": "_abandon",
          "type": "bool"
        },
        {
          "name": "_oneTicketRefuse",
          "type": "bool"
        }
      ],
      "payable": false,
      "stateMutability": "view",
      "type": "function"
    },
    {
      "constant": true,
      "inputs": [
        {
          "name": "_proposalIndex",
          "type": "uint256"
        }
      ],
      "name": "getProposalTapByIndex",
      "outputs": [
        {
          "name": "_startTime",
          "type": "uint256"
        },
        {
          "name": "_recipient",
          "type": "address"
        },
        {
          "name": "_value",
          "type": "uint256"
        },
        {
          "name": "_timeConsuming",
          "type": "uint256"
        }
      ],
      "payable": false,
      "stateMutability": "view",
      "type": "function"
    },
    {
      "constant": false,
      "inputs": [
        {
          "name": "_name",
          "type": "string"
        },
        {
          "name": "_recipient",
          "type": "address"
        },
        {
          "name": "_value",
          "type": "uint256"
        },
        {
          "name": "_timeConsuming",
          "type": "uint256"
        },
        {
          "name": "_detail",
          "type": "string"
        }
      ],
      "name": "applyProposal",
      "outputs": [],
      "payable": true,
      "stateMutability": "payable",
      "type": "function"
    },
    {
      "constant": false,
      "inputs": [
        {
          "name": "_proposalIndex",
          "type": "uint256"
        },
        {
          "name": "result",
          "type": "uint8"
        },
        {
          "name": "FdtAmount",
          "type": "uint256"
        }
      ],
      "name": "vote",
      "outputs": [],
      "payable": false,
      "stateMutability": "nonpayable",
      "type": "function"
    },
    {
      "constant": false,
      "inputs": [
        {
          "name": "_proposalIndex",
          "type": "uint256"
        }
      ],
      "name": "abortProposal",
      "outputs": [],
      "payable": false,
      "stateMutability": "nonpayable",
      "type": "function"
    },
    {
      "constant": false,
      "inputs": [
        {
          "name": "_proposalIndex",
          "type": "uint256"
        }
      ],
      "name": "oneTicketRefuseProposal",
      "outputs": [],
      "payable": false,
      "stateMutability": "nonpayable",
      "type": "function"
    },
    {
      "constant": false,
      "inputs": [
        {
          "name": "_proposalIndex",
          "type": "uint256"
        }
      ],
      "name": "process",
      "outputs": [],
      "payable": false,
      "stateMutability": "nonpayable",
      "type": "function"
    },
    {
      "constant": false,
      "inputs": [
        {
          "name": "_proposalIndexs",
          "type": "uint256[]"
        }
      ],
      "name": "freeFdt",
      "outputs": [],
      "payable": false,
      "stateMutability": "nonpayable",
      "type": "function"
    }
  ],
  "bytecode": "0x608060405261012c60015561021c60025567016345785d8a000060035567016345785d8a0000600455600560065534801561003957600080fd5b5060405160208062004e5f8339810180604052602081101561005a57600080fd5b810190808051906020019092919050505080806000806101000a81548173ffffffffffffffffffffffffffffffffffffffff021916908373ffffffffffffffffffffffffffffffffffffffff1602179055505050614da180620000be6000396000f3fe60806040526004361061011f5760003560e01c80637a0a0078116100a0578063cfab3acc11610064578063cfab3acc14610833578063d0e30db01461086e578063e520251a14610899578063ebe86c13146108eb578063ffb2c479146109425761011f565b80637a0a00781461059c578063b292267f14610722578063c27cabb5146107b2578063c513f66e146107dd578063ca9c846c146108085761011f565b80633968ccfe116100e75780633968ccfe146103045780634c3300771461032f578063578f6a6214610386578063759c7aa4146103eb578063797daf70146105715761011f565b806305ad497d1461012157806308731cfe146101e65780630a81e702146102115780631ab3c1d31461024c578063316a999f146102d9575b005b34801561012d57600080fd5b506101e46004803603602081101561014457600080fd5b810190808035906020019064010000000081111561016157600080fd5b82018360208201111561017357600080fd5b8035906020019184602083028401116401000000008311171561019557600080fd5b919080806020026020016040519081016040528093929190818152602001838360200280828437600081840152601f19601f82011690508083019250505050505050919291929050505061097d565b005b3480156101f257600080fd5b506101fb610c9f565b6040518082815260200191505060405180910390f35b34801561021d57600080fd5b5061024a6004803603602081101561023457600080fd5b8101908080359060200190929190505050610dc8565b005b34801561025857600080fd5b506102856004803603602081101561026f57600080fd5b81019080803590602001909291905050506113c8565b60405180888152602001878152602001861515151581526020018515151515815260200184151515158152602001831515151581526020018215151515815260200197505050505050505060405180910390f35b3480156102e557600080fd5b506102ee61147d565b6040518082815260200191505060405180910390f35b34801561031057600080fd5b506103196114a4565b6040518082815260200191505060405180910390f35b34801561033b57600080fd5b506103446114dd565b604051808273ffffffffffffffffffffffffffffffffffffffff1673ffffffffffffffffffffffffffffffffffffffff16815260200191505060405180910390f35b34801561039257600080fd5b506103d5600480360360208110156103a957600080fd5b81019080803573ffffffffffffffffffffffffffffffffffffffff169060200190929190505050611506565b6040518082815260200191505060405180910390f35b3480156103f757600080fd5b506104246004803603602081101561040e57600080fd5b8101908080359060200190929190505050611668565b60405180806020018573ffffffffffffffffffffffffffffffffffffffff1673ffffffffffffffffffffffffffffffffffffffff168152602001806020018473ffffffffffffffffffffffffffffffffffffffff1673ffffffffffffffffffffffffffffffffffffffff168152602001838103835287818151815260200191508051906020019080838360005b838110156104cc5780820151818401526020810190506104b1565b50505050905090810190601f1680156104f95780820380516001836020036101000a031916815260200191505b50838103825285818151815260200191508051906020019080838360005b83811015610532578082015181840152602081019050610517565b50505050905090810190601f16801561055f5780820380516001836020036101000a031916815260200191505b50965050505050505060405180910390f35b34801561057d57600080fd5b50610586611830565b6040518082815260200191505060405180910390f35b610720600480360360a08110156105b257600080fd5b81019080803590602001906401000000008111156105cf57600080fd5b8201836020820111156105e157600080fd5b8035906020019184600183028401116401000000008311171561060357600080fd5b91908080601f016020809104026020016040519081016040528093929190818152602001838380828437600081840152601f19601f820116905080830192505050505050509192919290803573ffffffffffffffffffffffffffffffffffffffff16906020019092919080359060200190929190803590602001909291908035906020019064010000000081111561069a57600080fd5b8201836020820111156106ac57600080fd5b803590602001918460018302840111640100000000831117156106ce57600080fd5b91908080601f016020809104026020016040519081016040528093929190818152602001838380828437600081840152601f19601f82011690508083019250505050505050919291929050505061183d565b005b34801561072e57600080fd5b5061075b6004803603602081101561074557600080fd5b810190808035906020019092919050505061207d565b604051808581526020018473ffffffffffffffffffffffffffffffffffffffff1673ffffffffffffffffffffffffffffffffffffffff16815260200183815260200182815260200194505050505060405180910390f35b3480156107be57600080fd5b506107c7612100565b6040518082815260200191505060405180910390f35b3480156107e957600080fd5b506107f2612106565b6040518082815260200191505060405180910390f35b34801561081457600080fd5b5061081d61212d565b6040518082815260200191505060405180910390f35b34801561083f57600080fd5b5061086c6004803603602081101561085657600080fd5b8101908080359060200190929190505050612149565b005b34801561087a57600080fd5b506108836125b7565b6040518082815260200191505060405180910390f35b3480156108a557600080fd5b506108e9600480360360608110156108bc57600080fd5b8101908080359060200190929190803560ff169060200190929190803590602001909291905050506125bd565b005b3480156108f757600080fd5b50610900612cf9565b604051808273ffffffffffffffffffffffffffffffffffffffff1673ffffffffffffffffffffffffffffffffffffffff16815260200191505060405180910390f35b34801561094e57600080fd5b5061097b6004803603602081101561096557600080fd5b8101908080359060200190929190505050612d1e565b005b60008090505b8151811015610c9b57600082828151811061099a57fe5b6020026020010151905060058054905081111580156109b95750600081115b610a2b576040517f08c379a00000000000000000000000000000000000000000000000000000000081526004018080602001828103825260178152602001807f70726f706f73616c20646f6573206e6f7420657869737400000000000000000081525060200191505060405180910390fd5b600060058281548110610a3a57fe5b90600052602060002090600d02019050600115158160090160009054906101000a900460ff1615151480610a835750600115158160090160029054906101000a900460ff161515145b80610aa35750600115158160090160049054906101000a900460ff161515145b610b15576040517f08c379a00000000000000000000000000000000000000000000000000000000081526004018080602001828103825260158152602001807f70726f706f73616c206e6565642070726f63657373000000000000000000000081525060200191505060405180910390fd5b6000809054906101000a900473ffffffffffffffffffffffffffffffffffffffff1673ffffffffffffffffffffffffffffffffffffffff1663bf7b00eb6040518163ffffffff1660e01b815260040160206040518083038186803b158015610b7c57600080fd5b505afa158015610b90573d6000803e3d6000fd5b505050506040513d6020811015610ba657600080fd5b810190808051906020019092919050505073ffffffffffffffffffffffffffffffffffffffff16636c351c8e33846001548560050160000154016040518463ffffffff1660e01b8152600401808473ffffffffffffffffffffffffffffffffffffffff1673ffffffffffffffffffffffffffffffffffffffff1681526020018381526020018281526020019350505050602060405180830381600087803b158015610c5057600080fd5b505af1158015610c64573d6000803e3d6000fd5b505050506040513d6020811015610c7a57600080fd5b81019080805190602001909291905050505050508080600101915050610983565b5050565b60008060009054906101000a900473ffffffffffffffffffffffffffffffffffffffff1673ffffffffffffffffffffffffffffffffffffffff1663bf7b00eb6040518163ffffffff1660e01b815260040160206040518083038186803b158015610d0857600080fd5b505afa158015610d1c573d6000803e3d6000fd5b505050506040513d6020811015610d3257600080fd5b810190808051906020019092919050505073ffffffffffffffffffffffffffffffffffffffff166308731cfe6040518163ffffffff1660e01b815260040160206040518083038186803b158015610d8857600080fd5b505afa158015610d9c573d6000803e3d6000fd5b505050506040513d6020811015610db257600080fd5b8101908080519060200190929190505050905090565b6040518080614d2c60269139602601905060405180910390206000809054906101000a900473ffffffffffffffffffffffffffffffffffffffff1673ffffffffffffffffffffffffffffffffffffffff16634c5f07493330847f290decd9548b62a8d60345a988386fc84ba6bc95484008f6362f93160ef3e56360001b6040518563ffffffff1660e01b8152600401808573ffffffffffffffffffffffffffffffffffffffff1673ffffffffffffffffffffffffffffffffffffffff1681526020018473ffffffffffffffffffffffffffffffffffffffff1673ffffffffffffffffffffffffffffffffffffffff16815260200183815260200182815260200194505050505060206040518083038186803b158015610ee657600080fd5b505afa158015610efa573d6000803e3d6000fd5b505050506040513d6020811015610f1057600080fd5b8101908080519060200190929190505050610f76576040517f08c379a0000000000000000000000000000000000000000000000000000000008152600401808060200182810382526024815260200180614d526024913960400191505060405180910390fd5b6000610f81836134b6565b9050600060058281548110610f9257fe5b90600052602060002090600d02019050600015158160090160029054906101000a900460ff1615151461102d576040517f08c379a00000000000000000000000000000000000000000000000000000000081526004018080602001828103825260198152602001807f70726f706f73616c20686173206265656e2061626f727465640000000000000081525060200191505060405180910390fd5b600015158160090160049054906101000a900460ff1615151461109b576040517f08c379a0000000000000000000000000000000000000000000000000000000008152600401808060200182810382526021815260200180614cea6021913960400191505060405180910390fd5b600154816005016000015401421180156110c357506002546001548260050160000154010142105b611135576040517f08c379a00000000000000000000000000000000000000000000000000000000081526004018080602001828103825260088152602001807f74696d65206f757400000000000000000000000000000000000000000000000081525060200191505060405180910390fd5b600061113f610c9f565b9050600061116e826111606103e8866003015461354a90919063ffffffff16565b6135d090919063ffffffff16565b905061029481106111c2576040517f08c379a0000000000000000000000000000000000000000000000000000000008152600401808060200182810382526000815260200160200191505060405180910390fd5b60018360090160046101000a81548160ff0219169083151502179055507f3f004c855f0deef350ea73c1c577156652aafa03d4a99b5b31e0f29033199340866040518082815260200191505060405180910390a16000611228846005016000015461361a565b9050611251600160076000848152602001908152602001600020546138d090919063ffffffff16565b60076000838152602001908152602001600020819055506000809054906101000a900473ffffffffffffffffffffffffffffffffffffffff1673ffffffffffffffffffffffffffffffffffffffff1663783672e36040518163ffffffff1660e01b815260040160206040518083038186803b1580156112cf57600080fd5b505afa1580156112e3573d6000803e3d6000fd5b505050506040513d60208110156112f957600080fd5b810190808051906020019092919050505073ffffffffffffffffffffffffffffffffffffffff166108fc6004549081150290604051600060405180830381858888f19350505050158015611351573d6000803e3d6000fd5b508360020160009054906101000a900473ffffffffffffffffffffffffffffffffffffffff1673ffffffffffffffffffffffffffffffffffffffff166108fc6003549081150290604051600060405180830381858888f193505050501580156113be573d6000803e3d6000fd5b5050505050505050565b6000806000806000806000806113dd896134b6565b90506000600582815481106113ee57fe5b90600052602060002090600d0201905080600301549850806004015497508060090160009054906101000a900460ff1696508060090160019054906101000a900460ff1695508060090160029054906101000a900460ff1694508060090160039054906101000a900460ff1693508060090160049054906101000a900460ff1692505050919395979092949650565b60008061148861391a565b9050600760008281526020019081526020016000205491505090565b60405180807f566f74655f4170706c7946756e645f6f6e655469636b657453746f7054617000815250601f019050604051809103902081565b60008060009054906101000a900473ffffffffffffffffffffffffffffffffffffffff16905090565b60008060009054906101000a900473ffffffffffffffffffffffffffffffffffffffff1673ffffffffffffffffffffffffffffffffffffffff1663bf7b00eb6040518163ffffffff1660e01b815260040160206040518083038186803b15801561156f57600080fd5b505afa158015611583573d6000803e3d6000fd5b505050506040513d602081101561159957600080fd5b810190808051906020019092919050505073ffffffffffffffffffffffffffffffffffffffff1663578f6a62836040518263ffffffff1660e01b8152600401808273ffffffffffffffffffffffffffffffffffffffff1673ffffffffffffffffffffffffffffffffffffffff16815260200191505060206040518083038186803b15801561162657600080fd5b505afa15801561163a573d6000803e3d6000fd5b505050506040513d602081101561165057600080fd5b81019080805190602001909291905050509050919050565b60606000606060008061167a866134b6565b905060006005828154811061168b57fe5b90600052602060002090600d02019050806001018054600181600116156101000203166002900480601f0160208091040260200160405190810160405280929190818152602001828054600181600116156101000203166002900480156117335780601f1061170857610100808354040283529160200191611733565b820191906000526020600020905b81548152906001019060200180831161171657829003601f168201915b505050505095508060020160009054906101000a900473ffffffffffffffffffffffffffffffffffffffff16945080600b018054600181600116156101000203166002900480601f0160208091040260200160405190810160405280929190818152602001828054600181600116156101000203166002900480156117f95780601f106117ce576101008083540402835291602001916117f9565b820191906000526020600020905b8154815290600101906020018083116117dc57829003601f168201915b5050505050935080600c0160009054906101000a900473ffffffffffffffffffffffffffffffffffffffff16925050509193509193565b6000600580549050905090565b600061184833611506565b116118bb576040517f08c379a000000000000000000000000000000000000000000000000000000000815260040180806020018281038252600f8152602001807f6e6565642068617320736861726573000000000000000000000000000000000081525060200191505060405180910390fd5b600073ffffffffffffffffffffffffffffffffffffffff168473ffffffffffffffffffffffffffffffffffffffff16141561195e576040517f08c379a00000000000000000000000000000000000000000000000000000000081526004018080602001828103825260198152602001807f5f726563697069656e742063616e6e6f74206265206e756c6c0000000000000081525060200191505060405180910390fd5b60008310156119d5576040517f08c379a00000000000000000000000000000000000000000000000000000000081526004018080602001828103825260168152602001807f76616c7565206e656564206d6f7265207468616e20300000000000000000000081525060200191505060405180910390fd5b6000821015611a4c576040517f08c379a000000000000000000000000000000000000000000000000000000000815260040180806020018281038252601f8152602001807f5f74696d65436f6e73756d696e672063616e74206c657373207468616e20300081525060200191505060405180910390fd5b60035460045401341015611ac8576040517f08c379a00000000000000000000000000000000000000000000000000000000081526004018080602001828103825260108152602001807f6e6565642070726f706f73616c4665650000000000000000000000000000000081525060200191505060405180910390fd5b6000611ad261391a565b9050600654600760008381526020019081526020016000205410611b5e576040517f08c379a000000000000000000000000000000000000000000000000000000000815260040180806020018281038252601c8152602001807f4265796f6e6420746865206d617850726f706f73616c4f6e654461790000000081525060200191505060405180910390fd5b611b66613ddc565b60405180608001604052804281526020018773ffffffffffffffffffffffffffffffffffffffff168152602001868152602001858152509050611ba7613e1a565b604051806101a0016040528060016005805490500181526020018981526020013373ffffffffffffffffffffffffffffffffffffffff1681526020016000815260200160008152602001838152602001600015158152602001600015158152602001600015158152602001600015158152602001600015158152602001858152602001600073ffffffffffffffffffffffffffffffffffffffff1681525090507f2502a88482d0c9326f614b5d37916990c3b58ad0abf3acd0ad73b36ce3f2f3818160000151826020015183604001518460a00151600001518560a00151602001518660a00151604001518760a001516060015188610160015160405180898152602001806020018873ffffffffffffffffffffffffffffffffffffffff1673ffffffffffffffffffffffffffffffffffffffff1681526020018781526020018673ffffffffffffffffffffffffffffffffffffffff1673ffffffffffffffffffffffffffffffffffffffff1681526020018581526020018481526020018060200183810383528a818151815260200191508051906020019080838360005b83811015611d61578082015181840152602081019050611d46565b50505050905090810190601f168015611d8e5780820380516001836020036101000a031916815260200191505b50838103825284818151815260200191508051906020019080838360005b83811015611dc7578082015181840152602081019050611dac565b50505050905090810190601f168015611df45780820380516001836020036101000a031916815260200191505b509a505050505050505050505060405180910390a16005819080600181540180825580915050906001820390600052602060002090600d020160009091929091909150600082015181600001556020820151816001019080519060200190611e5d929190613ebe565b5060408201518160020160006101000a81548173ffffffffffffffffffffffffffffffffffffffff021916908373ffffffffffffffffffffffffffffffffffffffff160217905550606082015181600301556080820151816004015560a0820151816005016000820151816000015560208201518160010160006101000a81548173ffffffffffffffffffffffffffffffffffffffff021916908373ffffffffffffffffffffffffffffffffffffffff1602179055506040820151816002015560608201518160030155505060c08201518160090160006101000a81548160ff02191690831515021790555060e08201518160090160016101000a81548160ff0219169083151502179055506101008201518160090160026101000a81548160ff0219169083151502179055506101208201518160090160036101000a81548160ff0219169083151502179055506101408201518160090160046101000a81548160ff02191690831515021790555061016082015181600b019080519060200190611fe9929190613ebe565b5061018082015181600c0160006101000a81548173ffffffffffffffffffffffffffffffffffffffff021916908373ffffffffffffffffffffffffffffffffffffffff16021790555050505061205c60016007600086815260200190815260200160002054613bce90919063ffffffff16565b60076000858152602001908152602001600020819055505050505050505050565b600080600080600061208e866134b6565b905060006005828154811061209f57fe5b90600052602060002090600d02019050806005016000015495508060050160010160009054906101000a900473ffffffffffffffffffffffffffffffffffffffff169450806005016002015493508060050160030154925050509193509193565b60045481565b7f290decd9548b62a8d60345a988386fc84ba6bc95484008f6362f93160ef3e56360001b81565b6040518080614d2c602691396026019050604051809103902081565b6000612154826134b6565b905060006005828154811061216557fe5b90600052602060002090600d020190503373ffffffffffffffffffffffffffffffffffffffff168160020160009054906101000a900473ffffffffffffffffffffffffffffffffffffffff1673ffffffffffffffffffffffffffffffffffffffff161461223a576040517f08c379a00000000000000000000000000000000000000000000000000000000081526004018080602001828103825260198152602001807f73656e6465722073686f756c642062652070726f706f7365720000000000000081525060200191505060405180910390fd5b6001548160050160000154014211156122bb576040517f08c379a00000000000000000000000000000000000000000000000000000000081526004018080602001828103825260088152602001807f74696d65206f757400000000000000000000000000000000000000000000000081525060200191505060405180910390fd5b600015158160090160049054906101000a900460ff16151514612329576040517f08c379a0000000000000000000000000000000000000000000000000000000008152600401808060200182810382526021815260200180614cea6021913960400191505060405180910390fd5b600015158160090160029054906101000a900460ff161515146123b4576040517f08c379a00000000000000000000000000000000000000000000000000000000081526004018080602001828103825260198152602001807f70726f706f73616c20686173206265656e2061626f727465640000000000000081525060200191505060405180910390fd5b60018160090160026101000a81548160ff0219169083151502179055507fb27268ee8d23b38250a0313137fa908b5485a05b62f98c5fe20efc5df37c4f68836040518082815260200191505060405180910390a1600061241a826005016000015461361a565b9050612443600160076000848152602001908152602001600020546138d090919063ffffffff16565b60076000838152602001908152602001600020819055506000809054906101000a900473ffffffffffffffffffffffffffffffffffffffff1673ffffffffffffffffffffffffffffffffffffffff1663783672e36040518163ffffffff1660e01b815260040160206040518083038186803b1580156124c157600080fd5b505afa1580156124d5573d6000803e3d6000fd5b505050506040513d60208110156124eb57600080fd5b810190808051906020019092919050505073ffffffffffffffffffffffffffffffffffffffff166108fc6004549081150290604051600060405180830381858888f19350505050158015612543573d6000803e3d6000fd5b508160020160009054906101000a900473ffffffffffffffffffffffffffffffffffffffff1673ffffffffffffffffffffffffffffffffffffffff166108fc6003549081150290604051600060405180830381858888f193505050501580156125b0573d6000803e3d6000fd5b5050505050565b60035481565b60006125c833611506565b1161263b576040517f08c379a000000000000000000000000000000000000000000000000000000000815260040180806020018281038252600f8152602001807f6e6565642068617320736861726573000000000000000000000000000000000081525060200191505060405180910390fd5b6000612646846134b6565b905060006005828154811061265757fe5b90600052602060002090600d020190506001548160050160000154014211156126e8576040517f08c379a00000000000000000000000000000000000000000000000000000000081526004018080602001828103825260088152602001807f74696d65206f757400000000000000000000000000000000000000000000000081525060200191505060405180910390fd5b60018460ff1614806126fd575060028460ff16145b61276f576040517f08c379a000000000000000000000000000000000000000000000000000000000815260040180806020018281038252601f8152602001807f766f746520726573756c74206d757374206265206c657373207468616e20330081525060200191505060405180910390fd5b6000600281111561277c57fe5b81600a0160003373ffffffffffffffffffffffffffffffffffffffff1673ffffffffffffffffffffffffffffffffffffffff16815260200190815260200160002060009054906101000a900460ff1660028111156127d657fe5b148061285357508360ff1660028111156127ec57fe5b60028111156127f757fe5b81600a0160003373ffffffffffffffffffffffffffffffffffffffff1673ffffffffffffffffffffffffffffffffffffffff16815260200190815260200160002060009054906101000a900460ff16600281111561285157fe5b145b6128c5576040517f08c379a00000000000000000000000000000000000000000000000000000000081526004018080602001828103825260148152602001807f566f7465732068617665206265656e206361737400000000000000000000000081525060200191505060405180910390fd5b600015158160090160029054906101000a900460ff16151514612950576040517f08c379a00000000000000000000000000000000000000000000000000000000081526004018080602001828103825260198152602001807f70726f706f73616c20686173206265656e2061626f727465640000000000000081525060200191505060405180910390fd5b600015158160090160049054906101000a900460ff161515146129be576040517f08c379a0000000000000000000000000000000000000000000000000000000008152600401808060200182810382526021815260200180614cea6021913960400191505060405180910390fd5b60008460ff1660028111156129cf57fe5b90508082600a0160003373ffffffffffffffffffffffffffffffffffffffff1673ffffffffffffffffffffffffffffffffffffffff16815260200190815260200160002060006101000a81548160ff02191690836002811115612a2e57fe5b021790555060016002811115612a4057fe5b816002811115612a4c57fe5b1415612a6657838260030154018260030181905550612a76565b8382600401540182600401819055505b60008060009054906101000a900473ffffffffffffffffffffffffffffffffffffffff1673ffffffffffffffffffffffffffffffffffffffff1663bf7b00eb6040518163ffffffff1660e01b815260040160206040518083038186803b158015612adf57600080fd5b505afa158015612af3573d6000803e3d6000fd5b505050506040513d6020811015612b0957600080fd5b810190808051906020019092919050505073ffffffffffffffffffffffffffffffffffffffff1663c97be180338560000154600154876005016000015401896040518563ffffffff1660e01b8152600401808573ffffffffffffffffffffffffffffffffffffffff1673ffffffffffffffffffffffffffffffffffffffff168152602001848152602001838152602001828152602001945050505050602060405180830381600087803b158015612bbf57600080fd5b505af1158015612bd3573d6000803e3d6000fd5b505050506040513d6020811015612be957600080fd5b8101908080519060200190929190505050905080612c6f576040517f08c379a000000000000000000000000000000000000000000000000000000000815260040180806020018281038252600a8152602001807f6c6f636b206572726f720000000000000000000000000000000000000000000081525060200191505060405180910390fd5b7fbc64f9d6bf28430c0cbce4b563fdb6c057c9d05e7f68f3ef84c1c4b91efb940e33888888604051808573ffffffffffffffffffffffffffffffffffffffff1673ffffffffffffffffffffffffffffffffffffffff1681526020018481526020018360ff1660ff16815260200182815260200194505050505060405180910390a150505050505050565b6000809054906101000a900473ffffffffffffffffffffffffffffffffffffffff1681565b6000612d29826134b6565b9050600060058281548110612d3a57fe5b90600052602060002090600d0201905060015481600501600001540142118015612d7257506002546001548260050160000154010142105b612de4576040517f08c379a000000000000000000000000000000000000000000000000000000000815260040180806020018281038252601b8152602001807f697427732077697468696e20746865206578706972792064617465000000000081525060200191505060405180910390fd5b600015158160090160009054906101000a900460ff16151514612e6f576040517f08c379a00000000000000000000000000000000000000000000000000000000081526004018080602001828103825260198152602001807f70726f706f73616c20686173206265656e2070726f636573730000000000000081525060200191505060405180910390fd5b600015158160090160029054906101000a900460ff16151514612efa576040517f08c379a00000000000000000000000000000000000000000000000000000000081526004018080602001828103825260198152602001807f70726f706f73616c20686173206265656e2061626f727465640000000000000081525060200191505060405180910390fd5b600015158160090160049054906101000a900460ff16151514612f68576040517f08c379a0000000000000000000000000000000000000000000000000000000008152600401808060200182810382526021815260200180614cea6021913960400191505060405180910390fd5b60018160090160006101000a81548160ff0219169083151502179055508060040154816003015411156133545760018160090160016101000a81548160ff021916908315150217905550600081600501600201541115613353576000306000809054906101000a900473ffffffffffffffffffffffffffffffffffffffff1673ffffffffffffffffffffffffffffffffffffffff1663783672e36040518163ffffffff1660e01b815260040160206040518083038186803b15801561302c57600080fd5b505afa158015613040573d6000803e3d6000fd5b505050506040513d602081101561305657600080fd5b81019080805190602001909291905050508360050160010160009054906101000a900473ffffffffffffffffffffffffffffffffffffffff16426130bf6130b062015180886005016003015461354a90919063ffffffff16565b42613bce90919063ffffffff16565b86600501600201546040516130d390613f3e565b808773ffffffffffffffffffffffffffffffffffffffff1673ffffffffffffffffffffffffffffffffffffffff1681526020018673ffffffffffffffffffffffffffffffffffffffff1673ffffffffffffffffffffffffffffffffffffffff1681526020018573ffffffffffffffffffffffffffffffffffffffff1673ffffffffffffffffffffffffffffffffffffffff1681526020018481526020018381526020018281526020019650505050505050604051809103906000f0801580156131a0573d6000803e3d6000fd5b5090506000809054906101000a900473ffffffffffffffffffffffffffffffffffffffff1673ffffffffffffffffffffffffffffffffffffffff1663bf7b00eb6040518163ffffffff1660e01b815260040160206040518083038186803b15801561320a57600080fd5b505afa15801561321e573d6000803e3d6000fd5b505050506040513d602081101561323457600080fd5b810190808051906020019092919050505073ffffffffffffffffffffffffffffffffffffffff166349dcbc5e8284600501600201546040518363ffffffff1660e01b8152600401808373ffffffffffffffffffffffffffffffffffffffff1673ffffffffffffffffffffffffffffffffffffffff16815260200182815260200192505050602060405180830381600087803b1580156132d257600080fd5b505af11580156132e6573d6000803e3d6000fd5b505050506040513d60208110156132fc57600080fd5b8101908080519060200190929190505050508082600c0160006101000a81548173ffffffffffffffffffffffffffffffffffffffff021916908373ffffffffffffffffffffffffffffffffffffffff160217905550505b5b7f9462edb475995eb7d62498463128dfe01ee36dc2fac0f62e74c2b11d5555da78838260090160019054906101000a900460ff1660405180838152602001821515151581526020019250505060405180910390a160006133ba826005016000015461361a565b90506133e3600160076000848152602001908152602001600020546138d090919063ffffffff16565b60076000838152602001908152602001600020819055503373ffffffffffffffffffffffffffffffffffffffff166108fc6004549081150290604051600060405180830381858888f19350505050158015613442573d6000803e3d6000fd5b508160020160009054906101000a900473ffffffffffffffffffffffffffffffffffffffff1673ffffffffffffffffffffffffffffffffffffffff166108fc6003549081150290604051600060405180830381858888f193505050501580156134af573d6000803e3d6000fd5b5050505050565b600060058054905082111580156134cd5750600082115b61353f576040517f08c379a00000000000000000000000000000000000000000000000000000000081526004018080602001828103825260178152602001807f70726f706f73616c20646f6573206e6f7420657869737400000000000000000081525060200191505060405180910390fd5b600182039050919050565b60008083141561355d57600090506135ca565b600082840290508284828161356e57fe5b04146135c5576040517f08c379a0000000000000000000000000000000000000000000000000000000008152600401808060200182810382526021815260200180614d0b6021913960400191505060405180910390fd5b809150505b92915050565b600061361283836040518060400160405280601a81526020017f536166654d6174683a206469766973696f6e206279207a65726f000000000000815250613c56565b905092915050565b6000806000809054906101000a900473ffffffffffffffffffffffffffffffffffffffff1673ffffffffffffffffffffffffffffffffffffffff1663aa7547db6040518163ffffffff1660e01b815260040160206040518083038186803b15801561368457600080fd5b505afa158015613698573d6000803e3d6000fd5b505050506040513d60208110156136ae57600080fd5b8101908080519060200190929190505050905060008173ffffffffffffffffffffffffffffffffffffffff166392d66313856040518263ffffffff1660e01b81526004018082815260200191505060206040518083038186803b15801561371457600080fd5b505afa158015613728573d6000803e3d6000fd5b505050506040513d602081101561373e57600080fd5b8101908080519060200190929190505050905060008273ffffffffffffffffffffffffffffffffffffffff1663a324ad24866040518263ffffffff1660e01b81526004018082815260200191505060206040518083038186803b1580156137a457600080fd5b505afa1580156137b8573d6000803e3d6000fd5b505050506040513d60208110156137ce57600080fd5b8101908080519060200190929190505050905060008373ffffffffffffffffffffffffffffffffffffffff166365c72840876040518263ffffffff1660e01b81526004018082815260200191505060206040518083038186803b15801561383457600080fd5b505afa158015613848573d6000803e3d6000fd5b505050506040513d602081101561385e57600080fd5b81019080805190602001909291905050509050828282604051602001808461ffff1661ffff1660f01b81526002018360ff1660ff1660f81b81526001018260ff1660ff1660f81b8152600101935050505060405160208183030381529060405280519060200120945050505050919050565b600061391283836040518060400160405280601e81526020017f536166654d6174683a207375627472616374696f6e206f766572666c6f770000815250613d1c565b905092915050565b6000806000809054906101000a900473ffffffffffffffffffffffffffffffffffffffff1673ffffffffffffffffffffffffffffffffffffffff1663aa7547db6040518163ffffffff1660e01b815260040160206040518083038186803b15801561398457600080fd5b505afa158015613998573d6000803e3d6000fd5b505050506040513d60208110156139ae57600080fd5b8101908080519060200190929190505050905060008173ffffffffffffffffffffffffffffffffffffffff166392d66313426040518263ffffffff1660e01b81526004018082815260200191505060206040518083038186803b158015613a1457600080fd5b505afa158015613a28573d6000803e3d6000fd5b505050506040513d6020811015613a3e57600080fd5b8101908080519060200190929190505050905060008273ffffffffffffffffffffffffffffffffffffffff1663a324ad24426040518263ffffffff1660e01b81526004018082815260200191505060206040518083038186803b158015613aa457600080fd5b505afa158015613ab8573d6000803e3d6000fd5b505050506040513d6020811015613ace57600080fd5b8101908080519060200190929190505050905060008373ffffffffffffffffffffffffffffffffffffffff166365c72840426040518263ffffffff1660e01b81526004018082815260200191505060206040518083038186803b158015613b3457600080fd5b505afa158015613b48573d6000803e3d6000fd5b505050506040513d6020811015613b5e57600080fd5b81019080805190602001909291905050509050828282604051602001808461ffff1661ffff1660f01b81526002018360ff1660ff1660f81b81526001018260ff1660ff1660f81b815260010193505050506040516020818303038152906040528051906020012094505050505090565b600080828401905083811015613c4c576040517f08c379a000000000000000000000000000000000000000000000000000000000815260040180806020018281038252601b8152602001807f536166654d6174683a206164646974696f6e206f766572666c6f77000000000081525060200191505060405180910390fd5b8091505092915050565b60008083118290613d02576040517f08c379a00000000000000000000000000000000000000000000000000000000081526004018080602001828103825283818151815260200191508051906020019080838360005b83811015613cc7578082015181840152602081019050613cac565b50505050905090810190601f168015613cf45780820380516001836020036101000a031916815260200191505b509250505060405180910390fd5b506000838581613d0e57fe5b049050809150509392505050565b6000838311158290613dc9576040517f08c379a00000000000000000000000000000000000000000000000000000000081526004018080602001828103825283818151815260200191508051906020019080838360005b83811015613d8e578082015181840152602081019050613d73565b50505050905090810190601f168015613dbb5780820380516001836020036101000a031916815260200191505b509250505060405180910390fd5b5060008385039050809150509392505050565b604051806080016040528060008152602001600073ffffffffffffffffffffffffffffffffffffffff16815260200160008152602001600081525090565b6040518061020001604052806000815260200160608152602001600073ffffffffffffffffffffffffffffffffffffffff1681526020016000815260200160008152602001613e67613f4b565b815260200160001515815260200160001515815260200160001515815260200160001515815260200160001515815260200160608152602001600073ffffffffffffffffffffffffffffffffffffffff1681525090565b828054600181600116156101000203166002900490600052602060002090601f016020900481019282601f10613eff57805160ff1916838001178555613f2d565b82800160010185558215613f2d579182015b82811115613f2c578251825591602001919060010190613f11565b5b509050613f3a9190613f89565b5090565b610d3b80613faf83390190565b604051806080016040528060008152602001600073ffffffffffffffffffffffffffffffffffffffff16815260200160008152602001600081525090565b613fab91905b80821115613fa7576000816000905550600101613f8f565b5090565b9056fe608060405234801561001057600080fd5b5060405160c080610d3b833981018060405260c081101561003057600080fd5b81019080805190602001909291908051906020019092919080519060200190929190805190602001909291908051906020019092919080519060200190929190505050336000806101000a81548173ffffffffffffffffffffffffffffffffffffffff021916908373ffffffffffffffffffffffffffffffffffffffff16021790555060018060008060009054906101000a900473ffffffffffffffffffffffffffffffffffffffff1673ffffffffffffffffffffffffffffffffffffffff1673ffffffffffffffffffffffffffffffffffffffff16815260200190815260200160002060006101000a81548160ff021916908315150217905550856000806101000a81548173ffffffffffffffffffffffffffffffffffffffff021916908373ffffffffffffffffffffffffffffffffffffffff16021790555084600560006101000a81548173ffffffffffffffffffffffffffffffffffffffff021916908373ffffffffffffffffffffffffffffffffffffffff16021790555083600660006101000a81548173ffffffffffffffffffffffffffffffffffffffff021916908373ffffffffffffffffffffffffffffffffffffffff160217905550826002819055508160038190555080600481905550505050505050610b24806102176000396000f3fe6080604052600436106100555760003560e01c80632042e5c214610057578063686e8aaa146100a85780638da5cb5b146100b2578063a455449014610109578063a6f9dae114610113578063e7cd4a0414610164575b005b34801561006357600080fd5b506100a66004803603602081101561007a57600080fd5b81019080803573ffffffffffffffffffffffffffffffffffffffff1690602001909291905050506101b5565b005b6100b06102d4565b005b3480156100be57600080fd5b506100c7610405565b604051808273ffffffffffffffffffffffffffffffffffffffff1673ffffffffffffffffffffffffffffffffffffffff16815260200191505060405180910390f35b61011161042a565b005b34801561011f57600080fd5b506101626004803603602081101561013657600080fd5b81019080803573ffffffffffffffffffffffffffffffffffffffff169060200190929190505050610570565b005b34801561017057600080fd5b506101b36004803603602081101561018757600080fd5b81019080803573ffffffffffffffffffffffffffffffffffffffff169060200190929190505050610719565b005b336000809054906101000a900473ffffffffffffffffffffffffffffffffffffffff1673ffffffffffffffffffffffffffffffffffffffff168173ffffffffffffffffffffffffffffffffffffffff1614610278576040517f08c379a00000000000000000000000000000000000000000000000000000000081526004018080602001828103825260118152602001807f5065726d697373696f6e2064656e69656400000000000000000000000000000081525060200191505060405180910390fd5b6000600160008473ffffffffffffffffffffffffffffffffffffffff1673ffffffffffffffffffffffffffffffffffffffff16815260200190815260200160002060006101000a81548160ff0219169083151502179055505050565b6000610300620151806102f26002544261083790919063ffffffff16565b61088190919063ffffffff16565b905060006103306201518061032260025460035461083790919063ffffffff16565b61088190919063ffffffff16565b9050600080821461037c5761037782610369853073ffffffffffffffffffffffffffffffffffffffff16316108cb90919063ffffffff16565b61088190919063ffffffff16565b610395565b3073ffffffffffffffffffffffffffffffffffffffff16315b9050600660009054906101000a900473ffffffffffffffffffffffffffffffffffffffff1673ffffffffffffffffffffffffffffffffffffffff166108fc829081150290604051600060405180830381858888f193505050501580156103ff573d6000803e3d6000fd5b50505050565b6000809054906101000a900473ffffffffffffffffffffffffffffffffffffffff1681565b336000809054906101000a900473ffffffffffffffffffffffffffffffffffffffff1673ffffffffffffffffffffffffffffffffffffffff168173ffffffffffffffffffffffffffffffffffffffff16146104ed576040517f08c379a00000000000000000000000000000000000000000000000000000000081526004018080602001828103825260118152602001807f5065726d697373696f6e2064656e69656400000000000000000000000000000081525060200191505060405180910390fd5b600560009054906101000a900473ffffffffffffffffffffffffffffffffffffffff1673ffffffffffffffffffffffffffffffffffffffff166108fc3073ffffffffffffffffffffffffffffffffffffffff16319081150290604051600060405180830381858888f1935050505015801561056c573d6000803e3d6000fd5b5050565b336000809054906101000a900473ffffffffffffffffffffffffffffffffffffffff1673ffffffffffffffffffffffffffffffffffffffff168173ffffffffffffffffffffffffffffffffffffffff1614610633576040517f08c379a00000000000000000000000000000000000000000000000000000000081526004018080602001828103825260118152602001807f5065726d697373696f6e2064656e69656400000000000000000000000000000081525060200191505060405180910390fd5b8173ffffffffffffffffffffffffffffffffffffffff163373ffffffffffffffffffffffffffffffffffffffff1614156106d5576040517f08c379a00000000000000000000000000000000000000000000000000000000081526004018080602001828103825260128152602001807f4e6565642061206e65772061646472657373000000000000000000000000000081525060200191505060405180910390fd5b816000806101000a81548173ffffffffffffffffffffffffffffffffffffffff021916908373ffffffffffffffffffffffffffffffffffffffff1602179055505050565b336000809054906101000a900473ffffffffffffffffffffffffffffffffffffffff1673ffffffffffffffffffffffffffffffffffffffff168173ffffffffffffffffffffffffffffffffffffffff16146107dc576040517f08c379a00000000000000000000000000000000000000000000000000000000081526004018080602001828103825260118152602001807f5065726d697373696f6e2064656e69656400000000000000000000000000000081525060200191505060405180910390fd5b60018060008473ffffffffffffffffffffffffffffffffffffffff1673ffffffffffffffffffffffffffffffffffffffff16815260200190815260200160002060006101000a81548160ff0219169083151502179055505050565b600061087983836040518060400160405280601e81526020017f536166654d6174683a207375627472616374696f6e206f766572666c6f770000815250610951565b905092915050565b60006108c383836040518060400160405280601a81526020017f536166654d6174683a206469766973696f6e206279207a65726f000000000000815250610a11565b905092915050565b6000808314156108de576000905061094b565b60008284029050828482816108ef57fe5b0414610946576040517f08c379a0000000000000000000000000000000000000000000000000000000008152600401808060200182810382526021815260200180610ad86021913960400191505060405180910390fd5b809150505b92915050565b60008383111582906109fe576040517f08c379a00000000000000000000000000000000000000000000000000000000081526004018080602001828103825283818151815260200191508051906020019080838360005b838110156109c35780820151818401526020810190506109a8565b50505050905090810190601f1680156109f05780820380516001836020036101000a031916815260200191505b509250505060405180910390fd5b5060008385039050809150509392505050565b60008083118290610abd576040517f08c379a00000000000000000000000000000000000000000000000000000000081526004018080602001828103825283818151815260200191508051906020019080838360005b83811015610a82578082015181840152602081019050610a67565b50505050905090810190601f168015610aaf5780820380516001836020036101000a031916815260200191505b509250505060405180910390fd5b506000838581610ac957fe5b04905080915050939250505056fe536166654d6174683a206d756c7469706c69636174696f6e206f766572666c6f77a165627a7a72305820d9b9af8bb56c694bf366ed82c5bbf881c9abbced49c6051b7668d2b319759769002970726f706f73616c20686173206265656e206f6e655469636b6574526566757365536166654d6174683a206d756c7469706c69636174696f6e206f766572666c6f77566f74655f4170706c7946756e645f4f6e655469636b657452656675736550726f706f73616c4e6f207065726d697373696f6e20746f20696e766f6b652074686520436f6e7472616374a165627a7a72305820b7539dd6f748f316bdf955be69399ffef894b0bb38537ca2556c1cca3810dddf0029",
  "source": "pragma solidity >=0.4.22 <0.6.0;\r\n\r\nimport \"./VoteApp.sol\";\r\nimport \"../Tap/Tap.sol\";\r\nimport \"../Interface/IDateTime.sol\";\r\n\r\ncontract Vote_ApplyFund is VoteApp{\r\n\r\n    bytes32 public constant Vote_ApplyFund_OneTicketRefuseProposal = keccak256(\"Vote_ApplyFund_OneTicketRefuseProposal\");\r\n    bytes32 public constant Vote_ApplyFund_oneTicketStopTap = keccak256(\"Vote_ApplyFund_oneTicketStopTap\");\r\n\r\n    /// @notice \r\n    Proposal[] private proposalQueue;\r\n\r\n    ///\r\n    uint256 maxProposalOneDay = 5;\r\n\r\n    mapping(bytes32=>uint256) counter;\r\n\r\n    /// @notice \r\n    struct Proposal{\r\n        uint256 index;//\r\n        string proposalName; //\r\n        address payable proposer; //\r\n        uint256 approveVotes; //\r\n        uint256 refuseVotes; //\r\n        STap sTap;\r\n        bool process; //\r\n        bool pass; //\r\n        bool abort;//\r\n        bool abandon;//true\r\n        bool oneTicketRefuse;//\r\n        mapping(address => enumVoteResult) voteDetails;\r\n        string detail; //\r\n        address payable address_tap; //\r\n    }\r\n\r\n    struct STap {\r\n        uint256 startTime; //\r\n        address payable recipient; //gas\r\n        uint256 value; //\r\n        uint256 timeConsuming; // 30\r\n    }\r\n\r\n    /// @notice \r\n    event OnApplyProposal(\r\n        uint256 index,\r\n        string proposalName,\r\n        address payable proposaler,\r\n        uint256 startTime,\r\n        address payable recipient,\r\n        uint256 value,\r\n        uint256 timeConsuming,\r\n        string detail\r\n    );\r\n\r\n    /// @param who \r\n    /// @param index \r\n    /// @param voteResult \r\n    /// @param shares \r\n    event OnVote(\r\n        address who,\r\n        uint256 index,\r\n        uint8 voteResult,\r\n        uint256 shares\r\n    );\r\n\r\n    /// @param index  , pass \r\n    event OnProcess(\r\n        uint256 index,\r\n        bool pass\r\n    );\r\n\r\n    /// @param index \r\n    event OnAbort(\r\n        uint256 index\r\n    );\r\n\r\n    /// @param index \r\n    event OnOneTicketRefuse(\r\n        uint256 index\r\n    );\r\n\r\n    /// @param index \r\n    event OnOneTicketStopTap(\r\n        uint256 index\r\n    );\r\n\r\n    constructor(AppManager _appManager) FutureDaoApp(_appManager) public{\r\n    }\r\n\r\n    modifier ownFdt() {\r\n        require(getFdtInGovern(msg.sender)>0, \"need has shares\");\r\n        _;\r\n    }\r\n\r\n    /////////////\r\n    /// \r\n    /////////////\r\n    //\r\n    function getProposalQueueLength() public view returns(uint256){\r\n        return proposalQueue.length;\r\n    }\r\n\r\n    ///\r\n    function getAmountOfProposalToday() public view returns(uint256){\r\n        bytes32 b32 = getTimeHash();\r\n        return counter[b32];\r\n    }\r\n\r\n    ///index()\r\n    function getProposalBaseInfoByIndex(uint256 _proposalIndex)\r\n    public\r\n    view\r\n    returns(string memory _proposalName,address _proposer,string memory _detail,address payable _address_tap)\r\n    {\r\n        uint256 queueIndex = proposalIndexToQueueIndex(_proposalIndex);\r\n        Proposal storage proposal = proposalQueue[queueIndex];\r\n        _proposalName = proposal.proposalName;\r\n        _proposer = proposal.proposer;\r\n        _detail = proposal.detail;\r\n        _address_tap = proposal.address_tap;\r\n    }\r\n\r\n    ///\r\n    function getProposalStateByIndex(uint256 _proposalIndex)\r\n    public\r\n    view\r\n    returns(uint256 _approveVotes,uint256 _refuseVotes,bool _process,bool _pass,bool _abort,bool _abandon,bool _oneTicketRefuse)\r\n    {\r\n        uint256 queueIndex = proposalIndexToQueueIndex(_proposalIndex);\r\n        Proposal storage proposal = proposalQueue[queueIndex];\r\n        _approveVotes = proposal.approveVotes;\r\n        _refuseVotes = proposal.refuseVotes;\r\n        _process = proposal.process;\r\n        _pass = proposal.pass;\r\n        _abort = proposal.abort;\r\n        _abandon = proposal.abandon;\r\n        _oneTicketRefuse = proposal.oneTicketRefuse;\r\n    }\r\n    //\r\n    function getProposalTapByIndex(uint256 _proposalIndex)\r\n    public\r\n    view\r\n    returns(uint256 _startTime,address payable _recipient,uint256 _value,uint256 _timeConsuming)\r\n    {\r\n        uint256 queueIndex = proposalIndexToQueueIndex(_proposalIndex);\r\n        Proposal storage proposal = proposalQueue[queueIndex];\r\n        _startTime = proposal.sTap.startTime;\r\n        _recipient = proposal.sTap.recipient;\r\n        _value = proposal.sTap.value;\r\n        _timeConsuming = proposal.sTap.timeConsuming;\r\n    }\r\n\r\n    /// @notice \r\n    /// @param _name _recipient _value _timeConsuming _detail \r\n    function applyProposal(\r\n        string memory _name,\r\n        address payable _recipient,\r\n        uint256 _value,\r\n        uint256 _timeConsuming,\r\n        string memory _detail\r\n    )\r\n    public\r\n    payable\r\n    ownFdt()\r\n    {\r\n        require(_recipient != address(0),\"_recipient cannot be null\");\r\n        require(_value >= 0,\"value need more than 0\");\r\n        require(_timeConsuming>=0,\"_timeConsuming cant less than 0\");\r\n        //gas\r\n        require(msg.value >= proposalFee + deposit, \"need proposalFee\");\r\n        //\r\n        bytes32 b32 = getTimeHash();\r\n        require(counter[b32] < maxProposalOneDay,\"Beyond the maxProposalOneDay\");\r\n\r\n        STap memory _sTap = STap({\r\n            startTime : now,\r\n            recipient : _recipient,\r\n            value : _value,\r\n            timeConsuming : _timeConsuming\r\n        });\r\n\r\n        Proposal memory proposal = Proposal({\r\n            index : proposalQueue.length + 1,\r\n            proposalName : _name,\r\n            proposer : msg.sender,\r\n            approveVotes : 0,\r\n            refuseVotes : 0,\r\n            sTap : _sTap,\r\n            process : false,\r\n            pass : false,\r\n            abort : false,\r\n            oneTicketRefuse : false,\r\n            abandon : false,\r\n            detail : _detail,\r\n            address_tap : address(0)\r\n        });\r\n\r\n        emit OnApplyProposal(\r\n            proposal.index,\r\n            proposal.proposalName,\r\n            proposal.proposer,\r\n            proposal.sTap.startTime,\r\n            proposal.sTap.recipient,\r\n            proposal.sTap.value,\r\n            proposal.sTap.timeConsuming,\r\n            proposal.detail\r\n        );\r\n        proposalQueue.push(proposal);\r\n        counter[b32] = counter[b32].add(1);\r\n    }\r\n\r\n    function vote(uint256 _proposalIndex,uint8 result,uint256 FdtAmount) public ownFdt() {\r\n        //\r\n        uint256 queueIndex = proposalIndexToQueueIndex(_proposalIndex);\r\n        Proposal storage proposal = proposalQueue[queueIndex];\r\n        //\r\n        require(now <= proposal.sTap.startTime + votingPeriodLength,\"time out\");\r\n        //\r\n        require(result == 1||result == 2,\"vote result must be less than 3\");\r\n        //\r\n        require(proposal.voteDetails[msg.sender] == enumVoteResult.waiver || proposal.voteDetails[msg.sender] == enumVoteResult(result),\"Votes have been cast\");\r\n        //\r\n        require(proposal.abort == false,\"proposal has been aborted\");\r\n        //\r\n        require(proposal.oneTicketRefuse == false,\"proposal has been oneTicketRefuse\");\r\n        //\r\n        enumVoteResult voteResult = enumVoteResult(result);\r\n        proposal.voteDetails[msg.sender] = voteResult;\r\n        if(voteResult == enumVoteResult.approve){\r\n            proposal.approveVotes = proposal.approveVotes + FdtAmount;\r\n        }\r\n        else{\r\n            proposal.refuseVotes = proposal.refuseVotes + FdtAmount;\r\n        }\r\n\r\n        bool r = IGovernShareManager(appManager.getGovernShareManager()).lock(\r\n            msg.sender,\r\n            proposal.index,\r\n            proposal.sTap.startTime + votingPeriodLength,\r\n            FdtAmount\r\n        );\r\n        require(r,\"lock error\");\r\n\r\n        emit OnVote(msg.sender,_proposalIndex,result,FdtAmount);\r\n    }\r\n\r\n    /// @notice \r\n    /// @param _proposalIndex \r\n    function abortProposal(uint256 _proposalIndex) public{\r\n        uint256 queueIndex = proposalIndexToQueueIndex(_proposalIndex);\r\n        Proposal storage proposal = proposalQueue[queueIndex];\r\n        //\r\n        require(proposal.proposer == msg.sender,\"sender should be proposer\");\r\n        //\r\n        require(now <= proposal.sTap.startTime + votingPeriodLength,\"time out\");\r\n        //\r\n        require(proposal.oneTicketRefuse == false,\"proposal has been oneTicketRefuse\");\r\n        //\r\n        require(proposal.abort == false,\"proposal has been aborted\");\r\n        proposal.abort = true;\r\n        emit OnAbort(_proposalIndex);\r\n        bytes32 b32 = getTimeHash(proposal.sTap.startTime);\r\n        counter[b32] = counter[b32].sub(1);\r\n        //\r\n        appManager.getTradeFundPool().transfer(proposalFee);\r\n        //\r\n        proposal.proposer.transfer(deposit);\r\n    }\r\n\r\n    /// @notice \r\n    /// @dev \r\n    /// @param _proposalIndex \r\n    function oneTicketRefuseProposal(uint256 _proposalIndex) public auth(Vote_ApplyFund_OneTicketRefuseProposal){\r\n        uint256 queueIndex = proposalIndexToQueueIndex(_proposalIndex);\r\n        Proposal storage proposal = proposalQueue[queueIndex];\r\n        //\r\n        require(proposal.abort == false,\"proposal has been aborted\");\r\n        //\r\n        require(proposal.oneTicketRefuse == false,\"proposal has been oneTicketRefuse\");\r\n        //\r\n        require(\r\n            now>proposal.sTap.startTime + votingPeriodLength && now < proposal.sTap.startTime + votingPeriodLength + publicityPeriodLength,\r\n            \"time out\"\r\n        );\r\n\r\n        //66%\r\n        uint256 totalFdt = getFdtTotalSupply();\r\n        uint256 ratio = proposal.approveVotes.mul(1000).div(totalFdt);\r\n        require(ratio<660,\"\");\r\n\r\n        proposal.oneTicketRefuse = true;\r\n        emit OnOneTicketRefuse(_proposalIndex);\r\n        bytes32 b32 = getTimeHash(proposal.sTap.startTime);\r\n        counter[b32] = counter[b32].sub(1);\r\n        //\r\n        appManager.getTradeFundPool().transfer(proposalFee);\r\n        //\r\n        proposal.proposer.transfer(deposit);\r\n    }\r\n\r\n    // /// @notice \r\n    // /// @dev \r\n    // /// @param _proposalIndex \r\n    // function oneTicketStopTap(uint256 _proposalIndex) public auth(Vote_ApplyFund_oneTicketStopTap){\r\n    //     uint256 queueIndex = proposalIndexToQueueIndex(_proposalIndex);\r\n    //     Proposal storage retrial_proposal = proposalQueue[queueIndex];\r\n    //     require(retrial_proposal.abandon == false,\"proposal has been abandon\");\r\n    //     Tap address_retrial_tap = Tap(retrial_proposal.address_tap);\r\n    //     address_retrial_tap.GetMoneyBackToFund();\r\n    //     retrial_proposal.abandon = true;\r\n    //     emit OnOneTicketStopTap(_proposalIndex);\r\n    // }\r\n\r\n    /// @notice \r\n    /// @param _proposalIndex \r\n    function process(uint256 _proposalIndex) public {\r\n        uint256 queueIndex = proposalIndexToQueueIndex(_proposalIndex);\r\n        Proposal storage proposal = proposalQueue[queueIndex];\r\n        // \r\n        require(now > proposal.sTap.startTime + votingPeriodLength && now < proposal.sTap.startTime + votingPeriodLength + publicityPeriodLength,\"it's within the expiry date\");\r\n        //\r\n        require(proposal.process == false,\"proposal has been process\");\r\n        //\r\n        require(proposal.abort == false,\"proposal has been aborted\");\r\n        //\r\n        require(proposal.oneTicketRefuse == false,\"proposal has been oneTicketRefuse\");\r\n        proposal.process = true;\r\n\r\n        //\r\n        if(proposal.approveVotes>proposal.refuseVotes){\r\n            proposal.pass = true;\r\n            if(proposal.sTap.value>0){\r\n                // \r\n                Tap tap = new Tap(address(this),appManager.getTradeFundPool(),proposal.sTap.recipient,now,now.add(proposal.sTap.timeConsuming.mul(1 days)),proposal.sTap.value);\r\n                IGovernShareManager(appManager.getGovernShareManager()).sendEth(address(tap),proposal.sTap.value);\r\n                proposal.address_tap = address(tap);\r\n            }\r\n        }\r\n        emit OnProcess(_proposalIndex,proposal.pass);\r\n        bytes32 b32 = getTimeHash(proposal.sTap.startTime);\r\n        counter[b32] = counter[b32].sub(1);\r\n\r\n        //\r\n        msg.sender.transfer(proposalFee);\r\n        //\r\n        proposal.proposer.transfer(deposit);\r\n    }\r\n\r\n    function freeFdt(uint256[] memory _proposalIndexs) public {\r\n        for(uint256 i = 0;i<_proposalIndexs.length;i++){\r\n            uint256 _proposalIndex = _proposalIndexs[i];\r\n            require(_proposalIndex <= proposalQueue.length && _proposalIndex>0,\"proposal does not exist\");\r\n            Proposal storage proposal = proposalQueue[_proposalIndex];\r\n            // \r\n            require(proposal.process == true || proposal.abort == true || proposal.oneTicketRefuse == true,\"proposal need process\");\r\n            IGovernShareManager(appManager.getGovernShareManager()).free(msg.sender,_proposalIndex,proposal.sTap.startTime + votingPeriodLength);\r\n        }\r\n    }\r\n\r\n    function proposalIndexToQueueIndex(uint256 _proposalIndex) private view returns(uint256){\r\n        //\r\n        require(_proposalIndex <= proposalQueue.length && _proposalIndex>0,\"proposal does not exist\");\r\n        return _proposalIndex - 1;\r\n    }\r\n\r\n    function getTimeHash() private view returns(bytes32){\r\n        IDateTime dateTime = IDateTime(appManager.getDateTime());\r\n        uint16 year = dateTime.getYear(now);\r\n        uint8 month = dateTime.getMonth(now);\r\n        uint8 day = dateTime.getDay(now);\r\n        return keccak256(abi.encodePacked(year,month,day));\r\n    }\r\n\r\n    function getTimeHash(uint256 timestamp) private view returns(bytes32){\r\n        IDateTime dateTime = IDateTime(appManager.getDateTime());\r\n        uint16 year = dateTime.getYear(timestamp);\r\n        uint8 month = dateTime.getMonth(timestamp);\r\n        uint8 day = dateTime.getDay(timestamp);\r\n        return keccak256(abi.encodePacked(year,month,day));\r\n    }\r\n\r\n    function() external payable{\r\n    }\r\n}",
  "sourcePath": "D:/_______work/FD_Contract_ETH/fd/contracts/Vote/Vote_ApplyFund.sol",
  "compiler": {
    "name": "solc",
    "version": "0.5.8+commit.23d335f2.Emscripten.clang"
  },
  "schemaVersion": "3.0.11",
  "updatedAt": "2019-11-05T02:27:33.754Z",
  "devdoc": {
    "methods": {
      "abortProposal(uint256)": {
        "params": {
          "_proposalIndex": ""
        }
      },
      "applyProposal(string,address,uint256,uint256,string)": {
        "params": {
          "_name": "_recipient _value _timeConsuming _detail "
        }
      },
      "oneTicketRefuseProposal(uint256)": {
        "params": {
          "_proposalIndex": ""
        }
      },
      "process(uint256)": {
        "params": {
          "_proposalIndex": ""
        }
      }
    }
  },
  "userdoc": {
    "methods": {
      "getAmountOfProposalToday()": {
        "notice": ""
      },
      "getFdtInGovern(address)": {
        "notice": ""
      },
      "getFdtTotalSupply()": {
        "notice": ""
      },
      "getProposalBaseInfoByIndex(uint256)": {
        "notice": "index()"
      },
      "getProposalQueueLength()": {
        "notice": "//////////"
      },
      "getProposalStateByIndex(uint256)": {
        "notice": ""
      }
    }
  }
}