{
  "contractName": "Vote_ApplyFund",
  "abi": [
    {
      "constant": true,
      "inputs": [],
      "name": "getFdtTotalSupply",
      "outputs": [
        {
          "name": "",
          "type": "uint256"
        }
      ],
      "payable": false,
      "stateMutability": "view",
      "type": "function"
    },
    {
      "constant": true,
      "inputs": [],
      "name": "Vote_ApplyFund_oneTicketStopTap",
      "outputs": [
        {
          "name": "",
          "type": "bytes32"
        }
      ],
      "payable": false,
      "stateMutability": "view",
      "type": "function"
    },
    {
      "constant": true,
      "inputs": [],
      "name": "getAppManagerAddress",
      "outputs": [
        {
          "name": "",
          "type": "address"
        }
      ],
      "payable": false,
      "stateMutability": "view",
      "type": "function"
    },
    {
      "constant": true,
      "inputs": [
        {
          "name": "_addr",
          "type": "address"
        }
      ],
      "name": "getFdtInGovern",
      "outputs": [
        {
          "name": "",
          "type": "uint256"
        }
      ],
      "payable": false,
      "stateMutability": "view",
      "type": "function"
    },
    {
      "constant": true,
      "inputs": [],
      "name": "FundPool_PreMint",
      "outputs": [
        {
          "name": "",
          "type": "bytes32"
        }
      ],
      "payable": false,
      "stateMutability": "view",
      "type": "function"
    },
    {
      "constant": true,
      "inputs": [],
      "name": "proposalFee",
      "outputs": [
        {
          "name": "",
          "type": "uint256"
        }
      ],
      "payable": false,
      "stateMutability": "view",
      "type": "function"
    },
    {
      "constant": true,
      "inputs": [],
      "name": "EMPTY_PARAM_HASH",
      "outputs": [
        {
          "name": "",
          "type": "bytes32"
        }
      ],
      "payable": false,
      "stateMutability": "view",
      "type": "function"
    },
    {
      "constant": true,
      "inputs": [],
      "name": "Vote_ApplyFund_OneTicketRefuseProposal",
      "outputs": [
        {
          "name": "",
          "type": "bytes32"
        }
      ],
      "payable": false,
      "stateMutability": "view",
      "type": "function"
    },
    {
      "constant": true,
      "inputs": [],
      "name": "deposit",
      "outputs": [
        {
          "name": "",
          "type": "uint256"
        }
      ],
      "payable": false,
      "stateMutability": "view",
      "type": "function"
    },
    {
      "constant": true,
      "inputs": [],
      "name": "appManager",
      "outputs": [
        {
          "name": "",
          "type": "address"
        }
      ],
      "payable": false,
      "stateMutability": "view",
      "type": "function"
    },
    {
      "inputs": [
        {
          "name": "_appManager",
          "type": "address"
        }
      ],
      "payable": false,
      "stateMutability": "nonpayable",
      "type": "constructor"
    },
    {
      "payable": true,
      "stateMutability": "payable",
      "type": "fallback"
    },
    {
      "anonymous": false,
      "inputs": [
        {
          "indexed": false,
          "name": "index",
          "type": "uint256"
        },
        {
          "indexed": false,
          "name": "proposalName",
          "type": "string"
        },
        {
          "indexed": false,
          "name": "proposaler",
          "type": "address"
        },
        {
          "indexed": false,
          "name": "startTime",
          "type": "uint256"
        },
        {
          "indexed": false,
          "name": "recipient",
          "type": "address"
        },
        {
          "indexed": false,
          "name": "value",
          "type": "uint256"
        },
        {
          "indexed": false,
          "name": "timeConsuming",
          "type": "uint256"
        },
        {
          "indexed": false,
          "name": "detail",
          "type": "string"
        }
      ],
      "name": "OnApplyProposal",
      "type": "event"
    },
    {
      "anonymous": false,
      "inputs": [
        {
          "indexed": false,
          "name": "who",
          "type": "address"
        },
        {
          "indexed": false,
          "name": "index",
          "type": "uint256"
        },
        {
          "indexed": false,
          "name": "voteResult",
          "type": "uint8"
        },
        {
          "indexed": false,
          "name": "shares",
          "type": "uint256"
        }
      ],
      "name": "OnVote",
      "type": "event"
    },
    {
      "anonymous": false,
      "inputs": [
        {
          "indexed": false,
          "name": "index",
          "type": "uint256"
        },
        {
          "indexed": false,
          "name": "pass",
          "type": "bool"
        }
      ],
      "name": "OnProcess",
      "type": "event"
    },
    {
      "anonymous": false,
      "inputs": [
        {
          "indexed": false,
          "name": "index",
          "type": "uint256"
        }
      ],
      "name": "OnAbort",
      "type": "event"
    },
    {
      "anonymous": false,
      "inputs": [
        {
          "indexed": false,
          "name": "index",
          "type": "uint256"
        }
      ],
      "name": "OnOneTicketRefuse",
      "type": "event"
    },
    {
      "anonymous": false,
      "inputs": [
        {
          "indexed": false,
          "name": "index",
          "type": "uint256"
        }
      ],
      "name": "OnOneTicketStopTap",
      "type": "event"
    },
    {
      "constant": true,
      "inputs": [],
      "name": "getProposalQueueLength",
      "outputs": [
        {
          "name": "",
          "type": "uint256"
        }
      ],
      "payable": false,
      "stateMutability": "view",
      "type": "function"
    },
    {
      "constant": true,
      "inputs": [],
      "name": "getAmountOfProposalToday",
      "outputs": [
        {
          "name": "",
          "type": "uint256"
        }
      ],
      "payable": false,
      "stateMutability": "view",
      "type": "function"
    },
    {
      "constant": true,
      "inputs": [
        {
          "name": "_proposalIndex",
          "type": "uint256"
        }
      ],
      "name": "getProposalBaseInfoByIndex",
      "outputs": [
        {
          "name": "_proposalName",
          "type": "string"
        },
        {
          "name": "_proposer",
          "type": "address"
        },
        {
          "name": "_detail",
          "type": "string"
        },
        {
          "name": "_address_tap",
          "type": "address"
        }
      ],
      "payable": false,
      "stateMutability": "view",
      "type": "function"
    },
    {
      "constant": true,
      "inputs": [
        {
          "name": "_proposalIndex",
          "type": "uint256"
        }
      ],
      "name": "getProposalStateByIndex",
      "outputs": [
        {
          "name": "_approveVotes",
          "type": "uint256"
        },
        {
          "name": "_refuseVotes",
          "type": "uint256"
        },
        {
          "name": "_process",
          "type": "bool"
        },
        {
          "name": "_pass",
          "type": "bool"
        },
        {
          "name": "_abort",
          "type": "bool"
        },
        {
          "name": "_abandon",
          "type": "bool"
        },
        {
          "name": "_oneTicketRefuse",
          "type": "bool"
        }
      ],
      "payable": false,
      "stateMutability": "view",
      "type": "function"
    },
    {
      "constant": true,
      "inputs": [
        {
          "name": "_proposalIndex",
          "type": "uint256"
        }
      ],
      "name": "getProposalTapByIndex",
      "outputs": [
        {
          "name": "_startTime",
          "type": "uint256"
        },
        {
          "name": "_recipient",
          "type": "address"
        },
        {
          "name": "_value",
          "type": "uint256"
        },
        {
          "name": "_timeConsuming",
          "type": "uint256"
        }
      ],
      "payable": false,
      "stateMutability": "view",
      "type": "function"
    },
    {
      "constant": false,
      "inputs": [
        {
          "name": "_name",
          "type": "string"
        },
        {
          "name": "_recipient",
          "type": "address"
        },
        {
          "name": "_value",
          "type": "uint256"
        },
        {
          "name": "_timeConsuming",
          "type": "uint256"
        },
        {
          "name": "_detail",
          "type": "string"
        }
      ],
      "name": "applyProposal",
      "outputs": [],
      "payable": true,
      "stateMutability": "payable",
      "type": "function"
    },
    {
      "constant": false,
      "inputs": [
        {
          "name": "_proposalIndex",
          "type": "uint256"
        },
        {
          "name": "result",
          "type": "uint8"
        },
        {
          "name": "FdtAmount",
          "type": "uint256"
        }
      ],
      "name": "vote",
      "outputs": [],
      "payable": false,
      "stateMutability": "nonpayable",
      "type": "function"
    },
    {
      "constant": false,
      "inputs": [
        {
          "name": "_proposalIndex",
          "type": "uint256"
        }
      ],
      "name": "abortProposal",
      "outputs": [],
      "payable": false,
      "stateMutability": "nonpayable",
      "type": "function"
    },
    {
      "constant": false,
      "inputs": [
        {
          "name": "_proposalIndex",
          "type": "uint256"
        }
      ],
      "name": "oneTicketRefuseProposal",
      "outputs": [],
      "payable": false,
      "stateMutability": "nonpayable",
      "type": "function"
    },
    {
      "constant": false,
      "inputs": [
        {
          "name": "_proposalIndex",
          "type": "uint256"
        }
      ],
      "name": "process",
      "outputs": [],
      "payable": false,
      "stateMutability": "nonpayable",
      "type": "function"
    },
    {
      "constant": false,
      "inputs": [
        {
          "name": "_proposalIndexs",
          "type": "uint256[]"
        }
      ],
      "name": "freeFdt",
      "outputs": [],
      "payable": false,
      "stateMutability": "nonpayable",
      "type": "function"
    }
  ],
  "bytecode": "0x608060405261012c60015561021c60025567016345785d8a000060035567016345785d8a0000600455600560065534801561003957600080fd5b5060405160208062004ece8339810180604052602081101561005a57600080fd5b810190808051906020019092919050505080806000806101000a81548173ffffffffffffffffffffffffffffffffffffffff021916908373ffffffffffffffffffffffffffffffffffffffff1602179055505050614e1080620000be6000396000f3fe60806040526004361061012a5760003560e01c80637a0a0078116100ab578063ca9c846c1161006f578063ca9c846c1461083e578063cfab3acc14610869578063d0e30db0146108a4578063e520251a146108cf578063ebe86c1314610921578063ffb2c479146109785761012a565b80637a0a0078146105a7578063b292267f1461072d578063b710ffc0146107bd578063c27cabb5146107e8578063c513f66e146108135761012a565b80633968ccfe116100f25780633968ccfe1461030f5780634c3300771461033a578063578f6a6214610391578063759c7aa4146103f6578063797daf701461057c5761012a565b806305ad497d1461012c57806308731cfe146101f15780630a81e7021461021c5780631ab3c1d314610257578063316a999f146102e4575b005b34801561013857600080fd5b506101ef6004803603602081101561014f57600080fd5b810190808035906020019064010000000081111561016c57600080fd5b82018360208201111561017e57600080fd5b803590602001918460208302840111640100000000831117156101a057600080fd5b919080806020026020016040519081016040528093929190818152602001838360200280828437600081840152601f19601f8201169050808301925050505050505091929192905050506109b3565b005b3480156101fd57600080fd5b50610206610cd5565b6040518082815260200191505060405180910390f35b34801561022857600080fd5b506102556004803603602081101561023f57600080fd5b8101908080359060200190929190505050610dfe565b005b34801561026357600080fd5b506102906004803603602081101561027a57600080fd5b81019080803590602001909291905050506113fe565b60405180888152602001878152602001861515151581526020018515151515815260200184151515158152602001831515151581526020018215151515815260200197505050505050505060405180910390f35b3480156102f057600080fd5b506102f96114b3565b6040518082815260200191505060405180910390f35b34801561031b57600080fd5b506103246114da565b6040518082815260200191505060405180910390f35b34801561034657600080fd5b5061034f611513565b604051808273ffffffffffffffffffffffffffffffffffffffff1673ffffffffffffffffffffffffffffffffffffffff16815260200191505060405180910390f35b34801561039d57600080fd5b506103e0600480360360208110156103b457600080fd5b81019080803573ffffffffffffffffffffffffffffffffffffffff16906020019092919050505061153c565b6040518082815260200191505060405180910390f35b34801561040257600080fd5b5061042f6004803603602081101561041957600080fd5b810190808035906020019092919050505061169e565b60405180806020018573ffffffffffffffffffffffffffffffffffffffff1673ffffffffffffffffffffffffffffffffffffffff168152602001806020018473ffffffffffffffffffffffffffffffffffffffff1673ffffffffffffffffffffffffffffffffffffffff168152602001838103835287818151815260200191508051906020019080838360005b838110156104d75780820151818401526020810190506104bc565b50505050905090810190601f1680156105045780820380516001836020036101000a031916815260200191505b50838103825285818151815260200191508051906020019080838360005b8381101561053d578082015181840152602081019050610522565b50505050905090810190601f16801561056a5780820380516001836020036101000a031916815260200191505b50965050505050505060405180910390f35b34801561058857600080fd5b50610591611866565b6040518082815260200191505060405180910390f35b61072b600480360360a08110156105bd57600080fd5b81019080803590602001906401000000008111156105da57600080fd5b8201836020820111156105ec57600080fd5b8035906020019184600183028401116401000000008311171561060e57600080fd5b91908080601f016020809104026020016040519081016040528093929190818152602001838380828437600081840152601f19601f820116905080830192505050505050509192919290803573ffffffffffffffffffffffffffffffffffffffff1690602001909291908035906020019092919080359060200190929190803590602001906401000000008111156106a557600080fd5b8201836020820111156106b757600080fd5b803590602001918460018302840111640100000000831117156106d957600080fd5b91908080601f016020809104026020016040519081016040528093929190818152602001838380828437600081840152601f19601f820116905080830192505050505050509192919290505050611873565b005b34801561073957600080fd5b506107666004803603602081101561075057600080fd5b81019080803590602001909291905050506120b3565b604051808581526020018473ffffffffffffffffffffffffffffffffffffffff1673ffffffffffffffffffffffffffffffffffffffff16815260200183815260200182815260200194505050505060405180910390f35b3480156107c957600080fd5b506107d2612136565b6040518082815260200191505060405180910390f35b3480156107f457600080fd5b506107fd61216f565b6040518082815260200191505060405180910390f35b34801561081f57600080fd5b50610828612175565b6040518082815260200191505060405180910390f35b34801561084a57600080fd5b5061085361219c565b6040518082815260200191505060405180910390f35b34801561087557600080fd5b506108a26004803603602081101561088c57600080fd5b81019080803590602001909291905050506121b8565b005b3480156108b057600080fd5b506108b9612626565b6040518082815260200191505060405180910390f35b3480156108db57600080fd5b5061091f600480360360608110156108f257600080fd5b8101908080359060200190929190803560ff1690602001909291908035906020019092919050505061262c565b005b34801561092d57600080fd5b50610936612d68565b604051808273ffffffffffffffffffffffffffffffffffffffff1673ffffffffffffffffffffffffffffffffffffffff16815260200191505060405180910390f35b34801561098457600080fd5b506109b16004803603602081101561099b57600080fd5b8101908080359060200190929190505050612d8d565b005b60008090505b8151811015610cd15760008282815181106109d057fe5b6020026020010151905060058054905081111580156109ef5750600081115b610a61576040517f08c379a00000000000000000000000000000000000000000000000000000000081526004018080602001828103825260178152602001807f70726f706f73616c20646f6573206e6f7420657869737400000000000000000081525060200191505060405180910390fd5b600060058281548110610a7057fe5b90600052602060002090600d02019050600115158160090160009054906101000a900460ff1615151480610ab95750600115158160090160029054906101000a900460ff161515145b80610ad95750600115158160090160049054906101000a900460ff161515145b610b4b576040517f08c379a00000000000000000000000000000000000000000000000000000000081526004018080602001828103825260158152602001807f70726f706f73616c206e6565642070726f63657373000000000000000000000081525060200191505060405180910390fd5b6000809054906101000a900473ffffffffffffffffffffffffffffffffffffffff1673ffffffffffffffffffffffffffffffffffffffff1663bf7b00eb6040518163ffffffff1660e01b815260040160206040518083038186803b158015610bb257600080fd5b505afa158015610bc6573d6000803e3d6000fd5b505050506040513d6020811015610bdc57600080fd5b810190808051906020019092919050505073ffffffffffffffffffffffffffffffffffffffff16636c351c8e33846001548560050160000154016040518463ffffffff1660e01b8152600401808473ffffffffffffffffffffffffffffffffffffffff1673ffffffffffffffffffffffffffffffffffffffff1681526020018381526020018281526020019350505050602060405180830381600087803b158015610c8657600080fd5b505af1158015610c9a573d6000803e3d6000fd5b505050506040513d6020811015610cb057600080fd5b810190808051906020019092919050505050505080806001019150506109b9565b5050565b60008060009054906101000a900473ffffffffffffffffffffffffffffffffffffffff1673ffffffffffffffffffffffffffffffffffffffff1663bf7b00eb6040518163ffffffff1660e01b815260040160206040518083038186803b158015610d3e57600080fd5b505afa158015610d52573d6000803e3d6000fd5b505050506040513d6020811015610d6857600080fd5b810190808051906020019092919050505073ffffffffffffffffffffffffffffffffffffffff166308731cfe6040518163ffffffff1660e01b815260040160206040518083038186803b158015610dbe57600080fd5b505afa158015610dd2573d6000803e3d6000fd5b505050506040513d6020811015610de857600080fd5b8101908080519060200190929190505050905090565b6040518080614d9b60269139602601905060405180910390206000809054906101000a900473ffffffffffffffffffffffffffffffffffffffff1673ffffffffffffffffffffffffffffffffffffffff16634c5f07493330847f290decd9548b62a8d60345a988386fc84ba6bc95484008f6362f93160ef3e56360001b6040518563ffffffff1660e01b8152600401808573ffffffffffffffffffffffffffffffffffffffff1673ffffffffffffffffffffffffffffffffffffffff1681526020018473ffffffffffffffffffffffffffffffffffffffff1673ffffffffffffffffffffffffffffffffffffffff16815260200183815260200182815260200194505050505060206040518083038186803b158015610f1c57600080fd5b505afa158015610f30573d6000803e3d6000fd5b505050506040513d6020811015610f4657600080fd5b8101908080519060200190929190505050610fac576040517f08c379a0000000000000000000000000000000000000000000000000000000008152600401808060200182810382526024815260200180614dc16024913960400191505060405180910390fd5b6000610fb783613525565b9050600060058281548110610fc857fe5b90600052602060002090600d02019050600015158160090160029054906101000a900460ff16151514611063576040517f08c379a00000000000000000000000000000000000000000000000000000000081526004018080602001828103825260198152602001807f70726f706f73616c20686173206265656e2061626f727465640000000000000081525060200191505060405180910390fd5b600015158160090160049054906101000a900460ff161515146110d1576040517f08c379a0000000000000000000000000000000000000000000000000000000008152600401808060200182810382526021815260200180614d596021913960400191505060405180910390fd5b600154816005016000015401421180156110f957506002546001548260050160000154010142105b61116b576040517f08c379a00000000000000000000000000000000000000000000000000000000081526004018080602001828103825260088152602001807f74696d65206f757400000000000000000000000000000000000000000000000081525060200191505060405180910390fd5b6000611175610cd5565b905060006111a4826111966103e886600301546135b990919063ffffffff16565b61363f90919063ffffffff16565b905061029481106111f8576040517f08c379a0000000000000000000000000000000000000000000000000000000008152600401808060200182810382526000815260200160200191505060405180910390fd5b60018360090160046101000a81548160ff0219169083151502179055507f3f004c855f0deef350ea73c1c577156652aafa03d4a99b5b31e0f29033199340866040518082815260200191505060405180910390a1600061125e8460050160000154613689565b90506112876001600760008481526020019081526020016000205461393f90919063ffffffff16565b60076000838152602001908152602001600020819055506000809054906101000a900473ffffffffffffffffffffffffffffffffffffffff1673ffffffffffffffffffffffffffffffffffffffff1663783672e36040518163ffffffff1660e01b815260040160206040518083038186803b15801561130557600080fd5b505afa158015611319573d6000803e3d6000fd5b505050506040513d602081101561132f57600080fd5b810190808051906020019092919050505073ffffffffffffffffffffffffffffffffffffffff166108fc6004549081150290604051600060405180830381858888f19350505050158015611387573d6000803e3d6000fd5b508360020160009054906101000a900473ffffffffffffffffffffffffffffffffffffffff1673ffffffffffffffffffffffffffffffffffffffff166108fc6003549081150290604051600060405180830381858888f193505050501580156113f4573d6000803e3d6000fd5b5050505050505050565b60008060008060008060008061141389613525565b905060006005828154811061142457fe5b90600052602060002090600d0201905080600301549850806004015497508060090160009054906101000a900460ff1696508060090160019054906101000a900460ff1695508060090160029054906101000a900460ff1694508060090160039054906101000a900460ff1693508060090160049054906101000a900460ff1692505050919395979092949650565b6000806114be613989565b9050600760008281526020019081526020016000205491505090565b60405180807f566f74655f4170706c7946756e645f6f6e655469636b657453746f7054617000815250601f019050604051809103902081565b60008060009054906101000a900473ffffffffffffffffffffffffffffffffffffffff16905090565b60008060009054906101000a900473ffffffffffffffffffffffffffffffffffffffff1673ffffffffffffffffffffffffffffffffffffffff1663bf7b00eb6040518163ffffffff1660e01b815260040160206040518083038186803b1580156115a557600080fd5b505afa1580156115b9573d6000803e3d6000fd5b505050506040513d60208110156115cf57600080fd5b810190808051906020019092919050505073ffffffffffffffffffffffffffffffffffffffff1663578f6a62836040518263ffffffff1660e01b8152600401808273ffffffffffffffffffffffffffffffffffffffff1673ffffffffffffffffffffffffffffffffffffffff16815260200191505060206040518083038186803b15801561165c57600080fd5b505afa158015611670573d6000803e3d6000fd5b505050506040513d602081101561168657600080fd5b81019080805190602001909291905050509050919050565b6060600060606000806116b086613525565b90506000600582815481106116c157fe5b90600052602060002090600d02019050806001018054600181600116156101000203166002900480601f0160208091040260200160405190810160405280929190818152602001828054600181600116156101000203166002900480156117695780601f1061173e57610100808354040283529160200191611769565b820191906000526020600020905b81548152906001019060200180831161174c57829003601f168201915b505050505095508060020160009054906101000a900473ffffffffffffffffffffffffffffffffffffffff16945080600b018054600181600116156101000203166002900480601f01602080910402602001604051908101604052809291908181526020018280546001816001161561010002031660029004801561182f5780601f106118045761010080835404028352916020019161182f565b820191906000526020600020905b81548152906001019060200180831161181257829003601f168201915b5050505050935080600c0160009054906101000a900473ffffffffffffffffffffffffffffffffffffffff16925050509193509193565b6000600580549050905090565b600061187e3361153c565b116118f1576040517f08c379a000000000000000000000000000000000000000000000000000000000815260040180806020018281038252600f8152602001807f6e6565642068617320736861726573000000000000000000000000000000000081525060200191505060405180910390fd5b600073ffffffffffffffffffffffffffffffffffffffff168473ffffffffffffffffffffffffffffffffffffffff161415611994576040517f08c379a00000000000000000000000000000000000000000000000000000000081526004018080602001828103825260198152602001807f5f726563697069656e742063616e6e6f74206265206e756c6c0000000000000081525060200191505060405180910390fd5b6000831015611a0b576040517f08c379a00000000000000000000000000000000000000000000000000000000081526004018080602001828103825260168152602001807f76616c7565206e656564206d6f7265207468616e20300000000000000000000081525060200191505060405180910390fd5b6000821015611a82576040517f08c379a000000000000000000000000000000000000000000000000000000000815260040180806020018281038252601f8152602001807f5f74696d65436f6e73756d696e672063616e74206c657373207468616e20300081525060200191505060405180910390fd5b60035460045401341015611afe576040517f08c379a00000000000000000000000000000000000000000000000000000000081526004018080602001828103825260108152602001807f6e6565642070726f706f73616c4665650000000000000000000000000000000081525060200191505060405180910390fd5b6000611b08613989565b9050600654600760008381526020019081526020016000205410611b94576040517f08c379a000000000000000000000000000000000000000000000000000000000815260040180806020018281038252601c8152602001807f4265796f6e6420746865206d617850726f706f73616c4f6e654461790000000081525060200191505060405180910390fd5b611b9c613e4b565b60405180608001604052804281526020018773ffffffffffffffffffffffffffffffffffffffff168152602001868152602001858152509050611bdd613e89565b604051806101a0016040528060016005805490500181526020018981526020013373ffffffffffffffffffffffffffffffffffffffff1681526020016000815260200160008152602001838152602001600015158152602001600015158152602001600015158152602001600015158152602001600015158152602001858152602001600073ffffffffffffffffffffffffffffffffffffffff1681525090507f2502a88482d0c9326f614b5d37916990c3b58ad0abf3acd0ad73b36ce3f2f3818160000151826020015183604001518460a00151600001518560a00151602001518660a00151604001518760a001516060015188610160015160405180898152602001806020018873ffffffffffffffffffffffffffffffffffffffff1673ffffffffffffffffffffffffffffffffffffffff1681526020018781526020018673ffffffffffffffffffffffffffffffffffffffff1673ffffffffffffffffffffffffffffffffffffffff1681526020018581526020018481526020018060200183810383528a818151815260200191508051906020019080838360005b83811015611d97578082015181840152602081019050611d7c565b50505050905090810190601f168015611dc45780820380516001836020036101000a031916815260200191505b50838103825284818151815260200191508051906020019080838360005b83811015611dfd578082015181840152602081019050611de2565b50505050905090810190601f168015611e2a5780820380516001836020036101000a031916815260200191505b509a505050505050505050505060405180910390a16005819080600181540180825580915050906001820390600052602060002090600d020160009091929091909150600082015181600001556020820151816001019080519060200190611e93929190613f2d565b5060408201518160020160006101000a81548173ffffffffffffffffffffffffffffffffffffffff021916908373ffffffffffffffffffffffffffffffffffffffff160217905550606082015181600301556080820151816004015560a0820151816005016000820151816000015560208201518160010160006101000a81548173ffffffffffffffffffffffffffffffffffffffff021916908373ffffffffffffffffffffffffffffffffffffffff1602179055506040820151816002015560608201518160030155505060c08201518160090160006101000a81548160ff02191690831515021790555060e08201518160090160016101000a81548160ff0219169083151502179055506101008201518160090160026101000a81548160ff0219169083151502179055506101208201518160090160036101000a81548160ff0219169083151502179055506101408201518160090160046101000a81548160ff02191690831515021790555061016082015181600b01908051906020019061201f929190613f2d565b5061018082015181600c0160006101000a81548173ffffffffffffffffffffffffffffffffffffffff021916908373ffffffffffffffffffffffffffffffffffffffff16021790555050505061209260016007600086815260200190815260200160002054613c3d90919063ffffffff16565b60076000858152602001908152602001600020819055505050505050505050565b60008060008060006120c486613525565b90506000600582815481106120d557fe5b90600052602060002090600d02019050806005016000015495508060050160010160009054906101000a900473ffffffffffffffffffffffffffffffffffffffff169450806005016002015493508060050160030154925050509193509193565b60405180807f46756e64506f6f6c5f5072654d696e74000000000000000000000000000000008152506010019050604051809103902081565b60045481565b7f290decd9548b62a8d60345a988386fc84ba6bc95484008f6362f93160ef3e56360001b81565b6040518080614d9b602691396026019050604051809103902081565b60006121c382613525565b90506000600582815481106121d457fe5b90600052602060002090600d020190503373ffffffffffffffffffffffffffffffffffffffff168160020160009054906101000a900473ffffffffffffffffffffffffffffffffffffffff1673ffffffffffffffffffffffffffffffffffffffff16146122a9576040517f08c379a00000000000000000000000000000000000000000000000000000000081526004018080602001828103825260198152602001807f73656e6465722073686f756c642062652070726f706f7365720000000000000081525060200191505060405180910390fd5b60015481600501600001540142111561232a576040517f08c379a00000000000000000000000000000000000000000000000000000000081526004018080602001828103825260088152602001807f74696d65206f757400000000000000000000000000000000000000000000000081525060200191505060405180910390fd5b600015158160090160049054906101000a900460ff16151514612398576040517f08c379a0000000000000000000000000000000000000000000000000000000008152600401808060200182810382526021815260200180614d596021913960400191505060405180910390fd5b600015158160090160029054906101000a900460ff16151514612423576040517f08c379a00000000000000000000000000000000000000000000000000000000081526004018080602001828103825260198152602001807f70726f706f73616c20686173206265656e2061626f727465640000000000000081525060200191505060405180910390fd5b60018160090160026101000a81548160ff0219169083151502179055507fb27268ee8d23b38250a0313137fa908b5485a05b62f98c5fe20efc5df37c4f68836040518082815260200191505060405180910390a160006124898260050160000154613689565b90506124b26001600760008481526020019081526020016000205461393f90919063ffffffff16565b60076000838152602001908152602001600020819055506000809054906101000a900473ffffffffffffffffffffffffffffffffffffffff1673ffffffffffffffffffffffffffffffffffffffff1663783672e36040518163ffffffff1660e01b815260040160206040518083038186803b15801561253057600080fd5b505afa158015612544573d6000803e3d6000fd5b505050506040513d602081101561255a57600080fd5b810190808051906020019092919050505073ffffffffffffffffffffffffffffffffffffffff166108fc6004549081150290604051600060405180830381858888f193505050501580156125b2573d6000803e3d6000fd5b508160020160009054906101000a900473ffffffffffffffffffffffffffffffffffffffff1673ffffffffffffffffffffffffffffffffffffffff166108fc6003549081150290604051600060405180830381858888f1935050505015801561261f573d6000803e3d6000fd5b5050505050565b60035481565b60006126373361153c565b116126aa576040517f08c379a000000000000000000000000000000000000000000000000000000000815260040180806020018281038252600f8152602001807f6e6565642068617320736861726573000000000000000000000000000000000081525060200191505060405180910390fd5b60006126b584613525565b90506000600582815481106126c657fe5b90600052602060002090600d02019050600154816005016000015401421115612757576040517f08c379a00000000000000000000000000000000000000000000000000000000081526004018080602001828103825260088152602001807f74696d65206f757400000000000000000000000000000000000000000000000081525060200191505060405180910390fd5b60018460ff16148061276c575060028460ff16145b6127de576040517f08c379a000000000000000000000000000000000000000000000000000000000815260040180806020018281038252601f8152602001807f766f746520726573756c74206d757374206265206c657373207468616e20330081525060200191505060405180910390fd5b600060028111156127eb57fe5b81600a0160003373ffffffffffffffffffffffffffffffffffffffff1673ffffffffffffffffffffffffffffffffffffffff16815260200190815260200160002060009054906101000a900460ff16600281111561284557fe5b14806128c257508360ff16600281111561285b57fe5b600281111561286657fe5b81600a0160003373ffffffffffffffffffffffffffffffffffffffff1673ffffffffffffffffffffffffffffffffffffffff16815260200190815260200160002060009054906101000a900460ff1660028111156128c057fe5b145b612934576040517f08c379a00000000000000000000000000000000000000000000000000000000081526004018080602001828103825260148152602001807f566f7465732068617665206265656e206361737400000000000000000000000081525060200191505060405180910390fd5b600015158160090160029054906101000a900460ff161515146129bf576040517f08c379a00000000000000000000000000000000000000000000000000000000081526004018080602001828103825260198152602001807f70726f706f73616c20686173206265656e2061626f727465640000000000000081525060200191505060405180910390fd5b600015158160090160049054906101000a900460ff16151514612a2d576040517f08c379a0000000000000000000000000000000000000000000000000000000008152600401808060200182810382526021815260200180614d596021913960400191505060405180910390fd5b60008460ff166002811115612a3e57fe5b90508082600a0160003373ffffffffffffffffffffffffffffffffffffffff1673ffffffffffffffffffffffffffffffffffffffff16815260200190815260200160002060006101000a81548160ff02191690836002811115612a9d57fe5b021790555060016002811115612aaf57fe5b816002811115612abb57fe5b1415612ad557838260030154018260030181905550612ae5565b8382600401540182600401819055505b60008060009054906101000a900473ffffffffffffffffffffffffffffffffffffffff1673ffffffffffffffffffffffffffffffffffffffff1663bf7b00eb6040518163ffffffff1660e01b815260040160206040518083038186803b158015612b4e57600080fd5b505afa158015612b62573d6000803e3d6000fd5b505050506040513d6020811015612b7857600080fd5b810190808051906020019092919050505073ffffffffffffffffffffffffffffffffffffffff1663c97be180338560000154600154876005016000015401896040518563ffffffff1660e01b8152600401808573ffffffffffffffffffffffffffffffffffffffff1673ffffffffffffffffffffffffffffffffffffffff168152602001848152602001838152602001828152602001945050505050602060405180830381600087803b158015612c2e57600080fd5b505af1158015612c42573d6000803e3d6000fd5b505050506040513d6020811015612c5857600080fd5b8101908080519060200190929190505050905080612cde576040517f08c379a000000000000000000000000000000000000000000000000000000000815260040180806020018281038252600a8152602001807f6c6f636b206572726f720000000000000000000000000000000000000000000081525060200191505060405180910390fd5b7fbc64f9d6bf28430c0cbce4b563fdb6c057c9d05e7f68f3ef84c1c4b91efb940e33888888604051808573ffffffffffffffffffffffffffffffffffffffff1673ffffffffffffffffffffffffffffffffffffffff1681526020018481526020018360ff1660ff16815260200182815260200194505050505060405180910390a150505050505050565b6000809054906101000a900473ffffffffffffffffffffffffffffffffffffffff1681565b6000612d9882613525565b9050600060058281548110612da957fe5b90600052602060002090600d0201905060015481600501600001540142118015612de157506002546001548260050160000154010142105b612e53576040517f08c379a000000000000000000000000000000000000000000000000000000000815260040180806020018281038252601b8152602001807f697427732077697468696e20746865206578706972792064617465000000000081525060200191505060405180910390fd5b600015158160090160009054906101000a900460ff16151514612ede576040517f08c379a00000000000000000000000000000000000000000000000000000000081526004018080602001828103825260198152602001807f70726f706f73616c20686173206265656e2070726f636573730000000000000081525060200191505060405180910390fd5b600015158160090160029054906101000a900460ff16151514612f69576040517f08c379a00000000000000000000000000000000000000000000000000000000081526004018080602001828103825260198152602001807f70726f706f73616c20686173206265656e2061626f727465640000000000000081525060200191505060405180910390fd5b600015158160090160049054906101000a900460ff16151514612fd7576040517f08c379a0000000000000000000000000000000000000000000000000000000008152600401808060200182810382526021815260200180614d596021913960400191505060405180910390fd5b60018160090160006101000a81548160ff0219169083151502179055508060040154816003015411156133c35760018160090160016101000a81548160ff0219169083151502179055506000816005016002015411156133c2576000306000809054906101000a900473ffffffffffffffffffffffffffffffffffffffff1673ffffffffffffffffffffffffffffffffffffffff1663783672e36040518163ffffffff1660e01b815260040160206040518083038186803b15801561309b57600080fd5b505afa1580156130af573d6000803e3d6000fd5b505050506040513d60208110156130c557600080fd5b81019080805190602001909291905050508360050160010160009054906101000a900473ffffffffffffffffffffffffffffffffffffffff164261312e62015180613120886005016003015442613c3d90919063ffffffff16565b6135b990919063ffffffff16565b866005016002015460405161314290613fad565b808773ffffffffffffffffffffffffffffffffffffffff1673ffffffffffffffffffffffffffffffffffffffff1681526020018673ffffffffffffffffffffffffffffffffffffffff1673ffffffffffffffffffffffffffffffffffffffff1681526020018573ffffffffffffffffffffffffffffffffffffffff1673ffffffffffffffffffffffffffffffffffffffff1681526020018481526020018381526020018281526020019650505050505050604051809103906000f08015801561320f573d6000803e3d6000fd5b5090506000809054906101000a900473ffffffffffffffffffffffffffffffffffffffff1673ffffffffffffffffffffffffffffffffffffffff1663bf7b00eb6040518163ffffffff1660e01b815260040160206040518083038186803b15801561327957600080fd5b505afa15801561328d573d6000803e3d6000fd5b505050506040513d60208110156132a357600080fd5b810190808051906020019092919050505073ffffffffffffffffffffffffffffffffffffffff166349dcbc5e8284600501600201546040518363ffffffff1660e01b8152600401808373ffffffffffffffffffffffffffffffffffffffff1673ffffffffffffffffffffffffffffffffffffffff16815260200182815260200192505050602060405180830381600087803b15801561334157600080fd5b505af1158015613355573d6000803e3d6000fd5b505050506040513d602081101561336b57600080fd5b8101908080519060200190929190505050508082600c0160006101000a81548173ffffffffffffffffffffffffffffffffffffffff021916908373ffffffffffffffffffffffffffffffffffffffff160217905550505b5b7f9462edb475995eb7d62498463128dfe01ee36dc2fac0f62e74c2b11d5555da78838260090160019054906101000a900460ff1660405180838152602001821515151581526020019250505060405180910390a160006134298260050160000154613689565b90506134526001600760008481526020019081526020016000205461393f90919063ffffffff16565b60076000838152602001908152602001600020819055503373ffffffffffffffffffffffffffffffffffffffff166108fc6004549081150290604051600060405180830381858888f193505050501580156134b1573d6000803e3d6000fd5b508160020160009054906101000a900473ffffffffffffffffffffffffffffffffffffffff1673ffffffffffffffffffffffffffffffffffffffff166108fc6003549081150290604051600060405180830381858888f1935050505015801561351e573d6000803e3d6000fd5b5050505050565b6000600580549050821115801561353c5750600082115b6135ae576040517f08c379a00000000000000000000000000000000000000000000000000000000081526004018080602001828103825260178152602001807f70726f706f73616c20646f6573206e6f7420657869737400000000000000000081525060200191505060405180910390fd5b600182039050919050565b6000808314156135cc5760009050613639565b60008284029050828482816135dd57fe5b0414613634576040517f08c379a0000000000000000000000000000000000000000000000000000000008152600401808060200182810382526021815260200180614d7a6021913960400191505060405180910390fd5b809150505b92915050565b600061368183836040518060400160405280601a81526020017f536166654d6174683a206469766973696f6e206279207a65726f000000000000815250613cc5565b905092915050565b6000806000809054906101000a900473ffffffffffffffffffffffffffffffffffffffff1673ffffffffffffffffffffffffffffffffffffffff1663aa7547db6040518163ffffffff1660e01b815260040160206040518083038186803b1580156136f357600080fd5b505afa158015613707573d6000803e3d6000fd5b505050506040513d602081101561371d57600080fd5b8101908080519060200190929190505050905060008173ffffffffffffffffffffffffffffffffffffffff166392d66313856040518263ffffffff1660e01b81526004018082815260200191505060206040518083038186803b15801561378357600080fd5b505afa158015613797573d6000803e3d6000fd5b505050506040513d60208110156137ad57600080fd5b8101908080519060200190929190505050905060008273ffffffffffffffffffffffffffffffffffffffff1663a324ad24866040518263ffffffff1660e01b81526004018082815260200191505060206040518083038186803b15801561381357600080fd5b505afa158015613827573d6000803e3d6000fd5b505050506040513d602081101561383d57600080fd5b8101908080519060200190929190505050905060008373ffffffffffffffffffffffffffffffffffffffff166365c72840876040518263ffffffff1660e01b81526004018082815260200191505060206040518083038186803b1580156138a357600080fd5b505afa1580156138b7573d6000803e3d6000fd5b505050506040513d60208110156138cd57600080fd5b81019080805190602001909291905050509050828282604051602001808461ffff1661ffff1660f01b81526002018360ff1660ff1660f81b81526001018260ff1660ff1660f81b8152600101935050505060405160208183030381529060405280519060200120945050505050919050565b600061398183836040518060400160405280601e81526020017f536166654d6174683a207375627472616374696f6e206f766572666c6f770000815250613d8b565b905092915050565b6000806000809054906101000a900473ffffffffffffffffffffffffffffffffffffffff1673ffffffffffffffffffffffffffffffffffffffff1663aa7547db6040518163ffffffff1660e01b815260040160206040518083038186803b1580156139f357600080fd5b505afa158015613a07573d6000803e3d6000fd5b505050506040513d6020811015613a1d57600080fd5b8101908080519060200190929190505050905060008173ffffffffffffffffffffffffffffffffffffffff166392d66313426040518263ffffffff1660e01b81526004018082815260200191505060206040518083038186803b158015613a8357600080fd5b505afa158015613a97573d6000803e3d6000fd5b505050506040513d6020811015613aad57600080fd5b8101908080519060200190929190505050905060008273ffffffffffffffffffffffffffffffffffffffff1663a324ad24426040518263ffffffff1660e01b81526004018082815260200191505060206040518083038186803b158015613b1357600080fd5b505afa158015613b27573d6000803e3d6000fd5b505050506040513d6020811015613b3d57600080fd5b8101908080519060200190929190505050905060008373ffffffffffffffffffffffffffffffffffffffff166365c72840426040518263ffffffff1660e01b81526004018082815260200191505060206040518083038186803b158015613ba357600080fd5b505afa158015613bb7573d6000803e3d6000fd5b505050506040513d6020811015613bcd57600080fd5b81019080805190602001909291905050509050828282604051602001808461ffff1661ffff1660f01b81526002018360ff1660ff1660f81b81526001018260ff1660ff1660f81b815260010193505050506040516020818303038152906040528051906020012094505050505090565b600080828401905083811015613cbb576040517f08c379a000000000000000000000000000000000000000000000000000000000815260040180806020018281038252601b8152602001807f536166654d6174683a206164646974696f6e206f766572666c6f77000000000081525060200191505060405180910390fd5b8091505092915050565b60008083118290613d71576040517f08c379a00000000000000000000000000000000000000000000000000000000081526004018080602001828103825283818151815260200191508051906020019080838360005b83811015613d36578082015181840152602081019050613d1b565b50505050905090810190601f168015613d635780820380516001836020036101000a031916815260200191505b509250505060405180910390fd5b506000838581613d7d57fe5b049050809150509392505050565b6000838311158290613e38576040517f08c379a00000000000000000000000000000000000000000000000000000000081526004018080602001828103825283818151815260200191508051906020019080838360005b83811015613dfd578082015181840152602081019050613de2565b50505050905090810190601f168015613e2a5780820380516001836020036101000a031916815260200191505b509250505060405180910390fd5b5060008385039050809150509392505050565b604051806080016040528060008152602001600073ffffffffffffffffffffffffffffffffffffffff16815260200160008152602001600081525090565b6040518061020001604052806000815260200160608152602001600073ffffffffffffffffffffffffffffffffffffffff1681526020016000815260200160008152602001613ed6613fba565b815260200160001515815260200160001515815260200160001515815260200160001515815260200160001515815260200160608152602001600073ffffffffffffffffffffffffffffffffffffffff1681525090565b828054600181600116156101000203166002900490600052602060002090601f016020900481019282601f10613f6e57805160ff1916838001178555613f9c565b82800160010185558215613f9c579182015b82811115613f9b578251825591602001919060010190613f80565b5b509050613fa99190613ff8565b5090565b610d3b8061401e83390190565b604051806080016040528060008152602001600073ffffffffffffffffffffffffffffffffffffffff16815260200160008152602001600081525090565b61401a91905b80821115614016576000816000905550600101613ffe565b5090565b9056fe608060405234801561001057600080fd5b5060405160c080610d3b833981018060405260c081101561003057600080fd5b81019080805190602001909291908051906020019092919080519060200190929190805190602001909291908051906020019092919080519060200190929190505050336000806101000a81548173ffffffffffffffffffffffffffffffffffffffff021916908373ffffffffffffffffffffffffffffffffffffffff16021790555060018060008060009054906101000a900473ffffffffffffffffffffffffffffffffffffffff1673ffffffffffffffffffffffffffffffffffffffff1673ffffffffffffffffffffffffffffffffffffffff16815260200190815260200160002060006101000a81548160ff021916908315150217905550856000806101000a81548173ffffffffffffffffffffffffffffffffffffffff021916908373ffffffffffffffffffffffffffffffffffffffff16021790555084600560006101000a81548173ffffffffffffffffffffffffffffffffffffffff021916908373ffffffffffffffffffffffffffffffffffffffff16021790555083600660006101000a81548173ffffffffffffffffffffffffffffffffffffffff021916908373ffffffffffffffffffffffffffffffffffffffff160217905550826002819055508160038190555080600481905550505050505050610b24806102176000396000f3fe6080604052600436106100555760003560e01c80632042e5c214610057578063686e8aaa146100a85780638da5cb5b146100b2578063a455449014610109578063a6f9dae114610113578063e7cd4a0414610164575b005b34801561006357600080fd5b506100a66004803603602081101561007a57600080fd5b81019080803573ffffffffffffffffffffffffffffffffffffffff1690602001909291905050506101b5565b005b6100b06102d4565b005b3480156100be57600080fd5b506100c7610405565b604051808273ffffffffffffffffffffffffffffffffffffffff1673ffffffffffffffffffffffffffffffffffffffff16815260200191505060405180910390f35b61011161042a565b005b34801561011f57600080fd5b506101626004803603602081101561013657600080fd5b81019080803573ffffffffffffffffffffffffffffffffffffffff169060200190929190505050610570565b005b34801561017057600080fd5b506101b36004803603602081101561018757600080fd5b81019080803573ffffffffffffffffffffffffffffffffffffffff169060200190929190505050610719565b005b336000809054906101000a900473ffffffffffffffffffffffffffffffffffffffff1673ffffffffffffffffffffffffffffffffffffffff168173ffffffffffffffffffffffffffffffffffffffff1614610278576040517f08c379a00000000000000000000000000000000000000000000000000000000081526004018080602001828103825260118152602001807f5065726d697373696f6e2064656e69656400000000000000000000000000000081525060200191505060405180910390fd5b6000600160008473ffffffffffffffffffffffffffffffffffffffff1673ffffffffffffffffffffffffffffffffffffffff16815260200190815260200160002060006101000a81548160ff0219169083151502179055505050565b6000610300620151806102f26002544261083790919063ffffffff16565b61088190919063ffffffff16565b905060006103306201518061032260025460035461083790919063ffffffff16565b61088190919063ffffffff16565b9050600080821461037c5761037782610369853073ffffffffffffffffffffffffffffffffffffffff16316108cb90919063ffffffff16565b61088190919063ffffffff16565b610395565b3073ffffffffffffffffffffffffffffffffffffffff16315b9050600660009054906101000a900473ffffffffffffffffffffffffffffffffffffffff1673ffffffffffffffffffffffffffffffffffffffff166108fc829081150290604051600060405180830381858888f193505050501580156103ff573d6000803e3d6000fd5b50505050565b6000809054906101000a900473ffffffffffffffffffffffffffffffffffffffff1681565b336000809054906101000a900473ffffffffffffffffffffffffffffffffffffffff1673ffffffffffffffffffffffffffffffffffffffff168173ffffffffffffffffffffffffffffffffffffffff16146104ed576040517f08c379a00000000000000000000000000000000000000000000000000000000081526004018080602001828103825260118152602001807f5065726d697373696f6e2064656e69656400000000000000000000000000000081525060200191505060405180910390fd5b600560009054906101000a900473ffffffffffffffffffffffffffffffffffffffff1673ffffffffffffffffffffffffffffffffffffffff166108fc3073ffffffffffffffffffffffffffffffffffffffff16319081150290604051600060405180830381858888f1935050505015801561056c573d6000803e3d6000fd5b5050565b336000809054906101000a900473ffffffffffffffffffffffffffffffffffffffff1673ffffffffffffffffffffffffffffffffffffffff168173ffffffffffffffffffffffffffffffffffffffff1614610633576040517f08c379a00000000000000000000000000000000000000000000000000000000081526004018080602001828103825260118152602001807f5065726d697373696f6e2064656e69656400000000000000000000000000000081525060200191505060405180910390fd5b8173ffffffffffffffffffffffffffffffffffffffff163373ffffffffffffffffffffffffffffffffffffffff1614156106d5576040517f08c379a00000000000000000000000000000000000000000000000000000000081526004018080602001828103825260128152602001807f4e6565642061206e65772061646472657373000000000000000000000000000081525060200191505060405180910390fd5b816000806101000a81548173ffffffffffffffffffffffffffffffffffffffff021916908373ffffffffffffffffffffffffffffffffffffffff1602179055505050565b336000809054906101000a900473ffffffffffffffffffffffffffffffffffffffff1673ffffffffffffffffffffffffffffffffffffffff168173ffffffffffffffffffffffffffffffffffffffff16146107dc576040517f08c379a00000000000000000000000000000000000000000000000000000000081526004018080602001828103825260118152602001807f5065726d697373696f6e2064656e69656400000000000000000000000000000081525060200191505060405180910390fd5b60018060008473ffffffffffffffffffffffffffffffffffffffff1673ffffffffffffffffffffffffffffffffffffffff16815260200190815260200160002060006101000a81548160ff0219169083151502179055505050565b600061087983836040518060400160405280601e81526020017f536166654d6174683a207375627472616374696f6e206f766572666c6f770000815250610951565b905092915050565b60006108c383836040518060400160405280601a81526020017f536166654d6174683a206469766973696f6e206279207a65726f000000000000815250610a11565b905092915050565b6000808314156108de576000905061094b565b60008284029050828482816108ef57fe5b0414610946576040517f08c379a0000000000000000000000000000000000000000000000000000000008152600401808060200182810382526021815260200180610ad86021913960400191505060405180910390fd5b809150505b92915050565b60008383111582906109fe576040517f08c379a00000000000000000000000000000000000000000000000000000000081526004018080602001828103825283818151815260200191508051906020019080838360005b838110156109c35780820151818401526020810190506109a8565b50505050905090810190601f1680156109f05780820380516001836020036101000a031916815260200191505b509250505060405180910390fd5b5060008385039050809150509392505050565b60008083118290610abd576040517f08c379a00000000000000000000000000000000000000000000000000000000081526004018080602001828103825283818151815260200191508051906020019080838360005b83811015610a82578082015181840152602081019050610a67565b50505050905090810190601f168015610aaf5780820380516001836020036101000a031916815260200191505b509250505060405180910390fd5b506000838581610ac957fe5b04905080915050939250505056fe536166654d6174683a206d756c7469706c69636174696f6e206f766572666c6f77a165627a7a72305820d9b9af8bb56c694bf366ed82c5bbf881c9abbced49c6051b7668d2b319759769002970726f706f73616c20686173206265656e206f6e655469636b6574526566757365536166654d6174683a206d756c7469706c69636174696f6e206f766572666c6f77566f74655f4170706c7946756e645f4f6e655469636b657452656675736550726f706f73616c4e6f207065726d697373696f6e20746f20696e766f6b652074686520436f6e7472616374a165627a7a723058208041687de710293a3857818a86629e78b12c81e42158162f3afcda585b5626e70029",
  "source": "pragma solidity >=0.4.22 <0.6.0;\r\n\r\nimport \"./VoteApp.sol\";\r\nimport \"../Tap/Tap.sol\";\r\nimport \"../Interface/IDateTime.sol\";\r\n\r\ncontract Vote_ApplyFund is VoteApp{\r\n\r\n    bytes32 public constant Vote_ApplyFund_OneTicketRefuseProposal = keccak256(\"Vote_ApplyFund_OneTicketRefuseProposal\");\r\n    bytes32 public constant Vote_ApplyFund_oneTicketStopTap = keccak256(\"Vote_ApplyFund_oneTicketStopTap\");\r\n\r\n    /// @notice \r\n    Proposal[] private proposalQueue;\r\n\r\n    ///\r\n    uint256 maxProposalOneDay = 5;\r\n\r\n    mapping(bytes32=>uint256) counter;\r\n\r\n    /// @notice \r\n    struct Proposal{\r\n        uint256 index;//\r\n        string proposalName; //\r\n        address payable proposer; //\r\n        uint256 approveVotes; //\r\n        uint256 refuseVotes; //\r\n        STap sTap;\r\n        bool process; //\r\n        bool pass; //\r\n        bool abort;//\r\n        bool abandon;//true\r\n        bool oneTicketRefuse;//\r\n        mapping(address => enumVoteResult) voteDetails;\r\n        string detail; //\r\n        address payable address_tap; //\r\n    }\r\n\r\n    struct STap {\r\n        uint256 startTime; //\r\n        address payable recipient; //gas\r\n        uint256 value; //\r\n        uint256 timeConsuming; // 30\r\n    }\r\n\r\n    /// @notice \r\n    event OnApplyProposal(\r\n        uint256 index,\r\n        string proposalName,\r\n        address payable proposaler,\r\n        uint256 startTime,\r\n        address payable recipient,\r\n        uint256 value,\r\n        uint256 timeConsuming,\r\n        string detail\r\n    );\r\n\r\n    /// @param who \r\n    /// @param index \r\n    /// @param voteResult \r\n    /// @param shares \r\n    event OnVote(\r\n        address who,\r\n        uint256 index,\r\n        uint8 voteResult,\r\n        uint256 shares\r\n    );\r\n\r\n    /// @param index  , pass \r\n    event OnProcess(\r\n        uint256 index,\r\n        bool pass\r\n    );\r\n\r\n    /// @param index \r\n    event OnAbort(\r\n        uint256 index\r\n    );\r\n\r\n    /// @param index \r\n    event OnOneTicketRefuse(\r\n        uint256 index\r\n    );\r\n\r\n    /// @param index \r\n    event OnOneTicketStopTap(\r\n        uint256 index\r\n    );\r\n\r\n    constructor(AppManager _appManager) FutureDaoApp(_appManager) public{\r\n    }\r\n\r\n    modifier ownFdt() {\r\n        require(getFdtInGovern(msg.sender)>0, \"need has shares\");\r\n        _;\r\n    }\r\n\r\n    /////////////\r\n    /// \r\n    /////////////\r\n    //\r\n    function getProposalQueueLength() public view returns(uint256){\r\n        return proposalQueue.length;\r\n    }\r\n\r\n    ///\r\n    function getAmountOfProposalToday() public view returns(uint256){\r\n        bytes32 b32 = getTimeHash();\r\n        return counter[b32];\r\n    }\r\n\r\n    ///index()\r\n    function getProposalBaseInfoByIndex(uint256 _proposalIndex)\r\n    public\r\n    view\r\n    returns(string memory _proposalName,address _proposer,string memory _detail,address payable _address_tap)\r\n    {\r\n        uint256 queueIndex = proposalIndexToQueueIndex(_proposalIndex);\r\n        Proposal storage proposal = proposalQueue[queueIndex];\r\n        _proposalName = proposal.proposalName;\r\n        _proposer = proposal.proposer;\r\n        _detail = proposal.detail;\r\n        _address_tap = proposal.address_tap;\r\n    }\r\n\r\n    ///\r\n    function getProposalStateByIndex(uint256 _proposalIndex)\r\n    public\r\n    view\r\n    returns(uint256 _approveVotes,uint256 _refuseVotes,bool _process,bool _pass,bool _abort,bool _abandon,bool _oneTicketRefuse)\r\n    {\r\n        uint256 queueIndex = proposalIndexToQueueIndex(_proposalIndex);\r\n        Proposal storage proposal = proposalQueue[queueIndex];\r\n        _approveVotes = proposal.approveVotes;\r\n        _refuseVotes = proposal.refuseVotes;\r\n        _process = proposal.process;\r\n        _pass = proposal.pass;\r\n        _abort = proposal.abort;\r\n        _abandon = proposal.abandon;\r\n        _oneTicketRefuse = proposal.oneTicketRefuse;\r\n    }\r\n    //\r\n    function getProposalTapByIndex(uint256 _proposalIndex)\r\n    public\r\n    view\r\n    returns(uint256 _startTime,address payable _recipient,uint256 _value,uint256 _timeConsuming)\r\n    {\r\n        uint256 queueIndex = proposalIndexToQueueIndex(_proposalIndex);\r\n        Proposal storage proposal = proposalQueue[queueIndex];\r\n        _startTime = proposal.sTap.startTime;\r\n        _recipient = proposal.sTap.recipient;\r\n        _value = proposal.sTap.value;\r\n        _timeConsuming = proposal.sTap.timeConsuming;\r\n    }\r\n\r\n    /// @notice \r\n    /// @param _name _recipient _value _timeConsuming _detail \r\n    function applyProposal(\r\n        string memory _name,\r\n        address payable _recipient,\r\n        uint256 _value,\r\n        uint256 _timeConsuming,\r\n        string memory _detail\r\n    )\r\n    public\r\n    payable\r\n    ownFdt()\r\n    {\r\n        require(_recipient != address(0),\"_recipient cannot be null\");\r\n        require(_value >= 0,\"value need more than 0\");\r\n        require(_timeConsuming>=0,\"_timeConsuming cant less than 0\");\r\n        //gas\r\n        require(msg.value >= proposalFee + deposit, \"need proposalFee\");\r\n        //\r\n        bytes32 b32 = getTimeHash();\r\n        require(counter[b32] < maxProposalOneDay,\"Beyond the maxProposalOneDay\");\r\n\r\n        STap memory _sTap = STap({\r\n            startTime : now,\r\n            recipient : _recipient,\r\n            value : _value,\r\n            timeConsuming : _timeConsuming\r\n        });\r\n\r\n        Proposal memory proposal = Proposal({\r\n            index : proposalQueue.length + 1,\r\n            proposalName : _name,\r\n            proposer : msg.sender,\r\n            approveVotes : 0,\r\n            refuseVotes : 0,\r\n            sTap : _sTap,\r\n            process : false,\r\n            pass : false,\r\n            abort : false,\r\n            oneTicketRefuse : false,\r\n            abandon : false,\r\n            detail : _detail,\r\n            address_tap : address(0)\r\n        });\r\n\r\n        emit OnApplyProposal(\r\n            proposal.index,\r\n            proposal.proposalName,\r\n            proposal.proposer,\r\n            proposal.sTap.startTime,\r\n            proposal.sTap.recipient,\r\n            proposal.sTap.value,\r\n            proposal.sTap.timeConsuming,\r\n            proposal.detail\r\n        );\r\n        proposalQueue.push(proposal);\r\n        counter[b32] = counter[b32].add(1);\r\n    }\r\n\r\n    function vote(uint256 _proposalIndex,uint8 result,uint256 FdtAmount) public ownFdt() {\r\n        //\r\n        uint256 queueIndex = proposalIndexToQueueIndex(_proposalIndex);\r\n        Proposal storage proposal = proposalQueue[queueIndex];\r\n        //\r\n        require(now <= proposal.sTap.startTime + votingPeriodLength,\"time out\");\r\n        //\r\n        require(result == 1||result == 2,\"vote result must be less than 3\");\r\n        //\r\n        require(proposal.voteDetails[msg.sender] == enumVoteResult.waiver || proposal.voteDetails[msg.sender] == enumVoteResult(result),\"Votes have been cast\");\r\n        //\r\n        require(proposal.abort == false,\"proposal has been aborted\");\r\n        //\r\n        require(proposal.oneTicketRefuse == false,\"proposal has been oneTicketRefuse\");\r\n        //\r\n        enumVoteResult voteResult = enumVoteResult(result);\r\n        proposal.voteDetails[msg.sender] = voteResult;\r\n        if(voteResult == enumVoteResult.approve){\r\n            proposal.approveVotes = proposal.approveVotes + FdtAmount;\r\n        }\r\n        else{\r\n            proposal.refuseVotes = proposal.refuseVotes + FdtAmount;\r\n        }\r\n\r\n        bool r = IGovernShareManager(appManager.getGovernShareManager()).lock(\r\n            msg.sender,\r\n            proposal.index,\r\n            proposal.sTap.startTime + votingPeriodLength,\r\n            FdtAmount\r\n        );\r\n        require(r,\"lock error\");\r\n\r\n        emit OnVote(msg.sender,_proposalIndex,result,FdtAmount);\r\n    }\r\n\r\n    /// @notice \r\n    /// @param _proposalIndex \r\n    function abortProposal(uint256 _proposalIndex) public{\r\n        uint256 queueIndex = proposalIndexToQueueIndex(_proposalIndex);\r\n        Proposal storage proposal = proposalQueue[queueIndex];\r\n        //\r\n        require(proposal.proposer == msg.sender,\"sender should be proposer\");\r\n        //\r\n        require(now <= proposal.sTap.startTime + votingPeriodLength,\"time out\");\r\n        //\r\n        require(proposal.oneTicketRefuse == false,\"proposal has been oneTicketRefuse\");\r\n        //\r\n        require(proposal.abort == false,\"proposal has been aborted\");\r\n        proposal.abort = true;\r\n        emit OnAbort(_proposalIndex);\r\n        bytes32 b32 = getTimeHash(proposal.sTap.startTime);\r\n        counter[b32] = counter[b32].sub(1);\r\n        //\r\n        appManager.getTradeFundPool().transfer(proposalFee);\r\n        //\r\n        proposal.proposer.transfer(deposit);\r\n    }\r\n\r\n    /// @notice \r\n    /// @dev \r\n    /// @param _proposalIndex \r\n    function oneTicketRefuseProposal(uint256 _proposalIndex) public auth(Vote_ApplyFund_OneTicketRefuseProposal){\r\n        uint256 queueIndex = proposalIndexToQueueIndex(_proposalIndex);\r\n        Proposal storage proposal = proposalQueue[queueIndex];\r\n        //\r\n        require(proposal.abort == false,\"proposal has been aborted\");\r\n        //\r\n        require(proposal.oneTicketRefuse == false,\"proposal has been oneTicketRefuse\");\r\n        //\r\n        require(\r\n            now>proposal.sTap.startTime + votingPeriodLength && now < proposal.sTap.startTime + votingPeriodLength + publicityPeriodLength,\r\n            \"time out\"\r\n        );\r\n\r\n        //66%\r\n        uint256 totalFdt = getFdtTotalSupply();\r\n        uint256 ratio = proposal.approveVotes.mul(1000).div(totalFdt);\r\n        require(ratio<660,\"\");\r\n\r\n        proposal.oneTicketRefuse = true;\r\n        emit OnOneTicketRefuse(_proposalIndex);\r\n        bytes32 b32 = getTimeHash(proposal.sTap.startTime);\r\n        counter[b32] = counter[b32].sub(1);\r\n        //\r\n        appManager.getTradeFundPool().transfer(proposalFee);\r\n        //\r\n        proposal.proposer.transfer(deposit);\r\n    }\r\n\r\n    // /// @notice \r\n    // /// @dev \r\n    // /// @param _proposalIndex \r\n    // function oneTicketStopTap(uint256 _proposalIndex) public auth(Vote_ApplyFund_oneTicketStopTap){\r\n    //     uint256 queueIndex = proposalIndexToQueueIndex(_proposalIndex);\r\n    //     Proposal storage retrial_proposal = proposalQueue[queueIndex];\r\n    //     require(retrial_proposal.abandon == false,\"proposal has been abandon\");\r\n    //     Tap address_retrial_tap = Tap(retrial_proposal.address_tap);\r\n    //     address_retrial_tap.GetMoneyBackToFund();\r\n    //     retrial_proposal.abandon = true;\r\n    //     emit OnOneTicketStopTap(_proposalIndex);\r\n    // }\r\n\r\n    /// @notice \r\n    /// @param _proposalIndex \r\n    function process(uint256 _proposalIndex) public {\r\n        uint256 queueIndex = proposalIndexToQueueIndex(_proposalIndex);\r\n        Proposal storage proposal = proposalQueue[queueIndex];\r\n        // \r\n        require(now > proposal.sTap.startTime + votingPeriodLength && now < proposal.sTap.startTime + votingPeriodLength + publicityPeriodLength,\"it's within the expiry date\");\r\n        //\r\n        require(proposal.process == false,\"proposal has been process\");\r\n        //\r\n        require(proposal.abort == false,\"proposal has been aborted\");\r\n        //\r\n        require(proposal.oneTicketRefuse == false,\"proposal has been oneTicketRefuse\");\r\n        proposal.process = true;\r\n\r\n        //\r\n        if(proposal.approveVotes>proposal.refuseVotes){\r\n            proposal.pass = true;\r\n            if(proposal.sTap.value>0){\r\n                // \r\n                Tap tap = new Tap(address(this),appManager.getTradeFundPool(),proposal.sTap.recipient,now,(now.add(proposal.sTap.timeConsuming)).mul(1 days),proposal.sTap.value);\r\n                IGovernShareManager(appManager.getGovernShareManager()).sendEth(address(tap),proposal.sTap.value);\r\n                proposal.address_tap = address(tap);\r\n            }\r\n        }\r\n        emit OnProcess(_proposalIndex,proposal.pass);\r\n        bytes32 b32 = getTimeHash(proposal.sTap.startTime);\r\n        counter[b32] = counter[b32].sub(1);\r\n\r\n        //\r\n        msg.sender.transfer(proposalFee);\r\n        //\r\n        proposal.proposer.transfer(deposit);\r\n    }\r\n\r\n    function freeFdt(uint256[] memory _proposalIndexs) public {\r\n        for(uint256 i = 0;i<_proposalIndexs.length;i++){\r\n            uint256 _proposalIndex = _proposalIndexs[i];\r\n            require(_proposalIndex <= proposalQueue.length && _proposalIndex>0,\"proposal does not exist\");\r\n            Proposal storage proposal = proposalQueue[_proposalIndex];\r\n            // \r\n            require(proposal.process == true || proposal.abort == true || proposal.oneTicketRefuse == true,\"proposal need process\");\r\n            IGovernShareManager(appManager.getGovernShareManager()).free(msg.sender,_proposalIndex,proposal.sTap.startTime + votingPeriodLength);\r\n        }\r\n    }\r\n\r\n    function proposalIndexToQueueIndex(uint256 _proposalIndex) private view returns(uint256){\r\n        //\r\n        require(_proposalIndex <= proposalQueue.length && _proposalIndex>0,\"proposal does not exist\");\r\n        return _proposalIndex - 1;\r\n    }\r\n\r\n    function getTimeHash() private view returns(bytes32){\r\n        IDateTime dateTime = IDateTime(appManager.getDateTime());\r\n        uint16 year = dateTime.getYear(now);\r\n        uint8 month = dateTime.getMonth(now);\r\n        uint8 day = dateTime.getDay(now);\r\n        return keccak256(abi.encodePacked(year,month,day));\r\n    }\r\n\r\n    function getTimeHash(uint256 timestamp) private view returns(bytes32){\r\n        IDateTime dateTime = IDateTime(appManager.getDateTime());\r\n        uint16 year = dateTime.getYear(timestamp);\r\n        uint8 month = dateTime.getMonth(timestamp);\r\n        uint8 day = dateTime.getDay(timestamp);\r\n        return keccak256(abi.encodePacked(year,month,day));\r\n    }\r\n\r\n    function() external payable{\r\n    }\r\n}",
  "sourcePath": "D:/_______work/FD_Contract_ETH/fd/contracts/Vote/Vote_ApplyFund.sol",
  "compiler": {
    "name": "solc",
    "version": "0.5.8+commit.23d335f2.Emscripten.clang"
  },
  "schemaVersion": "3.0.11",
  "updatedAt": "2019-10-23T12:16:31.533Z",
  "devdoc": {
    "methods": {
      "abortProposal(uint256)": {
        "params": {
          "_proposalIndex": ""
        }
      },
      "applyProposal(string,address,uint256,uint256,string)": {
        "params": {
          "_name": "_recipient _value _timeConsuming _detail "
        }
      },
      "oneTicketRefuseProposal(uint256)": {
        "params": {
          "_proposalIndex": ""
        }
      },
      "process(uint256)": {
        "params": {
          "_proposalIndex": ""
        }
      }
    }
  },
  "userdoc": {
    "methods": {
      "getAmountOfProposalToday()": {
        "notice": ""
      },
      "getFdtInGovern(address)": {
        "notice": ""
      },
      "getFdtTotalSupply()": {
        "notice": ""
      },
      "getProposalBaseInfoByIndex(uint256)": {
        "notice": "index()"
      },
      "getProposalQueueLength()": {
        "notice": "//////////"
      },
      "getProposalStateByIndex(uint256)": {
        "notice": ""
      }
    }
  }
}