{
  "contractName": "Vote_Clearing",
  "abi": [
    {
      "constant": true,
      "inputs": [],
      "name": "assetAddress",
      "outputs": [
        {
          "name": "",
          "type": "address"
        }
      ],
      "payable": false,
      "stateMutability": "view",
      "type": "function"
    },
    {
      "constant": true,
      "inputs": [
        {
          "name": "approveVotes",
          "type": "uint256"
        },
        {
          "name": "refuseVotes",
          "type": "uint256"
        }
      ],
      "name": "canPass",
      "outputs": [
        {
          "name": "r",
          "type": "bool"
        },
        {
          "name": "_voteRatio_1000",
          "type": "uint256"
        },
        {
          "name": "_approveRatio_1000",
          "type": "uint256"
        }
      ],
      "payable": false,
      "stateMutability": "view",
      "type": "function"
    },
    {
      "constant": true,
      "inputs": [],
      "name": "approveRatio",
      "outputs": [
        {
          "name": "",
          "type": "uint256"
        }
      ],
      "payable": false,
      "stateMutability": "view",
      "type": "function"
    },
    {
      "constant": true,
      "inputs": [],
      "name": "voteRatio",
      "outputs": [
        {
          "name": "",
          "type": "uint256"
        }
      ],
      "payable": false,
      "stateMutability": "view",
      "type": "function"
    },
    {
      "constant": true,
      "inputs": [],
      "name": "tradeAddress",
      "outputs": [
        {
          "name": "",
          "type": "address"
        }
      ],
      "payable": false,
      "stateMutability": "view",
      "type": "function"
    },
    {
      "constant": true,
      "inputs": [],
      "name": "getAppManagerAddress",
      "outputs": [
        {
          "name": "",
          "type": "address"
        }
      ],
      "payable": false,
      "stateMutability": "view",
      "type": "function"
    },
    {
      "constant": true,
      "inputs": [
        {
          "name": "_addr",
          "type": "address"
        }
      ],
      "name": "getBalanceOf",
      "outputs": [
        {
          "name": "",
          "type": "uint256"
        }
      ],
      "payable": false,
      "stateMutability": "view",
      "type": "function"
    },
    {
      "constant": true,
      "inputs": [],
      "name": "cur_clearingProposal",
      "outputs": [
        {
          "name": "index",
          "type": "uint256"
        },
        {
          "name": "startTime",
          "type": "uint256"
        },
        {
          "name": "proposer",
          "type": "address"
        },
        {
          "name": "totalSharesAmount",
          "type": "uint256"
        },
        {
          "name": "address_clearingFundPool",
          "type": "address"
        },
        {
          "name": "pass",
          "type": "bool"
        },
        {
          "name": "process",
          "type": "bool"
        }
      ],
      "payable": false,
      "stateMutability": "view",
      "type": "function"
    },
    {
      "constant": true,
      "inputs": [],
      "name": "proposalFee",
      "outputs": [
        {
          "name": "",
          "type": "uint256"
        }
      ],
      "payable": false,
      "stateMutability": "view",
      "type": "function"
    },
    {
      "constant": true,
      "inputs": [],
      "name": "getTotalSupply",
      "outputs": [
        {
          "name": "",
          "type": "uint256"
        }
      ],
      "payable": false,
      "stateMutability": "view",
      "type": "function"
    },
    {
      "constant": true,
      "inputs": [],
      "name": "EMPTY_PARAM_HASH",
      "outputs": [
        {
          "name": "",
          "type": "bytes32"
        }
      ],
      "payable": false,
      "stateMutability": "view",
      "type": "function"
    },
    {
      "constant": true,
      "inputs": [],
      "name": "deposit",
      "outputs": [
        {
          "name": "",
          "type": "uint256"
        }
      ],
      "payable": false,
      "stateMutability": "view",
      "type": "function"
    },
    {
      "constant": true,
      "inputs": [],
      "name": "voteRatio_1000",
      "outputs": [
        {
          "name": "",
          "type": "uint256"
        }
      ],
      "payable": false,
      "stateMutability": "view",
      "type": "function"
    },
    {
      "constant": true,
      "inputs": [
        {
          "name": "_addr",
          "type": "address"
        }
      ],
      "name": "balance",
      "outputs": [
        {
          "name": "",
          "type": "uint256"
        }
      ],
      "payable": false,
      "stateMutability": "view",
      "type": "function"
    },
    {
      "constant": true,
      "inputs": [],
      "name": "approveRatio_1000",
      "outputs": [
        {
          "name": "",
          "type": "uint256"
        }
      ],
      "payable": false,
      "stateMutability": "view",
      "type": "function"
    },
    {
      "constant": true,
      "inputs": [],
      "name": "appManager",
      "outputs": [
        {
          "name": "",
          "type": "address"
        }
      ],
      "payable": false,
      "stateMutability": "view",
      "type": "function"
    },
    {
      "constant": true,
      "inputs": [],
      "name": "sharesAddress",
      "outputs": [
        {
          "name": "",
          "type": "address"
        }
      ],
      "payable": false,
      "stateMutability": "view",
      "type": "function"
    },
    {
      "inputs": [
        {
          "name": "_appManager",
          "type": "address"
        },
        {
          "name": "_sharesAddress",
          "type": "address"
        },
        {
          "name": "_tradeAddress",
          "type": "address"
        },
        {
          "name": "_voteRatio",
          "type": "uint256"
        },
        {
          "name": "_approveRatio",
          "type": "uint256"
        }
      ],
      "payable": false,
      "stateMutability": "nonpayable",
      "type": "constructor"
    },
    {
      "anonymous": false,
      "inputs": [
        {
          "indexed": false,
          "name": "index",
          "type": "uint256"
        },
        {
          "indexed": false,
          "name": "proposaler",
          "type": "address"
        },
        {
          "indexed": false,
          "name": "address_clearingFundPool",
          "type": "address"
        },
        {
          "indexed": false,
          "name": "startTime",
          "type": "uint256"
        }
      ],
      "name": "OnApplyClearingProposal",
      "type": "event"
    },
    {
      "anonymous": false,
      "inputs": [
        {
          "indexed": false,
          "name": "who",
          "type": "address"
        },
        {
          "indexed": false,
          "name": "index",
          "type": "uint256"
        },
        {
          "indexed": false,
          "name": "sharesAmount",
          "type": "uint256"
        }
      ],
      "name": "OnVoteClearingProposal",
      "type": "event"
    },
    {
      "anonymous": false,
      "inputs": [
        {
          "indexed": false,
          "name": "index",
          "type": "uint256"
        },
        {
          "indexed": false,
          "name": "pass",
          "type": "bool"
        }
      ],
      "name": "OnProcessClearingProposal",
      "type": "event"
    },
    {
      "constant": false,
      "inputs": [],
      "name": "applyClearingProposal",
      "outputs": [],
      "payable": true,
      "stateMutability": "payable",
      "type": "function"
    },
    {
      "constant": false,
      "inputs": [
        {
          "name": "_amount",
          "type": "uint256"
        }
      ],
      "name": "voteClearingProposal",
      "outputs": [],
      "payable": false,
      "stateMutability": "nonpayable",
      "type": "function"
    },
    {
      "constant": false,
      "inputs": [],
      "name": "processClearingProposal",
      "outputs": [],
      "payable": false,
      "stateMutability": "nonpayable",
      "type": "function"
    }
  ],
  "bytecode": "0x608060405261012c60025561021c6003556000600660006101000a81548173ffffffffffffffffffffffffffffffffffffffff021916908373ffffffffffffffffffffffffffffffffffffffff1602179055506000600755600060085534801561006857600080fd5b5060405160a080613278833981018060405260a081101561008857600080fd5b8101908080519060200190929190805190602001909291908051906020019092919080519060200190929190805190602001909291905050508484838383806000806101000a81548173ffffffffffffffffffffffffffffffffffffffff021916908373ffffffffffffffffffffffffffffffffffffffff1602179055505082600660006101000a81548173ffffffffffffffffffffffffffffffffffffffff021916908373ffffffffffffffffffffffffffffffffffffffff1602179055508160098190555080600a819055505050505082601260006101000a81548173ffffffffffffffffffffffffffffffffffffffff021916908373ffffffffffffffffffffffffffffffffffffffff16021790555050505050506130c9806101af6000396000f3fe60806040526004361061011f5760003560e01c8063aa79f71c116100a0578063d1acec1111610064578063d1acec111461050c578063e3d670d714610537578063e8105ef51461059c578063ebe86c13146105c7578063f33670aa1461061e5761011f565b8063aa79f71c146103ab578063c27cabb514610460578063c4e41b221461048b578063c513f66e146104b6578063d0e30db0146104e15761011f565b806343f7b98a116100e757806343f7b98a14610242578063452f783c1461026d57806349daca7a146102985780634c330077146102ef5780639b96eece146103465761011f565b8063094413f8146101245780631ba46cfd1461012e5780631d63a0dc146101855780633c74523e1461019c57806341f0375514610207575b600080fd5b61012c610675565b005b34801561013a57600080fd5b50610143610b39565b604051808273ffffffffffffffffffffffffffffffffffffffff1673ffffffffffffffffffffffffffffffffffffffff16815260200191505060405180910390f35b34801561019157600080fd5b5061019a610b5f565b005b3480156101a857600080fd5b506101df600480360360408110156101bf57600080fd5b8101908080359060200190929190803590602001909291905050506110e1565b6040518084151515158152602001838152602001828152602001935050505060405180910390f35b34801561021357600080fd5b506102406004803603602081101561022a57600080fd5b8101908080359060200190929190505050611183565b005b34801561024e57600080fd5b506102576115d6565b6040518082815260200191505060405180910390f35b34801561027957600080fd5b506102826115dc565b6040518082815260200191505060405180910390f35b3480156102a457600080fd5b506102ad6115e2565b604051808273ffffffffffffffffffffffffffffffffffffffff1673ffffffffffffffffffffffffffffffffffffffff16815260200191505060405180910390f35b3480156102fb57600080fd5b50610304611608565b604051808273ffffffffffffffffffffffffffffffffffffffff1673ffffffffffffffffffffffffffffffffffffffff16815260200191505060405180910390f35b34801561035257600080fd5b506103956004803603602081101561036957600080fd5b81019080803573ffffffffffffffffffffffffffffffffffffffff169060200190929190505050611631565b6040518082815260200191505060405180910390f35b3480156103b757600080fd5b506103c0611714565b604051808881526020018781526020018673ffffffffffffffffffffffffffffffffffffffff1673ffffffffffffffffffffffffffffffffffffffff1681526020018581526020018473ffffffffffffffffffffffffffffffffffffffff1673ffffffffffffffffffffffffffffffffffffffff168152602001831515151581526020018215151515815260200197505050505050505060405180910390f35b34801561046c57600080fd5b5061047561179e565b6040518082815260200191505060405180910390f35b34801561049757600080fd5b506104a06117a4565b6040518082815260200191505060405180910390f35b3480156104c257600080fd5b506104cb61184e565b6040518082815260200191505060405180910390f35b3480156104ed57600080fd5b506104f6611875565b6040518082815260200191505060405180910390f35b34801561051857600080fd5b5061052161187b565b6040518082815260200191505060405180910390f35b34801561054357600080fd5b506105866004803603602081101561055a57600080fd5b81019080803573ffffffffffffffffffffffffffffffffffffffff169060200190929190505050611881565b6040518082815260200191505060405180910390f35b3480156105a857600080fd5b506105b1611964565b6040518082815260200191505060405180910390f35b3480156105d357600080fd5b506105dc61196a565b604051808273ffffffffffffffffffffffffffffffffffffffff1673ffffffffffffffffffffffffffffffffffffffff16815260200191505060405180910390f35b34801561062a57600080fd5b5061063361198f565b604051808273ffffffffffffffffffffffffffffffffffffffff1673ffffffffffffffffffffffffffffffffffffffff16815260200191505060405180910390f35b600061068033611631565b116106f3576040517f08c379a000000000000000000000000000000000000000000000000000000000815260040180806020018281038252600f8152602001807f6e6565642068617320736861726573000000000000000000000000000000000081525060200191505060405180910390fd5b600073ffffffffffffffffffffffffffffffffffffffff16600b60030160009054906101000a900473ffffffffffffffffffffffffffffffffffffffff1673ffffffffffffffffffffffffffffffffffffffff16146107ba576040517f08c379a000000000000000000000000000000000000000000000000000000000815260040180806020018281038252601c8152602001807f4f6e6c79206f6e652070726f706f73616c20697320616c6c6f7765640000000081525060200191505060405180910390fd5b6107cb3330600454600554016119b5565b6000306000809054906101000a900473ffffffffffffffffffffffffffffffffffffffff1673ffffffffffffffffffffffffffffffffffffffff1663670ab5e96040518163ffffffff1660e01b815260040160206040518083038186803b15801561083557600080fd5b505afa158015610849573d6000803e3d6000fd5b505050506040513d602081101561085f57600080fd5b810190808051906020019092919050505060405161087c90611d68565b808373ffffffffffffffffffffffffffffffffffffffff1673ffffffffffffffffffffffffffffffffffffffff1681526020018273ffffffffffffffffffffffffffffffffffffffff1673ffffffffffffffffffffffffffffffffffffffff16815260200192505050604051809103906000f080158015610901573d6000803e3d6000fd5b5090506040518060e0016040528060118054905081526020014281526020013373ffffffffffffffffffffffffffffffffffffffff168152602001600081526020018273ffffffffffffffffffffffffffffffffffffffff16815260200160001515815260200160001515815250600b600082015181600001556020820151816002015560408201518160030160006101000a81548173ffffffffffffffffffffffffffffffffffffffff021916908373ffffffffffffffffffffffffffffffffffffffff1602179055506060820151816004015560808201518160050160006101000a81548173ffffffffffffffffffffffffffffffffffffffff021916908373ffffffffffffffffffffffffffffffffffffffff16021790555060a08201518160050160146101000a81548160ff02191690831515021790555060c08201518160050160156101000a81548160ff0219169083151502179055509050507f6cc1833e88837d24b28cfca01c8c5068f64f183607782a78a4693e506e10449c600b60000154600b60030160009054906101000a900473ffffffffffffffffffffffffffffffffffffffff1683600b60020154604051808581526020018473ffffffffffffffffffffffffffffffffffffffff1673ffffffffffffffffffffffffffffffffffffffff1681526020018373ffffffffffffffffffffffffffffffffffffffff1673ffffffffffffffffffffffffffffffffffffffff16815260200182815260200194505050505060405180910390a150565b600160009054906101000a900473ffffffffffffffffffffffffffffffffffffffff1681565b600254600b60020154014211610bdd576040517f08c379a000000000000000000000000000000000000000000000000000000000815260040180806020018281038252601b8152602001807f697427732077697468696e20746865206578706972792064617465000000000081525060200191505060405180910390fd5b60001515600b60050160159054906101000a900460ff16151514610c4c576040517f08c379a00000000000000000000000000000000000000000000000000000000081526004018080602001828103825260278152602001806130566027913960400191505060405180910390fd5b600080610c5f600b6004015460006110e1565b50915091508115610d73576001600b60050160146101000a81548160ff021916908315150217905550601260009054906101000a900473ffffffffffffffffffffffffffffffffffffffff1673ffffffffffffffffffffffffffffffffffffffff16634f25e2a3600b60050160009054906101000a900473ffffffffffffffffffffffffffffffffffffffff16836040518363ffffffff1660e01b8152600401808373ffffffffffffffffffffffffffffffffffffffff1673ffffffffffffffffffffffffffffffffffffffff16815260200182815260200192505050600060405180830381600087803b158015610d5657600080fd5b505af1158015610d6a573d6000803e3d6000fd5b50505050610d92565b6000600b60050160146101000a81548160ff0219169083151502179055505b6001600b60050160156101000a81548160ff0219169083151502179055506011600b9080600181540180825580915050906001820390600052602060002090600602016000909192909190915060008201548160000155600282015481600201556003820160009054906101000a900473ffffffffffffffffffffffffffffffffffffffff168160030160006101000a81548173ffffffffffffffffffffffffffffffffffffffff021916908373ffffffffffffffffffffffffffffffffffffffff160217905550600482015481600401556005820160009054906101000a900473ffffffffffffffffffffffffffffffffffffffff168160050160006101000a81548173ffffffffffffffffffffffffffffffffffffffff021916908373ffffffffffffffffffffffffffffffffffffffff1602179055506005820160149054906101000a900460ff168160050160146101000a81548160ff0219169083151502179055506005820160159054906101000a900460ff168160050160156101000a81548160ff0219169083151502179055505050507f088f923150a187251554ebec6f43f5fadc32406a6e85b04c648a7b7a078b8f09600b60000154600b60050160149054906101000a900460ff1660405180838152602001821515151581526020019250505060405180910390a16040518060e001604052806000815260200160008152602001600073ffffffffffffffffffffffffffffffffffffffff16815260200160008152602001600073ffffffffffffffffffffffffffffffffffffffff16815260200160001515815260200160001515815250600b600082015181600001556020820151816002015560408201518160030160006101000a81548173ffffffffffffffffffffffffffffffffffffffff021916908373ffffffffffffffffffffffffffffffffffffffff1602179055506060820151816004015560808201518160050160006101000a81548173ffffffffffffffffffffffffffffffffffffffff021916908373ffffffffffffffffffffffffffffffffffffffff16021790555060a08201518160050160146101000a81548160ff02191690831515021790555060c08201518160050160156101000a81548160ff0219169083151502179055509050505050565b6000806000806110fa8587611b4a90919063ffffffff16565b905061112a6111076117a4565b61111c6103e884611bd290919063ffffffff16565b611c5890919063ffffffff16565b9250611153816111456103e889611bd290919063ffffffff16565b611c5890919063ffffffff16565b9150600954600754101561116657600093505b600a54600854101561117757600093505b60019350509250925092565b600061118e33611631565b11611201576040517f08c379a000000000000000000000000000000000000000000000000000000000815260040180806020018281038252600f8152602001807f6e6565642068617320736861726573000000000000000000000000000000000081525060200191505060405180910390fd5b600254600b6002015401421115611280576040517f08c379a00000000000000000000000000000000000000000000000000000000081526004018080602001828103825260088152602001807f74696d65206f757400000000000000000000000000000000000000000000000081525060200191505060405180910390fd5b6000600660009054906101000a900473ffffffffffffffffffffffffffffffffffffffff1673ffffffffffffffffffffffffffffffffffffffff166323b872dd3330856040518463ffffffff1660e01b8152600401808473ffffffffffffffffffffffffffffffffffffffff1673ffffffffffffffffffffffffffffffffffffffff1681526020018373ffffffffffffffffffffffffffffffffffffffff1673ffffffffffffffffffffffffffffffffffffffff1681526020018281526020019350505050602060405180830381600087803b15801561135f57600080fd5b505af1158015611373573d6000803e3d6000fd5b505050506040513d602081101561138957600080fd5b810190808051906020019092919050505090508061140f576040517f08c379a00000000000000000000000000000000000000000000000000000000081526004018080602001828103825260128152602001807f7472616e7366657246726f6d206572726f72000000000000000000000000000081525060200191505060405180910390fd5b81600b60010160003373ffffffffffffffffffffffffffffffffffffffff1673ffffffffffffffffffffffffffffffffffffffff1681526020019081526020016000206000828254019250508190555081600b60040160008282540192505081905550600b60050160009054906101000a900473ffffffffffffffffffffffffffffffffffffffff1673ffffffffffffffffffffffffffffffffffffffff16636d705ebb33846040518363ffffffff1660e01b8152600401808373ffffffffffffffffffffffffffffffffffffffff1673ffffffffffffffffffffffffffffffffffffffff16815260200182815260200192505050602060405180830381600087803b15801561151e57600080fd5b505af1158015611532573d6000803e3d6000fd5b505050506040513d602081101561154857600080fd5b8101908080519060200190929190505050507fee256b1983e1701b3852bdc7ee6f3dcdd6d7556aadd194abb9ef9d0002dca29f33600b6000015484604051808473ffffffffffffffffffffffffffffffffffffffff1673ffffffffffffffffffffffffffffffffffffffff168152602001838152602001828152602001935050505060405180910390a15050565b60085481565b60075481565b601260009054906101000a900473ffffffffffffffffffffffffffffffffffffffff1681565b60008060009054906101000a900473ffffffffffffffffffffffffffffffffffffffff16905090565b6000600660009054906101000a900473ffffffffffffffffffffffffffffffffffffffff1673ffffffffffffffffffffffffffffffffffffffff166370a08231836040518263ffffffff1660e01b8152600401808273ffffffffffffffffffffffffffffffffffffffff1673ffffffffffffffffffffffffffffffffffffffff16815260200191505060206040518083038186803b1580156116d257600080fd5b505afa1580156116e6573d6000803e3d6000fd5b505050506040513d60208110156116fc57600080fd5b81019080805190602001909291905050509050919050565b600b8060000154908060020154908060030160009054906101000a900473ffffffffffffffffffffffffffffffffffffffff16908060040154908060050160009054906101000a900473ffffffffffffffffffffffffffffffffffffffff16908060050160149054906101000a900460ff16908060050160159054906101000a900460ff16905087565b60055481565b6000600660009054906101000a900473ffffffffffffffffffffffffffffffffffffffff1673ffffffffffffffffffffffffffffffffffffffff166318160ddd6040518163ffffffff1660e01b815260040160206040518083038186803b15801561180e57600080fd5b505afa158015611822573d6000803e3d6000fd5b505050506040513d602081101561183857600080fd5b8101908080519060200190929190505050905090565b7f290decd9548b62a8d60345a988386fc84ba6bc95484008f6362f93160ef3e56360001b81565b60045481565b60095481565b6000600160009054906101000a900473ffffffffffffffffffffffffffffffffffffffff1673ffffffffffffffffffffffffffffffffffffffff166370a08231836040518263ffffffff1660e01b8152600401808273ffffffffffffffffffffffffffffffffffffffff1673ffffffffffffffffffffffffffffffffffffffff16815260200191505060206040518083038186803b15801561192257600080fd5b505afa158015611936573d6000803e3d6000fd5b505050506040513d602081101561194c57600080fd5b81019080805190602001909291905050509050919050565b600a5481565b6000809054906101000a900473ffffffffffffffffffffffffffffffffffffffff1681565b600660009054906101000a900473ffffffffffffffffffffffffffffffffffffffff1681565b6000600160009054906101000a900473ffffffffffffffffffffffffffffffffffffffff1673ffffffffffffffffffffffffffffffffffffffff166323b872dd8585856040518463ffffffff1660e01b8152600401808473ffffffffffffffffffffffffffffffffffffffff1673ffffffffffffffffffffffffffffffffffffffff1681526020018373ffffffffffffffffffffffffffffffffffffffff1673ffffffffffffffffffffffffffffffffffffffff1681526020018281526020019350505050602060405180830381600087803b158015611a9457600080fd5b505af1158015611aa8573d6000803e3d6000fd5b505050506040513d6020811015611abe57600080fd5b8101908080519060200190929190505050905080611b44576040517f08c379a00000000000000000000000000000000000000000000000000000000081526004018080602001828103825260188152602001807f6173736574207472616e7366657246726f6d206572726f72000000000000000081525060200191505060405180910390fd5b50505050565b600080828401905083811015611bc8576040517f08c379a000000000000000000000000000000000000000000000000000000000815260040180806020018281038252601b8152602001807f536166654d6174683a206164646974696f6e206f766572666c6f77000000000081525060200191505060405180910390fd5b8091505092915050565b600080831415611be55760009050611c52565b6000828402905082848281611bf657fe5b0414611c4d576040517f08c379a000000000000000000000000000000000000000000000000000000000815260040180806020018281038252602181526020018061307d6021913960400191505060405180910390fd5b809150505b92915050565b6000611c9a83836040518060400160405280601a81526020017f536166654d6174683a206469766973696f6e206279207a65726f000000000000815250611ca2565b905092915050565b60008083118290611d4e576040517f08c379a00000000000000000000000000000000000000000000000000000000081526004018080602001828103825283818151815260200191508051906020019080838360005b83811015611d13578082015181840152602081019050611cf8565b50505050905090810190601f168015611d405780820380516001836020036101000a031916815260200191505b509250505060405180910390fd5b506000838581611d5a57fe5b049050809150509392505050565b6112e080611d768339019056fe60806040526000600360006101000a81548160ff0219169083600281111561002357fe5b021790555034801561003457600080fd5b506040516040806112e08339810180604052604081101561005457600080fd5b810190808051906020019092919080519060200190929190505050336000806101000a81548173ffffffffffffffffffffffffffffffffffffffff021916908373ffffffffffffffffffffffffffffffffffffffff16021790555060018060008060009054906101000a900473ffffffffffffffffffffffffffffffffffffffff1673ffffffffffffffffffffffffffffffffffffffff1673ffffffffffffffffffffffffffffffffffffffff16815260200190815260200160002060006101000a81548160ff02191690831515021790555081600660006101000a81548173ffffffffffffffffffffffffffffffffffffffff021916908373ffffffffffffffffffffffffffffffffffffffff16021790555080600560006101000a81548173ffffffffffffffffffffffffffffffffffffffff021916908373ffffffffffffffffffffffffffffffffffffffff1602179055505050611126806101ba6000396000f3fe6080604052600436106100905760003560e01c80636d705ebb116100595780636d705ebb146101ef5780638da5cb5b14610262578063a6f9dae1146102b9578063e7cd4a041461030a578063f79dc1281461035b57610090565b80628dca6a146100925780631ba46cfd146100cb5780632042e5c2146101225780633a98ef39146101735780633d0a40611461019e575b005b34801561009e57600080fd5b506100a76103cb565b604051808260028111156100b757fe5b60ff16815260200191505060405180910390f35b3480156100d757600080fd5b506100e06103de565b604051808273ffffffffffffffffffffffffffffffffffffffff1673ffffffffffffffffffffffffffffffffffffffff16815260200191505060405180910390f35b34801561012e57600080fd5b506101716004803603602081101561014557600080fd5b81019080803573ffffffffffffffffffffffffffffffffffffffff169060200190929190505050610404565b005b34801561017f57600080fd5b50610188610523565b6040518082815260200191505060405180910390f35b3480156101aa57600080fd5b506101ed600480360360208110156101c157600080fd5b81019080803573ffffffffffffffffffffffffffffffffffffffff169060200190929190505050610529565b005b3480156101fb57600080fd5b506102486004803603604081101561021257600080fd5b81019080803573ffffffffffffffffffffffffffffffffffffffff169060200190929190803590602001909291905050506109eb565b604051808215151515815260200191505060405180910390f35b34801561026e57600080fd5b50610277610b1b565b604051808273ffffffffffffffffffffffffffffffffffffffff1673ffffffffffffffffffffffffffffffffffffffff16815260200191505060405180910390f35b3480156102c557600080fd5b50610308600480360360208110156102dc57600080fd5b81019080803573ffffffffffffffffffffffffffffffffffffffff169060200190929190505050610b41565b005b34801561031657600080fd5b506103596004803603602081101561032d57600080fd5b81019080803573ffffffffffffffffffffffffffffffffffffffff169060200190929190505050610cea565b005b34801561036757600080fd5b506103aa6004803603602081101561037e57600080fd5b81019080803573ffffffffffffffffffffffffffffffffffffffff169060200190929190505050610e08565b60405180838152602001821515151581526020019250505060405180910390f35b600360009054906101000a900460ff1681565b600560009054906101000a900473ffffffffffffffffffffffffffffffffffffffff1681565b336000809054906101000a900473ffffffffffffffffffffffffffffffffffffffff1673ffffffffffffffffffffffffffffffffffffffff168173ffffffffffffffffffffffffffffffffffffffff16146104c7576040517f08c379a00000000000000000000000000000000000000000000000000000000081526004018080602001828103825260118152602001807f5065726d697373696f6e2064656e69656400000000000000000000000000000081525060200191505060405180910390fd5b6000600160008473ffffffffffffffffffffffffffffffffffffffff1673ffffffffffffffffffffffffffffffffffffffff16815260200190815260200160002060006101000a81548160ff0219169083151502179055505050565b60045481565b6001600281111561053657fe5b600360009054906101000a900460ff16600281111561055157fe5b146105c4576040517f08c379a00000000000000000000000000000000000000000000000000000000081526004018080602001828103825260178152602001807f636c656172696e67526573756c742069732077726f6e6700000000000000000081525060200191505060405180910390fd5b60001515600260008373ffffffffffffffffffffffffffffffffffffffff1673ffffffffffffffffffffffffffffffffffffffff16815260200190815260200160002060010160009054906101000a900460ff1615151461068d576040517f08c379a00000000000000000000000000000000000000000000000000000000081526004018080602001828103825260148152602001807f4e6f2072657065617420636f6c6c656374696f6e00000000000000000000000081525060200191505060405180910390fd5b60006107d16004546107c3600560009054906101000a900473ffffffffffffffffffffffffffffffffffffffff1673ffffffffffffffffffffffffffffffffffffffff166370a08231306040518263ffffffff1660e01b8152600401808273ffffffffffffffffffffffffffffffffffffffff1673ffffffffffffffffffffffffffffffffffffffff16815260200191505060206040518083038186803b15801561073757600080fd5b505afa15801561074b573d6000803e3d6000fd5b505050506040513d602081101561076157600080fd5b8101908080519060200190929190505050600260008773ffffffffffffffffffffffffffffffffffffffff1673ffffffffffffffffffffffffffffffffffffffff16815260200190815260200160002060000154610e3990919063ffffffff16565b610ebf90919063ffffffff16565b90506000600560009054906101000a900473ffffffffffffffffffffffffffffffffffffffff1673ffffffffffffffffffffffffffffffffffffffff1663a9059cbb84846040518363ffffffff1660e01b8152600401808373ffffffffffffffffffffffffffffffffffffffff1673ffffffffffffffffffffffffffffffffffffffff16815260200182815260200192505050602060405180830381600087803b15801561087e57600080fd5b505af1158015610892573d6000803e3d6000fd5b505050506040513d60208110156108a857600080fd5b810190808051906020019092919050505090508061092e576040517f08c379a00000000000000000000000000000000000000000000000000000000081526004018080602001828103825260058152602001807f6572726f7200000000000000000000000000000000000000000000000000000081525060200191505060405180910390fd5b6001600260008573ffffffffffffffffffffffffffffffffffffffff1673ffffffffffffffffffffffffffffffffffffffff16815260200190815260200160002060010160006101000a81548160ff0219169083151502179055506109e0600260008573ffffffffffffffffffffffffffffffffffffffff1673ffffffffffffffffffffffffffffffffffffffff16815260200190815260200160002060000154600454610f0990919063ffffffff16565b600481905550505050565b6000336000809054906101000a900473ffffffffffffffffffffffffffffffffffffffff1673ffffffffffffffffffffffffffffffffffffffff168173ffffffffffffffffffffffffffffffffffffffff1614610ab0576040517f08c379a00000000000000000000000000000000000000000000000000000000081526004018080602001828103825260118152602001807f5065726d697373696f6e2064656e69656400000000000000000000000000000081525060200191505060405180910390fd5b82600260008673ffffffffffffffffffffffffffffffffffffffff1673ffffffffffffffffffffffffffffffffffffffff1681526020019081526020016000206000016000828254019250508190555082600460008282540192505081905550600191505092915050565b600660009054906101000a900473ffffffffffffffffffffffffffffffffffffffff1681565b336000809054906101000a900473ffffffffffffffffffffffffffffffffffffffff1673ffffffffffffffffffffffffffffffffffffffff168173ffffffffffffffffffffffffffffffffffffffff1614610c04576040517f08c379a00000000000000000000000000000000000000000000000000000000081526004018080602001828103825260118152602001807f5065726d697373696f6e2064656e69656400000000000000000000000000000081525060200191505060405180910390fd5b8173ffffffffffffffffffffffffffffffffffffffff163373ffffffffffffffffffffffffffffffffffffffff161415610ca6576040517f08c379a00000000000000000000000000000000000000000000000000000000081526004018080602001828103825260128152602001807f4e6565642061206e65772061646472657373000000000000000000000000000081525060200191505060405180910390fd5b816000806101000a81548173ffffffffffffffffffffffffffffffffffffffff021916908373ffffffffffffffffffffffffffffffffffffffff1602179055505050565b336000809054906101000a900473ffffffffffffffffffffffffffffffffffffffff1673ffffffffffffffffffffffffffffffffffffffff168173ffffffffffffffffffffffffffffffffffffffff1614610dad576040517f08c379a00000000000000000000000000000000000000000000000000000000081526004018080602001828103825260118152602001807f5065726d697373696f6e2064656e69656400000000000000000000000000000081525060200191505060405180910390fd5b60018060008473ffffffffffffffffffffffffffffffffffffffff1673ffffffffffffffffffffffffffffffffffffffff16815260200190815260200160002060006101000a81548160ff0219169083151502179055505050565b60026020528060005260406000206000915090508060000154908060010160009054906101000a900460ff16905082565b600080831415610e4c5760009050610eb9565b6000828402905082848281610e5d57fe5b0414610eb4576040517f08c379a00000000000000000000000000000000000000000000000000000000081526004018080602001828103825260218152602001806110da6021913960400191505060405180910390fd5b809150505b92915050565b6000610f0183836040518060400160405280601a81526020017f536166654d6174683a206469766973696f6e206279207a65726f000000000000815250610f53565b905092915050565b6000610f4b83836040518060400160405280601e81526020017f536166654d6174683a207375627472616374696f6e206f766572666c6f770000815250611019565b905092915050565b60008083118290610fff576040517f08c379a00000000000000000000000000000000000000000000000000000000081526004018080602001828103825283818151815260200191508051906020019080838360005b83811015610fc4578082015181840152602081019050610fa9565b50505050905090810190601f168015610ff15780820380516001836020036101000a031916815260200191505b509250505060405180910390fd5b50600083858161100b57fe5b049050809150509392505050565b60008383111582906110c6576040517f08c379a00000000000000000000000000000000000000000000000000000000081526004018080602001828103825283818151815260200191508051906020019080838360005b8381101561108b578082015181840152602081019050611070565b50505050905090810190601f1680156110b85780820380516001836020036101000a031916815260200191505b509250505060405180910390fd5b506000838503905080915050939250505056fe536166654d6174683a206d756c7469706c69636174696f6e206f766572666c6f77a165627a7a72305820adf725f5b044215e09bb42164db1e49a6a923b322dae02c096672e77c12d773a00296e656564732070726f706f73616c732068617665206e6f74206265656e20616464726573736564536166654d6174683a206d756c7469706c69636174696f6e206f766572666c6f77a165627a7a72305820183c869e00925ab2f19fe910ad3c6bf76288d99d0acc00cb82143fd4bf1def340029",
  "source": "pragma solidity >=0.4.22 <0.6.0;\r\n\r\nimport \"./VoteApp.sol\";\r\nimport \"../clearing/ClearingFundPool.sol\";\r\nimport \"../Interface/ITradeFundPool.sol\";\r\n\r\ncontract Vote_Clearing is VoteApp{\r\n\r\n    /// @notice   \r\n    ClearingProposal public cur_clearingProposal;\r\n\r\n    /// @notice \r\n    ClearingProposal[] clearingProposalQueue;\r\n\r\n    address public tradeAddress;\r\n\r\n    /// @notice \r\n    struct ClearingProposal{\r\n        uint256 index;\r\n        mapping(address => uint256) clearingList;//\r\n        uint256 startTime;//\r\n        address proposer;//\r\n        uint256 totalSharesAmount;//\r\n        address payable address_clearingFundPool;\r\n        bool pass; //\r\n        bool process; //\r\n    }\r\n\r\n    /// @notice \r\n    event OnApplyClearingProposal(\r\n        uint256 index,\r\n        address proposaler,\r\n        address payable address_clearingFundPool,\r\n        uint256 startTime\r\n    );\r\n\r\n    /// @param who \r\n    /// @param index \r\n    /// @param voteResult \r\n    /// @param sharesAmount \r\n    event OnVoteClearingProposal(\r\n        address who,\r\n        uint256 index,\r\n        uint256 sharesAmount\r\n    );\r\n\r\n    /// @param index  , pass \r\n    event OnProcessClearingProposal(\r\n        uint256 index,\r\n        bool pass\r\n    );\r\n\r\n    constructor(AppManager _appManager,address _sharesAddress,address _tradeAddress,uint256 _voteRatio,uint256 _approveRatio)\r\n    VoteApp(_appManager,_sharesAddress,_voteRatio,_approveRatio)\r\n    public\r\n    {\r\n        tradeAddress = _tradeAddress;\r\n    }\r\n\r\n    /// @notice \r\n    /// @dev \r\n    function applyClearingProposal() public payable ownShares(){\r\n        //\r\n        require(cur_clearingProposal.proposer == address(0),\"Only one proposal is allowed\");\r\n        //\r\n        transferF(msg.sender, address(this), proposalFee + deposit);\r\n\r\n        ClearingFundPool _clearingFundPool = new ClearingFundPool(address(this),appManager.getAssetAddress());\r\n\r\n        cur_clearingProposal = ClearingProposal({\r\n            index : clearingProposalQueue.length,\r\n            proposer : msg.sender,\r\n            totalSharesAmount : 0,\r\n            startTime : now,\r\n            pass : false,\r\n            process : false,\r\n            address_clearingFundPool : address(_clearingFundPool)\r\n        });\r\n\r\n        emit OnApplyClearingProposal(\r\n            cur_clearingProposal.index,\r\n            cur_clearingProposal.proposer,\r\n            address(_clearingFundPool),\r\n            cur_clearingProposal.startTime\r\n        );\r\n    }\r\n\r\n    /// @notice \r\n    function voteClearingProposal(uint256 _amount) public ownShares(){\r\n        //\r\n        require(now <= cur_clearingProposal.startTime + votingPeriodLength,\"time out\");\r\n        //\r\n        bool r = IERC20(sharesAddress).transferFrom(msg.sender,address(this),_amount);\r\n        require(r, \"transferFrom error\");\r\n\r\n        cur_clearingProposal.clearingList[msg.sender] += _amount;\r\n        cur_clearingProposal.totalSharesAmount += _amount;\r\n\r\n        ClearingFundPool(cur_clearingProposal.address_clearingFundPool).register(msg.sender,_amount);\r\n\r\n        emit OnVoteClearingProposal(msg.sender,cur_clearingProposal.index,_amount);\r\n    }\r\n\r\n    /// @notice \r\n    function processClearingProposal() public {\r\n        //\r\n        require(now > cur_clearingProposal.startTime + votingPeriodLength,\"it's within the expiry date\");\r\n        require(cur_clearingProposal.process == false,\"needs proposals have not been addressed\");\r\n        (bool r,uint256 voteRatio_1000,) = canPass(cur_clearingProposal.totalSharesAmount, 0);\r\n        if(r){\r\n            cur_clearingProposal.pass = true;\r\n            ITradeFundPool(tradeAddress).clearing(cur_clearingProposal.address_clearingFundPool,voteRatio_1000);\r\n        }\r\n        else{\r\n            cur_clearingProposal.pass = false;\r\n        }\r\n        //\r\n        cur_clearingProposal.process = true;\r\n        clearingProposalQueue.push(cur_clearingProposal);\r\n\r\n        //\r\n        emit OnProcessClearingProposal(\r\n            cur_clearingProposal.index,\r\n            cur_clearingProposal.pass\r\n        );\r\n\r\n        //\r\n        cur_clearingProposal = ClearingProposal({\r\n            index : 0,\r\n            proposer : address(0),\r\n            address_clearingFundPool : address(0),\r\n            totalSharesAmount : 0,\r\n            startTime : 0,\r\n            pass : false,\r\n            process : false\r\n        });\r\n    }\r\n}",
  "sourcePath": "D:/_______work/FD_Contract_ETH/fd/contracts/Vote/Vote_Clearing.sol",
  "compiler": {
    "name": "solc",
    "version": "0.5.8+commit.23d335f2.Emscripten.clang"
  },
  "schemaVersion": "3.0.11",
  "updatedAt": "2019-11-19T07:22:37.332Z",
  "devdoc": {
    "methods": {
      "applyClearingProposal()": {
        "details": ""
      }
    }
  },
  "userdoc": {
    "methods": {
      "getBalanceOf(address)": {
        "notice": ""
      },
      "getTotalSupply()": {
        "notice": ""
      },
      "processClearingProposal()": {
        "notice": ""
      },
      "voteClearingProposal(uint256)": {
        "notice": ""
      }
    }
  }
}