{
  "contractName": "Vote_ApplyFund",
  "abi": [
    {
      "constant": false,
      "inputs": [],
      "name": "getFdtTotalSupply",
      "outputs": [
        {
          "name": "",
          "type": "uint256"
        }
      ],
      "payable": false,
      "stateMutability": "nonpayable",
      "type": "function"
    },
    {
      "constant": true,
      "inputs": [],
      "name": "getAppManagerAddress",
      "outputs": [
        {
          "name": "",
          "type": "address"
        }
      ],
      "payable": false,
      "stateMutability": "view",
      "type": "function"
    },
    {
      "constant": false,
      "inputs": [
        {
          "name": "_addr",
          "type": "address"
        }
      ],
      "name": "getFdtInGovern",
      "outputs": [
        {
          "name": "",
          "type": "uint256"
        }
      ],
      "payable": false,
      "stateMutability": "nonpayable",
      "type": "function"
    },
    {
      "constant": true,
      "inputs": [],
      "name": "FundPool_PreMint",
      "outputs": [
        {
          "name": "",
          "type": "bytes32"
        }
      ],
      "payable": false,
      "stateMutability": "view",
      "type": "function"
    },
    {
      "constant": true,
      "inputs": [],
      "name": "proposalFee",
      "outputs": [
        {
          "name": "",
          "type": "uint256"
        }
      ],
      "payable": false,
      "stateMutability": "view",
      "type": "function"
    },
    {
      "constant": true,
      "inputs": [],
      "name": "EMPTY_PARAM_HASH",
      "outputs": [
        {
          "name": "",
          "type": "bytes32"
        }
      ],
      "payable": false,
      "stateMutability": "view",
      "type": "function"
    },
    {
      "constant": true,
      "inputs": [],
      "name": "Vote_ApplyFund_OneTicketRefuseProposal",
      "outputs": [
        {
          "name": "",
          "type": "bytes32"
        }
      ],
      "payable": false,
      "stateMutability": "view",
      "type": "function"
    },
    {
      "constant": true,
      "inputs": [],
      "name": "deposit",
      "outputs": [
        {
          "name": "",
          "type": "uint256"
        }
      ],
      "payable": false,
      "stateMutability": "view",
      "type": "function"
    },
    {
      "constant": true,
      "inputs": [],
      "name": "appManager",
      "outputs": [
        {
          "name": "",
          "type": "address"
        }
      ],
      "payable": false,
      "stateMutability": "view",
      "type": "function"
    },
    {
      "inputs": [
        {
          "name": "_appManager",
          "type": "address"
        }
      ],
      "payable": false,
      "stateMutability": "nonpayable",
      "type": "constructor"
    },
    {
      "payable": true,
      "stateMutability": "payable",
      "type": "fallback"
    },
    {
      "anonymous": false,
      "inputs": [
        {
          "indexed": false,
          "name": "index",
          "type": "uint256"
        },
        {
          "indexed": false,
          "name": "proposalName",
          "type": "string"
        },
        {
          "indexed": false,
          "name": "proposaler",
          "type": "address"
        },
        {
          "indexed": false,
          "name": "startTime",
          "type": "uint256"
        },
        {
          "indexed": false,
          "name": "recipient",
          "type": "address"
        },
        {
          "indexed": false,
          "name": "value",
          "type": "uint256"
        },
        {
          "indexed": false,
          "name": "timeConsuming",
          "type": "uint256"
        },
        {
          "indexed": false,
          "name": "detail",
          "type": "string"
        },
        {
          "indexed": false,
          "name": "retrialIndex",
          "type": "uint256"
        }
      ],
      "name": "OnApplyProposal",
      "type": "event"
    },
    {
      "anonymous": false,
      "inputs": [
        {
          "indexed": false,
          "name": "who",
          "type": "address"
        },
        {
          "indexed": false,
          "name": "index",
          "type": "uint256"
        },
        {
          "indexed": false,
          "name": "voteResult",
          "type": "uint8"
        },
        {
          "indexed": false,
          "name": "shares",
          "type": "uint256"
        }
      ],
      "name": "OnVote",
      "type": "event"
    },
    {
      "anonymous": false,
      "inputs": [
        {
          "indexed": false,
          "name": "index",
          "type": "uint256"
        },
        {
          "indexed": false,
          "name": "pass",
          "type": "bool"
        }
      ],
      "name": "OnProcess",
      "type": "event"
    },
    {
      "anonymous": false,
      "inputs": [
        {
          "indexed": false,
          "name": "index",
          "type": "uint256"
        }
      ],
      "name": "OnAbort",
      "type": "event"
    },
    {
      "anonymous": false,
      "inputs": [
        {
          "indexed": false,
          "name": "index",
          "type": "uint256"
        }
      ],
      "name": "OnOneTicketRefuse",
      "type": "event"
    },
    {
      "constant": false,
      "inputs": [
        {
          "name": "_name",
          "type": "string"
        },
        {
          "name": "_recipient",
          "type": "address"
        },
        {
          "name": "_value",
          "type": "uint256"
        },
        {
          "name": "_timeConsuming",
          "type": "uint256"
        },
        {
          "name": "_detail",
          "type": "string"
        },
        {
          "name": "_retrialIndex",
          "type": "uint256"
        }
      ],
      "name": "applyProposal",
      "outputs": [],
      "payable": true,
      "stateMutability": "payable",
      "type": "function"
    },
    {
      "constant": false,
      "inputs": [
        {
          "name": "proposalIndex",
          "type": "uint256"
        },
        {
          "name": "result",
          "type": "uint8"
        },
        {
          "name": "FdtAmount",
          "type": "uint256"
        }
      ],
      "name": "vote",
      "outputs": [],
      "payable": false,
      "stateMutability": "nonpayable",
      "type": "function"
    },
    {
      "constant": false,
      "inputs": [
        {
          "name": "proposalIndex",
          "type": "uint256"
        }
      ],
      "name": "abortProposal",
      "outputs": [],
      "payable": false,
      "stateMutability": "nonpayable",
      "type": "function"
    },
    {
      "constant": false,
      "inputs": [
        {
          "name": "proposalIndex",
          "type": "uint256"
        }
      ],
      "name": "oneTicketRefuseProposal",
      "outputs": [],
      "payable": false,
      "stateMutability": "nonpayable",
      "type": "function"
    },
    {
      "constant": false,
      "inputs": [
        {
          "name": "proposalIndex",
          "type": "uint256"
        }
      ],
      "name": "process",
      "outputs": [],
      "payable": false,
      "stateMutability": "nonpayable",
      "type": "function"
    }
  ],
  "bytecode": "0x608060405262093a8060015567016345785d8a000060025567016345785d8a000060035534801561002f57600080fd5b506040516020806138808339810180604052602081101561004f57600080fd5b8101908080519060200190929190505050806000806101000a81548173ffffffffffffffffffffffffffffffffffffffff021916908373ffffffffffffffffffffffffffffffffffffffff160217905550506137d0806100b06000396000f3fe6080604052600436106100dd5760003560e01c8063c513f66e1161007f578063d0e30db011610059578063d0e30db014610478578063e520251a146104a3578063ebe86c13146104f5578063ffb2c4791461054c576100dd565b8063c513f66e146103e7578063ca9c846c14610412578063cfab3acc1461043d576100dd565b8063578f6a62116100bb578063578f6a621461019c578063b710ffc014610201578063b81ec5011461022c578063c27cabb5146103bc576100dd565b806308731cfe146100df5780630a81e7021461010a5780634c33007714610145575b005b3480156100eb57600080fd5b506100f4610587565b6040518082815260200191505060405180910390f35b34801561011657600080fd5b506101436004803603602081101561012d57600080fd5b81019080803590602001909291905050506106b2565b005b34801561015157600080fd5b5061015a610a4b565b604051808273ffffffffffffffffffffffffffffffffffffffff1673ffffffffffffffffffffffffffffffffffffffff16815260200191505060405180910390f35b3480156101a857600080fd5b506101eb600480360360208110156101bf57600080fd5b81019080803573ffffffffffffffffffffffffffffffffffffffff169060200190929190505050610a74565b6040518082815260200191505060405180910390f35b34801561020d57600080fd5b50610216610bd8565b6040518082815260200191505060405180910390f35b6103ba600480360360c081101561024257600080fd5b810190808035906020019064010000000081111561025f57600080fd5b82018360208201111561027157600080fd5b8035906020019184600183028401116401000000008311171561029357600080fd5b91908080601f016020809104026020016040519081016040528093929190818152602001838380828437600081840152601f19601f820116905080830192505050505050509192919290803573ffffffffffffffffffffffffffffffffffffffff16906020019092919080359060200190929190803590602001909291908035906020019064010000000081111561032a57600080fd5b82018360208201111561033c57600080fd5b8035906020019184600183028401116401000000008311171561035e57600080fd5b91908080601f016020809104026020016040519081016040528093929190818152602001838380828437600081840152601f19601f82011690508083019250505050505050919291929080359060200190929190505050610c11565b005b3480156103c857600080fd5b506103d1611416565b6040518082815260200191505060405180910390f35b3480156103f357600080fd5b506103fc61141c565b6040518082815260200191505060405180910390f35b34801561041e57600080fd5b50610427611443565b6040518082815260200191505060405180910390f35b34801561044957600080fd5b506104766004803603602081101561046057600080fd5b810190808035906020019092919050505061145f565b005b34801561048457600080fd5b5061048d61178f565b6040518082815260200191505060405180910390f35b3480156104af57600080fd5b506104f3600480360360608110156104c657600080fd5b8101908080359060200190929190803560ff16906020019092919080359060200190929190505050611795565b005b34801561050157600080fd5b5061050a611ecf565b604051808273ffffffffffffffffffffffffffffffffffffffff1673ffffffffffffffffffffffffffffffffffffffff16815260200191505060405180910390f35b34801561055857600080fd5b506105856004803603602081101561056f57600080fd5b8101908080359060200190929190505050611ef4565b005b60008060009054906101000a900473ffffffffffffffffffffffffffffffffffffffff1673ffffffffffffffffffffffffffffffffffffffff1663bf7b00eb6040518163ffffffff1660e01b815260040160206040518083038186803b1580156105f057600080fd5b505afa158015610604573d6000803e3d6000fd5b505050506040513d602081101561061a57600080fd5b810190808051906020019092919050505073ffffffffffffffffffffffffffffffffffffffff166308731cfe6040518163ffffffff1660e01b8152600401602060405180830381600087803b15801561067257600080fd5b505af1158015610686573d6000803e3d6000fd5b505050506040513d602081101561069c57600080fd5b8101908080519060200190929190505050905090565b604051808061375b60269139602601905060405180910390206000809054906101000a900473ffffffffffffffffffffffffffffffffffffffff1673ffffffffffffffffffffffffffffffffffffffff16634c5f07493330847f290decd9548b62a8d60345a988386fc84ba6bc95484008f6362f93160ef3e56360001b6040518563ffffffff1660e01b8152600401808573ffffffffffffffffffffffffffffffffffffffff1673ffffffffffffffffffffffffffffffffffffffff1681526020018473ffffffffffffffffffffffffffffffffffffffff1673ffffffffffffffffffffffffffffffffffffffff16815260200183815260200182815260200194505050505060206040518083038186803b1580156107d057600080fd5b505afa1580156107e4573d6000803e3d6000fd5b505050506040513d60208110156107fa57600080fd5b8101908080519060200190929190505050610860576040517f08c379a00000000000000000000000000000000000000000000000000000000081526004018080602001828103825260248152602001806137816024913960400191505060405180910390fd5b60048054905082106108da576040517f08c379a00000000000000000000000000000000000000000000000000000000081526004018080602001828103825260178152602001807f70726f706f73616c20646f6573206e6f7420657869737400000000000000000081525060200191505060405180910390fd5b6000600483815481106108e957fe5b90600052602060002090600e02019050600015158160090160029054906101000a900460ff16151514610984576040517f08c379a00000000000000000000000000000000000000000000000000000000081526004018080602001828103825260198152602001807f70726f706f73616c20686173206265656e2061626f727465640000000000000081525060200191505060405180910390fd5b600015158160090160049054906101000a900460ff161515146109f2576040517f08c379a00000000000000000000000000000000000000000000000000000000081526004018080602001828103825260218152602001806137196021913960400191505060405180910390fd5b60018160090160046101000a81548160ff0219169083151502179055507f3f004c855f0deef350ea73c1c577156652aafa03d4a99b5b31e0f29033199340836040518082815260200191505060405180910390a1505050565b60008060009054906101000a900473ffffffffffffffffffffffffffffffffffffffff16905090565b60008060009054906101000a900473ffffffffffffffffffffffffffffffffffffffff1673ffffffffffffffffffffffffffffffffffffffff1663bf7b00eb6040518163ffffffff1660e01b815260040160206040518083038186803b158015610add57600080fd5b505afa158015610af1573d6000803e3d6000fd5b505050506040513d6020811015610b0757600080fd5b810190808051906020019092919050505073ffffffffffffffffffffffffffffffffffffffff1663578f6a62836040518263ffffffff1660e01b8152600401808273ffffffffffffffffffffffffffffffffffffffff1673ffffffffffffffffffffffffffffffffffffffff168152602001915050602060405180830381600087803b158015610b9657600080fd5b505af1158015610baa573d6000803e3d6000fd5b505050506040513d6020811015610bc057600080fd5b81019080805190602001909291905050509050919050565b60405180807f46756e64506f6f6c5f5072654d696e74000000000000000000000000000000008152506010019050604051809103902081565b6000610c1c33610a74565b11610c8f576040517f08c379a000000000000000000000000000000000000000000000000000000000815260040180806020018281038252600f8152602001807f6e6565642068617320736861726573000000000000000000000000000000000081525060200191505060405180910390fd5b600073ffffffffffffffffffffffffffffffffffffffff168573ffffffffffffffffffffffffffffffffffffffff161415610d32576040517f08c379a00000000000000000000000000000000000000000000000000000000081526004018080602001828103825260198152602001807f5f726563697069656e742063616e6e6f74206265206e756c6c0000000000000081525060200191505060405180910390fd5b6000841015610da9576040517f08c379a00000000000000000000000000000000000000000000000000000000081526004018080602001828103825260168152602001807f76616c7565206e656564206d6f7265207468616e20300000000000000000000081525060200191505060405180910390fd5b6000831015610e20576040517f08c379a000000000000000000000000000000000000000000000000000000000815260040180806020018281038252601f8152602001807f5f74696d65436f6e73756d696e672063616e74206c657373207468616e20300081525060200191505060405180910390fd5b60025460035401341015610e9c576040517f08c379a00000000000000000000000000000000000000000000000000000000081526004018080602001828103825260108152602001807f6e6565642070726f706f73616c4665650000000000000000000000000000000081525060200191505060405180910390fd5b600480549050811115610f17576040517f08c379a00000000000000000000000000000000000000000000000000000000081526004018080602001828103825260168152602001807f5f7265747269616c496e6465782069732077726f6e670000000000000000000081525060200191505060405180910390fd5b610f1f612804565b60405180608001604052804281526020018773ffffffffffffffffffffffffffffffffffffffff168152602001868152602001858152509050610f60612842565b604051806101c0016040528060016004805490500181526020018981526020013373ffffffffffffffffffffffffffffffffffffffff1681526020016000815260200160008152602001838152602001600015158152602001600015158152602001600015158152602001600015158152602001600015158152602001858152602001600073ffffffffffffffffffffffffffffffffffffffff1681526020018481525090507f118ebf69c35c8e5595d2186b6aeebc51ccfe7ed7c70b3a4f8178ca9eb8e513798160000151826020015183604001518460a00151600001518560a00151602001518660a00151604001518760a0015160600151886101600151896101a00151604051808a8152602001806020018973ffffffffffffffffffffffffffffffffffffffff1673ffffffffffffffffffffffffffffffffffffffff1681526020018881526020018773ffffffffffffffffffffffffffffffffffffffff1673ffffffffffffffffffffffffffffffffffffffff1681526020018681526020018581526020018060200184815260200183810383528b818151815260200191508051906020019080838360005b8381101561112c578082015181840152602081019050611111565b50505050905090810190601f1680156111595780820380516001836020036101000a031916815260200191505b50838103825285818151815260200191508051906020019080838360005b83811015611192578082015181840152602081019050611177565b50505050905090810190601f1680156111bf5780820380516001836020036101000a031916815260200191505b509b50505050505050505050505060405180910390a16004819080600181540180825580915050906001820390600052602060002090600e0201600090919290919091506000820151816000015560208201518160010190805190602001906112299291906128ed565b5060408201518160020160006101000a81548173ffffffffffffffffffffffffffffffffffffffff021916908373ffffffffffffffffffffffffffffffffffffffff160217905550606082015181600301556080820151816004015560a0820151816005016000820151816000015560208201518160010160006101000a81548173ffffffffffffffffffffffffffffffffffffffff021916908373ffffffffffffffffffffffffffffffffffffffff1602179055506040820151816002015560608201518160030155505060c08201518160090160006101000a81548160ff02191690831515021790555060e08201518160090160016101000a81548160ff0219169083151502179055506101008201518160090160026101000a81548160ff0219169083151502179055506101208201518160090160036101000a81548160ff0219169083151502179055506101408201518160090160046101000a81548160ff02191690831515021790555061016082015181600b0190805190602001906113b59291906128ed565b5061018082015181600c0160006101000a81548173ffffffffffffffffffffffffffffffffffffffff021916908373ffffffffffffffffffffffffffffffffffffffff1602179055506101a082015181600d01555050505050505050505050565b60035481565b7f290decd9548b62a8d60345a988386fc84ba6bc95484008f6362f93160ef3e56360001b81565b604051808061375b602691396026019050604051809103902081565b60048054905081106114d9576040517f08c379a00000000000000000000000000000000000000000000000000000000081526004018080602001828103825260178152602001807f70726f706f73616c20646f6573206e6f7420657869737400000000000000000081525060200191505060405180910390fd5b6000600482815481106114e857fe5b90600052602060002090600e020190503373ffffffffffffffffffffffffffffffffffffffff168160020160009054906101000a900473ffffffffffffffffffffffffffffffffffffffff1673ffffffffffffffffffffffffffffffffffffffff16146115bd576040517f08c379a00000000000000000000000000000000000000000000000000000000081526004018080602001828103825260198152602001807f73656e6465722073686f756c642062652070726f706f7365720000000000000081525060200191505060405180910390fd5b60015481600501600001540142111561163e576040517f08c379a00000000000000000000000000000000000000000000000000000000081526004018080602001828103825260088152602001807f74696d65206f757400000000000000000000000000000000000000000000000081525060200191505060405180910390fd5b600015158160090160049054906101000a900460ff161515146116ac576040517f08c379a00000000000000000000000000000000000000000000000000000000081526004018080602001828103825260218152602001806137196021913960400191505060405180910390fd5b600015158160090160029054906101000a900460ff16151514611737576040517f08c379a00000000000000000000000000000000000000000000000000000000081526004018080602001828103825260198152602001807f70726f706f73616c20686173206265656e2061626f727465640000000000000081525060200191505060405180910390fd5b60018160090160026101000a81548160ff0219169083151502179055507fb27268ee8d23b38250a0313137fa908b5485a05b62f98c5fe20efc5df37c4f68826040518082815260200191505060405180910390a15050565b60025481565b60006117a033610a74565b11611813576040517f08c379a000000000000000000000000000000000000000000000000000000000815260040180806020018281038252600f8152602001807f6e6565642068617320736861726573000000000000000000000000000000000081525060200191505060405180910390fd5b600480549050831061188d576040517f08c379a00000000000000000000000000000000000000000000000000000000081526004018080602001828103825260178152602001807f70726f706f73616c20646f6573206e6f7420657869737400000000000000000081525060200191505060405180910390fd5b60006004848154811061189c57fe5b90600052602060002090600e0201905060015481600501600001540142111561192d576040517f08c379a00000000000000000000000000000000000000000000000000000000081526004018080602001828103825260088152602001807f74696d65206f757400000000000000000000000000000000000000000000000081525060200191505060405180910390fd5b6000600281111561193a57fe5b81600a0160003373ffffffffffffffffffffffffffffffffffffffff1673ffffffffffffffffffffffffffffffffffffffff16815260200190815260200160002060009054906101000a900460ff16600281111561199457fe5b14611a07576040517f08c379a00000000000000000000000000000000000000000000000000000000081526004018080602001828103825260148152602001807f566f7465732068617665206265656e206361737400000000000000000000000081525060200191505060405180910390fd5b60018360ff161480611a1c575060028360ff16145b611a8e576040517f08c379a000000000000000000000000000000000000000000000000000000000815260040180806020018281038252601f8152602001807f766f746520726573756c74206d757374206265206c657373207468616e20330081525060200191505060405180910390fd5b600015158160090160029054906101000a900460ff16151514611b19576040517f08c379a00000000000000000000000000000000000000000000000000000000081526004018080602001828103825260198152602001807f70726f706f73616c20686173206265656e2061626f727465640000000000000081525060200191505060405180910390fd5b600015158160090160049054906101000a900460ff16151514611b87576040517f08c379a00000000000000000000000000000000000000000000000000000000081526004018080602001828103825260218152602001806137196021913960400191505060405180910390fd5b60008360ff166002811115611b9857fe5b90508082600a0160003373ffffffffffffffffffffffffffffffffffffffff1673ffffffffffffffffffffffffffffffffffffffff16815260200190815260200160002060006101000a81548160ff02191690836002811115611bf757fe5b02179055506000611c0733610a74565b905060016002811115611c1657fe5b826002811115611c2257fe5b1415611c3c57808360030154018360030181905550611c4c565b8083600401540183600401819055505b60008060009054906101000a900473ffffffffffffffffffffffffffffffffffffffff1673ffffffffffffffffffffffffffffffffffffffff1663bf7b00eb6040518163ffffffff1660e01b815260040160206040518083038186803b158015611cb557600080fd5b505afa158015611cc9573d6000803e3d6000fd5b505050506040513d6020811015611cdf57600080fd5b810190808051906020019092919050505073ffffffffffffffffffffffffffffffffffffffff1663c97be180338660000154600154886005016000015401896040518563ffffffff1660e01b8152600401808573ffffffffffffffffffffffffffffffffffffffff1673ffffffffffffffffffffffffffffffffffffffff168152602001848152602001838152602001828152602001945050505050602060405180830381600087803b158015611d9557600080fd5b505af1158015611da9573d6000803e3d6000fd5b505050506040513d6020811015611dbf57600080fd5b8101908080519060200190929190505050905080611e45576040517f08c379a000000000000000000000000000000000000000000000000000000000815260040180806020018281038252600a8152602001807f6c6f636b206572726f720000000000000000000000000000000000000000000081525060200191505060405180910390fd5b7fbc64f9d6bf28430c0cbce4b563fdb6c057c9d05e7f68f3ef84c1c4b91efb940e33888885604051808573ffffffffffffffffffffffffffffffffffffffff1673ffffffffffffffffffffffffffffffffffffffff1681526020018481526020018360ff1660ff16815260200182815260200194505050505060405180910390a150505050505050565b6000809054906101000a900473ffffffffffffffffffffffffffffffffffffffff1681565b6004805490508110611f6e576040517f08c379a00000000000000000000000000000000000000000000000000000000081526004018080602001828103825260178152602001807f70726f706f73616c20646f6573206e6f7420657869737400000000000000000081525060200191505060405180910390fd5b600060048281548110611f7d57fe5b90600052602060002090600e02019050600154816005016000015401421161200d576040517f08c379a000000000000000000000000000000000000000000000000000000000815260040180806020018281038252601b8152602001807f697427732077697468696e20746865206578706972792064617465000000000081525060200191505060405180910390fd5b600015158160090160009054906101000a900460ff16151514612098576040517f08c379a00000000000000000000000000000000000000000000000000000000081526004018080602001828103825260198152602001807f70726f706f73616c20686173206265656e2070726f636573730000000000000081525060200191505060405180910390fd5b600015158160090160029054906101000a900460ff16151514612123576040517f08c379a00000000000000000000000000000000000000000000000000000000081526004018080602001828103825260198152602001807f70726f706f73616c20686173206265656e2061626f727465640000000000000081525060200191505060405180910390fd5b600015158160090160049054906101000a900460ff16151514612191576040517f08c379a00000000000000000000000000000000000000000000000000000000081526004018080602001828103825260218152602001806137196021913960400191505060405180910390fd5b60018160090160006101000a81548160ff0219169083151502179055503373ffffffffffffffffffffffffffffffffffffffff166108fc6003549081150290604051600060405180830381858888f193505050501580156121f6573d6000803e3d6000fd5b5080600401548160030154111561269e5760018160090160016101000a81548160ff021916908315150217905550600081600d0154146122fc576000600482600d01548154811061224357fe5b90600052602060002090600e02019050600081600c0160009054906101000a900473ffffffffffffffffffffffffffffffffffffffff1690508073ffffffffffffffffffffffffffffffffffffffff1663a45544906040518163ffffffff1660e01b8152600401600060405180830381600087803b1580156122c457600080fd5b505af11580156122d8573d6000803e3d6000fd5b5050505060018260090160036101000a81548160ff02191690831515021790555050505b60008160050160020154111561269d576000306000809054906101000a900473ffffffffffffffffffffffffffffffffffffffff1673ffffffffffffffffffffffffffffffffffffffff1663783672e36040518163ffffffff1660e01b815260040160206040518083038186803b15801561237657600080fd5b505afa15801561238a573d6000803e3d6000fd5b505050506040513d60208110156123a057600080fd5b81019080805190602001909291905050508360050160010160009054906101000a900473ffffffffffffffffffffffffffffffffffffffff1642612409620151806123fb8860050160030154426126f690919063ffffffff16565b61277e90919063ffffffff16565b866005016002015460405161241d9061296d565b808773ffffffffffffffffffffffffffffffffffffffff1673ffffffffffffffffffffffffffffffffffffffff1681526020018673ffffffffffffffffffffffffffffffffffffffff1673ffffffffffffffffffffffffffffffffffffffff1681526020018573ffffffffffffffffffffffffffffffffffffffff1673ffffffffffffffffffffffffffffffffffffffff1681526020018481526020018381526020018281526020019650505050505050604051809103906000f0801580156124ea573d6000803e3d6000fd5b5090506000809054906101000a900473ffffffffffffffffffffffffffffffffffffffff1673ffffffffffffffffffffffffffffffffffffffff1663bf7b00eb6040518163ffffffff1660e01b815260040160206040518083038186803b15801561255457600080fd5b505afa158015612568573d6000803e3d6000fd5b505050506040513d602081101561257e57600080fd5b810190808051906020019092919050505073ffffffffffffffffffffffffffffffffffffffff166349dcbc5e8284600501600201546040518363ffffffff1660e01b8152600401808373ffffffffffffffffffffffffffffffffffffffff1673ffffffffffffffffffffffffffffffffffffffff16815260200182815260200192505050602060405180830381600087803b15801561261c57600080fd5b505af1158015612630573d6000803e3d6000fd5b505050506040513d602081101561264657600080fd5b8101908080519060200190929190505050508082600c0160006101000a81548173ffffffffffffffffffffffffffffffffffffffff021916908373ffffffffffffffffffffffffffffffffffffffff160217905550505b5b7f9462edb475995eb7d62498463128dfe01ee36dc2fac0f62e74c2b11d5555da78828260090160019054906101000a900460ff1660405180838152602001821515151581526020019250505060405180910390a15050565b600080828401905083811015612774576040517f08c379a000000000000000000000000000000000000000000000000000000000815260040180806020018281038252601b8152602001807f536166654d6174683a206164646974696f6e206f766572666c6f77000000000081525060200191505060405180910390fd5b8091505092915050565b60008083141561279157600090506127fe565b60008284029050828482816127a257fe5b04146127f9576040517f08c379a000000000000000000000000000000000000000000000000000000000815260040180806020018281038252602181526020018061373a6021913960400191505060405180910390fd5b809150505b92915050565b604051806080016040528060008152602001600073ffffffffffffffffffffffffffffffffffffffff16815260200160008152602001600081525090565b6040518061022001604052806000815260200160608152602001600073ffffffffffffffffffffffffffffffffffffffff168152602001600081526020016000815260200161288f61297a565b815260200160001515815260200160001515815260200160001515815260200160001515815260200160001515815260200160608152602001600073ffffffffffffffffffffffffffffffffffffffff168152602001600081525090565b828054600181600116156101000203166002900490600052602060002090601f016020900481019282601f1061292e57805160ff191683800117855561295c565b8280016001018555821561295c579182015b8281111561295b578251825591602001919060010190612940565b5b50905061296991906129b8565b5090565b610d3b806129de83390190565b604051806080016040528060008152602001600073ffffffffffffffffffffffffffffffffffffffff16815260200160008152602001600081525090565b6129da91905b808211156129d65760008160009055506001016129be565b5090565b9056fe608060405234801561001057600080fd5b5060405160c080610d3b833981018060405260c081101561003057600080fd5b81019080805190602001909291908051906020019092919080519060200190929190805190602001909291908051906020019092919080519060200190929190505050336000806101000a81548173ffffffffffffffffffffffffffffffffffffffff021916908373ffffffffffffffffffffffffffffffffffffffff16021790555060018060008060009054906101000a900473ffffffffffffffffffffffffffffffffffffffff1673ffffffffffffffffffffffffffffffffffffffff1673ffffffffffffffffffffffffffffffffffffffff16815260200190815260200160002060006101000a81548160ff021916908315150217905550856000806101000a81548173ffffffffffffffffffffffffffffffffffffffff021916908373ffffffffffffffffffffffffffffffffffffffff16021790555084600560006101000a81548173ffffffffffffffffffffffffffffffffffffffff021916908373ffffffffffffffffffffffffffffffffffffffff16021790555083600660006101000a81548173ffffffffffffffffffffffffffffffffffffffff021916908373ffffffffffffffffffffffffffffffffffffffff160217905550826002819055508160038190555080600481905550505050505050610b24806102176000396000f3fe6080604052600436106100555760003560e01c80632042e5c214610057578063686e8aaa146100a85780638da5cb5b146100b2578063a455449014610109578063a6f9dae114610113578063e7cd4a0414610164575b005b34801561006357600080fd5b506100a66004803603602081101561007a57600080fd5b81019080803573ffffffffffffffffffffffffffffffffffffffff1690602001909291905050506101b5565b005b6100b06102d4565b005b3480156100be57600080fd5b506100c7610405565b604051808273ffffffffffffffffffffffffffffffffffffffff1673ffffffffffffffffffffffffffffffffffffffff16815260200191505060405180910390f35b61011161042a565b005b34801561011f57600080fd5b506101626004803603602081101561013657600080fd5b81019080803573ffffffffffffffffffffffffffffffffffffffff169060200190929190505050610570565b005b34801561017057600080fd5b506101b36004803603602081101561018757600080fd5b81019080803573ffffffffffffffffffffffffffffffffffffffff169060200190929190505050610719565b005b336000809054906101000a900473ffffffffffffffffffffffffffffffffffffffff1673ffffffffffffffffffffffffffffffffffffffff168173ffffffffffffffffffffffffffffffffffffffff1614610278576040517f08c379a00000000000000000000000000000000000000000000000000000000081526004018080602001828103825260118152602001807f5065726d697373696f6e2064656e69656400000000000000000000000000000081525060200191505060405180910390fd5b6000600160008473ffffffffffffffffffffffffffffffffffffffff1673ffffffffffffffffffffffffffffffffffffffff16815260200190815260200160002060006101000a81548160ff0219169083151502179055505050565b6000610300620151806102f26002544261083790919063ffffffff16565b61088190919063ffffffff16565b905060006103306201518061032260025460035461083790919063ffffffff16565b61088190919063ffffffff16565b9050600080821461037c5761037782610369853073ffffffffffffffffffffffffffffffffffffffff16316108cb90919063ffffffff16565b61088190919063ffffffff16565b610395565b3073ffffffffffffffffffffffffffffffffffffffff16315b9050600660009054906101000a900473ffffffffffffffffffffffffffffffffffffffff1673ffffffffffffffffffffffffffffffffffffffff166108fc829081150290604051600060405180830381858888f193505050501580156103ff573d6000803e3d6000fd5b50505050565b6000809054906101000a900473ffffffffffffffffffffffffffffffffffffffff1681565b336000809054906101000a900473ffffffffffffffffffffffffffffffffffffffff1673ffffffffffffffffffffffffffffffffffffffff168173ffffffffffffffffffffffffffffffffffffffff16146104ed576040517f08c379a00000000000000000000000000000000000000000000000000000000081526004018080602001828103825260118152602001807f5065726d697373696f6e2064656e69656400000000000000000000000000000081525060200191505060405180910390fd5b600560009054906101000a900473ffffffffffffffffffffffffffffffffffffffff1673ffffffffffffffffffffffffffffffffffffffff166108fc3073ffffffffffffffffffffffffffffffffffffffff16319081150290604051600060405180830381858888f1935050505015801561056c573d6000803e3d6000fd5b5050565b336000809054906101000a900473ffffffffffffffffffffffffffffffffffffffff1673ffffffffffffffffffffffffffffffffffffffff168173ffffffffffffffffffffffffffffffffffffffff1614610633576040517f08c379a00000000000000000000000000000000000000000000000000000000081526004018080602001828103825260118152602001807f5065726d697373696f6e2064656e69656400000000000000000000000000000081525060200191505060405180910390fd5b8173ffffffffffffffffffffffffffffffffffffffff163373ffffffffffffffffffffffffffffffffffffffff1614156106d5576040517f08c379a00000000000000000000000000000000000000000000000000000000081526004018080602001828103825260128152602001807f4e6565642061206e65772061646472657373000000000000000000000000000081525060200191505060405180910390fd5b816000806101000a81548173ffffffffffffffffffffffffffffffffffffffff021916908373ffffffffffffffffffffffffffffffffffffffff1602179055505050565b336000809054906101000a900473ffffffffffffffffffffffffffffffffffffffff1673ffffffffffffffffffffffffffffffffffffffff168173ffffffffffffffffffffffffffffffffffffffff16146107dc576040517f08c379a00000000000000000000000000000000000000000000000000000000081526004018080602001828103825260118152602001807f5065726d697373696f6e2064656e69656400000000000000000000000000000081525060200191505060405180910390fd5b60018060008473ffffffffffffffffffffffffffffffffffffffff1673ffffffffffffffffffffffffffffffffffffffff16815260200190815260200160002060006101000a81548160ff0219169083151502179055505050565b600061087983836040518060400160405280601e81526020017f536166654d6174683a207375627472616374696f6e206f766572666c6f770000815250610951565b905092915050565b60006108c383836040518060400160405280601a81526020017f536166654d6174683a206469766973696f6e206279207a65726f000000000000815250610a11565b905092915050565b6000808314156108de576000905061094b565b60008284029050828482816108ef57fe5b0414610946576040517f08c379a0000000000000000000000000000000000000000000000000000000008152600401808060200182810382526021815260200180610ad86021913960400191505060405180910390fd5b809150505b92915050565b60008383111582906109fe576040517f08c379a00000000000000000000000000000000000000000000000000000000081526004018080602001828103825283818151815260200191508051906020019080838360005b838110156109c35780820151818401526020810190506109a8565b50505050905090810190601f1680156109f05780820380516001836020036101000a031916815260200191505b509250505060405180910390fd5b5060008385039050809150509392505050565b60008083118290610abd576040517f08c379a00000000000000000000000000000000000000000000000000000000081526004018080602001828103825283818151815260200191508051906020019080838360005b83811015610a82578082015181840152602081019050610a67565b50505050905090810190601f168015610aaf5780820380516001836020036101000a031916815260200191505b509250505060405180910390fd5b506000838581610ac957fe5b04905080915050939250505056fe536166654d6174683a206d756c7469706c69636174696f6e206f766572666c6f77a165627a7a72305820d9b9af8bb56c694bf366ed82c5bbf881c9abbced49c6051b7668d2b319759769002970726f706f73616c20686173206265656e206f6e655469636b6574526566757365536166654d6174683a206d756c7469706c69636174696f6e206f766572666c6f77566f74655f4170706c7946756e645f4f6e655469636b657452656675736550726f706f73616c4e6f207065726d697373696f6e20746f20696e766f6b652074686520436f6e7472616374a165627a7a7230582075ac37375076d2fbe15024466756de667b101c674e2f529f9450a3a42db595110029",
  "source": "pragma solidity >=0.4.22 <0.6.0;\r\n\r\nimport \"./VoteApp.sol\";\r\nimport \"../Tap/Tap.sol\";\r\n\r\ncontract Vote_ApplyFund is VoteApp{\r\n\r\n    bytes32 public constant Vote_ApplyFund_OneTicketRefuseProposal = keccak256(\"Vote_ApplyFund_OneTicketRefuseProposal\");\r\n\r\n    /// @notice \r\n    Proposal[] private proposalQueue;\r\n\r\n    /// @notice \r\n    struct Proposal{\r\n        uint256 index;//\r\n        string proposalName; //\r\n        address proposer; //\r\n        uint256 approveVotes; //\r\n        uint256 refuseVotes; //\r\n        STap sTap;\r\n        bool process; //\r\n        bool pass; //\r\n        bool abort;//\r\n        bool abandon;//true\r\n        bool oneTicketRefuse;//\r\n        mapping(address => enumVoteResult) voteDetails;\r\n        string detail; //\r\n        address payable address_tap; //\r\n        uint256 retrialIndex; //0\r\n    }\r\n\r\n    struct STap {\r\n        uint256 startTime; //\r\n        address payable recipient; //gas\r\n        uint256 value; //\r\n        uint256 timeConsuming; // 30\r\n    }\r\n\r\n    /// @notice \r\n    event OnApplyProposal(\r\n        uint256 index,\r\n        string proposalName,\r\n        address proposaler,\r\n        uint256 startTime,\r\n        address recipient,\r\n        uint256 value,\r\n        uint256 timeConsuming,\r\n        string detail,\r\n        uint256 retrialIndex\r\n    );\r\n\r\n    /// @param who \r\n    /// @param index \r\n    /// @param voteResult \r\n    /// @param shares \r\n    event OnVote(\r\n        address who,\r\n        uint256 index,\r\n        uint8 voteResult,\r\n        uint256 shares\r\n    );\r\n\r\n    /// @param index  , pass \r\n    event OnProcess(\r\n        uint256 index,\r\n        bool pass\r\n    );\r\n\r\n    /// @param index \r\n    event OnAbort(\r\n        uint256 index\r\n    );\r\n\r\n    /// @param index \r\n    event OnOneTicketRefuse(\r\n        uint256 index\r\n    );\r\n\r\n    constructor(AppManager _appManager) public{\r\n        appManager = _appManager;\r\n    }\r\n\r\n    modifier ownFdt() {\r\n        require(getFdtInGovern(msg.sender)>0, \"need has shares\");\r\n        _;\r\n    }\r\n\r\n    /// @notice \r\n    /// @param _name _recipient _value _timeConsuming _detail \r\n    function applyProposal(\r\n        string memory _name,\r\n        address payable _recipient,\r\n        uint256 _value,\r\n        uint256 _timeConsuming,\r\n        string memory _detail,\r\n        uint256 _retrialIndex\r\n    )\r\n    public\r\n    payable\r\n    ownFdt()\r\n    {\r\n        require(_recipient != address(0),\"_recipient cannot be null\");\r\n        require(_value >= 0,\"value need more than 0\");\r\n        require(_timeConsuming>=0,\"_timeConsuming cant less than 0\");\r\n        //gas\r\n        require(msg.value >= proposalFee + deposit, \"need proposalFee\");\r\n        require(_retrialIndex <= proposalQueue.length,\"_retrialIndex is wrong\");\r\n        STap memory _sTap = STap({\r\n            startTime : now,\r\n            recipient : _recipient,\r\n            value : _value,\r\n            timeConsuming : _timeConsuming\r\n        });\r\n        Proposal memory proposal = Proposal({\r\n            index : proposalQueue.length + 1,\r\n            proposalName : _name,\r\n            proposer : msg.sender,\r\n            approveVotes : 0,\r\n            refuseVotes : 0,\r\n            sTap : _sTap,\r\n            process : false,\r\n            pass : false,\r\n            abort : false,\r\n            oneTicketRefuse : false,\r\n            abandon : false,\r\n            detail : _detail,\r\n            address_tap : address(0),\r\n            retrialIndex : _retrialIndex\r\n        });\r\n\r\n        emit OnApplyProposal(\r\n            proposal.index,\r\n            proposal.proposalName,\r\n            proposal.proposer,\r\n            proposal.sTap.startTime,\r\n            proposal.sTap.recipient,\r\n            proposal.sTap.value,\r\n            proposal.sTap.timeConsuming,\r\n            proposal.detail,\r\n            proposal.retrialIndex\r\n        );\r\n        proposalQueue.push(proposal);\r\n    }\r\n\r\n    function vote(uint256 proposalIndex,uint8 result,uint256 FdtAmount) public ownFdt() {\r\n        //\r\n        require(proposalIndex<proposalQueue.length,\"proposal does not exist\");\r\n        Proposal storage proposal = proposalQueue[proposalIndex];\r\n        //\r\n        require(now <= proposal.sTap.startTime + votingPeriodLength,\"time out\");\r\n        //\r\n        require(proposal.voteDetails[msg.sender] == enumVoteResult.waiver,\"Votes have been cast\");\r\n        //\r\n        require(result == 1||result == 2,\"vote result must be less than 3\");\r\n        //\r\n        require(proposal.abort == false,\"proposal has been aborted\");\r\n        //\r\n        require(proposal.oneTicketRefuse == false,\"proposal has been oneTicketRefuse\");\r\n        //\r\n        enumVoteResult voteResult = enumVoteResult(result);\r\n        proposal.voteDetails[msg.sender] = voteResult;\r\n        //\r\n        uint256 shares = getFdtInGovern(msg.sender);\r\n\r\n        if(voteResult == enumVoteResult.approve){\r\n            proposal.approveVotes = proposal.approveVotes + shares;\r\n        }\r\n        else{\r\n            proposal.refuseVotes = proposal.refuseVotes + shares;\r\n        }\r\n\r\n        bool r = IGovernShareManager(appManager.getGovernShareManager()).lock(\r\n            msg.sender,\r\n            proposal.index,\r\n            proposal.sTap.startTime + votingPeriodLength,\r\n            FdtAmount\r\n        );\r\n        require(r,\"lock error\");\r\n\r\n        emit OnVote(msg.sender,proposalIndex,result,shares);\r\n    }\r\n\r\n    /// @notice \r\n    /// @param proposalIndex \r\n    function abortProposal(uint256 proposalIndex) public{\r\n        //\r\n        require(proposalIndex<proposalQueue.length,\"proposal does not exist\");\r\n        Proposal storage proposal = proposalQueue[proposalIndex];\r\n        //\r\n        require(proposal.proposer == msg.sender,\"sender should be proposer\");\r\n        //\r\n        require(now <= proposal.sTap.startTime + votingPeriodLength,\"time out\");\r\n        //\r\n        require(proposal.oneTicketRefuse == false,\"proposal has been oneTicketRefuse\");\r\n        //\r\n        require(proposal.abort == false,\"proposal has been aborted\");\r\n        proposal.abort = true;\r\n        emit OnAbort(proposalIndex);\r\n    }\r\n\r\n    /// @notice \r\n    /// @dev \r\n    /// @param proposalIndex \r\n    function oneTicketRefuseProposal(uint256 proposalIndex) public auth(Vote_ApplyFund_OneTicketRefuseProposal){\r\n        //\r\n        require(proposalIndex<proposalQueue.length,\"proposal does not exist\");\r\n        Proposal storage proposal = proposalQueue[proposalIndex];\r\n        //\r\n        require(proposal.abort == false,\"proposal has been aborted\");\r\n        //\r\n        require(proposal.oneTicketRefuse == false,\"proposal has been oneTicketRefuse\");\r\n\r\n        proposal.oneTicketRefuse = true;\r\n        emit OnOneTicketRefuse(proposalIndex);\r\n    }\r\n\r\n    /// @notice \r\n    /// @param proposalIndex \r\n    function process(uint256 proposalIndex) public {\r\n        //\r\n        require(proposalIndex<proposalQueue.length,\"proposal does not exist\");\r\n        Proposal storage proposal = proposalQueue[proposalIndex];\r\n        //\r\n        require(now > proposal.sTap.startTime + votingPeriodLength,\"it's within the expiry date\");\r\n        //\r\n        require(proposal.process == false,\"proposal has been process\");\r\n        //\r\n        require(proposal.abort == false,\"proposal has been aborted\");\r\n        //\r\n        require(proposal.oneTicketRefuse == false,\"proposal has been oneTicketRefuse\");\r\n        proposal.process = true;\r\n        //\r\n        msg.sender.transfer(proposalFee);\r\n        //\r\n        if(proposal.approveVotes>proposal.refuseVotes){\r\n            proposal.pass = true;\r\n            //tap\r\n            if(proposal.retrialIndex != 0){\r\n                Proposal storage retrial_proposal = proposalQueue[proposal.retrialIndex];\r\n                Tap address_retrial_tap = Tap(retrial_proposal.address_tap);\r\n                address_retrial_tap.GetMoneyBackToFund();\r\n                retrial_proposal.abandon = true;\r\n            }\r\n            if(proposal.sTap.value>0){\r\n                // \r\n                Tap tap = new Tap(address(this),appManager.getTradeFundPool(),proposal.sTap.recipient,now,(now.add(proposal.sTap.timeConsuming)).mul(1 days),proposal.sTap.value);\r\n                IGovernShareManager(appManager.getGovernShareManager()).sendEth(address(tap),proposal.sTap.value);\r\n                proposal.address_tap = address(tap);\r\n            }\r\n        }\r\n        emit OnProcess(proposalIndex,proposal.pass);\r\n    }\r\n    \r\n    function() external payable{\r\n    }\r\n}",
  "sourcePath": "D:/_______work/FD_Contract_ETH/fd/contracts/Vote/Vote_ApplyFund.sol",
  "compiler": {
    "name": "solc",
    "version": "0.5.8+commit.23d335f2.Emscripten.clang"
  },
  "schemaVersion": "3.0.11",
  "updatedAt": "2019-09-04T09:44:07.611Z",
  "devdoc": {
    "methods": {
      "abortProposal(uint256)": {
        "params": {
          "proposalIndex": ""
        }
      },
      "applyProposal(string,address,uint256,uint256,string,uint256)": {
        "params": {
          "_name": "_recipient _value _timeConsuming _detail "
        }
      },
      "oneTicketRefuseProposal(uint256)": {
        "params": {
          "proposalIndex": ""
        }
      },
      "process(uint256)": {
        "params": {
          "proposalIndex": ""
        }
      }
    }
  },
  "userdoc": {
    "methods": {
      "getFdtInGovern(address)": {
        "notice": ""
      },
      "getFdtTotalSupply()": {
        "notice": ""
      }
    }
  }
}