{
  "contractName": "Vote_ApplyFund",
  "abi": [
    {
      "constant": false,
      "inputs": [],
      "name": "getFdtTotalSupply",
      "outputs": [
        {
          "name": "",
          "type": "uint256"
        }
      ],
      "payable": false,
      "stateMutability": "nonpayable",
      "type": "function"
    },
    {
      "constant": false,
      "inputs": [
        {
          "name": "_addr",
          "type": "address"
        }
      ],
      "name": "getFdtInGovern",
      "outputs": [
        {
          "name": "",
          "type": "uint256"
        }
      ],
      "payable": false,
      "stateMutability": "nonpayable",
      "type": "function"
    },
    {
      "constant": true,
      "inputs": [],
      "name": "proposalFee",
      "outputs": [
        {
          "name": "",
          "type": "uint256"
        }
      ],
      "payable": false,
      "stateMutability": "view",
      "type": "function"
    },
    {
      "constant": true,
      "inputs": [],
      "name": "EMPTY_PARAM_HASH",
      "outputs": [
        {
          "name": "",
          "type": "bytes32"
        }
      ],
      "payable": false,
      "stateMutability": "view",
      "type": "function"
    },
    {
      "constant": true,
      "inputs": [],
      "name": "Vote_ApplyFund_OneTicketRefuseProposal",
      "outputs": [
        {
          "name": "",
          "type": "bytes32"
        }
      ],
      "payable": false,
      "stateMutability": "view",
      "type": "function"
    },
    {
      "constant": true,
      "inputs": [],
      "name": "deposit",
      "outputs": [
        {
          "name": "",
          "type": "uint256"
        }
      ],
      "payable": false,
      "stateMutability": "view",
      "type": "function"
    },
    {
      "constant": true,
      "inputs": [],
      "name": "appManager",
      "outputs": [
        {
          "name": "",
          "type": "address"
        }
      ],
      "payable": false,
      "stateMutability": "view",
      "type": "function"
    },
    {
      "inputs": [
        {
          "name": "_appManager",
          "type": "address"
        }
      ],
      "payable": false,
      "stateMutability": "nonpayable",
      "type": "constructor"
    },
    {
      "anonymous": false,
      "inputs": [
        {
          "indexed": false,
          "name": "index",
          "type": "uint256"
        },
        {
          "indexed": false,
          "name": "proposalName",
          "type": "string"
        },
        {
          "indexed": false,
          "name": "proposaler",
          "type": "address"
        },
        {
          "indexed": false,
          "name": "startTime",
          "type": "uint256"
        },
        {
          "indexed": false,
          "name": "recipient",
          "type": "address"
        },
        {
          "indexed": false,
          "name": "value",
          "type": "uint256"
        },
        {
          "indexed": false,
          "name": "timeConsuming",
          "type": "uint256"
        },
        {
          "indexed": false,
          "name": "detail",
          "type": "string"
        }
      ],
      "name": "OnApplyProposal",
      "type": "event"
    },
    {
      "anonymous": false,
      "inputs": [
        {
          "indexed": false,
          "name": "who",
          "type": "address"
        },
        {
          "indexed": false,
          "name": "index",
          "type": "uint256"
        },
        {
          "indexed": false,
          "name": "voteResult",
          "type": "uint8"
        },
        {
          "indexed": false,
          "name": "shares",
          "type": "uint256"
        }
      ],
      "name": "OnVote",
      "type": "event"
    },
    {
      "anonymous": false,
      "inputs": [
        {
          "indexed": false,
          "name": "index",
          "type": "uint256"
        },
        {
          "indexed": false,
          "name": "pass",
          "type": "bool"
        }
      ],
      "name": "OnProcess",
      "type": "event"
    },
    {
      "anonymous": false,
      "inputs": [
        {
          "indexed": false,
          "name": "index",
          "type": "uint256"
        }
      ],
      "name": "OnAbort",
      "type": "event"
    },
    {
      "anonymous": false,
      "inputs": [
        {
          "indexed": false,
          "name": "index",
          "type": "uint256"
        }
      ],
      "name": "OnOneTicketRefuse",
      "type": "event"
    },
    {
      "constant": false,
      "inputs": [
        {
          "name": "_name",
          "type": "string"
        },
        {
          "name": "_recipient",
          "type": "address"
        },
        {
          "name": "_value",
          "type": "uint256"
        },
        {
          "name": "_timeConsuming",
          "type": "uint256"
        },
        {
          "name": "_detail",
          "type": "string"
        }
      ],
      "name": "applyProposal",
      "outputs": [],
      "payable": true,
      "stateMutability": "payable",
      "type": "function"
    },
    {
      "constant": false,
      "inputs": [
        {
          "name": "proposalIndex",
          "type": "uint256"
        },
        {
          "name": "result",
          "type": "uint8"
        },
        {
          "name": "FdtAmount",
          "type": "uint256"
        }
      ],
      "name": "vote",
      "outputs": [],
      "payable": false,
      "stateMutability": "nonpayable",
      "type": "function"
    },
    {
      "constant": false,
      "inputs": [
        {
          "name": "proposalIndex",
          "type": "uint256"
        }
      ],
      "name": "abortProposal",
      "outputs": [],
      "payable": false,
      "stateMutability": "nonpayable",
      "type": "function"
    },
    {
      "constant": false,
      "inputs": [
        {
          "name": "proposalIndex",
          "type": "uint256"
        }
      ],
      "name": "oneTicketRefuseProposal",
      "outputs": [],
      "payable": false,
      "stateMutability": "nonpayable",
      "type": "function"
    },
    {
      "constant": false,
      "inputs": [
        {
          "name": "proposalIndex",
          "type": "uint256"
        }
      ],
      "name": "process",
      "outputs": [],
      "payable": false,
      "stateMutability": "nonpayable",
      "type": "function"
    }
  ],
  "bytecode": "0x608060405262093a8060015567016345785d8a000060025567016345785d8a000060035534801561002f57600080fd5b50604051602080612ba58339810180604052602081101561004f57600080fd5b8101908080519060200190929190505050806000806101000a81548173ffffffffffffffffffffffffffffffffffffffff021916908373ffffffffffffffffffffffffffffffffffffffff16021790555050612af5806100b06000396000f3fe6080604052600436106100a75760003560e01c8063ca9c846c11610064578063ca9c846c14610353578063cfab3acc1461037e578063d0e30db0146103b9578063e520251a146103e4578063ebe86c1314610436578063ffb2c4791461048d576100a7565b806308731cfe146100ac5780630a81e702146100d7578063578f6a62146101125780637a0a007814610177578063c27cabb5146102fd578063c513f66e14610328575b600080fd5b3480156100b857600080fd5b506100c16104c8565b6040518082815260200191505060405180910390f35b3480156100e357600080fd5b50610110600480360360208110156100fa57600080fd5b81019080803590602001909291905050506105f3565b005b34801561011e57600080fd5b506101616004803603602081101561013557600080fd5b81019080803573ffffffffffffffffffffffffffffffffffffffff16906020019092919050505061098c565b6040518082815260200191505060405180910390f35b6102fb600480360360a081101561018d57600080fd5b81019080803590602001906401000000008111156101aa57600080fd5b8201836020820111156101bc57600080fd5b803590602001918460018302840111640100000000831117156101de57600080fd5b91908080601f016020809104026020016040519081016040528093929190818152602001838380828437600081840152601f19601f820116905080830192505050505050509192919290803573ffffffffffffffffffffffffffffffffffffffff16906020019092919080359060200190929190803590602001909291908035906020019064010000000081111561027557600080fd5b82018360208201111561028757600080fd5b803590602001918460018302840111640100000000831117156102a957600080fd5b91908080601f016020809104026020016040519081016040528093929190818152602001838380828437600081840152601f19601f820116905080830192505050505050509192919290505050610af0565b005b34801561030957600080fd5b506103126111c8565b6040518082815260200191505060405180910390f35b34801561033457600080fd5b5061033d6111ce565b6040518082815260200191505060405180910390f35b34801561035f57600080fd5b506103686111f5565b6040518082815260200191505060405180910390f35b34801561038a57600080fd5b506103b7600480360360208110156103a157600080fd5b8101908080359060200190929190505050611211565b005b3480156103c557600080fd5b506103ce611541565b6040518082815260200191505060405180910390f35b3480156103f057600080fd5b506104346004803603606081101561040757600080fd5b8101908080359060200190929190803560ff16906020019092919080359060200190929190505050611547565b005b34801561044257600080fd5b5061044b611c81565b604051808273ffffffffffffffffffffffffffffffffffffffff1673ffffffffffffffffffffffffffffffffffffffff16815260200191505060405180910390f35b34801561049957600080fd5b506104c6600480360360208110156104b057600080fd5b8101908080359060200190929190505050611ca6565b005b60008060009054906101000a900473ffffffffffffffffffffffffffffffffffffffff1673ffffffffffffffffffffffffffffffffffffffff1663bf7b00eb6040518163ffffffff1660e01b815260040160206040518083038186803b15801561053157600080fd5b505afa158015610545573d6000803e3d6000fd5b505050506040513d602081101561055b57600080fd5b810190808051906020019092919050505073ffffffffffffffffffffffffffffffffffffffff1663e24d20676040518163ffffffff1660e01b8152600401602060405180830381600087803b1580156105b357600080fd5b505af11580156105c7573d6000803e3d6000fd5b505050506040513d60208110156105dd57600080fd5b8101908080519060200190929190505050905090565b6040518080612a8060269139602601905060405180910390206000809054906101000a900473ffffffffffffffffffffffffffffffffffffffff1673ffffffffffffffffffffffffffffffffffffffff16634c5f07493330847f290decd9548b62a8d60345a988386fc84ba6bc95484008f6362f93160ef3e56360001b6040518563ffffffff1660e01b8152600401808573ffffffffffffffffffffffffffffffffffffffff1673ffffffffffffffffffffffffffffffffffffffff1681526020018473ffffffffffffffffffffffffffffffffffffffff1673ffffffffffffffffffffffffffffffffffffffff16815260200183815260200182815260200194505050505060206040518083038186803b15801561071157600080fd5b505afa158015610725573d6000803e3d6000fd5b505050506040513d602081101561073b57600080fd5b81019080805190602001909291905050506107a1576040517f08c379a0000000000000000000000000000000000000000000000000000000008152600401808060200182810382526024815260200180612aa66024913960400191505060405180910390fd5b600480549050821061081b576040517f08c379a00000000000000000000000000000000000000000000000000000000081526004018080602001828103825260178152602001807f70726f706f73616c20646f6573206e6f7420657869737400000000000000000081525060200191505060405180910390fd5b60006004838154811061082a57fe5b90600052602060002090600c02019050600015158160090160029054906101000a900460ff161515146108c5576040517f08c379a00000000000000000000000000000000000000000000000000000000081526004018080602001828103825260198152602001807f70726f706f73616c20686173206265656e2061626f727465640000000000000081525060200191505060405180910390fd5b600015158160090160039054906101000a900460ff16151514610933576040517f08c379a0000000000000000000000000000000000000000000000000000000008152600401808060200182810382526021815260200180612a3e6021913960400191505060405180910390fd5b60018160090160036101000a81548160ff0219169083151502179055507f3f004c855f0deef350ea73c1c577156652aafa03d4a99b5b31e0f29033199340836040518082815260200191505060405180910390a1505050565b60008060009054906101000a900473ffffffffffffffffffffffffffffffffffffffff1673ffffffffffffffffffffffffffffffffffffffff1663bf7b00eb6040518163ffffffff1660e01b815260040160206040518083038186803b1580156109f557600080fd5b505afa158015610a09573d6000803e3d6000fd5b505050506040513d6020811015610a1f57600080fd5b810190808051906020019092919050505073ffffffffffffffffffffffffffffffffffffffff1663578f6a62836040518263ffffffff1660e01b8152600401808273ffffffffffffffffffffffffffffffffffffffff1673ffffffffffffffffffffffffffffffffffffffff168152602001915050602060405180830381600087803b158015610aae57600080fd5b505af1158015610ac2573d6000803e3d6000fd5b505050506040513d6020811015610ad857600080fd5b81019080805190602001909291905050509050919050565b6000610afb3361098c565b11610b6e576040517f08c379a000000000000000000000000000000000000000000000000000000000815260040180806020018281038252600f8152602001807f6e6565642068617320736861726573000000000000000000000000000000000081525060200191505060405180910390fd5b600073ffffffffffffffffffffffffffffffffffffffff168473ffffffffffffffffffffffffffffffffffffffff161415610c11576040517f08c379a00000000000000000000000000000000000000000000000000000000081526004018080602001828103825260198152602001807f5f726563697069656e742063616e6e6f74206265206e756c6c0000000000000081525060200191505060405180910390fd5b60008311610c87576040517f08c379a00000000000000000000000000000000000000000000000000000000081526004018080602001828103825260168152602001807f76616c7565206e656564206d6f7265207468616e20300000000000000000000081525060200191505060405180910390fd5b6000821015610cfe576040517f08c379a000000000000000000000000000000000000000000000000000000000815260040180806020018281038252601f8152602001807f5f74696d65436f6e73756d696e672063616e74206c657373207468616e20300081525060200191505060405180910390fd5b60025460035401341015610d7a576040517f08c379a00000000000000000000000000000000000000000000000000000000081526004018080602001828103825260108152602001807f6e6565642070726f706f73616c4665650000000000000000000000000000000081525060200191505060405180910390fd5b610d82612381565b60405180608001604052804281526020018673ffffffffffffffffffffffffffffffffffffffff168152602001858152602001848152509050610dc36123bf565b60405180610160016040528060048054905081526020018881526020013373ffffffffffffffffffffffffffffffffffffffff16815260200160008152602001600081526020018381526020016000151581526020016000151581526020016000151581526020016000151581526020018481525090507f2502a88482d0c9326f614b5d37916990c3b58ad0abf3acd0ad73b36ce3f2f3818160000151826020015183604001518460a00151600001518560a00151602001518660a00151604001518760a001516060015188610140015160405180898152602001806020018873ffffffffffffffffffffffffffffffffffffffff1673ffffffffffffffffffffffffffffffffffffffff1681526020018781526020018673ffffffffffffffffffffffffffffffffffffffff1673ffffffffffffffffffffffffffffffffffffffff1681526020018581526020018481526020018060200183810383528a818151815260200191508051906020019080838360005b83811015610f54578082015181840152602081019050610f39565b50505050905090810190601f168015610f815780820380516001836020036101000a031916815260200191505b50838103825284818151815260200191508051906020019080838360005b83811015610fba578082015181840152602081019050610f9f565b50505050905090810190601f168015610fe75780820380516001836020036101000a031916815260200191505b509a505050505050505050505060405180910390a16004819080600181540180825580915050906001820390600052602060002090600c02016000909192909190915060008201518160000155602082015181600101908051906020019061105092919061243d565b5060408201518160020160006101000a81548173ffffffffffffffffffffffffffffffffffffffff021916908373ffffffffffffffffffffffffffffffffffffffff160217905550606082015181600301556080820151816004015560a0820151816005016000820151816000015560208201518160010160006101000a81548173ffffffffffffffffffffffffffffffffffffffff021916908373ffffffffffffffffffffffffffffffffffffffff1602179055506040820151816002015560608201518160030155505060c08201518160090160006101000a81548160ff02191690831515021790555060e08201518160090160016101000a81548160ff0219169083151502179055506101008201518160090160026101000a81548160ff0219169083151502179055506101208201518160090160036101000a81548160ff02191690831515021790555061014082015181600b0190805190602001906111bb92919061243d565b5050505050505050505050565b60035481565b7f290decd9548b62a8d60345a988386fc84ba6bc95484008f6362f93160ef3e56360001b81565b6040518080612a80602691396026019050604051809103902081565b600480549050811061128b576040517f08c379a00000000000000000000000000000000000000000000000000000000081526004018080602001828103825260178152602001807f70726f706f73616c20646f6573206e6f7420657869737400000000000000000081525060200191505060405180910390fd5b60006004828154811061129a57fe5b90600052602060002090600c020190503373ffffffffffffffffffffffffffffffffffffffff168160020160009054906101000a900473ffffffffffffffffffffffffffffffffffffffff1673ffffffffffffffffffffffffffffffffffffffff161461136f576040517f08c379a00000000000000000000000000000000000000000000000000000000081526004018080602001828103825260198152602001807f73656e6465722073686f756c642062652070726f706f7365720000000000000081525060200191505060405180910390fd5b6001548160050160000154014211156113f0576040517f08c379a00000000000000000000000000000000000000000000000000000000081526004018080602001828103825260088152602001807f74696d65206f757400000000000000000000000000000000000000000000000081525060200191505060405180910390fd5b600015158160090160039054906101000a900460ff1615151461145e576040517f08c379a0000000000000000000000000000000000000000000000000000000008152600401808060200182810382526021815260200180612a3e6021913960400191505060405180910390fd5b600015158160090160029054906101000a900460ff161515146114e9576040517f08c379a00000000000000000000000000000000000000000000000000000000081526004018080602001828103825260198152602001807f70726f706f73616c20686173206265656e2061626f727465640000000000000081525060200191505060405180910390fd5b60018160090160026101000a81548160ff0219169083151502179055507fb27268ee8d23b38250a0313137fa908b5485a05b62f98c5fe20efc5df37c4f68826040518082815260200191505060405180910390a15050565b60025481565b60006115523361098c565b116115c5576040517f08c379a000000000000000000000000000000000000000000000000000000000815260040180806020018281038252600f8152602001807f6e6565642068617320736861726573000000000000000000000000000000000081525060200191505060405180910390fd5b600480549050831061163f576040517f08c379a00000000000000000000000000000000000000000000000000000000081526004018080602001828103825260178152602001807f70726f706f73616c20646f6573206e6f7420657869737400000000000000000081525060200191505060405180910390fd5b60006004848154811061164e57fe5b90600052602060002090600c020190506001548160050160000154014211156116df576040517f08c379a00000000000000000000000000000000000000000000000000000000081526004018080602001828103825260088152602001807f74696d65206f757400000000000000000000000000000000000000000000000081525060200191505060405180910390fd5b600060028111156116ec57fe5b81600a0160003373ffffffffffffffffffffffffffffffffffffffff1673ffffffffffffffffffffffffffffffffffffffff16815260200190815260200160002060009054906101000a900460ff16600281111561174657fe5b146117b9576040517f08c379a00000000000000000000000000000000000000000000000000000000081526004018080602001828103825260148152602001807f566f7465732068617665206265656e206361737400000000000000000000000081525060200191505060405180910390fd5b60018360ff1614806117ce575060028360ff16145b611840576040517f08c379a000000000000000000000000000000000000000000000000000000000815260040180806020018281038252601f8152602001807f766f746520726573756c74206d757374206265206c657373207468616e20330081525060200191505060405180910390fd5b600015158160090160029054906101000a900460ff161515146118cb576040517f08c379a00000000000000000000000000000000000000000000000000000000081526004018080602001828103825260198152602001807f70726f706f73616c20686173206265656e2061626f727465640000000000000081525060200191505060405180910390fd5b600015158160090160039054906101000a900460ff16151514611939576040517f08c379a0000000000000000000000000000000000000000000000000000000008152600401808060200182810382526021815260200180612a3e6021913960400191505060405180910390fd5b60008360ff16600281111561194a57fe5b90508082600a0160003373ffffffffffffffffffffffffffffffffffffffff1673ffffffffffffffffffffffffffffffffffffffff16815260200190815260200160002060006101000a81548160ff021916908360028111156119a957fe5b021790555060006119b93361098c565b9050600160028111156119c857fe5b8260028111156119d457fe5b14156119ee578083600301540183600301819055506119fe565b8083600401540183600401819055505b7fbc64f9d6bf28430c0cbce4b563fdb6c057c9d05e7f68f3ef84c1c4b91efb940e33878784604051808573ffffffffffffffffffffffffffffffffffffffff1673ffffffffffffffffffffffffffffffffffffffff1681526020018481526020018360ff1660ff16815260200182815260200194505050505060405180910390a160008060009054906101000a900473ffffffffffffffffffffffffffffffffffffffff1673ffffffffffffffffffffffffffffffffffffffff1663bf7b00eb6040518163ffffffff1660e01b815260040160206040518083038186803b158015611ae857600080fd5b505afa158015611afc573d6000803e3d6000fd5b505050506040513d6020811015611b1257600080fd5b810190808051906020019092919050505073ffffffffffffffffffffffffffffffffffffffff1663c97be180338660000154600154886005016000015401896040518563ffffffff1660e01b8152600401808573ffffffffffffffffffffffffffffffffffffffff1673ffffffffffffffffffffffffffffffffffffffff168152602001848152602001838152602001828152602001945050505050602060405180830381600087803b158015611bc857600080fd5b505af1158015611bdc573d6000803e3d6000fd5b505050506040513d6020811015611bf257600080fd5b8101908080519060200190929190505050905080611c78576040517f08c379a000000000000000000000000000000000000000000000000000000000815260040180806020018281038252600a8152602001807f6c6f636b206572726f720000000000000000000000000000000000000000000081525060200191505060405180910390fd5b50505050505050565b6000809054906101000a900473ffffffffffffffffffffffffffffffffffffffff1681565b6004805490508110611d20576040517f08c379a00000000000000000000000000000000000000000000000000000000081526004018080602001828103825260178152602001807f70726f706f73616c20646f6573206e6f7420657869737400000000000000000081525060200191505060405180910390fd5b600060048281548110611d2f57fe5b90600052602060002090600c020190506001548160050160000154014211611dbf576040517f08c379a000000000000000000000000000000000000000000000000000000000815260040180806020018281038252601b8152602001807f697427732077697468696e20746865206578706972792064617465000000000081525060200191505060405180910390fd5b600015158160090160009054906101000a900460ff16151514611e4a576040517f08c379a00000000000000000000000000000000000000000000000000000000081526004018080602001828103825260198152602001807f70726f706f73616c20686173206265656e2070726f636573730000000000000081525060200191505060405180910390fd5b600015158160090160029054906101000a900460ff16151514611ed5576040517f08c379a00000000000000000000000000000000000000000000000000000000081526004018080602001828103825260198152602001807f70726f706f73616c20686173206265656e2061626f727465640000000000000081525060200191505060405180910390fd5b600015158160090160039054906101000a900460ff16151514611f43576040517f08c379a0000000000000000000000000000000000000000000000000000000008152600401808060200182810382526021815260200180612a3e6021913960400191505060405180910390fd5b60018160090160006101000a81548160ff0219169083151502179055503373ffffffffffffffffffffffffffffffffffffffff166108fc6003549081150290604051600060405180830381858888f19350505050158015611fa8573d6000803e3d6000fd5b5080600401548160030154111561221b5760018160090160016101000a81548160ff02191690831515021790555060008160050160010160009054906101000a900473ffffffffffffffffffffffffffffffffffffffff16426120306201518061202286600501600301544261227390919063ffffffff16565b6122fb90919063ffffffff16565b8460050160020154604051612044906124bd565b808573ffffffffffffffffffffffffffffffffffffffff1673ffffffffffffffffffffffffffffffffffffffff168152602001848152602001838152602001828152602001945050505050604051809103906000f0801580156120ab573d6000803e3d6000fd5b5090506000809054906101000a900473ffffffffffffffffffffffffffffffffffffffff1673ffffffffffffffffffffffffffffffffffffffff1663bf7b00eb6040518163ffffffff1660e01b815260040160206040518083038186803b15801561211557600080fd5b505afa158015612129573d6000803e3d6000fd5b505050506040513d602081101561213f57600080fd5b810190808051906020019092919050505073ffffffffffffffffffffffffffffffffffffffff166349dcbc5e8284600501600201546040518363ffffffff1660e01b8152600401808373ffffffffffffffffffffffffffffffffffffffff1673ffffffffffffffffffffffffffffffffffffffff16815260200182815260200192505050602060405180830381600087803b1580156121dd57600080fd5b505af11580156121f1573d6000803e3d6000fd5b505050506040513d602081101561220757600080fd5b810190808051906020019092919050505050505b7f9462edb475995eb7d62498463128dfe01ee36dc2fac0f62e74c2b11d5555da78828260090160019054906101000a900460ff1660405180838152602001821515151581526020019250505060405180910390a15050565b6000808284019050838110156122f1576040517f08c379a000000000000000000000000000000000000000000000000000000000815260040180806020018281038252601b8152602001807f536166654d6174683a206164646974696f6e206f766572666c6f77000000000081525060200191505060405180910390fd5b8091505092915050565b60008083141561230e576000905061237b565b600082840290508284828161231f57fe5b0414612376576040517f08c379a0000000000000000000000000000000000000000000000000000000008152600401808060200182810382526021815260200180612a5f6021913960400191505060405180910390fd5b809150505b92915050565b604051806080016040528060008152602001600073ffffffffffffffffffffffffffffffffffffffff16815260200160008152602001600081525090565b604051806101c001604052806000815260200160608152602001600073ffffffffffffffffffffffffffffffffffffffff168152602001600081526020016000815260200161240c6124ca565b8152602001600015158152602001600015158152602001600015158152602001600015158152602001606081525090565b828054600181600116156101000203166002900490600052602060002090601f016020900481019282601f1061247e57805160ff19168380011785556124ac565b828001600101855582156124ac579182015b828111156124ab578251825591602001919060010190612490565b5b5090506124b99190612508565b5090565b6105108061252e83390190565b604051806080016040528060008152602001600073ffffffffffffffffffffffffffffffffffffffff16815260200160008152602001600081525090565b61252a91905b8082111561252657600081600090555060010161250e565b5090565b9056fe608060405234801561001057600080fd5b506040516080806105108339810180604052608081101561003057600080fd5b810190808051906020019092919080519060200190929190805190602001909291908051906020019092919050505083600360006101000a81548173ffffffffffffffffffffffffffffffffffffffff021916908373ffffffffffffffffffffffffffffffffffffffff16021790555082600081905550816001819055508060028190555050505050610448806100c86000396000f3fe60806040526004361061001e5760003560e01c8063686e8aaa14610020575b005b61002861002a565b005b6000610056620151806100486000544261015b90919063ffffffff16565b6101a590919063ffffffff16565b905060006100866201518061007860005460015461015b90919063ffffffff16565b6101a590919063ffffffff16565b905060008082146100d2576100cd826100bf853073ffffffffffffffffffffffffffffffffffffffff16316101ef90919063ffffffff16565b6101a590919063ffffffff16565b6100eb565b3073ffffffffffffffffffffffffffffffffffffffff16315b9050600360009054906101000a900473ffffffffffffffffffffffffffffffffffffffff1673ffffffffffffffffffffffffffffffffffffffff166108fc829081150290604051600060405180830381858888f19350505050158015610155573d6000803e3d6000fd5b50505050565b600061019d83836040518060400160405280601e81526020017f536166654d6174683a207375627472616374696f6e206f766572666c6f770000815250610275565b905092915050565b60006101e783836040518060400160405280601a81526020017f536166654d6174683a206469766973696f6e206279207a65726f000000000000815250610335565b905092915050565b600080831415610202576000905061026f565b600082840290508284828161021357fe5b041461026a576040517f08c379a00000000000000000000000000000000000000000000000000000000081526004018080602001828103825260218152602001806103fc6021913960400191505060405180910390fd5b809150505b92915050565b6000838311158290610322576040517f08c379a00000000000000000000000000000000000000000000000000000000081526004018080602001828103825283818151815260200191508051906020019080838360005b838110156102e75780820151818401526020810190506102cc565b50505050905090810190601f1680156103145780820380516001836020036101000a031916815260200191505b509250505060405180910390fd5b5060008385039050809150509392505050565b600080831182906103e1576040517f08c379a00000000000000000000000000000000000000000000000000000000081526004018080602001828103825283818151815260200191508051906020019080838360005b838110156103a657808201518184015260208101905061038b565b50505050905090810190601f1680156103d35780820380516001836020036101000a031916815260200191505b509250505060405180910390fd5b5060008385816103ed57fe5b04905080915050939250505056fe536166654d6174683a206d756c7469706c69636174696f6e206f766572666c6f77a165627a7a72305820db315ff17f0c24af82b568baf403157e25a3fb433e10fe434ebe58c9a8f0f128002970726f706f73616c20686173206265656e206f6e655469636b6574526566757365536166654d6174683a206d756c7469706c69636174696f6e206f766572666c6f77566f74655f4170706c7946756e645f4f6e655469636b657452656675736550726f706f73616c4e6f207065726d697373696f6e20746f20696e766f6b652074686520636f6e7472616374a165627a7a72305820dbec9697d6f1e41d39731e380109d8f74defa8e047274734299cdc153f707a980029",
  "source": "pragma solidity >=0.4.22 <0.6.0;\r\n\r\nimport \"./VoteApp.sol\";\r\nimport \"../Tap/Tap.sol\";\r\n\r\ncontract Vote_ApplyFund is VoteApp{\r\n\r\n    bytes32 public constant Vote_ApplyFund_OneTicketRefuseProposal = keccak256(\"Vote_ApplyFund_OneTicketRefuseProposal\");\r\n\r\n    /// @notice \r\n    Proposal[] private proposalQueue;\r\n\r\n    /// @notice \r\n    struct Proposal{\r\n        uint256 index;//\r\n        string proposalName; //\r\n        address proposer; //\r\n        uint256 approveVotes; //\r\n        uint256 refuseVotes; //\r\n        STap sTap;\r\n        bool process; //\r\n        bool pass; //\r\n        bool abort;//\r\n        bool oneTicketRefuse;//\r\n        mapping(address => enumVoteResult) voteDetails;\r\n        string detail; //\r\n    }\r\n\r\n    struct STap {\r\n        uint256 startTime; //\r\n        address payable recipient; //gas\r\n        uint256 value; //\r\n        uint256 timeConsuming; // 30\r\n    }\r\n\r\n    /// @notice \r\n    event OnApplyProposal(\r\n        uint256 index,\r\n        string proposalName,\r\n        address proposaler,\r\n        uint256 startTime,\r\n        address recipient,\r\n        uint256 value,\r\n        uint256 timeConsuming,\r\n        string detail\r\n    );\r\n\r\n    /// @param who \r\n    /// @param index \r\n    /// @param voteResult \r\n    /// @param shares \r\n    event OnVote(\r\n        address who,\r\n        uint256 index,\r\n        uint8 voteResult,\r\n        uint256 shares\r\n    );\r\n\r\n    /// @param index  , pass \r\n    event OnProcess(\r\n        uint256 index,\r\n        bool pass\r\n    );\r\n\r\n    /// @param index \r\n    event OnAbort(\r\n        uint256 index\r\n    );\r\n\r\n    /// @param index \r\n    event OnOneTicketRefuse(\r\n        uint256 index\r\n    );\r\n\r\n    constructor(AppManager _appManager) public{\r\n        appManager = _appManager;\r\n    }\r\n\r\n    modifier ownFdt() {\r\n        require(getFdtInGovern(msg.sender)>0, \"need has shares\");\r\n        _;\r\n    }\r\n\r\n    /// @notice \r\n    /// @param _name _recipient _value _timeConsuming _detail \r\n    function applyProposal(\r\n        string memory _name,\r\n        address payable _recipient,\r\n        uint256 _value,\r\n        uint256 _timeConsuming,\r\n        string memory _detail\r\n    )\r\n    public\r\n    payable\r\n    ownFdt()\r\n    {\r\n        require(_recipient != address(0),\"_recipient cannot be null\");\r\n        require(_value>0,\"value need more than 0\");\r\n        require(_timeConsuming>=0,\"_timeConsuming cant less than 0\");\r\n        //gas\r\n        require(msg.value >= proposalFee + deposit, \"need proposalFee\");\r\n        STap memory _sTap = STap({\r\n            startTime : now,\r\n            recipient : _recipient,\r\n            value : _value,\r\n            timeConsuming : _timeConsuming\r\n        });\r\n        Proposal memory proposal = Proposal({\r\n            index : proposalQueue.length,\r\n            proposalName : _name,\r\n            proposer : msg.sender,\r\n            approveVotes : 0,\r\n            refuseVotes : 0,\r\n            sTap : _sTap,\r\n            process : false,\r\n            pass : false,\r\n            abort : false,\r\n            oneTicketRefuse : false,\r\n            detail : _detail\r\n        });\r\n\r\n        emit OnApplyProposal(\r\n            proposal.index,\r\n            proposal.proposalName,\r\n            proposal.proposer,\r\n            proposal.sTap.startTime,\r\n            proposal.sTap.recipient,\r\n            proposal.sTap.value,\r\n            proposal.sTap.timeConsuming,\r\n            proposal.detail\r\n        );\r\n        proposalQueue.push(proposal);\r\n    }\r\n\r\n    function vote(uint256 proposalIndex,uint8 result,uint256 FdtAmount) public ownFdt() {\r\n        //\r\n        require(proposalIndex<proposalQueue.length,\"proposal does not exist\");\r\n        Proposal storage proposal = proposalQueue[proposalIndex];\r\n        //\r\n        require(now <= proposal.sTap.startTime + votingPeriodLength,\"time out\");\r\n        //\r\n        require(proposal.voteDetails[msg.sender] == enumVoteResult.waiver,\"Votes have been cast\");\r\n        //\r\n        require(result == 1||result == 2,\"vote result must be less than 3\");\r\n        //\r\n        require(proposal.abort == false,\"proposal has been aborted\");\r\n        //\r\n        require(proposal.oneTicketRefuse == false,\"proposal has been oneTicketRefuse\");\r\n        //\r\n        enumVoteResult voteResult = enumVoteResult(result);\r\n        proposal.voteDetails[msg.sender] = voteResult;\r\n        //\r\n        uint256 shares = getFdtInGovern(msg.sender);\r\n\r\n        if(voteResult == enumVoteResult.approve){\r\n            proposal.approveVotes = proposal.approveVotes + shares;\r\n        }\r\n        else{\r\n            proposal.refuseVotes = proposal.refuseVotes + shares;\r\n        }\r\n        emit OnVote(msg.sender,proposalIndex,result,shares);\r\n\r\n        bool r = IGovernShareManager(appManager.getGovernShareManager()).lock(\r\n            msg.sender,\r\n            proposal.index,\r\n            proposal.sTap.startTime + votingPeriodLength,\r\n            FdtAmount\r\n        );\r\n        require(r,\"lock error\");\r\n    }\r\n\r\n    /// @notice \r\n    /// @param proposalIndex \r\n    function abortProposal(uint256 proposalIndex) public{\r\n        //\r\n        require(proposalIndex<proposalQueue.length,\"proposal does not exist\");\r\n        Proposal storage proposal = proposalQueue[proposalIndex];\r\n        //\r\n        require(proposal.proposer == msg.sender,\"sender should be proposer\");\r\n        //\r\n        require(now <= proposal.sTap.startTime + votingPeriodLength,\"time out\");\r\n        //\r\n        require(proposal.oneTicketRefuse == false,\"proposal has been oneTicketRefuse\");\r\n        //\r\n        require(proposal.abort == false,\"proposal has been aborted\");\r\n        proposal.abort = true;\r\n        emit OnAbort(proposalIndex);\r\n    }\r\n\r\n    /// @notice \r\n    /// @dev \r\n    /// @param proposalIndex \r\n    function oneTicketRefuseProposal(uint256 proposalIndex) public auth(Vote_ApplyFund_OneTicketRefuseProposal){\r\n        //\r\n        require(proposalIndex<proposalQueue.length,\"proposal does not exist\");\r\n        Proposal storage proposal = proposalQueue[proposalIndex];\r\n        //\r\n        require(proposal.abort == false,\"proposal has been aborted\");\r\n        //\r\n        require(proposal.oneTicketRefuse == false,\"proposal has been oneTicketRefuse\");\r\n\r\n        proposal.oneTicketRefuse = true;\r\n        emit OnOneTicketRefuse(proposalIndex);\r\n    }\r\n\r\n    /// @notice \r\n    /// @param proposalIndex \r\n    function process(uint256 proposalIndex) public {\r\n        //\r\n        require(proposalIndex<proposalQueue.length,\"proposal does not exist\");\r\n        Proposal storage proposal = proposalQueue[proposalIndex];\r\n        //\r\n        require(now > proposal.sTap.startTime + votingPeriodLength,\"it's within the expiry date\");\r\n        //\r\n        require(proposal.process == false,\"proposal has been process\");\r\n        //\r\n        require(proposal.abort == false,\"proposal has been aborted\");\r\n        //\r\n        require(proposal.oneTicketRefuse == false,\"proposal has been oneTicketRefuse\");\r\n        proposal.process = true;\r\n        //\r\n        msg.sender.transfer(proposalFee);\r\n        //\r\n        if(proposal.approveVotes>proposal.refuseVotes){\r\n            proposal.pass = true;\r\n            // \r\n            Tap tap = new Tap(proposal.sTap.recipient,now,(now.add(proposal.sTap.timeConsuming)).mul(1 days),proposal.sTap.value);\r\n            IGovernShareManager(appManager.getGovernShareManager()).sendEth(address(tap),proposal.sTap.value);\r\n        }\r\n        emit OnProcess(proposalIndex,proposal.pass);\r\n    }\r\n}",
  "sourcePath": "D:/_______work/FD_Contract_ETH/fd/contracts/Vote/Vote_ApplyFund.sol",
  "compiler": {
    "name": "solc",
    "version": "0.5.8+commit.23d335f2.Emscripten.clang"
  },
  "schemaVersion": "3.0.11",
  "updatedAt": "2019-08-27T10:11:57.891Z",
  "devdoc": {
    "methods": {
      "abortProposal(uint256)": {
        "params": {
          "proposalIndex": ""
        }
      },
      "applyProposal(string,address,uint256,uint256,string)": {
        "params": {
          "_name": "_recipient _value _timeConsuming _detail "
        }
      },
      "oneTicketRefuseProposal(uint256)": {
        "params": {
          "proposalIndex": ""
        }
      },
      "process(uint256)": {
        "params": {
          "proposalIndex": ""
        }
      }
    }
  },
  "userdoc": {
    "methods": {
      "getFdtInGovern(address)": {
        "notice": ""
      },
      "getFdtTotalSupply()": {
        "notice": ""
      }
    }
  }
}